:020000040800F2
:1000000018E20020F9010008FD010008FF010008C6
:1000100001020008030200080502000800000000B9
:1000200000000000000000000000000007020008BF
:100030000902000800000000C1020008353C000869
:100040000F0200080F0200080F0200080F0200084C
:100050000F0200080F0200080F0200080F0200083C
:100060000F0200080F0200080F0200080F0200082C
:100070000F0200080F0200080F0200080F0200081C
:100080000F0200080F0200080F0200080F0200080C
:100090000F0200080F0200080F0200080F020008FC
:1000A0000F0200080F0200080F0200080F020008EC
:1000B0000F0200080F0200080F0200080F020008DC
:1000C0000F0200080F0200080F0200080F020008CC
:1000D0000F020008493C00080F0200080F02000848
:1000E0000F0200080F0200080F0200080F020008AC
:1000F0000F0200080F0200080F0200080F0200089C
:100100000F0200080F0200080F0200080F0200088B
:100110000F0200080F0200080F0200080F0200087B
:100120000F0200080F0200080F0200080F0200086B
:1001300000F002F800F050F80AA090E8000C8244A9
:100140008344AAF10107DA4501D100F045F8AFF286
:10015000090EBAE80F0013F0010F18BFFB1A43F0A5
:100160000103184744E0000064E00000103A24BF97
:1001700078C878C1FAD8520724BF30C830C144BF0C
:1001800004680C607047000000230024002500264E
:10019000103A28BF78C1FBD8520728BF30C148BFEA
:1001A0000B60704766290AF0C086642900F03C8124
:1001B000782900F07581732900F0158500207047BB
:1001C0001FB500F027FD0400002000210AF04EF9C1
:1001D000E0601FBD10B510BD00F020FE1146FFF716
:1001E000EFFF08F035FB00F03EFE03B4FFF7F2FF2F
:1001F00003BC03F08AFD000008480047FEE7FEE765
:10020000FEE7FEE7FEE7FEE7FEE7FEE7FEE7FEE7C6
:1002100003480449044A054B7047000031010008B7
:1002200018DC002018E2002018DE002018DE002074
:1002300072B602B4EFF3118180F31188BFF34F8FD0
:10024000BFF36F8F084602BC62B6704772B680F388
:100250001188BFF34F8FBFF36F8F62B6704772B6CE
:1002600030484FF0FF010170002080F309882E48CC
:10027000016881F3088802F09FFC2C48012101707D
:100280002B482C490A7802702B482C490A680260D6
:10029000106880F30988EFF3148040F0020080F3C7
:1002A0001488BFF36F8FBDE8F04F0FBCBDE800505E
:1002B00006BC62B6084722484FF080510160704783
:1002C00072B640F2A802C2F20002116881F31188EE
:1002D000BFF34F8FBFF36F8F62B6EFF3098020E952
:1002E000F04F154D29680860744602F065FC10480F
:1002F00010490A78027011490A682A6044F0040E15
:100300001068B0E8F04F80F3098840F20002C0F2B4
:10031000000272B682F31188BFF34F8FBFF36F8F65
:1003200062B6704722ED00E0A0000020D20000205D
:10033000C7000020C8000020D8000020E0000020F6
:1003400004ED00E0704700000FB4044910B503AAA3
:10035000029800F04DFC10BC5DF814FB7C000020FE
:100360000FB41CB5074B06AA7B446946009005985C
:1003700000F00FFC0020694600F01EFC1CBC5DF87C
:1003800014FB00004D08000070B504468569006844
:10039000C10601D5302600E02026C00707D070BD79
:1003A000D4E9012130469047206A401C20626D1E2E
:1003B000F6D570BD70B5044685690078C00707D1D1
:1003C00070BDD4E9012120209047206A401C2062A2
:1003D0006D1EF6D570BD70B50C460546012A05D0D8
:1003E0002878800600D5EA69002302E0012305E0B1
:1003F0005B1C934202D2E05C0028F9D1A869E618A0
:10040000C01AA861286A184428622846FFF7BCFF72
:1004100004E0D5E9012114F8010B9047B442F8D368
:100420002846FFF7C7FF70BD2DE9F04106460024BE
:1004300010687529314616A510D0AFF3008000284A
:1004400002DA404213A507E031688A0701D512A5F8
:1004500002E0490704D511A5012401E0AFF30080B3
:1004600000210A2206F1240709E0B0FBF2FCB0FBF0
:10047000F2F302FB1C00303078541846491C002867
:10048000F3D123462A463046BDE8F04100F014B9C6
:10049000000000002D0000002B00000020000000E4
:1004A00070B504460D4621461068AFF300802188E0
:1004B000090502D50F4A7A4402E00E4A7A440E3208
:1004C000002104F1240305E000F00F060009965D09
:1004D0005E54491C0028F7D120780023000704D57A
:1004E000702D02D009B1022311322046BDE87040C0
:1004F00000F0E2B8A2DB00002DE9F05F8946044677
:100500004FF0000ADFF824B1FB44C0F820A02046D9
:10051000E168884700287DD0252806D0D4E901214C
:100520009047206A401C2062F1E700255F46204684
:10053000E16888472028064607DB312E05D2B81926
:1005400010F8200C08B10543F1E7A80701D525F004
:100550000405C4F81CA00027C4F818A02A2E09D04E
:10056000304603F0CBFB38B304EB8708303EC8F8C5
:10057000186019E059F8041B204604EB87029161CA
:10058000E1688847012F064618D1E069002820DA83
:1005900025F020051DE0D8F8180000EB800006EBE0
:1005A00040003038C8F818002046E1688847064601
:1005B00003F0A4FB0028EED1012F0AD02E2E08D183
:1005C0002046E16888477F1C0646022F45F020053B
:1005D000C4DBA069002803DA404245F00105A061B0
:1005E000E80701D025F01005A6B1A6F141001928B1
:1005F00002D8203645F400654A463146204625603B
:100600004D46FFF7CFFD60B1012807D0ED1D25F065
:10061000070000E007E000F1080978E705F10409A8
:1006200075E730467AE7206ABDE8F09F78DB000086
:100630004FF0013C50F8042B51F8043B9A4221D171
:10064000A2EB0C03934313EACC1317D150F8042BFD
:1006500051F8043B9A4215D1A2EB0C03934313EAE1
:10066000CC130BD150F8042B51F8043B9A4209D11A
:10067000A2EB0C03934313EACC13DBD04FF0000042
:10068000704700BFD01A01BAB1FA81F101F0180128
:1006900022FA01F0CB40C1F12001DBB2C0B2C01A96
:1006A0002CFA01F3D11A914311EAC311E6D1704734
:1006B00070477047704770472DE9F0470D469946DF
:1006C0009246044600F124080168880604D5E069D2
:1006D00021F01001216000E00120A84201DD471B4C
:1006E00000E00027A1697A1902EB0900081AA0614D
:1006F0002078C00602D42046FFF746FE002608E018
:10070000D4E901211AF806009047206A401C761CA3
:1007100020624E45F4DB2078C0060AD52046FFF75C
:1007200033FE06E0D4E9012130209047206A401CC6
:100730002062381EA7F10107F4DC07E0D4E90121AB
:1007400018F805009047206A401C2062281EA5F179
:100750000105F3DC2046FFF72DFE2078000602D5C8
:100760000220BDE8F0870120FBE770472DE9FF4F2D
:100770000C461E464FF0FF378BB0D2E90001DDF882
:1007800060800A908A46C1F30A5505B93D460021AA
:1007900008464FF00000BAF1000F00F4400005DAFF
:1007A00000EB80004FF4400101EA50004FEA9059FD
:1007B000B9F1010F00DDB9460A9850EA4A000ED09F
:1007C00044F61050A5F2FF3545432F14B8F1000F41
:1007D0001ED07542291E1EDDC9F100021CE0B8F1D1
:1007E000010F4FF0000001D0302103E0F24305E09B
:1007F0002154401CB042FBDB304600220021215432
:100800000B99C1F80880C1E900200FB0BDE8F08F56
:10081000BD1B6D1CDEE74A4600DA694206A800F0FF
:1008200083FA06AB93E8070003AB83E80700504662
:100830000A9900F021FB8DE80700A0F500501F3851
:1008400000900398002D0ADD42F21F014A46084439
:10085000002303A90390684600F08AFD09E0A0F593
:1008600000504A461F38002303A90390684600F051
:1008700094FD8DE807000004000C03D04FF0FF301A
:10088000410800E01046B8F1000F03D000220092AA
:1008900015461EE0751E05D400F0C0F930326255D1
:1008A0006D1EF9D5B3460122084302D000227F1CF9
:1008B00004E02078302801D100227F1E002A099709
:1008C00084D01DE0112D07DA00F0A8F9303262550E
:1008D0006D1C50EA0102F5D1084302D00098C8B15E
:1008E0000EE00021681E05E0235C625C6354225424
:1008F000401E491C8142F7DBAB46A81B401E0990F5
:10090000002004F80B000B98099AC0F80880C0E991
:10091000002B7AE711264FF0000857E72DE9F04F3A
:1009200088460446D21D22F0070191B0D1E90001AA
:10093000CDE90A0103F0CEF902460B98C00F01D0B1
:100940002D2007E02068810701D52B2002E020211F
:1009500001EAC000032A099001D0072A05DB0346FB
:100960004146204600F0A0F90BE12078800601D531
:10097000E06900E00620B8F1650F814606D0B8F1C5
:10098000660F18D0B8F1670F70D131E00020B9F1CF
:10099000110F009001DB112301E009F101030AAA04
:1009A00001A90CA8FFF7E2FEDDE90C70002609F1B1
:1009B0000105834647E001204B4600904FF0004779
:1009C0000AAA01A90CA8FFF7D1FEDDE90DB00C9928
:1009D0005D46002610B909F101000D18B9EB0500BC
:1009E00003D4C0F1FF3609F10105A5EB09002BE0A6
:1009F000B9F1010F01DA4FF001090020B9F1110F2F
:100A00000090484601DD112300E003460AAA01A92F
:100A10000CA8FFF7ABFEDDE90C704D4600268346BF
:100A2000207800070AD4AB4500DA5D4601A8012D05
:100A300004DD411911F8011C302907D04F4502DAB5
:100A400017F1040F04DA012082460FE06D1EEEE775
:100A5000002F02DCED1B3E4403E0781CA84200DDC1
:100A60007D1CB81B00F1010A4FF0004720780007F9
:100A700003D4AA4501DB4FF0FF3A0021B7F1004F44
:100A80000DF143088DF8431024D002202B23002FB2
:100A900001DA7F422D230A21021EA0F1010000DCB1
:100AA0005FB197FBF1FC97FBF1F201FB1C7C174651
:100AB0000CF1300C08F801CDEEE7A8F1010003704D
:100AC0002188090501D5452100E06521A0F1010833
:100AD00000F8011C09980FA9A1EB0807FF1D00B140
:100AE0000120411901EBEA70A1693844081A401E3F
:100AF000A0612078C00602D42046FFF745FC099883
:100B000028B1D4E901219047206A401C2062207856
:100B1000C00622D52046FFF737FC1EE0002E04DB7E
:100B2000B34502DD01A8805D00E03020D4E9012159
:100B30009047206A401C2062761CAAF101005FEAFF
:100B4000000A0AD100F066F8C0680168405CD4E988
:100B500001219047206A401C2062281EA5F1010552
:100B6000DCDC07E0D4E9012118F8010B9047206A8A
:100B7000401C2062381EA7F10107F3DC2046FFF776
:100B800019FC032011B041E601694A1C0261087892
:100B9000704700B58FB0CDE90131002105910549BD
:100BA0007944CDE9031011466846FFF7A5FC0FB064
:100BB00000BD0000E5FFFFFF0A6802F8010B0A60B4
:100BC000704710B5436913B1AFF3008001E0FFF740
:100BD00002FC012010BD127800F124010A700022ED
:100BE0004A700122EDE711684FF0FF32E9E700009B
:100BF000074B70B50D467B44FFF7CBFF04462846F4
:100C000000F004F910B14FF0FF3070BD204670BD08
:100C10009736000000487047D8DB002030B5B0F1AF
:100C20000A024FEA900E71F100034EEA817EB0EBAA
:100C30000E0061EB91014FEA101E4EEA017E10EBAF
:100C40000E0041EB11114FEA102E4EEA016E10EB2F
:100C50000E0041EB11214FEA104E4EEA014E10EB0F
:100C60000E0041EB1141401841F100014FEAD00064
:100C700040EA41704FEAD10110EB80054FEA810450
:100C800044EA907444EB01046D1944EB0404521BD4
:100C9000A3414FF0000348BF0A3200D530BD401CCD
:100CA00041F1000130BD00002DE9F0411F4604462E
:100CB00003260168072A01F4006004DB08B116A5C9
:100CC00005E016A503E008B115A500E015A521F083
:100CD00010002060A069C01EA0610FB1401EA0617D
:100CE0002046FFF751FB4FB1D4E901213846904728
:100CF000206A401C2062C01C206206E0206AFAE7DD
:100D0000D4E9012115F8010B9047761EF8D2204650
:100D1000FFF750FBBDE8F0814E414E006E616E0062
:100D2000494E4600696E66002DE9F0478146164639
:100D30008AB0354878440DC88DE80D0032487844B3
:100D4000801C03AC0DC884E80D0041F69B300844BC
:100D5000372190FBF1F290FBF1F5A5F1800501FB45
:100D600012041B3C02D56442012000E00020DFF8A1
:100D700098A080460027FA44AAF1BE0A0EE0E007D8
:100D80000AD03246684607EB470101230AEB81018E
:100D900000F003FB8DE8070064107F1C002CEED1EF
:100DA000194F7F44AE3F19E0E80715D007EB041058
:100DB0000DF1180A90E80E008AE80E00C068F042B3
:100DC00001D1981908903246012306A903A800F022
:100DD000E4FA03AB83E807006D10641C002DE3D137
:100DE0004FF0010332466946B8F1000F03A802D064
:100DF00000F0BEFA01E000F0D0FAC9E90001C9F83C
:100E000008200AB0BDE8F087DCD30000007B00F0CA
:100E10008000704700487047B8DB00207546FFF738
:100E2000F9FFAE4605006946534620F007008546A7
:100E300018B020B5FFF7ECF9BDE820404FF00006F0
:100E40004FF000074FF000084FF0000B21F00701B2
:100E5000AC46ACE8C009ACE8C009ACE8C009ACE8F5
:100E6000C0098D46704710B50446AFF30080204698
:100E7000BDE81040FFF7B9B95FEA400C08BF91F038
:100E8000000F4FEA8C234FEAC12243EA51514FEA47
:100E90001C5018BF00F5F0404FEA300018BF41F079
:100EA00000415FEA6C5C00F02980BCF1FF3F08BFA5
:100EB00040F080407047130C06BF12044FF0100C36
:100EC0004FF0000C130E04BF12020CF1080C130FAC
:100ED00004BF12010CF1040C930F04BF92000CF13B
:100EE000020CD30F04BF52000CF1010C11464FF05D
:100EF0000002A0F11F00A0EB0C00704711F0004FA2
:100F000008BF704731F000413FF4D5AF0B0C06BF6E
:100F100009044FF0100C4FF0000C0B0E04BF090237
:100F20000CF1080C0B0F04BF09010CF1040C8B0F22
:100F300004BF89000CF1020CCB0F04BF49000CF177
:100F4000010CCCF12003A0EB0C0022FA03F302FA0F
:100F50000CF241EA030100F10100704720F07F4CE0
:100F600080EA030023F07F47ACEB070303F57C53D3
:100F700000F0004003F1FF032DE980494FEA154BD3
:100F800009B44FEA144325EA0B4E24EA03480FF252
:100F9000042606EB132749083E785FEA320203FB7A
:100FA0000667C7F5000707FB06F64FEA54374FEA16
:100FB000D64606F1020607FB066CCCF1005C4FEA50
:100FC0001C472CEA074C07FB06F40CFB06F504EB68
:100FD00015464FEA961634BF00204FF000404FEA06
:100FE000D13706FB07FC4FEA1C4C0CFB0BF7D21B5E
:100FF00003FB0CF761EB07010CFB0EF7B0EB0740AE
:1010000072EB17420CFB08F734BFA2EB0742B2EBBE
:10101000074261EB17414FEA0C444FEA910706FB88
:1010200007FC4FEA1C4C0CFB0BF7B0EBC74072EB14
:10103000573203FB0CF734BFA2EBC742B2EBC742F7
:1010400061EB57310CFB0EF7B0EBC70072EB577238
:101050000CFB08F734BFA2EBC702B2EBC70261EB8F
:101060005771039F4FEA816141EA921104EBCC046E
:101070004FEAD1374FEA826206FB07FC42EA901240
:101080004FEA80604FEA1C4C0CFB0BF7D21B03FBB2
:101090000CF761EB07010CFB0EF7B0EB074072EBAE
:1010A00017420CFB08F734BFA2EB0742B2EB074232
:1010B00061EB17414FEA8C554FEA910704EB9C24F2
:1010C00006FB07FC4FEA1C4C0CFB0BF7B0EBC740D0
:1010D00072EB573203FB0CF734BFA2EBC742B2EB03
:1010E000C74261EB57310CFB0EF7B0EBC70072EB58
:1010F00057720CFB08F734BFA2EBC702B2EBC70272
:1011000061EB577115EB4C254FEA816141EA921171
:101110004FEA82624FEAD13742EA901206FB07FC9F
:1011200044F100044FEA80604FEA1C4C0CFB0BF7C3
:10113000D21B03FB0CF761EB07010CFB0EF7B0EBC6
:10114000074072EB17420CFB08F734BFA2EB0742D3
:10115000B2EB074261EB174115EB1C154FEA8131E9
:1011600041EA92414FEA823242EA90424FEA8030AD
:101170004FEA0C7644F1000448EA03434EEA0B4878
:101180004FF0000EB2EB080C71EB030724BF624670
:1011900039464EEB0E0E4FF0000B001852414941FC
:1011A0004BEB0B0BB2EB080C71EB03077BF1000B65
:1011B00024BF624639464EEB0E0E4FF0000B00186E
:1011C000524149414BEB0B0BB2EB080C71EB03079F
:1011D0007BF1000B24BF624639464EEB0E0E51EAFE
:1011E000020718BF46F0010616EB0E7655F1000215
:1011F00054F1000103D5BDE88901BDE80088BDE8D0
:101200008901BDE80048B619524141EB0101A3F143
:101210000103704780807F7E7D7C7B7A797877764A
:1012200076757473727171706F6E6E6D6C6C6B6AC3
:101230006A69686867666665646463636261616061
:10124000605F5F5E5E5D5D5C5C5B5B5A5A595958DE
:101250005857575656555555545453535252525148
:10126000515050504F4F4F4E4E4D4D4D4C4C4C4B9E
:101270004B4B4A4A4A4949494848484747474746E5
:101280004646454545444444444343434342424221
:1012900042414141002B9C4630D477002BD01CB5F5
:1012A0004FEA370703B44FF010004FF01001BAF1C6
:1012B000000F06D0BCF1000FDCBF40F0080040F08A
:1012C00008014FF000000FBCBDE810400BF1010B0E
:1012D000BBF1010F08BF5FEA170722BF12F101023D
:1012E00011F101014FF0004143F1000300F0004013
:1012F00043EA00007047F9D35708D0E746EA0646AC
:1013000013F1400F4FEA16461FDD13F1200FDFBF28
:1013100016430A46002120335B42BED0C3F12007AA
:1013200046EA064602FA07F74FEA164646EA070675
:10133000C3F1200722FA03F201FA07F721FA03F1B9
:101340004FF0000342EA0702A7E746EA020646EA30
:1013500006464FEA164646EA0106BCBF46EA06467E
:10136000360C4FF000034FF000024FF0000194E7FD
:101370002DE9804C9A46934670B491E8380007C82E
:1013800031EA400C48BF34EA430C03D5FFF7E6FDD1
:10139000FFF780FFF0BCBDE8008C2DE9804C9A4639
:1013A000934670B491E8380007C810F0804F08BF2A
:1013B00013F0804F03D100F005F8FFF76BFFF0BC8E
:1013C000BDE8008C20F07F4780EA030023F07F4CCB
:1013D00007EB0C03A3F57C5300F00040A3F1FE03E0
:1013E00092F0000F00F0B38095F0000F00F07780CE
:1013F0002DE901494FEA11404FEA144621EA00481D
:1014000000FB06FC24EA064708FB06F607FB08F883
:1014100000FB07F718EB06484CEB164C4FEA124B53
:1014200018EB07484FEA15464CEB174022EA0B4EE3
:101430000BFB06FC25EA06470EFB06F607FB0EFE35
:101440000BFB07F71EEB064E4CEB164C4FF000065D
:101450001EEB074E4CEB174B18EB0B0840F100004E
:1014600018EB0E0B58EB000840F100008F1A4FF0FC
:1014700000013CBFC943661B14BFB5EB040C00213F
:101480003CBFC943F61B4FEA17444EEA8E0E27EACB
:1014900004454FEA1C4704FB07622CEA074C05FB96
:1014A00007F70CFB05F604FB0CFC16EB074642EBBA
:1014B000174216EB0C4642EB1C421BEB060658EBA0
:1014C0000202414146EA9E0601D5BDE80189B619EE
:1014D000524141EB0101A3F10103BDE801894FEA4B
:1014E00014454FEA114724EA054621EA074C05FB5B
:1014F00007F406FB07F70CFB06F105FB0CFC11EBF0
:10150000074144EB17444FEA124711EB0C4144EBFF
:101510001C4422EA074C05FB07F206FB07F70CFB0D
:1015200006F605FB0CFC16EB074642EB174216EBE2
:101530000C4642EB1C456A1854F1000148BF704745
:10154000B619524141EB0101A3F10103704795F037
:10155000000F37D04FEA11424FEA144721EA024602
:1015600024EA074C02FB07F106FB07F70CFB06F425
:1015700002FB0CFC14EB074441EB17414FEA154703
:1015800014EB0C4441EB1C4125EA074C02FB07F528
:1015900006FB07F70CFB06F602FB0CFC16EB0746F6
:1015A00045EB174516EB0C4645EB1C42121951F161
:1015B000000148BF7047B619524141EB0101A3F148
:1015C000010370474FEA14454FEA114724EA0546E4
:1015D00021EA074C05FB07F106FB07F70CFB06F2B7
:1015E0004FF0000605FB0CFC12EB074241EB1741E4
:1015F00012EB0C4251EB1C4148BF7047921841EB73
:101600000101A3F1010370477047704770477047AD
:1016100070477047704770471D481E481E481F4856
:101620001F48204820482148214822482248234872
:101630002348244824482548254826482648274842
:10164000274828482848294829482A482A482B4812
:101650002B482C482C482D482D482E482E482F48E2
:101660002F483048304831483148324832483348B2
:101670003348344834483548354836483648374882
:101680003748384838483948394800BF7047000063
:10169000E8DE0008ECDE0008F2DE0008F4DE0008F8
:1016A000F0DE0008F6DE0008F8DE0008FADE0008CA
:1016B000FCDE0008FEDE000800DF000802DF000894
:1016C00004DF000806DF000808DF00080ADF000862
:1016D0000CDF00080EDF000810DF000812DF000832
:1016E00014DF000816DF000818DF00081ADF000802
:1016F0001CDF00081EDF000820DF000822DF0008D2
:1017000024DF000826DF000828DF00082ADF0008A1
:101710002CDF00082EDF000830DF000832DF000871
:1017200034DF000836DF000838DF00083ADF000841
:101730003EDF000840DF000842DF000844DF000809
:1017400000D7002080DB002048DF00084ADF0008C7
:101750004CDF00084EDF000850DF000852DF0008B1
:1017600054DF000856DF000858DF000846DF000895
:101770005ADF00082DE9F04105460E4614460027C1
:101780001DB904202070BDE8F08116B90C2020702E
:10179000F9E71448007810B112202070F3E7287898
:1017A000012808D0022807D0032802D0042804D139
:1017B00000E000BF00BF00BF02E001202070E2E7B0
:1017C00000BF00BF1020FEF733FD074600BF6E616B
:1017D00000BF3846FEF73AFD00BF0020207000BF72
:1017E000D1E70000C50000202DE9F04106460D4676
:1017F00000271648007820B1102028700020BDE88E
:10180000F08100BF1020FEF713FD074600BF10480F
:10181000046894B1006840680D4908600520207094
:101820002681002060600BA0E06000BF3846FEF714
:101830000DFD00BF0020287006E000BF3846FEF70F
:1018400005FD00BF722028702046D8E7C5000020A3
:10185000B40000203F0000002DE9F04F89B005469C
:101860000F4691469A46129E002002902DB96E2096
:101870003070002009B0BDE8F08F9B48007818B1A7
:10188000022030700020F5E79848007818B10D204C
:1018900030700020EEE72878052803D00120307052
:1018A0000020E7E709F0800BBBF1000F04D009F03E
:1018B0007F094FF0010801E04FF0000800BF102041
:1018C000FEF7B6FC029000BFB9F1000F52D0B9F19B
:1018D000010F76D0B9F1020F03D0B9F1030F6FD128
:1018E00024E0288900EA0704BC4211D1B8F1010FB5
:1018F00002D12889A04328817D480068048600BF62
:101900000298FEF7A3FC00BF002030702046B1E72C
:101910004B463A4604A92846CDF800A001F08AFDBE
:1019200000BF0298FEF792FC00BF78E0288900EA29
:1019300007048CB1B8F1010F02D12889A043288196
:101940006B480068048600BF0298FEF77FFC00BF6A
:101950000020307020468DE74B463A4604A92846C1
:10196000CDF800A001F066FD00BF0298FEF76EFC06
:1019700000BF54E0288927EA0004BC4211D1B8F125
:10198000010F02D128892043288159480068048624
:1019900000BF0298FEF75AFC00BF002030702046BE
:1019A00068E74B463A4604A92846CDF800A001F066
:1019B00041FD00BF0298FEF749FC00BF2FE000E0A8
:1019C00023E0288927EA00048CB1B8F1010F02D185
:1019D00028892043288146480068048600BF029871
:1019E000FEF734FC00BF00203070204642E74B4633
:1019F0003A4604A92846CDF800A001F01BFD00BF1F
:101A00000298FEF723FC00BF09E000BF0298FEF732
:101A10001DFC00BF00246F20307020462AE700BF65
:101A200001F036FF00BF1020FEF702FC029000BF5D
:101A30002F48006890F8390030B32D48006890F8BE
:101A40003900039000202A49096881F8390004A868
:101A500001F09EFD00202649096881F8380000BF8A
:101A60000298FEF7F3FB00BF00240398012805D07D
:101A7000022802D10E20307003E000BF0A2030702F
:101A800000BF00BF2046F5E619480068048EB8F193
:101A9000010F20D1B9F1000F0ED0B9F1010F0CD018
:101AA000B9F1020F03D0B9F1030F0AD100E000BF72
:101AB0002889A04328810DE000BF28892043288180
:101AC00008E000BF0298FEF7C1FB00BF6F20307036
:101AD0000020CFE600BF00BF0298FEF7B7FB00BFB3
:101AE000002030702046C5E6C5000020C60000205A
:101AF000D80000202DE9FC5F0446894692461E4628
:101B00000020009024B96E2030700020BDE8FC9FBA
:101B10002078052803D0012030700020F6E700BFB0
:101B20001020FEF785FB009000BFBAF1000F03D034
:101B3000BAF1010F0AD104E0208920EA09002081CE
:101B40000DE0208940EA0900208108E000BF0098EC
:101B5000FEF77CFB00BF712030700020D6E700BF8D
:101B60004FF0000B65685BE0A87C50B301283BD0C8
:101B7000022802D0032848D112E02089298A00EAED
:101B80000107288AB8420AD100223946284601F0C6
:101B9000CFFC8046B8F1010F01D14FF0010B3DE0C1
:101BA0002089298A00EA010757B1002239462846D0
:101BB00001F0BEFC8046B8F1010F01D14FF0010BDE
:101BC0002CE0288A218920EA0107288AB8420AD114
:101BD00000223946284601F0ABFC8046B8F1010FDF
:101BE00001D14FF0010B19E0288A218920EA010771
:101BF00057B100223946284601F09AFC8046B8F1D8
:101C0000010F01D14FF0010B08E000BF0098FEF773
:101C10001DFB00BF6F203070002077E700BF2D68EC
:101C2000002DA1D100BF0098FEF710FB00BFBBF153
:101C3000010F01D101F02CFE00BF1020FEF7F8FAD1
:101C4000009000BF2089019000BF0098FEF7FEFAC7
:101C500000BF00203070019858E710B500F01AF866
:101C600001F0D8FC01F004FD01F024FD01F0A2FC1C
:101C700001F032FC01F0B8FD01F0E2FD01F05AFD87
:101C800001F080FD01F098F900F026F8FFF7C4FCA0
:101C900010BD00000B484FF4807102E0491E002285
:101CA00004C00029FAD1084A084B1A601A46126883
:101CB00022F007021A600022054B1A801022054B01
:101CC0001A60704700C4002000C80020A000002057
:101CD000A4000020A80000207047000006480078FB
:101CE000012808D105480078FF2804D2034800786D
:101CF000401C024908707047D2000020C500002037
:101D000010B500241D480078012835D100BF1020EF
:101D1000FEF78EFA044600BF1948007820B1184833
:101D20000078401E1649087015480078F8B9154823
:101D30000078E0B901F0ECFD13481449097850F837
:101D40002100134908601148007812490978884237
:101D50000DD00F480068006C401C0D4909680864EC
:101D60000D480068401C0C490860FEF7A4FA00BF4B
:101D70002046FEF76BFA00BF10BD0000D200002025
:101D8000C5000020C600002040CD0020C800002073
:101D9000E0000020C7000020AC00002070B5054620
:101DA00000261348007808B1002070BD00BF102045
:101DB000FEF73EFA064600BF0E480468006820B1F0
:101DC0000C48006840680B49086000BF3046FEF7C9
:101DD0003DFA00BF4CB101202070002020816560D9
:101DE00005A06061204601F017FB2046DDE70000FA
:101DF000C5000020B00000203F0000002DE9F041A8
:101E000005460F4614464FF0000825B904202070FF
:101E10000020BDE8F0812878012803D0012020703F
:101E20000020F6E73E48007818B10220207000201C
:101E3000EFE73C48007818B10D2020700020E8E75B
:101E400000BF1020FEF7F4F9804600BF6E6856B15F
:101E50000020686000BF4046FEF7F8F900BF002090
:101E600020703046D5E73048006890F8380040F0E0
:101E700002002D49096881F8380000202A490968C4
:101E800081F83900284800684763284601F086FA3F
:101E900000BF4046FEF7DAF900BF01F0F9FC00BFD1
:101EA0001020FEF7C5F9804600BF1F48006890F873
:101EB000390020B101280DD002280AD105E01A48C6
:101EC0000068866A002020700DE000260E20207039
:101ED00009E000BF29461448006801F02BFA0026EB
:101EE0000A20207000BF00BF00200F49096881F858
:101EF00038000D49096881F839000B490968C86143
:101F00000949096808620849096848620649096878
:101F1000886200BF4046FEF799F900BF304678E777
:101F2000C5000020C6000020D800002070B504467F
:101F30000D4600260CB9042070BD0DB90320FBE747
:101F40002078012801D00120F6E700BF1020FEF71D
:101F50006FF9064600BFA07A70B10023022229461D
:101F6000204601F09DF900BF3046FEF76FF900BF33
:101F700001F08EFC0020DFE7606830B100BF304622
:101F8000FEF764F900BF1420D6E7656000BF304655
:101F9000FEF75CF900BF0020CEE700002DE9F0411C
:101FA00006460F464FF000082748007810B1002081
:101FB000BDE8F08100BF1020FEF73AF9804600BF6F
:101FC00022480468006820B12048006840681F4922
:101FD000086000BF4046FEF739F900BF002C30D042
:101FE00000BF1020FEF724F9804600BF184805689E
:101FF000E5B1006800681649086000BF4046FEF77A
:1020000025F900BF6E6006EB8700A860EE602E61C8
:10201000AF820020E88202202070002020816560CD
:102020000CA06061204601F0F7F90AE0074800685B
:1020300060600648046000BF4046FEF707F900BF35
:1020400000242046B4E70000C5000020B0000020B6
:10205000F00000203F0000002DE9F04706468846CA
:1020600015464FF0000926B9042028700020BDE86D
:10207000F0873078022803D0012028700020F6E78E
:102080004548007818B1022028700020EFE7434847
:10209000007818B10D2028700020E8E700BF10205C
:1020A000FEF7C6F8814600BF7468E08AA8B12169CE
:1020B000081D20610F68E08A401EE082A168206947
:1020C000884201D16068206100BF4846FEF7BEF833
:1020D00000BF002028703846C9E73148006890F8F2
:1020E000380040F004002E49096881F838000020CB
:1020F0002B49096881F8390029480068C0F8348004
:10210000304601F04BF900BF4846FEF79FF800BF8C
:1021100001F0BEFB00BF1020FEF78AF8814600BF29
:102120001F48006890F8390020B101280DD002281E
:102130000AD105E01A480068876A002028700DE07F
:1021400000270E20287009E000BF314614480068BF
:1021500001F0F0F800270A20287000BF00BF00201F
:102160000F49096881F838000D49096881F839007C
:102170000B490968C8610A49096808620849096881
:10218000486207490968886200BF4846FEF75EF862
:1021900000BF38466BE70000C5000020C6000020E5
:1021A000D80000202DE9F04105460E46002715B95C
:1021B0000420BDE8F0812878022801D00120F8E74A
:1021C00000BF1020FEF734F8074600BFA87A70B1B0
:1021D000002304223146284601F062F800BF384649
:1021E000FEF734F800BF01F053FB0020E1E76C6814
:1021F000E08AA18A884206DB00BF3846FEF726F84F
:1022000000BF1E20D5E7E168081DE0600E60E08A8F
:10221000401CE082D4E90210884201D16068E0608D
:1022200000BF3846FEF712F800BF0020C1E70000EB
:1022300010B500240D480078012816D100BF1020E9
:10224000FDF7F6FF044600BF0948007840B9094889
:102250000078FF2804D207480078401C0549087020
:1022600000BF2046FDF7F2FF00BF10BDD2000020E6
:10227000C5000020C600002010B5002417480078D3
:1022800001282AD100BF1020FDF7D2FF044600BF6D
:1022900013480078E0B913480078A0B111480078DD
:1022A000401E104908700846007838B900BF204623
:1022B000FDF7CCFF00BF01F0EBFA0EE000BF2046B7
:1022C000FDF7C4FF09E000BF2046FDF7BFFF04E0B3
:1022D00000BF2046FDF7BAFF00BF10BDD2000020AE
:1022E000C5000020C600002070B505460026134832
:1022F000007808B1002070BD00BF1020FDF798FFE6
:10230000064600BF0E480468006820B10C4800680B
:1023100040680B49086000BF3046FDF797FF00BFDB
:102320004CB10320207025810020606005A0606111
:10233000204601F071F82046DDE70000C5000020CE
:10234000B00000203F0000002DE9F04105460E4698
:10235000144600271DB904202070BDE8F0812878BC
:10236000032802D001202070F7E73A48007810B126
:1023700002202070F1E73848007810B10D2020705D
:10238000EBE700BF1020FDF753FF074600BF288989
:1023900050B12889401E288100BF3846FDF756FFFE
:1023A00000BF00202070D8E72C48006890F8380063
:1023B00040F001002949096881F8380000202749C8
:1023C000096881F83900254800684663284600F00E
:1023D000E5FF00BF3846FDF739FF00BF01F058FAAE
:1023E00000BF1020FDF724FF074600BF1B48006810
:1023F00090F8390020B1012809D0022806D102E066
:10240000002020700BE00E20207008E000BF29465D
:102410001248006800F08EFF0A20207000BF00BF45
:1024200000200E49096881F838000C49096881F8D4
:1024300039000A490968C8610849096808620749FA
:102440000968486200BF3846FDF700FF00BF00BFC3
:1024500083E70000C5000020C6000020D80000204F
:1024600070B5044600250CB9042070BD20780328FF
:1024700001D00120F9E700BF1020FDF7D9FE054685
:1024800000BFA07A70B1002301221946204600F057
:1024900007FF00BF2846FDF7D9FE00BF01F0F8F99D
:1024A0000020E2E720894FF6FF71884209D2208997
:1024B000401C208100BF2846FDF7C8FE00BF002059
:1024C000D3E700BF2846FDF7C1FE00BF3320CCE7AD
:1024D00010B50B48007890B901F01AFA0948007855
:1024E0000949087009480749097850F82100084946
:1024F00008600846006807490860FDF7B0FE10BD97
:10250000D2000020C8000020C700002040CD0020DD
:10251000E0000020D800002010B50024022000F0C8
:102520004FFB00BF1020FDF783FE044600BF0020D4
:102530000E49086000BF2046FDF788FE00BF6420FA
:1025400000F03EFB00BF1020FDF772FE044600BF06
:10255000064800680649086001200649087000BF67
:102560002046FDF773FE00BF10BD0000D400002020
:10257000BC000020C400002010B504462046FFF730
:1025800043F810BD2DE9F04F85B081468A46934649
:102590001C46DDE90F78129D002003903F2C03D9E3
:1025A0002A2005B0BDE8F08F00BF1020FDF740FEE7
:1025B000039000BF2748007830B100BF0398FDF7B3
:1025C00045FE00BF3C20ECE7234850F82400C0BB88
:1025D0000120214941F8240000BF0398FDF736FE91
:1025E00000BF2A464146384601F016FB2B465A46A4
:1025F0005146484600F020FA04901198CDE9008039
:1026000002953A4620460E9B049901F097F906463A
:1026100036B912480078012811D101F039F90EE0DD
:1026200000BF1020FDF704FE039000BF00200A4900
:1026300041F8240000BF0398FDF708FE00BF3046B4
:10264000AFE7FFE700BF0398FDF700FE00BF2820BB
:10265000A7E70000C500002040CD0020D2000020E8
:1026600010B504462046FEF7D0FF10BD2DE9F0411D
:10267000054600275448007810B14020BDE8F0819D
:102680003F2D01D13E20F9E73F2D03D3FF2D01D08F
:102690002A20F3E700BF1020FDF7CAFD074600BF60
:1026A000FF2D03D14948006890F83A50484850F847
:1026B000254034B900BF3846FDF7C8FD00BF4320B0
:1026C000DCE7012C06D100BF3846FDF7BFFD00BF97
:1026D0003D20D3E714F83C0F3E49085C61788843FD
:1026E00021783C4A505414F83C091146085C30B932
:1026F00094F83E1038480078884337490870E069FC
:1027000018B12046E16900F015FE206A18B1204694
:10271000216A00F026FEE66A16B1304600F038FF66
:102720000020606384F8380084F839002B48007872
:10273000FF2804D229480078401C2849087000BFAF
:102740003846FDF783FD00BF00F0A8FD00BF102054
:10275000FDF76EFD074600BF2048007820B11F48F6
:102760000078401E1D490870204600F043F81C48C0
:102770000078401E1A4908700020154941F82500CC
:10278000A06930B9002061698861164960690860F4
:1027900005E0D4E905014861D4E9051088611248D3
:1027A000006860611048046010A0606500BF384692
:1027B000FDF74CFD00BF0E480078012801D101F063
:1027C00067F800205AE70000C5000020D80000206C
:1027D00040CD0020CA000020C9000020C600002013
:1027E000D3000020E4000020DC0000203F000000B7
:1027F000D200002010B504462046FEF707FF10BDAA
:1028000010B5FEF704FF10BD2DE9F04105460F4657
:1028100014464FF000083F2D05D9FF2D03D02A2084
:102820002070BDE8F08117B90C202070F9E7194835
:10283000007810B112202070F3E700BF1020FDF7E0
:10284000F7FC804600BFFF2D03D11348006890F8C5
:102850003A50124850F825603EB900BF4046FDF797
:10286000F5FC00BF43202070DBE7012E07D100BF3D
:102870004046FDF7EBFC00BF43202070D1E77765B1
:1028800000BF4046FDF7E2FC00BF0020207000BF03
:10289000C7E70000C5000020D800002040CD002080
:1028A00070B5054600263F2D01D32A2070BD00BF1C
:1028B0001020FDF7BDFC064600BF2A4850F8254011
:1028C00034B900BF3046FDF7C1FC00BF4620EDE73C
:1028D000012C06D100BF3046FDF7B8FC00BF4320F5
:1028E000E4E794F8380000F0080098B314F8380FC3
:1028F00000F0F700207014F8380900F0370010BB22
:10290000606BD8B93C34A078174909780843164958
:10291000087020781549085C6178084314F83C1960
:10292000124A505400BF3046FDF790FC00BF1048DB
:10293000007801280CD100F0ABFF09E000BF304661
:10294000FDF784FC04E000BF3046FDF77FFC00BFCC
:102950000020ABE7FFE700BF3046FDF777FC00BF84
:102960004420A3E740CD0020C9000020CA00002079
:10297000D200002010B504462046FEF749FE10BDE7
:1029800010B5FEF746FE10BD2DE9F04706460C4691
:102990004FF0000A3F2E04D9FF2E02D02A20BDE8B6
:1029A000F0870CB90920FAE700202060606000BFC2
:1029B0001020FDF73DFC824600BFFF2E03D11C48CE
:1029C000006890F83A601B4850F8265035B900BFAF
:1029D0005046FDF73BFC00BF4320E0E7012D06D148
:1029E00000BF5046FDF732FC00BF4320D7E7287CEC
:1029F00000F0010030B900BF5046FDF727FC00BFD2
:102A00004520CCE70027D5F80C90D5F8088000BF0A
:102A10005046FDF71BFC00BF00E07F1C58F8041B6C
:102A20000029FAD02760A9EB070060600020B6E714
:102A3000D800002040CD002070B50446101D20F0C5
:102A400007004FF08076051F28462E60051F284698
:102A50002C60244E051F28462E604FF01236051FAD
:102A600028462E604FF00336051F28462E604FF093
:102A70000236051F28462E607610051F28462E6058
:102A8000051F284629606FF00206051F28462E60A4
:102A90004FF01136051F28462E604FF01036051FE7
:102AA00028462E604FF00936051F28462E604FF04D
:102AB0000836051F28462E604FF00736051F2846AA
:102AC0002E604FF00636051F28462E604FF0053663
:102AD000051F28462E604FF00436051F28462E603D
:102AE00070BD0000D53A00082DE9F04105464FF0D1
:102AF00000083F2D02D14720BDE8F0813F2D03D3D0
:102B0000FF2D01D02A20F7E700BF1020FDF790FB32
:102B1000804600BFFF2D05D12348006890F83A5049
:102B2000012608E02048006890F83A00A84201D148
:102B3000012600E000261D4850F8254034B900BFAA
:102B40004046FDF783FB00BF4820D5E7012C06D1A6
:102B500000BF4046FDF77AFB00BF4320CCE794F866
:102B60003C701348C05D94F83D1088431049C85527
:102B70000846C05D30B994F83E100E48007888438E
:102B80000C49087094F8380040F0080084F83800C8
:102B900000BF4046FDF75AFB00BF012E01D100F0F7
:102BA00077FE0020A8E70000D800002040CD0020DC
:102BB000CA000020C900002010B5FEF72BFD10BD93
:102BC00070B5054600261A48007800B170BD194856
:102BD000007800B1FAE745B300BF1020FDF728FBED
:102BE000064600BF1448006890F83C401348005D5A
:102BF0001149096891F83D10884310490855084665
:102C0000005D40B90C48006890F83E100C48007810
:102C100088430B49087008480068456300BF304688
:102C2000FDF714FB00BF00F033FE00BFCEE700004D
:102C3000C5000020C6000020D8000020CA000020E7
:102C4000C900002070B5002600F07CF800BF1020FD
:102C5000FDF7EEFA064600BF34480068401C3349D1
:102C6000086000BF3046FDF7F1FA00BF3048007839
:102C7000012858D12F48007820B1012804D002281B
:102C800009D103E001250BE0002509E00125012021
:102C90002849087004E0012500202649087000BF7B
:102CA00000BF05B970BD2448046838E000BF10209B
:102CB000FDF7BEFA064600BF606B50B3606B401E66
:102CC0006063606B28BB94F8380000F0370040B1B7
:102CD00014F8380F00F0C800207001206070383CF4
:102CE00002E0002084F8390094F8380000F0080071
:102CF00078B93C34A0781149097808430F49087025
:102D000020780F49085C6178084314F83C190C4A94
:102D10005054646900BF3046FDF798FA00BF94F83C
:102D20003A003F28C2D100BFBCE70000F8000020F5
:102D3000D2000020E8000020E4000020C9000020AC
:102D4000CA00002010B5FEF766FC07480088401C4A
:102D500005490880084600880A2803D30020088017
:102D600000F056F810BD0000A40000202DE9F05F2F
:102D700006460F4690469946DDE90ABA0C9DB8F121
:102D8000010F09D0B8F1020F0CD127B983202870A8
:102D90000020BDE8F09F09E01EB9822028700020C5
:102DA000F7E703E0842028700020F2E700BF164810
:102DB000007818B18B2028700020EAE7FFF738FA76
:102DC00000F0DAF804462CB9FFF756FA862028708E
:102DD0000020DEE7012084F82500A661E76184F881
:102DE0002480C4F80490C4F808B0BAF1000F02D1EE
:102DF00006A0206201E0C4F820A0FFF73DFA002001
:102E000028702046C5E70000C50000203F000000F4
:102E100010B503480068FFF723FB0446204610BDA9
:102E20000801002070B505460C461DB98A202070A7
:102E3000002070BD2878642803D0892020700020ED
:102E4000F7E71B48007818B18B2020700020F0E7CE
:102E5000FFF7EEF995F82500E8B1012810D0022817
:102E60000FD003281DD1284600F0C4F900212846C0
:102E700000F044F9FFF700FA002020700120D8E7A5
:102E800000BF0021284600F039F9FFF7F5F90020CE
:102E900020700120CDE7FFF7EFF987202070002098
:102EA000C7E7FFF7E9F98D2020700020C1E7000097
:102EB000C50000202DE9F04105460F4690461C460E
:102EC00025B98A2020700020BDE8F0812878642888
:102ED00003D0892020700020F6E72648007818B13A
:102EE0008B2020700020EFE7FFF7A2F995F825006E
:102EF00090B301282AD0022827D0032833D12846AE
:102F000000F078F900202070B7B1032F02D0042F11
:102F100013D108E06E681EB12846A968B04701E0E9
:102F20008F2020700CE06E681EB141462846B047E5
:102F300001E08F20207003E002E08420207000BFB9
:102F400000BFFFF799F90120BEE700BFFFF794F932
:102F50008E2020700120B7E7FFE7FFF78DF987206B
:102F600020700020B0E7FFF787F98D202070002047
:102F7000AAE70000C50000200C48006808B900203E
:102F800070470A480168094AC86810600020C86094
:102F9000086107480088401C054A108005480088E1
:102FA000401E044A10800846EAE700000C01002099
:102FB000FE000020FC000020F8B54FF420712848E6
:102FC00000F008FC3821274800F004FC002514E03C
:102FD000681C86B205EB8500214901EBC00406EBB5
:102FE000860001EBC00764202070002084F82500D3
:102FF000E7601DA02062681C85B20F2DE8D305EBA9
:103000008500174901EBC00464202070002084F87B
:103010002500E06014A020620020144908601449D3
:1030200008801020134908800D48134908600120CA
:10303000FFF75AF9114908600020FFF755F91049C8
:1030400008606A460FA10D480068FEF793FB6A46C8
:1030500011A10B480068FEF78DFB00F027F8F8BDC2
:1030600000D7002080DB00203F000000000100208E
:10307000FE000020FC0000200C01002004010020C4
:103080000801002075432F4F532D494920546D727C
:103090004C6F636B0000000075432F4F532D49495F
:1030A00020546D725369676E616C000000B587B083
:1030B0000320002180220A4BCDE90132CDE9031023
:1030C0004FF6FD703D23074A00900748FFF75AFA74
:1030D00006AA06A13D20FFF797FB07B000BD000040
:1030E00080D900207CDB00207131000875432F4F10
:1030F000532D494920546D7200000000F0B50B4675
:10310000032580F82550012B05D1174EC569366877
:10311000354445610CE085692DB9134EC5693668A3
:103120003544456104E0104E856936683544456193
:1031300007264569B5FBF6F706FB17540B4D05EB63
:10314000C4010D682DB908600025C56001258D807A
:1031500006E00A680860C26010618D886D1C8D8071
:1031600000250561F0BD00000001002080DB00208B
:1031700008B500BF00BF6A4600211B480068FFF782
:10318000E3F8FFF755F819480068401C1749086034
:10319000084600680721B0FBF1F201FB1208144851
:1031A00000EBC8073C681AE0E668104960690968E6
:1031B000884213D1204600F01DF894F8240002281C
:1031C00004D101212046FFF799FF02E0022084F894
:1031D0002500656815B12046A168A8473446002C33
:1031E000E2D1FFF749F8C6E70801002000010020FE
:1031F00080DB0020F0B507264569B5FBF6F706FB36
:1032000017540D4D05EBC4021568854205D1C16800
:10321000116039B100250D6104E00169C368CB601C
:1032200003B11961012580F825500025C5600561AD
:1032300095886D1E9580F0BD80DB002010B500BF25
:103240001020FCF7F5FF044600BFFEF747FD00BF66
:103250002046FCF7FBFF00BFFFF7F4FCFEF750FD34
:1032600010BD000010B5014610224B1E4FF0E024A7
:103270006361094B186820F07F4040EA02601860E3
:1032800023461B6943F00503236123461B6943F072
:103290000203236110BD000020ED00E07047000034
:1032A0002DE9F04F05460F4690469946A87A1D49EC
:1032B0000E5C05F10B00805D11F800B00BEBC60051
:1032C00000F0FF0A184850F82A4000202834E06037
:1032D0002760207C20EA0800207484F81190207C6C
:1032E000283C00F0080068B994F83E000F490978BE
:1032F00008430E4908700E48805D94F83D1008435D
:103300000B4988552946204600F014F8206A30B150
:103310002046216A00F025F80020206265625046B0
:10332000BDE8F08F5CDF000840CD0020C900002020
:10333000CA00002010B590F83C2001F10B039B5C03
:1033400090F83D40A34301F10B04A35423469B5C3A
:1033500023B98B7A90F83E40A3438B720023C3615C
:1033600010BDF0B5024612F83C4F957856783C3ABD
:103370000B4618680FE000F10B073F5DB74300F103
:103380000B0C0CF8047067463F5D17B9877AAF43A2
:1033900087721B1D18680028EDD1F0BD10B51B4ABF
:1033A0001268D061194A126892F83C3000F10B02A1
:1033B000D25C164B1B6893F83D301A43134B1B68C5
:1033C00093F83C4000F10B031A55827A0F4B1B68AF
:1033D00093F83E301A4382720C4A126892F83C10FD
:1033E0000B4A525C094B1B6893F83D309A43084BDB
:1033F0005A541A46525C42B9044A126892F83E3056
:10340000044A12789A43034B1A7010BDD80000206A
:10341000CA000020C9000020014600228A72002054
:1034200005E0002301F10B021354421CD0B208281E
:10343000F7D37047F0B51446059E244F3F6897F8C0
:10344000387047F02007DFF884C0DCF800C08CF843
:1034500038700027DFF874C0DCF800C08CF83970D1
:103460001A4F3F687E63194F3F68F9620C828B7474
:10347000164F3F688F6047680F6000274F60C86035
:10348000456805B169604160104F3F6897F83C207E
:103490000F4FBF5CDFF834C0DCF800C09CF83DC0C3
:1034A00027EA0C07DFF828C00CF802706746BF5CFB
:1034B0005FB9064F3F6897F83EC0064F3F7827EA4E
:1034C0000C07DFF810C08CF80070F0BDD8000020A9
:1034D000CA000020C90000202DE9F0415021114808
:1034E00000F078F900250DE0681C86B20D4800EB6D
:1034F000051400EB06170020207067600AA0E0604A
:10350000681C85B2042DEFD3064800EB051400209B
:103510002070606004A0E060024804490860BDE8D3
:10352000F0810000F0C800203F000000B40000203F
:103530002DE9F041064688461746B468002044F855
:10354000340F24F8048C207900F0DF0020716771BB
:103550002079343C88B93C34A0780B490978084379
:103560000949087020780949085C6178084314F813
:103570003C19064A5054012500E00025304600F071
:1035800007F82846BDE8F081C9000020CA000020E5
:1035900030B501464A6808682AB9CC68606028B12D
:1035A0000025456002E0106000B142608B68002594
:1035B000DD6230BD70B5F021134800F00BF9002436
:1035C00011E0601C85B204EB44000F4901EBC0031D
:1035D00005EB450001EBC006002018705E600BA0F3
:1035E0005861601C84B2092CEBD304EB44000649FB
:1035F00001EBC00300201870586004A05861084611
:103600000349086070BD000000C800203F000000B2
:10361000B000002000200B4908600B4908700B49DE
:1036200008700B4908700B4908700B4908600B497A
:1036300008600B4908600B4908600B4908700B498A
:1036400008707047F8000020C5000020C600002068
:10365000D3000020D2000020AC000020D4000020C5
:10366000C0000020BC000020C4000020F4000020A6
:1036700000210A4A1170002004E00021084A115478
:10368000411CC8B20828F8D30021064A1170064A26
:103690001170064A1160064A11607047C900002087
:1036A000CA000020C7000020C8000020E000002061
:1036B000D800002070B54FF4FD61194800F08AF879
:1036C0004FF48071174800F085F8002413E0601C67
:1036D000C5B2C4EBC40000EB0410114901EB800338
:1036E000C5EBC50000EB051001EB80065E610EA086
:1036F0005865601CC4B2152CE9D3C4EBC40000EBC0
:103700000410074901EB80030020586106A05865AA
:1037100000200649086002480549086070BD0000A5
:1037200040CE002040CD00203F000000E4000020FB
:10373000DC00002000B587B00320002180220A4B66
:10374000CDE90132CDE903104FF6FF703F23074A60
:1037500000900748FEF716FF06AA06A13F20FFF7D4
:1037600053F807B000BD000040CB00203CCD002046
:10377000A53A000875432F4F532D49492049646CE1
:103780006500000000B587B00320002180220A4BAD
:10379000CDE90132CDE903104FF6FE703E23074A12
:1037A00000900748FEF7EEFE06AA06A13E20FFF7AE
:1037B0002BF807B000BD000040C900203CCB002022
:1037C000ED3A000875432F4F532D4949205374613A
:1037D0007400000004E0002200F8012B4A1E91B2A0
:1037E0000029F8D17047000070B578211148FFF723
:1037F000F1FF00240EE004EB44000E4901EBC0058C
:10380000601C00EB400001EBC00068600AA068612A
:10381000601C84B2042CEED304EB4400054901EB98
:10382000C0050020686004A068610846034908607C
:1038300070BD000028D600203F000000EC000020F2
:103840002DE9F04160211048FFF7C4FF00240DE08E
:10385000601C86B204EB44000B4901EBC00506EB8B
:10386000460001EBC0072F60601C84B2032CEFD32D
:1038700004EB4400044901EBC00500202860084621
:1038800002490860BDE8F081A0D60020F0000020C9
:1038900010B5002400BF1020FCF7CAFC044600BF8E
:1038A00014480078F8B914480078E0B900F030F80E
:1038B00012481349097850F821001249086010484D
:1038C00000781149097888420DD00E480068006CD4
:1038D000401C0C49096808640C480068401C0B49EE
:1038E0000860FCF7E8FC00BF2046FCF7AFFC00BF17
:1038F00010BD0000C5000020C600002040CD002003
:10390000C8000020E0000020C7000020AC0000201C
:103910000649074A1278885C0649095C034A515CEB
:1039200001EBC001044A1170704700005CDF000821
:10393000C9000020CA000020C80000202DE9F84F6F
:1039400005460F4690469946DDE90AAB00200090F7
:1039500000BF1020FCF76CFC009000BF4A480468D0
:10396000002C7DD048496069086000BF0098FCF7D2
:103970006DFC00BF203444F8207CA5760020207622
:103980006076606144F81CBC44F814AC44F8188CB0
:103990000C9824F8100C24F80E9C0020E077E81016
:1039A000207705F00700E076217F01208840A0778E
:1039B000E17E012088406077002044F8040C2060FC
:1039C0006060E060A0602062A0626062E0622063EC
:1039D0002EA06063203C002606E0002104F1580080
:1039E00040F82610701CC6B2002EF6D02046FEF716
:1039F000C3FD00BF1020FCF71BFC009000BF244853
:103A000040F8254000BF0098FCF720FC00BF20468E
:103A1000FEF726FE00BF1020FCF70AFC009000BF56
:103A20001C48006860610020A0611A48006810B15D
:103A3000184800688461174804603C34A07816492F
:103A4000097808431449087020781449085C6178A3
:103A5000084314F83C19114A50541148007800E00A
:103A60000AE0401C0E49087000BF0098FCF7EEFB0E
:103A700000BF0020BDE8F88F00BF0098FCF7E6FB10
:103A800000BF4220F6E70000DC0000203F000000FD
:103A900040CD0020E4000020C9000020CA00002022
:103AA000D3000020002400BF00BF1020FCF7C0FBA3
:103AB000044600BF06480068401C0549086000BF76
:103AC0002046FCF7C3FB00BFFEF79AFEECE70000C0
:103AD000D400002010B504480068FEF74BFFFF201B
:103AE000FEF7C4FD10BD0000D8000020002500BF77
:103AF00002E0C820FFF764F8334800780028F8D0C7
:103B0000324800686421B0FBF1F030490860084693
:103B1000006828B900202E490870FF20FEF7E4FF56
:103B200000BF1020FCF784FB054600BF2748006853
:103B3000642148432749086000BF2846FCF786FBFC
:103B400000BF00BF0120FFF73BF800BF1020FCF7CB
:103B50006FFB054600BF00201E49086000BF2846D5
:103B6000FCF774FB00BF6420FFF72AF800BF1020A9
:103B7000FCF75EFB054600BF164800681649086062
:103B800000BF2846FCF762FB00BF134800680F49DE
:103B90000968B0FBF1F040B2C0F1640044B2002CFF
:103BA00002DB0B490C7009E00020094908700A4843
:103BB00000686421B0FBF1F004490860FEF7E0FE04
:103BC00000F00CF8BEE70000C4000020BC0000209C
:103BD000B8000020D4000020C00000207CB50025E3
:103BE00014E069462846FEF7CFFE064666B9094846
:103BF00050F8254044B1012C06D0D4E9020100EB75
:103C00008100E06401982065681CC5B23F2DE8D9A9
:103C10007CBD000040CD002002F0010343B102F062
:103C200002032BB102E0491E002308C00029FAD18B
:103C30007047000010B503480078012801D1FFF754
:103C4000FDFA10BDD200002010B5FEF747F81E485F
:103C5000006800F0200010B31B48001D0068C4B2CB
:103C60001A48008800F40040C8B91848008800F4D9
:103C7000804060B10A2C03D000201449088020E065
:103C80001248008840F400401049088019E00D2CCB
:103C900006D10E48008840F480400C49088010E0AE
:103CA0000A480088C0F30D0009490C5407480088F1
:103CB000401C0649088008460088C72801DD00200E
:103CC0000880FEF71DF810BD00380140800000207C
:103CD0001E190020490050EAC12018BF04204A0DD7
:103CE00018BF40F0010040F2FF72B2EB515F08BF15
:103CF00040F00200012808BF0520704730380A282C
:103D000001D2012070470020704700BF704710B5F6
:103D100000F016FF10BD70B505460C46164606E0CD
:103D200028466A1C95B200F008F804F8010B301E12
:103D3000A6F101018EB2F3D170BD70B50446002624
:103D400000F092FF2112A02202EB4101C8B200F064
:103D500065FF00F0C1FF2546E11704EB1161091270
:103D6000A4EB0121C8B200F059FF00F0B5FF00F04C
:103D70007BFFA12000F052FF00F0AEFF002000F01A
:103D800023FF064600F08EFF304670BD70B5054635
:103D90000C46164606E02178284600F009F8681C13
:103DA00085B2641C301EA6F101018EB2F3D170BD44
:103DB00070B504460E4600F057FF2112A02202EB18
:103DC0004101C8B200F02AFF00F086FF2546E11746
:103DD00004EB11610912A4EB0121C8B200F01EFF2F
:103DE00000F07AFF304600F019FF00F075FF00F098
:103DF00059FF0A2000F080F970BD00001CB500BF1B
:103E00000B48806940F008000949886100BF012023
:103E100000900023024601020190064805F030F9A7
:103E200000224FF48071034805F01EF91CBD00000C
:103E300000100240000C014010B500224FF4007148
:103E40000D4805F011F900F01BF8012202210B4882
:103E500005F00AF900F014F800220221074805F0E5
:103E600003F900F00DF801225102034805F0FCF8B7
:103E700000F006F810BD0000001C0140000C0140DD
:103E800010B5022000F06EF910BD00001CB500BF97
:103E90001148806940F008000F49886100BF00BFE9
:103EA0000846806940F08000886100BF01200090D2
:103EB0000346024602210190084805F0E1F801207E
:103EC00000900346024641020190054805F0D8F8EB
:103ED00000F09CF81CBD000000100240000C0140E6
:103EE000001C014010B5012251020A4805F0BCF83F
:103EF000FFF7C6FF01220221074805F0B5F8FFF7DA
:103F0000BFFF00220221044805F0AEF8FFF7B8FF1A
:103F100010BD0000001C0140000C014070B50546BA
:103F20000024002619E06006040E01220221104838
:103F300005F09AF8FFF7A4FF4FF400710D4805F063
:103F40008BF808B1601CC4B200220221084805F0B9
:103F50008BF8FFF795FF701CC6B2082EE3DB15B98E
:103F6000FFF7C0FF01E0FFF767FF204670BD0000CC
:103F7000000C0140001C014070B50446002517E00C
:103F8000E2094FF400710E4805F06EF8FFF778FF74
:103F9000012202210B4805F067F8FFF771FF0022AC
:103FA0000221084805F060F86006040E681CC5B2DE
:103FB000082DE5DB01225102014805F055F870BDDE
:103FC000001C0140000C014010B5012251020D48B7
:103FD00005F04AF8012202210B4805F045F8FFF7E9
:103FE0004FFF00224FF40071064805F03DF8FFF73F
:103FF00047FF00220221044805F036F8FFF740FF92
:1040000010BD0000001C0140000C014010B5002252
:104010004FF40071094805F027F8FFF731FF01223E
:104020000221074805F020F8FFF72AFF012251027C
:10403000024805F019F8FFF723FF10BD001C0140EE
:10404000000C014070B500240025012251021448E3
:1040500005F00AF8FFF714FF01220221114805F0CC
:1040600003F8FFF70DFF09E0601CC4B2FA2C03DD72
:10407000FFF7CCFF012508E0FFF702FF4FF40071C6
:10408000074804F0E9FF0028EED100BF002202211A
:10409000044804F0E9FFFFF7F3FE284670BD000076
:1040A000001C0140000C01404FF0E022126942F078
:1040B00004024FF0E0231A610D4A10601A4612699B
:1040C00042F001021A616FF070425A6101464FF4EA
:1040D0007A7251430122074B1A804FF0E022126995
:1040E00042F002024FF0E0231A611A465161704714
:1040F000740000207800002070B504460F48007856
:10410000A0B10F48007888B90E480088844206DBC9
:104110000C48008894FBF0F5284600F01DF809488B
:10412000008894FBF0F100FB114084B24FF47A71E7
:1041300004FB01F000F016F870BD0000D200002072
:10414000C50000207800002010B5FEF771F810BD02
:1041500010B5FEF791F810BD10B504462046FEF7E5
:104160002FFD10BD2DE9F047074600264FF0E02057
:10417000D0F814901048006807FB00F8FFF7E4FF40
:104180004FF0E020856911E04FF0E0208469AC42F7
:104190000CD0AC4202D2281B064403E0A9EB040079
:1041A000284406442546464500D300E0ECE700BF1E
:1041B000FFF7CEFFBDE8F087740000201FB54EE08A
:1041C00003A8002303220721009025480068FDF77B
:1041D00043FB044604F0010060B14FF4784021A194
:1041E00010221346CDE900210290F022A2218C205A
:1041F00004F0F6F904F0020060B14FF478401CA11D
:1042000010221346CDE900210290F022A2218C2039
:1042100004F0E6F904F0040060B14FF4784017A10F
:1042200010221346CDE900210290F022A2218C2019
:1042300004F0D6F901221102144804F015FF3220CF
:10424000FEF7BEFC00224FF48071104804F00CFF12
:1042500003AB0022072102480068FDF74BFCAFE7E3
:10426000140000204B45593020444F574E20200069
:104270004B45593120444F574E2020004B45595F44
:10428000555020444F574E2020000000000C0140A4
:1042900000BF054A126802F04002002AF9D0C2B2FB
:1042A000014B1B1D1A607047003801400EB500BF5E
:1042B0003B48806940F080003949886100BF00BFF9
:1042C0000846806940F08000886100BF01200090AE
:1042D00000230246C1020190324804F0D1FE0120C1
:1042E000009000231A46810201902E4804F0C8FE77
:1042F000FFF7CCFD00224FF400612A4804F0B4FE21
:104300001420FFF7F9FE0122D102264804F0ACFE8A
:104310003220FFF7F1FE00208DF80800012202A9EB
:1043200000F046F9012202A9A42000F041F916206C
:104330008DF80800012202A9802000F039F90C2034
:104340008DF80800012202A9882000F031F902222C
:1043500002A9A12000F02EF89DF80800302803D112
:104360009DF8090003280DD09DF80900012809D007
:104370009DF80900022805D09DF8080068B99DF84D
:10438000090050B99DF809009DF8082000EB0221B2
:1043900005A0FBF7D9FF00200EBD0120FCE70000BF
:1043A00000100240001C01404354502049443A256B
:1043B000780D0A002DE9F04106460F461546FFF735
:1043C00003FE7020FFF7D8FDFFF73CFEF0B2FFF7C9
:1043D000D3FDFFF737FEFFF7F7FD7120FFF7CCFDA8
:1043E000FFF730FE00240BE0691EA14201D001213D
:1043F00000E000210846FFF791FD3855601CC4B26B
:10440000AC42F1DBFFF702FEBDE8F0812DE9FC4193
:104410000746002001900024002661480078401CD7
:104420005F490870084600780A2190FBF1F201FB11
:10443000120018B15A4800780A2867DA012201A947
:104440000220FFF7B7FF9DF8040000F00F000028DE
:104450005CD09DF8040000F00F0006287BDA9DF880
:10446000040000F00F014FF6FF70884085B2E8436A
:1044700080B240F440404B4988860420FFF73CFE60
:1044800000245AE04748808E0121A1400840E0B353
:10449000454931F8140004226946FFF78BFF414873
:1044A00090F8440000F00100C0B19DF801009DF8B3
:1044B000001001F00F0100EB01203A49203121F8F2
:1044C00014009DF803009DF8021001F00F0100EBAD
:1044D000012134480C3020F814101EE09DF8010032
:1044E0009DF8001001F00F0100EB01202F49098811
:1044F000081A81B22B480C3020F814109DF80300E4
:104500009DF8021001F00F0101E014E023E000EB40
:1045100001202449203121F814009DF8000000F00A
:10452000F000802807D000211E48203020F8141009
:10453000143820F81410601CC4B2052CA2DB01262C
:104540001848808920B91748008C08B900200190CC
:104550000020134908709DF8040000F01F00A8B95E
:104560001048808E00F4004030B10E48808E20F458
:1045700000400C49888609E04FF6FF7009498881A0
:1045800008840846808E00F46040888604480078DD
:10459000F02802DD0A20024908703046BDE8FC819F
:1045A000290000202C000020AEDE00081019002099
:1045B0002DE9F04105460E4617464FF00008FFF77B
:1045C00003FD7020FFF7D8FCFFF73CFDE8B2FFF7D2
:1045D000D3FCFFF737FD00240BE0305DFFF7CCFC88
:1045E000FFF730FD8046B8F1000F00D003E0601CFB
:1045F000C4B2BC42F1DB00BFFFF708FD4046BDE896
:10460000F08100001FB500BF4148806940F0800084
:104610003F49886100BF00BF0846806940F08000C4
:10462000886100BF0120009000230246C102019072
:10463000384804F025FD0120009000231A4681022D
:104640000190344804F01CFDFFF720FC00224FF4D9
:104650000061304804F008FD0A20FFF74DFD0122FB
:10466000D1022C4804F000FD0A20FFF745FD002090
:10467000012103460246CDE900108902254804F0D5
:10468000FFFC6420FFF738FD042202A948F2401025
:1046900000F058F800208DF80C001FA102A8FBF7CD
:1046A000C7FF88B11DA102A8FBF7C2FF60B11DA121
:1046B00002A8FBF7BDFF38B11CA102A8FBF7B8FFA9
:1046C00010B1012004B010BD02A91AA0FBF73CFEF6
:1046D00016A102A8FBF7ACFF10B90A201849087010
:1046E00002208DF80800012202A948F2400000F0E3
:1046F000D3F90A20FFF700FD00208DF80800012201
:1047000002A948F2400000F0C7F90020DAE70000F3
:1047100000100240001C014039313100393134377A
:1047200000000000313135380000000039323731E7
:10473000000000004354502049443A25730D0A00FC
:104740002A0000202DE9F04105460F461646FFF7E6
:104750003BFC2820FFF710FCFFF774FC2812FFF742
:104760000BFCFFF76FFCE8B2FFF706FCFFF76AFCF3
:10477000FFF72AFC2920FFF7FFFBFFF763FC00246B
:104780000BE0711EA14201D0012100E0002108468A
:10479000FFF7C4FB3855601CC4B2B442F1DBFFF72D
:1047A00035FCBDE8F081000071B583B000200190B8
:1047B0000026B4480078401CB249087008460178C9
:1047C0000A2091FBF0F200FB121018B1AD480078FE
:1047D0000A287DDA012203A948F24E10FFF7B2FF42
:1047E0009DF80C0000F0800078B19DF80C0000F0FE
:1047F0000F00A5490978884207DC002001900122BA
:1048000001A948F24E1000F047F99DF80C0000F0A5
:104810000F0000285CD09DF80C0000F00F009A49B2
:104820000978884254DC9DF80C0000F00F014FF627
:10483000FF70884084B29548858EE04380B240F492
:10484000404092498886084682898F480078401EF9
:104850000C3121F810208D48028C8B480078401EC6
:10486000143121F8102000200190A7E08748808EA5
:104870009DF8042001219140084000283FD0844940
:104880009DF8042031F81200042202A9FFF75AFF14
:104890008048808845F2105188420BD07D4880883E
:1048A00049F60601884205D07A48808847F2967119
:1048B000884240D1754890F8440000F00100F8B1FA
:1048C0009DF80A009DF80B1000EB0120714900E0F3
:1048D000B2E00988081A81B26C480C309DF80420B7
:1048E00020F812109DF808009DF8091000EB012037
:1048F00081B2664820309DF8042020F8121058E05C
:104900009DF808009DF8091000EB012081B25F4876
:104910000C309DF8042020F812109DF80A009DF834
:104920000B1000EB012081B2584820309DF8042084
:1049300020F812103DE0554890F8440000F00100C6
:10494000D0B19DF808009DF8091000EB012081B25C
:104950004E480C309DF8042020F812109DF80A00F3
:104960009DF80B1000EB012081B2484820309DF8E3
:10497000042020F812101CE09DF80A009DF80B108E
:1049800000EB012043490988081A81B23F480C30E6
:104990009DF8042020F812109DF808009DF80910D9
:1049A00000EB012081B2394820309DF8042020F826
:1049B00012109DF80400401CC0B201909DF8040044
:1049C000314909788842FFF651AF01262F48808986
:1049D00030490988884205DC2C48008C2D494988DB
:1049E000884226DD9DF80C0000F00F0001280ADD4A
:1049F0002648C089254988810846408C08840020C3
:104A00002049087018E020480078401E1F490C31EA
:104A100031F810000C3988811B480078401E203185
:104A200031F81000203908848020039008468586DC
:104A300002E00020134908709DF80C0000F08F0080
:104A4000802815D11148808E00F4004030B10F4805
:104A5000808E20F400400D49888609E04FF6FF70F3
:104A60000A49888108840846808E00F46040888660
:104A700004480078F02802DD0A2002490870304618
:104A800004B070BD2B0000202A0000202C00002064
:104A9000B8DE0008101900202DE9F04104460E464A
:104AA00017464FF00008FFF78FFA2820FFF764FA47
:104AB000FFF7C8FA2012FFF75FFAFFF7C3FAE0B278
:104AC000FFF75AFAFFF7BEFA00250BE0705DFFF71B
:104AD00053FAFFF7B7FA8046B8F1000F00D003E0B1
:104AE000681CC5B2BD42F1DB00BFFFF78FFA40463C
:104AF000BDE8F08110B5002280210D4804F0B4FA21
:104B000000F018F801224021094804F0ADFA00F045
:104B100011F800224021064804F0A6FA00F00AF835
:104B200001228021024804F09FFA00F003F810BD32
:104B3000000C014010B50220FFF714FB10BD00006F
:104B40001CB500BF1148806940F008000F4988611A
:104B500000BF00BF0846806940F00800886100BFC0
:104B6000012000900023024640210190084804F0F3
:104B700087FA0120009003460246802101900448F4
:104B800004F07EFA00F08EF81CBD00000010024018
:104B9000000C014010B5012280210A4804F064FA9B
:104BA000FFF7C8FF01224021064804F05DFAFFF735
:104BB000C1FF00224021034804F056FAFFF7BAFF74
:104BC00010BD0000000C014070B505460024002611
:104BD00018E06006040E012240210F4804F044FA58
:104BE000FFF7A8FF80210C4804F036FA08B1601CDA
:104BF000C4B200224021084804F036FAFFF79AFFB9
:104C0000701CC6B2082EE4DB15B9FFF7C3FF01E044
:104C1000FFF770FF204670BD000C014070B50446E0
:104C2000002516E0E20980210E4804F01DFAFFF786
:104C300081FF012240210B4804F016FAFFF77AFFAA
:104C400000224021074804F00FFA6006040E681C99
:104C5000C5B2082DE6DB01228021024804F004FAE7
:104C600070BD0000000C014010B5012280210C48ED
:104C700004F0FAF901224021094804F0F5F9FFF7A0
:104C800059FF00228021064804F0EEF9FFF752FF99
:104C900000224021024804F0E7F9FFF74BFF10BD66
:104CA000000C014010B5002280210A4804F0DCF914
:104CB000FFF740FF01224021064804F0D5F9FFF735
:104CC00039FF01228021034804F0CEF9FFF732FFBB
:104CD00010BD0000000C014070B500240025012229
:104CE0008021124804F0C0F9FFF724FF012240217F
:104CF0000E4804F0B9F9FFF71DFF07E0601CC4B2CD
:104D0000FA2C03DDFFF7CEFF012505E080210748DF
:104D100004F0A2F90028F1D100BF0022402103488D
:104D200004F0A2F9FFF706FF284670BD000C014011
:104D30001CB500BF2048806940F040001E498861D2
:104D400000BF00BF0846806940F04000886100BF96
:104D500000BF0846806940F04000886100BF00BF86
:104D60000846806940F00400886100BF012000907F
:104D700000231A4610210190104804F081F9012007
:104D8000009000231A46082101900C4804F078F99D
:104D90000120009000231A4604210190074804F0E6
:104DA0006FF90220012100231A46CDE900100448C2
:104DB00004F066F91CBD000000100240001801401C
:104DC0000008014070B50446002514B101202B49AC
:104DD00008702A480078002834D01021284804F0B0
:104DE0003BF978B10821264804F036F950B1042186
:104DF000234804F031F928B10121224804F02CF9AC
:104E000001281FD10A20FFF777F900201B490870FD
:104E100010211B4804F020F900B901250821184889
:104E200004F01AF900B902250421154804F014F918
:104E300000B903250121134804F00EF901281BD104
:104E4000042519E010210E4804F006F9012813D1B9
:104E500008210B4804F000F901280DD1042108486D
:104E600004F0FAF8012807D10121064804F0F4F80B
:104E700010B9012001490870284670BD28000020A3
:104E800000180140000801400CE00020FFF79AFFE5
:104E9000044624B1214604480068FDF747F80A207B
:104EA000FDF78EFEF1E700000000002070B504461B
:104EB000002609480588408845430021084603F03C
:104EC0005FFA03F067FC00BF02E004480480761C30
:104ED000AE42FAD370BD0000101900200008006C2B
:104EE00010B5044658488471002C58D1F02056491A
:104EF00008804FF4A07048800846808845F2105121
:104F0000884210D14FF430504F4908814FF4285057
:104F100048814FF42C5088814FF4F07008804FF492
:104F2000487048801AE04848808841F663118842FA
:104F30000DD12C20444908812B2048812A208881CA
:104F40004FF4F07008804FF44870488006E02C2041
:104F50003D4908812A2048812B2088813A48808851
:104F600045F21031884205D03748808847F2967163
:104F7000884206D14FF4A070334908804FF4F07096
:104F800048803148808849F60601884258D14FF45C
:104F9000F0702D4908804FF44870488050E04FF47D
:104FA000A07029490880F02048800846808845F292
:104FB0001051884210D14FF43050234908814FF4EA
:104FC000285048814FF42C5088814FF44870088055
:104FD0004FF4F070488020E01B48808841F6631150
:104FE000884205D01848808849F6060188420DD1CC
:104FF0002C20154908812A2048812B2088814FF4D4
:10500000487008804FF4F070488006E02C200E496C
:1050100008812A2048812B2088810B48808845F20E
:105020001031884205D00848808847F2967188423E
:1050300006D14FF4F070044908804FF4A070488006
:10504000002003F07FF810BD101900202DE9FF4F5C
:1050500085B080468946129F002003900290B84593
:1050600007DB0798B84204DBB94502DB0898B84271
:1050700002DA09B0BDE8F08F0798A0EB08040898A1
:10508000A0EB0905CDF80480CDF80090002C02DDDE
:105090004FF0010A06E014B94FF0000A02E04FF0A9
:1050A000FF3A6442002D02DD4FF0010B06E015B916
:1050B0004FF0000B02E04FF0FF3B6D42AC4201DDD0
:1050C000264600E02E460020049023E0009A91B28C
:1050D000019A90B23A46139B02F078FD039820445F
:1050E00003900298284402900398B04205DD03988B
:1050F000801B03900198504401900298B04205DD56
:105100000298801B02900098584400900498401C1C
:1051100080B20490711C04988842D7DD00BFA8E7D4
:105120002DE9F04706460F4690469A46002445462C
:105130000320A0EB480944E07A1B91B2321990B2E7
:10514000524600F0B5F83A1B91B2721990B252462D
:1051500000F0AEF83A1991B2721990B2524600F0CE
:10516000A7F87A1991B2321990B2524600F0A0F81D
:105170007A1991B2321B90B2524600F099F83A195E
:1051800091B2721B90B2524600F092F87A1B91B223
:10519000321B90B2524600F08BF83A1B91B2721B50
:1051A00090B2524600F084F8641CB9F1000F03DAA3
:1051B000A000801D814404E0601B80000A3081440F
:1051C0006D1EAC42B8DDBDE8F0870000F8B50446BE
:1051D0000D4616461F463EB109480088A04203DB33
:1051E00007484088A84200DAF8BDA019401E82B2E4
:1051F0002B4629462046009702F0BEFC00BFF3E78D
:10520000101900202DE9FF4F84B081468A46002006
:10521000029083460698A0EB09050798A0EB0A06C2
:10522000CDF80490CDF800A0002D01DD012705E0A8
:105230000DB9002702E04FF0FF376D42002E02DD6E
:105240004FF0010806E016B94FF0000802E04FF0F9
:10525000FF387642B54201DD2C4600E0344600209E
:1052600003901EE0009A91B2019A90B2119A00F058
:105270001FF8029828440290B3440298A04205DD2A
:105280000298001B0290019838440190A34504DD68
:10529000ABEB040B0098404400900398401C80B294
:1052A0000390611C03988842DCDD08B0BDE8F08FF4
:1052B00070B505460E4614463146284603F060F8A0
:1052C00003F068FA01490C8070BD00000008006C12
:1052D00010B5CF2003F052FA002003F043FAC120AA
:1052E00003F040FA302003F03DFAED2003F046FAD7
:1052F000642003F037FA032003F034FA122003F09D
:1053000031FA812003F02EFAE82003F037FA8520E5
:1053100003F028FA102003F025FA7A2003F022FA8D
:10532000CB2003F02BFA392003F01CFA2C2003F0D9
:1053300019FA002003F016FA342003F013FA0220C1
:1053400003F010FAF72003F019FA202003F00AFA0C
:10535000EA2003F013FA002003F004FA002003F01F
:1053600001FAC02003F00AFA1B2003F0FBF9C12068
:1053700003F004FA012003F0F5F9C52003F0FEF96B
:10538000302003F0EFF9302003F0ECF9C72003F0F0
:10539000F5F9B72003F0E6F9362003F0EFF94820DD
:1053A00003F0E0F93A2003F0E9F9552003F0DAF9C7
:1053B000B12003F0E3F9002003F0D4F91A2003F040
:1053C000D1F9B62003F0DAF90A2003F0CBF9A220D4
:1053D00003F0C8F9F22003F0D1F9002003F0C2F97C
:1053E000262003F0CBF9012003F0BCF9E02003F004
:1053F000C5F90F2003F0B6F92A2003F0B3F92820ED
:1054000003F0B0F9082003F0ADF90E2003F0AAF97B
:10541000082003F0A7F9542003F0A4F9A92003F011
:10542000A1F9432003F09EF90A2003F09BF90F2015
:1054300003F098F9002003F095F9002003F092F9A9
:10544000002003F08FF9002003F08CF9E12003F035
:1054500095F9002003F086F9152003F083F9172051
:1054600003F080F9072003F07DF9112003F07AF9A9
:10547000062003F077F92B2003F074F9562003F08F
:1054800071F93C2003F06EF9052003F06BF9102050
:1054900003F068F90F2003F065F93F2003F062F98B
:1054A0003F2003F05FF90F2003F05CF92B2003F09D
:1054B00065F9002003F056F9002003F053F90120AC
:1054C00003F050F93F2003F04DF92A2003F056F97C
:1054D000002003F047F9002003F044F9002003F016
:1054E00041F9EF2003F03EF9112003F047F978204D
:1054F000FEF702FE292003F041F910BD10B5FF2090
:1055000003F03CF9FF2003F02DF9982003F02AF96D
:10551000062003F027F9BC2003F030F9012003F046
:1055200021F90F2003F01EF9612003F01BF9FF2081
:1055300003F018F9012003F015F9012003F012F926
:105540000B2003F00FF9102003F00CF9372003F0C3
:1055500009F9632003F006F9FF2003F003F9FF20A7
:1055600003F000F9012003F0FDF8012003F0FAF840
:10557000002003F0F7F8002003F0F4F8FF2003F018
:10558000F1F8522003F0EEF8012003F0EBF80020D0
:1055900003F0E8F8402003F0E5F8BD2003F0EEF852
:1055A000012003F0DFF8232003F0DCF8452003F0AE
:1055B000D9F8672003F0D6F8012003F0D3F82320B0
:1055C00003F0D0F8452003F0CDF8672003F0CAF8C7
:1055D000BE2003F0D3F8002003F0C4F8012003F04C
:1055E000C1F8AB2003F0BEF8602003F0BBF8222026
:1055F00003F0B8F8222003F0B5F8222003F0B2F847
:10560000222003F0AFF8222003F0ACF8C72003F00B
:10561000B5F8362003F0A6F8ED2003F0AFF87F20B0
:1056200003F0A0F80F2003F09DF8C02003F0A6F8C7
:105630000F2003F097F80B2003F094F80A2003F0F2
:1056400091F8FC2003F09AF8082003F08BF8DF2093
:1056500003F094F8002003F085F8002003F082F8AE
:10566000002003F07FF8002003F07CF8002003F016
:1056700079F8202003F076F8F32003F07FF8742007
:1056800003F070F8B42003F079F8002003F06AF812
:10569000002003F067F8002003F064F8F72003F01F
:1056A0006DF8822003F05EF8B12003F067F8002067
:1056B00003F058F8132003F055F8132003F052F8C4
:1056C000F22003F05BF8802003F04CF8042003F094
:1056D00049F8402003F046F8282003F043F8C120A1
:1056E00003F04CF8172003F03DF8882003F03AF857
:1056F000882003F037F8202003F034F8E02003F08E
:105700003DF8002003F02EF80A2003F02BF81220B9
:1057100003F028F8102003F025F80E2003F022F8FB
:10572000202003F01FF8CC2003F01CF8072003F022
:1057300019F8062003F016F80B2003F013F80E20DA
:1057400003F010F80F2003F00DF80D2003F00AF815
:10575000152003F007F8102003F004F8002003F0F0
:1057600001F8E12003F00AF8002002F0FBFF0B2013
:1057700002F0F8FF132002F0F5FF0D2002F0F2FF17
:105780000E2002F0EFFF1B2002F0ECFF712002F070
:10579000E9FF062002F0E6FF062002F0E3FF0A2000
:1057A00002F0E0FF0F2002F0DDFF0E2002F0DAFF32
:1057B0000F2002F0D7FF152002F0D4FF0C2002F0DA
:1057C000D1FF002002F0CEFF2A2002F0D7FF0020F8
:1057D00002F0C8FF002002F0C5FF012002F0C2FF66
:1057E000DF2002F0BFFF2B2002F0C8FF002002F0F4
:1057F000B9FF002002F0B6FF032002F0B3FF1F2024
:1058000002F0B0FF3A2002F0B9FF552002F0AAFFE3
:10581000362002F0B3FF002002F0A4FF112002F0B6
:10582000ADFF7820FEF768FC292002F0A7FF1420C6
:10583000FEF762FC2C2002F0A1FF10BD10B5ED2098
:1058400002F09CFF012002F08DFFFE2002F08AFF93
:10585000EE2002F093FFDE2002F084FF212002F010
:1058600081FFF12002F08AFF012002F07BFFDF20A0
:1058700002F084FF102002F075FFC42002F07EFFCA
:105880008F2002F06FFFC62002F078FF002002F0A8
:1058900069FFE22002F066FFE22002F063FFE220EF
:1058A00002F060FFBF2002F069FFAA2002F05AFF59
:1058B000B02002F063FF0D2002F054FF002002F040
:1058C00051FF0D2002F04EFF002002F04BFF11208F
:1058D00002F048FF002002F045FF192002F042FFCD
:1058E000002002F03FFF212002F03CFF002002F0E8
:1058F00039FF2D2002F036FF002002F033FF3D205B
:1059000002F030FF002002F02DFF5D2002F02AFFA0
:10591000002002F027FF5D2002F024FF002002F0AB
:1059200021FFB12002F02AFF802002F01BFF00209F
:1059300002F018FF8B2002F015FF002002F012FF8A
:10594000962002F00FFF002002F00CFFB22002F0C0
:1059500015FF002002F006FF002002F003FF0220E6
:1059600002F000FF002002F0FDFE032002F0FAFE2C
:10597000002002F0F7FEB32002F000FF002002F04A
:10598000F1FE002002F0EEFE002002F0EBFE00200F
:1059900002F0E8FE002002F0E5FE002002F0E2FE48
:1059A000002002F0DFFE002002F0DCFE002002F00A
:1059B000D9FE002002F0D6FE002002F0D3FE002027
:1059C00002F0D0FE002002F0CDFE002002F0CAFE60
:1059D000002002F0C7FE002002F0C4FE002002F00A
:1059E000C1FE002002F0BEFE002002F0BBFE00203F
:1059F00002F0B8FE002002F0B5FE002002F0B2FE78
:105A0000002002F0AFFE002002F0ACFEB42002F055
:105A1000B5FE8B2002F0A6FE002002F0A3FE962029
:105A200002F0A0FE002002F09DFEA12002F09AFEEE
:105A3000002002F097FEB52002F0A0FE022002F046
:105A400091FE002002F08EFE032002F08BFE00206B
:105A500002F088FE042002F085FE002002F082FEA3
:105A6000B62002F08BFE002002F07CFE002002F047
:105A700079FEB72002F082FE002002F073FE0020C3
:105A800002F070FE3F2002F06DFE002002F06AFE80
:105A90005E2002F067FE002002F064FE642002F047
:105AA00061FE002002F05EFE8C2002F05BFE002012
:105AB00002F058FEAC2002F055FE002002F052FE2B
:105AC000DC2002F04FFE002002F04CFE702002F0BD
:105AD00049FE002002F046FE902002F043FE002026
