:020000040800F2
:1000000060250020CD010008D1010008D3010008BF
:10001000D5010008D7010008D90100080000000040
:10002000000000000000000000000000DB010008EC
:10003000DD01000800000000950200089D1C00087A
:10004000E3010008E3010008E3010008E301000800
:10005000E3010008E3010008E3010008E3010008F0
:10006000E3010008E3010008E3010008E3010008E0
:10007000E3010008E3010008E3010008E3010008D0
:10008000E3010008E3010008E3010008E3010008C0
:10009000E3010008E3010008E3010008E3010008B0
:1000A000E3010008E3010008E3010008E3010008A0
:1000B000E3010008E3010008E3010008E301000890
:1000C000E3010008E3010008E3010008E301000880
:1000D000E3010008B11C0008E3010008E301000887
:1000E000E3010008E3010008E3010008E301000860
:1000F000E3010008E3010008E3010008E301000850
:10010000E3010008E3010008E3010008E30100083F
:10011000E3010008E3010008E3010008E30100082F
:10012000E3010008E3010008E3010008E30100081F
:1001300000F002F800F03AF80AA090E8000C8244BF
:100140008344AAF10107DA4501D100F02FF8AFF29C
:10015000090EBAE80F0013F0010F18BFFB1A43F0A5
:10016000010318477021000090210000103A24BFBD
:1001700078C878C1FAD8520724BF30C830C144BF0C
:1001800004680C607047000000230024002500264E
:10019000103A28BF78C1FBD8520728BF30C148BFEA
:1001A0000B6070471FB51FBD10B510BD00F0B9F84A
:1001B0001146FFF7F7FF01F04BFE00F0D7F803B44C
:1001C000FFF7F2FF03BC01F0B9FD0000084800474B
:1001D000FEE7FEE7FEE7FEE7FEE7FEE7FEE7FEE7F7
:1001E000FEE7FEE703480449044A054B7047000058
:1001F00031010008601F00206025002060210020E0
:100200006021002072B602B4EFF3118180F31188EF
:10021000BFF34F8FBFF36F8F084602BC62B67047C3
:1002200072B680F31188BFF34F8FBFF36F8F62B642
:10023000704772B630484FF0FF010170002080F324
:1002400009882E48016881F3088800F087FE2C4851
:10025000012101702B482C490A7802702B482C4947
:100260000A680260106880F30988EFF3148040F098
:10027000020080F31488BFF36F8FBDE8F04F0FBC0E
:10028000BDE8005006BC62B6084722484FF08051D6
:100290000160704772B640F21802C2F200021168A3
:1002A00081F31188BFF34F8FBFF36F8F62B6EFF307
:1002B000098020E9F04F154D29680860744600F068
:1002C0004DFE104810490A78027011490A682A60E8
:1002D00044F0040E1068B0E8F04F80F3098840F253
:1002E0000002C0F2000272B682F31188BFF34F8F92
:1002F000BFF36F8F62B6704722ED00E01000002060
:100300004200002037000020380000204800002074
:100310005000002004ED00E07047704770477047C0
:100320007047754600F02CF8AE4605006946534606
:1003300020F00700854618B020B5FFF753FFBDE851
:1003400020404FF000064FF000074FF000084FF03C
:10035000000B21F00701AC46ACE8C009ACE8C009CD
:10036000ACE8C009ACE8C0098D46704710B504463A
:10037000AFF300802046BDE81040FFF720BF00002B
:1003800000487047001F0020704770477047704753
:1003900070477047704770471D481E481E481F48E9
:1003A0001F48204820482148214822482248234805
:1003B00023482448244825482548264826482748D5
:1003C000274828482848294829482A482A482B48A5
:1003D0002B482C482C482D482D482E482E482F4875
:1003E0002F48304830483148314832483248334845
:1003F0003348344834483548354836483648374815
:100400003748384838483948394800BF70470000F5
:1004100060210008642100086A2100086C2100089E
:10042000682100086E210008702100087221000870
:100430007421000876210008782100087A2100083C
:100440007C2100087E21000880210008822100080C
:100450008421000886210008882100088A210008DC
:100460008C2100088E2100089021000892210008AC
:100470009421000896210008982100089A2100087C
:100480009C2100089E210008A0210008A22100084C
:10049000A4210008A6210008A8210008AA2100081C
:1004A000AC210008AE210008B0210008B2210008EC
:1004B000B6210008B8210008BA210008BC210008B4
:1004C000481A0020C81E0020C0210008C2210008D0
:1004D000C4210008C6210008C8210008CA2100085C
:1004E000CC210008CE210008D0210008BE21000840
:1004F000D22100082DE9F04105460E46144600279A
:100500001DB904202070BDE8F08116B90C202070C0
:10051000F9E71448007810B112202070F3E728782A
:10052000012808D0022807D0032802D0042804D1CB
:1005300000E000BF00BF00BF02E001202070E2E742
:1005400000BF00BF1020FFF75DFE074600BF6E61D1
:1005500000BF3846FFF764FE00BF0020207000BFD8
:10056000D1E700003500002010B500F019F801F0C7
:1005700085F801F0B1F801F0D1F801F04FF801F081
:100580000FF801F065F901F08FF901F007F901F0BA
:100590002DF900F0C7FD00F025F8FFF7FDFE10BDB6
:1005A0000B484FF4807102E0491E002204C000296C
:1005B000FAD1084A084B1A601A46126822F007025C
:1005C0001A600022054B1A801022054B1A607047F2
:1005D00048070020480B00201000002014000020D5
:1005E000180000207047000006480078012808D154
:1005F00005480078FF2804D203480078401C0249CF
:1006000008707047420000203500002010B500241B
:100610001D480078012835D100BF1020FFF7F2FDFA
:10062000044600BF1948007820B118480078401EE1
:100630001649087015480078F8B915480078E0B9EF
:1006400001F09AF913481449097850F82100134928
:100650000860114800781249097888420DD00F4887
:100660000068006C401C0D49096808640D4800686A
:10067000401C0C490860FFF708FE00BF2046FFF74A
:10068000CFFD00BF10BD000042000020350000205B
:100690003600002088100020380000205000002084
:1006A000370000201C00002010B500240D48007801
:1006B000012816D100BF1020FFF7A4FD044600BF9B
:1006C0000948007840B909480078FF2804D2074853
:1006D0000078401C0549087000BF2046FFF7A0FDC8
:1006E00000BF10BD42000020350000203600002071
:1006F00010B500241748007801282AD100BF102027
:10070000FFF780FD044600BF13480078E0B91348A6
:100710000078A0B111480078401E104908700846C2
:10072000007838B900BF2046FFF77AFD00BF01F01E
:10073000E3F80EE000BF2046FFF772FD09E000BFBE
:100740002046FFF76DFD04E000BF2046FFF768FD7F
:1007500000BF10BD42000020350000203600002000
:1007600070B5054600261348007808B1002070BD1A
:1007700000BF1020FFF746FD064600BF0E48046884
:10078000006820B10C48006840680B49086000BF51
:100790003046FFF745FD00BF4CB103202070258196
:1007A0000020606005A06061204600F0EBFE20465E
:1007B000DDE7000035000020200000203F000000A1
:1007C0002DE9F04105460E46144600271DB90420C8
:1007D0002070BDE8F0812878032802D00120207025
:1007E000F7E73A48007810B102202070F1E7384866
:1007F000007810B10D202070EBE700BF1020FFF74C
:1008000001FD074600BF288950B12889401E288174
:1008100000BF3846FFF704FD00BF00202070D8E776
:100820002C48006890F8380040F001002949096818
:1008300081F8380000202749096881F839002548E7
:1008400000684663284600F05FFE00BF3846FFF7A9
:10085000E7FC00BF01F050F800BF1020FFF7D2FC0A
:10086000074600BF1B48006890F8390020B10128F6
:1008700009D0022806D102E0002020700BE00E20F3
:10088000207008E000BF29461248006800F008FE0A
:100890000A20207000BF00BF00200E49096881F8BF
:1008A00038000C49096881F839000A490968C861AB
:1008B00008490968086207490968486200BF384664
:1008C000FFF7AEFC00BF00BF83E70000350000204B
:1008D000360000204800002070B5044600250CB901
:1008E000042070BD2078032801D00120F9E700BF63
:1008F0001020FFF787FC054600BFA07A70B10023E7
:1009000001221946204600F081FD00BF2846FFF76E
:1009100087FC00BF00F0F0FF0020E2E720894FF6DF
:10092000FF71884209D22089401C208100BF2846DF
:10093000FFF776FC00BF0020D3E700BF2846FFF793
:100940006FFC00BF3320CCE710B50B48007890B99E
:1009500001F012F809480078094908700948074968
:10096000097850F8210008490860084600680749DE
:100970000860FFF75EFC10BD420000203800002038
:100980003700002088100020500000204800002080
:1009900010B50024022000F0E5FA00BF1020FFF798
:1009A00031FC044600BF00200E49086000BF20460D
:1009B000FFF736FC00BF642000F0D4FA00BF10201F
:1009C000FFF720FC044600BF06480068064908609F
:1009D00001200649087000BF2046FFF721FC00BF38
:1009E00010BD0000440000202C0000203400002036
:1009F00010B504462046FFF7C7FC10BD2DE9F04FA7
:100A000085B081468A4693461C46DDE90F78129DE3
:100A1000002003903F2C03D92A2005B0BDE8F08FB9
:100A200000BF1020FFF7EEFB039000BF27480078BF
:100A300030B100BF0398FFF7F3FB00BF3C20ECE7A9
:100A4000234850F82400C0BB0120214941F824006C
:100A500000BF0398FFF7E4FB00BF2A464146384633
:100A600001F00EF92B465A465146484600F0B6F9B9
:100A700004901198CDE9008002953A4620460E9BDD
:100A8000049900F08FFF064636B912480078012815
:100A900011D100F031FF0EE000BF1020FFF7B2FBD4
:100AA000039000BF00200A4941F8240000BF0398CA
:100AB000FFF7B6FB00BF3046AFE7FFE700BF039884
:100AC000FFF7AEFB00BF2820A7E70000350000209D
:100AD000881000204200002010B504462046FFF791
:100AE00054FC10BD2DE9F04105460027544800781C
:100AF00010B14020BDE8F0813F2D01D13E20F9E743
:100B00003F2D03D3FF2D01D02A20F3E700BF102093
:100B1000FFF778FB074600BFFF2D03D14948006867
:100B200090F83A50484850F8254034B900BF38464C
:100B3000FFF776FB00BF4320DCE7012C06D100BFA6
:100B40003846FFF76DFB00BF3D20D3E714F83C0F9C
:100B50003E49085C6178884321783C4A505414F837
:100B60003C091146085C30B994F83E1038480078CA
:100B7000884337490870E06918B12046E16900F000
:100B80008FFC206A18B12046216A00F0A0FCE66ABA
:100B900016B1304600F030FD0020606384F8380064
:100BA00084F839002B480078FF2804D229480078BF
:100BB000401C2849087000BF3846FFF731FB00BFD2
:100BC00000F022FC00BF1020FFF71CFB074600BF0F
:100BD0002048007820B11F480078401E1D49087049
:100BE000204600F043F81C480078401E1A4908705F
:100BF0000020154941F82500A06930B9002061693D
:100C0000886116496069086005E0D4E9050148611A
:100C1000D4E90510886112480068606110480460DA
:100C200010A0606500BF3846FFF7FAFA00BF0E4813
:100C30000078012801D100F05FFE00205AE7000093
:100C40003500002048000020881000203A000020D5
:100C5000390000203600002043000020540000200E
:100C60004C0000203F0000004200002010B5044668
:100C70002046FFF78BFB10BD10B5FFF788FB10BDBA
:100C80002DE9F04105460F4614464FF000083F2D70
:100C900005D9FF2D03D02A202070BDE8F08117B9B7
:100CA0000C202070F9E71948007810B1122020704C
:100CB000F3E700BF1020FFF7A5FA804600BFFF2D25
:100CC00003D11348006890F83A50124850F8256054
:100CD0003EB900BF4046FFF7A3FA00BF4320207093
:100CE000DBE7012E07D100BF4046FFF799FA00BFAE
:100CF00043202070D1E7776500BF4046FFF790FAA8
:100D000000BF0020207000BFC7E7000035000020B2
:100D1000480000208810002010B504462046FFF748
:100D200037FB10BD10B5FFF734FB10BD2DE9F047C0
:100D300006460C464FF0000A3F2E04D9FF2E02D083
:100D40002A20BDE8F0870CB90920FAE700202060CE
:100D5000606000BF1020FFF755FA824600BFFF2EEB
:100D600003D11C48006890F83A601B4850F82650A0
:100D700035B900BF5046FFF753FA00BF4320E0E704
:100D8000012D06D100BF5046FFF74AFA00BF4320AD
:100D9000D7E7287C00F0010030B900BF5046FFF7CC
:100DA0003FFA00BF4520CCE70027D5F80C90D5F8D6
:100DB000088000BF5046FFF733FA00BF00E07F1CF9
:100DC00058F8041B0029FAD02760A9EB07006060DF
:100DD0000020B6E7480000208810002070B50446C7
:100DE000101D20F007004FF08076051F28462E606A
:100DF000051F28462C60244E051F28462E604FF004
:100E00001236051F28462E604FF00336051F284670
:100E10002E604FF00236051F28462E607610051F03
:100E200028462E60051F284629606FF00206051F20
:100E300028462E604FF01136051F28462E604FF0D1
:100E40001036051F28462E604FF00936051F28462C
:100E50002E604FF00836051F28462E604FF00736EB
:100E6000051F28462E604FF00636051F28462E60C7
:100E70004FF00536051F28462E604FF00436051F3B
:100E800028462E6070BD00003D1B00082DE9F04192
:100E900005464FF000083F2D02D14720BDE8F08104
:100EA0003F2D03D3FF2D01D02A20F7E700BF1020EC
:100EB000FFF7A8F9804600BFFF2D05D12348006841
:100EC00090F83A50012608E02048006890F83A006F
:100ED000A84201D1012600E000261D4850F8254017
:100EE00034B900BF4046FFF79BF900BF4820D5E763
:100EF000012C06D100BF4046FFF792F900BF432006
:100F0000CCE794F83C701348C05D94F83D108843DA
:100F10001049C8550846C05D30B994F83E100E48D7
:100F2000007888430C49087094F8380040F00800B5
:100F300084F8380000BF4046FFF772F900BF012E69
:100F400001D100F0D9FC0020A8E7000048000020F3
:100F5000881000203A0000203900002010B5FFF76B
:100F600019FA10BD70B5054600261A48007800B180
:100F700070BD1948007800B1FAE745B300BF1020F2
:100F8000FFF740F9064600BF1448006890F83C405F
:100F90001348005D1149096891F83D1088431049D4
:100FA00008550846005D40B90C48006890F83E10AE
:100FB0000C48007888430B4908700848006845636E
:100FC00000BF3046FFF72CF900BF00F095FC00BFD2
:100FD000CEE7000035000020360000204800002049
:100FE0003A0000203900002070B5002600F07CF89F
:100FF00000BF1020FFF706F9064600BF344800681E
:10100000401C3349086000BF3046FFF709F900BFB4
:1010100030480078012858D12F48007820B10128A5
:1010200004D0022809D103E001250BE0002509E0E6
:10103000012501202849087004E0012500202649E7
:10104000087000BF00BF05B970BD2448046838E0CF
:1010500000BF1020FFF7D6F8064600BF606B50B304
:10106000606B401E6063606B28BB94F8380000F032
:10107000370040B114F8380F00F0C800207001208C
:101080006070383C02E0002084F8390094F83800A1
:1010900000F0080078B93C34A07811490978084379
:1010A0000F49087020780F49085C6178084314F8EC
:1010B0003C190C4A5054646900BF3046FFF7B0F841
:1010C00000BF94F83A003F28C2D100BFBCE700003F
:1010D000680000204200002058000020540000203A
:1010E000390000203A00002010B5FFF754F90748F6
:1010F0000088401C05490880084600880A2803D358
:101100000020088000F004F810BD0000140000204A
:1011100010B503480068FFF7DFFB0446204610BD0A
:1011200078000020F8B54FF42071284800F086FBC5
:101130003821274800F082FB002514E0681C86B2A5
:1011400005EB8500214901EBC00406EB860001EBAD
:10115000C00764202070002084F82500E7601DA0EF
:101160002062681C85B20F2DE8D305EB8500174976
:1011700001EBC00464202070002084F82500E060AA
:1011800014A020620020144908601449088010202F
:10119000134908800D48134908600120FFF7E0FA61
:1011A000114908600020FFF7DBFA104908606A4621
:1011B0000FA10D480068FFF79DF96A4611A10B4881
:1011C0000068FFF797F900F027F8F8BD481A0020EB
:1011D000C81E00203F000000700000206E000020AC
:1011E0006C0000207C0000207400002078000020AB
:1011F00075432F4F532D494920546D724C6F636BCB
:101200000000000075432F4F532D494920546D7243
:101210005369676E616C000000B587B00320002140
:1012200080220A4BCDE90132CDE903104FF6FD7063
:101230003D23074A00900748FFF7E0FB06AA06A1F6
:101240003D20FFF71DFD07B000BD0000C81C0020B9
:10125000C41E0020DD12000875432F4F532D49494D
:1012600020546D7200000000F0B50B46032580F895
:101270002550012B05D1174EC569366835444561A7
:101280000CE085692DB9134EC56936683544456152
:1012900004E0104E85693668354445610726456986
:1012A000B5FBF6F706FB17540B4D05EBC4010D68B3
:1012B0002DB908600025C56001258D8006E00A680B
:1012C0000860C26010618D886D1C8D8000250561ED
:1012D000F0BD000070000020C81E002008B500BF4F
:1012E00000BF6A4600211B480068FFF769FAFFF754
:1012F000DBF919480068401C174908600846006877
:101300000721B0FBF1F201FB1208144800EBC807FB
:101310003C681AE0E668104960690968884213D1A0
:10132000204600F01DF894F82400022804D1012181
:101330002046FFF799FF02E0022084F82500656847
:1013400015B12046A168A8473446002CE2D1FFF72A
:10135000CFF9C6E77800002070000020C81E0020EA
:10136000F0B507264569B5FBF6F706FB17540D4D9A
:1013700005EBC4021568854205D1C168116039B119
:1013800000250D6104E00169C368CB6003B11961F8
:10139000012580F825500025C560056195886D1EE2
:1013A0009580F0BDC81E002010B500BF1020FEF7CC
:1013B00029FF044600BFFFF717F900BF2046FEF7DC
:1013C0002FFF00BFFFF710FEFFF720F910BD000050
:1013D00010B5014610224B1E4FF0E0246361094B0B
:1013E000186820F07F4040EA0260186023461B69BD
:1013F00043F00503236123461B6943F00203236185
:1014000010BD000020ED00E0704700002DE9F04F16
:1014100005460F4690469946A87A1D490E5C05F18F
:101420000B00805D11F800B00BEBC60000F0FF0A66
:10143000184850F82A4000202834E0602760207CBB
:1014400020EA0800207484F81190207C283C00F0E9
:10145000080068B994F83E000F49097808430E491E
:1014600008700E48805D94F83D1008430B4988557C
:101470002946204600F014F8206A30B12046216A3F
:1014800000F025F80020206265625046BDE8F08F2C
:10149000D421000888100020390000203A000020E4
:1014A00010B590F83C2001F10B039B5C90F83D4097
:1014B000A34301F10B04A35423469B5C23B98B7A0D
:1014C00090F83E40A3438B720023C36110BDF0B57A
:1014D000024612F83C4F957856783C3A0B4618680D
:1014E0000FE000F10B073F5DB74300F10B0C0CF868
:1014F000047067463F5D17B9877AAF4387721B1D3B
:1015000018680028EDD1F0BD10B51B4A1268D061F3
:10151000194A126892F83C3000F10B02D25C164B6B
:101520001B6893F83D301A43134B1B6893F83C40FB
:1015300000F10B031A55827A0F4B1B6893F83E306B
:101540001A4382720C4A126892F83C100B4A525CA1
:10155000094B1B6893F83D309A43084B5A541A467E
:10156000525C42B9044A126892F83E30044A12783A
:101570009A43034B1A7010BD480000203A00002027
:1015800039000020014600228A72002005E0002375
:1015900001F10B021354421CD0B20828F7D3704754
:1015A0002DE9F0415021114800F048F900250DE0E7
:1015B000681C86B20D4800EB051400EB06170020EE
:1015C000207067600AA0E060681C85B2042DEFD32C
:1015D000064800EB051400202070606004A0E06065
:1015E000024804490860BDE8F0810000380C002082
:1015F0003F0000002400002030B501464A6808681A
:101600002AB9CC68606028B10025456002E010600E
:1016100000B142608B680025DD6230BD70B5F021FD
:10162000134800F00BF9002411E0601C85B204EBB4
:1016300044000F4901EBC00305EB450001EBC00678
:10164000002018705E600BA05861601C84B2092CE9
:10165000EBD304EB4400064901EBC00300201870F3
:10166000586004A0586108460349086070BD000036
:10167000480B00203F0000002000002000200B4904
:1016800008600B4908700B4908700B4908700B493A
:1016900008700B4908600B4908600B4908600B494A
:1016A00008600B4908700B490870704768000020FB
:1016B00035000020360000204300002042000020BA
:1016C0001C00002044000020300000202C000020DE
:1016D000340000206400002000210A4A117000201C
:1016E00004E00021084A1154411CC8B20828F8D36C
:1016F0000021064A1170064A1170064A1160064A16
:1017000011607047390000203A00002037000020A7
:1017100038000020500000204800002070B54FF431
:10172000FD61194800F08AF84FF48071174800F005
:1017300085F8002413E0601CC5B2C4EBC40000EBC4
:101740000410114901EB8003C5EBC50000EB051047
:1017500001EB80065E610EA05865601CC4B2152CBA
:10176000E9D3C4EBC40000EB0410074901EB80038C
:101770000020586106A0586500200649086002480C
:101780000549086070BD0000881100208810002005
:101790003F000000540000204C00002000B587B03E
:1017A0000320002180220A4BCDE90132CDE903104C
:1017B0004FF6FF703F23074A00900748FFF71EF9D6
:1017C00006AA06A13F20FFF75BFA07B000BD0000A4
:1017D000880E0020841000200D1B000875432F4F39
:1017E000532D49492049646C6500000000B587B05D
:1017F0000320002180220A4BCDE90132CDE90310FC
:101800004FF6FE703E23074A00900748FFF7F6F8B0
:1018100006AA06A13E20FFF733FA07B000BD00007C
:10182000880C0020840E0020551B000875432F4FA4
:10183000532D4949205374617400000004E00022D4
:1018400000F8012B4A1E91B20029F8D17047000020
:1018500070B578211148FFF7F1FF00240EE004EB8A
:1018600044000E4901EBC005601C00EB400001EB99
:10187000C00068600AA06861601C84B2042CEED3CA
:1018800004EB4400054901EBC0050020686004A09A
:10189000686108460349086070BD000070190020A7
:1018A0003F0000005C0000202DE9F041602110485D
:1018B000FFF7C4FF00240DE0601C86B204EB440077
:1018C0000B4901EBC00506EB460001EBC0072F609A
:1018D000601C84B2032CEFD304EB4400044901EBF9
:1018E000C00500202860084602490860BDE8F08174
:1018F000E81900206000002010B5002400BF10206F
:10190000FEF780FC044600BF14480078F8B914487C
:101910000078E0B900F030F812481349097850F81F
:10192000210012490860104800781149097888425E
:101930000DD00E480068006C401C0C490968086412
:101940000C480068401C0B490860FEF79EFC00BF75
:101950002046FEF765FC00BF10BD000035000020EA
:1019600036000020881000203800002050000020A1
:10197000370000201C0000200649074A1278885CC6
:101980000649095C034A515C01EBC001044A11702D
:1019900070470000D4210008390000203A000020E0
:1019A000380000202DE9F84F05460F46904699462D
:1019B000DDE90AAB0020009000BF1020FEF722FCFA
:1019C000009000BF4A480468002C7DD048496069F7
:1019D000086000BF0098FEF723FC00BF203444F8E5
:1019E000207CA576002020766076606144F81CBCDF
:1019F00044F814AC44F8188C0C9824F8100C24F813
:101A00000E9C0020E077E810207705F00700E076D4
:101A1000217F01208840A077E17E01208840607707
:101A2000002044F8040C20606060E060A060206248
:101A3000A0626062E06220632EA06063203C00260A
:101A400006E0002104F1580040F82610701CC6B2D0
:101A5000002EF6D02046FEF7CBFF00BF1020FEF789
:101A6000D1FB009000BF244840F8254000BF0098FB
:101A7000FEF7D6FB00BF2046FFF72EF800BF102070
:101A8000FEF7C0FB009000BF1C48006860610020AA
:101A9000A0611A48006810B11848006884611748AE
:101AA00004603C34A078164909780843144908704A
:101AB00020781449085C6178084314F83C19114AED
:101AC00050541148007800E00AE0401C0E490870AC
:101AD00000BF0098FEF7A4FB00BF0020BDE8F88F10
:101AE00000BF0098FEF79CFB00BF4220F6E7000015
:101AF0004C0000203F00000088100020540000200F
:101B0000390000203A00002043000020002400BFDC
:101B100000BF1020FEF776FB044600BF06480068B1
:101B2000401C0549086000BF2046FEF779FB00BF56
:101B3000FFF7A2F8ECE700004400002010B50448CD
:101B40000068FFF7E9F8FF20FEF7CCFF10BD0000AA
:101B500048000020002500BF02E0C820FFF702FA7D
:101B6000334800780028F8D0324800686421B0FB80
:101B7000F1F0304908600846006828B900202E4975
:101B80000870FF20FFF782F900BF1020FEF73AFB34
:101B9000054600BF2748006864214843274908607C
:101BA00000BF2846FEF73CFB00BF00BF0120FFF747
:101BB000D9F900BF1020FEF725FB054600BF002025
:101BC0001E49086000BF2846FEF72AFB00BF6420BC
:101BD000FFF7C8F900BF1020FEF714FB054600BF51
:101BE000164800681649086000BF2846FEF718FB33
:101BF00000BF134800680F490968B0FBF1F040B21C
:101C0000C0F1640044B2002C02DB0B490C7009E007
:101C10000020094908700A4800686421B0FBF1F00F
:101C200004490860FFF77EF800F00CF8BEE70000FA
:101C3000340000202C000020280000204400002058
:101C4000300000207CB5002514E069462846FFF7E7
:101C50006DF8064666B9094850F8254044B1012C94
:101C600006D0D4E9020100EB8100E0640198206510
:101C7000681CC5B23F2DE8D97CBD0000881000204B
:101C800002F0010343B102F002032BB102E0491E4E
:101C9000002308C00029FAD17047000010B503489E
:101CA0000078012801D1FFF77FFB10BD4200002022
:101CB00010B5FEF799FC1E48006800F0200010B334
:101CC0001B48001D0068C4B21A48008800F4004098
:101CD000C8B91848008800F4804060B10A2C03D0CD
:101CE00000201449088020E01248008840F4004099
:101CF0001049088019E00D2C06D10E48008840F4E8
:101D000080400C49088010E00A480088C0F30D00AC
:101D100009490C5407480088401C064908800846B9
:101D20000088C72801DD00200880FEF76FFC10BD89
:101D3000003801400C0000208006002000BF7047E2
:101D40004FF0E022126942F004024FF0E0231A61E2
:101D50000D4A10601A46126942F001021A616FF0D2
:101D600070425A6101464FF47A7251430122074B87
:101D70001A804FF0E022126942F002024FF0E02395
:101D80001A611A46516170470000002004000020CB
:101D900010E000222021084800F004F95020FFF74D
:101DA000E1F801222021044800F0FCF84FF46670AD
:101DB000FFF7D8F8EDE70000000C014011E0002229
:101DC0002021084800F0EEF84FF49670FFF7CAF8AB
:101DD00001222021034800F0E5F84FF49670FFF748
:101DE000C1F8ECE7001801401CB500BF1548806938
:101DF00040F008001349886100BF00BF08468069B1
:101E000040F04000886100BF01200090002302469E
:101E1000202101900C4800F0D1F80120009000230F
:101E2000024620210190094800F0C8F80122202133
:101E3000054800F0B7F801222021044800F0B2F86C
:101E40001CBD000000100240000C014000180140C1
:101E500010B5092000F030F94820FFF771FFFFF7B7
:101E6000C3FF00F061F9002010BD000070B586B01E
:101E700006460024FEF78CFD184D2846FFF7A8FA09
:101E800000BF1020FEF7BEF9044600BF0720002166
:101E90008022134BCDE90310CDE9013200900346B7
:101EA000104A1148FEF7AAFD0720002180220F4B9F
:101EB000CDE90132CDE90310062003460C4A00901B
:101EC0000C48FEF79BFD00BF2046FEF7A9F900BFB6
:101ED0000A20FEF7DBFF06B070BD000040190100CC
:101EE000800200207C040020911D00088004002056
:101EF0007C060020BD1D000810B502460021002010
:101F0000264B1B6843F48033244C23600AE000BF57
:101F1000224B1B6803F400331BB1B1F5004F00D90D
:101F200004E0491C4FF6F0739942F0D300BF4FF61E
:101F3000F073994201D301202FE04FF48063174CD6
:101F40006360921E23465B6843EA824363602346D4
:101F50005B6843F4803363601023114C2360234695
:101F60001B6843F0020323600C4B1B6843F0807333
:101F70000A4C236000BF094B1B685B0E002BFAD094
:101F8000064B5B6843F00203044C636000BF034BE5
:101F90005B68C3F38103022BF9D110BD001002402E
:101FA0000020024002F001031BB103690B430361EF
:101FB00003E0036943EA0143036170472DE9F04FF1
:101FC0000E461D46DDE909C400210027884600238E
:101FD00000BF64E04FF0010909FA01F706EA0708BB
:101FE000B8455BD10023012A01D0022A0AD10CF0A6
:101FF000030305F0010943EA8903A2F1010943EA59
:10200000C90318E0BAB90CB9042314E00823D0F8C6
:102010000C904FF0010A0AFA01FA29EA0A09C0F8FD
:102020000C90D0F80CA004F0010909FA01F94AEA71
:10203000090AC0F80CA0072916D8D0F800904FEA7A
:10204000810B4FF00F0A0AFA0BFA29EA0A09C0F8C5
:102050000090D0F800904FEA810A03FA0AFA49EAA0
:102060000A09C0F8009019E0D0F80490A1F1080A1C
:102070004FEA8A0B4FF00F0A0AFA0BFA29EA0A090B
:10208000C0F80490D0F80490A1F1080A4FEA8A0A37
:1020900003FA0AFA49EA0A09C0F80490491C10290F
:1020A00098D3BDE8F08F00004A0A52020243014B68
:1020B0001A60704708ED00E010B50446002017498B
:1020C0000861C8601420486100208861C861084622
:1020D000006840F001000860084640681049084068
:1020E0000E494860084600680E4908400B490860E0
:1020F0000846006820F4802008600846406820F404
:10210000FE0048604FF41F0088602046FFF7F4FE91
:1021100000214FF00060FFF7C7FF10BD0010024024
:102120000000FFF8FFFFF6FE86B0FEF71DFA07205D
:1021300000218022074BCDE90132CDE903100A20AE
:102140000346054A00900548FEF758FCFEF7FCFBE5
:1021500000BFFEE7800000207C0200206D1E00080A
:10216000010000007856341201000A000100180036
:10217000F000010001001000140002000500010041
:102180003F00010001000500010018007800010077
:102190000400010004001800080001000400010010
:1021A0000100010080000100160001000100800014
:1021B00001000100010040005C00E80301007472AE
:1021C00001001000010007006400280080020800E0
:1021D0003800121400000100020001000300010099
:1021E00002000100040001000200010003000100E0
:1021F00002000100050001000200010003000100CF
:1022000002000100040001000200010003000100BF
:1022100002000100060001000200010003000100AD
:10222000020001000400010002000100030001009F
:10223000020001000500010002000100030001008E
:10224000020001000400010002000100030001007F
:10225000020001000700010002000100030001006C
:10226000020001000400010002000100030001005F
:10227000020001000500010002000100030001004E
:10228000020001000400010002000100030001003F
:10229000020001000600010002000100030001002D
:1022A000020001000400010002000100030001001F
:1022B000020001000500010002000100030001000E
:1022C00002000100040001000200010003000100FF
:1022D00002000100F422000800000020800000003D
:1022E0006C0100087423000880000020E024000036
:1022F000880100080000000000000000000000004D
:1023000000000000000000000000000000000000CD
:1023100000000000000000000000000000000000BD
:1023200000000000000000000000000000000000AD
:10233000000000000000000000000000000000009D
:10234000000000000000000000000000000000008D
:10235000000000000000000000000000000000007D
:10236000000000000000000000000000000000006D
:042370000000000069
:0400000508000131BD
:00000001FF
