:020000040800F2
:1000000038070020CD010008D1010008D301000805
:10001000D5010008D7010008D90100080000000040
:10002000000000000000000000000000DB010008EC
:10003000DD01000800000000DF010008E101000808
:10004000E3010008E3010008E3010008E301000800
:10005000E3010008E3010008E3010008E3010008F0
:10006000E3010008E3010008E3010008E3010008E0
:10007000E3010008E3010008E3010008E3010008D0
:10008000E3010008E3010008E3010008E3010008C0
:10009000E3010008E3010008E3010008E3010008B0
:1000A000E3010008E3010008E3010008E3010008A0
:1000B000E3010008E3010008E3010008E301000890
:1000C000E3010008E3010008E3010008E301000880
:1000D000E301000875020008E3010008E3010008DD
:1000E000E3010008E3010008E3010008E301000860
:1000F000E3010008E3010008E3010008E301000850
:10010000E3010008E3010008E3010008E30100083F
:10011000E3010008E3010008E3010008E30100082F
:10012000E3010008E3010008E3010008E30100081F
:1001300000F002F800F03AF80AA090E8000C8244BF
:100140008344AAF10107DA4501D100F02FF8AFF29C
:10015000090EBAE80F0013F0010F18BFFB1A43F0A5
:10016000010318471407000034070000103A24BFA9
:1001700078C878C1FAD8520724BF30C830C144BF0C
:1001800004680C607047000000230024002500264E
:10019000103A28BF78C1FBD8520728BF30C148BFEA
:1001A0000B6070471FB51FBD10B510BD00F02FF8D4
:1001B0001146FFF7F7FF00F0E3F900F04DF803B444
:1001C000FFF7F2FF03BC00F097F800000848004773
:1001D000FEE7FEE7FEE7FEE7FEE7FEE7FEE7FEE7F7
:1001E000FEE7FEE703480449044A054B7047000058
:1001F00031010008380100203807002038030020B2
:100200003803002070477047704770477047754645
:1002100000F02CF8AE4605006946534620F0070072
:10022000854618B020B5FFF7DDFFBDE820404FF050
:1002300000064FF000074FF000084FF0000B21F0D0
:100240000701AC46ACE8C009ACE8C009ACE8C0099D
:10025000ACE8C0098D46704710B50446AFF3008086
:100260002046BDE81040FFF7AABF000000487047D5
:10027000D40000201D49096801F0200111B31B4979
:10028000091D0968C8B21A49098801F40041C9B9B1
:100290001749098801F4804161B10A2803D000217F
:1002A000134A118020E01249098841F40041104AA4
:1002B000118019E00D2806D10D49098841F48041CB
:1002C0000B4A118010E00A490988C1F30D01094A5F
:1002D000505407490988491C054A1180114609886C
:1002E000C72901DD0021118070470000003801405E
:1002F000080000200C00002000BF70471CB500BFA4
:100300000B48806940F008000949886100BF01205E
:1003100000900023024601020190064800F0F6F921
:1003200000224FF48071034800F0E4F91CBD000086
:1003300000100240000C01404FF0E021096941F03B
:1003400004014FF0E0221161054908601146096976
:1003500041F0010111616FF070415161704700007F
:100360000000002010B504464FF47A7104FB01F040
:1003700000F002F810BD000070B5034600224FF0F7
:10038000E02675690D4E366803FB06F44FF0E02653
:10039000B16910E04FF0E026B06988420BD0884286
:1003A00002D20E1A324402E02E1A0E4432440146A2
:1003B000A24200D300E0EDE700BF70BD00000020C6
:1003C0001CB500BF2048806940F040001E4988618C
:1003D00000BF00BF0846806940F04000886100BF50
:1003E00000BF0846806940F04000886100BF00BF40
:1003F0000846806940F00400886100BF0120009039
:1004000000231A4610210190104800F07FF90120C6
:10041000009000231A46082101900C4800F076F95C
:100420000120009000231A4604210190074800F0A3
:100430006DF90220012100231A46CDE9001004487D
:1004400000F064F91CBD00000010024000180140DB
:100450000008014070B50446002514B101202B4965
:1004600008702A480078002834D01021284800F06D
:1004700039F978B10821264800F034F950B1042147
:10048000234800F02FF928B10121224800F02AF971
:1004900001281FD10A20FFF765FF00201B490870C3
:1004A00010211B4800F01EF900B901250821184849
:1004B00000F018F900B902250421154800F012F9DE
:1004C00000B903250121134800F00CF901281BD1C4
:1004D000042519E010210E4800F004F9012813D179
:1004E00008210B4800F0FEF801280DD1042108482E
:1004F00000F0F8F8012807D10121064800F0F2F8D1
:1005000010B9012001490870284670BD0A0000207A
:1005100000180140000801401CB500BF1548806963
:1005200040F008001349886100BF00BF0846806999
:1005300040F04000886100BF012000900023024687
:10054000202101900C4800F0E1F8012000900023E8
:10055000024620210190094800F0D8F8012220210C
:10056000054800F0C7F801222021044800F0C2F835
:100570001CBD000000100240000C014000180140AA
:10058000092000F041F94820FFF7D6FEFFF7C4FF2D
:10059000FFF7B4FEFFF714FF00222021244800F0EB
:1005A000A9F843E00020FFF755FF0446D4B3012C1F
:1005B00024D0022C19D0032C0CD0042C31D100BF34
:1005C0001B480C30006880F4807019490C310860B9
:1005D00000BF26E000BF16480C30006880F0200005
:1005E00013490C31086000BF1BE000BF11480068D0
:1005F00080F020000F49086000BF12E000BF0C48E7
:100600000C30006880F0200009490C31086000BF00
:1006100000BF0848006880F020000649086000BF5D
:1006200000BF03E0FFE70A20FFF79CFEBAE70000E7
:10063000000C01400C18014010B5024600210020BA
:10064000264B1B6843F48033244C23600AE000BF30
:10065000224B1B6803F400331BB1B1F5004F00D9E6
:1006600004E0491C4FF6F0739942F0D300BF4FF6F7
:10067000F073994201D301202FE04FF48063174CAF
:100680006360921E23465B6843EA824363602346AD
:100690005B6843F4803363601023114C236023466E
:1006A0001B6843F0020323600C4B1B6843F080730C
:1006B0000A4C236000BF094B1B685B0E002BFAD06D
:1006C000064B5B6843F00203044C636000BF034BBE
:1006D0005B68C3F38103022BF9D110BD0010024007
:1006E0000020024002469068084008B1012070478F
:1006F0000020FCE702F001031BB103690B43036117
:1007000003E0036943EA0143036170472DE9F04FB9
:100710000E461D46DDE909C4002100278846002356
:1007200000BF64E04FF0010909FA01F706EA070883
:10073000B8455BD10023012A01D0022A0AD10CF06E
:10074000030305F0010943EA8903A2F1010943EA21
:10075000C90318E0BAB90CB9042314E00823D0F88F
:100760000C904FF0010A0AFA01FA29EA0A09C0F8C6
:100770000C90D0F80CA004F0010909FA01F94AEA3A
:10078000090AC0F80CA0072916D8D0F800904FEA43
:10079000810B4FF00F0A0AFA0BFA29EA0A09C0F88E
:1007A0000090D0F800904FEA810A03FA0AFA49EA69
:1007B0000A09C0F8009019E0D0F80490A1F1080AE5
:1007C0004FEA8A0B4FF00F0A0AFA0BFA29EA0A09D4
:1007D000C0F80490D0F80490A1F1080A4FEA8A0A00
:1007E00003FA0AFA49EA0A09C0F80490491C1029D8
:1007F00098D3BDE8F08F00004A0A52020243014B31
:100800001A60704708ED00E010B504460020174953
:100810000861C8601420486100208861C8610846EA
:10082000006840F001000860084640681049084030
:100830000E494860084600680E4908400B490860A8
:100840000846006820F4802008600846406820F4CC
:10085000FE0048604FF41F0088602046FFF7ECFE62
:1008600000214FF00060FFF7C7FF10BD00100240ED
:100870000000FFF8FFFFF6FE9808000800000020C7
:100880000C0000006C010008A40800080C00002007
:100890002C07000088010008000000000000000094
:0408A0000000010053
:0400000508000131BD
:00000001FF
