:020000040800F2
:10000000C01E0020D5010008D9010008DB0100084E
:10001000DD010008DF010008E10100080000000028
:10002000000000000000000000000000E3010008E4
:10003000E501000800000000E7010008E9010008F0
:10004000EB010008EB010008EB010008EB010008E0
:10005000EB010008EB010008EB010008EB010008D0
:10006000EB010008EB010008EB010008EB010008C0
:10007000EB010008EB010008EB010008EB010008B0
:10008000EB010008EB010008EB010008EB010008A0
:10009000EB010008EB010008EB010008EB01000890
:1000A000EB010008EB010008EB010008EB01000880
:1000B000EB010008EB010008EB010008EB01000870
:1000C000EB010008EB010008EB010008EB01000860
:1000D000EB01000865040008EB010008EB010008D3
:1000E000EB010008EB010008EB010008EB01000840
:1000F000EB010008EB010008EB010008EB01000830
:10010000EB010008EB010008EB010008EB0100081F
:10011000EB010008EB010008EB010008EB0100080F
:10012000EB010008EB010008EB010008EB010008FF
:1001300000F002F800F03FF80AA090E8000C8244BA
:100140008344AAF10107DA4501D100F034F8AFF297
:10015000090EBAE80F0013F0010F18BFFB1A43F0A5
:1001600001031847B8790000D8790000103A24BF7D
:1001700078C878C1FAD8520724BF30C830C144BF0C
:1001800004680C607047000000230024002500264E
:10019000103A28BF78C1FBD8520728BF30C148BFEA
:1001A0000B607047782900F07380002070471FB5FE
:1001B0001FBD10B510BD00F023F91146FFF7F7FF82
:1001C00003F0D8FD00F041F903B4FFF7F2FF03BCE0
:1001D00000F08AF908480047FEE7FEE7FEE7FEE781
:1001E000FEE7FEE7FEE7FEE7FEE7FEE70348044919
:1001F000044A054B7047000031010008C018002078
:10020000C01E0020C01A0020C01A00207047000045
:100210000FB4044910B503AA029800F0C3F810BC4B
:100220005DF814FB040000202DE9F0410E46044661
:10023000002020622046E168884730B3252805D099
:10024000D4E901219047206A401CF2E7E16820468A
:1002500000278847050018D0A5F14100192802D8C9
:1002600020354FF400673246294620462760FFF7C5
:1002700099FF40B1012804D0F61D26F00706083684
:10028000D8E7361DD6E72846DAE7206ABDE8F081D0
:1002900070B504460D4621461068AFF300802188F2
:1002A000090502D50F4A7A4402E00E4A7A440E321A
:1002B000002104F1240305E000F00F060009965D1B
:1002C0005E54491C0028F7D120780023000704D58C
:1002D000702D02D009B1022311322046BDE87040D2
:1002E00000F006B8487800007047704770477047C4
:1002F0002DE9F0470D4699469246044600F1240840
:100300000168880604D5E06921F01001216000E051
:100310000120A84201DD471B00E00027A1697A19EE
:1003200002EB0900081AA0612078C00602D420461A
:10033000AFF30080002608E0D4E901211AF8060096
:100340009047206A401C761C20624E45F4DB2078E2
:10035000C0060AD52046AFF3008006E0D4E90121AB
:1003600030209047206A401C2062381EA7F1010708
:10037000F4DC07E0D4E9012118F805009047206A71
:10038000401C2062281EA5F10105F3DC2046AFF3D6
:1003900000802078000602D50220BDE8F087012009
:1003A000FBE70000074B70B50D467B4400F011F8E9
:1003B0000446284600F020F810B14FF0FF3070BD21
:1003C000204670BD7302000001694A1C0261087872
:1003D000704700B58FB0CDE9013100210591054985
:1003E0007944CDE9031011466846FFF71DFF0FB0B1
:1003F00000BD0000E5FFFFFF007B00F080007047BC
:10040000754600F02BF8AE4605006946534620F0CD
:100410000700854618B020B5FFF7E8FEBDE820408C
:100420004FF000064FF000074FF000084FF0000BB0
:1004300021F00701AC46ACE8C009ACE8C009ACE863
:10044000C009ACE8C0098D46704710B50446AFF34B
:1004500000802046BDE81040FFF7B6BE0048704758
:10046000601800201D49096801F0200111B31B49E3
:10047000091D0968C8B21A49098801F40041C9B9BF
:100480001749098801F4804161B10A2803D000218D
:10049000134A118020E01249098841F40041104AB2
:1004A000118019E00D2806D10D49098841F48041D9
:1004B0000B4A118010E00A490988C1F30D01094A6D
:1004C000505407490988491C054A1180114609887A
:1004D000C72901DD0021118070470000003801406C
:1004E000080000208817002000BF70474FF0E0216F
:1004F000096941F004014FF0E022116105490860EB
:100500001146096941F0010111616FF070415161BB
:10051000704700000000002010B504464FF47A71C7
:1005200004FB01F000F002F810BD000070B50346B6
:1005300000224FF0E02675690D4E366803FB06F485
:100540004FF0E026B16910E04FF0E026B069884234
:100550000BD0884202D20E1A324402E02E1A0E4408
:1005600032440146A24200D300E0EDE700BF70BD77
:100570000000002070B504460E4615460B48844224
:1005800006D90B48406940F002000949486105E07E
:100590000748406940F00100054948610520FFF720
:1005A000BBFFA660E5600020606070BD8000024077
:1005B00000100240026822F00102026000BF0268DF
:1005C00002F00102002AFAD14160026842F0010201
:1005D0000260704770B505460F4C2A460F49204609
:1005E000FFF7C8FF00202060206840F01000206066
:1005F0002068206020682060206840F08000206033
:100600002068206020682060206840F480502060CE
:100610002068206070BD00004400024004380140A2
:1006200000BF054A126802F04002002AF9D0C2B2A7
:10063000014B1B1D1A607047003801401CB500BFFC
:100640002048806940F040001E49886100BF00BF1B
:100650000846806940F04000886100BF00BF08463E
:10066000806940F04000886100BF00BF0846806993
:1006700040F00400886100BF0120009000231A466A
:1006800010210190104803F01DFD0120009000236F
:100690001A46082101900C4803F014FD0120009037
:1006A00000231A4604210190074803F00BFD0220A5
:1006B000012100231A46CDE90010044803F002FD91
:1006C0001CBD00000010024000180140000801405D
:1006D00070B50446002514B101202B4908702A4842
:1006E0000078002834D01021284803F0D7FC78B1D6
:1006F0000821264803F0D2FC50B10421234803F01E
:10070000CDFC28B10121224803F0C8FC01281FD1EB
:100710000A20FFF701FF00201B49087010211B4829
:1007200003F0BCFC00B901250821184803F0B6FC11
:1007300000B902250421154803F0B0FC00B90325D7
:100740000121134803F0AAFC01281BD1042519E05C
:1007500010210E4803F0A2FC012813D108210B48F8
:1007600003F09CFC01280DD10421084803F096FCFD
:10077000012807D10121064803F090FC10B901209F
:1007800001490870284670BD14000020001801407F
:100790000008014070B504460026094805884088D5
:1007A00045430021084603F0ABF803F09DFA00BF73
:1007B00002E004480480761CAE42FAD370BD00000B
:1007C000501800200008006C10B504465848847189
:1007D000002C58D1F020564908804FF4A070488072
:1007E0000846808845F21051884210D14FF43050AD
:1007F0004F4908814FF4285048814FF42C5088818C
:100800004FF4F07008804FF4487048801AE0484870
:10081000808841F6631188420DD12C20444908811B
:100820002B2048812A2088814FF4F07008804FF4F3
:100830004870488006E02C203D4908812A204881E4
:100840002B2088813A48808845F21031884205D0B3
:100850003748808847F29671884206D14FF4A070DD
:10086000334908804FF4F07048803148808849F659
:100870000601884258D14FF4F0702D4908804FF49A
:100880004870488050E04FF4A07029490880F0205B
:1008900048800846808845F21051884210D14FF4B4
:1008A0003050234908814FF4285048814FF42C5090
:1008B00088814FF4487008804FF4F070488020E041
:1008C0001B48808841F66311884205D0184880880B
:1008D00049F6060188420DD12C20154908812A20AD
:1008E00048812B2088814FF4487008804FF4F070C5
:1008F000488006E02C200E4908812A2048812B20C0
:1009000088810B48808845F21031884205D008481C
:10091000808847F29671884206D14FF4F0700449FE
:1009200008804FF4A0704880002002F0CBFE10BD7C
:100930005018002070B505460E461446314628462C
:1009400002F0DEFF03F0D0F901490C8070BD000019
:100950000008006C10B5CF2003F0BAF9002003F0B6
:10096000ABF9C12003F0A8F9302003F0A5F9ED2080
:1009700003F0AEF9642003F09FF9032003F09CF923
:10098000122003F099F9812003F096F9E82003F092
:100990009FF9852003F090F9102003F08DF97A205B
:1009A00003F08AF9CB2003F093F9392003F084F99E
:1009B0002C2003F081F9002003F07EF9342003F0AD
:1009C0007BF9022003F078F9F72003F081F9202069
:1009D00003F072F9EA2003F07BF9002003F06CF9D0
:1009E000002003F069F9C02003F072F91B2003F026
:1009F00063F9C12003F06CF9012003F05DF9C52013
:100A000003F066F9302003F057F9302003F054F971
:100A1000C72003F05DF9B72003F04EF9362003F04C
:100A200057F9482003F048F93A2003F051F95520CE
:100A300003F042F9B12003F04BF9002003F03CF938
:100A40001A2003F039F9B62003F042F90A2003F026
:100A500033F9A22003F030F9F22003F039F9002035
:100A600003F02AF9262003F033F9012003F024F9DA
:100A7000E02003F02DF90F2003F01EF92A2003F0E7
:100A80001BF9282003F018F9082003F015F90E20AF
:100A900003F012F9082003F00FF9542003F00CF9C9
:100AA000A92003F009F9432003F006F90A2003F016
:100AB00003F90F2003F000F9002003F0FDF80020F7
:100AC00003F0FAF8002003F0F7F8002003F0F4F840
:100AD000E12003F0FDF8002003F0EEF8152003F00C
:100AE000EBF8172003F0E8F8072003F0E5F81120F1
:100AF00003F0E2F8062003F0DFF82B2003F0DCF827
:100B0000562003F0D9F83C2003F0D6F8052003F076
:100B1000D3F8102003F0D0F80F2003F0CDF83F20D9
:100B200003F0CAF83F2003F0C7F80F2003F0C4F821
:100B30002B2003F0CDF8002003F0BEF8002003F0D6
:100B4000BBF8012003F0B8F83F2003F0B5F82A20E5
:100B500003F0BEF8002003F0AFF8002003F0ACF87B
:100B6000002003F0A9F8EF2003F0A6F8112003F00D
:100B7000AFF87820FFF7D0FC292003F0A9F810BDCA
:100B800010B5FF2003F0A4F8FF2003F095F898209B
:100B900003F092F8062003F08FF8BC2003F098F8D9
:100BA000012003F089F80F2003F086F8612003F09C
:100BB00083F8FF2003F080F8012003F07DF8012086
:100BC00003F07AF80B2003F077F8102003F074F8A4
:100BD000372003F071F8632003F06EF8FF2003F074
:100BE0006BF8FF2003F068F8012003F065F801209E
:100BF00003F062F8002003F05FF8002003F05CF8D7
:100C0000FF2003F059F8522003F056F8012003F0BA
:100C100053F8002003F050F8402003F04DF8BD20B9
:100C200003F056F8012003F047F8232003F044F8BE
:100C3000452003F041F8672003F03EF8012003F05F
:100C40003BF8232003F038F8452003F035F86720FF
:100C500003F032F8BE2003F03BF8002003F02CF83C
:100C6000012003F029F8AB2003F026F8602003F000
:100C700023F8222003F020F8222003F01DF8222080
:100C800003F01AF8222003F017F8222003F014F8DA
:100C9000C72003F01DF8362003F00EF8ED2003F016
:100CA00017F87F2003F008F80F2003F005F8C020A4
:100CB00003F00EF80F2002F0FFFF0B2002F0FCFF04
:100CC0000A2002F0F9FFFC2003F002F8082002F0ED
:100CD000F3FFDF2002F0FCFF002002F0EDFF002018
:100CE00002F0EAFF002002F0E7FF002002F0E4FF3C
:100CF000002002F0E1FF202002F0DEFFF32002F0EE
:100D0000E7FF742002F0D8FFB42002F0E1FF0020DA
:100D100002F0D2FF002002F0CFFF002002F0CCFF53
:100D2000F72002F0D5FF822002F0C6FFB12002F0CA
:100D3000CFFF002002F0C0FF132002F0BDFF132000
:100D400002F0BAFFF22002F0C3FF802002F0B4FFED
:100D5000042002F0B1FF402002F0AEFF282002F094
:100D6000ABFFC12002F0B4FF172002F0A5FF8820DE
:100D700002F0A2FF882002F09FFF202002F09CFFDB
:100D8000E02002F0A5FF002002F096FF0A2002F00A
:100D900093FF122002F090FF102002F08DFF0E2032
:100DA00002F08AFF202002F087FFCC2002F084FFAF
:100DB000072002F081FF062002F07EFF0B2002F0E8
:100DC0007BFF0E2002F078FF0F2002F075FF0D2050
:100DD00002F072FF152002F06FFF102002F06CFF8E
:100DE000002002F069FFE12002F072FF002002F013
:100DF00063FF0B2002F060FF132002F05DFF0D2067
:100E000002F05AFF0E2002F057FF1B2002F054FFA1
:100E1000712002F051FF062002F04EFF062002F082
:100E20004BFF0A2002F048FF0F2002F045FF0E2082
:100E300002F042FF0F2002F03FFF152002F03CFFBE
:100E40000C2002F039FF002002F036FF2A2002F0C9
:100E50003FFF002002F030FF002002F02DFF0120B4
:100E600002F02AFFDF2002F027FF2B2002F030FFE4
:100E7000002002F021FF002002F01EFF032002F0FC
:100E80001BFF1F2002F018FF3A2002F021FF55201F
:100E900002F012FF362002F01BFF002002F00CFFD0
:100EA000112002F015FF7820FFF736FB292002F011
:100EB0000FFF1420FFF730FB2C2002F009FF10BDBC
:100EC00010B5ED2002F004FF012002F0F5FEFE2037
:100ED00002F0F2FEEE2002F0FBFEDE2002F0ECFE5D
:100EE000212002F0E9FEF12002F0F2FE012002F0E2
:100EF000E3FEDF2002F0ECFE102002F0DDFEC42055
:100F000002F0E6FE8F2002F0D7FEC62002F0E0FEDF
:100F1000002002F0D1FEE22002F0CEFEE22002F03C
:100F2000CBFEE22002F0C8FEBF2002F0D1FEAA20D4
:100F300002F0C2FEB02002F0CBFE0D2002F0BCFE9B
:100F4000002002F0B9FE0D2002F0B6FE002002F0F3
:100F5000B3FE112002F0B0FE002002F0ADFE192019
:100F600002F0AAFE002002F0A7FE212002F0A4FE5B
:100F7000002002F0A1FE2D2002F09EFE002002F0D3
:100F80009BFE3D2002F098FE002002F095FE5D20C1
:100F900002F092FE002002F08FFE5D2002F08CFE37
:100FA000002002F089FEB12002F092FE802002F0C3
:100FB00083FE002002F080FE8B2002F07DFE0020E8
:100FC00002F07AFE962002F077FE002002F074FE16
:100FD000B22002F07DFE002002F06EFE002002F042
:100FE0006BFE022002F068FE002002F065FE032086
:100FF00002F062FE002002F05FFEB32002F068FE05
:10100000002002F059FE002002F056FE002002F0FF
:1010100053FE002002F050FE002002F04DFE0020A2
:1010200002F04AFE002002F047FE002002F044FEDB
:10103000002002F041FE002002F03EFE002002F0FF
:101040003BFE002002F038FE002002F035FE0020BA
:1010500002F032FE002002F02FFE002002F02CFEF3
:10106000002002F029FE002002F026FE002002F0FF
:1010700023FE002002F020FE002002F01DFE0020D2
:1010800002F01AFE002002F017FE002002F014FE0B
:10109000B42002F01DFE8B2002F00EFE002002F0B4
:1010A0000BFE962002F008FE002002F005FEA120B3
:1010B00002F002FE002002F0FFFDB52002F008FE63
:1010C000022002F0F9FD002002F0F6FD032002F0FC
:1010D000F3FD002002F0F0FD042002F0EDFD002001
:1010E00002F0EAFDB62002F0F3FD002002F0E4FD7C
:1010F000002002F0E1FDB72002F0EAFD002002F03E
:10110000DBFD002002F0D8FD3F2002F0D5FD0020DD
:1011100002F0D2FD5E2002F0CFFD002002F0CCFDF7
:10112000642002F0C9FD002002F0C6FD8C2002F010
:10113000C3FD002002F0C0FDAC2002F0BDFD002088
:1011400002F0BAFDDC2002F0B7FD002002F0B4FD91
:10115000702002F0B1FD002002F0AEFD902002F000
:10116000ABFD002002F0A8FDEB2002F0A5FD002061
:1011700002F0A2FDDC2002F09FFD002002F09CFDA9
:10118000B82002F0A5FD002002F096FD002002F03C
:1011900093FD002002F090FD002002F08DFD002064
:1011A00002F08AFD002002F087FD002002F084FD9D
:1011B000002002F081FDBA2002F08AFD242002F016
:1011C0007BFD002002F078FD002002F075FD00207C
:1011D00002F072FDC12002F07BFD202002F06CFDC8
:1011E000002002F069FD542002F066FD002002F0AC
:1011F00063FDFF2002F060FD002002F05DFDC220D3
:1012000002F066FD0A2002F057FD002002F054FDB6
:10121000042002F051FD002002F04EFDC32002F038
:1012200057FD3C2002F048FD002002F045FD3A2029
:1012300002F042FD002002F03FFD392002F03CFDAB
:10124000002002F039FD372002F036FD002002F0C8
:1012500033FD3C2002F030FD002002F02DFD362051
:1012600002F02AFD002002F027FD322002F024FDCA
:10127000002002F021FD2F2002F01EFD002002F0D0
:101280001BFD2C2002F018FD002002F015FD292086
:1012900002F012FD002002F00FFD262002F00CFDEE
:1012A000002002F009FD242002F006FD002002F0DB
:1012B00003FD242002F000FD002002F0FDFC2320AD
:1012C00002F0FAFC002002F0F7FC3C2002F0F4FCF3
:1012D000002002F0F1FC362002F0EEFC002002F0CB
:1012E000EBFC322002F0E8FC002002F0E5FC2F20AD
:1012F00002F0E2FC002002F0DFFC2C2002F0DCFC1B
:10130000002002F0D9FC292002F0D6FC002002F0D7
:10131000D3FC262002F0D0FC002002F0CDFC2420DB
:1013200002F0CAFC002002F0C7FC242002F0C4FC3A
:10133000002002F0C1FC232002F0BEFC002002F0DD
:10134000BBFCC42002F0C4FC622002F0B5FC00200B
:1013500002F0B2FC052002F0AFFC002002F0ACFC71
:10136000842002F0A9FC002002F0A6FCF02002F08C
:10137000A3FC002002F0A0FC182002F09DFC00203D
:1013800002F09AFCA42002F097FC002002F094FCEA
:10139000182002F091FC002002F08EFC502002F098
:1013A0008BFC002002F088FC0C2002F085FC002061
:1013B00002F082FC172002F07FFC002002F07CFC8F
:1013C000952002F079FC002002F076FCF32002F078
:1013D00073FC002002F070FCE62002F06DFC00209F
:1013E00002F06AFCC52002F073FC322002F064FCBB
:1013F000002002F061FC442002F05EFC002002F0BC
:101400005BFC652002F058FC002002F055FC7620C1
:1014100002F052FC002002F04FFC882002F04CFC4D
:10142000002002F049FCC62002F052FC202002F00D
:1014300043FC002002F040FC172002F03DFC00209D
:1014400002F03AFC012002F037FC002002F034FCEC
:10145000C72002F03DFC002002F02EFC002002F02C
:101460002BFC002002F028FC002002F025FCC82004
:1014700002F02EFC002002F01FFC002002F01CFCF9
:10148000002002F019FC002002F016FCC92002F036
:101490001FFC002002F010FC002002F00DFC0020D8
:1014A00002F00AFC002002F007FC002002F004FC1D
:1014B000002002F001FC002002F0FEFB002002F000
:1014C000FBFB002002F0F8FB002002F0F5FB0020FF
:1014D00002F0F2FB002002F0EFFB002002F0ECFB38
:1014E000002002F0E9FB002002F0E6FB002002F001
:1014F000E3FBE02002F0ECFB162002F0DDFB002015
:1015000002F0DAFB1C2002F0D7FB002002F0D4FB33
:10151000212002F0D1FB002002F0CEFB362002F0A9
:10152000CBFB002002F0C8FB462002F0C5FB0020E8
:1015300002F0C2FB522002F0BFFB002002F0BCFB15
:10154000642002F0B9FB002002F0B6FB7A2002F022
:10155000B3FB002002F0B0FB8B2002F0ADFB0020BB
:1015600002F0AAFB992002F0A7FB002002F0A4FBE6
:10157000A82002F0A1FB002002F09EFBB92002F09F
:101580009BFB002002F098FBC42002F095FB00209A
:1015900002F092FBCA2002F08FFB002002F08CFBCD
:1015A000D22002F089FB002002F086FBD92002F055
:1015B00083FB002002F080FBE02002F07DFB002096
:1015C00002F07AFBF32002F077FB002002F074FBBC
:1015D000E12002F07DFB162002F06EFB002002F0FD
:1015E0006BFB1C2002F068FB002002F065FB222050
:1015F00002F062FB002002F05FFB362002F05CFB91
:10160000002002F059FB452002F056FB002002F0BA
:1016100053FB522002F050FB002002F04DFB6420EF
:1016200002F04AFB002002F047FB7A2002F044FB64
:10163000002002F041FB8B2002F03EFB002002F074
:101640003BFB992002F038FB002002F035FBA8207C
:1016500002F032FB002002F02FFBB92002F02CFB3D
:10166000002002F029FBC42002F026FB002002F03B
:1016700023FBCA2002F020FB002002F01DFBD22039
:1016800002F01AFB002002F017FBD82002F014FB36
:10169000002002F011FBE02002F00EFB002002F01F
:1016A0000BFBF32002F008FB002002F005FBE22018
:1016B00002F00EFB052002F0FFFA002002F0FCFA17
:1016C0000B2002F0F9FA002002F0F6FA1B2002F0DB
:1016D000F3FA002002F0F0FA342002F0EDFA0020D4
:1016E00002F0EAFA442002F0E7FA002002F0E4FAFD
:1016F0004F2002F0E1FA002002F0DEFA612002F051
:10170000DBFA002002F0D8FA792002F0D5FA0020A6
:1017100002F0D2FA882002F0CFFA002002F0CCFAD0
:10172000972002F0C9FA002002F0C6FAA62002F0C3
:10173000C3FA002002F0C0FAB72002F0BDFA002080
:1017400002F0BAFAC22002F0B7FA002002F0B4FAAE
:10175000C72002F0B1FA002002F0AEFAD12002F068
:10176000ABFA002002F0A8FAD62002F0A5FA002079
:1017700002F0A2FADD2002F09FFA002002F09CFAAB
:10178000F32002F099FA002002F096FAE32002F02A
:101790009FFA052002F090FA002002F08DFA0A204C
:1017A00002F08AFA002002F087FA1C2002F084FA84
:1017B000002002F081FA332002F07EFA002002F0CD
:1017C0007BFA442002F078FA002002F075FA5020EB
:1017D00002F072FA002002F06FFA622002F06CFA56
:1017E000002002F069FA782002F066FA002002F088
:1017F00063FA882002F060FA002002F05DFA972078
:1018000002F05AFA002002F057FAA62002F054FA29
:10181000002002F051FAB72002F04EFA002002F048
:101820004BFAC22002F048FA002002F045FAC72025
:1018300002F042FA002002F03FFAD12002F03CFA16
:10184000002002F039FAD52002F036FA002002F02A
:1018500033FADD2002F030FA002002F02DFAF320F6
:1018600002F02AFA002002F027FAE42002F030FA0F
:10187000012002F021FA002002F01EFA012002F0FD
:101880001BFA002002F018FA022002F015FA0020DC
:1018900002F012FA2A2002F00FFA002002F00CFAED
:1018A0003C2002F009FA002002F006FA4B2002F078
:1018B00003FA002002F000FA5D2002F0FDF900209A
:1018C00002F0FAF9742002F0F7F9002002F0F4F9BE
:1018D000842002F0F1F9002002F0EEF9932002F0EA
:1018E000EBF9002002F0E8F9A22002F0E5F900206F
:1018F00002F0E2F9B32002F0DFF9002002F0DCF997
:10190000BE2002F0D9F9002002F0D6F9C42002F07E
:10191000D3F9002002F0D0F9CD2002F0CDF900205B
:1019200002F0CAF9D32002F0C7F9002002F0C4F98E
:10193000DD2002F0C1F9002002F0BEF9F32002F030
:10194000BBF9002002F0B8F9E52002F0C1F900204F
:1019500002F0B2F9002002F0AFF9002002F0ACF979
:10196000002002F0A9F9022002F0A6F9002002F0FE
:10197000A3F9292002F0A0F9002002F09DF93C20F3
:1019800002F09AF9002002F097F94B2002F094F946
:10199000002002F091F95D2002F08EF9002002F0A3
:1019A0008BF9742002F088F9002002F085F9842078
:1019B00002F082F9002002F07FF9932002F07CF916
:1019C000002002F079F9A22002F076F9002002F05E
:1019D00073F9B32002F070F9002002F06DF9BE2017
:1019E00002F06AF9002002F067F9C42002F064F9FD
:1019F000002002F061F9CD2002F05EF9002002F033
:101A00005BF9D32002F058F9002002F055F9DC20F0
:101A100002F052F9002002F04FF9F32002F04CF9E5
:101A2000002002F049F9E62002F052F9112002F0FC
:101A300043F9002002F040F9342002F03DF9002083
:101A400002F03AF9562002F037F9002002F034F99A
:101A5000762002F031F9002002F02EF9772002F012
:101A60002BF9002002F028F9662002F025F9002069
:101A700002F022F9882002F01FF9002002F01CF980
:101A8000992002F019F9002002F016F9BB2002F0AB
:101A900013F9002002F010F9992002F00DF900204E
:101AA00002F00AF9662002F007F9002002F004F9BA
:101AB000552002F001F9002002F0FEF8552002F056
:101AC000FBF8002002F0F8F8452002F0F5F80020BD
:101AD00002F0F2F8432002F0EFF8002002F0ECF8F8
:101AE000442002F0E9F8002002F0E6F8E72002F0D6
:101AF000EFF8322002F0E0F8002002F0DDF8552087
:101B000002F0DAF8002002F0D7F8762002F0D4F8DC
:101B1000002002F0D1F8662002F0CEF8002002F09A
:101B2000CBF8672002F0C8F8002002F0C5F8672063
:101B300002F0C2F8002002F0BFF8872002F0BCF8E3
:101B4000002002F0B9F8992002F0B6F8002002F067
:101B5000B3F8BB2002F0B0F8002002F0ADF89920F5
:101B600002F0AAF8002002F0A7F8772002F0A4F80B
:101B7000002002F0A1F8442002F09EF8002002F0BC
:101B80009BF8562002F098F8002002F095F82320E8
:101B900002F092F8002002F08FF8332002F08CF867
:101BA000002002F089F8452002F086F8002002F0BB
:101BB00083F8E82002F08CF8002002F07DF8002085
:101BC00002F07AF8992002F077F8002002F074F819
:101BD000872002F071F8002002F06EF8882002F0F1
:101BE0006BF8002002F068F8772002F065F800201A
:101BF00002F062F8662002F05FF8002002F05CF864
:101C0000882002F059F8002002F056F8AA2002F0CD
:101C100053F8002002F050F8BB2002F04DF80020ED
:101C200002F04AF8992002F047F8002002F044F848
:101C3000662002F041F8002002F03EF8552002F044
:101C40003BF8002002F038F8552002F035F800206B
:101C500002F032F8442002F02FF8002002F02CF8B5
:101C6000442002F029F8002002F026F8552002F066
:101C700023F8002002F020F8E92002F029F8AA2039
:101C800002F01AF8002002F017F8002002F014F811
:101C9000002002F011F8002002F01AF8AA2002F049
:101CA0000BF8CF2002F014F8002002F005F8002015
:101CB00002F002F8002001F0FFFF002001F0FCFF1D
:101CC000002001F0F9FF002001F0F6FF002001F0F4
:101CD000F3FF002001F0F0FF002001F0EDFF0020F5
:101CE00001F0EAFF002001F0E7FF002001F0E4FF2F
:101CF000002001F0E1FF002001F0DEFF002001F0F4
:101D0000DBFF002001F0D8FF002001F0D5FFF0201C
:101D100001F0DEFF002001F0CFFF502001F0CCFFEA
:101D2000002001F0C9FF002001F0C6FF002001F0F3
:101D3000C3FFF32001F0CCFF002001F0BDFFF9202C
:101D400001F0C6FF062001F0B7FF102001F0B4FF3C
:101D5000292001F0B1FF002001F0AEFF3A2001F090
:101D6000B7FF552001F0A8FF112001F0B1FF64205A
:101D7000FEF7D2FB292001F0ABFF352001F0A8FFD0
:101D8000002001F099FF512001F0A2FFFF2001F097
:101D900093FF532001F09CFF2C2001F08DFF552074
:101DA00001F096FF822001F087FF2C2001F090FFC8
:101DB00010BD10B555214FF4704001F09FFFAA21CE
:101DC0004FF2010001F09AFF52214FF2020001F0A0
:101DD00095FF08214FF2030001F090FF01214FF21F
:101DE000040001F08BFF34214FF4364001F086FFF0
:101DF00034214BF2016001F081FF34214BF202608B
:101E000001F07CFF0D214FF4304001F077FF0D21F0
:101E10004BF2010001F072FF0D214BF2020001F0C4
:101E20006DFF24214FF4374001F068FF24214BF26D
:101E3000017001F063FF24214BF2027001F05EFF9C
:101E40000D214FF4314001F059FF0D214BF20110EB
:101E500001F054FF0D214BF2021001F04FFF24213D
:101E60004FF4384001F04AFF24214BF6010001F005
:101E700045FF24214BF6020001F040FF00214FF402
:101E8000324001F03BFF24214FF4394001F036FF8E
:101E900024214BF6011001F031FF24214BF60210F2
:101EA00001F02CFF05214FF4334001F027FF0521FD
:101EB0004BF2013001F022FF05214BF2023001F01C
:101EC0001DFF34214FF43A4001F018FF34214BF646
:101ED000012001F013FF34214BF6022001F00EFF28
:101EE0000B214FF4354001F009FF0B214BF201505B
:101EF00001F004FF0B214BF2025001F0FFFE002124
:101F00004FF43C4001F0FAFEA3214BF6014001F0F2
:101F1000F5FE00214BF6024001F0F0FE00214FF4E7
:101F20003D4001F0EBFEA3214BF6015001F0E6FE2F
:101F300000214BF6025001F0E1FE00214FF43E403B
:101F400001F0DCFE37214BF6016001F0D7FE0021E5
:101F50004FF4514001F0D2FE37214DF2011001F053
:101F6000CDFE00214DF2021001F0C8FE53214DF2CA
:101F7000031001F0C3FE00214DF2041001F0BEFE7B
:101F800079214DF2051001F0B9FE00214DF2061045
:101F900001F0B4FE97214DF2071001F0AFFE0021D1
:101FA0004DF2081001F0AAFEB1214DF2091001F026
:101FB000A5FE00214DF20A1001F0A0FED5214DF240
:101FC0000B1001F09BFE00214DF20C1001F096FE6B
:101FD000F4214DF20D1001F091FE01214DF20E1091
:101FE00001F08CFE23214DF20F1001F087FE01213C
:101FF0004DF2101001F082FE49214DF2111001F056
:102000007DFE01214DF2121001F078FE87214DF284
:10201000131001F073FE01214DF2141001F06EFE59
:10202000B6214DF2151001F069FE02214DF2161095
:1020300001F064FE00214DF2171001F05FFE022155
:102040004DF2181001F05AFE3B214DF2191001F02B
:1020500055FE02214DF21A1001F050FE3D214DF2C5
:102060001B1001F04BFE02214DF21C1001F046FE48
:1020700075214DF21D1001F041FE02214DF21E109E
:1020800001F03CFEB1214DF21F1001F037FE02219C
:102090004DF2201001F032FED5214DF2211001F059
:1020A0002DFE03214DF2221001F028FE09214DF2F0
:1020B000231001F023FE03214DF2241001F01EFE37
:1020C00028214DF2251001F019FE03214DF22610B2
:1020D00001F014FE52214DF2271001F00FFE0321F2
:1020E0004DF2281001F00AFE6B214DF2291001F08B
:1020F00005FE03214DF22A1001F000FE8D214DF264
:102100002B1001F0FBFD03214DF22C1001F0F6FD28
:10211000A2214DF22D1001F0F1FD03214DF22E1000
:1021200001F0ECFDBB214DF22F1001F0E7FD032182
:102130004DF2301001F0E2FDC1214DF2311001F0FD
:10214000DDFD03214DF2321001F0D8FDC1214DF229
:10215000331001F0D3FD00214FF4524001F0CEFDC9
:1021600037214DF2012001F0C9FD00214DF202207E
:1021700001F0C4FD53214DF2032001F0BFFD002109
:102180004DF2042001F0BAFD79214DF2052001F055
:10219000B5FD00214DF2062001F0B0FD97214DF272
:1021A000072001F0ABFD00214DF2082001F0A6FD53
:1021B000B1214DF2092001F0A1FD00214DF20A20CC
:1021C00001F09CFDD5214DF20B2001F097FD00217F
:1021D0004DF20C2001F092FDF4214DF20D2001F0A2
:1021E0008DFD01214DF20E2001F088FD23214DF2DD
:1021F0000F2001F083FD01214DF2102001F07EFD42
:1022000049214DF2112001F079FD01214DF21220FA
:1022100001F074FD87214DF2132001F06FFD0121C3
:102220004DF2142001F06AFDB6214DF2152001F0A7
:1022300065FD02214DF2162001F060FD00214DF2F6
:10224000172001F05BFD02214DF2182001F056FD30
:102250003B214DF2192001F051FD02214DF21A20CF
:1022600001F04CFD3D214DF21B2001F047FD022104
:102270004DF21C2001F042FD75214DF21D2001F0B0
:102280003DFD02214DF21E2001F038FDB1214DF23D
:102290001F2001F033FD02214DF2202001F02EFD20
:1022A000D5214DF2212001F029FD03214DF22220FC
:1022B00001F024FD09214DF2232001F01FFD03212F
:1022C0004DF2242001F01AFD28214DF2252001F0C5
:1022D00015FD03214DF2262001F010FD52214DF293
:1022E000272001F00BFD03214DF2282001F006FD0F
:1022F0006B214DF2292001F001FD03214DF22A202E
:1023000001F0FCFC8D214DF22B2001F0F7FC0321A4
:102310004DF22C2001F0F2FCA2214DF22D2001F013
:10232000EDFC03214DF22E2001F0E8FCBB214DF223
:102330002F2001F0E3FC03214DF2302001F0DEFC00
:10234000C1214DF2312001F0D9FC03214DF23220A0
:1023500001F0D4FCC1214DF2332001F0CFFC00216B
:102360004FF4534001F0CAFC37214DF2013001F027
:10237000C5FC00214DF2023001F0C0FC53214DF2AA
:10238000033001F0BBFC00214DF2043001F0B6FC3B
:1023900079214DF2053001F0B1FC00214DF20630FB
:1023A00001F0ACFC97214DF2073001F0A7FC0021B1
:1023B0004DF2083001F0A2FCB1214DF2093001F0DC
:1023C0009DFC00214DF20A3001F098FCD5214DF220
:1023D0000B3001F093FC00214DF20C3001F08EFC2B
:1023E000F4214DF20D3001F089FC01214DF20E3047
:1023F00001F084FC23214DF20F3001F07FFC01211C
:102400004DF2103001F07AFC49214DF2113001F00B
:1024100075FC01214DF2123001F070FC87214DF264
:10242000133001F06BFC01214DF2143001F066FC19
:10243000B6214DF2153001F061FC02214DF216304B
:1024400001F05CFC00214DF2173001F057FC022135
:102450004DF2183001F052FC3B214DF2193001F0E1
:102460004DFC02214DF21A3001F048FC3D214DF2A5
:102470001B3001F043FC02214DF21C3001F03EFC08
:1024800075214DF21D3001F039FC02214DF21E3054
:1024900001F034FCB1214DF21F3001F02FFC02217C
:1024A0004DF2203001F02AFCD5214DF2213001F00F
:1024B00025FC03214DF2223001F020FC09214DF2D0
:1024C000233001F01BFC03214DF2243001F016FCF7
:1024D00028214DF2253001F011FC03214DF2263068
:1024E00001F00CFC52214DF2273001F007FC0321D2
:1024F0004DF2283001F002FC6B214DF2293001F041
:10250000FDFB03214DF22A3001F0F8FB8D214DF245
:102510002B3001F0F3FB03214DF22C3001F0EEFBE8
:10252000A2214DF22D3001F0E9FB03214DF22E30B6
:1025300001F0E4FBBB214DF22F3001F0DFFB032162
:102540004DF2303001F0DAFBC1214DF2313001F0B3
:10255000D5FB03214DF2323001F0D0FBC1214DF209
:10256000333001F0CBFB00214FF4544001F0C6FBA7
:1025700037214DF2014001F0C1FB00214DF2024034
:1025800001F0BCFB53214DF2034001F0B7FB0021E9
:102590004DF2044001F0B2FB79214DF2054001F00B
:1025A000ADFB00214DF2064001F0A8FB97214DF252
:1025B000074001F0A3FB00214DF2084001F09EFB13
:1025C000B1214DF2094001F099FB00214DF20A4082
:1025D00001F094FBD5214DF20B4001F08FFB00215F
:1025E0004DF20C4001F08AFBF4214DF20D4001F058
:1025F00085FB01214DF20E4001F080FB23214DF2BD
:102600000F4001F07BFB01214DF2104001F076FB01
:1026100049214DF2114001F071FB01214DF21240B0
:1026200001F06CFB87214DF2134001F067FB0121A3
:102630004DF2144001F062FBB6214DF2154001F05D
:102640005DFB02214DF2164001F058FB00214DF2D6
:10265000174001F053FB02214DF2184001F04EFBF0
:102660003B214DF2194001F049FB02214DF21A4085
:1026700001F044FB3D214DF21B4001F03FFB0221E4
:102680004DF21C4001F03AFB75214DF21D4001F066
:1026900035FB02214DF21E4001F030FBB1214DF21D
:1026A0001F4001F02BFB02214DF2204001F026FBE0
:1026B000D5214DF2214001F021FB03214DF22240B2
:1026C00001F01CFB09214DF2234001F017FB03210F
:1026D0004DF2244001F012FB28214DF2254001F07B
:1026E0000DFB03214DF2264001F008FB52214DF273
:1026F000274001F003FB03214DF2284001F0FEFAD0
:102700006B214DF2294001F0F9FA03214DF22A40E4
:1027100001F0F4FA8D214DF22B4001F0EFFA032184
:102720004DF22C4001F0EAFAA2214DF22D4001F0C9
:10273000E5FA03214DF22E4001F0E0FABB214DF203
:102740002F4001F0DBFA03214DF2304001F0D6FAC0
:10275000C1214DF2314001F0D1FA03214DF2324056
:1027600001F0CCFAC1214DF2334001F0C7FA00214B
:102770004FF4554001F0C2FA37214DF2015001F0FB
:10278000BDFA00214DF2025001F0B8FA53214DF28A
:10279000035001F0B3FA00214DF2045001F0AEFAFB
:1027A00079214DF2055001F0A9FA00214DF20650B1
:1027B00001F0A4FA97214DF2075001F09FFA002191
:1027C0004DF2085001F09AFAB1214DF2095001F092
:1027D00095FA00214DF20A5001F090FAD5214DF200
:1027E0000B5001F08BFA00214DF20C5001F086FAEB
:1027F000F4214DF20D5001F081FA01214DF20E50FD
:1028000001F07CFA23214DF20F5001F077FA0121FB
:102810004DF2105001F072FA49214DF2115001F0C1
:102820006DFA01214DF2125001F068FA87214DF244
:10283000135001F063FA01214DF2145001F05EFAD9
:10284000B6214DF2155001F059FA02214DF2165001
:1028500001F054FA00214DF2175001F04FFA022115
:102860004DF2185001F04AFA3B214DF2195001F097
:1028700045FA02214DF21A5001F040FA3D214DF285
:102880001B5001F03BFA02214DF21C5001F036FAC8
:1028900075214DF21D5001F031FA02214DF21E500A
:1028A00001F02CFAB1214DF21F5001F027FA02215C
:1028B0004DF2205001F022FAD5214DF2215001F0C5
:1028C0001DFA03214DF2225001F018FA09214DF2B0
:1028D000235001F013FA03214DF2245001F00EFAB7
:1028E00028214DF2255001F009FA03214DF226501E
:1028F00001F004FA52214DF2275001F0FFF90321B3
:102900004DF2285001F0FAF96B214DF2295001F0F7
:10291000F5F903214DF22A5001F0F0F98D214DF225
:102920002B5001F0EBF903214DF22C5001F0E6F9A8
:10293000A2214DF22D5001F0E1F903214DF22E506C
:1029400001F0DCF9BB214DF22F5001F0D7F9032142
:102950004DF2305001F0D2F9C1214DF2315001F069
:10296000CDF903214DF2325001F0C8F9C1214DF2E9
:10297000335001F0C3F900214FF4564001F0BEF985
:1029800037214DF2016001F0B9F900214DF20260EA
:1029900001F0B4F953214DF2036001F0AFF90021C9
:1029A0004DF2046001F0AAF979214DF2056001F0C1
:1029B000A5F900214DF2066001F0A0F997214DF232
:1029C000076001F09BF900214DF2086001F096F9D3
:1029D000B1214DF2096001F091F900214DF20A6038
:1029E00001F08CF9D5214DF20B6001F087F900213F
:1029F0004DF20C6001F082F9F4214DF20D6001F00E
:102A00007DF901214DF20E6001F078F923214DF29C
:102A10000F6001F073F901214DF2106001F06EF9C1
:102A200049214DF2116001F069F901214DF2126066
:102A300001F064F987214DF2136001F05FF9012183
:102A40004DF2146001F05AF9B6214DF2156001F013
:102A500055F902214DF2166001F050F900214DF2B6
:102A6000176001F04BF902214DF2186001F046F9B0
:102A70003B214DF2196001F041F902214DF21A603B
:102A800001F03CF93D214DF21B6001F037F90221C4
:102A90004DF21C6001F032F975214DF21D6001F01C
:102AA0002DF902214DF21E6001F028F9B1214DF2FD
:102AB0001F6001F023F902214DF2206001F01EF9A0
:102AC000D5214DF2216001F019F903214DF2226068
:102AD00001F014F909214DF2236001F00FF90321EF
:102AE0004DF2246001F00AF928214DF2256001F031
:102AF00005F903214DF2266001F000F952214DF253
:102B0000276001F0FBF803214DF2286001F0F6F890
:102B10006B214DF2296001F0F1F803214DF22A609A
:102B200001F0ECF88D214DF22B6001F0E7F8032164
:102B30004DF22C6001F0E2F8A2214DF22D6001F07F
:102B4000DDF803214DF22E6001F0D8F8BB214DF2E3
:102B50002F6001F0D3F803214DF2306001F0CEF880
:102B6000C1214DF2316001F0C9F803214DF232600C
:102B700001F0C4F8C1214DF2336001F0BFF85521D6
:102B80004FF4704001F0BAF8AA214FF2010001F0B1
:102B9000B5F852214FF2020001F0B0F808214FF2CF
:102BA000030001F0ABF800214FF2040001F0A6F899
:102BB00000214FF4304001F0A1F805214BF2010053
:102BC00001F09CF802214BF2020001F097F8052178
:102BD0004BF2030001F092F802214BF2040001F0E5
:102BE0008DF808214FF4364001F088F850214FF459
:102BF000354001F083F805214FF4364001F07EF8AE
:102C000000214FF4374001F079F800214BF20170B8
:102C100001F074F801214FF4384001F06FF80521FC
:102C20004BF6010001F06AF805214BF6020001F0B5
:102C300065F805214BF6030001F060F802214FF41E
:102C40003C4001F05BF800214BF6014001F056F8E2
:102C500000214BF6024001F051F803214FF44C40A3
:102C600001F04CF800214CF6014001F047F800213A
:102C70004CF6024001F042F801214FF43D4001F0D2
:102C80003DF884214BF6015001F038F807214BF64E
:102C9000025001F033F831214BF6035001F02EF8C9
:102CA00000214BF6045001F029F801214FF43A407D
:102CB00001F024F8AA214FF47F4001F01FF85521BC
:102CC0004FF6017001F01AF825214FF6027001F05D
:102CD00015F801214FF6037001F010F840214FF470
:102CE000585001F00BF800214FF4545001F006F851
:102CF00005214FF4685001F001F84FF4885000F0BE
:102D0000E7FF7820FDF708FC4FF4245000F0E0FFC7
:102D10000A20FDF701FC4FF4305000F0D9FF10BD40
:102D200010B5E22000F0D4FF1D2000F0C5FF022006
:102D300000F0C2FF042000F0BFFF6420FDF7F6FBA7
:102D4000E02000F0C5FF012000F0B6FF0A20FDF7EB
:102D5000E3FBE02000F0BCFF032000F0ADFF0C20FF
:102D6000FDF7DAFB012000F0B3FF0A20FDF7D4FBEA
:102D7000E62000F0ADFF2F2000F09EFFFF2000F0C6
:102D80009BFFFF2000F098FFB02000F0A1FF202063
:102D900000F092FF002000F08FFF032000F08CFF76
:102DA00040F21F3000F088FF012000F085FF40F264
:102DB000DF1000F081FF002000F07EFFB42000F063
:102DC00087FF042000F078FF40F21F4000F074FFFE
:102DD000002000F071FF2E2000F06EFF002000F0B8
:102DE0006BFF002000F068FF002000F065FF00206E
:102DF00000F062FFB62000F06BFF022000F05CFFE5
:102E00004FF4037000F058FF002000F055FF17202A
:102E100000F052FF152000F04FFF002000F04CFFA3
:102E2000002000F049FFF02000F052FF032000F0E6
:102E300043FF292000F04CFFD02000F049FF002084
:102E400000F03AFFBE2000F043FF052000F034FF01
:102E5000FE2000F031FF012000F02EFF002000F0E6
:102E60002BFF002000F028FF002000F025FFB820F5
:102E700000F02EFF032000F01FFF012000F01CFFD8
:102E8000BA2000F025FF012000F016FF10BD10B59C
:102E9000112000F01DFF7820FDF73EFB362000F0EA
:102EA00017FF002000F008FF3A2000F011FF052076
:102EB00000F002FFB22000F00BFF0C2000F0FCFE3F
:102EC0000C2000F0F9FE002000F0F6FE332000F0A8
:102ED000F3FE332000F0F0FEB72000F0F9FE3520BD
:102EE00000F0EAFEBB2000F0F3FE322000F0E4FE2A
:102EF000C02000F0EDFE0C2000F0DEFEC22000F04D
:102F0000E7FE012000F0D8FEC32000F0E1FE102013
:102F100000F0D2FEC42000F0DBFE202000F0CCFE4A
:102F2000C62000F0D5FE0F2000F0C6FED02000F035
:102F3000CFFEA42000F0C0FEA12000F0BDFEE020E6
:102F400000F0C6FED02000F0B7FE002000F0B4FE76
:102F5000022000F0B1FE072000F0AEFE0A2000F0D3
:102F6000ABFE282000F0A8FE322000F0A5FE442091
:102F700000F0A2FE422000F09FFE062000F09CFE22
:102F80000E2000F099FE122000F096FE142000F0B2
:102F900093FE172000F090FEE12000F099FED02073
:102FA00000F08AFE002000F087FE022000F084FE80
:102FB000072000F081FE0A2000F07EFE282000F0AD
:102FC0007BFE312000F078FE542000F075FE472093
:102FD00000F072FE0E2000F06FFE1C2000F06CFE70
:102FE000172000F069FE1B2000F066FE1E2000F096
:102FF00063FE2A2000F06CFE002000F05DFE002041
:1030000000F05AFE002000F057FEEF2000F054FEC2
:103010002B2000F05DFE002000F04EFE002000F0AE
:103020004BFE012000F048FE3F2000F045FE292025
:1030300000F04EFE10BD10B5112000F049FE7820C2
:10304000FDF76AFA362000F043FE482000F034FE17
:103050003A2000F03DFE552000F02EFEF02000F05A
:1030600037FEC32000F028FEF02000F031FE96204D
:1030700000F022FEB42000F02BFE012000F01CFE28
:10308000B62000F025FE0A2000F016FEA22000F077
:1030900013FEB72000F01CFEC62000F00DFEB92084
:1030A00000F016FE022000F007FEE02000F004FE13
:1030B000C02000F00DFE802000F0FEFD162000F084
:1030C000FBFDC12000F004FE192000F0F5FDC22038
:1030D00000F0FEFDA72000F0EFFDC52000F0F8FD98
:1030E000162000F0E9FDE82000F0F2FD402000F09D
:1030F000E3FD8A2000F0E0FD002000F0DDFD00206F
:1031000000F0DAFD292000F0D7FD192000F0D4FDF1
:10311000A52000F0D1FD332000F0CEFDE02000F02E
:10312000D7FDF02000F0C8FD072000F0C5FD0D2000
:1031300000F0C2FD042000F0BFFD052000F0BCFD42
:10314000142000F0B9FD362000F0B6FD542000F048
:10315000B3FD4C2000F0B0FD382000F0ADFD132091
:1031600000F0AAFD142000F0A7FD2E2000F0A4FD21
:10317000342000F0A1FDE12000F0AAFDF02000F0D5
:103180009BFD102000F098FD142000F095FD0E200E
:1031900000F092FD0C2000F08FFD082000F08CFD67
:1031A000352000F089FD442000F086FD4C2000F021
:1031B00083FD262000F080FD102000F07DFD122010
:1031C00000F07AFD2C2000F077FD322000F074FD35
:1031D000F02000F07DFD3C2000F06EFDF02000F0BE
:1031E00077FD692000F068FD7820FDF795F9212032
:1031F00000F06EFD292000F06BFD10BD1CB500BF76
:10320000FA48806940F48070F849886100BF00BFC7
:103210000846806940F02000886100BF00BF084672
:10322000806940F02000886100BF00BF08468069C7
:1032300040F48070886100BF00BF0846806940F09C
:103240000800886100BF0846806940F0600088611E
:103250000846406940F48070486101200321002342
:103260000222CDE900100103E14800F02BFF01200C
:10327000032100230222CDE900102021DD4800F0C7
:1032800021FF0120032100230222CDE9001010219B
:10329000D84800F017FF0120032100230222CDE9C6
:1032A00000100146D24800F00DFF01200321002349
:1032B0000246CDE900100146CF4800F003FF01208F
:1032C000032100230222CDE900104CF20371C9480A
:1032D00000F0F8FE0120032100230222CDE90010B6
:1032E0004FF68071C54800F0EDFE00204FF0204100
:1032F0008861C861C24908604FF02040806940F48D
:1033000080504FF0204188610846806940F4804039
:1033100088610846806940F0100088610846C069ED
:10332000C8610846C069C8610846C06940F4706059
:10333000C861B3480068C1F81C01B1480068C1F811
:103340001C010846D0F81C0140F48070C1F81C0133
:103350000846806940F0010088610846806940F0B5
:1033600000408861A74800F08FF9D32000F0B0FC3E
:1033700000F09CF9A449888000F098F9A24988805F
:1033800000F094F9A0498880084680884FF6FF71C4
:1033900001EA00209C49888000F088F99A498988D0
:1033A0000843994988800846808849F2413188421B
:1033B0007ED0042000F08CFC00F078F992498880DF
:1033C00000F074F99049888000F070F98E49888087
:1033D000084680884FF6FF7101EA00208A498880FC
:1033E00000F064F98849898808438749888008463D
:1033F000808848F25251884203D147F2897082494D
:1034000088808148808847F289718842D0D0D42052
:1034100000F05EFC00F04AF97B49888000F046F934
:103420007949888000F042F9774988800846808889
:103430004FF6FF7101EA00207349888000F036F9E9
:10344000714989880843704988800846808845F218
:1034500010318842ACD0D32000F03AFC00F026F9BD
:103460006949888000F022F96749888000F01EF9D8
:1034700065498880084680884FF6FF7101EA002080
:103480006149888000F012F95F49898808435E49E4
:1034900088800846808847F29671884288D05521F6
:1034A0004FF4704000F02AFCAA214FF2010000E026
:1034B0007CE000F023FC52214FF2020000F01EFCE1
:1034C00008214FF2030000F019FC01214FF2040023
:1034D00000F014FC4FF4454000F0FAFB00F0E6F871
:1034E00049498880084680884FF6FF7101EA00202C
:1034F000454988804CF2015000F0EAFB00F0D6F814
:10350000414989880843404988800520FDF704F82F
:103510003D48808845F21051884247D0D32000F0C2
:10352000D7FB00F0C3F83849888000F0BFF836496F
:10353000888000F0BBF834498880084680884FF6C0
:10354000FF7101EA00203049888000F0AFF82E4971
:10355000898808432C4988800846808849F60601F6
:10356000884223D0A12000F0B3FB00F09FF8264949
:10357000888000F09BF824498880084680884FF6B0
:10358000FF7101EA00202049888000F08FF81E4971
:10359000898808431C4988800846808845F2617103
:1035A000884203D141F66310174988801648818804
:1035B00016A0FCF72DFE1448808847F289718842D6
:1035C00002D1FFF764FC4DE00F48808849F2413199
:1035D000884202D1FDF7BEF944E00B48808845F2ED
:1035E0001031884218D1FDF76BFC3BE0001002401F
:1035F0000020014000140140000C0140001801406F
:103600001C0100A0FFFF0100501800204C43442083
:1036100049443A25780D0A001948808847F2967186
:10362000884202D1FFF707FD1CE01548808845F26B
:103630001051884202D1FEF7BCFB13E0104880888D
:1036400049F60601884202D1FDF79AFA0AE00C48D1
:10365000808841F66311884204D1FFF761FB642042
:1036600000F000FB0020FDF7AFF8012211460548ED
:1036700000F01CFD4FF6FF70FDF78CF81CBD00003C
:1036800050180020000C014000BF011EA0F10100F5
:10369000FBD1704710B50246012000E050430B1EDD
:1036A000A1F10104E1B2F9D110BD000008B502207A
:1036B000FFF7EAFF024800880090BDF8000008BD4F
:1036C0000008006CF0B50546002400278B4880797F
:1036D000012805D18948808841F66311884208D1C4
:1036E00086488079F0B98548808841F66311884220
:1036F00018D1082D15D2DFE805F00406080A0C0ED3
:10370000101206250DE007250BE0042509E005252C
:1037100007E0012505E0002503E0032501E002257F
:1037200000BF00BF082D1CD2DFE805F00406090C1D
:103730000F12151800BF14E044F0800411E044F0AB
:1037400040040EE044F0C0040BE044F0200408E024
:1037500044F0600405E044F0A00402E044F0E0041A
:1037600000BF00BF36276548808845F21051884267
:1037700000D13F026148808849F2413188420BD034
:103780005E48808847F28971884205D05B4880880E
:1037900047F29671884201D144F008042146384628
:1037A00000F0ACFA5548808841F6631188421DD07C
:1037B00004F0200068B15148008850494988884287
:1037C00014DA4E48068840884C49088008464680EE
:1037D0000CE04A48008849494988884206DD474844
:1037E00006884088454908800846468043488088C6
:1037F00045F21051884252D14049488900F068FA98
:10380000002000F059FA3D494989491C88B200F06E
:103810005FFA002000F050FA38494989891C88B2C3
:1038200000F056FA35490988491EC1F30F2000F00F
:1038300043FA32494989C91C88B200F049FA2F4934
:103840000978491EC8B200F037FA2C49888900F07F
:103850003FFA002000F030FA28498989491C88B2D3
:1038600000F036FA002000F027FA24498989891CE3
:1038700088B200F02DFA21494988491EC1F30F2072
:1038800000F01AFA1D498989C91C88B200F020FA93
:103890001A498978491EC8B200F00EFA2DE017497E
:1038A000488900F015FA002000F006FA002000F028
:1038B00003FA12490988491EC1F30F2000F0FCF9F0
:1038C0000E490978491EC8B200F0F6F90B498889FB
:1038D00000F0FEF9002000F0EFF9002000F0ECF914
:1038E00006494988491EC1F30F2000F0E5F9034954
:1038F0008978491EC8B200F0DFF9F0BD50180020E9
:1039000010B502460C464548808841F6631188424E
:1039100047D142488079A8B940480088401E801AA3
:1039200082B23E49488900F0D3F9002000F0C4F982
:10393000002000F0C1F9101200F0BEF9D0B200F082
:10394000BBF916E03549488900F0C2F9101200F0C1
:10395000B3F9D0B200F0B0F930490988491EC1F37B
:103960000F2000F0A9F92D490978491EC8B200F0CE
:10397000A3F92A49888900F0ABF9201200F09CF9DC
:10398000E0B200F099F925494988491EC1F30F209A
:1039900000F092F921498978491EC8B200F08CF9EB
:1039A0003AE01E48808845F21051884220D11B49D8
:1039B000488900F08DF9101200F07EF91749498905
:1039C000491C88B200F084F9D0B200F075F91349AF
:1039D000888900F07DF9201200F06EF90F4989897D
:1039E000491C88B200F074F9E0B200F065F913E008
:1039F0000A49488900F06CF9101200F05DF9D0B264
:103A000000F05AF90549888900F062F9201200F0A7
:103A100053F9E0B200F050F910BD0000501800203A
:103A20002DE9FC4F80460E4615461C46B346002045
:103A3000019000902046E31704EB5373DB102146FE
:103A40004FEAE47C04EB5C7C4FEAEC0CA4EBCC0C7E
:103A5000BCF1000F02D04FF0010C01E04FF0000C60
:103A60006344224604EBD27C4FEA6C0C03FB0CF35C
:103A7000DBB20193A5F12000C5B20C2C06D0102CAE
:103A80000BD0182C0ED0202C18D112E005EB4500DD
:103A90002D4901EB8000009012E02C4800EB05104E
:103AA00000900DE005EBC500294901EB8000009076
:103AB00006E0284800EB8510009001E0BDE8FC8F8F
:103AC00000BF00273AE0009810F807904FF0000A76
:103AD0002EE009F0800028B1314640460C9AFCF7F0
:103AE00029FF07E00B9828B91B4831460268404679
:103AF000FCF720FF4FEA49604FEA1069701C86B25C
:103B000016484088B04200DCD8E7A6EB0B00A04284
:103B10000AD15E4608F101001FFA80F80F480088BC
:103B2000404500DCCAE706E00AF1010000F0FF0AA8
:103B3000BAF1080FCDDB00BF781CC7B201988742ED
:103B4000C1DB00BFBAE70000724B0008E64F000877
:103B5000D6550008326300081000002050180020DD
:103B60002DE9FF4F83B0074691461E46DDE9105A06
:103B70000020029000243AE0301B401EC1B20A200F
:103B8000FFF788FDB9FBF0F00A21B0FBF1F201FB71
:103B900012080298B8B9701EA04214DDB8F1000FE7
:103BA0000FD10020AB4605EBDB71491001FB04711E
:103BB000CDE9000A88B22B4620220499FFF730FF96
:103BC00013E0012002900020AB4605EBDB714910A9
:103BD00001FB0471CDE9000A88B208F13001CAB2D4
:103BE0002B460499FFF71CFF00BF601CC4B2B4420F
:103BF000C2DB07B0BDE8F08F2DE9FC4F04460D464F
:103C000090469946DDE90C7A0B9E04F0FF0B08EB19
:103C100004001FFA80F809EB05001FFA80F917E08D
:103C2000444502DB5C46A81985B24D4500DB15E032
:103C30000020CDE9000A3A78334629462046FFF7AE
:103C4000EFFE304606EBD07104EB61018CB27F1CB5
:103C500038787E2802DC38782028E1DA00BFBDE819
:103C6000FC8F00002DE9F0470446BE2000F030F83C
:103C7000052000F021F8204600F0B9FB07464FF080
:103C800066320C4B00F0C6FB054600F083FB1FFAC2
:103C900080F9484600F010F8012000F00DF8FF20F0
:103CA00000F00AF8002000F007F8002000F004F807
:103CB000BDE8F0876666044001B5BDF800000090DD
:103CC000BDF800000149088008BD00000008006C34
:103CD00001B5BDF800000090BDF800000149088062
:103CE00008BD0000FE07006C0248008902490880F8
:103CF0007047000050180020FE07006C024A108038
:103D0000921C118070470000FE07006C1CB500BFBC
:103D10001548806940F008001349886100BF00BF62
:103D20000846806940F04000886100BF0120009093
:103D300000230246202101900C4800F0C3F9012025
:103D400000900023024620210190094800F0BAF9B2
:103D500001222021054800F0A9F901222021044870
:103D600000F0A4F91CBD000000100240000C01404E
:103D7000001801400EB54FF000080027B946092091
:103D800000F06EFA4820FCF7B1FB4FF4E131482017
:103D900000F09EFAFFF7BAFFFFF730FAFCF74EFC8F
:103DA0007148FCF717FC4FF4784070A110221346BD
:103DB000CDE900210290C82232211E20FFF71CFF0E
:103DC0004FF478406BA110221346CDE900210290F8
:103DD000C82246211E20FFF70FFF4FF4784068A14C
:103DE00010221346CDE900210290C8225A211E203C
:103DF000FFF702FF4FF4784065A110221346CDE98A
:103E000000210290C8226E211E20FFF7F5FE1C261D
:103E10000025002416E0B5420BDB27B10A205249E9
:103E2000085500250CE00D204F490855781CC7B2F5
:103E300006E000275948405D4B490855681C85B28B
:103E4000601C84B241F270708442E4D300248AE0A2
:103E50000020FCF73DFC8046B8F1010F73D150A063
:103E6000FCF7D6F91F2052A110221346CDE90021FC
:103E70000290C82282211E20FFF7BEFE1F2051A102
:103E800010221346CDE900210290C82296211E205F
:103E9000FFF7B2FE80204D49086041F270714C4836
:103EA000FCF788FB37E04A484438006800F40050CB
:103EB00040B147484438406840F4005044494439D0
:103EC000486029E042494439886C00F0E5FC8146AD
:103ED00041F27076304600F0DFFC83465946484692
:103EE00000F0F8FB82464FF07E5100F0B5FD8146B0
:103EF0003849484600F0E4FC8146484600F0ACFCF6
:103F000082461F20102103235246CDE9001096213E
:103F10001E20FFF725FEC6E700BF1F201021032348
:103F20006422CDE9001096211E20FFF719FE1F2004
:103F300029A110221346CDE900210290C822822136
:103F40001E20FFF759FE601C84B20A20FCF7E4FA39
:103F5000142C08D100BF2548006880F020002349B8
:103F6000086000BF002473E71800002053544D334D
:103F700032000000444D41205445535400000000DD
:103F800041544F4D40414C49454E54454B00000073
:103F90004B4559303A53746172740000564B000817
:103FA0000D0A444D4120444154413A0D0A0000009D
:103FB0005374617274205472616E73696D69742EEA
:103FC0002E2E2E0020202025000000001438014055
:103FD000440002400000C8425472616E73696D690A
:103FE000742046696E697368656421000C0C014099
:103FF00010B5024600210020264B1B6843F4803395
:10400000244C23600AE000BF224B1B6803F40033FA
:104010001BB1B1F5004F00D904E0491C4FF6F07315
:104020009942F0D300BF4FF6F073994201D30120BB
:104030002FE04FF48063174C6360921E23465B6849
:1040400043EA8243636023465B6843F480336360E2
:104050001023114C236023461B6843F002032360A6
:104060000C4B1B6843F080730A4C236000BF094B64
:104070001B685B0E002BFAD0064B5B6843F0020313
:10408000044C636000BF034B5B68C3F38103022BE6
:10409000F9D110BD00100240002002400246906895
:1040A000084008B1012070470020FCE702F001033E
:1040B0001BB103690B43036103E0036943EA014356
:1040C000036170472DE9F04F0E461D46DDE909C436
:1040D000002100278846002300BF64E04FF001095B
:1040E00009FA01F706EA0708B8455BD10023012A5F
:1040F00001D0022A0AD10CF0030305F0010943EABA
:104100008903A2F1010943EAC90318E0BAB90CB95D
:10411000042314E00823D0F80C904FF0010A0AFAA7
:1041200001FA29EA0A09C0F80C90D0F80CA004F0B2
:10413000010909FA01F94AEA090AC0F80CA007299D
:1041400016D8D0F800904FEA810B4FF00F0A0AFA08
:104150000BFA29EA0A09C0F80090D0F800904FEA5B
:10416000810A03FA0AFA49EA0A09C0F8009019E03C
:10417000D0F80490A1F1080A4FEA8A0B4FF00F0A19
:104180000AFA0BFA29EA0A09C0F80490D0F8049058
:10419000A1F1080A4FEA8A0A03FA0AFA49EA0A0967
:1041A000C0F80490491C102998D3BDE8F08F000096
:1041B0002DE9F0410746884614461D46284600F082
:1041C00033F8C5F1040007FA00F60F20284100EA91
:1041D0000800064306F00F06E21704EBD262521104
:1041E000920002F1E022D2F800212146E31704EB0D
:1041F000D3635B11A4EB431C012303FA0CF31A43B2
:104200002046E31704EBD3635B119B0003F1E0232B
:10421000C3F800210348005D40EA06100149085533
:10422000BDE8F08100E400E00146072323EA010233
:104230001202054B18684FF6FF031840034B184352
:104240001043014B186070470CED00E00000FA05C8
:104250004A0A52020243014B1A60704708ED00E01F
:1042600010B50446002017490861C8601420486151
:1042700000208861C8610846006840F001000860BD
:1042800008464068104908400E49486008460068E2
:104290000E4908400B4908600846006820F4802059
:1042A00008600846406820F4FE0048604FF41F0094
:1042B00088602046FFF79CFE00214FF00060FFF76A
:1042C000C7FF10BD001002400000FFF8FFFFF6FE20
:1042D0007CB506460C4600BF2A48806940F00400C1
:1042E0002849886100BF00BF0846806940F004008B
:1042F000886100BF00BF0846806940F48040886143
:1043000000BF0120032100230222CDE90010410259
:104310001D48FFF7D7FE0120032100231A46CDE9EF
:10432000001081021848FFF7CDFE1848704300EBDB
:104330005400B0FBF4F51648056000201449091D2F
:1043400008600846006808600846006840F00800F9
:1043500008600846006840F00400086008460068ED
:1043600040F0200008600223252203210846FFF7C1
:104370001FFF0748001D006840F400500449091D54
:1043800008607CBD001002400008014040420F0060
:10439000083801404FEA1153A3F58063D3F11E039F
:1043A000A8BFD3F1200C08DB4FF0004242EAC12243
:1043B00052EA505232FA03F0704709420BD4102BE4
:1043C000C4BF0020704703F5787CBCF1FF3F05D0E7
:1043D0004FF0FF3070474FF00000704770B500F0AD
:1043E000C3F800BF4992248000207047F0E7B0FA7C
:1043F00080F310FA03F10AD0C3F11D0303F58063C3
:104400004FEA41504FEA035202EBD12170474FF07F
:1044100000007047DFF848C170B51CEA111E1EBFCE
:104420001CEA13159EEA0C0F95EA0C0F00F06F8042
:1044300081EA030423EA4C134EEAD47E21EA4C11AC
:1044400041F4801143F48013AE44A1FB024CA0FB65
:104450000365AEF17F7E361955EB0C05A1FB034CCD
:104460004CF10003A0FB021C16EB0C06654153F156
:104470000003094218BF46F0010613F4007F0BD178
:104480004FEA03314FEA0530340341EA155140EA5F
:1044900016506FF003020AE04FEAC3214FEAC5202D
:1044A000F40241EA555140EA56506FF0020202EB25
:1044B0002E4201EB025585EACE710AD05FEA440C28
:1044C00018BF24F0004450F1000041F1000120EA3F
:1044D000D47040F2FE7C624500D270BDA84214BF89
:1044E0004FF080444FF04044002E08BF0024BEF13E
:1044F000806FA8BFA1F1C041BDE8704080F282800A
:104500004FF0000001F1C04101F0004170479EEA08
:104510000C0F0CEA131518BF95EA0C0F06D04FF0DC
:10452000000081EA030E0EF0004170BD00F01CF89F
:104530008900013E00F007B800F009B84FEA430CCB
:104540005FEA5C5C08D081EA030100F05BB84FEAE7
:10455000410C5FEA5C5CF6D14FF000000149704706
:104560000000FF070000F87F0EF1020E2EF0030E90
:104570005EF8046B364205D4012A43EB030515F5BA
:10458000001F12D8012841EB010C1CF5001F0CD8AC
:104590000ED14FEAD17C15F5001F0CEB4C0C0CF141
:1045A000020C08BF4CEBD37C04E04FF0080C01E098
:1045B0004FEAD37C0CEB4C0526FA05F606F007060D
:1045C000B6F1040C06D20EEB860CBDE870404CF040
:1045D000010C6047DFE80CF0090B02024FF00041CC
:1045E0004FF00000A1F5002170BD194610460128CA
:1045F00051EB010418BFD4F5001484BF002001F072
:10460000004170BD0808A0F500114FEA3101704764
:1046100090EA010F48BF81F0004100F12E82421A5A
:104620003CBF801A89184FEAD0524FF07F4C1CEAE9
:10463000410FA2EBD15318BF9CEA026F00F03B8000
:104640004FF0004C4CEA00204CEA012121FA03FC17
:1046500010EB0C0C1ED202F1FF325FEA1C2040EB83
:10466000C25038BF70471CF07F0F4FEA400C18BF94
:10467000BCF17F4F38BF7047C3F12003994008BF9A
:1046800020F00100BCF17F4F38BF7047A0F1C0405F
:1046900000F0DDB94FEA3C00000A40EBC25028BFF1
:1046A0001CF0FF0F4FEA400CE6D018BFBCF17F4F63
:1046B00038BF7047EAE79CEA026F05D010EA5C0F4A
:1046C00008BF00F00040704710B500F07AF900BF55
:1046D00064FBBE3E4FF47F0C1CEAD0121EBF1CEAE6
:1046E000D11392EA0C0F93EA0C0F00F0858090EA48
:1046F000010F48BF42F4807240F4000C41F4000006
:104700002CF07F4120F07F4000B58142A2EB0302F4
:104710000FF2081CACEB504EC0F100009EF800E018
:104720004FEA4E0E00FB0EFC38BF49004FEA2C1C2E
:1047300002F5FA020CFB0EF34FEACE1E4FEA112CE3
:104740004FEAC1210EEB635E42EB22420EFB0CFCF2
:104750004FEA1C5300FB03114FEA112C4FEA0131C1
:104760000EFB0CFC4FEADC4C00FB0C11C14228BFD5
:1047700009184CEB03335DF804EB10EB410143EBFC
:10478000C250B2F57C0F38BF704729D512F0F00F38
:104790001CBF00F1C04000F00040704700818283E0
:1047A0008485868788898B8C8D8E8F919293959640
:1047B00097999A9C9D9FA0A2A3A5A7A8AAACAEB0CA
:1047C000B2B3B5B7B9BCBEC0C2C5C7C9CCCED1D4CF
:1047D000D7D9DCDFE2E6E9ECF0F3F7FAFE000000FF
:1047E0004FEA400C0CF1807CBCF17E4F28BF704733
:1047F000B0F1C04000F02BB990EA010F0CEAD113E0
:1048000048BF42F48072624538BF634507D213F453
:104810007F0F16D080EA010000F00040704710B50D
:1048200000F0CFF8097EFC3E00F005B880EA0100F8
:1048300000F00040704780EA010000F0004000F006
:1048400006B912F47F0F04BF0248704780EA0100E6
:1048500000F0FDB80000C07FC10DD1F19E0206DB63
:104860004FEA002343F0004323FA02F0704700426E
:1048700007D54FEA4001B1F1FE4F02D24FF00000E0
:10488000704710B500F09DF84992248000207047D1
:104890006FEA200070470000B0FA80F310FA03F2CC
:1048A000C3F19D030AD0D90501EB1220530638BF8E
:1048B000704700F1010008BF20F0010070470000C0
:1048C0004FF47F0C1CEAD0121EBF1CEAD11392EAEF
:1048D0000C0F93EA0C0F00F0478090EA010F48BFDD
:1048E00042F480724FF0004C4CEA00204CEA012167
:1048F00002EB0302A0FB0113A2F50002002918BF7E
:1049000043F001035B0028BF4FEA330342EB22422E
:104910005FEA132C4CEBC2502EBFBCEB436FB2F5D9
:104920007C0F70474FEA036CBCF1004F08BF20F0CA
:104930000100B2F57C0F38BF70470BD582F0FF0243
:1049400012F5803FC8BF704700F1C040D8BF00F0EB
:104950000040704700F5000C5FEA4C0C48BF704700
:10496000B0F1C04000F073B890EA010F0CEAD11327
:1049700048BF42F48072624538BF634504D280EA82
:10498000010000F00040704710B500F01AF800BFB9
:104990008900013E00F007B800F009B85FEA410C59
:1049A0005FEA1C6C08D080EA010000F050B85FEAB2
:1049B000400C5FEA1C6CF6D14FF00040A0F580007F
:1049C00070470EF1020E2EF0030E5EF8044B2442E7
:1049D00004D44FEA4102B2F17F4F11D84FEA4003AD
:1049E000B3F17F4F0CD80ED14FEAD07CB2F17F4F9C
:1049F0000CEB4C0C0CF1020C08BF4CEBD17C04E02E
:104A00004FF0080C01E04FEAD17C0CEB4C0324FA88
:104A100003F404F00704B4F1040C06D20EEB840C8A
:104A2000BDE810404CF0010C6047DFE80CF00708CF
:104A300002024FF00040A0F5800010BD0846420081
:104A400018BFD2F1807288BF00F0004010BDFF2176
:104A500041EAD050C005704780F0004090EA010F55
:104A60007FF5DDAD81F0004100F007B890EA010F5D
:104A700048BF81F000413FF5D2AD421A04D882F020
:104A80000042A0EB020011444FEAD0524FF07F4C9D
:104A90001CEA410FA2EBD15318BF9CEA026F4AD027
:104AA0004FF0004C4CEA00204CEA012121FA03FCB3
:104AB000B0EB0C0C0FD412F0FE0F36D05FEA4C00B6
:104AC0001DD5001240EBC25038BF70471CF03F0F9D
:104AD00018BF70470BE0A2F101025FEA1C2040EB17
:104AE000C25038BF70471CF07F0F18BF7047C3F12A
:104AF0002003994014BF401E20F001007047800839
:104B00004FEA122308BF7047B0FA80FCA2EB0C02F8
:104B1000CCF1280C60FA0CF093EA122F04BF00EBE2
:104B2000C25070474FEAC3707047130A5FEADC1047
:104B300008BF7047F6E79CEA026F04D010EA5C0FEA
:104B400008BF0020704710B5FFF73BFF40DFF63E7F
:104B500081F000407047D5FDB5E3D4ADD7D32053E5
:104B6000544D333220444D4120B4AEBFDACAB5D1E2
:104B7000E90000000000000000000000000000004C
:104B800000003F4000000000000000003000400036
:104B900030004000000009000BC03D000BC03D008C
:104BA000090018C024407FE0224031800000180036
:104BB00024C01B000D803240018003801C40274030
:104BC0001C80074000401000600000000000000052
:104BD00000000000000000001F8020404020000076
:104BE000402020401F8000000000090006001F80B8
:104BF000060009000000040004003F8004000400D7
:104C00000000001000600000000000000000040030
:104C10000400040004000400000000000040000044
:104C2000000000000000002001C006003800400025
:104C300000001F802040204020401F800000000016
:104C400010403FC000400000000018C0214022403A
:104C500024401840000010802040244024401B8045
:104C6000000002000D0011003FC0014000003C8028
:104C7000244024402440238000001F8024402440FE
:104C80003440038000003000200027C0380020009E
:104C900000001B802440244024401B8000001C0096
:104CA00022C0224022401F80000000000000084077
:104CB0000000000000000000000004600000000090
:104CC0000000000004000A0011002080404009009C
:104CD0000900090009000900000000004040208090
:104CE00011000A00040018002000234024001800CE
:104CF00000001F802040274029401F400000004046
:104D000007C039000F0001C0004020403FC02440D0
:104D100024401B8000001F80204020402040308025
:104D2000000020403FC0204020401F800000204065
:104D30003FC024402E4030C0000020403FC02440EF
:104D40002E00300000000F001080204022403380F1
:104D5000020020403FC0040004003FC0204020402B
:104D600020403FC020402040000000602020202044
:104D70003FC02000200020403FC024400B0030C036
:104D8000204020403FC020400040004000C03FC0C5
:104D90003C0003C03C003FC0000020403FC00C402E
:104DA00023003FC020001F802040204020401F8063
:104DB000000020403FC024402400180000001F8055
:104DC0002140214020E01FA0000020403FC024409F
:104DD000260019C0004018C02440244022403180E1
:104DE0000000300020403FC0204030000000200084
:104DF0003F80004000403F80200020003E0001C076
:104E0000070038002000380007C03C0007C0380009
:104E10000000204039C0060039C0204000002000BA
:104E2000384007C0384020000000304021C02640F4
:104E3000384020C00000000000007FE040204020FB
:104E40000000000070000C00038000400000000023
:104E5000402040207FE000000000000020004000D3
:104E600020000000000000100010001000100010D2
:104E700000100000000040000000000000000000E2
:104E800002800540054003C0004020003FC00440B0
:104E900004400380000000000380044004400640FA
:104EA000000000000380044024403FC00040000098
:104EB00003800540054003400000000004401FC07F
:104EC000244024402000000002E005500550065018
:104ED000042020403FC00440040003C00040000004
:104EE000044027C000400000000000100010041023
:104EF00027E00000000020403FC00140070004C040
:104F00000440204020403FC000400040000007C057
:104F1000040007C0040003C00000044007C00440B0
:104F2000040003C0004000000380044004400380EC
:104F30000000041007F0045004400380000000004B
:104F400003800440045007F00010044007C00240F2
:104F5000040004000000000006400540054004C0B5
:104F60000000000004001F80044000400000040016
:104F700007800040044007C000400400070004C050
:104F8000018006000400060001C0070001C0060001
:104F90000000044006C0010006C0044000000410E8
:104FA000071004E00180060004000000044005C072
:104FB0000640044000000000000004007BE04020A8
:104FC0000000000000000000FFF0000000000000F2
:104FD00040207BE004000000000040008000400012
:104FE0002000200040000000000000000000000041
:104FF0000000000000000000000000001FCC000CBA
:105000000000000000000000080030006000080000
:10501000300060000000022003FC1E20022003FC80
:105020001E200220000000000E1811043FFF108413
:105030000C78000000000F0010840F3800C00778C3
:1050400018840078000000780F8410C411240E9892
:1050500000E4008400080800680070000000000000
:1050600000000000000000000000000007E0181829
:10507000200440020000000040022004181807E04D
:105080000000000000000240024001800FF001809B
:105090000240024000000080008000800FF8008085
:1050A0000080008000000001000D000E00000000E4
:1050B00000000000000000000080008000800080F0
:1050C0000080008000800000000C000C0000000048
:1050D00000000000000000000006001800600180D1
:1050E000060018002000000007F008081004100453
:1050F000080807F000000000080408041FFC000472
:1051000000040000000000000E0C101410241044D5
:1051100011840E0C000000000C181004110411047E
:1051200012880C700000000000E003200424082412
:105130001FFC0024000000001F98108411041104BB
:10514000108810700000000007F008881104110496
:1051500018880070000000001C00100010FC1300F4
:105160001C001000000000000E3811441084108450
:1051700011440E38000000000700088C1044104451
:10518000088807F00000000000000000030C030C7A
:105190000000000000000000000000010106000007
:1051A0000000000000000000008001400220041008
:1051B0000808100400000220022002200220022021
:1051C0000220022000000000100408080410022041
:1051D00001400080000000000E001200100C106C56
:1051E00010800F00000003E00C1813E4142417C40F
:1051F000082807D000000004003C03C41C400740FE
:1052000000E4001C000410041FFC1104110411042C
:105210000E880070000003E00C1810041004100445
:1052200010081C10000010041FFC100410041004CF
:10523000080807F0000010041FFC1104110417C433
:1052400010040818000010041FFC1104110017C0FE
:1052500010000800000003E00C18100410041044B3
:105260001C780040000010041FFC108400800080A7
:1052700010841FFC10040000100410041FFC100414
:1052800010040000000000030001100110011FFEC7
:1052900010001000000010041FFC110403801464AF
:1052A000181C1004000010041FFC1004000400046B
:1052B0000004000C000010041FFC1F0000FC1F0075
:1052C0001FFC1004000010041FFC0C04030000E08D
:1052D00010181FFC100007F0080810041004100438
:1052E000080807F0000010041FFC108410801080D4
:1052F00010800F00000007F0081810241024101C64
:10530000080A07F2000010041FFC1104110011C06C
:1053100011300E0C000400000E1C110410841084C7
:1053200010441C3800001800100010041FFC10046A
:1053300010001800000010001FF810040004000402
:1053400010041FF8100010001E0011E0001C007077
:1053500013801C0010001FC0103C00E01F0000E084
:10536000103C1FC000001004180C163401C001C00E
:105370001634180C100410001C00130400FC130455
:105380001C00100000000804101C1064108413049A
:105390001C04101800000000000000007FFE400206
:1053A000400240020000000030000C00038000605A
:1053B000001C0003000000004002400240027FFE8B
:1053C000000000000000000000002000400040003D
:1053D0004000200000000001000100010001000168
:1053E000000100010001000040004000200000001A
:1053F0000000000000000000009801240144014466
:10540000014400FC000410001FFC0088010401049A
:105410000088007000000000007000880104010492
:1054200001040088000000000070008801040104ED
:1054300011081FFC0004000000F80144014401446D
:10544000014400C800000000010401040FFC110425
:10545000110411001800000000D6012901290129BA
:1054600001C90106000010041FFC008401000100B6
:10547000010400FC000400000104190419FC0004EC
:1054800000040000000000000003000101011901F8
:1054900019FE0000000010041FFC0024004001B4AD
:1054A000010C010400000000100410041FFC0004A3
:1054B000000400000000010401FC0104010001FCE3
:1054C0000104010000FC010401FC00840100010052
:1054D000010400FC0004000000F8010401040104C0
:1054E000010400F80000010101FF0085010401042E
:1054F00000880070000000000070008801040104B2
:10550000010501FF00010104010401FC0084010404
:10551000010001800000000000CC012401240124CE
:1055200001240198000000000100010007F80104B7
:10553000010400000000010001F800040004000460
:10554000010801FC0004010001800170000C001042
:1055500001600180010001F0010C003001C0003049
:10556000010C01F0010000000104018C00740170C5
:10557000018C01040000010101810171000E00187D
:1055800001600180010000000184010C013401442C
:105590000184010C00000000000000000000010078
:1055A0003EFC400240020000000000000000FFFF3F
:1055B0000000000000000000400240023EFC01002C
:1055C000000000000000000060008000800040003B
:1055D000400020002000000000000000000000004B
:1055E00000000000000000000000000000000000BB
:1055F00000000000000000000000000000000000AB
:105600000000000000000000000F80380FFE380F7F
:1056100080380000000000000000000000000000D2
:10562000000000000100000600000C00003800002F
:105630003100000600000C000038000030000000BF
:1056400000000000000061800067F807F980006139
:10565000800061800061800061800067F807F98048
:1056600000618000000000000000000001C0E003B5
:10567000E0F00630080418081FFFFE040E08078734
:10568000F00381E000000000000001F000060C00C3
:10569000040408060C7001F9C0000E00003BE00095
:1056A000EC18070808040C180003E00000000001D3
:1056B000E00007F003F818041C0804170807E1D0FD
:1056C00003C0E00023B0003C0800200800001000E8
:1056D00000000000000100003100003200001C004A
:1056E00000000000000000000000000000000000BA
:1056F00000000000000000000000000000000000AA
:105700000000000000007F0001FFC00780F00C00D7
:105710001810000420000200000000000020000219
:105720001000040C00180780F001FFC0007F00008B
:105730000000000000000000000000000000000069
:1057400000004200006600006600003C00001800F7
:1057500003FFC0001800003C000066000066000067
:1057600042000000000008000008000008000008D7
:105770000000080001FFC000080000080000080049
:1057800000080000080000000000000100003100D7
:10579000003200001C0000000000000000000000BB
:1057A00000000000000000000000000000000800F1
:1057B00000080000080000080000080000080000C1
:1057C00008000008000008000008000000000000B9
:1057D0000000000000003800003800003800000021
:1057E00000000000000000000000000000000000B9
:1057F000000000000000000600001C000070000116
:1058000080000E0000380000C0000700001C0000EF
:10581000300000000000000000007F8001FFE00376
:1058200080700600180400080400080600180380B1
:105830007001FFE0007F8000000000000000000019
:1058400001000801000801000803FFF807FFF80045
:105850000008000008000008000000000000000030
:105860000001C03802C0580400980401180402184E
:10587000040418061C1803F81801E0F800000000E2
:10588000000000000001C0E003C0F00400080408AC
:105890000804080806180803F41801E7F00001E0FE
:1058A000000000000000000000000300000D0000E8
:1058B000110000610000810803010807FFF80FFFD5
:1058C000F80001080001080000000000000000E0EE
:1058D00007FCD0060808061008061008061008067F
:1058E0001838060FF00607C0000000000000000096
:1058F00000003F8001FFE003843002081804100814
:10590000041008041008071810030FF00007C00067
:10591000000000000000000003C0000700000600B7
:10592000000600F80607F806180006E00007000069
:1059300006000000000000000001E1E003F7F006AF
:105940003410041808041808040C08040C0806167F
:105950001803F3F001C1E000000000000000F800AF
:1059600003FC300306380402080402080402080499
:1059700004100308F001FFC0007F000000000000D9
:10598000000000000000000000000000000070386F
:1059900000703800703800000000000000000000B7
:1059A00000000000000000000000000000000000F7
:1059B0000000301A00301C00000000000000000051
:1059C00000000000000000000000000000080000CF
:1059D000140000220000410000808001004002000D
:1059E0002004001008000800000000000000210052
:1059F0000021000021000021000021000021000002
:105A00002100002100002100002100000000000012
:105A100000000000080008040010020020010040FF
:105A200000808000410000220000140000080000F7
:105A3000000000000003C00004C0000400000800D3
:105A400038080F380808380810000C300007E0004C
:105A500003C000000000000000003F8000FFE003E2
:105A60008070020F1006708804C088048308047FC9
:105A70008802C09003012000FE40000008000018CA
:105A80000001F8003E0801C20007020007E2000022
:105A9000FE00001FC80001F80000380000080400E4
:105AA0000807FFF807FFF8040808040808040808B6
:105AB00004080806180803F41801E7F00001E000E4
:105AC0000000000000003F8001FFE0038070020042
:105AD0001804000804000804000804001006002050
