:020000040800F2
:1000000050070020D5010008D9010008DB010008D5
:10001000DD010008DF010008E10100080000000028
:10002000000000000000000000000000E3010008E4
:10003000E501000800000000E7010008E9010008F0
:10004000EB010008EB010008EB010008EB010008E0
:10005000EB010008EB010008EB010008EB010008D0
:10006000EB010008EB010008EB0100086504000843
:10007000EB010008EB010008EB010008EB010008B0
:10008000EB010008EB010008EB010008EB010008A0
:10009000EB010008EB010008EB010008EB01000890
:1000A000EB010008EB010008EB010008EB01000880
:1000B000EB010008EB010008EB010008EB01000870
:1000C000EB010008EB010008EB010008EB01000860
:1000D000EB01000891040008EB010008EB010008A7
:1000E000EB010008EB010008EB010008EB01000840
:1000F000EB010008EB010008EB010008EB01000830
:10010000EB010008EB010008EB010008EB0100081F
:10011000EB010008EB010008EB010008EB0100080F
:10012000EB010008EB010008EB010008EB010008FF
:1001300000F002F800F03FF80AA090E8000C8244BA
:100140008344AAF10107DA4501D100F034F8AFF297
:10015000090EBAE80F0013F0010F18BFFB1A43F0A5
:1001600001031847507B0000707B0000103A24BF49
:1001700078C878C1FAD8520724BF30C830C144BF0C
:1001800004680C607047000000230024002500264E
:10019000103A28BF78C1FBD8520728BF30C148BFEA
:1001A0000B607047782900F07380002070471FB5FE
:1001B0001FBD10B510BD00F023F91146FFF7F7FF82
:1001C00003F044FE00F041F903B4FFF7F2FF03BC73
:1001D00000F0A0F908480047FEE7FEE7FEE7FEE76B
:1001E000FEE7FEE7FEE7FEE7FEE7FEE70348044919
:1001F000044A054B704700003101000850010020FF
:1002000050070020500300205003002070470000DA
:100210000FB4044910B503AA029800F0C3F810BC4B
:100220005DF814FB040000202DE9F0410E46044661
:10023000002020622046E168884730B3252805D099
:10024000D4E901219047206A401CF2E7E16820468A
:1002500000278847050018D0A5F14100192802D8C9
:1002600020354FF400673246294620462760FFF7C5
:1002700099FF40B1012804D0F61D26F00706083684
:10028000D8E7361DD6E72846DAE7206ABDE8F081D0
:1002900070B504460D4621461068AFF300802188F2
:1002A000090502D50F4A7A4402E00E4A7A440E321A
:1002B000002104F1240305E000F00F060009965D1B
:1002C0005E54491C0028F7D120780023000704D58C
:1002D000702D02D009B1022311322046BDE87040D2
:1002E00000F006B8E079000070477047704770472B
:1002F0002DE9F0470D4699469246044600F1240840
:100300000168880604D5E06921F01001216000E051
:100310000120A84201DD471B00E00027A1697A19EE
:1003200002EB0900081AA0612078C00602D420461A
:10033000AFF30080002608E0D4E901211AF8060096
:100340009047206A401C761C20624E45F4DB2078E2
:10035000C0060AD52046AFF3008006E0D4E90121AB
:1003600030209047206A401C2062381EA7F1010708
:10037000F4DC07E0D4E9012118F805009047206A71
:10038000401C2062281EA5F10105F3DC2046AFF3D6
:1003900000802078000602D50220BDE8F087012009
:1003A000FBE70000074B70B50D467B4400F011F8E9
:1003B0000446284600F020F810B14FF0FF3070BD21
:1003C000204670BD7704000001694A1C026108786C
:1003D000704700B58FB0CDE9013100210591054985
:1003E0007944CDE9031011466846FFF71DFF0FB0B1
:1003F00000BD0000E5FFFFFF007B00F080007047BC
:10040000754600F02BF8AE4605006946534620F0CD
:100410000700854618B020B5FFF7E8FEBDE820408C
:100420004FF000064FF000074FF000084FF0000BB0
:1004300021F00701AC46ACE8C009ACE8C009ACE863
:10044000C009ACE8C0098D46704710B50446AFF34B
:1004500000802046BDE81040FFF7B6BE0048704758
:10046000F00000200848006800F0020050B10120B0
:100470000649087000BF0448406840F00200024985
:10048000486000BF704700000000024014000020D8
:100490001D49096801F0200111B31B49091D0968B4
:1004A000C8B21A49098801F40041C9B91749098835
:1004B00001F4804161B10A2803D00021134A118060
:1004C00020E01249098841F40041104A118019E0E6
:1004D0000D2806D10D49098841F480410B4A11804D
:1004E00010E00A490988C1F30D01094A505407492F
:1004F0000988491C054A118011460988C72901DD70
:1005000000211180704700000038014008000020E1
:100510001800002000BF704730B50A290EDA0369C1
:1005200001EB41050724AC40A3430361036901EBE0
:1005300041050724AC402343036111E0C368A1F1E6
:100540000A0404EB44050724AC40A343C360C3681A
:10055000A1F10A0404EB44050724AC402343C36023
:1005600030BD000010B50446072221461048FFF7B1
:10057000D3FF0F483430006820F01F000C4934319D
:100580000860084600682043086009480830006891
:1005900040F4800006490831086000BF0448006844
:1005A00000F002000028F9D001484C30006810BD6E
:1005B000002401402DE9F04107460C4600250026A5
:1005C00008E03846FFF7CEFF0544052000F0FCF8B0
:1005D000701CC6B2A642F4DBB5FBF4F0BDE8F081B6
:1005E0002DE9F05F14211020FFF7E4FF8346584601
:1005F00004F032FB804604F003FB06464FF06632FF
:10060000124B04F015F904460D4622462B461048BD
:10061000104904F00BFA80460F4A104B03F040FFDC
:10062000064600220E4B03F093FE04460D460022C0
:100630000C4B2046294604F0FBF8064604F088F8E7
:100640000FFA80FA5046BDE8F09F000066664A3F08
:10065000E17A14AE47E1F63F22FDF675E09C713F6A
:1006600000003940000059401CB500BF4248806975
:1006700040F004004049886100BF00BF084680691F
:1006800040F40070886100BF012000900023032225
:1006900002210190394803F0F3FC3748C06840F468
:1006A000C0603549C8600846C06820F4C060C860B2
:1006B0000846406820F4404048600846406840F4DE
:1006C000004048602E48006820F470202C490860E3
:1006D0000846006808600846006820F480700860DA
:1006E000081D006820F00200091D08600846006827
:1006F00020F4602008600846006840F4602008602C
:100700000846006840F4801008600846006820F43D
:10071000006008601A482830006820F4700018490A
:10072000283108600846006808601548001D006808
:1007300040F001001249091D08600846006840F0B9
:100740000800086000BF0E48001D006800F00800A7
:100750000028F8D10A48001D006840F0040008494C
:10076000091D086000BF0648001D006800F0040075
:100770000028F8D11CBD0000001002400008014014
:100780000424014010B5FFF76FFF0348006840F4F0
:1007900000000149086010BD082401404FF0E0212D
:1007A000096941F004014FF0E02211610549086038
:1007B0001146096941F0010111616FF07041516109
:1007C000704700000000002010B504464FF47A7115
:1007D00004FB01F000F002F810BD000070B5034604
:1007E00000224FF0E02675690D4E366803FB06F4D3
:1007F0004FF0E026B16910E04FF0E026B069884282
:100800000BD0884202D20E1A324402E02E1A0E4455
:1008100032440146A24200D300E0EDE700BF70BDC4
:100820000000002000BF054A126802F04002002AC2
:10083000F9D0C2B2014B1B1D1A607047003801404D
:1008400070B50446002609480588408845430021C4
:10085000084603F0ABF803F0B3FA00BF02E0044827
:100860000480761CAE42FAD370BD0000E000002088
:100870000008006C10B5044658488471002C58D10B
:10088000F020564908804FF4A070488008468088C0
:1008900045F21051884210D14FF430504F49088131
:1008A0004FF4285048814FF42C5088814FF4F07059
:1008B00008804FF4487048801AE04848808841F624
:1008C000631188420DD12C20444908812B20488196
:1008D0002A2088814FF4F07008804FF448704880D7
:1008E00006E02C203D4908812A2048812B20888160
:1008F0003A48808845F21031884205D037488088D0
:1009000047F29671884206D14FF4A07033490880AF
:100910004FF4F07048803148808849F606018842DB
:1009200058D14FF4F0702D4908804FF4487048803A
:1009300050E04FF4A07029490880F0204880084614
:10094000808845F21051884210D14FF4305023492D
:1009500008814FF4285048814FF42C5088814FF47F
:10096000487008804FF4F070488020E01B48808871
:1009700041F66311884205D01848808849F606017F
:1009800088420DD12C20154908812A2048812B202E
:1009900088814FF4487008804FF4F070488006E07A
:1009A0002C200E4908812A2048812B2088810B4861
:1009B000808845F21031884205D00848808847F287
:1009C0009671884206D14FF4F070044908804FF4C4
:1009D000A0704880002002F0CBFE10BDE000002097
:1009E00070B505460E4614463146284602F0DEFF35
:1009F00003F0E6F901490C8070BD00000008006CAE
:100A000010B5CF2003F0D0F9002003F0C1F9C120C8
:100A100003F0BEF9302003F0BBF9ED2003F0C4F978
:100A2000642003F0B5F9032003F0B2F9122003F0BB
:100A3000AFF9812003F0ACF9E82003F0B5F9852087
:100A400003F0A6F9102003F0A3F97A2003F0A0F92F
:100A5000CB2003F0A9F9392003F09AF92C2003F0F8
:100A600097F9002003F094F9342003F091F9022063
:100A700003F08EF9F72003F097F9202003F088F9AE
:100A8000EA2003F091F9002003F082F9002003F03E
:100A90007FF9C02003F088F91B2003F079F9C12009
:100AA00003F082F9012003F073F9C52003F07CF90B
:100AB000302003F06DF9302003F06AF9C72003F00D
:100AC00073F9B72003F064F9362003F06DF948207C
:100AD00003F05EF93A2003F067F9552003F058F966
:100AE000B12003F061F9002003F052F91A2003F05D
:100AF0004FF9B62003F058F90A2003F049F9A22073
:100B000003F046F9F22003F04FF9002003F040F91A
:100B1000262003F049F9012003F03AF9E02003F020
:100B200043F90F2003F034F92A2003F031F928208B
:100B300003F02EF9082003F02BF90E2003F028F91A
:100B4000082003F025F9542003F022F9A92003F02E
:100B50001FF9432003F01CF90A2003F019F90F20B4
:100B600003F016F9002003F013F9002003F010F948
:100B7000002003F00DF9002003F00AF9E12003F052
:100B800013F9002003F004F9152003F001F91720F0
:100B900003F0FEF8072003F0FBF8112003F0F8F84B
:100BA000062003F0F5F82B2003F0F2F8562003F0AE
:100BB000EFF83C2003F0ECF8052003F0E9F81020F2
:100BC00003F0E6F80F2003F0E3F83F2003F0E0F82D
:100BD0003F2003F0DDF80F2003F0DAF82B2003F0BC
:100BE000E3F8002003F0D4F8002003F0D1F801204E
:100BF00003F0CEF83F2003F0CBF82A2003F0D4F81E
:100C0000002003F0C5F8002003F0C2F8002003F034
:100C1000BFF8EF2003F0BCF8112003F0C5F87820EE
:100C2000FFF7D2FD292003F0BFF810BD10B5FF205B
:100C300003F0BAF8FF2003F0ABF8982003F0A8F80F
:100C4000062003F0A5F8BC2003F0AEF8012003F065
:100C50009FF80F2003F09CF8612003F099F8FF2023
:100C600003F096F8012003F093F8012003F090F8C8
:100C70000B2003F08DF8102003F08AF8372003F0E2
:100C800087F8632003F084F8FF2003F081F8FF2049
:100C900003F07EF8012003F07BF8012003F078F8E0
:100CA000002003F075F8002003F072F8FF2003F035
:100CB0006FF8522003F06CF8012003F069F800206F
:100CC00003F066F8402003F063F8BD2003F06CF8F1
:100CD000012003F05DF8232003F05AF8452003F0CB
:100CE00057F8672003F054F8012003F051F823204F
:100CF00003F04EF8452003F04BF8672003F048F866
:100D0000BE2003F051F8002003F042F8012003F068
:100D10003FF8AB2003F03CF8602003F039F82220C4
:100D200003F036F8222003F033F8222003F030F8E5
:100D3000222003F02DF8222003F02AF8C72003F028
:100D400033F8362003F024F8ED2003F02DF87F204F
:100D500003F01EF80F2003F01BF8C02003F024F866
:100D60000F2003F015F80B2003F012F80A2003F00F
:100D70000FF8FC2003F018F8082003F009F8DF2032
:100D800003F012F8002003F003F8002003F000F84D
:100D9000002002F0FDFF002002F0FAFF002002F028
:100DA000F7FF202002F0F4FFF32002F0FDFF742093
:100DB00002F0EEFFB42002F0F7FF002002F0E8FF9F
:100DC000002002F0E5FF002002F0E2FFF72002F031
:100DD000EBFF822002F0DCFFB12002F0E5FF0020F3
:100DE00002F0D6FF132002F0D3FF132002F0D0FF51
:100DF000F22002F0D9FF802002F0CAFF042002F0A6
:100E0000C7FF402002F0C4FF282002F0C1FFC1202C
:100E100002F0CAFF172002F0BBFF882002F0B8FFE3
:100E2000882002F0B5FF202002F0B2FFE02002F09F
:100E3000BBFF002002F0ACFF0A2002F0A9FF122045
:100E400002F0A6FF102002F0A3FF0E2002F0A0FF88
:100E5000202002F09DFFCC2002F09AFF072002F034
:100E600097FF062002F094FF0B2002F091FF0E2066
:100E700002F08EFF0F2002F08BFF0D2002F088FFA2
:100E8000152002F085FF102002F082FF002002F002
:100E90007FFFE12002F088FF002002F079FF0B20A5
:100EA00002F076FF132002F073FF0D2002F070FFB6
:100EB0000E2002F06DFF1B2002F06AFF712002F08D
:100EC00067FF062002F064FF062002F061FF0A209F
:100ED00002F05EFF0F2002F05BFF0E2002F058FFD1
:100EE0000F2002F055FF152002F052FF0C2002F0F7
:100EF0004FFF002002F04CFF2A2002F055FF002097
:100F000002F046FF002002F043FF012002F040FF04
:100F1000DF2002F03DFF2B2002F046FF002002F010
:100F200037FF002002F034FF032002F031FF1F20C2
:100F300002F02EFF3A2002F037FF552002F028FF82
:100F4000362002F031FF002002F022FF112002F0D3
:100F50002BFF7820FFF738FC292002F025FF142012
:100F6000FFF732FC2C2002F01FFF10BD10B5ED2062
:100F700002F01AFF012002F00BFFFE2002F008FF32
:100F8000EE2002F011FFDE2002F002FF212002F02D
:100F9000FFFEF12002F008FF012002F0F9FEDF2041
:100FA00002F002FF102002F0F3FEC42002F0FCFE6B
:100FB0008F2002F0EDFEC62002F0F6FE002002F0C7
:100FC000E7FEE22002F0E4FEE22002F0E1FEE22091
:100FD00002F0DEFEBF2002F0E7FEAA2002F0D8FEFB
:100FE000B02002F0E1FE0D2002F0D2FE002002F05F
:100FF000CFFE0D2002F0CCFE002002F0C9FE112031
:1010000002F0C6FE002002F0C3FE192002F0C0FE6E
:10101000002002F0BDFE212002F0BAFE002002F006
:10102000B7FE2D2002F0B4FE002002F0B1FE3D20FC
:1010300002F0AEFE002002F0ABFE5D2002F0A8FE42
:10104000002002F0A5FE5D2002F0A2FE002002F0CA
:101050009FFEB12002F0A8FE802002F099FE002041
:1010600002F096FE8B2002F093FE002002F090FE2C
:10107000962002F08DFE002002F08AFEB22002F0DF
:1010800093FE002002F084FE002002F081FE022088
:1010900002F07EFE002002F07BFE032002F078FECC
:1010A000002002F075FEB32002F07EFE002002F068
:1010B0006FFE002002F06CFE002002F069FE0020AE
:1010C00002F066FE002002F063FE002002F060FEE7
:1010D000002002F05DFE002002F05AFE002002F027
:1010E00057FE002002F054FE002002F051FE0020C6
:1010F00002F04EFE002002F04BFE002002F048FEFF
:10110000002002F045FE002002F042FE002002F026
:101110003FFE002002F03CFE002002F039FE0020DD
:1011200002F036FE002002F033FE002002F030FE16
:10113000002002F02DFE002002F02AFEB42002F072
:1011400033FE8B2002F024FE002002F021FE9620C8
:1011500002F01EFE002002F01BFEA12002F018FE8D
:10116000002002F015FEB52002F01EFE022002F063
:101170000FFE002002F00CFE032002F009FE00200A
:1011800002F006FE042002F003FE002002F000FE42
:10119000B62002F009FE002002F0FAFD002002F065
:1011A000F7FDB72002F000FE002002F0F1FD002064
:1011B00002F0EEFD3F2002F0EBFD002002F0E8FD22
:1011C0005E2002F0E5FD002002F0E2FD642002F066
:1011D000DFFD002002F0DCFD8C2002F0D9FD0020B4
:1011E00002F0D6FDAC2002F0D3FD002002F0D0FDCD
:1011F000DC2002F0CDFD002002F0CAFD702002F0DC
:10120000C7FD002002F0C4FD902002F0C1FD0020C7
:1012100002F0BEFDEB2002F0BBFD002002F0B8FDA5
:10122000DC2002F0B5FD002002F0B2FDB82002F093
:10123000BBFD002002F0ACFD002002F0A9FD002063
:1012400002F0A6FD002002F0A3FD002002F0A0FDA8
:10125000002002F09DFD002002F09AFD002002F027
:1012600097FDBA2002F0A0FD242002F091FD00209D
:1012700002F08EFD002002F08BFD002002F088FDC0
:10128000C12002F091FD202002F082FD002002F03A
:101290007FFD542002F07CFD002002F079FDFF204C
:1012A00002F076FD002002F073FDC22002F07CFD0A
:1012B0000A2002F06DFD002002F06AFD042002F019
:1012C00067FD002002F064FDC32002F06DFD3C20AC
:1012D00002F05EFD002002F05BFD3A2002F058FDB6
:1012E000002002F055FD392002F052FD002002F0EE
:1012F0004FFD372002F04CFD002002F049FD3C205C
:1013000002F046FD002002F043FD362002F040FDD1
:10131000002002F03DFD322002F03AFD002002F0F4
:1013200037FD2F2002F034FD002002F031FD2C208B
:1013300002F02EFD002002F02BFD292002F028FDF6
:10134000002002F025FD262002F022FD002002F000
:101350001FFD242002F01CFD002002F019FD2420B6
:1013600002F016FD002002F013FD232002F010FD14
:10137000002002F00DFD3C2002F00AFD002002F0EA
:1013800007FD362002F004FD002002F001FD3220AE
:1013900002F0FEFC002002F0FBFC2F2002F0F8FC23
:1013A000002002F0F5FC2C2002F0F2FC002002F0FC
:1013B000EFFC292002F0ECFC002002F0E9FC2620E2
:1013C00002F0E6FC002002F0E3FC242002F0E0FC46
:1013D000002002F0DDFC242002F0DAFC002002F004
:1013E000D7FC232002F0D4FC002002F0D1FCC42062
:1013F00002F0DAFC622002F0CBFC002002F0C8FC14
:10140000052002F0C5FC002002F0C2FC842002F09E
:10141000BFFC002002F0BCFCF02002F0B9FC002070
:1014200002F0B6FC182002F0B3FC002002F0B0FC81
:10143000A42002F0ADFC002002F0AAFC182002F06B
:10144000A7FC002002F0A4FC502002F0A1FC002028
:1014500002F09EFC0C2002F09BFC002002F098FCA5
:10146000172002F095FC002002F092FC952002F07B
:101470008FFC002002F08CFCF32002F089FC00209D
:1014800002F086FCE62002F083FC002002F080FCE3
:10149000C52002F089FC322002F07AFC002002F024
:1014A00077FC442002F074FC002002F071FC6520FF
:1014B00002F06EFC002002F06BFC762002F068FC6B
:1014C000002002F065FC882002F062FC002002F09F
:1014D0005FFCC62002F068FC202002F059FC0020CE
:1014E00002F056FC172002F053FC002002F050FCE2
:1014F000012002F04DFC002002F04AFCC72002F05F
:1015000053FC002002F044FC002002F041FC0020CB
:1015100002F03EFC002002F03BFCC82002F044FC3C
:10152000002002F035FC002002F032FC002002F026
:101530002FFC002002F02CFCC92002F035FC00201A
:1015400002F026FC002002F023FC002002F020FC28
:10155000002002F01DFC002002F01AFC002002F026
:1015600017FC002002F014FC002002F011FC002007
:1015700002F00EFC002002F00BFC002002F008FC40
:10158000002002F005FC002002F002FC002002F026
:10159000FFFB002002F0FCFB002002F0F9FBE02042
:1015A00002F002FC162002F0F3FB002002F0F0FB38
:1015B0001C2002F0EDFB002002F0EAFB212002F0EB
:1015C000E7FB002002F0E4FB362002F0E1FB002004
:1015D00002F0DEFB462002F0DBFB002002F0D8FB2D
:1015E000522002F0D5FB002002F0D2FB642002F072
:1015F000CFFB002002F0CCFB7A2002F0C9FB0020D8
:1016000002F0C6FB8B2002F0C3FB002002F0C0FBFF
:10161000992002F0BDFB002002F0BAFBA82002F0E6
:10162000B7FB002002F0B4FBB92002F0B1FB0020B0
:1016300002F0AEFBC42002F0ABFB002002F0A8FBDE
:10164000CA2002F0A5FB002002F0A2FBD22002F08B
:101650009FFB002002F09CFBD92002F099FB0020A8
:1016600002F096FBE02002F093FB002002F090FBDA
:10167000F32002F08DFB002002F08AFBE12002F053
:1016800093FB162002F084FB002002F081FB1C205B
:1016900002F07EFB002002F07BFB222002F078FBB0
:1016A000002002F075FB362002F072FB002002F0F1
:1016B0006FFB452002F06CFB002002F069FB52201A
:1016C00002F066FB002002F063FB642002F060FB86
:1016D000002002F05DFB7A2002F05AFB002002F0AD
:1016E00057FB8B2002F054FB002002F051FB9920A5
:1016F00002F04EFB002002F04BFBA82002F048FB5A
:10170000002002F045FBB92002F042FB002002F06D
:101710003FFBC42002F03CFB002002F039FBCA2052
:1017200002F036FB002002F033FBD22002F030FB47
:10173000002002F02DFBD82002F02AFB002002F04E
:1017400027FBE02002F024FB002002F021FBF32025
:1017500002F01EFB002002F01BFBE22002F024FB43
:10176000052002F015FB002002F012FB0B2002F016
:101770000FFB002002F00CFB1B2002F009FB0020F5
:1017800002F006FB342002F003FB002002F000FB15
:10179000442002F0FDFA002002F0FAFA4F2002F095
:1017A000F7FA002002F0F4FA612002F0F1FA0020CA
:1017B00002F0EEFA792002F0EBFA002002F0E8FAEB
:1017C000882002F0E5FA002002F0E2FA972002F009
:1017D000DFFA002002F0DCFAA62002F0D9FA00209D
:1017E00002F0D6FAB72002F0D3FA002002F0D0FAC5
:1017F000C22002F0CDFA002002F0CAFAC72002F09F
:10180000C7FA002002F0C4FAD12002F0C1FA002089
:1018100002F0BEFAD62002F0BBFA002002F0B8FABD
:10182000DD2002F0B5FA002002F0B2FAF32002F057
:10183000AFFA002002F0ACFAE32002F0B5FA05207E
:1018400002F0A6FA002002F0A3FA0A2002F0A0FAA1
:10185000002002F09DFA1C2002F09AFA002002F00B
:1018600097FA332002F094FA002002F091FA442013
:1018700002F08EFA002002F08BFA502002F088FA73
:10188000002002F085FA622002F082FA002002F0C5
:101890007FFA782002F07CFA002002F079FA8820A2
:1018A00002F076FA002002F073FA972002F070FA44
:1018B000002002F06DFAA62002F06AFA002002F081
:1018C00067FAB72002F064FA002002F061FAC22041
:1018D00002F05EFA002002F05BFAC72002F058FA2C
:1018E000002002F055FAD12002F052FA002002F056
:1018F0004FFAD52002F04CFA002002F049FADD2020
:1019000002F046FA002002F043FAF32002F040FA17
:10191000002002F03DFAE42002F046FA012002F035
:1019200037FA002002F034FA012002F031FA0020E8
:1019300002F02EFA022002F02BFA002002F028FA20
:101940002A2002F025FA002002F022FA3C2002F0C0
:101950001FFA002002F01CFA4B2002F019FA0020B6
:1019600002F016FA5D2002F013FA002002F010FADD
:10197000742002F00DFA002002F00AFA842002F02E
:1019800007FA002002F004FA932002F001FA002086
:1019900002F0FEF9A22002F0FBF9002002F0F8F9B3
:1019A000B32002F0F5F9002002F0F2F9BE2002F0B7
:1019B000EFF9002002F0ECF9C42002F0E9F9002070
:1019C00002F0E6F9CD2002F0E3F9002002F0E0F9A0
:1019D000D32002F0DDF9002002F0DAF9DD2002F078
:1019E000D7F9002002F0D4F9F32002F0D1F9002059
:1019F00002F0CEF9E52002F0D7F9002002F0C8F994
:101A0000002002F0C5F9002002F0C2F9002002F027
:101A1000BFF9022002F0BCF9002002F0B9F9292038
:101A200002F0B6F9002002F0B3F93C2002F0B0F960
:101A3000002002F0ADF94B2002F0AAF9002002F0DC
:101A4000A7F95D2002F0A4F9002002F0A1F97420AA
:101A500002F09EF9002002F09BF9842002F098F930
:101A6000002002F095F9932002F092F9002002F094
:101A70008FF9A22002F08CF9002002F089F9B3203E
:101A800002F086F9002002F083F9BE2002F080F90E
:101A9000002002F07DF9C42002F07AF9002002F063
:101AA00077F9CD2002F074F9002002F071F9D3200B
:101AB00002F06EF9002002F06BF9DC2002F068F908
:101AC000002002F065F9F32002F062F9002002F034
:101AD0005FF9E62002F068F9112002F059F90020C0
:101AE00002F056F9342002F053F9002002F050F9C8
:101AF000562002F04DF9002002F04AF9762002F05B
:101B000047F9002002F044F9772002F041F9002063
:101B100002F03EF9662002F03BF9002002F038F9AD
:101B2000882002F035F9002002F032F9992002F005
:101B30002FF9002002F02CF9BB2002F029F9002037
:101B400002F026F9992002F023F9002002F020F992
:101B5000662002F01DF9002002F01AF9552002F06B
:101B600017F9002002F014F9552002F011F90020B5
:101B700002F00EF9452002F00BF9002002F008F9FE
:101B8000432002F005F9002002F002F9442002F09F
:101B9000FFF8002002F0FCF8E72002F005F93220FF
:101BA00002F0F6F8002002F0F3F8552002F0F0F809
:101BB000002002F0EDF8762002F0EAF8002002F0B2
:101BC000E7F8662002F0E4F8002002F0E1F8672070
:101BD00002F0DEF8002002F0DBF8672002F0D8F80F
:101BE000002002F0D5F8872002F0D2F8002002F0A1
:101BF000CFF8992002F0CCF8002002F0C9F8BB2001
:101C000002F0C6F8002002F0C3F8992002F0C0F8F4
:101C1000002002F0BDF8772002F0BAF8002002F0B0
:101C2000B7F8442002F0B4F8002002F0B1F85620D2
:101C300002F0AEF8002002F0ABF8232002F0A8F882
:101C4000002002F0A5F8332002F0A2F8002002F0F4
:101C50009FF8452002F09CF8002002F099F8E82057
:101C600002F0A2F8002002F093F8002002F090F8B1
:101C7000992002F08DF8002002F08AF8872002F007
:101C800087F8002002F084F8882002F081F8002014
:101C900002F07EF8772002F07BF8002002F078F85E
:101CA000662002F075F8002002F072F8882002F039
:101CB0006FF8002002F06CF8AA2002F069F800200A
:101CC00002F066F8BB2002F063F8002002F060F832
:101CD000992002F05DF8002002F05AF8662002F028
:101CE00057F8002002F054F8552002F051F8002077
:101CF00002F04EF8552002F04BF8002002F048F8B0
:101D0000442002F045F8002002F042F8442002F09E
:101D10003FF8002002F03CF8552002F039F800208E
:101D200002F036F8E92002F03FF8AA2002F030F87D
:101D3000002002F02DF8002002F02AF8002002F026
:101D400027F8002002F030F8AA2002F021F8CF2076
:101D500002F02AF8002002F01BF8002002F018F828
:101D6000002002F015F8002002F012F8002002F026
:101D70000FF8002002F00CF8002002F009F8002013
:101D800002F006F8002002F003F8002002F000F84C
:101D9000002001F0FDFF002001F0FAFF002001F01B
:101DA000F7FF002001F0F4FF002001F0F1FF002018
:101DB00001F0EEFF002001F0EBFFF02001F0F4FF56
:101DC000002001F0E5FF502001F0E2FF002001F0CB
:101DD000DFFF002001F0DCFF002001F0D9FFF3203D
:101DE00001F0E2FF002001F0D3FFF92001F0DCFF59
:101DF000062001F0CDFF102001F0CAFF292001F0DC
:101E0000C7FF002001F0C4FF3A2001F0CDFF5520AC
:101E100001F0BEFF112001F0C7FF6420FEF7D4FCE3
:101E2000292001F0C1FF352001F0BEFF002001F0A4
:101E3000AFFF512001F0B8FFFF2001F0A9FF5320B0
:101E400001F0B2FF2C2001F0A3FF552001F0ACFF00
:101E5000822001F09DFF2C2001F0A6FF10BD10B5DF
:101E600055214FF4704001F0B5FFAA214FF2010057
:101E700001F0B0FF52214FF2020001F0ABFF082148
:101E80004FF2030001F0A6FF01214FF2040001F020
:101E9000A1FF34214FF4364001F09CFF34214BF276
:101EA000016001F097FF34214BF2026001F092FFD4
:101EB0000D214FF4304001F08DFF0D214BF2010058
:101EC00001F088FF0D214BF2020001F083FF242175
:101ED0004FF4374001F07EFF24214BF2017001F0F6
:101EE00079FF24214BF2027001F074FF0D214FF4B1
:101EF000314001F06FFF0D214BF2011001F06AFF3C
:101F00000D214BF2021001F065FF24214FF43840FF
:101F100001F060FF24214BF6010001F05BFF24215A
:101F20004BF6020001F056FF00214FF4324001F061
:101F300051FF24214FF4394001F04CFF24214BF68E
:101F4000011001F047FF24214BF6021001F042FF7F
:101F500005214FF4334001F03DFF05214BF20130E4
:101F600001F038FF05214BF2023001F033FF34213C
:101F70004FF43A4001F02EFF34214BF6012001F0DE
:101F800029FF34214BF6022001F024FF0B214FF4EE
:101F9000354001F01FFF0B214BF2015001F01AFFF9
:101FA0000B214BF2025001F015FF00214FF43C4091
:101FB00001F010FFA3214BF6014001F00BFF0021BF
:101FC0004BF6024001F006FF00214FF43D4001F0C6
:101FD00001FFA3214BF6015001F0FCFE00214BF65E
:101FE000025001F0F7FE00214FF43E4001F0F2FEF6
:101FF00037214BF6016001F0EDFE00214FF4514016
:1020000001F0E8FE37214DF2011001F0E3FE00215E
:102010004DF2021001F0DEFE53214DF2031001F0EB
:10202000D9FE00214DF2041001F0D4FE79214DF2C9
:10203000051001F0CFFE00214DF2061001F0CAFE9E
:1020400097214DF2071001F0C5FE00214DF2081056
:1020500001F0C0FEB1214DF2091001F0BBFE0021DC
:102060004DF20A1001F0B6FED5214DF20B1001F031
:10207000B1FE00214DF20C1001F0ACFEF4214DF246
:102080000D1001F0A7FE01214DF20E1001F0A2FE8D
:1020900023214DF20F1001F09DFE01214DF2101091
:1020A00001F098FE49214DF2111001F093FE01213B
:1020B0004DF2121001F08EFE87214DF2131001F047
:1020C00089FE01214DF2141001F084FEB6214DF27B
:1020D000151001F07FFE02214DF2161001F07AFE7C
:1020E00000214DF2171001F075FE02214DF218107B
:1020F00001F070FE3B214DF2191001F06BFE022140
:102100004DF21A1001F066FE3D214DF21B1001F058
:1021100061FE02214DF21C1001F05CFE75214DF2B2
:102120001D1001F057FE02214DF21E1001F052FE6B
:10213000B1214DF21F1001F04DFE02214DF2201091
:1021400001F048FED5214DF2211001F043FE03219C
:102150004DF2221001F03EFE09214DF2231001F054
:1021600039FE03214DF2241001F034FE28214DF2F6
:10217000251001F02FFE03214DF2261001F02AFE5A
:1021800052214DF2271001F025FE03214DF22810B7
:1021900001F020FE6B214DF2291001F01BFE0321FE
:1021A0004DF22A1001F016FE8D214DF22B1001F098
:1021B00011FE03214DF22C1001F00CFEA2214DF274
:1021C0002D1001F007FE03214DF22E1001F002FE4A
:1021D000BB214DF22F1001F0FDFD03214DF2301017
:1021E00001F0F8FDC1214DF2311001F0F3FD0321A2
:1021F0004DF2321001F0EEFDC1214DF2331001F02D
:10220000E9FD00214FF4524001F0E4FD37214DF289
:10221000012001F0DFFD00214DF2022001F0DAFD86
:1022200053214DF2032001F0D5FD00214DF2042091
:1022300001F0D0FD79214DF2052001F0CBFD002108
:102240004DF2062001F0C6FD97214DF2072001F066
:10225000C1FD00214DF2082001F0BCFDB1214DF27D
:10226000092001F0B7FD00214DF20A2001F0B2FD76
:10227000D5214DF20B2001F0ADFD00214DF20C20D7
:1022800001F0A8FDF4214DF20D2001F0A3FD012184
:102290004DF20E2001F09EFD23214DF20F2001F0A2
:1022A00099FD01214DF2102001F094FD49214DF2DC
:1022B000112001F08FFD01214DF2122001F08AFD65
:1022C00087214DF2132001F085FD01214DF21420EC
:1022D00001F080FDB6214DF2152001F07BFD0221B9
:1022E0004DF2162001F076FD00214DF2172001F08D
:1022F00071FD02214DF2182001F06CFD3B214DF2E1
:10230000192001F067FD02214DF21A2001F062FD53
:102310003D214DF21B2001F05DFD02214DF21C20FC
:1023200001F058FD75214DF21D2001F053FD0221F1
:102330004DF21E2001F04EFDB1214DF21F2001F0A3
:1023400049FD02214DF2202001F044FDD5214DF23E
:10235000212001F03FFD03214DF2222001F03AFD42
:1023600009214DF2232001F035FD03214DF22420F7
:1023700001F030FD28214DF2252001F02BFD032135
:102380004DF2262001F026FD52214DF2272001F0CA
:1023900021FD03214DF2282001F01CFD6B214DF29F
:1023A000292001F017FD03214DF22A2001F012FD32
:1023B0008D214DF22B2001F00DFD03214DF22C203B
:1023C00001F008FDA2214DF22D2001F003FD0321B3
:1023D0004DF22E2001F0FEFCBB214DF22F2001F02A
:1023E000F9FC03214DF2302001F0F4FCC1214DF243
:1023F000312001F0EFFC03214DF2322001F0EAFC24
:10240000C1214DF2332001F0E5FC00214FF453408F
:1024100001F0E0FC37214DF2013001F0DBFC00213E
:102420004DF2023001F0D6FC53214DF2033001F0A1
:10243000D1FC00214DF2043001F0CCFC79214DF2A9
:10244000053001F0C7FC00214DF2063001F0C2FC5E
:1024500097214DF2073001F0BDFC00214DF208300C
:1024600001F0B8FCB1214DF2093001F0B3FC0021BC
:102470004DF20A3001F0AEFCD5214DF20B3001F0E7
:10248000A9FC00214DF20C3001F0A4FCF4214DF226
:102490000D3001F09FFC01214DF20E3001F09AFC4D
:1024A00023214DF20F3001F095FC01214DF2103047
:1024B00001F090FC49214DF2113001F08BFC01211B
:1024C0004DF2123001F086FC87214DF2133001F0FD
:1024D00081FC01214DF2143001F07CFCB6214DF25B
:1024E000153001F077FC02214DF2163001F072FC3C
:1024F00000214DF2173001F06DFC02214DF2183031
:1025000001F068FC3B214DF2193001F063FC02211F
:102510004DF21A3001F05EFC3D214DF21B3001F00E
:1025200059FC02214DF21C3001F054FC75214DF292
:102530001D3001F04FFC02214DF21E3001F04AFC2B
:10254000B1214DF21F3001F045FC02214DF2203047
:1025500001F040FCD5214DF2213001F03BFC03217C
:102560004DF2223001F036FC09214DF2233001F00A
:1025700031FC03214DF2243001F02CFC28214DF2D6
:10258000253001F027FC03214DF2263001F022FC1A
:1025900052214DF2273001F01DFC03214DF228306D
:1025A00001F018FC6B214DF2293001F013FC0321DE
:1025B0004DF22A3001F00EFC8D214DF22B3001F04E
:1025C00009FC03214DF22C3001F004FCA2214DF254
:1025D0002D3001F0FFFB03214DF22E3001F0FAFB0C
:1025E000BB214DF22F3001F0F5FB03214DF23030CD
:1025F00001F0F0FBC1214DF2313001F0EBFB032182
:102600004DF2323001F0E6FBC1214DF2333001F0E2
:10261000E1FB00214FF4544001F0DCFB37214DF287
:10262000014001F0D7FB00214DF2024001F0D2FB46
:1026300053214DF2034001F0CDFB00214DF2044047
:1026400001F0C8FB79214DF2054001F0C3FB0021E8
:102650004DF2064001F0BEFB97214DF2074001F01C
:10266000B9FB00214DF2084001F0B4FBB1214DF25D
:10267000094001F0AFFB00214DF20A4001F0AAFB36
:10268000D5214DF20B4001F0A5FB00214DF20C408D
:1026900001F0A0FBF4214DF20D4001F09BFB012164
:1026A0004DF20E4001F096FB23214DF20F4001F058
:1026B00091FB01214DF2104001F08CFB49214DF2BC
:1026C000114001F087FB01214DF2124001F082FB25
:1026D00087214DF2134001F07DFB01214DF21440A2
:1026E00001F078FBB6214DF2154001F073FB022199
:1026F0004DF2164001F06EFB00214DF2174001F043
:1027000069FB02214DF2184001F064FB3B214DF2C0
:10271000194001F05FFB02214DF21A4001F05AFB13
:102720003D214DF21B4001F055FB02214DF21C40B2
:1027300001F050FB75214DF21D4001F04BFB0221D1
:102740004DF21E4001F046FBB1214DF21F4001F059
:1027500041FB02214DF2204001F03CFBD5214DF21E
:10276000214001F037FB03214DF2224001F032FB02
:1027700009214DF2234001F02DFB03214DF22440AD
:1027800001F028FB28214DF2254001F023FB032115
:102790004DF2264001F01EFB52214DF2274001F080
:1027A00019FB03214DF2284001F014FB6B214DF27F
:1027B000294001F00FFB03214DF22A4001F00AFBF2
:1027C0008D214DF22B4001F005FB03214DF22C40F1
:1027D00001F000FBA2214DF22D4001F0FBFA032194
:1027E0004DF22E4001F0F6FABB214DF22F4001F0E0
:1027F000F1FA03214DF2304001F0ECFAC1214DF223
:10280000314001F0E7FA03214DF2324001F0E2FAE3
:10281000C1214DF2334001F0DDFA00214FF4554063
:1028200001F0D8FA37214DF2015001F0D3FA00211E
:102830004DF2025001F0CEFA53214DF2035001F057
:10284000C9FA00214DF2045001F0C4FA79214DF289
:10285000055001F0BFFA00214DF2065001F0BAFA1E
:1028600097214DF2075001F0B5FA00214DF20850C2
:1028700001F0B0FAB1214DF2095001F0ABFA00219C
:102880004DF20A5001F0A6FAD5214DF20B5001F09D
:10289000A1FA00214DF20C5001F09CFAF4214DF206
:1028A0000D5001F097FA01214DF20E5001F092FA0D
:1028B00023214DF20F5001F08DFA01214DF21050FD
:1028C00001F088FA49214DF2115001F083FA0121FB
:1028D0004DF2125001F07EFA87214DF2135001F0B3
:1028E00079FA01214DF2145001F074FAB6214DF23B
:1028F000155001F06FFA02214DF2165001F06AFAFC
:1029000000214DF2175001F065FA02214DF21850E6
:1029100001F060FA3B214DF2195001F05BFA0221FF
:102920004DF21A5001F056FA3D214DF21B5001F0C4
:1029300051FA02214DF21C5001F04CFA75214DF272
:102940001D5001F047FA02214DF21E5001F042FAEB
:10295000B1214DF21F5001F03DFA02214DF22050FD
:1029600001F038FAD5214DF2215001F033FA03215C
:102970004DF2225001F02EFA09214DF2235001F0C0
:1029800029FA03214DF2245001F024FA28214DF2B6
:10299000255001F01FFA03214DF2265001F01AFADA
:1029A00052214DF2275001F015FA03214DF2285023
:1029B00001F010FA6B214DF2295001F00BFA0321BE
:1029C0004DF22A5001F006FA8D214DF22B5001F004
:1029D00001FA03214DF22C5001F0FCF9A2214DF235
:1029E0002D5001F0F7F903214DF22E5001F0F2F9CC
:1029F000BB214DF22F5001F0EDF903214DF2305083
:102A000001F0E8F9C1214DF2315001F0E3F9032161
:102A10004DF2325001F0DEF9C1214DF2335001F098
:102A2000D9F900214FF4564001F0D4F937214DF285
:102A3000016001F0CFF900214DF2026001F0CAF906
:102A400053214DF2036001F0C5F900214DF20460FD
:102A500001F0C0F979214DF2056001F0BBF90021C8
:102A60004DF2066001F0B6F997214DF2076001F0D2
:102A7000B1F900214DF2086001F0ACF9B1214DF23D
:102A8000096001F0A7F900214DF20A6001F0A2F9F6
:102A9000D5214DF20B6001F09DF900214DF20C6043
:102AA00001F098F9F4214DF20D6001F093F9012144
:102AB0004DF20E6001F08EF923214DF20F6001F00E
:102AC00089F901214DF2106001F084F949214DF29C
:102AD000116001F07FF901214DF2126001F07AF9E5
:102AE00087214DF2136001F075F901214DF2146058
:102AF00001F070F9B6214DF2156001F06BF9022179
:102B00004DF2166001F066F900214DF2176001F0F8
:102B100061F902214DF2186001F05CF93B214DF2A0
:102B2000196001F057F902214DF21A6001F052F9D3
:102B30003D214DF21B6001F04DF902214DF21C6068
:102B400001F048F975214DF21D6001F043F90221B1
:102B50004DF21E6001F03EF9B1214DF21F6001F00F
:102B600039F902214DF2206001F034F9D5214DF2FE
:102B7000216001F02FF903214DF2226001F02AF9C2
:102B800009214DF2236001F025F903214DF2246063
:102B900001F020F928214DF2256001F01BF90321F5
:102BA0004DF2266001F016F952214DF2276001F036
:102BB00011F903214DF2286001F00CF96B214DF25F
:102BC000296001F007F903214DF22A6001F002F9B2
:102BD0008D214DF22B6001F0FDF803214DF22C60A8
:102BE00001F0F8F8A2214DF22D6001F0F3F8032175
:102BF0004DF22E6001F0EEF8BB214DF22F6001F096
:102C0000E9F803214DF2306001F0E4F8C1214DF202
:102C1000316001F0DFF803214DF2326001F0DAF8A3
:102C2000C1214DF2336001F0D5F855214FF47040C9
:102C300001F0D0F8AA214FF2010001F0CBF85221A7
:102C40004FF2020001F0C6F808214FF2030001F034
:102C5000C1F800214FF2040001F0BCF800214FF44C
:102C6000304001F0B7F805214BF2010001F0B2F855
:102C700002214BF2020001F0ADF805214BF20300F6
:102C800001F0A8F802214BF2040001F0A3F808219A
:102C90004FF4364001F09EF850214FF4354001F0DA
:102CA00099F805214FF4364001F094F800214FF4D3
:102CB000374001F08FF800214BF2017001F08AF8E3
:102CC00001214FF4384001F085F805214BF6010051
:102CD00001F080F805214BF6020001F07BF8052198
:102CE0004BF6030001F076F802214FF43C4001F06E
:102CF00071F800214BF6014001F06CF800214BF611
:102D0000024001F067F803214FF44C4001F062F8F3
:102D100000214CF6014001F05DF800214CF6024024
:102D200001F058F801214FF43D4001F053F884219F
:102D30004BF6015001F04EF807214BF6025001F01E
:102D400049F831214BF6035001F044F800214BF6CD
:102D5000045001F03FF801214FF43A4001F03AF8F5
:102D6000AA214FF47F4001F035F855214FF601704C
:102D700001F030F825214FF6027001F02BF8012107
:102D80004FF6037001F026F840214FF4585001F03F
:102D900021F800214FF4545001F01CF805214FF4A4
:102DA000685001F017F84FF4885000F0FDFF7820CC
:102DB000FDF70AFD4FF4245000F0F6FF0A20FDF75E
:102DC00003FD4FF4305000F0EFFF10BD10B5E220CE
:102DD00000F0EAFF1D2000F0DBFF022000F0D8FF2A
:102DE000042000F0D5FF6420FDF7F8FCE02000F09F
:102DF000DBFF012000F0CCFF0A20FDF7E5FCE0201E
:102E000000F0D2FF032000F0C3FF0C20FDF7DCFC34
:102E1000012000F0C9FF0A20FDF7D6FCE62000F0F3
:102E2000C3FF2F2000F0B4FFFF2000F0B1FFFF2010
:102E300000F0AEFFB02000F0B7FF202000F0A8FFA8
:102E4000002000F0A5FF032000F0A2FF40F21F3099
:102E500000F09EFF012000F09BFF40F2DF1000F029
:102E600097FF002000F094FFB42000F09DFF0420A5
:102E700000F08EFF40F21F4000F08AFF002000F0BB
:102E800087FF2E2000F084FF002000F081FF00204B
:102E900000F07EFF002000F07BFF002000F078FFB4
:102EA000B62000F081FF022000F072FF4FF40370A3
:102EB00000F06EFF002000F06BFF172000F068FFAD
:102EC000152000F065FF002000F062FF002000F0F8
:102ED0005FFFF02000F068FF032000F059FF292079
:102EE00000F062FFD02000F05FFF002000F050FFF4
:102EF000BE2000F059FF052000F04AFFFE2000F040
:102F000047FF012000F044FF002000F041FF0020B7
:102F100000F03EFF002000F03BFFB82000F044FF2F
:102F2000032000F035FF012000F032FFBA2000F04E
:102F30003BFF012000F02CFF10BD10B5112000F068
:102F400033FF7820FDF740FC362000F02DFF0020F5
:102F500000F01EFF3A2000F027FF052000F018FFC8
:102F6000B22000F021FF0C2000F012FF0C2000F036
:102F70000FFF002000F00CFF332000F009FF33208A
:102F800000F006FFB72000F00FFF352000F000FF33
:102F9000BB2000F009FF322000F0FAFEC02000F054
:102FA00003FF0C2000F0F4FEC22000F0FDFE012023
:102FB00000F0EEFEC32000F0F7FE102000F0E8FE67
:102FC000C42000F0F1FE202000F0E2FEC62000F058
:102FD000EBFE0F2000F0DCFED02000F0E5FEA42088
:102FE00000F0D6FEA12000F0D3FEE02000F0DCFED1
:102FF000D02000F0CDFE002000F0CAFE022000F03C
:10300000C7FE072000F0C4FE0A2000F0C1FE282001
:1030100000F0BEFE322000F0BBFE442000F0B8FEFF
:10302000422000F0B5FE062000F0B2FE0E2000F0B7
:10303000AFFE122000F0ACFE142000F0A9FE172015
:1030400000F0A6FEE12000F0AFFED02000F0A0FED0
:10305000002000F09DFE022000F09AFE072000F004
:1030600097FE0A2000F094FE282000F091FE312007
:1030700000F08EFE542000F08BFE472000F088FE0A
:103080000E2000F085FE1C2000F082FE172000F0CC
:103090007FFE1B2000F07CFE1E2000F079FE2A201F
:1030A00000F082FE002000F073FE002000F070FEB1
:1030B000002000F06DFEEF2000F06AFE2B2000F0F3
:1030C00073FE002000F064FE002000F061FE01208D
:1030D00000F05EFE3F2000F05BFE292000F064FE61
:1030E00010BD10B5112000F05FFE7820FDF76CFBDD
:1030F000362000F059FE482000F04AFE3A2000F049
:1031000053FE552000F044FEF02000F04DFEC32099
:1031100000F03EFEF02000F047FE962000F038FE62
:10312000B42000F041FE012000F032FEB62000F095
:103130003BFE0A2000F02CFEA22000F029FEB72062
:1031400000F032FEC62000F023FEB92000F02CFE75
:10315000022000F01DFEE02000F01AFEC02000F06A
:1031600023FE802000F014FE162000F011FEC12086
:1031700000F01AFE192000F00BFEC22000F014FE31
:10318000A72000F005FEC52000F00EFE162000F07E
:10319000FFFDE82000F008FE402000F0F9FD8A2045
:1031A00000F0F6FD002000F0F3FD002000F0F0FD3F
:1031B000292000F0EDFD192000F0EAFDA52000F027
:1031C000E7FD332000F0E4FDE02000F0EDFDF0200D
:1031D00000F0DEFD072000F0DBFD0D2000F0D8FD43
:1031E000042000F0D5FD052000F0D2FD142000F0F1
:1031F000CFFD362000F0CCFD542000F0C9FD4C205E
:1032000000F0C6FD382000F0C3FD132000F0C0FD23
:10321000142000F0BDFD2E2000F0BAFD342000F097
:10322000B7FDE12000F0C0FDF02000F0B1FD10205E
:1032300000F0AEFD142000F0ABFD0E2000F0A8FD64
:103240000C2000F0A5FD082000F0A2FD352000F0C4
:103250009FFD442000F09CFD4C2000F099FD2620AD
:1032600000F096FD102000F093FD122000F090FD7C
:103270002C2000F08DFD322000F08AFDF02000F0BF
:1032800093FD3C2000F084FDF02000F08DFD6920CE
:1032900000F07EFD7820FDF797FA212000F084FDF4
:1032A000292000F081FD10BD1CB500BFFA488069DF
:1032B00040F48070F849886100BF00BF084680690B
:1032C00040F02000886100BF00BF0846806940F0E0
:1032D0002000886100BF00BF0846806940F480700C
:1032E000886100BF00BF0846806940F0080088611F
:1032F00000BF0846806940F0600088610846406968
:1033000040F4807048610120032100230222CDE9AE
:1033100000100103E14800F0B3FE01200321002367
:103320000222CDE900102021DD4800F0A9FE012095
:10333000032100230222CDE900101021D84800F01B
:103340009FFE0120032100230222CDE90010014647
:10335000D24800F095FE0120032100230246CDE96A
:1033600000100146CF4800F08BFE0120032100230E
:103370000222CDE900104CF20371C94800F080FE32
:103380000120032100230222CDE900104FF68071B5
:10339000C54800F075FE00204FF020418861C861EB
:1033A000C24908604FF02040806940F480504FF0DF
:1033B000204188610846806940F480408861084661
:1033C000806940F0100088610846C069C8610846FD
:1033D000C069C8610846C06940F47060C861B348FC
:1033E0000068C1F81C01B1480068C1F81C0108461A
:1033F000D0F81C0140F48070C1F81C0108468069B7
:1034000040F0010088610846806940F00040886112
:10341000A74800F08FF9D32000F0C6FC00F09CF91B
:10342000A449888000F098F9A249888000F094F9B6
:10343000A0498880084680884FF6FF7101EA002085
:103440009C49888000F088F99A49898808439949FD
:1034500088800846808849F2413188427ED0042025
:1034600000F0A2FC00F078F99249888000F074F92D
:103470009049888000F070F98E49888008468088DD
:103480004FF6FF7101EA00208A49888000F064F954
:10349000884989880843874988800846808848F297
:1034A0005251884203D147F289708249888081480D
:1034B000808847F289718842D0D0D42000F074FC13
:1034C00000F04AF97B49888000F046F97949888004
:1034D00000F042F977498880084680884FF6FF71EE
:1034E00001EA00207349888000F036F97149898823
:1034F0000843704988800846808845F21031884228
:10350000ACD0D32000F050FC00F026F96949888047
:1035100000F022F96749888000F01EF9654988802B
:10352000084680884FF6FF7101EA002061498880D3
:1035300000F012F95F49898808435E49888008468F
:10354000808847F29671884288D055214FF47040A8
:1035500000F040FCAA214FF2010000E07CE000F006
:1035600039FC52214FF2020000F034FC08214FF2E6
:10357000030000F02FFC01214FF2040000F02AFCB0
:103580004FF4454000F010FC00F0E6F8494988800F
:10359000084680884FF6FF7101EA0020454988807F
:1035A0004CF2015000F000FC00F0D6F84149898847
:1035B0000843404988800520FDF706F93D4880888A
:1035C00045F21051884247D0D32000F0EDFB00F0C7
:1035D000C3F83849888000F0BFF83649888000F089
:1035E000BBF834498880084680884FF6FF7101EAAD
:1035F00000203049888000F0AFF82E4989880843C0
:103600002C4988800846808849F60601884223D0E4
:10361000A12000F0C9FB00F09FF82649888000F047
:103620009BF824498880084680884FF6FF7101EA9C
:1036300000202049888000F08FF81E4989880843BF
:103640001C4988800846808845F26171884203D110
:1036500041F66310174988801648818816A0FCF748
:10366000D7FD1448808847F28971884202D1FFF75C
:1036700064FC4DE00F48808849F24131884202D114
:10368000FDF7BEF944E00B48808845F210318842CE
:1036900018D1FDF76BFC3BE0001002400020014018
:1036A00000140140000C0140001801401C0100A062
:1036B000FFFF0100E00000204C43442049443A252C
:1036C000780D0A001948808847F29671884202D125
:1036D000FFF707FD1CE01548808845F2105188422D
:1036E00002D1FEF7BCFB13E01048808849F60601C2
:1036F000884202D1FDF79AFA0AE00C48808841F628
:103700006311884204D1FFF761FB642000F016FBCF
:103710000020FDF7AFF801221146054800F0A4FC97
:103720004FF6FF70FDF78CF81CBD0000E000002094
:10373000000C014000BF011EA0F10100FBD1704749
:1037400010B50246012000E050430B1EA1F1010418
:10375000E1B2F9D110BD000008B50220FFF7EAFF81
:10376000024800880090BDF8000008BD0008006C09
:10377000F0B50546002400278B488079012805D143
:103780008948808841F66311884208D1864880794B
:10379000F0B98548808841F66311884218D1082D18
:1037A00015D2DFE805F00406080A0C0E10120625F3
:1037B0000DE007250BE0042509E0052507E00125BC
:1037C00005E0002503E0032501E0022500BF00BF5E
:1037D000082D1CD2DFE805F00406090C0F1215189D
:1037E00000BF14E044F0800411E044F040040EE017
:1037F00044F0C0040BE044F0200408E044F060040E
:1038000005E044F0A00402E044F0E00400BF00BF83
:1038100036276548808845F21051884200D13F0222
:103820006148808849F2413188420BD05E488088E7
:1038300047F28971884205D05B48808847F29671CB
:10384000884201D144F008042146384600F0C2FA0B
:103850005548808841F6631188421DD004F020004D
:1038600068B15148008850494988884214DA4E4866
:10387000068840884C490880084646800CE04A4843
:10388000008849494988884206DD474806884088BB
:1038900045490880084646804348808845F21051D3
:1038A000884252D14049488900F07EFA002000F059
:1038B0006FFA3D494989491C88B200F075FA002029
:1038C00000F066FA38494989891C88B200F06CFA20
:1038D00035490988491EC1F30F2000F059FA3249D1
:1038E0004989C91C88B200F05FFA2F490978491E3E
:1038F000C8B200F04DFA2C49888900F055FA002032
:1039000000F046FA28498989491C88B200F04CFA2F
:10391000002000F03DFA24498989891C88B200F012
:1039200043FA21494988491EC1F30F2000F030FABB
:103930001D498989C91C88B200F036FA1A4989786C
:10394000491EC8B200F024FA2DE01749488900F05A
:103950002BFA002000F01CFA002000F019FA12499E
:103960000988491EC1F30F2000F012FA0E490978A8
:10397000491EC8B200F00CFA0B49888900F014FA0D
:10398000002000F005FA002000F002FA06494988FC
:10399000491EC1F30F2000F0FBF903498978491E45
:1039A000C8B200F0F5F9F0BDE000002010B5024605
:1039B0000C464548808841F66311884247D1424809
:1039C0008079A8B940480088401E801A82B23E49DA
:1039D000488900F0E9F9002000F0DAF9002000F051
:1039E000D7F9101200F0D4F9D0B200F0D1F916E0F6
:1039F0003549488900F0D8F9101200F0C9F9D0B261
:103A000000F0C6F930490988491EC1F30F2000F0C3
:103A1000BFF92D490978491EC8B200F0B9F92A4901
:103A2000888900F0C1F9201200F0B2F9E0B200F08C
:103A3000AFF925494988491EC1F30F2000F0A8F9C4
:103A400021498978491EC8B200F0A2F93AE01E481F
:103A5000808845F21051884220D11B49488900F0E6
:103A6000A3F9101200F094F917494989491C88B24A
:103A700000F09AF9D0B200F08BF91349888900F070
:103A800093F9201200F084F90F498989491C88B202
:103A900000F08AF9E0B200F07BF913E00A494889A6
:103AA00000F082F9101200F073F9D0B200F070F952
:103AB0000549888900F078F9201200F069F9E0B230
:103AC00000F066F910BD0000E00000202DE9FC4F79
:103AD00080460E4615461C46B346002001900090D5
:103AE0002046E31704EB5373DB1021464FEAE47CD6
:103AF00004EB5C7C4FEAEC0CA4EBCC0CBCF1000FAB
:103B000002D04FF0010C01E04FF0000C634422465C
:103B100004EBD27C4FEA6C0C03FB0CF3DBB2019399
:103B2000A5F12000C5B20C2C06D0102C0BD0182CFF
:103B30000ED0202C18D112E005EB45002D4901EBE9
:103B40008000009012E02C4800EB051000900DE082
:103B500005EBC500294901EB8000009006E02848EC
:103B600000EB8510009001E0BDE8FC8F00BF00274E
:103B70003AE0009810F807904FF0000A2EE009F0A4
:103B8000800028B1314640460C9AFCF729FF07E037
:103B90000B9828B91B48314602684046FCF720FFC5
:103BA0004FEA49604FEA1069701C86B21648408897
:103BB000B04200DCD8E7A6EB0B00A0420AD15E467B
:103BC00008F101001FFA80F80F480088404500DC2A
:103BD000CAE706E00AF1010000F0FF0ABAF1080F97
:103BE000CDDB00BF781CC7B201988742C1DB00BFA4
:103BF000BAE700000A4D00087E5100086E57000821
:103C0000CA64000810000020E00000202DE9FC4FED
:103C100004460D4690469946DDE90C7A0B9E04F069
:103C2000FF0B08EB04001FFA80F809EB05001FFAF0
:103C300080F917E0444502DB5C46A81985B24D4582
:103C400000DB15E00020CDE9000A3A78334629462A
:103C50002046FFF73BFF304606EBD07104EB6101D5
:103C60008CB27F1C38787E2802DC38782028E1DA94
:103C700000BFBDE8FC8F2DE9FF4F85B00646934697
:103C80001F46DDE91389129C00200490002550E0B6
:103C9000781B401EC1B20A20FFF752FDBBFBF0F0BB
:103CA0000A21B0FBF1F201FB120A049860BB781EF6
:103CB000A84229DDBAF1000F24D108F0800080B1BC
:103CC00008F0010004EBD471491001FB0561CDE956
:103CD0000009039488B2234630220699FFF7F6FEC6
:103CE0000FE008F0010004EBD471491001FB0561FD
:103CF000CDE90009039488B2234620220699FFF7F4
:103D0000E5FE14E00120049008F0010004EBD471FA
:103D1000491001FB0561CDE90009039488B20AF15D
:103D20003001CAB223460699FFF7D0FE00BF681CD7
:103D3000C5B2BD42ACDB09B0BDE8F08F2DE9F0475C
:103D40000446BE2000F030F8052000F021F820469F
:103D500000F05BFD07464FF066320C4B00F068FD4B
:103D6000054600F025FD1FFA80F9484600F010F8DE
:103D7000012000F00DF8FF2000F00AF8002000F00C
:103D800007F8002000F004F8BDE8F08766660440FC
:103D900001B5BDF800000090BDF8000001490880A1
:103DA00008BD00000008006C01B5BDF800000090DF
:103DB000BDF800000149088008BD0000FE07006C46
:103DC000024800890249088070470000E000002096
:103DD000FE07006C024A1080921C118070470000A0
:103DE000FE07006C1CB500BF1548806940F0080054
:103DF0001349886100BF00BF0846806940F0400059
:103E0000886100BF0120009000230246202101901C
:103E10000C4800F035F901200090002302462021D3
:103E20000190094800F02CF901222021054800F0FA
:103E30001BF901222021044800F016F91CBD0000E6
:103E400000100240000C0140001801400EB509208E
:103E500000F0E4F94820FCF7A1FC4FF4E1314820E0
:103E600000F014FAFFF7BEFFFFF71EFAFCF78AFC1A
:103E70004FF478403DA110221346CDE90021029075
:103E8000C82232211E20FFF7C1FE4FF478403AA12C
:103E900010221346CDE900210290C82246211E209F
:103EA000FFF7B4FE4FF4784038A110221346CDE955
:103EB00000210290C8225A211E20FFF7A7FE1F20D2
:103EC00036A110221346CDE900210290C8227821A4
:103ED0001E20FFF79BFE48E0FCF782FB0446002C07
:103EE0000DDA604204B21F2031A110221346CDE941
:103EF0000021029078216E20FFF788FE0AE01F2043
:103F00002CA110221346CDE90021029078216E20C9
:103F1000FFF77CFE642094FBF0F51F2000211022A7
:103F20000223CDE9002102902A4678217620FFF76E
:103F3000A2FE642094FBF0F100FB11451F208021BC
:103F400010220223CDE9002102902A4678218E20FA
:103F5000FFF791FE00BF1848006880F02000164966
:103F6000086000BFFA20FCF72FFCB5E753544D332F
:103F7000324631303300000054656D7065726174F3
:103F800075726520544553540000000041544F4D54
:103F900040414C49454E54454B00000054454D505E
:103FA00045524154453A2030302E30304300000015
:103FB0002D000000200000000C0C014010B502464E
:103FC00000210020264B1B6843F48033244C2360DF
:103FD0000AE000BF224B1B6803F400331BB1B1F5AC
:103FE000004F00D904E0491C4FF6F0739942F0D31A
:103FF00000BF4FF6F073994201D301202FE04FF438
:104000008063174C6360921E23465B6843EA8243D9
:10401000636023465B6843F4803363601023114C74
:10402000236023461B6843F0020323600C4B1B688C
:1040300043F080730A4C236000BF094B1B685B0E82
:10404000002BFAD0064B5B6843F00203044C63601C
:1040500000BF034B5B68C3F38103022BF9D110BD92
:10406000001002400020024002F001031BB103696E
:104070000B43036103E0036943EA014303617047B3
:104080002DE9F04F0E461D46DDE909C40021002749
:104090008846002300BF64E04FF0010909FA01F7E8
:1040A00006EA0708B8455BD10023012A01D0022A9D
:1040B0000AD10CF0030305F0010943EA8903A2F1D8
:1040C000010943EAC90318E0BAB90CB9042314E0A2
:1040D0000823D0F80C904FF0010A0AFA01FA29EAF5
:1040E0000A09C0F80C90D0F80CA004F0010909FAF4
:1040F00001F94AEA090AC0F80CA0072916D8D0F835
:1041000000904FEA810B4FF00F0A0AFA0BFA29EAE6
:104110000A09C0F80090D0F800904FEA810A03FA2B
:104120000AFA49EA0A09C0F8009019E0D0F80490A8
:10413000A1F1080A4FEA8A0B4FF00F0A0AFA0BFAAC
:1041400029EA0A09C0F80490D0F80490A1F1080AFD
:104150004FEA8A0A03FA0AFA49EA0A09C0F80490FF
:10416000491C102998D3BDE8F08F00002DE9F041DB
:104170000746884614461D46284600F033F8C5F128
:10418000040007FA00F60F20284100EA0800064361
:1041900006F00F06E21704EBD2625211920002F110
:1041A000E022D2F800212146E31704EBD3635B1130
:1041B000A4EB431C012303FA0CF31A432046E31734
:1041C00004EBD3635B119B0003F1E023C3F80021F0
:1041D0000348005D40EA061001490855BDE8F0813A
:1041E00000E400E00146072323EA01021202054B26
:1041F00018684FF6FF031840034B18431043014B58
:10420000186070470CED00E00000FA054A0A5202FF
:104210000243014B1A60704708ED00E010B50446F8
:10422000002017490861C860142048610020886197
:10423000C8610846006840F0010008600846406810
:10424000104908400E494860084600680E49084079
:104250000B4908600846006820F480200860084682
:10426000406820F4FE0048604FF41F00886020463C
:10427000FFF7A4FE00214FF00060FFF7C7FF10BD5D
:10428000001002400000FFF8FFFFF6FE7CB5064676
:104290000C4600BF2A48806940F004002849886124
:1042A00000BF00BF0846806940F00400886100BF7D
:1042B00000BF0846806940F48040886100BF01204B
:1042C000032100230222CDE9001041021D48FFF71F
:1042D000D7FE0120032100231A46CDE900108102F8
:1042E0001848FFF7CDFE1848704300EB5400B0FBB0
:1042F000F4F51648056000201449091D08600846B9
:10430000006808600846006840F008000860084639
:10431000006840F0040008600846006840F0200093
:1043200008600223252203210846FFF71FFF0748E4
:10433000001D006840F400500449091D08607CBD60
:10434000001002400008014040420F0008380140C0
:1043500010B591EA030F48BF83F0004300F16E836C
:10436000841A71EB030C05D2121943EB0C03001BEA
:1043700061EB0C01DFF824E14FEA1154A4EB135C6C
:104380001EEA430F18BF9EEA445F73D023EA0E0370
:10439000DCF1200E21EA045143F4801332D322FAD7
:1043A0000CFE10EB0E0023FA0CFE41EB0E01CCF1DB
:1043B000200E03FA0EFE10EB0E0051F10001B1F5D4
:1043C000801FCCF1200E32D201EB045112FA0EF212
:1043D000BDE8104058BF7047401C38BF5FEA42023A
:1043E00018BF7047002814BF20F0010041F1000100
:1043F0004FEA410313F5001F38BF7047A1F1C041D8
:1044000000F00EBB012A43EB0302ACF1200CDCF1FF
:104410001F0E32BF4FF0000E23FA0CF310EB030017
:1044200041EB0451B4EB115FD0D0A1EB045101F585
:10443000801149085FEA300001EB04510ED350F1BE
:10444000000038BF12FA0EFE08D1BDE81040C9E7DF
:10445000401C38BF5FEA4202CAD1C3E7BDE8104042
:104460004FEA410313F5001F38BF7047A1F1C04167
:1044700000F0D6BA9EEA445F08D011EA5E0FBDE8AC
:10448000104004BF01F0004100207047BDE810401B
:1044900070B500F077FA00BF64FBBE3E0000E0FF9D
:1044A0002DE9C04130B4DFF8A0C23CEA111418BFB6
:1044B0003CEA131400F0EC8081EA03051CEA1114B5
:1044C00044EAD57418BF1CEA131500F0C780A4EBAA
:1044D00005044FF0004545EAC12145EAC32341EAFE
:1044E000505143EA525304F17F74994204F5003469
:1044F0004FEAC0204FEAC22208BF904200F09C80E1
:104500004FEA13650FF24016765D4FEA134506FB3E
:1045100005F7C7F1807706FB07F74FEAD737A7FB08
:1045200003687642C8F58038A7FB06CE38BFA8F1ED
:10453000010807FB08E64FF0000EA6FB028CE6FB25
:1045400003CEDCF1000CCEF1004E38BFAEF1010E0F
:10455000A6FB0C584FF000074FF00005E6FB0E8756
:10456000A1FB08C6A0FB07CE16EB0E0645F1000521
:10457000E1FB076515F1E04E7EBFA4F580345FEAEC
:1045800046066D4116F1800745F100054FEA1727F1
:104590004FEA066647EA0567A6F1DE46B6F1805F98
:1045A0004FEA15251FD9384624F0010C05EBC471DC
:1045B000BCF1FE6F01EB0C1102D8F0BCBDE800812C
:1045C00024425CBF01F5801E9EEAC47F02D4F0BC89
:1045D000BDE80081244238D4F0BCA1F1C041BDE85F
:1045E000004100F01DBA4FEAD22242EA43524FEA9C
:1045F000D323A7FB02864FEAD02040EA415007FBB5
:1046000003661EEA0E0F4FEAD12105FB026658BF72
:10461000A6EB0056B6EB00564FEA520E4EEAC37EAA
:1046200018EB0E0E56EB530EBDD518EB02085E418B
:104630007F1C55F10005B6E74FF480154FF00007D9
:104640004FF000064FF00008ADE7F0BC4FF000005F
:1046500001F1C04101F00041BDE8008111EA0C1FE9
:104660000CEA131500D00CE013EA0C1F00F02580B3
:104670004FF00000F0BC81EA030101F00041BDE809
:104680000081F0BCBDE8004181EA030100F0C8B937
:10469000F0BCBDE8004170B500F074F9097EFC3E45
:1046A00000F007B881EA03014FF0000001F000417B
:1046B000704781EA030100F0B3B9F0BCBDE80041E6
:1046C0004FF0000021497047FFFDFBF9F7F5F4F2C8
:1046D000F0EEEDEBE9E8E6E4E3E1E0DEDDDBDAD89D
:1046E000D7D5D4D3D1D0CFCDCCCBCAC8C7C6C5C4FB
:1046F000C2C1C0BFBEBDBCBBBAB9B8B7B6B5B4B312
:10470000B2B1B0AFAEADACABAAA9A8A8A7A6A5A4FC
:10471000A3A3A2A1A09F9F9E9D9C9C9B9A999998C0
:104720009797969595949393929191908F8F8E8E63
:104730008D8C8C8B8B8A89898888878786858584F0
:1047400084838382828181800000FF070000F87FDC
:104750004FEA41034FEA5353A3F58063D3F11E039D
:10476000C8BFD3F1210C0CDD4FF0004242EAC12258
:1047700042EA505232FA03FC8CEAE17CACEBE17085
:104780007047102BC4BF0020704703F5787CBCF144
:10479000FF3F04D06FF0004282EA2100704770B5FD
:1047A00000F0F0F84992248000207047F2E7000002
:1047B0004FEA1153A3F58063D3F11E03A8BFD3F1D1
:1047C000200C08DB4FF0004242EAC12252EA50526C
:1047D00032FA03F0704709420BD4102BC4BF0020FB
:1047E000704703F5787CBCF1FF3F05D04FF0FF30F8
:1047F00070474FF00000704770B500F0C3F800BF7D
:104800004992248000207047F0E7B0FA80F310FA54
:1048100003F10AD0C3F11D0303F580634FEA415051
:104820004FEA035202EBD12170474FF0000070476E
:10483000DFF848C170B51CEA111E1EBF1CEA131533
:104840009EEA0C0F95EA0C0F00F06F8081EA0304DA
:1048500023EA4C134EEAD47E21EA4C1141F4801134
:1048600043F48013AE44A1FB024CA0FB0365AEF100
:104870007F7E361955EB0C05A1FB034C4CF1000370
:10488000A0FB021C16EB0C06654153F10003094224
:1048900018BF46F0010613F4007F0BD14FEA033135
:1048A0004FEA0530340341EA155140EA16506FF0E3
:1048B00003020AE04FEAC3214FEAC520F40241EAAD
:1048C000555140EA56506FF0020202EB2E4201EBC6
:1048D000025585EACE710AD05FEA440C18BF24F075
:1048E000004450F1000041F1000120EAD47040F290
:1048F000FE7C624500D270BDA84214BF4FF08044D8
:104900004FF04044002E08BF0024BEF1806FA8BFC6
:10491000A1F1C041BDE8704080F282804FF00000FC
:1049200001F1C04101F0004170479EEA0C0F0CEA12
:10493000131518BF95EA0C0F06D04FF0000081EA5E
:10494000030E0EF0004170BD00F01CF88900013E1E
:1049500000F007B800F009B84FEA430C5FEA5C5C6E
:1049600008D081EA030100F05BB84FEA410C5FEA2E
:104970005C5CF6D14FF00000014970470000FF0772
:104980000000F87F0EF1020E2EF0030E5EF8046BAD
:10499000364205D4012A43EB030515F5001F12D852
:1049A000012841EB010C1CF5001F0CD80ED14FEA79
:1049B000D17C15F5001F0CEB4C0C0CF1020C08BF60
:1049C0004CEBD37C04E04FF0080C01E04FEAD37CC1
:1049D0000CEB4C0526FA05F606F00706B6F1040CBA
:1049E00006D20EEB860CBDE870404CF0010C60471F
:1049F000DFE80CF0090B02024FF000414FF000001D
:104A0000A1F5002170BD19461046012851EB0104A3
:104A100018BFD4F5001484BF002001F0004170BD20
:104A20000808A0F500114FEA3101704710B591EA6E
:104A3000030F48BF83F000433FF592AC841A71EB3B
:104A4000030C07D212198CF0004C43EB0C03001B33
:104A500061EB0C01DFF8A4E14FEA1154A4EB135C05
:104A60001EEA430F18BF9EEA445F00F0B08023EABD
:104A70006E03524221EA0451C3EB6E0338BF5B1E42
:104A8000DCF1200E25D322FA0CFE10EB0E0043FAC7
:104A90000CFE41EB0E01CCF1200E03FA0EFE10EBE2
:104AA0000E0051F10001CCF1200E29D412FA0EF2C1
:104AB00001EB0451BDE8104058BF7047401C1CBFBB
:104AC000B2F1004F704700280CBF491C20F00100D4
:104AD000704712EB020E43EB030218BF4FF0010EBA
:104AE0004EEA4202ACF1200CDCF11E0E54D943FA1E
:104AF0000CFE10EB0E0051F1FF31CCF11E0ED5D59E
:104B00000EF1010E12FA0EFE404141EB010101EBE4
:104B1000445C5FEA5C5C10D910EBDE7001EB045181
:104B200038BFBEF1004FBDE8104018BF70470028E5
:104B30000CBF491C20F00100704730D24FEAD42C42
:104B400011F5001124F400641BD0B1FA81F20B3A84
:104B5000A41AA41ED2F12003914030FA03F31943A2
:104B6000904001EBCC71002C01EB0451BDE81040EA
:104B7000A8BF704701F1C0414FF0000001F00041B3
:104B80007047B0FA80F310FA03F100D110BDE41AB7
:104B9000173C4805C90AE4E701EB045110BD491070
:104BA00001EB0451BDE810404FEA300002E04FF045
:104BB000000170474A0008BF0042F8D0B2F5001F5C
:104BC00028BF704701F000414FF0000070479EEA97
:104BD000445F07D011EA5E0FBDE8104004BF00211A
:104BE00000207047BDE8104070B5FFF7CBFE00BF56
:104BF00040DFF63E83F00041104670470000E0FFC2
:104C000043004FEAD30C4FEA3C0C43401FBF400720
:104C10000CF1605113F0FE4F70471CF0006F03D190
:104C200000200CF0004170470CF0004343EA507044
:104C300010B540EACC0000F022F800BF000000925E
:104C40004FEA0001FFF7ECBE4FF000414FF00000CB
:104C5000A1F5002170470000B0FA80F310FA03F2CA
:104C6000C3F19D030AD0D90501EB1220530638BFCA
:104C7000704700F1010008BF20F0010070470EF1FD
:104C8000020E2EF0030E5EF8044B244204D44FEAC9
:104C90004102B2F17F4F11D84FEA4003B3F17F4F89
:104CA0000CD80ED14FEAD07CB2F17F4F0CEB4C0CFC
:104CB0000CF1020C08BF4CEBD17C04E04FF0080C67
:104CC00001E04FEAD17C0CEB4C0324FA03F404F02E
:104CD0000704B4F1040C06D20EEB840CBDE81040BE
:104CE0004CF0010C6047DFE80CF0070802024FF0BF
:104CF0000040A0F5800010BD0846420018BFD2F168
:104D0000807288BF00F0004010BD0000000000006D
:104D1000000000000000000000003F400000000014
:104D2000000000003000400030004000000009009A
:104D30000BC03D000BC03D00090018C024407FE0BF
:104D4000224031800000180024C01B000D8032403A
:104D5000018003801C4027401C8007400040100059
:104D600060000000000000000000000000000000E3
:104D70001F80204040200000402020401F80000075
:104D80000000090006001F80060009000000040062
:104D900004003F80040004000000001000600000D8
:104DA00000000000000004000400040004000400EF
:104DB0000000000000400000000000000000002093
:104DC00001C006003800400000001F802040204045
:104DD00020401F800000000010403FC00040000045
:104DE000000018C0214022402440184000001080DC
:104DF0002040244024401B80000002000D001100D0
:104E00003FC0014000003C802440244024402380D7
:104E100000001F8024402440344003800000300004
:104E2000200027C03800200000001B8024402440C0
:104E300024401B8000001C0022C0224022401F8012
:104E4000000000000000084000000000000000001A
:104E500000000460000000000000000004000A00E0
:104E600011002080404009000900090009000900E4
:104E7000000000004040208011000A0004001800DB
:104E8000200023402400180000001F8020402740FD
:104E900029401F400000004007C039000F0001C03A
:104EA000004020403FC0244024401B8000001F8061
:104EB0002040204020403080000020403FC0204063
:104EC00020401F80000020403FC024402E4030C0C2
:104ED000000020403FC024402E00300000000F00A2
:104EE0001080204022403380020020403FC0040058
:104EF00004003FC02040204020403FC020402040D0
:104F000000000060202020203FC020002000204022
:104F10003FC024400B0030C0204020403FC0204014
:104F20000040004000C03FC03C0003C03C003FC008
:104F3000000020403FC00C4023003FC020001F80E5
:104F40002040204020401F80000020403FC02440DF
:104F50002400180000001F802140214020E01FA0F5
:104F6000000020403FC02440260019C0004018C067
:104F700024402440224031800000300020403FC0C7
:104F800020403000000020003F80004000403F8073
:104F9000200020003E0001C007003800200038003B
:104FA00007C03C0007C038000000204039C00600A0
:104FB00039C0204000002000384007C038402000A1
:104FC0000000304021C02640384020C000000000D2
:104FD00000007FE0402040200000000070000C0036
:104FE0000380004000000000402040207FE00000DF
:104FF0000000000020004000200000000000001021
:105000000010001000100010001000000000400010
:10501000000000000000000002800540054003C0C1
:10502000004020003FC00440044003800000000016
:105030000380044004400640000000000380044058
:1050400024403FC00040000003800540054003406D
:105050000000000004401FC0244024402000000045
:1050600002E0055005500650042020403FC0044097
:10507000040003C000400000044027C000400000BE
:10508000000000100010041027E000000000204085
:105090003FC00140070004C00440204020403FC002
:1050A00000400040000007C0040007C0040003C027
:1050B0000000044007C00440040003C0004000009A
:1050C00003800440044003800000041007F00450F3
:1050D000044003800000000003800440045007F0F7
:1050E0000010044007C0024004000400000000005B
:1050F00006400540054004C00000000004001F8079
:10510000044000400000040007800040044007C045
:1051100000400400070004C00180060004000600EF
:1051200001C0070001C006000000044006C00100E5
:1051300006C0044000000410071004E001800600CF
:1051400004000000044005C00640044000000000C8
:10515000000004007BE04020000000000000000090
:10516000FFF000000000000040207BE00400000091
:1051700000004000800040002000200040000000AF
:10518000000000000000000000000000000000001F
:10519000000000001FCC000C000000000000000018
:1051A00008003000600008003000600000000220AD
:1051B00003FC1E20022003FC1E2002200000000031
:1051C0000E1811043FFF10840C78000000000F003F
:1051D00010840F3800C00778188400780000007829
:1051E0000F8410C411240E9800E400840008080005
:1051F00068007000000000000000000000000000D7
:105200000000000007E01818200440020000000021
:1052100040022004181807E00000000000000240CF
:10522000024001800FF00180024002400000008037
:10523000008000800FF800800080008000000001E6
:10524000000D000E00000000000000000000000043
:1052500000800080008000800080008000800000CE
:10526000000C000C00000000000000000000000026
:1052700000060018006001800600180020000000F1
:1052800007F0080810041004080807F000000000E8
:10529000080408041FFC00040004000000000000D3
:1052A0000E0C10141024104411840E0C0000000089
:1052B0000C1810041104110412880C700000000076
:1052C00000E00320042408241FFC00240000000048
:1052D0001F98108411041104108810700000000041
:1052E00007F00888110411041888007000000000FD
:1052F0001C00100010FC13001C0010000000000037
:105300000E3811441084108411440E38000000003F
:105310000700088C10441044088807F000000000C3
:1053200000000000030C030C00000000000000005F
:105330000000000101060000000000000000000065
:105340000080014002200410080810040000022020
:105350000220022002200220022002200000000081
:105360001004080804100220014000800000000022
:105370000E001200100C106C10800F00000003E0F3
:105380000C1813E4142417C4082807D000000004E4
:10539000003C03C41C40074000E4001C000410044F
:1053A0001FFC1104110411040E880070000003E0BA
:1053B0000C1810041004100410081C100000100435
:1053C0001FFC100410041004080807F0000010046B
:1053D0001FFC1104110417C4100408180000100465
:1053E0001FFC1104110017C010000800000003E0AA
:1053F0000C181004100410441C7800400000100425
:105400001FFC10840080008010841FFC100400002A
:10541000100410041FFC100410040000000000031E
:105420000001100110011FFE100010000000100408
:105430001FFC110403801464181C100400001004E5
:105440001FFC1004000400040004000C0000100401
:105450001FFC1F0000FC1F001FFC100400001004B4
:105460001FFC0C04030000E010181FFC100007F0E4
:105470000808100410041004080807F000001004C5
:105480001FFC10841080108010800F00000007F0B7
:10549000081810241024101C080A07F20000100439
:1054A0001FFC1104110011C011300E0C000400008B
:1054B0000E1C11041084108410441C3800001800C5
:1054C000100010041FFC1004100018000000100051
:1054D0001FF810040004000410041FF8100010004E
:1054E0001E0011E0001C007013801C0010001FC083
:1054F000103C00E01F0000E0103C1FC00000100442
:10550000180C163401C001C01634180C1004100019
:105510001C00130400FC13041C001000000008040D
:10552000101C1064108413041C04101800000000E8
:10553000000000007FFE4002400240020000000028
:1055400030000C0003800060001C0003000000001D
:105550004002400240027FFE000000000000000008
:10556000000020004000400040002000000000013A
:105570000001000100010001000100010001000024
:10558000400040002000000000000000000000007B
:105590000098012401440144014400FC000410006F
:1055A0001FFC008801040104008800700000000056
:1055B000007000880104010401040088000000005C
:1055C000007000880104010411081FFC00040000A1
:1055D00000F8014401440144014400C800000000F7
:1055E000010401040FFC1104110411001800000053
:1055F00000D601290129012901C901060000100472
:105600001FFC008401000100010400FC00040000F4
:105610000104190419FC000400040000000000004B
:10562000000300010101190119FE0000000010042F
:105630001FFC0024004001B4010C01040000000024
:10564000100410041FFC000400040000000001040A
:1056500001FC0104010001FC0104010000FC010443
:1056600001FC008401000100010400FC00040000B2
:1056700000F8010401040104010400F80000010124
:1056800001FF008501040104008800700000000093
:105690000070008801040104010501FF00010104FC
:1056A000010401FC008401040100018000000000ED
:1056B00000CC0124012401240124019800000000F1
:1056C0000100010007F801040104000000000100CE
:1056D00001F8000400040004010801FC00040100BA
:1056E00001800170000C001001600180010001F0D8
:1056F000010C003001C00030010C01F0010000007D
:105700000104018C00740170018C0104000001018E
:1057100001810171000E001801600180010000008C
:105720000184010C013401440184010C00000000DB
:1057300000000000000001003EFC400240020000AA
:10574000000000000000FFFF00000000000000005B
:10575000400240023EFC010000000000000000008A
:105760006000800080004000400020002000000019
:105770000000000000000000000000000000000029
:105780000000000000000000000000000000000019
:105790000000000000000000000000000000000009
:1057A000000F80380FFE380F803800000000000026
:1057B00000000000000000000000000001000006E2
:1057C00000000C00003800003100000600000C0052
:1057D0000038000030000000000000000000618080
:1057E0000067F807F9800061800061800061800037
:1057F00061800067F807F980006180000000000008
:105800000000000001C0E003E0F0063008041808C2
:105810001FFFFE040E080787F00381E00000000070
:10582000000001F000060C00040408060C7001F9E9
:10583000C0000E00003BE000EC18070808040C183C
:105840000003E00000000001E00007F003F8180486
:105850001C0804170807E1D003C0E00023B0003C97
:1058600008002008000010000000000000010000F7
:105870003100003200001C000000000000000000A9
:105880000000000000000000000000000000000018
:1058900000000000000000000000000000007F0089
:1058A00001FFC00780F00C00181000042000020067
:1058B00000000000002000021000040C0018078007
:1058C000F001FFC0007F00000000000000000000A9
:1058D0000000000000000000000042000066000020
:1058E0006600003C0000180003FFC0001800003CE8
:1058F0000000660000660000420000000000080092
:1059000000080000080000080000080001FFC000B7
:10591000080000080000080000080000080000005F
:105920000000000100003100003200001C000000F7
:105930000000000000000000000000000000000067
:105940000000000000000800000800000800000837
:10595000000008000008000008000008000008001F
:1059600000080000000000000000000000003800F7
:1059700000380000380000000000000000000000B7
:105980000000000000000000000000000000000611
:1059900000001C000070000180000E0000380000B4
:1059A000C0000700001C00003000000000000000E4
:1059B00000007F8001FFE0038070060018040008EB
:1059C00004000806001803807001FFE0007F8000DB
:1059D00000000000000000000100080100080100B4
:1059E0000803FFF807FFF80000080000080000089F
:1059F00000000000000000000001C03802C0580490
:105A00000098040118040218040418061C1803F86E
:105A10001801E0F800000000000000000001C0E0F4
:105A200003C0F00400080408080408080618080366
:105A3000F41801E7F00001E00000000000000000A1
:105A400000000300000D000011000061000081084B
:105A500003010807FFF80FFFF80001080001080024
:105A600000000000000000E007FCD0060808061057
:105A700008061008061008061838060FF00607C0BA
:105A8000000000000000000000003F8001FFE00374
:105A900084300208180410080410080410080718BD
:105AA00010030FF00007C00000000000000000001D
:105AB00003C0000700000600000600F80607F8060D
:105AC000180006E0000700000600000000000000CB
:105AD0000001E1E003F7F006341004180804180888
