:020000040800F2
:10000000880800202D020008310200083302000891
:10001000350200083702000839020008000000001D
:100020000000000000000000000000003B0200088B
:100030003D020008000000003F02000841020008E5
:10004000430200084302000843020008430200087C
:10005000430200084302000843020008430200086C
:10006000430200084302000843020008430200085C
:10007000430200084302000843020008430200084C
:10008000430200084302000843020008430200083C
:10009000430200084302000843020008430200082C
:1000A000430200084302000843020008430200081C
:1000B0004302000843020008210700084302000829
:1000C00043020008430200084302000843020008FC
:1000D000430200085D0700084302000843020008CD
:1000E00043020008430200084302000843020008DC
:1000F00043020008430200084302000843020008CC
:1001000043020008430200084302000843020008BB
:1001100043020008430200084302000843020008AB
:10012000430200084302000843020008430200089B
:1001300000F002F800F06BF80AA090E8000C82448E
:100140008344AAF10107DA4501D100F060F8AFF26B
:10015000090EBAE80F0013F0010F18BFFB1A43F0A5
:1001600001031847C48F0000E48F00000A444FF0D9
:10017000000C10F8013B13F0070408BF10F8014B06
:100180001D1108BF10F8015B641E05D010F8016B4B
:10019000641E01F8016BF9D113F0080F1EBF10F8AF
:1001A000014BAD1C0C1B09D16D1E58BF01F801CBD2
:1001B000FAD505E014F8016B01F8016B6D1EF9D555
:1001C0009142D6D37047000000230024002500266A
:1001D000103A28BF78C1FBD8520728BF30C148BFAA
:1001E0000B607047642900F09B80752900F09880AF
:1001F000782900F0D180632900F02582732900F06E
:100200002A82002070471FB51FBD10B510BD00F039
:1002100055FA1146FFF7F7FF04F08AF900F073FA78
:1002200003B4FFF7F2FF03BC00F0E1FA084800470F
:10023000FEE7FEE7FEE7FEE7FEE7FEE7FEE7FEE796
:10024000FEE7FEE703480449044A054B70470000F7
:10025000310100088802002088080020880400205E
:1002600088040020704700000FB4044910B503AAA9
:10027000029800F0F5F910BC5DF814FB04000020B2
:1002800070B5044685690068C10601D5302600E0D6
:100290002026C00707D070BDD4E901213046904721
:1002A000206A401C20626D1EF6D570BD70B50446F4
:1002B00085690078C00707D170BDD4E901212020ED
:1002C0009047206A401C20626D1EF6D570BD70B547
:1002D0000C460546012A05D02878800600D5EA6933
:1002E000002302E0012305E05B1C934202D2E05CA4
:1002F0000028F9D1A869E618C01AA861286A18442C
:1003000028622846FFF7BCFF04E0D5E9012114F874
:10031000010B9047B442F8D32846FFF7C7FF70BDE2
:100320002DE9F0410646002410687529314616A5CE
:1003300010D0AFF30080002802DA404213A507E096
:1003400031688A0701D512A502E0490704D511A535
:10035000012401E0AFF3008000210A2206F1240706
:1003600009E0B0FBF2FCB0FBF2F302FB1C00303002
:1003700078541846491C0028F3D123462A463046B3
:10038000BDE8F04100F0FCB8000000002D000000C6
:100390002B0000002000000070B504460D462146E9
:1003A0001068AFF300802188090502D50F4A7A440E
:1003B00002E00E4A7A440E32002104F1240305E0E3
:1003C00000F00F060009965D5E54491C0028F7D125
:1003D00020780023000704D5702D02D009B1022334
:1003E00011322046BDE8704000F0CAB84A8C0000C7
:1003F0002DE9F05F894604464FF0000ADFF874B13A
:10040000FB44C0F820A02046E1688847002874D04B
:10041000252806D0D4E901219047206A401C20629B
:10042000F1E700265F462046E16888472028054618
:1004300007DB312D05D2781910F8200C08B10643DE
:10044000F1E7B00701D526F00406C4F81CA0002788
:10045000C4F818A02A2D09D0284600F0C1F938B3F5
:1004600004EB8708303DC8F8185019E059F8041B10
:10047000204604EB87029161E1688847012F054619
:1004800018D1E069002820DA26F020061DE0D8F80F
:10049000180000EB800005EB40003038C8F8180069
:1004A0002046E1688847054600F09AF90028EED119
:1004B000012F0AD02E2D08D12046E16888477F1CE5
:1004C0000546022F46F02006C4DBA069002803DAA7
:1004D000404246F00106A061F00701D026F0100668
:1004E0006C2D0BD0682D09D04C2D39D06A2D35D00C
:1004F000742D35D07A2D33D016E038E0E1682F46E0
:1005000020468847B842054609D16C2F26D04FF4C3
:100510008060E168064320468847054604E06C2F6A
:100520001AD04FF4807006430DB3A5F1410019288D
:1005300002D8203546F400664A4629462046266001
:100540004E46FFF74FFE80B101280BD0F61D26F076
:10055000070000F1080956E74020E4E78020D8E7CB
:100560000020D6E706F104094DE7284652E7206A45
:10057000BDE8F09F208C00007047704770477047BF
:100580002DE9F0470D4699469246044600F12408AD
:100590000168880604D5E06921F01001216000E0BF
:1005A0000120A84201DD471B00E00027A1697A195C
:1005B00002EB0900081AA0612078C00602D4204688
:1005C000FFF75EFE002608E0D4E901211AF80600D4
:1005D0009047206A401C761C20624E45F4DB207850
:1005E000C0060AD52046FFF74BFE06E0D4E90121FC
:1005F00030209047206A401C2062381EA7F1010776
:10060000F4DC07E0D4E9012118F805009047206ADE
:10061000401C2062281EA5F10105F3DC2046FFF7EF
:1006200045FE2078000602D50220BDE8F0870120B3
:10063000FBE710B5436913B1AFF3008001E0FFF7AA
:1006400046FE012010BD127800F124010A7000223C
:100650004A700122EDE711684FF0FF32E9E7000030
:10066000074B70B50D467B4400F011F80446284650
:1006700000F020F810B14FF0FF3070BD204670BD83
:10068000F306000001694A1C02610878704700B552
:100690008FB0CDE901310021059105497944CDE9BB
:1006A000031011466846FFF7A3FE0FB000BD00001F
:1006B000E5FFFFFF007B00F080007047754600F00B
:1006C0002BF8AE4605006946534620F007008546E4
:1006D00018B020B5FFF7B6FDBDE820404FF000068A
:1006E0004FF000074FF000084FF0000B21F007011A
:1006F000AC46ACE8C009ACE8C009ACE8C009ACE85D
:10070000C0098D46704710B50446AFF300802046FF
:10071000BDE81040FFF784BD004870472802002064
:1007200010B50C48006800F0010058B10A4908698A
:10073000804700200749143108604FF47A7005495A
:100740001C3108600348006820F00100014908607E
:1007500010BD0000100800405C0000201D49096821
:1007600001F0200111B31B49091D0968C8B21A49DB
:10077000098801F40041C9B91749098801F4804189
:1007800061B10A2803D00021134A118020E01249E8
:10079000098841F40041104A118019E00D2806D162
:1007A0000D49098841F480410B4A118010E00A4943
:1007B0000988C1F30D01094A505407490988491CA9
:1007C000054A118011460988C72901DD00211180E1
:1007D0007047000000380140080000205001002050
:1007E00030380A2801D2012070470020704700BF2E
:1007F000704700002DE9FC4704460D4616461F468B
:10080000DDF828904FF0000814B10DB106B117B90A
:100810000120BDE8FC87601EC4B2681EC5B2701E10
:10082000C6B2781E87B200BF6148806940F00400FC
:100830005F49886100BF00BF0846806940F004003E
:10084000886100BF0120032100230222CDE90010AE
:100850000103584804F090F80120032100231A46B0
:10086000CDE90010C102534804F086F85048C06931
:1008700040F000704E49C86100204F4908600846AA
:10088000006840F00100086008E008F101001FFA6C
:1008900080F8B8F1640F01DD0220BAE74648001D78
:1008A000006800F001000028EFD04348006842498A
:1008B0000860084600680860084600680860084646
:1008C000006840F0100008600846006808600846AC
:1008D00000680860002038491C310860084600683C
:1008E00040EA897008600846006840EA04600860D1
:1008F0000846006840EA055008600846006840EA7B
:100900000640086008460068384308602A480068C6
:1009100020F001002849086009E008F101001FFAF1
:1009200080F84FF6F070804501DD032071E7224822
:10093000001D006800F001000028EED11F4800688B
:1009400040F001001D4908601C481C30006820F080
:1009500001001A491C31086018480C30006840F04A
:10096000010016490C3108601448001D0068134945
:10097000091D0860114814300068104914310860DE
:1009800000200E494031086000210C4844300160CD
:100990000A481C30006840F0010008491C3108601A
:1009A0000648006800200549086000BF31E70000E4
:1009B0000010024000080140006400400066004052
:1009C000014621B90548006800F00300704703485C
:1009D000001D006800F00300F8E700000C64004010
:1009E00030B587B004460D46002006900390FFF70F
:1009F000E7FF10B9002007B030BD03A804AB05AA7B
:100A000006A9CDE90005002000F00EF80698A042E6
:100A100005D19DF8140010B99DF8100008B1002010
:100A200003909DF80C00E6E7F0B5DDE90554314E82
:100A300006EB0016366806F004061670167836B90E
:100A40002C4E06EB00163668760D0E6005E0294E3A
:100A500006EB00163668F6080E60264E06EB00160A
:100A6000366806F002061E70224E06EB0016766807
:100A700006F00F062E701F4E06EB0016B6682670A5
:100A80001C4E06EB0016B668360A6670194E06EB69
:100A90000016B668360CA670164E06EB0016B66841
:100AA000360EE670134E06EB0016F6682671114EF0
:100AB00006EB0016F668360A66710E4E06EB001657
:100AC000F668360CA6710B4E06EB0016F668360E6D
:100AD000E67130B9084E366846F02006064F3E6093
:100AE00007E0054E361D366846F02006024F3F1DD2
:100AF0003E60F0BDB06500400C6400402DE9F84355
:100B000007460C46154600264FF001092B460022E9
:100B100011463846009400F015F8804609E040463A
:100B200000F096F8072802D14FF0000905E0701C8C
:100B300086B240F6FF708642F1DB00BF4846BDE852
:100B4000F8830000F0B505460E46059C3E48006857
:100B500000F0806008B100210FE03B48006800F021
:100B6000006008B1012108E03748006800F08050BB
:100B700008B1022101E0FF20F0BD0027334800EB5F
:100B8000011007601EB9C5F30A056D0502E025F0E6
:100B90006045ED002D4800EB0110006828432B4F05
:100BA00007EB01173860294800EB0110006840EAA4
:100BB0008607264800EB01100760244800EB01106F
:100BC000006840EA4207214800EB0110076003F08B
:100BD0000F031E4800EB0110406820F00F071B4870
:100BE00000EB01104760194800EB01104068184302
:100BF000164F07EB01177860E0790006A77940EA05
:100C00000740677940EA0727207907430F4800EB40
:100C10000110C760E0780006A77840EA07406778CF
:100C200040EA072027783843084F07EB0117B860E0
:100C3000064800EB0110006840F00107034800EB94
:100C400001100760084697E708640040806500408F
:100C50000146002021B1012913D0022933D121E01E
:100C60001B4A126802F001021043194A126802F08E
:100C700002021043164A126802F0806240EA1260D3
:100C800023E0134A126802F001021043104A12686E
:100C900002F0020210430E4A126802F0006240EABB
:100CA000526012E00A4A126802F001021043084A38
:100CB000126802F002021043054A126802F08052E4
:100CC00040EA926001E0052000BF00BF70470000CD
:100CD000086400404FF0E021096941F004014FF041
:100CE000E0221161054908601146096941F00101DE
:100CF00011616FF0704151617047000000000020E9
:100D000010B504464FF47A7104FB01F000F002F8CC
:100D100010BD000070B5034600224FF0E026756953
:100D20000D4E366803FB06F44FF0E026B16910E083
:100D30004FF0E026B06988420BD0884202D20E1AEA
:100D4000324402E02E1A0E4432440146A24200D33D
:100D500000E0EDE700BF70BD0000002000BF054AC5
:100D6000126802F04002002AF9D0C2B2014B1B1DEA
:100D70001A607047003801401CB500BF20488069E8
:100D800040F040001E49886100BF00BF08468069EE
:100D900040F04000886100BF00BF0846806940F015
:100DA0004000886100BF00BF0846806940F0040031
:100DB000886100BF0120009000231A461021019095
:100DC000104803F0D9FD0120009000231A460821A5
:100DD00001900C4803F0D0FD0120009000231A463A
:100DE00004210190074803F0C7FD022001210023E0
:100DF0001A46CDE90010044803F0BEFD1CBD0000FA
:100E000000100240001801400008014070B504467F
:100E1000002514B101202B4908702A4800780028C9
:100E200034D01021284803F093FD78B108212648DA
:100E300003F08EFD50B10421234803F089FD28B151
:100E40000121224803F084FD01281FD10A20FFF769
:100E500057FF00201B49087010211B4803F078FD44
:100E600000B901250821184803F072FD00B90225D8
:100E70000421154803F06CFD00B903250121134836
:100E800003F066FD01281BD1042519E010210E484E
:100E900003F05EFD012813D108210B4803F058FD33
:100EA00001280DD10421084803F052FD012807D183
:100EB0000121064803F04CFD10B9012001490870DA
:100EC000284670BD140000200018014000080140B1
:100ED00070B504460026094805884088454300212E
:100EE000084603F0D5F803F0DDFA00BF02E004483D
:100EF0000480761CAE42FAD370BD000018020020B8
:100F00000008006C10B5044658488471002C58D174
:100F1000F020564908804FF4A07048800846808829
:100F200045F21051884210D14FF430504F4908819A
:100F30004FF4285048814FF42C5088814FF4F070C2
:100F400008804FF4487048801AE04848808841F68D
:100F5000631188420DD12C20444908812B204881FF
:100F60002A2088814FF4F07008804FF44870488040
:100F700006E02C203D4908812A2048812B208881C9
:100F80003A48808845F21031884205D03748808839
:100F900047F29671884206D14FF4A0703349088019
:100FA0004FF4F07048803148808849F60601884245
:100FB00058D14FF4F0702D4908804FF448704880A4
:100FC00050E04FF4A07029490880F020488008467E
:100FD000808845F21051884210D14FF43050234997
:100FE00008814FF4285048814FF42C5088814FF4E9
:100FF000487008804FF4F070488020E01B488088DB
:1010000041F66311884205D01848808849F60601E8
:1010100088420DD12C20154908812A2048812B2097
:1010200088814FF4487008804FF4F070488006E0E3
:101030002C200E4908812A2048812B2088810B48CA
:10104000808845F21031884205D00848808847F2F0
:101050009671884206D14FF4F070044908804FF42D
:10106000A0704880002002F0F5FE10BD180200209C
:1010700070B505460E4614463146284603F008F87A
:1010800003F010FA01490C8070BD00000008006CEC
:1010900010B5CF2003F0FAF9002003F0EBF9C120DE
:1010A00003F0E8F9302003F0E5F9ED2003F0EEF964
:1010B000642003F0DFF9032003F0DCF9122003F0D1
:1010C000D9F9812003F0D6F9E82003F0DFF9852073
:1010D00003F0D0F9102003F0CDF97A2003F0CAF91B
:1010E000CB2003F0D3F9392003F0C4F92C2003F00E
:1010F000C1F9002003F0BEF9342003F0BBF902204F
:1011000003F0B8F9F72003F0C1F9202003F0B2F999
:10111000EA2003F0BBF9002003F0ACF9002003F053
:10112000A9F9C02003F0B2F91B2003F0A3F9C120F4
:1011300003F0ACF9012003F09DF9C52003F0A6F9F6
:10114000302003F097F9302003F094F9C72003F022
:101150009DF9B72003F08EF9362003F097F9482067
:1011600003F088F93A2003F091F9552003F082F951
:10117000B12003F08BF9002003F07CF91A2003F072
:1011800079F9B62003F082F90A2003F073F9A2205E
:1011900003F070F9F22003F079F9002003F06AF906
:1011A000262003F073F9012003F064F9E02003F036
:1011B0006DF90F2003F05EF92A2003F05BF9282077
:1011C00003F058F9082003F055F90E2003F052F906
:1011D000082003F04FF9542003F04CF9A92003F044
:1011E00049F9432003F046F90A2003F043F90F20A0
:1011F00003F040F9002003F03DF9002003F03AF934
:10120000002003F037F9002003F034F9E12003F067
:101210003DF9002003F02EF9152003F02BF91720DB
:1012200003F028F9072003F025F9112003F022F933
:10123000062003F01FF92B2003F01CF9562003F0C1
:1012400019F93C2003F016F9052003F013F91020DA
:1012500003F010F90F2003F00DF93F2003F00AF915
:101260003F2003F007F90F2003F004F92B2003F0CF
:101270000DF9002003F0FEF8002003F0FBF8012038
:1012800003F0F8F83F2003F0F5F82A2003F0FEF809
:10129000002003F0EFF8002003F0ECF8002003F04A
:1012A000E9F8EF2003F0E6F8112003F0EFF87820DA
:1012B000FFF726FD292003F0E9F810BD10B5FF2047
:1012C00003F0E4F8FF2003F0D5F8982003F0D2F8FB
:1012D000062003F0CFF8BC2003F0D8F8012003F07B
:1012E000C9F80F2003F0C6F8612003F0C3F8FF200F
:1012F00003F0C0F8012003F0BDF8012003F0BAF8B4
:101300000B2003F0B7F8102003F0B4F8372003F0F7
:10131000B1F8632003F0AEF8FF2003F0ABF8FF2034
:1013200003F0A8F8012003F0A5F8012003F0A2F8CB
:10133000002003F09FF8002003F09CF8FF2003F04A
:1013400099F8522003F096F8012003F093F800205A
:1013500003F090F8402003F08DF8BD2003F096F8DC
:10136000012003F087F8232003F084F8452003F0E0
:1013700081F8672003F07EF8012003F07BF823203A
:1013800003F078F8452003F075F8672003F072F851
:10139000BE2003F07BF8002003F06CF8012003F07E
:1013A00069F8AB2003F066F8602003F063F82220B0
:1013B00003F060F8222003F05DF8222003F05AF8D1
:1013C000222003F057F8222003F054F8C72003F03E
:1013D0005DF8362003F04EF8ED2003F057F87F203B
:1013E00003F048F80F2003F045F8C02003F04EF852
:1013F0000F2003F03FF80B2003F03CF80A2003F025
:1014000039F8FC2003F042F8082003F033F8DF201D
:1014100003F03CF8002003F02DF8002003F02AF838
:10142000002003F027F8002003F024F8002003F048
:1014300021F8202003F01EF8F32003F027F8742091
:1014400003F018F8B42003F021F8002003F012F89C
:10145000002003F00FF8002003F00CF8F72003F051
:1014600015F8822003F006F8B12003F00FF80020F1
:1014700003F000F8132002F0FDFF132002F0FAFF42
:10148000F22003F003F8802002F0F4FF042002F0C1
:10149000F1FF402002F0EEFF282002F0EBFFC12018
:1014A00002F0F4FF172002F0E5FF882002F0E2FFCF
:1014B000882002F0DFFF202002F0DCFFE02002F0B5
:1014C000E5FF002002F0D6FF0A2002F0D3FF122031
:1014D00002F0D0FF102002F0CDFF0E2002F0CAFF74
:1014E000202002F0C7FFCC2002F0C4FF072002F04A
:1014F000C1FF062002F0BEFF0B2002F0BBFF0E2052
:1015000002F0B8FF0F2002F0B5FF0D2002F0B2FF8D
:10151000152002F0AFFF102002F0ACFF002002F017
:10152000A9FFE12002F0B2FF002002F0A3FF0B2090
:1015300002F0A0FF132002F09DFF0D2002F09AFFA1
:101540000E2002F097FF1B2002F094FF712002F0A2
:1015500091FF062002F08EFF062002F08BFF0A208A
:1015600002F088FF0F2002F085FF0E2002F082FFBC
:101570000F2002F07FFF152002F07CFF0C2002F00C
:1015800079FF002002F076FF2A2002F07FFF002082
:1015900002F070FF002002F06DFF012002F06AFFF0
:1015A000DF2002F067FF2B2002F070FF002002F026
:1015B00061FF002002F05EFF032002F05BFF1F20AE
:1015C00002F058FF3A2002F061FF552002F052FF6E
:1015D000362002F05BFF002002F04CFF112002F0E9
:1015E00055FF7820FFF78CFB292002F04FFF1420D5
:1015F000FFF786FB2C2002F049FF10BD10B5ED204F
:1016000002F044FF012002F035FFFE2002F032FF1D
:10161000EE2002F03BFFDE2002F02CFF212002F042
:1016200029FFF12002F032FF012002F023FFDF202A
:1016300002F02CFF102002F01DFFC42002F026FF54
:101640008F2002F017FFC62002F020FF002002F0DA
:1016500011FFE22002F00EFFE22002F00BFFE22079
:1016600002F008FFBF2002F011FFAA2002F002FFE3
:10167000B02002F00BFF0D2002F0FCFE002002F073
:10168000F9FE0D2002F0F6FE002002F0F3FE11201C
:1016900002F0F0FE002002F0EDFE192002F0EAFE5A
:1016A000002002F0E7FE212002F0E4FE002002F01C
:1016B000E1FE2D2002F0DEFE002002F0DBFE3D20E8
:1016C00002F0D8FE002002F0D5FE5D2002F0D2FE2E
:1016D000002002F0CFFE5D2002F0CCFE002002F0E0
:1016E000C9FEB12002F0D2FE802002F0C3FE00202D
:1016F00002F0C0FE8B2002F0BDFE002002F0BAFE18
:10170000962002F0B7FE002002F0B4FEB22002F0F4
:10171000BDFE002002F0AEFE002002F0ABFE022073
:1017200002F0A8FE002002F0A5FE032002F0A2FEB7
:10173000002002F09FFEB32002F0A8FE002002F07D
:1017400099FE002002F096FE002002F093FE002099
:1017500002F090FE002002F08DFE002002F08AFED2
:10176000002002F087FE002002F084FE002002F03C
:1017700081FE002002F07EFE002002F07BFE0020B1
:1017800002F078FE002002F075FE002002F072FEEA
:10179000002002F06FFE002002F06CFE002002F03C
:1017A00069FE002002F066FE002002F063FE0020C9
:1017B00002F060FE002002F05DFE002002F05AFE02
:1017C000002002F057FE002002F054FEB42002F088
:1017D0005DFE8B2002F04EFE002002F04BFE9620B4
:1017E00002F048FE002002F045FEA12002F042FE79
:1017F000002002F03FFEB52002F048FE022002F079
:1018000039FE002002F036FE032002F033FE0020F5
:1018100002F030FE042002F02DFE002002F02AFE2D
:10182000B62002F033FE002002F024FE002002F079
:1018300021FEB72002F02AFE002002F01BFE00204D
:1018400002F018FE3F2002F015FE002002F012FE0A
:101850005E2002F00FFE002002F00CFE642002F079
:1018600009FE002002F006FE8C2002F003FE00209C
:1018700002F000FEAC2002F0FDFD002002F0FAFDB7
:10188000DC2002F0F7FD002002F0F4FD702002F0F1
:10189000F1FD002002F0EEFD902002F0EBFD0020B3
:1018A00002F0E8FDEB2002F0E5FD002002F0E2FD91
:1018B000DC2002F0DFFD002002F0DCFDB82002F0A9
:1018C000E5FD002002F0D6FD002002F0D3FD00204F
:1018D00002F0D0FD002002F0CDFD002002F0CAFD94
:1018E000002002F0C7FD002002F0C4FD002002F03D
:1018F000C1FDBA2002F0CAFD242002F0BBFD002089
:1019000002F0B8FD002002F0B5FD002002F0B2FDAB
:10191000C12002F0BBFD202002F0ACFD002002F04F
:10192000A9FD542002F0A6FD002002F0A3FDFF2037
:1019300002F0A0FD002002F09DFDC22002F0A6FDF5
:101940000A2002F097FD002002F094FD042002F02E
:1019500091FD002002F08EFDC32002F097FD3C2097
:1019600002F088FD002002F085FD3A2002F082FDA1
:10197000002002F07FFD392002F07CFD002002F003
:1019800079FD372002F076FD002002F073FD3C2047
:1019900002F070FD002002F06DFD362002F06AFDBD
:1019A000002002F067FD322002F064FD002002F00A
:1019B00061FD2F2002F05EFD002002F05BFD2C2077
:1019C00002F058FD002002F055FD292002F052FDE2
:1019D000002002F04FFD262002F04CFD002002F016
:1019E00049FD242002F046FD002002F043FD2420A2
:1019F00002F040FD002002F03DFD232002F03AFD00
:101A0000002002F037FD3C2002F034FD002002F0FF
:101A100031FD362002F02EFD002002F02BFD322099
:101A200002F028FD002002F025FD2F2002F022FD0B
:101A3000002002F01FFD2C2002F01CFD002002F00F
:101A400019FD292002F016FD002002F013FD2620CA
:101A500002F010FD002002F00DFD242002F00AFD2E
:101A6000002002F007FD242002F004FD002002F017
:101A700001FD232002F0FEFC002002F0FBFCC4204C
:101A800002F004FD622002F0F5FC002002F0F2FCFE
:101A9000052002F0EFFC002002F0ECFC842002F0B4
:101AA000E9FC002002F0E6FCF02002F0E3FC00205C
:101AB00002F0E0FC182002F0DDFC002002F0DAFC6D
:101AC000A42002F0D7FC002002F0D4FC182002F081
:101AD000D1FC002002F0CEFC502002F0CBFC002014
:101AE00002F0C8FC0C2002F0C5FC002002F0C2FC91
:101AF000172002F0BFFC002002F0BCFC952002F091
:101B0000B9FC002002F0B6FCF32002F0B3FC002088
:101B100002F0B0FCE62002F0ADFC002002F0AAFCCE
:101B2000C52002F0B3FC322002F0A4FC002002F039
:101B3000A1FC442002F09EFC002002F09BFC6520EA
:101B400002F098FC002002F095FC762002F092FC56
:101B5000002002F08FFC882002F08CFC002002F0B4
:101B600089FCC62002F092FC202002F083FC0020B9
:101B700002F080FC172002F07DFC002002F07AFCCD
:101B8000012002F077FC002002F074FCC72002F074
:101B90007DFC002002F06EFC002002F06BFC0020B7
:101BA00002F068FC002002F065FCC82002F06EFC28
:101BB000002002F05FFC002002F05CFC002002F03C
:101BC00059FC002002F056FCC92002F05FFC002006
:101BD00002F050FC002002F04DFC002002F04AFC14
:101BE000002002F047FC002002F044FC002002F03C
:101BF00041FC002002F03EFC002002F03BFC0020F3
:101C000002F038FC002002F035FC002002F032FC2B
:101C1000002002F02FFC002002F02CFC002002F03B
:101C200029FC002002F026FC002002F023FCE0202A
:101C300002F02CFC162002F01DFC002002F01AFC21
:101C40001C2002F017FC002002F014FC212002F0FE
:101C500011FC002002F00EFC362002F00BFC0020EC
:101C600002F008FC462002F005FC002002F002FC15
:101C7000522002F0FFFB002002F0FCFB642002F087
:101C8000F9FB002002F0F6FB7A2002F0F3FB0020C3
:101C900002F0F0FB8B2002F0EDFB002002F0EAFBEB
:101CA000992002F0E7FB002002F0E4FBA82002F0FC
:101CB000E1FB002002F0DEFBB92002F0DBFB00209C
:101CC00002F0D8FBC42002F0D5FB002002F0D2FBCA
:101CD000CA2002F0CFFB002002F0CCFBD22002F0A1
:101CE000C9FB002002F0C6FBD92002F0C3FB002094
:101CF00002F0C0FBE02002F0BDFB002002F0BAFBC6
:101D0000F32002F0B7FB002002F0B4FBE12002F068
:101D1000BDFB162002F0AEFB002002F0ABFB1C2046
:101D200002F0A8FB002002F0A5FB222002F0A2FB9B
:101D3000002002F09FFB362002F09CFB002002F006
:101D400099FB452002F096FB002002F093FB522005
:101D500002F090FB002002F08DFB642002F08AFB71
:101D6000002002F087FB7A2002F084FB002002F0C2
:101D700081FB8B2002F07EFB002002F07BFB992090
:101D800002F078FB002002F075FBA82002F072FB45
:101D9000002002F06FFBB92002F06CFB002002F083
:101DA00069FBC42002F066FB002002F063FBCA203E
:101DB00002F060FB002002F05DFBD22002F05AFB33
:101DC000002002F057FBD82002F054FB002002F064
:101DD00051FBE02002F04EFB002002F04BFBF32011
:101DE00002F048FB002002F045FBE22002F04EFB2F
:101DF000052002F03FFB002002F03CFB0B2002F02C
:101E000039FB002002F036FB1B2002F033FB0020E0
:101E100002F030FB342002F02DFB002002F02AFB00
:101E2000442002F027FB002002F024FB4F2002F0A8
:101E300021FB002002F01EFB612002F01BFB0020B2
:101E400002F018FB792002F015FB002002F012FBD3
:101E5000882002F00FFB002002F00CFB972002F01C
:101E600009FB002002F006FBA62002F003FB002085
:101E700002F000FBB72002F0FDFA002002F0FAFAAF
:101E8000C22002F0F7FA002002F0F4FAC72002F0B4
:101E9000F1FA002002F0EEFAD12002F0EBFA002075
:101EA00002F0E8FAD62002F0E5FA002002F0E2FAA9
:101EB000DD2002F0DFFA002002F0DCFAF32002F06D
:101EC000D9FA002002F0D6FAE32002F0DFFA05206A
:101ED00002F0D0FA002002F0CDFA0A2002F0CAFA8D
:101EE000002002F0C7FA1C2002F0C4FA002002F021
:101EF000C1FA332002F0BEFA002002F0BBFA4420FF
:101F000002F0B8FA002002F0B5FA502002F0B2FA5E
:101F1000002002F0AFFA622002F0ACFA002002F0DA
:101F2000A9FA782002F0A6FA002002F0A3FA88208D
:101F300002F0A0FA002002F09DFA972002F09AFA2F
:101F4000002002F097FAA62002F094FA002002F096
:101F500091FAB72002F08EFA002002F08BFAC2202C
:101F600002F088FA002002F085FAC72002F082FA17
:101F7000002002F07FFAD12002F07CFA002002F06B
:101F800079FAD52002F076FA002002F073FADD200B
:101F900002F070FA002002F06DFAF32002F06AFA03
:101FA000002002F067FAE42002F070FA012002F04B
:101FB00061FA002002F05EFA012002F05BFA0020D4
:101FC00002F058FA022002F055FA002002F052FA0C
:101FD0002A2002F04FFA002002F04CFA3C2002F0D6
:101FE00049FA002002F046FA4B2002F043FA0020A2
:101FF00002F040FA5D2002F03DFA002002F03AFAC9
:10200000742002F037FA002002F034FA842002F043
:1020100031FA002002F02EFA932002F02BFA002071
:1020200002F028FAA22002F025FA002002F022FA9B
:10203000B32002F01FFA002002F01CFABE2002F0CA
:1020400019FA002002F016FAC42002F013FA002058
:1020500002F010FACD2002F00DFA002002F00AFA88
:10206000D32002F007FA002002F004FADD2002F08B
:1020700001FA002002F0FEF9F32002F0FBF9002043
:1020800002F0F8F9E52002F001FA002002F0F2F97E
:10209000002002F0EFF9002002F0ECF9002002F03D
:1020A000E9F9022002F0E6F9002002F0E3F9292024
:1020B00002F0E0F9002002F0DDF93C2002F0DAF94C
:1020C000002002F0D7F94B2002F0D4F9002002F0F2
:1020D000D1F95D2002F0CEF9002002F0CBF9742096
:1020E00002F0C8F9002002F0C5F9842002F0C2F91C
:1020F000002002F0BFF9932002F0BCF9002002F0AA
:10210000B9F9A22002F0B6F9002002F0B3F9B32029
:1021100002F0B0F9002002F0ADF9BE2002F0AAF9F9
:10212000002002F0A7F9C42002F0A4F9002002F078
:10213000A1F9CD2002F09EF9002002F09BF9D320F6
:1021400002F098F9002002F095F9DC2002F092F9F3
:10215000002002F08FF9F32002F08CF9002002F049
:1021600089F9E62002F092F9112002F083F90020AB
:1021700002F080F9342002F07DF9002002F07AF9B3
:10218000562002F077F9002002F074F9762002F070
:1021900071F9002002F06EF9772002F06BF900204F
:1021A00002F068F9662002F065F9002002F062F999
:1021B000882002F05FF9002002F05CF9992002F01B
:1021C00059F9002002F056F9BB2002F053F9002023
:1021D00002F050F9992002F04DF9002002F04AF97E
:1021E000662002F047F9002002F044F9552002F081
:1021F00041F9002002F03EF9552002F03BF90020A1
:1022000002F038F9452002F035F9002002F032F9E9
:10221000432002F02FF9002002F02CF9442002F0B4
:1022200029F9002002F026F9E72002F02FF93220E8
:1022300002F020F9002002F01DF9552002F01AF9F1
:10224000002002F017F9762002F014F9002002F0C5
:1022500011F9662002F00EF9002002F00BF9672058
:1022600002F008F9002002F005F9672002F002F9F7
:10227000002002F0FFF8872002F0FCF8002002F0B6
:10228000F9F8992002F0F6F8002002F0F3F8BB20EC
:1022900002F0F0F8002002F0EDF8992002F0EAF8E0
:1022A000002002F0E7F8772002F0E4F8002002F0C6
:1022B000E1F8442002F0DEF8002002F0DBF85620BE
:1022C00002F0D8F8002002F0D5F8232002F0D2F86E
:1022D000002002F0CFF8332002F0CCF8002002F00A
:1022E000C9F8452002F0C6F8002002F0C3F8E82043
:1022F00002F0CCF8002002F0BDF8002002F0BAF89D
:10230000992002F0B7F8002002F0B4F8872002F01C
:10231000B1F8002002F0AEF8882002F0ABF80020FF
:1023200002F0A8F8772002F0A5F8002002F0A2F849
:10233000662002F09FF8002002F09CF8882002F04E
:1023400099F8002002F096F8AA2002F093F80020F5
:1023500002F090F8BB2002F08DF8002002F08AF81D
:10236000992002F087F8002002F084F8662002F03D
:1023700081F8002002F07EF8552002F07BF8002062
:1023800002F078F8552002F075F8002002F072F89B
:10239000442002F06FF8002002F06CF8442002F0B4
:1023A00069F8002002F066F8552002F063F800207A
:1023B00002F060F8E92002F069F8AA2002F05AF869
:1023C000002002F057F8002002F054F8002002F03C
:1023D00051F8002002F05AF8AA2002F04BF8CF2062
:1023E00002F054F8002002F045F8002002F042F814
:1023F000002002F03FF8002002F03CF8002002F03C
:1024000039F8002002F036F8002002F033F80020FE
:1024100002F030F8002002F02DF8002002F02AF837
:10242000002002F027F8002002F024F8002002F03B
:1024300021F8002002F01EF8002002F01BF8002016
:1024400002F018F8002002F015F8F02002F01EF853
:10245000002002F00FF8502002F00CF8002002F0EB
:1024600009F8002002F006F8002002F003F8F3203B
:1024700002F00CF8002001F0FDFFF92002F006F850
:10248000062001F0F7FF102001F0F4FF292001F0F1
:10249000F1FF002001F0EEFF3A2001F0F7FF552098
:1024A00001F0E8FF112001F0F1FF6420FEF728FCA5
:1024B000292001F0EBFF352001F0E8FF002001F0BA
:1024C000D9FF512001F0E2FFFF2001F0D3FF53209C
:1024D00001F0DCFF2C2001F0CDFF552001F0D6FFEC
:1024E000822001F0C7FF2C2001F0D0FF10BD10B5F5
:1024F00055214FF4704001F0DFFFAA214FF2010097
:1025000001F0DAFF52214FF2020001F0D5FF08215D
:102510004FF2030001F0D0FF01214FF2040001F05F
:10252000CBFF34214FF4364001F0C6FF34214BF28B
:10253000016001F0C1FF34214BF2026001F0BCFFE9
:102540000D214FF4304001F0B7FF0D214BF2010097
:1025500001F0B2FF0D214BF2020001F0ADFF24218A
:102560004FF4374001F0A8FF24214BF2017001F035
:10257000A3FF24214BF2027001F09EFF0D214FF4C6
:10258000314001F099FF0D214BF2011001F094FF51
:102590000D214BF2021001F08FFF24214FF438403F
:1025A00001F08AFF24214BF6010001F085FF242170
:1025B0004BF6020001F080FF00214FF4324001F0A1
:1025C0007BFF24214FF4394001F076FF24214BF6A4
:1025D000011001F071FF24214BF6021001F06CFF95
:1025E00005214FF4334001F067FF05214BF2013024
:1025F00001F062FF05214BF2023001F05DFF342152
:102600004FF43A4001F058FF34214BF6012001F01D
:1026100053FF34214BF6022001F04EFF0B214FF403
:10262000354001F049FF0B214BF2015001F044FF0E
:102630000B214BF2025001F03FFF00214FF43C40D0
:1026400001F03AFFA3214BF6014001F035FF0021D4
:102650004BF6024001F030FF00214FF43D4001F005
:102660002BFFA3214BF6015001F026FF00214BF672
:10267000025001F021FF00214FF43E4001F01CFF09
:1026800037214BF6016001F017FF00214FF4514054
:1026900001F012FF37214DF2011001F00DFF002172
:1026A0004DF2021001F008FF53214DF2031001F02A
:1026B00003FF00214DF2041001F0FEFE79214DF2DE
:1026C000051001F0F9FE00214DF2061001F0F4FEB4
:1026D00097214DF2071001F0EFFE00214DF2081096
:1026E00001F0EAFEB1214DF2091001F0E5FE0021F2
:1026F0004DF20A1001F0E0FED5214DF20B1001F071
:10270000DBFE00214DF20C1001F0D6FEF4214DF25B
:102710000D1001F0D1FE01214DF20E1001F0CCFEA2
:1027200023214DF20F1001F0C7FE01214DF21010D0
:1027300001F0C2FE49214DF2111001F0BDFE012150
:102740004DF2121001F0B8FE87214DF2131001F086
:10275000B3FE01214DF2141001F0AEFEB6214DF290
:10276000151001F0A9FE02214DF2161001F0A4FE91
:1027700000214DF2171001F09FFE02214DF21810BA
:1027800001F09AFE3B214DF2191001F095FE022155
:102790004DF21A1001F090FE3D214DF21B1001F098
:1027A0008BFE02214DF21C1001F086FE75214DF2C8
:1027B0001D1001F081FE02214DF21E1001F07CFE81
:1027C000B1214DF21F1001F077FE02214DF22010D1
:1027D00001F072FED5214DF2211001F06DFE0321B2
:1027E0004DF2221001F068FE09214DF2231001F094
:1027F00063FE03214DF2241001F05EFE28214DF20C
:10280000251001F059FE03214DF2261001F054FE6F
:1028100052214DF2271001F04FFE03214DF22810F6
:1028200001F04AFE6B214DF2291001F045FE032113
:102830004DF22A1001F040FE8D214DF22B1001F0D7
:102840003BFE03214DF22C1001F036FEA2214DF289
:102850002D1001F031FE03214DF22E1001F02CFE5F
:10286000BB214DF22F1001F027FE03214DF2301055
:1028700001F022FEC1214DF2311001F01DFE0321B5
:102880004DF2321001F018FEC1214DF2331001F06B
:1028900013FE00214FF4524001F00EFE37214DF29D
:1028A000012001F009FE00214DF2022001F004FE9A
:1028B00053214DF2032001F0FFFD00214DF20420D1
:1028C00001F0FAFD79214DF2052001F0F5FD00211E
:1028D0004DF2062001F0F0FD97214DF2072001F0A6
:1028E000EBFD00214DF2082001F0E6FDB1214DF293
:1028F000092001F0E1FD00214DF20A2001F0DCFD8C
:10290000D5214DF20B2001F0D7FD00214DF20C2016
:1029100001F0D2FDF4214DF20D2001F0CDFD012199
:102920004DF20E2001F0C8FD23214DF20F2001F0E1
:10293000C3FD01214DF2102001F0BEFD49214DF2F1
:10294000112001F0B9FD01214DF2122001F0B4FD7A
:1029500087214DF2132001F0AFFD01214DF214202B
:1029600001F0AAFDB6214DF2152001F0A5FD0221CE
:102970004DF2162001F0A0FD00214DF2172001F0CC
:102980009BFD02214DF2182001F096FD3B214DF2F6
:10299000192001F091FD02214DF21A2001F08CFD69
:1029A0003D214DF21B2001F087FD02214DF21C203C
:1029B00001F082FD75214DF21D2001F07DFD022107
:1029C0004DF21E2001F078FDB1214DF21F2001F0E3
:1029D00073FD02214DF2202001F06EFDD5214DF254
:1029E000212001F069FD03214DF2222001F064FD58
:1029F00009214DF2232001F05FFD03214DF2242037
:102A000001F05AFD28214DF2252001F055FD03214A
:102A10004DF2262001F050FD52214DF2272001F009
:102A20004BFD03214DF2282001F046FD6B214DF2B4
:102A3000292001F041FD03214DF22A2001F03CFD47
:102A40008D214DF22B2001F037FD03214DF22C207A
:102A500001F032FDA2214DF22D2001F02DFD0321C8
:102A60004DF22E2001F028FDBB214DF22F2001F068
:102A700023FD03214DF2302001F01EFDC1214DF256
:102A8000312001F019FD03214DF2322001F014FD37
:102A9000C1214DF2332001F00FFD00214FF45340CE
:102AA00001F00AFD37214DF2013001F005FD002152
:102AB0004DF2023001F000FD53214DF2033001F0E0
:102AC000FBFC00214DF2043001F0F6FC79214DF2BF
:102AD000053001F0F1FC00214DF2063001F0ECFC74
:102AE00097214DF2073001F0E7FC00214DF208304C
:102AF00001F0E2FCB1214DF2093001F0DDFC0021D2
:102B00004DF20A3001F0D8FCD5214DF20B3001F026
:102B1000D3FC00214DF20C3001F0CEFCF4214DF23B
:102B20000D3001F0C9FC01214DF20E3001F0C4FC62
:102B300023214DF20F3001F0BFFC01214DF2103086
:102B400001F0BAFC49214DF2113001F0B5FC012130
:102B50004DF2123001F0B0FC87214DF2133001F03C
:102B6000ABFC01214DF2143001F0A6FCB6214DF270
:102B7000153001F0A1FC02214DF2163001F09CFC51
:102B800000214DF2173001F097FC02214DF2183070
:102B900001F092FC3B214DF2193001F08DFC022135
:102BA0004DF21A3001F088FC3D214DF21B3001F04E
:102BB00083FC02214DF21C3001F07EFC75214DF2A8
:102BC0001D3001F079FC02214DF21E3001F074FC41
:102BD000B1214DF21F3001F06FFC02214DF2203087
:102BE00001F06AFCD5214DF2213001F065FC032192
:102BF0004DF2223001F060FC09214DF2233001F04A
:102C00005BFC03214DF2243001F056FC28214DF2EB
:102C1000253001F051FC03214DF2263001F04CFC2F
:102C200052214DF2273001F047FC03214DF22830AC
:102C300001F042FC6B214DF2293001F03DFC0321F3
:102C40004DF22A3001F038FC8D214DF22B3001F08D
:102C500033FC03214DF22C3001F02EFCA2214DF269
:102C60002D3001F029FC03214DF22E3001F024FC1F
:102C7000BB214DF22F3001F01FFC03214DF230300B
:102C800001F01AFCC1214DF2313001F015FC032195
:102C90004DF2323001F010FCC1214DF2333001F021
:102CA0000BFC00214FF4544001F006FC37214DF29B
:102CB000014001F001FC00214DF2024001F0FCFB5B
:102CC00053214DF2034001F0F7FB00214DF2044087
:102CD00001F0F2FB79214DF2054001F0EDFB0021FE
:102CE0004DF2064001F0E8FB97214DF2074001F05C
:102CF000E3FB00214DF2084001F0DEFBB1214DF273
:102D0000094001F0D9FB00214DF20A4001F0D4FB4B
:102D1000D5214DF20B4001F0CFFB00214DF20C40CC
:102D200001F0CAFBF4214DF20D4001F0C5FB012179
:102D30004DF20E4001F0C0FB23214DF20F4001F097
:102D4000BBFB01214DF2104001F0B6FB49214DF2D1
:102D5000114001F0B1FB01214DF2124001F0ACFB3A
:102D600087214DF2134001F0A7FB01214DF21440E1
:102D700001F0A2FBB6214DF2154001F09DFB0221AE
:102D80004DF2164001F098FB00214DF2174001F082
:102D900093FB02214DF2184001F08EFB3B214DF2D6
:102DA000194001F089FB02214DF21A4001F084FB29
:102DB0003D214DF21B4001F07FFB02214DF21C40F2
:102DC00001F07AFB75214DF21D4001F075FB0221E7
:102DD0004DF21E4001F070FBB1214DF21F4001F099
:102DE0006BFB02214DF2204001F066FBD5214DF234
:102DF000214001F061FB03214DF2224001F05CFB18
:102E000009214DF2234001F057FB03214DF22440EC
:102E100001F052FB28214DF2254001F04DFB03212A
:102E20004DF2264001F048FB52214DF2274001F0BF
:102E300043FB03214DF2284001F03EFB6B214DF294
:102E4000294001F039FB03214DF22A4001F034FB07
:102E50008D214DF22B4001F02FFB03214DF22C4030
:102E600001F02AFBA2214DF22D4001F025FB0321A8
:102E70004DF22E4001F020FBBB214DF22F4001F01E
:102E80001BFB03214DF2304001F016FBC1214DF236
:102E9000314001F011FB03214DF2324001F00CFBF7
:102EA000C1214DF2334001F007FB00214FF45540A2
:102EB00001F002FB37214DF2015001F0FDFA002133
:102EC0004DF2025001F0F8FA53214DF2035001F097
:102ED000F3FA00214DF2045001F0EEFA79214DF29F
:102EE000055001F0E9FA00214DF2065001F0E4FA34
:102EF00097214DF2075001F0DFFA00214DF2085002
:102F000001F0DAFAB1214DF2095001F0D5FA0021B1
:102F10004DF20A5001F0D0FAD5214DF20B5001F0DC
:102F2000CBFA00214DF20C5001F0C6FAF4214DF21B
:102F30000D5001F0C1FA01214DF20E5001F0BCFA22
:102F400023214DF20F5001F0B7FA01214DF210503C
:102F500001F0B2FA49214DF2115001F0ADFA012110
:102F60004DF2125001F0A8FA87214DF2135001F0F2
:102F7000A3FA01214DF2145001F09EFAB6214DF250
:102F8000155001F099FA02214DF2165001F094FA11
:102F900000214DF2175001F08FFA02214DF2185026
:102FA00001F08AFA3B214DF2195001F085FA022115
:102FB0004DF21A5001F080FA3D214DF21B5001F004
:102FC0007BFA02214DF21C5001F076FA75214DF288
:102FD0001D5001F071FA02214DF21E5001F06CFA01
:102FE000B1214DF21F5001F067FA02214DF220503D
:102FF00001F062FAD5214DF2215001F05DFA032172
:103000004DF2225001F058FA09214DF2235001F0FF
:1030100053FA03214DF2245001F04EFA28214DF2CB
:10302000255001F049FA03214DF2265001F044FAEF
:1030300052214DF2275001F03FFA03214DF2285062
:1030400001F03AFA6B214DF2295001F035FA0321D3
:103050004DF22A5001F030FA8D214DF22B5001F043
:103060002BFA03214DF22C5001F026FAA2214DF249
:103070002D5001F021FA03214DF22E5001F01CFADF
:10308000BB214DF22F5001F017FA03214DF23050C1
:1030900001F012FAC1214DF2315001F00DFA032175
:1030A0004DF2325001F008FAC1214DF2335001F0D7
:1030B00003FA00214FF4564001F0FEF937214DF29A
:1030C000016001F0F9F900214DF2026001F0F4F91C
:1030D00053214DF2036001F0EFF900214DF204603D
:1030E00001F0EAF979214DF2056001F0E5F90021DE
:1030F0004DF2066001F0E0F997214DF2076001F012
:10310000DBF900214DF2086001F0D6F9B1214DF252
:10311000096001F0D1F900214DF20A6001F0CCF90B
:10312000D5214DF20B6001F0C7F900214DF20C6082
:1031300001F0C2F9F4214DF20D6001F0BDF9012159
:103140004DF20E6001F0B8F923214DF20F6001F04D
:10315000B3F901214DF2106001F0AEF949214DF2B1
:10316000116001F0A9F901214DF2126001F0A4F9FA
:1031700087214DF2136001F09FF901214DF2146097
:1031800001F09AF9B6214DF2156001F095F902218E
:103190004DF2166001F090F900214DF2176001F038
:1031A0008BF902214DF2186001F086F93B214DF2B6
:1031B000196001F081F902214DF21A6001F07CF9E9
:1031C0003D214DF21B6001F077F902214DF21C60A8
:1031D00001F072F975214DF21D6001F06DF90221C7
:1031E0004DF21E6001F068F9B1214DF21F6001F04F
:1031F00063F902214DF2206001F05EF9D5214DF214
:10320000216001F059F903214DF2226001F054F9D7
:1032100009214DF2236001F04FF903214DF22460A2
:1032200001F04AF928214DF2256001F045F903210A
:103230004DF2266001F040F952214DF2276001F075
:103240003BF903214DF2286001F036F96B214DF274
:10325000296001F031F903214DF22A6001F02CF9C7
:103260008D214DF22B6001F027F903214DF22C60E6
:1032700001F022F9A2214DF22D6001F01DF9032188
:103280004DF22E6001F018F9BB214DF22F6001F0D4
:1032900013F903214DF2306001F00EF9C1214DF216
:1032A000316001F009F903214DF2326001F004F9B7
:1032B000C1214DF2336001F0FFF855214FF4704009
:1032C00001F0FAF8AA214FF2010001F0F5F85221BD
:1032D0004FF2020001F0F0F808214FF2030001F074
:1032E000EBF800214FF2040001F0E6F800214FF462
:1032F000304001F0E1F805214BF2010001F0DCF86B
:1033000002214BF2020001F0D7F805214BF2030035
:1033100001F0D2F802214BF2040001F0CDF80821AF
:103320004FF4364001F0C8F850214FF4354001F019
:10333000C3F805214FF4364001F0BEF800214FF4E8
:10334000374001F0B9F800214BF2017001F0B4F8F8
:1033500001214FF4384001F0AFF805214BF6010090
:1033600001F0AAF805214BF6020001F0A5F80521AD
:103370004BF6030001F0A0F802214FF43C4001F0AD
:103380009BF800214BF6014001F096F800214BF626
:10339000024001F091F803214FF44C4001F08CF809
:1033A00000214CF6014001F087F800214CF6024064
:1033B00001F082F801214FF43D4001F07DF88421B5
:1033C0004BF6015001F078F807214BF6025001F05E
:1033D00073F831214BF6035001F06EF800214BF6E3
:1033E000045001F069F801214FF43A4001F064F80B
:1033F000AA214FF47F4001F05FF855214FF601708C
:1034000001F05AF825214FF6027001F055F801211C
:103410004FF6037001F050F840214FF4585001F07E
:103420004BF800214FF4545001F046F805214FF4B9
:10343000685001F041F84FF4885001F027F87820E7
:10344000FDF75EFC4FF4245001F020F80A20FDF750
:1034500057FC4FF4305001F019F810BD10B5E220C0
:1034600001F014F81D2001F005F8022001F002F827
:10347000042000F0FFFF6420FDF74CFCE02001F089
:1034800005F8012000F0F6FF0A20FDF739FCE020E6
:1034900000F0FCFF032000F0EDFF0C20FDF730FCF6
:1034A000012000F0F3FF0A20FDF72AFCE62000F0DF
:1034B000EDFF2F2000F0DEFFFF2000F0DBFFFF20FC
:1034C00000F0D8FFB02000F0E1FF202000F0D2FF94
:1034D000002000F0CFFF032000F0CCFF40F21F30AF
:1034E00000F0C8FF012000F0C5FF40F2DF1000F03F
:1034F000C1FF002000F0BEFFB42000F0C7FF042091
:1035000000F0B8FF40F21F4000F0B4FF002000F0D0
:10351000B1FF2E2000F0AEFF002000F0ABFF002036
:1035200000F0A8FF002000F0A5FF002000F0A2FF9F
:10353000B62000F0ABFF022000F09CFF4FF40370B8
:1035400000F098FF002000F095FF172000F092FF98
:10355000152000F08FFF002000F08CFF002000F00D
:1035600089FFF02000F092FF032000F083FF292064
:1035700000F08CFFD02000F089FF002000F07AFFDF
:10358000BE2000F083FF052000F074FFFE2000F055
:1035900071FF012000F06EFF002000F06BFF0020A3
:1035A00000F068FF002000F065FFB82000F06EFF1B
:1035B000032000F05FFF012000F05CFFBA2000F064
:1035C00065FF012000F056FF10BD10B5112000F07E
:1035D0005DFF7820FDF794FB362000F057FF0020B8
:1035E00000F048FF3A2000F051FF052000F042FFB4
:1035F000B22000F04BFF0C2000F03CFF0C2000F04C
:1036000039FF002000F036FF332000F033FF332075
:1036100000F030FFB72000F039FF352000F02AFF1E
:10362000BB2000F033FF322000F024FFC02000F068
:103630002DFF0C2000F01EFFC22000F027FF01200C
:1036400000F018FFC32000F021FF102000F012FF4F
:10365000C42000F01BFF202000F00CFFC62000F06B
:1036600015FF0F2000F006FFD02000F00FFFA42070
:1036700000F000FFA12000F0FDFEE02000F006FFBA
:10368000D02000F0F7FE002000F0F4FE022000F051
:10369000F1FE072000F0EEFE0A2000F0EBFE2820ED
:1036A00000F0E8FE322000F0E5FE442000F0E2FEEB
:1036B000422000F0DFFE062000F0DCFE0E2000F0CD
:1036C000D9FE122000F0D6FE142000F0D3FE172001
:1036D00000F0D0FEE12000F0D9FED02000F0CAFEBC
:1036E000002000F0C7FE022000F0C4FE072000F01A
:1036F000C1FE0A2000F0BEFE282000F0BBFE3120F3
:1037000000F0B8FE542000F0B5FE472000F0B2FEF5
:103710000E2000F0AFFE1C2000F0ACFE172000F0E1
:10372000A9FE1B2000F0A6FE1E2000F0A3FE2A200A
:1037300000F0ACFE002000F09DFE002000F09AFE9C
:10374000002000F097FEEF2000F094FE2B2000F008
:103750009DFE002000F08EFE002000F08BFE012078
:1037600000F088FE3F2000F085FE292000F08EFE4C
:1037700010BD10B5112000F089FE7820FDF7C0FAC9
:10378000362000F083FE482000F074FE3A2000F05E
:103790007DFE552000F06EFEF02000F077FEC32085
:1037A00000F068FEF02000F071FE962000F062FE4E
:1037B000B42000F06BFE012000F05CFEB62000F0AB
:1037C00065FE0A2000F056FEA22000F053FEB7204E
:1037D00000F05CFEC62000F04DFEB92000F056FE61
:1037E000022000F047FEE02000F044FEC02000F080
:1037F0004DFE802000F03EFE162000F03BFEC12072
:1038000000F044FE192000F035FEC22000F03EFE1C
:10381000A72000F02FFEC52000F038FE162000F093
:1038200029FEE82000F032FE402000F023FE8A202E
:1038300000F020FE002000F01DFE002000F01AFE27
:10384000292000F017FE192000F014FEA52000F03A
:1038500011FE332000F00EFEE02000F017FEF020F5
:1038600000F008FE072000F005FE0D2000F002FE2B
:10387000042000F0FFFD052000F0FCFD142000F006
:10388000F9FD362000F0F6FD542000F0F3FD4C2049
:1038900000F0F0FD382000F0EDFD132000F0EAFD0F
:1038A000142000F0E7FD2E2000F0E4FD342000F0AD
:1038B000E1FDE12000F0EAFDF02000F0DBFD10204A
:1038C00000F0D8FD142000F0D5FD0E2000F0D2FD50
:1038D0000C2000F0CFFD082000F0CCFD352000F0DA
:1038E000C9FD442000F0C6FD4C2000F0C3FD262099
:1038F00000F0C0FD102000F0BDFD122000F0BAFD68
:103900002C2000F0B7FD322000F0B4FDF02000F0D4
:10391000BDFD3C2000F0AEFDF02000F0B7FD6920B9
:1039200000F0A8FD7820FDF7EBF9212000F0AEFDB6
:10393000292000F0ABFD10BD2DE9F04F05460E46E5
:1039400017469846DDF824A04FF0000B781B401C6A
:103950001FFA80FB344613E02146284600F098FB0E
:1039600000F0A0FD4FF0000906E00749A1F800A013
:1039700009F101001FFA80F9D945F6DB601C84B219
:103980004445E9DDBDE8F08F0008006C1CB500BFC0
:10399000FA48806940F48070F849886100BF00BF30
:1039A0000846806940F02000886100BF00BF0846DB
:1039B000806940F02000886100BF00BF0846806930
:1039C00040F48070886100BF00BF0846806940F005
:1039D0000800886100BF0846806940F06000886187
:1039E0000846406940F480704861012003210023AB
:1039F0000222CDE900100103E14800F0BDFF0120E3
:103A0000032100230222CDE900102021DD4800F02F
:103A1000B3FF0120032100230222CDE90010102171
:103A2000D84800F0A9FF0120032100230222CDE99C
:103A300000100146D24800F09FFF0120032100231F
:103A40000246CDE900100146CF4800F095FF012065
:103A5000032100230222CDE900104CF20371C94872
:103A600000F08AFF0120032100230222CDE900108B
:103A70004FF68071C54800F07FFF00204FF02041D5
:103A80008861C861C24908604FF02040806940F4F5
:103A900080504FF0204188610846806940F48040A2
:103AA00088610846806940F0100088610846C06956
:103AB000C8610846C069C8610846C06940F47060C2
:103AC000C861B3480068C1F81C01B1480068C1F87A
:103AD0001C010846D0F81C0140F48070C1F81C019C
:103AE0000846806940F0010088610846806940F01E
:103AF00000408861A74800F08FF9D32000F0C6FC91
:103B000000F09CF9A449888000F098F9A2498880C7
:103B100000F094F9A0498880084680884FF6FF712C
:103B200001EA00209C49888000F088F99A49898838
:103B30000843994988800846808849F24131884283
:103B40007ED0042000F0A2FC00F078F99249888031
:103B500000F074F99049888000F070F98E498880EF
:103B6000084680884FF6FF7101EA00208A49888064
:103B700000F064F9884989880843874988800846A5
:103B8000808848F25251884203D147F289708249B5
:103B900088808148808847F289718842D0D0D420BB
:103BA00000F074FC00F04AF97B49888000F046F987
:103BB0007949888000F042F97749888008468088F2
:103BC0004FF6FF7101EA00207349888000F036F952
:103BD000714989880843704988800846808845F281
:103BE00010318842ACD0D32000F050FC00F026F910
:103BF0006949888000F022F96749888000F01EF941
:103C000065498880084680884FF6FF7101EA0020E8
:103C10006149888000F012F95F49898808435E494C
:103C200088800846808847F29671884288D055215E
:103C30004FF4704000F040FCAA214FF2010000E078
:103C40007CE000F039FC52214FF2020000F034FC1D
:103C500008214FF2030000F02FFC01214FF2040075
:103C600000F02AFC4FF4454000F010FC00F0E6F8AC
:103C700049498880084680884FF6FF7101EA002094
:103C8000454988804CF2015000F000FC00F0D6F865
:103C9000414989880843404988800520FDF730F86C
:103CA0003D48808845F21051884247D0D32000F02B
:103CB000EDFB00F0C3F83849888000F0BFF83649C2
:103CC000888000F0BBF834498880084680884FF629
:103CD000FF7101EA00203049888000F0AFF82E49DA
:103CE000898808432C4988800846808849F606015F
:103CF000884223D0A12000F0C9FB00F09FF826499C
:103D0000888000F09BF824498880084680884FF618
:103D1000FF7101EA00202049888000F08FF81E49D9
:103D2000898808431C4988800846808845F261716B
:103D3000884203D141F6631017498880164881886C
:103D400016A0FCF791FA1448808847F289718842DE
:103D500002D1FFF73AFC4DE00F48808849F241312B
:103D6000884202D1FDF794F944E00B48808845F27F
:103D70001031884218D1FDF741FC3BE000100240B1
:103D80000020014000140140000C014000180140D7
:103D90001C0100A0FFFF0100180200204C4344203A
:103DA00049443A25780D0A001948808847F29671EF
:103DB000884202D1FFF7DDFC1CE01548808845F2FF
:103DC0001051884202D1FEF792FB13E01048808820
:103DD00049F60601884202D1FDF770FA0AE00C4864
:103DE000808841F66311884204D1FFF737FB6420D5
:103DF00000F016FB0020FDF785F80122114605486A
:103E000000F0AEFD4FF6FF70FDF762F81CBD00003C
:103E100018020020000C014000BF011EA0F10100AB
:103E2000FBD1704710B50246012000E050430B1E45
:103E3000A1F10104E1B2F9D110BD000008B50220E2
:103E4000FFF7EAFF024800880090BDF8000008BDB7
:103E50000008006CF0B50546002400278B488079E7
:103E6000012805D18948808841F66311884208D12C
:103E700086488079F0B98548808841F66311884288
:103E800018D1082D15D2DFE805F00406080A0C0E3B
:103E9000101206250DE007250BE0042509E0052595
:103EA00007E0012505E0002503E0032501E00225E8
:103EB00000BF00BF082D1CD2DFE805F00406090C86
:103EC0000F12151800BF14E044F0800411E044F014
:103ED00040040EE044F0C0040BE044F0200408E08D
:103EE00044F0600405E044F0A00402E044F0E00483
:103EF00000BF00BF36276548808845F210518842D0
:103F000000D13F026148808849F2413188420BD09C
:103F10005E48808847F28971884205D05B48808876
:103F200047F29671884201D144F008042146384690
:103F300000F0C2FA5548808841F6631188421DD0CE
:103F400004F0200068B151480088504949888842EF
:103F500014DA4E48068840884C4908800846468056
:103F60000CE04A48008849494988884206DD4748AC
:103F7000068840884549088008464680434880882E
:103F800045F21051884252D14049488900F07EFAEA
:103F9000002000F06FFA3D494989491C88B200F0C1
:103FA00075FA002000F066FA38494989891C88B200
:103FB00000F06CFA35490988491EC1F30F2000F062
:103FC00059FA32494989C91C88B200F05FFA2F4971
:103FD0000978491EC8B200F04DFA2C49888900F0D2
:103FE00055FA002000F046FA28498989491C88B210
:103FF00000F04CFA002000F03DFA24498989891C20
:1040000088B200F043FA21494988491EC1F30F20C4
:1040100000F030FA1D498989C91C88B200F036FACF
:104020001A498978491EC8B200F024FA2DE01749D0
:10403000488900F02BFA002000F01CFA002000F064
:1040400019FA12490988491EC1F30F2000F012FA2B
:104050000E490978491EC8B200F00CFA0B4988894C
:1040600000F014FA002000F005FA002000F002FA37
:1040700006494988491EC1F30F2000F0FBF90349A6
:104080008978491EC8B200F0F5F9F0BD1802002089
:1040900010B502460C464548808841F663118842B7
:1040A00047D142488079A8B940480088401E801A0C
:1040B00082B23E49488900F0E9F9002000F0DAF9BF
:1040C000002000F0D7F9101200F0D4F9D0B200F0BF
:1040D000D1F916E03549488900F0D8F9101200F0FE
:1040E000C9F9D0B200F0C6F930490988491EC1F3B8
:1040F0000F2000F0BFF92D490978491EC8B200F021
:10410000B9F92A49888900F0C1F9201200F0B2F902
:10411000E0B200F0AFF925494988491EC1F30F20EC
:1041200000F0A8F921498978491EC8B200F0A2F927
:104130003AE01E48808845F21051884220D11B4940
:10414000488900F0A3F9101200F094F91749498941
:10415000491C88B200F09AF9D0B200F08BF91349EB
:10416000888900F093F9201200F084F90F498989B9
:10417000491C88B200F08AF9E0B200F07BF913E044
:104180000A49488900F082F9101200F073F9D0B2A0
:1041900000F070F90549888900F078F9201200F0E4
:1041A00069F9E0B200F066F910BD000018020020C5
:1041B0002DE9FC4F80460E4615461C46B3460020AE
:1041C000019000902046E31704EB5373DB10214667
:1041D0004FEAE47C04EB5C7C4FEAEC0CA4EBCC0CE7
:1041E000BCF1000F02D04FF0010C01E04FF0000CC9
:1041F0006344224604EBD27C4FEA6C0C03FB0CF3C5
:10420000DBB20193A5F12000C5B20C2C06D0102C16
:104210000BD0182C0ED0202C18D112E005EB450045
:104220002D4901EB8000009012E02C4800EB0510B6
:1042300000900DE005EBC500294901EB80000090DE
:1042400006E0284800EB8510009001E0BDE8FC8FF7
:1042500000BF00273AE0009810F807904FF0000ADE
:104260002EE009F0800028B1314640460C9AFCF758
:10427000FFFE07E00B9828B91B483146026840460C
:10428000FCF7F6FE4FEA49604FEA1069701C86B2EF
:1042900016484088B04200DCD8E7A6EB0B00A042ED
:1042A0000AD15E4608F101001FFA80F80F48008825
:1042B000404500DCCAE706E00AF1010000F0FF0A11
:1042C000BAF1080FCDDB00BF781CC7B20198874256
:1042D000C1DB00BFBAE700007C600008F0640008A2
:1042E000E06A00083C780008100000201802002056
:1042F0002DE9FC4F04460D4690469946DDE90C7ABF
:104300000B9E04F0FF0B08EB04001FFA80F809EB8A
:1043100005001FFA80F917E0444502DB5C46A81946
:1043200085B24D4500DB15E00020CDE9000A3A7862
:10433000334629462046FFF73BFF304606EBD07157
:1043400004EB61018CB27F1C38787E2802DC38785F
:104350002028E1DA00BFBDE8FC8F2DE9FF4F85B0D2
:10436000064693461F46DDE91389129C00200490FF
:10437000002550E0781B401EC1B20A20FFF752FD15
:10438000BBFBF0F00A21B0FBF1F201FB120A04982A
:1043900060BB781EA84229DDBAF1000F24D108F0D5
:1043A000800080B108F0010004EBD471491001FBDA
:1043B0000561CDE90009039488B2234630220699AD
:1043C000FFF7F6FE0FE008F0010004EBD47149108E
:1043D00001FB0561CDE90009039488B22346202240
:1043E0000699FFF7E5FE14E00120049008F00100B3
:1043F00004EBD471491001FB0561CDE90009039478
:1044000088B20AF13001CAB223460699FFF7D0FEFE
:1044100000BF681CC5B2BD42ACDB09B0BDE8F08F7F
:104420002DE9F0470446BE2000F030F8052000F0EA
:1044300021F8204601F011FD07464FF066320C4B83
:1044400001F01EFD054601F0DBFC1FFA80F948462D
:1044500000F010F8012000F00DF8FF2000F00AF83D
:10446000002000F007F8002000F004F8BDE8F08715
:104470006666044001B5BDF800000090BDF800007C
:104480000149088008BD00000008006C01B5BDF8B6
:1044900000000090BDF800000149088008BD000040
:1044A000FE07006C0248008902490880704700003E
:1044B00018020020FE07006C024A1080921C118036
:1044C00070470000FE07006C1CB500BF15488069EE
:1044D00040F008001349886100BF00BF08468069AA
:1044E00040F04000886100BF012000900023024698
:1044F000202101900C4800F03FFA01200090002399
:10450000024620210190094800F036FA01222021BC
:10451000054800F025FA01222021044800F020FA85
:104520001CBD000000100240000C014000180140BA
:1045300086B00024A1460027A2460126092000F0EB
:10454000E9FA4820FCF7C6FB4FF4E131482000F0BF
:1045500019FBAC48416848208847FFF7B5FFFFF7D3
:1045600015FAFCF709FC0423092208210120009612
:10457000FCF740F94FF47840A3A110221346CDE98F
:1045800000210290C82232211E20FFF7B1FE4FF415
:1045900078409FA110221346CDE900210290C82245
:1045A00046211E20FFF7A4FE4FF478409BA1102265
:1045B0001346CDE900210290C8225A211E20FFF7A0
:1045C00097FE4FF4784099A110221346CDE90021BF
:1045D0000290C8226E211E20FFF78AFE4FF4784019
:1045E00096A110221346CDE900210290C822822113
:1045F0001E20FFF77DFE4FF4784096A1102213464F
:10460000CDE900210290C82296211E20FFF770FEFE
:104610004FF4784091A110221346CDE90021029079
:10462000C822AA211E20FFF763FE4FF478408EA116
:1046300010221346CDE900210290C822E6211E2057
:10464000FFF756FEDDE00020FCF7E0FB0546012DFC
:104650004ED1002427E0381904A90855042C0FDA9C
:104660001F2080211022CDE90021029004A90A5DBB
:104670001E2101EB44100323BE21FFF76EFE10E064
:104680001F2080211022CDE90021029004A90A5D9B
:10469000211F1E2303EB411188B20323D221FFF710
:1046A0005CFE601CC4B2082CD5DB082204A91220D1
:1046B000FCF724FA8046B8F1000F0CD01F206EA141
:1046C00010221346CDE900210290C822AA216E20B3
:1046D000FFF70EFE36E01F2069A110221346CDE938
:1046E00000210290C822AA216E20FFF701FE29E0D6
:1046F000042D27D10EB9012000E000200646042336
:104700000922082101200096FCF774F86EB94FF4D5
:1047100078405DA110221346CDE900210290C82205
:104720006E211E20FFF7E4FD0CE04FF478403FA11E
:1047300010221346CDE900210290C8226E211E20CE
:10474000FFF7D6FD04A91220FCF74AF98246BAF118
:10475000000F34D04FF6FF704FF49B7382224FF45A
:10476000877100901E20FFF7E7F8002425E0042C55
:104770000FDA1F2080211022CDE90021029004A928
:104780000A5D1E2101EB44100323FA21FFF7E5FD2A
:1047900011E01F2080211022CDE90021029004A900
:1047A0000A5D211F1E2303EB411188B203234FF43E
:1047B0008771FFF7D2FD601CC4B25445D7DB09F105
:1047C000010000F0FF090A20FCF79AFAB9F1140F72
:1047D00017D100BF3048006880F020002E490860E3
:1047E00000BF4FF00009781CC7B21F2080211022A3
:1047F0000323CDE9002102903A4696214E20FFF78F
:10480000ACFD20E75C00002053544D333200000023
:1048100043414E20544553540000000041544F4D35
:1048200040414C49454E54454B0000004C6F6F7061
:104830004261636B204D6F64650000004B45593049
:104840003A53656E64204B454B5F55503A4D6F644B
:1048500065000000436F756E743A000053656E6426
:1048600020446174613A0000526563656976652091
:10487000446174613A0000004661696C656400003F
:104880004F4B2020202000004E6E6F726D616C2017
:104890004D6F6465200000000C0C01400146086863
:1048A0007047000010B5024600210020264B1B680F
:1048B00043F48033244C23600AE000BF224B1B6882
:1048C00003F400331BB1B1F5004F00D904E0491CDB
:1048D0004FF6F0739942F0D300BF4FF6F073994250
:1048E00001D301202FE04FF48063174C6360921EC8
:1048F00023465B6843EA8243636023465B6843F474
:10490000803363601023114C236023461B6843F0FF
:10491000020323600C4B1B6843F080730A4C236036
:1049200000BF094B1B685B0E002BFAD0064B5B687F
:1049300043F00203044C636000BF034B5B68C3F3A6
:104940008103022BF9D110BD00100240002002406B
:1049500002469068084008B1012070470020FCE73B
:1049600002F001031BB103690B43036103E0036918
:1049700043EA0143036170472DE9F04F0E461D469F
:10498000DDE909C4002100278846002300BF64E058
:104990004FF0010909FA01F706EA0708B8455BD1AB
:1049A0000023012A01D0022A0AD10CF0030305F0EA
:1049B000010943EA8903A2F1010943EAC90318E0A6
:1049C000BAB90CB9042314E00823D0F80C904FF0C6
:1049D000010A0AFA01FA29EA0A09C0F80C90D0F88B
:1049E0000CA004F0010909FA01F94AEA090AC0F821
:1049F0000CA0072916D8D0F800904FEA810B4FF091
:104A00000F0A0AFA0BFA29EA0A09C0F80090D0F84E
:104A100000904FEA810A03FA0AFA49EA0A09C0F843
:104A2000009019E0D0F80490A1F1080A4FEA8A0B2F
:104A30004FF00F0A0AFA0BFA29EA0A09C0F80490A3
:104A4000D0F80490A1F1080A4FEA8A0A03FA0AFA98
:104A500049EA0A09C0F80490491C102998D3BDE816
:104A6000F08F00002DE9F0410746884614461D46A8
:104A7000284600F033F8C5F1040007FA00F60F20CD
:104A8000284100EA0800064306F00F06E21704EB8F
:104A9000D2625211920002F1E022D2F800212146A6
:104AA000E31704EBD3635B11A4EB431C012303FA6C
:104AB0000CF31A432046E31704EBD3635B119B000E
:104AC00003F1E023C3F800210348005D40EA06102B
:104AD00001490855BDE8F08100E400E001460723E4
:104AE00023EA01021202054B18684FF6FF03184033
:104AF000034B18431043014B186070470CED00E066
:104B00000000FA054A0A52020243014B1A6070473C
:104B100008ED00E010B50446002017490861C860A0
:104B20001420486100208861C8610846006840F090
:104B30000100086008464068104908400E49486076
:104B4000084600680E4908400B490860084600689E
:104B500020F4802008600846406820F4FE00486089
:104B60004FF41F0088602046FFF79CFE00214FF0A5
:104B70000060FFF7C7FF10BD001002400000FFF803
:104B8000FFFFF6FE7CB506460C4600BF2A4880694A
:104B900040F004002849886100BF00BF08468069D2
:104BA00040F00400886100BF00BF0846806940F4FF
:104BB0008040886100BF0120032100230222CDE94B
:104BC000001041021D48FFF7D7FE012003210023FA
:104BD0001A46CDE9001081021848FFF7CDFE1848AB
:104BE000704300EB5400B0FBF4F51648056000205C
:104BF0001449091D086008460068086008460068F6
:104C000040F0080008600846006840F004000860B2
:104C10000846006840F02000086002232522032196
:104C20000846FFF71FFF0748001D006840F40050CA
:104C30000449091D08607CBD0010024000080140C5
:104C400040420F000838014030B595B0054613AB1F
:104C500012AA09A9284600F03FFA044614B12046DA
:104C600015B030BD0020149026E0224909689DF857
:104C7000502001EBC20113AB11AA486801A900F052
:104C80002BFA04460CB12046EAE709A901A800F076
:104C9000A7FC60B99DF844009DF84810884201DDEA
:104CA0000220DDE79DF85000124988750AE09DF862
:104CB0005000401CC0B214900E48007D9DF850106A
:104CC0008842D2DC00BF0B48007D9DF8501088421E
:104CD00001D10420C4E714A9284600F0DDFA0446F7
:104CE0000CB12046BCE79DF85000024948750020F1
:104CF000B6E700005C0000202DE9F0419AB09C4826
:104D0000847D007DA04202DC1AB0BDE8F0819849A4
:104D1000096801EBC40106AB07AA486808A900F0BE
:104D2000DBF908A993A0FBF79FFA002644E090481E
:104D3000008B0121B1400840D8B122218FA0FBF7A0
:104D400093FA304600F042FB89492431471839462E
:104D50008BA0FBF789FA222188A0FBF785FA304661
:104D600000F034FB82492431084410A941F82600A0
:104D700018E0304600F02AFB7D492431085810A97C
:104D800041F826007A48C07D30B910A850F82610A6
:104D90007CA0FBF769FA05E010A850F826107AA06D
:104DA000FBF762FA9DF81C00401EB04202D078A0CA
:104DB000FBF75AFA701CC6B29DF81C008642B6DB9F
:104DC00074A0FBF751FA01F001F86948407D0B2807
:104DD0000DD2DFE800F0060D151E27323F4E5F7240
:104DE00087006349096851F834008047054690E020
:104DF0005F4A126852F8341010988847054688E0D8
:104E00005B4B1B6853F83420DDE9100190470546E1
:104E10007FE0574F3F6857F8343010A807C89847CD
:104E2000054676E0DFF848C1DCF800C05CF8347075
:104E300010A80FC8B84705466BE01498DFF830C1DA
:104E40000090DCF800C05CF8347010A80FC8B847B8
:104E500005465EE0DDE91401DFF814C1CDE900018B
:104E6000DCF800C05CF8347010A80FC8B8470546DD
:104E70004FE0DDE914121698DFF8F4C0CDE9001216
:104E80000290DCF800C05CF8347010A80FC8B84776
:104E900005463EE0DDE91423DDE91610DFF8D0C059
:104EA000CDE90023CDE90210DCF800C05CF83470D5
:104EB00010A80FC8B84705462BE0DDE91523DDE94A
:104EC0001710CDE90123CDE903101498DFF8A0C035
:104ED0000090DCF800C05CF8347010A80FC8B84728
:104EE000054616E0DDE91623DDE91810CDE90223B9
:104EF000CDE90410DDE91401DFF874C0CDE900014B
:104F0000DCF800C05CF8347010A80FC8B84705463C
:104F100000BF00BF00F006FF9DF8180001280CD16B
:104F20001348C07D20B929461BA0FBF79DF907E077
:104F300029461BA0FBF798F902E018A0FBF794F9AB
:104F40000B4890F8EC0088B10948D0F8F0000A212D
:104F5000B0FBF1F201FB12070548D0F8F000B0FBFE
:104F6000F1F83A46414611A0FBF77EF900BFCBE6C7
:104F70005C0000200D0A2573280000002563000056
:104F800025730000256C640030582558000000008F
:104F90002C000000290000003D256C753B0D0A0027
:104FA0003D305825583B0D0A0000000046756E63E1
:104FB00074696F6E2052756E2054696D653A256470
:104FC0002E2531646D730D0A00000000F0B5034614
:104FD000154600200022002600245BE01F782C2FBD
:104FE00001D104B901221F78292F01D01F780FB9F0
:104FF00004B950E0002E3AD11F78302F02DB1F7821
:10500000392F17DD1F782D2F14D01F782B2F11D09B
:105010001F78612F02DB1F78662F0BDD1F78412F71
:1050200002DB1F78462F05DD1F78582F02D01F782E
:10503000782F0CD102B12EE01F78612F03DB1F788F
:10504000203F0F7001E01F780F70491C1FE01F7890
:10505000222F04D102B11EE00126012417E01F789F
:10506000202F14D01F782C2F11D0FF2613E01F788B
:10507000222F00D1002402B10DE044B11F785C2F33
:1050800002D15B1C471CF8B21F780F70491C471CEB
:10509000F8B25B1CA2E700BF00270F702E70F0BDB6
:1050A00010B50446002010700BE020780870641CD6
:1050B000491C1078401C10701078984201DB0120C8
:1050C00010BD2078202802D020780028EDD10020C3
:1050D000087000BFF4E700002DE9FF4F85B080465F
:1050E00089460027002004900390012002904FF091
:1050F000000B002544461DE02078202816D005F03E
:105100007F00052812DA0DB945F0800505F07F0013
:10511000042803D120782A2800D00EE0207805F05A
:105120007F010DF80100681CC5B202E0852D00D199
:1051300003E0641C20780028DED100BF8DB1002080
:1051400005F07F010DF8010051A1684600F048FA12
:1051500018B900210898017002E001210898017037
:1051600000254FF0000A444614E0641C0AF10100D7
:1051700000F0FF0A2078202802D020782A2809D1C0
:10518000204600F09FF90646282E03D02A2E01D093
:10519000CDF810A02078282802D020780028E4D16B
:1051A0004446049810B10498401C04444FF0000A8F
:1051B000002654E0207810B94FF0010A50E0207822
:1051C000282803D116B9781CC7B213E02078292803
:1051D00008D13EB917B1781EC7B201E04FF0010AFD
:1051E00047B93DE02078222804D10EB9012000E023
:1051F0000020064647B9207820282FD0207889F84B
:10520000000009F1010929E020782C2804D10120AF
:105210000290681CC5B214E02078202811D02078B4
:1052200028280ED04DB9BBF1050F06DA20780DF80D
:105230000B000BF1010000F0FF0B0298401CC0B204
:105240000290012F0AD10298022807D10298401C2F
:10525000C0B202900398401CC0B20390641CA9E73E
:1052600000BF0398012809D100200DF80B0008A108
:10527000684600F0B5F908B9002003900799039833
:105280000870002089F80000504609B0BDE8F08F92
:10529000766F6964000000002DE9F043B5B0054663
:1052A0000F460024002604E000213D488155701C73
:1052B000C6B20A2EF8DB06E06D1C287818B901206A
:1052C00035B0BDE8F08328782828F5D16D1C61E061
:1052D00034AA69462846FFF779FE064635449DF80C
:1052E000D00020B1012827D0FF284CD149E09DF8FB
:1052F000000000B333A9684600F0EFF806460EB18F
:105300000220DDE7204600F061F825490A31339A92
:105310000A50A1F12400008B0121A14088432049BB
:105320001A39088304211E480155601CC4B20A2C96
:1053300001DD0320C4E726E0684600F06DF9401C5B
:1053400000F0FF08204600F041F815490A3100EB53
:1053500001094946684600F054F911481A38018B92
:105360000120A040014388B20D491A3908830C4836
:1053700000F80480601CC4B20A2C01DD03209FE702
:1053800001E002209CE700BF2878292801D0287876
:1053900000B900E09CE700BF3C70002090E70000EF
:1053A000760000200020074A128802F400423AB139
:1053B000044A11780022044B5A541846014B1A80B3
:1053C0007047000008000020500100200246002025
:1053D000002105E0044B5B5C0344D8B24B1CD9B2FE
:1053E0009142F7DB704700007600002010B50446BC
:1053F000204600F0B7FC01200149C87510BD00002F
:105400005C00002010B50246012000E050430B1E56
:10541000A1F10104E1B2F9D110BD000070B5002680
:10542000FFF7C0FF064606B970BD174881683046D1
:10543000884704461CB91449C868804721E03046B3
:1054400000F0F6F80546012D00D02C46CCB1012C19
:1054500006D0022C08D0032C0AD0042C10D10BE06B
:105460000AA0FAF701FF0BE00BA0FAF7FDFE07E038
:105470000CA0FAF7F9FE03E00DA0FAF7F5FE00BF65
:1054800000BF00BFD0E700005C000020BAAFCAFD3B
:10549000B4EDCEF3210D0A00B2CECAFDB4EDCEF3C9
:1054A000210D0A00B2CECAFDCCABB6E0210D0A0038
:1054B000CEB4D5D2B5BDC6A5C5E4B5C4BAAFCAFD94
:1054C000210D0A000146491C00E0491C08782028EB
:1054D00001D10029F9D1087870472DE9F04F054630
:1054E0000F4600264FF00A09B3462C4600203860CC
:1054F00034E02078392802DC2078302811DA287846
:105500002D2802D028782B2800D156B120784628A3
:1055100002DC2078412804DA2078582817D1012E9F
:1055200015D12078412801DB4FF0100928782D286B
:1055300003D14FF0020B6D1C0FE028782B2803D10C
:105540004FF0010B6D1C08E0701CC6B205E020781E
:1055500000B904E00120BDE8F08F641CC9E700BF7A
:105560002C46B9F1100F0FD1032E01DA0220F2E719
:105570002078302806D16078582803D1A41CB01EAA
:10558000C6B204E00320E6E70EB90420E3E71BE01F
:105590000EB1701EC6B22078392806DC207830287B
:1055A00003DB2078A0F1300A02E02078A0F1370A6E
:1055B00031464846FFF726FF39680AFB001038607D
:1055C000641C207800B900E0E2E700BFBBF1020FE5
:1055D00004D13868C0F10008C7F800800020BAE79D
:1055E00002460AE010780B78984201D001207047FB
:1055F000107800B902E0521C491CF3E700BF0020FC
:10560000F5E706E002780A70027802B902E0401C71
:10561000491CF7E700BF70470146002005E00A7803
:1056200002B903E0421CD0B2491CF8E700BF704742
:1056300010B58CB004461E230BAA03A92046FFF721
:105640002FFD0090009810B101200CB010BD9DF806
:105650002C00044400200B900EE040489DF82C20C4
:1056600050F8221003A8FFF7BBFF00B908E09DF82F
:105670002C00401CC0B20B909DF82C000728ECD3E6
:1056800000BF9DF82C00072863D2DFE800F0040576
:105690003C5E6564630000BF31A0FAF7E5FD31A010
:1056A000FAF7E2FD3FA0FAF7DFFD4EA0FAF7DCFDC6
:1056B0005CA0FAF7D9FD6BA0FAF7D6FD79A0FAF74E
:1056C000D3FD87A0FAF7D0FD8CA0FAF7CDFD94A00A
:1056D000FAF7CAFD98A0FAF7C7FD9DA0FAF7C4FD36
:1056E000A2A0FAF7C1FDA8A0FAF7BEFDB4A0FAF790
:1056F000BBFDC1A0FAF7B8FDCCA0FAF7B5FDD8A064
:10570000FAF7B2FDA2E216A0FAF7AEFDE4A0FAF7AE
:10571000ABFD00200B900EE0F14800689DF82C20B6
:1057200000EBC2004168EFA0FAF79EFD9DF82C0047
:10573000401CC0B20B90EA48007D9DF82C108842B6
:10574000EADC07A0FAF790FD80E205A0FAF78CFDED
:10575000CCE179E24DE221E2F4E100001800002002
:105760000D0A00002D2D2D2D2D2D2D2D2D2D2D2D06
:105770002D2D2D2D2D2D2D2D2D2D2D2D55534D41D7
:1057800052542056332E352D2D2D2D2D2D2D2D2DD2
:105790002D2D2D2D2D2D2D2D2D2D2D2D2D2D2D2046
:1057A0000D0A00002020202055534D415254CAC7F5
:1057B000D3C9414C49454E54454BBFAAB7A2B5C4C5
:1057C000D2BBB8F6C1E9C7C9B5C4B4AEBFDAB5F744
:1057D000CAD4BBA5BDBBD7E9BCFE2CCDA8B9FD2062
:1057E0000D0A0000CBFC2CC4E3BFC9D2D4CDA8B9AC
:1057F000FDB4AEBFDAD6FACAD6B5F7D3C3B3CCD0B0
:10580000F2C0EFC3E6B5C4C8CEBACEBAAFCAFD2C5B
:10581000B2A2D6B4D0D02ED2F2B4CB2CC4E3BFC93E
:105820000D0A0000D2D4CBE6D2E2B8FCB8C4BAAFBD
:10583000CAFDB5C4CAE4C8EBB2CECAFD28D6A7B328
:10584000D6CAFDD7D62831302F3136BDF8D6C62C72
:10585000D6A7B3D6B8BACAFD29A1A2D7D6B7FBB48A
:10586000AE0D0A00A1A2BAAFCAFDC8EBBFDAB5D827
:10587000D6B7B5C8D7F7CEAAB2CECAFD292CB5A5E2
:10588000B8F6BAAFCAFDD7EEB6E0D6A7B3D6313078
:10589000B8F6CAE4C8EBB2CECAFD2CB2A2D6A7B302
:1058A000D60D0A00BAAFCAFDB7B5BBD8D6B5CFD4AE
:1058B000CABE2ED6A7B3D6B2CECAFDCFD4CABEBDFD
:1058C000F8D6C6C9E8D6C3B9A6C4DC2CD6A7B3D6C9
:1058D000BDF8D6C6D7AABBBBB9A6C4DC2E0D0A003C
:1058E000BCBCCAF5D6A7B3D63A7777772E6F70656A
:1058F0006E6564762E636F6D0D0A000055534D4141
:105900005254D3D037B8F6CFB5CDB3C3FCC1EE28CF
:10591000B1D8D0EBD0A1D0B4293A0D0A00000000D4
:105920003F3A202020202020BBF1C8A1B0EFD6FABA
:10593000D0C5CFA20D0A000068656C703A20202007
:10594000BBF1C8A1B0EFD6FAD0C5CFA20D0A0000B6
:105950006C6973743A202020BFC9D3C3B5C4BAAFF1
:10596000CAFDC1D0B1ED0D0A0A00000069643A20F9
:1059700020202020BFC9D3C3BAAFCAFDB5C4494453
:10598000C1D0B1ED0D0A0A006865783A20202020C8
:10599000B2CECAFD3136BDF8D6C6CFD4CABE2CBAF7
:1059A000F3B8FABFD5B8F12BCAFDD7D6BCB4D6B47C
:1059B000D0D0BDF8D6C6D7AABBBB0D0A0A000000DE
:1059C0006465633A20202020B2CECAFD3130BDF894
:1059D000D6C6CFD4CABE2CBAF3B8FABFD5B8F12B0D
:1059E000CAFDD7D6BCB4D6B4D0D0BDF8D6C6D7AAD7
:1059F000BBBB0D0A0A00000072756E74696D653AD2
:105A0000312CBFAAC6F4BAAFCAFDD4CBD0D0BCC625
:105A1000CAB13B302CB9D8B1D5BAAFCAFDD4CBD0BE
:105A2000D0BCC6CAB13B0D0A0A000000C7EBB0B437
:105A3000D5D5B3CCD0F2B1E0D0B4B8F1CABDCAE488
:105A4000C8EBBAAFCAFDC3FBBCB0B2CECAFDB2A2AE
:105A5000D2D4BBD8B3B5BCFCBDE1CAF82E0D0A0048
:105A60002D2D2D2D2D2D2D2D2D2D2D2D2D2D2D2D66
:105A70002D2D2D2D2D2D2D2D2D2DD5FDB5E3D4AD79
:105A8000D7D32D2D2D2D2D2D2D2D2D2D2D2D2D2DF6
:105A90002D2D2D2D2D2D2D2D2D2D2D200D0A0000E0
:105AA0002D2D2D2D2D2D2D2D2D2D2D2D2D2D2D2D26
:105AB0002D2D2D2D2D2D2D2D2DBAAFCAFDC7E5B5C0
:105AC000A52D2D2D2D2D2D2D2D2D2D2D2D2D2D2D8E
:105AD0002D2D2D2D2D2D2D2D2D2D2D2D200D0A0073
