:020000040800F2
:10000000C8C700203D020008410200084302000862
:1000100045020008470200084902000800000000ED
:100020000000000000000000000000004B0200087B
:100030004D020008000000004F02000851020008B5
:10004000530200085302000853020008530200083C
:10005000530200085302000853020008530200082C
:10006000530200085302000853020008530200081C
:10007000530200085302000853020008530200080C
:1000800053020008530200085302000853020008FC
:1000900053020008530200085302000853020008EC
:1000A00053020008530200085302000853020008DC
:1000B0005302000853020008C50B00085302000851
:1000C00053020008530200085302000853020008BC
:1000D00053020008010C00085302000853020008F4
:1000E000530200085302000853020008530200089C
:1000F000530200085302000853020008530200088C
:10010000530200085302000853020008530200087B
:10011000530200085302000853020008530200086B
:10012000530200085302000853020008530200085B
:1001300000F002F800F073F80AA090E8000C824486
:100140008344AAF10107DA4501D100F068F8AFF263
:10015000090EBAE80F0013F0010F18BFFB1A43F0A5
:10016000010318472C1701004C1701000A444FF0F7
:10017000000C10F8013B13F0070408BF10F8014B06
:100180001D1108BF10F8015B641E05D010F8016B4B
:10019000641E01F8016BF9D113F0080F1EBF10F8AF
:1001A000014BAD1C0C1B09D16D1E58BF01F801CBD2
:1001B000FAD505E014F8016B01F8016B6D1EF9D555
:1001C0009142D6D37047000000230024002500266A
:1001D000103A28BF78C1FBD8520728BF30C148BFAA
:1001E0000B60704703681B0A28BF41F08001642937
:1001F00000F03881752900F03581782900F0AC8154
:10020000E42900F06B81632900F07084732900F009
:100210007584002070471FB51FBD10B510BD00F0DC
:100220009FFC1146FFF7F7FF08F082FE00F0BDFCCF
:1002300003B4FFF7F2FF03BC00F02BFD08480047B2
:10024000FEE7FEE7FEE7FEE7FEE7FEE7FEE7FEE786
:10025000FEE7FEE703480449044A054B70470000E7
:1002600031010008C8C10020C8C70020C8C3002051
:10027000C8C30020704753EA020C00F069802DE9E2
:10028000F04B4FF00006002B1FBFB3FA83F503FAC3
:1002900005F424FA05F65E4012BF1643B2FA82F561
:1002A00002FA05F4C5F120051EBF22FA05FC44EA56
:1002B0000C04203556EA044C4FEA144418BF641C61
:1002C0004FF000084FF00009904271EB030C39D356
:1002D000002919BFB1FA81F701FA07F6B0FA80F7E1
:1002E00000FA07F6C7F120071EBF20FA07FC46EA0E
:1002F0000C062037B6FBF4FCA7EB0507103F07F010
:100300001F0BCBF120060CFA0BFB2CFA06F644BFB0
:10031000B3460026202FA4BF5E464FF0000B5BEAD9
:10032000060C08BF4FF0010B19EB0B09ABFB027C6D
:1003300048EB0608C01B06FB02CC0BFB03CC71EBA1
:100340000C01C1E70B46024641464846BDE8F08B2A
:1003500013B54FF000004FF00001AFF30080BDE88F
:100360001C40704710B54C1084EA530404D5404239
:10037000C1F1000138BF491E1B4204D55242C3F1EE
:10038000000338BF5B1EFFF776FF14F0804F04D0E8
:100390004042C1F1000138BF491E14F0004F04D0A3
:1003A0005242C3F1000338BF5B1E10BD0FB40449B5
:1003B00010B503AA029800F0A5FB10BC5DF814FB71
:1003C0000400002070B5044685690068C10601D5A7
:1003D000302600E02026C00707D070BDD4E90121F7
:1003E00030469047206A401C20626D1EF6D570BDD5
:1003F00070B5044685690078C00707D170BDD4E99F
:10040000012120209047206A401C20626D1EF6D5F5
:1004100070BD70B50C460546012A05D028788006C7
:1004200000D5EA69002302E0012305E05B1C93424A
:1004300002D2E05C0028F9D1A869E618C01AA861C8
:10044000286A184428622846FFF7BCFF04E0D5E973
:10045000012114F8010B9047B442F8D32846FFF766
:10046000C7FF70BD2DE9F0410646002410687529CC
:10047000314616A510D0AFF30080002802DA4042C2
:1004800013A507E031688A0701D512A502E04907E4
:1004900004D511A5012401E0AFF3008000210A2258
:1004A00006F1240709E0B0FBF2FCB0FBF2F302FB1B
:1004B0001C00303078541846491C0028F3D12346DC
:1004C0002A463046BDE8F04100F0ADBA0000000019
:1004D0002D0000002B000000200000002DE9F0415D
:1004E0008046D21D22F007020025D2E90002F5293C
:1004F00015A614D0011E72F1000106DA0023D0EB1C
:10050000030063EB020211A608E0D8F800108B0785
:1005100001D50FA602E0490701D50EA60125114617
:10052000002408F1240704E000F038FA30323A558C
:10053000641C50EA0102F7D12B4632462146404660
:10054000BDE8F04100F06FBA000000002D0000008F
:100550002B0000002000000070B504460D46214627
:100560001068AFF300802188090502D50F4A7A444C
:1005700002E00E4A7A440E32002104F1240305E021
:1005800000F00F060009965D5E54491C0028F7D163
:1005900020780023000704D5702D02D009B1022372
:1005A00011322046BDE8704000F03DBA7E0E0100D9
:1005B0002DE9F05F894604464FF0000ADFF874B178
:1005C000FB44C0F820A02046E1688847002874D08A
:1005D000252806D0D4E901219047206A401C2062DA
:1005E000F1E700265F462046E16888472028054657
:1005F00007DB312D05D2781910F8200C08B106431D
:10060000F1E7B00701D526F00406C4F81CA00027C6
:10061000C4F818A02A2D09D0284600F033FB38B3BF
:1006200004EB8708303DC8F8185019E059F8041B4E
:10063000204604EB87029161E1688847012F054657
:1006400018D1E069002820DA26F020061DE0D8F84D
:10065000180000EB800005EB40003038C8F81800A7
:100660002046E1688847054600F00CFB0028EED1E3
:10067000012F0AD02E2D08D12046E16888477F1C23
:100680000546022F46F02006C4DBA069002803DAE5
:10069000404246F00106A061F00701D026F01006A6
:1006A0006C2D0BD0682D09D04C2D39D06A2D35D04A
:1006B000742D35D07A2D33D016E038E0E1682F461E
:1006C00020468847B842054609D16C2F26D04FF402
:1006D0008060E168064320468847054604E06C2FA9
:1006E0001AD04FF4807006430DB3A5F141001928CC
:1006F00002D8203546F400664A4629462046266040
:100700004E46FFF76FFD80B101280BD0F61D26F095
:10071000070000F1080956E74020E4E78020D8E709
:100720000020D6E706F104094DE7284652E7206A83
:10073000BDE8F09F540E0100401ECAB210F8011F20
:100740008A4202D00029F9D10020704740EA010313
:1007500010B59B070FD1042A0DD310C808C9121F6A
:100760009C42F8D020BA19BA884201D9012010BDA4
:100770004FF0FF3010BD1AB1D30703D0521C07E071
:10078000002010BD10F8013B11F8014B1B1B07D1D5
:1007900010F8013B11F8014B1B1B01D1921EF1D146
:1007A000184610BD40EA0103024630B59B0710D140
:1007B0004FF0013400E008C208C91D1B9D4315EA33
:1007C000C41FF8D013F0FF0102F8011B0DD01B0A63
:1007D000F8E711F8013B002B02F8013B05D011F8B6
:1007E000013B002B02F8013BF3D130BD421E12F851
:1007F000013F002BFBD111F8013B002B02F8013B1C
:10080000F9D17047032A40F2308010F0030C00F059
:10081000158011F8013BBCF1020F624498BF11F83A
:1008200001CB00F8013B38BF11F8013BA2F10402F3
:1008300098BF00F801CB38BF00F8013B11F003036B
:1008400000F02580083AC0F0088051F8043B083ACF
:1008500051F804CBA0E80810F5E7121D5CBF51F871
:10086000043B40F8043BAFF30080D20724BF11F8EB
:10087000013B11F801CB48BF11F8012B24BF00F850
:10088000013B00F801CB48BF00F8012B704710B5C1
:10089000203AC0F00B80B1E81850203AA0E8185078
:1008A000B1E81850A0E81850BFF4F5AF5FEA027C39
:1008B00024BFB1E81850A0E8185044BF18C918C0A8
:1008C000BDE810405FEA827C24BF51F8043B40F849
:1008D000043B08BF7047D20728BF31F8023B48BF2E
:1008E00011F8012B28BF20F8023B48BF00F8012B6C
:1008F000704702F0FF0343EA032242EA024200F09B
:1009000002B84FF000020429C0F0128010F0030C6E
:1009100000F01B80CCF1040CBCF1020F18BF00F8F2
:10092000012BA8BF20F8022BA1EB0C0100F00DB8A1
:100930005FEAC17C24BF00F8012B00F8012B48BFFF
:1009400000F8012B70474FF0000200B513469446A3
:100950009646203922BFA0E80C50A0E80C50B1F117
:100960002001BFF4F7AF090728BFA0E80C5048BF2B
:100970000CC05DF804EB890028BF40F8042B08BFC9
:10098000704748BF20F8022B11F0804F18BF00F8C5
:10099000012B7047704770477047704730B5B0F112
:1009A0000A024FEA900E71F100034EEA817EB0EB2D
:1009B0000E0061EB91014FEA101E4EEA017E10EB32
:1009C0000E0041EB11114FEA102E4EEA016E10EBB2
:1009D0000E0041EB11214FEA104E4EEA014E10EB92
:1009E0000E0041EB1141401841F100014FEAD000E7
:1009F00040EA41704FEAD10110EB80054FEA8104D3
:100A000044EA907444EB01046D1944EB0404521B56
:100A1000A3414FF0000348BF0A3200D530BD401C4F
:100A200041F1000130BD2DE9F0470D46994692464F
:100A3000044600F124080168880604D5E06921F025
:100A40001001216000E00120A84201DD471B00E009
:100A50000027A1697A1902EB0900081AA061207821
:100A6000C00602D42046FFF7ADFC002608E0D4E91A
:100A700001211AF806009047206A401C761C20626B
:100A80004E45F4DB2078C0060AD52046FFF79AFCD5
:100A900006E0D4E9012130209047206A401C206202
:100AA000381EA7F10107F4DC07E0D4E9012118F8AA
:100AB00005009047206A401C2062281EA5F1010510
:100AC000F3DC2046FFF794FC2078000602D50220D4
:100AD000BDE8F0870120FBE710B5436913B1AFF320
:100AE000008001E0FFF795FC012010BD127800F1B5
:100AF00024010A7000224A700122EDE711684FF0CC
:100B0000FF32E9E7074B70B50D467B4400F011F862
:100B10000446284600F020F810B14FF0FF3070BDB9
:100B2000204670BD1745000001694A1C0261087823
:100B3000704700B58FB0CDE901310021059105491D
:100B40007944CDE9031011466846FFF731FD0FB037
:100B500000BD0000E5FFFFFF007B00F08000704754
:100B6000754600F02BF8AE4605006946534620F066
:100B70000700854618B020B5FFF76CFBBDE82040A4
:100B80004FF000064FF000074FF000084FF0000B49
:100B900021F00701AC46ACE8C009ACE8C009ACE8FC
:100BA000C009ACE8C0098D46704710B50446AFF3E4
:100BB00000802046BDE81040FFF73ABB0048704770
:100BC00064C1002010B50C48006800F0010058B165
:100BD0000A490869804700200749143108604FF42A
:100BE0007A7005491C3108600348006820F0010054
:100BF0000149086010BD00001008004040010020BD
:100C00001D49096801F0200111B31B49091D09683C
:100C1000C8B21A49098801F40041C9B917490988BD
:100C200001F4804161B10A2803D00021134A1180E8
:100C300020E01249098841F40041104A118019E06E
:100C40000D2806D10D49098841F480410B4A1180D5
:100C500010E00A490988C1F30D01094A50540749B7
:100C60000988491C054A118011460988C72901DDF8
:100C7000002111807047000000380140080000206A
:100C80003402002030380A2801D2012070470020A9
:100C9000704700BF70472DE9F04704460D46904667
:100CA0009946AD1E606B00EB153AC5F3C80605F01A
:100CB000070101208840C7B200BF51460AF1010A6E
:100CC000204609F0DFF910B10120BDE8F08700BF30
:100CD00000BF04F13C00805D384008B1012000E015
:100CE0000020484501D10220EFE704F13C00805D7F
:100CF000784004F13C0188550120E070A8F1010022
:100D0000B0F1000800D1E0E77806000E071EE0D140
:100D10000127701C0646B0F5007FD9D30026CCE72A
:100D20002DE9F041044688460020E070401EA06393
:100D30004146204609F0A6F910B10420BDE8F08133
:100D400004F23A2008F012F807464AF65520874286
:100D500008D10B222DA104F13C00FFF7F7FC08B9E4
:100D60000120EBE794F83C50EB2D03D0E92D01D0A6
:100D7000E82D43D14AF65520874208D1082226A102
:100D800004F18E00FFF7E2FC08B90020D6E704F179
:100D9000470007F0EBFF06464920055D701E304016
:100DA00060BBB6F5007F29DBB6F5007F26DC2DB3EE
:100DB000681E284010BB04F14A0007F0D7FFE8B1D5
:100DC0004C20005D401E012818D804F14D0007F0AA
:100DD000CDFF98B104F14F0007F0C8FF802806DA74
:100DE00004F15C0007F085FFB0F5803F06D304F105
:100DF000520007F0BBFF08B100209FE74AF65520DC
:100E0000874201D1022099E7032097E7EB769045CE
:100E1000584641542020200046415433322020209F
:100E2000000000002DE9F84F824615461E46DAF80C
:100E300000000090DAF8500000F104094FF400724D
:100E4000002328463146FFF716FA07460098B0F807
:100E50000AC0624600233846FFF70DFA834600BFFA
:100E600059F8044B14B90020BDE8F88FA34500D20F
:100E700004E0ABEB040B09F10409F1E700BFD9F87A
:100E800000005844F0E70246891ED069801E88425F
:100E900001D8002070475389106B03FB0100F9E76C
:100EA0002DE9F04780460C4604F11A0007F05EFF7A
:100EB00010B10020BDE8F087207800F03F00401E10
:100EC00000EB800101EBC0054FF00109002621E095
:100ED0001849895D081907F049FF0746B9F1000F65
:100EE00011D0FF2D0BD8384603F0FCFC8246294672
:100EF0006D1C38F8110003F0F5FC824501D000208C
:100F0000D8E7B94605E04FF6FF70874201D00020D0
:100F1000D0E7761C0D2EDBD3207800F0400038B1EE
:100F2000B9F1000F04D038F8150008B10020C1E76E
:100F30000120BFE7B81001082DE9F04706468A46B0
:100F40003468BAF1000F0AD1D4F81480B8F1000F58
:100F500002D0E069404516D84FF0010813E0514631
:100F6000304604F0D7F80746022F02D20120BDE830
:100F7000F087781C08B93846F9E7E069B84201D92A
:100F80003846F4E7D046A06908B90020EFE720789A
:100F900004284ED101224146204603F038FD054683
:100FA0000DB1681C08B92846E1E701231A46294615
:100FB0002046FFF770FE8146B9F1020F01D10120F2
:100FC000D5E7B9F1010F02D14FF0FF30CFE7BAF109
:100FD000000F02D10220F0710CE0F079022809D153
:100FE00008F10100854205D0B068A8EB0000B061AF
:100FF0000320F071F079022869D00AF101008542DE
:1010000007D1F06910B1F069401C00E00220F061E6
:101010005DE0F06908B90120F0612A46514630468A
:1010200003F0D3FC8146B9F1000F50D10120F061EB
:101030004DE00025D04519D108F10105E069A8422D
:1010400000D802252946304604F064F80746012FEF
:1010500001D0781C08B9384689E73FB16769022F8B
:1010600003D3E069B84200D9B8460025E5B9454642
:1010700000BF6D1CE069A84204D80225454501D98E
:10108000002074E72946304604F044F8074607B9C3
:1010900009E0012F01D0781C08B9384667E74545BB
:1010A000E7D1002063E700BF4FF0FF32294620461A
:1010B00009F01CFB8146B9F1000F08D1BAF1000F0D
:1010C00005D02A465146204609F010FB8146B9F169
:1010D000000F0DD16561D4E90610801E814202D84F
:1010E000A069401EA061207940F00100207107E056
:1010F000B9F1010F02D14FF0FF3000E001200546A9
:10110000284634E72DE9F34F85B0814606980068FC
:101110000290D9F80000D0F80CA0002500BF02A86A
:101120000BF0A8F983460BF1010018B9062007B0AF
:10113000BDE8F08FBBF5803F05D34FEA1B42284640
:101140006D1C2AF810201FFA8BF4202C03DB2F2CA7
:1011500001D05C2C00D111E0802C06DA21467BA066
:10116000FFF7EAFA08B10620E1E7FF2D01D30620D8
:10117000DDE728466D1C2AF81040D0E700BF202C80
:1011800001DA042611E002E00298401C0290029865
:1011900000782F28F8D0029800785C28F4D0002638
:1011A00002980078202800D204260299069801604F
:1011B00008E0681E3AF81040202C02D02E2C00D0F7
:1011C00002E06D1E002DF4D100BF00202AF81500AA
:1011D0000DB90620ABE7002700E07F1C3AF81700A6
:1011E0002028FAD01FB93AF817002E2801D146F06E
:1011F000030600E06D1E25B1681E3AF810002E2887
:10120000F8D120220B2109F14000FFF772FB4FF0CB
:101210000008CDF810800820039000BF38467F1CDE
:101220003AF8104004B966E0202C03D02E2C04D1EB
:10123000AF4202D046F00306F0E7DDE90310884232
:1012400001D2AF4216D103980B2802D146F0030613
:1012500051E0AF4201D046F00306AF4200D94AE068
:101260002F46082004900B2003904FEA88604FEA35
:101270001068D3E7802C0ADB46F00206204603F014
:1012800031FB4FF46A71019003F0EAFA0446FF2C37
:1012900011DD0398401E0499884204D846F00306E5
:1012A00003980490BAE722120498411C049109F1B2
:1012B00040010A5418E024B1214627A0FFF73CFA68
:1012C00018B15F2446F003060EE0412C03DB5A2CD4
:1012D00001DC48F00208612C06DB7A2C04DC48F0C3
:1012E0000108A4F1200084B20498411C049109F182
:1012F00040010C5492E700BF99F84000E52802D164
:10130000052089F840000398082803D14FEA886037
:101310004FEA106808F00C000C2803D008F0030016
:10132000032801D146F0020606F0020048B908F091
:10133000010008B146F0100608F0040008B146F0BC
:1013400008064B2000F809600020F0E62A3A3C3EEF
:101350007C223F7F000000002B2C3B3D5B5D0000AA
:101360002DE9FF4F85B09A4603AA0121059800F0A8
:101370008DFD18B1012009B0BDE8F08FDDF80C90AB
:101380004FF03F08082701E07806070E37B1B9FB98
:10139000F7F0B0FBF8F0B0F5806FF5D807B9FF278C
:1013A0004FF400715046FFF7ACFA0AF5DF764FF0C4
:1013B000000B444669E0069850F82B50642D07D87E
:1013C00001D1484603E06420B9FBF0F068430546CC
:1013D0006019484501D8601901D3A9EB040505B986
:1013E00059E0214606F108000AF0DAFD294606F127
:1013F0000C000AF0D5FD07983071B4FBF8F0B0FB93
:10140000F7F00490B4FBF8F0B0FBF7F107FB110024
:10141000C0B20290B4FBF8F008FB1040401CC0B210
:10142000019002987070C021049801EA900001991F
:101430000843B0700498F0706019401EB0FBF8F0DB
:10144000B0FBF7F004906019401EB0FBF8F0B0FB61
:10145000F7F107FB1100C0B202906019401EB0FB0B
:10146000F8F108FB1100401CC0B2019002987071A5
:10147000C021049801EA900001990843B0710498D2
:10148000F07110360BF1010B2C44BBF1040F02D2AA
:101490000CB14C458FD300BF4AF655210AF5FF70B9
:1014A0000AF0B8FD012300225146059800F088FD9E
:1014B00008B101205FE700205DE72DE9F047044611
:1014C0000E4640212046FFF71CFA85202070C020E0
:1014D00084F8200040250020804607464FF001098F
:1014E00000BFC12228466D1C2254002228466D1CD4
:1014F000225400BFB9F1000F06D036F81700B0F142
:10150000000901D0781CC7B2601949460AF082FD73
:10151000AD1C05F01F000028ECD108F1010000F01F
:10152000FF0836F817000028DBD184F8237008F193
:101530000100607030460CF080FA8246514604F19A
:1015400024000AF067FDBDE8F087000001460B4863
:10155000007888420FDC09484078884201DB01208E
:10156000704706488078884205DC0448C078884285
:1015700001DB0120F4E70020F2E70000C5100108BC
:10158000014610480079884219DC0E4840798842AB
:1015900001DB012070470B488079884205DC09484F
:1015A000C079884201DB0120F4E70648007A8842CE
:1015B00005DC0448407A884201DB0120EAE700208C
:1015C000E8E70000C51001084FF0E021096941F08B
:1015D00004014FF0E02211610549086011460969D4
:1015E00041F0010111616FF07041516170470000DD
:1015F0000000002010B504464FF47A7104FB01F09E
:1016000000F002F810BD000070B5034600224FF054
:10161000E02675690D4E366803FB06F44FF0E026B0
:10162000B16910E04FF0E026B06988420BD08842E3
:1016300002D20E1A324402E02E1A0E4432440146FF
:10164000A24200D300E0EDE700BF70BD0000002023
:101650002DE9F04104460E46D4F8008000212046D2
:1016600000F0A8FB05465DBB002700BF4046A16B0C
:1016700008F008FD054605B121E098F800000428AF
:1016800005D1E06B0078012121EAD01009E0E06B80
:101690000078E52802D0E06B007808B9012000E06E
:1016A000002020B1781C0746B04201D107E0002796
:1016B0000121204600F03FF90546002DD6D000BF9D
:1016C000042D00D107252846BDE8F0812DE9F0471B
:1016D0000446894620460AF033FD10B10120BDE8DA
:1016E000F08749462046FFF7CEFB0746A7634FF435
:1016F000007104F13C00FFF726F960894FF40041C6
:10170000B1EB402F01D8084601E06089400206464F
:101710004FF0000800E07608B6F5007F05D93046A6
:1017200003F04CF8B0F10008F5D0B6F5007F16D9FB
:1017300031464046FFF7E5F8760A002500E03544DB
:101740006089A84207D97A1960783346414600F08B
:1017500037FC0028F3D0404603F037F810E004F1DE
:101760003C080126002500E035446089A84207D9DD
:101770007A1960783346414600F022FC0028F3D005
:101780006089A84201D00120A9E70020A7E72DE940
:10179000F04F85B0044625680021204600F00AFB82
:1017A00007461FB1384605B0BDE8F08F28780428F9
:1017B0004CD1E8680CF041F901903EE0296901F153
:1017C000240007F0D3FA0199884200D035E0286957
:1017D00090F8230003904FF0400A002002901FE091
:1017E0000AF01F0008B90AF1020A296901EB0A0090
:1017F00007F0BCFA009003F075F88346EA68029996
:1018000032F8110003F06EF8834500D00BE0039826
:10181000401EC0B203900AF1020A0298401C0290D6
:1018200003980028DCD100BF039828B9E968029822
:1018300031F8100000B906E000BF0021204600F09A
:10184000EAF8071EBAD000BF3846ACE74FF0FF09F0
:10185000CDF810904FF0FF30E06400BF2846A16B38
:1018600008F010FC074607B162E0E06B06780EB99D
:1018700004275DE0E06BC07A00F03F0884F8068042
:10188000E52E05D008F0080040B1B8F10F0F05D0E3
:101890004FF0FF094FF0FF30E06442E0B8F10F0F66
:1018A00022D14B20005D00F04000A0BB06F04000BC
:1018B00038B1E06B407B049006F0BF06B146206B68
:1018C000E0644E450CD1E06B417B0498814207D126
:1018D000E16BE868FFF7E4FA10B1A9F1010000E05C
:1018E000FF2000F0FF091CE0B9F1000F06D1E06B0A
:1018F0000AF0CFFB0499884200D119E04B20005D2B
:1019000000F0010040B90B2204F14001E06BFEF74A
:101910001DFF08B90CE004E04FF0FF094FF0FF3065
:10192000E0640021204600F006F80746002F95D01D
:1019300000BF384637E72DE9F0410446884627685E
:10194000206B00F120063878042801D1800601E0E0
:101950004FF40010B04201D80020A063A06B10B972
:101960000420BDE8F081C6F3080000284AD1A06B2E
:10197000401CA063606B38B93889B0EB561F41D862
:101980000020A0630420ECE77889401E00EA56207E
:10199000002837D12046616B03F0BCFB0546012DC2
:1019A00001D80220DDE7681C08B90120D9E7F869F1
:1019B000A84221D8B8F1000F03D10020A063042071
:1019C000CFE72046616BFFF7B7FA05460DB9072050
:1019D000C7E7012D01D10220C3E7681C08B9012027
:1019E000BFE729463846FFF771FE08B10120B8E786
:1019F000E07940F00400E071656329463846FFF75E
:101A000042FAA0632663C6F3080107F13C000844CC
:101A1000E0630020A5E72DE9F05F04468846042630
:101A200027684FF0FF0AD3466CE03846A16B08F0F8
:101A300029FB064606B168E0E06B05780DB904267F
:101A400063E03878042814D1B8F1000F02D0832D58
:101A500051D15AE0852D4ED1206BE064204607F02D
:101A6000DFF9064626B93869007900F03F00A07119
:101A70004BE0E06BC07A00F03F0984F80690E52D5A
:101A80000AD02E2D08D029F02000082801D10120ED
:101A900000E00020404502D04FF0FF0A2BE0B9F1F2
:101AA0000F0F1CD105F0400038B1E06B90F80DB07D
:101AB00005F0BF05AA46206BE06455450BD1E06BED
:101AC000407B584507D1E16BF86808F0C9FD10B1BB
:101AD000AAF1010000E0FF2000F0FF0A0BE0BAF1DC
:101AE000000F04D1E06B0AF0D4FA584502D04FF051
:101AF000FF30E06409E000212046FFF71CFF0646A6
:101B000006B102E0A06B00288FD100BF0EB100200B
:101B1000A0633046BDE8F09F2DE9F04F99B0044630
:101B200026684B20005D00F0A00018B1062019B017
:101B3000BDE8F08F4FF0000B01E00BF1010BF068F6
:101B400030F81B000028F8D13078042866D10BF15A
:101B50000E000F21B0FBF1F000F1020949462046CA
:101B6000FFF776FD05460DB12846E0E7A9F1010033
:101B70002022216B02FB1010E064E07900F00400E9
:101B8000002845D0E07920F00400E071204602F002
:101B900001FF05460DB12846C9E74FF0FF32204648
:101BA000616B02F012FF05460DB12846BFE7A06841
:101BB00070B32146684607F013F905460DB1284673
:101BC000B5E770894002D4E90431181841F10001E9
:101BD000C4E90401D4E90473316901F138003A46DB
:101BE0000AF0EAF9D4E90473316901F128003A46B0
:101BF0000AF0E2F9E07940F00100316981F8210052
:101C000068460AF00DFA05460DB128468FE700BF79
:101C1000D6E90310FFF751FC002088E7D4E9111240
:101C2000206C15AB07C39DF85F0000F0010028B3DE
:101C300040214B2001554FF0010A0EE0534615A9F3
:101C400004F14000F26803F0FBF92046FFF79FFD26
:101C5000054605B104E00AF1010ABAF1640FEDD3BB
:101C600000BFBAF1640F01D1072060E7042D01D055
:101C700028465CE79DF85F104B2001559DF85F00FA
:101C800000F0020030B10BF10C000D21B0FBF1F0BF
:101C9000401C00E00120814649462046FFF7D8FC61
:101CA000054675BBA9F10100B0F1000929D0206BF0
:101CB000A0EB4911204600F07DF805460DBB04F16C
:101CC00040000AF0E6F9149000BF3046A16B08F01E
:101CD000D9F9054605B113E009F0FF02E16BF068A0
:101CE000149B08F0A5FD0120F07000212046FFF7AD
:101CF00022FE054625B9A9F10100B0F10009E4D1A1
:101D000000BFE5B93046A16B08F0BCF90546B5B98E
:101D10002021E06BFEF7F5FDE06B216C0160616C4A
:101D20004160B4F84810018194F84A1081724B2048
:101D3000005D00F01800E16B08730120F070284688
:101D4000F5E62DE9F04104462668276BE06C401C5F
:101D500008B9002003E02046E16C00F02BF80546AE
:101D60002DBB00BF3046A16B08F08CF9054605B1CC
:101D700019E03078042806D1E06B007800F07F008D
:101D8000E16B087002E0E520E16B08700120F07063
:101D9000206BB84200D306E000212046FFF7CBFDC0
:101DA0000546002DDED000BF042D00D102252846B7
:101DB000BDE8F0812DE9F04104460D4626683078F3
:101DC000042801D1800601E04FF40010A84202D996
:101DD00005F01F0010B10220BDE8F0812563A7685F
:101DE0002FB93078032802DBF76A0020E07147B989
:101DF0003089B0EB551F01D80220EDE7F06AA063EF
:101E00001CE070894FEA402811E03946204603F073
:101E100081F90746781C08B90120DDE7022F02D3BB
:101E2000F069B84201D80220D6E7A5EB0805454580
:101E3000EBD239463046FFF726F8A0636763A06B04
:101E400008B90220C8E7A06B00EB5520A063C5F3DA
:101E5000080106F13C000844E0630020BCE770B5CF
:101E60000446002514B1012C07D103E008F02AFE36
:101E7000054604E008F030FA01E0012500BF00BF8C
:101E80000DB1012070BD0020FCE700002DE9F047F6
:101E900006468946154646BBB9F1000F09D0B9F18F
:101EA000010F13D0B9F1020F05D0B9F1030F19D109
:101EB00006E0002418E04FF400702860002413E0CE
:101EC0001D48B0F85000288000240DE01A484FF457
:101ED00000720023D0E912713846FEF743FA2860F9
:101EE000002401E0042400BF22E0012E1FD1B9F13B
:101EF000000F09D0B9F1010F11D0B9F1020F05D0CF
:101F0000B9F1030F10D106E000240FE04FF4007088
:101F1000288000240AE008202880002406E04FF4EE
:101F2000C0402860002401E0042400BF00E0012438
:101F30002046BDE8F0870000300300202DE9F04185
:101F400080460E4614461D46002715B90420BDE8FC
:101F5000F081B8F1000F03D0B8F1010F25D113E0E3
:101F60002A462146304608F067FE074609E0022F60
:101F700001D008F0A7FD2A462146304608F05CFE55
:101F80000746002FF3D112E00BE0002000EB4421C4
:101F90004FF40072304608F0EBF9641C06F5007649
:101FA0006D1E002DF1D1002701E0012700BF00BF09
:101FB0000FB90020CBE70120C9E701460020704798
:101FC0002DE9F04107460E4614461D464FF0000825
:101FD00015B90420BDE8F08117B1012F24D112E01A
:101FE0002A462146304608F06BFE804607E008F09E
:101FF00069FD2A462146304608F062FE8046B8F167
:10200000000FF4D113E00BE0002000EB44214FF46B
:102010000072304608F042FA641C06F500766D1E28
:10202000002DF1D1A84602E04FF0010800BF00BF2B
:10203000B8F1000F01D10020CCE70120CAE7000071
:1020400070B5002500240EE04FF40F71002008F059
:1020500011F90B4941F82400084650F8240000B952
:1020600003E0601CC4B2022CEEDB00BF07F04AFAAA
:102070000546022C02D10DB9002070BD0120FCE7FD
:102080004C00002038B50546284602F003F9044606
:102090004CB9694628460BF093FC04461CB9002055
:1020A0002860204638BD2046FCE738B5044669461E
:1020B00020460BF085FC05460DB90020206028461F
:1020C00038BD2DE9F74F90B08A4600220EA910A81E
:1020D00007F09EFD0746002F0CD10E991298016063
:1020E0000E98D0E90610801E814204D80E988069AF
:1020F000CAF800008FE000260E98007801281DD154
:1021000002250E98029000BF294602A803F002F8AB
:10211000804608F1010008B901270EE0B8F1010F6F
:1021200001D1022709E0B8F1000F00D1761C681C2C
:1021300005460E99C9698842E6D361E00E98007899
:1021400004282FD10E98C069851E0E98D0F83490BF
:10215000002400BF44B9494609F101090E9807F06F
:1021600091FF074607B11BE04FF0080B0E983C307B
:10217000005D01900AE0019800F0010000B9761CB2
:10218000019840100190ABF1010B6D1EBBF1000FE7
:1021900001D0002DEFD1601CC0F30804002DD9D16F
:1021A00000BF2DE00E98C5690E98D0F82890002445
:1021B00000BF44B9494609F101090E9807F062FFD2
:1021C000074607B11BE00E980078022808D10E9947
:1021D0003C31081906F0CAFD00B9761CA41C09E0C0
:1021E0000E993C31081906F084FD20F0704000B9CA
:1021F000761C241DC4F30804681E051ED9D100BF37
:102200004FB9CAF800600E9886610E98007940F0C8
:1022100001000E990871384613B0BDE8F08F2DE922
:10222000F74F96B00E469246002201A916A807F075
:10223000EFFC8046B8F1000F69D1002E67D00198FD
:10224000029000200490002102A8FFF7B3FD804611
:10225000B8F1000F55D1012102A8FFF7DCFB804641
:10226000B8F1000F4DD101980078042832D1002434
:10227000A346274622E01199891C01EB470006F08E
:1022800075FD0546BBF1000F07D1B5F5584F04DBCE
:10229000B5F5604F01DAAB460FE0311945EA0B4066
:1022A000042208F005FB8146B9F1000F01D100249A
:1022B00008E04C444FF0000B00BF7F1C11984078A1
:1022C000B842D8D800BFBBF1000F00D000240020D6
:1022D000305516E00024274606E038467F1C119A48
:1022E000155C2046641C35540B2FF6D300BF00202C
:1022F000305504B904E0601E0446305C2028F6D056
:1023000000BFB8F1040F02D1002030708046B8F150
:10231000000F1ED1BAF1000F1BD00198416A07F0DF
:10232000B1FE8046B8F1000F13D101980078032860
:1023300003D0042803D1642403E0432401E02724CC
:1023400000BF00BF01993C31081906F0D2FCCAF861
:102350000000404619B0BDE8F08F2DE9FC478046EB
:102360000C46914600254646641E13E06B4601224A
:1023700001A9484601F04AFC0098012800D00BE072
:102380009DF8047000BF06F8017B6D1C0A2F00D178
:1023900002E000BFA542E9DB00BF0020307015B1AC
:1023A0004046BDE8FC870020FBE72DE9F04F8FB0E9
:1023B000044615461E460DA920460BF001FB0E9063
:1023C0000E9810B994F831000E900E9848B90D98F7
:1023D0000078042805D1421F2046216C02F0F5FA4E
:1023E0000E900E9818B10E980FB0BDE8F08F206DCA
:1023F00000287ED04FF0FF3185EA0100714008438C
:1024000055D1206D04900498006806900498001D32
:10241000049002200590D4F808B0BBF1000F38D02A
:1024200000BFCDF81CB0002008900598801C0590D6
:1024300000BFCDF824B00898401C089059462046AB
:1024400002F068FE8346BBF1010F03D8022084F836
:102450003100C9E70BF1010018B9012084F83100FF
:10246000C2E70998401C8345E3D0DDE905018842B5
:102470000BD80499089808600498001D04900499EA
:10248000079808600498001D04900D98C06958458D
:10249000C7D80598216D0860DDE90501884203D899
:1024A000002104980160A9E111200E90A6E1D4E971
:1024B0000410491BB04101D2D4E90456C4E90E56B8
:1024C000002185EA010071400843ECD06F1E66F1DF
:1024D00000033A462046FEF7A5FC2064216C0D98C7
:1024E000FEF7D1FC0390039820B9022084F8310054
:1024F0007AE748E06F1E66F100014FF40072002396
:102500003846FDF7B8FE0D994989491E08400399E0
:10251000084403904FF400720023D4E90E7138464A
:10252000FDF7A9FE00214A404B401A43BBD0616C25
:1025300003988142B7D094F8300000F0800090B149
:10254000626C0D994878012304F15401FFF738FDBE
:1025500018B1012084F8310046E794F8300000F00B
:102560007F0084F830000D994878012304F154016C
:10257000039AFFF7E3FC18B1012084F8310033E738
:10258000039860643AE10D980078042806D0291E6B
:1025900076F1010002D34FF0FF350026D4E9041094
:1025A000491BB04106D294F8300000F0020008B98F
:1025B000D4E90456D4E90E01CDE90A0100200C90BB
:1025C000A063E063002185EA0100714008437ED0EA
:1025D0000D9840894FEA40290023DDE90A0158405F
:1025E000594008432CD06F1E66F100014A46384618
:1025F000FDF741FE07468846DDE90A10491E60F1F5
:1026000000004A460023CDE9001008460199FDF775
:1026100032FE381A78EB010812D3DDE90A104A1E9F
:1026200060F10001A9F1010022EA0000C4E90E01F5
:10263000D4E90E21AD1A66EB0106D4F840A01BE0E8
:10264000D4F808A0BAF1000F14D100212046FEF7FB
:1026500073FC8246BAF1010F03D1022084F83100E5
:10266000C2E60AF1010018B9012084F83100BBE686
:10267000C4F808A0C4F840A0BAF1000F75D047E034
:10268000B5EB090566F10006D4E90E2012EB09024C
:1026900040F10000C4E90E2094F8300000F0020080
:1026A000E8B1D4E90E32D4E90410C91A904109D234
:1026B000D4E90E01C4E9040194F8300040F0400070
:1026C00084F8300051462046FEF736FC00E04CE02E
:1026D0008246BAF1000F07D100252E461DE0514673
:1026E000204602F017FD82460AF1010018B90120C8
:1026F00084F8310078E6BAF1010F03D90D98C0696A
:10270000504503D8022084F831006DE6C4F840A09B
:102710000020B9EB0501B041B2D300BFD4E90E10DF
:1027200049197041C4E90E104FF400720023284685
:102730003146FDF7A0FD00214A404B401A4314D01A
:1027400051460D98FEF79FFB0C900C9818B902208B
:1027500084F8310048E64FF40072002328463146E1
:10276000FDF789FD0C9908440C90D4E90430D4E9B4
:102770000E12591A904109D2D4E90E01C4E904019C
:1027800094F8300040F0400084F830004FF40072BC
:102790000023D4E90E713846FDF76DFD00214A4053
:1027A0004B401A432AD0616C0C98814226D094F891
:1027B000300000F0800090B1626C0D9948780123E0
:1027C00004F15401FFF7FCFB18B1012084F831003B
:1027D0000AE694F8300000F07F0084F830000D998C
:1027E0004878012304F154010C9AFFF7A7FB18B1B4
:1027F000012084F83100F7E50C9860640E98F3E549
:102800002DE9F141A3B0022201A923A807F000FAA3
:102810000446002C7ED101980E904FF48C6001F09C
:10282000CDFF06461EB9112024B0BDE8F081019805
:10283000C66006F50070019908610EA8239902F0A0
:1028400074F9044604B9082400BF042C7ED1019811
:102850000290002102A8FEF76FFB0546002405B98F
:102860000724012D00D10224681C00B9012402F0C4
:102870001BFD8046002C3BD129460198FEF726FF20
:102880000446ACBB0198007804282DD020220B21EF
:1028900001983C30FEF72DF82E20019981F83C007C
:1028A0001021019880F8471041460198523009F0F4
:1028B00077FB2A4601993C31019809F05FFB202201
:1028C00001993C3101985C30FDF7E1FF2E21019820
:1028D00080F85D10109F3A4601995C31019809F02B
:1028E0004DFB01200199C8700EA8FFF715F90446A9
:1028F000002C4CD101980078042831D10199096944
:1029000001F10C00414609F04BFB0199096901F105
:10291000340000E043E0294609F042FB019A528965
:102920005102019A126902F1380009F039FB019A4B
:1029300052895102019A126902F1280009F030FB14
:1029400003200199096981F8210000E024E01020AA
:102950000199096908710EA809F062FB044610E0AC
:102960001D9901F11600414609F01AFB2A461D99EE
:10297000019809F003FB10201D99C87201200199EC
:10298000C8704CB9019809F095FB044604E0002298
:10299000294602A807F0F1FF304601F016FF204655
:1029A00042E700002DE9FF4FA5B0174625A802F029
:1029B000BAFD0F900F98002803DA0B2029B0BDE86C
:1029C000F08FFE490F9851F8200028B10021FB4AF2
:1029D0000F9852F8200001700F98C0B2229000208A
:1029E0002190269808B9F64826902298FFF737FAE2
:1029F0000E900E9800F0010008B10320DEE70E985B
:102A000000F0040008B10A20D8E7269840681F901B
:102A10001F9838B91FAA03212298FFF737FA08B187
:102A200001201F901F9840B11F98B0F5004F04D8A7
:102A30001F98401E1F99084008B101201F904FF4B5
:102A400000762698007800F00F00249026984078B1
:102A5000012806DB26984078022802DC2698407878
:102A600000E0012011902699896899B1269989681A
:102A7000B1F5004F0ED83046F11706EBD1614A117F
:102A800026998968B1FBF2F302FB131111B926995B
:102A9000896801E04FF4007110912698C068B0F188
:102AA000807F09D82698C0682699C968491E0840C1
:102AB00010B92698C06800E000208146B9FBF6F9FD
:102AC0002898B0FBF6F02090209808B9112075E7FF
:102AD0003C462CB9209901FB06F001F06FFE04463C
:102AE0000CB911206AE700201B901A9000BF1BAAA6
:102AF00001212298FFF7CAF928B117B9204601F041
:102B000064FE01205AE7249800F0080040B91B98A1
:102B10003F2805D93F201A90DDE91A01081A1B90B9
:102B20001B98802805D217B9204601F04EFE0E20D2
:102B300044E700BF249800F0040070B1249800F02E
:102B40000700042806D01B98B0F1806F02D2B9F1BB
:102B5000800F02D94FF0040A1CE0B9F1800F01D9AF
:102B60004FF08009249800F0020030B1249800F062
:102B7000010010B94FF0030A0CE0249800F00100A6
:102B800028B917B9204601F020FE132016E74FF0B0
:102B9000020A00BF00BF02F087FB1B9908441C908B
:102BA000BAF1040F75D11B98B0F5805F05D217B943
:102BB000204601F00AFE0E2000E7B9F1000F0DD10A
:102BC0004FF008091B98B0F5002F01D34FF04009D2
:102BD0001B98B0F1806F01D34FF480791A982030A0
:102BE00019901B98B0FBF9F0801C06EB8000401E8A
:102BF000B0FBF6F113911399199808441F990844F2
:102C0000401E491E884318901A991898401A1B991B
:102C1000B0EB510F05D317B9204601F0D6FD0E20B9
:102C2000CCE61A991898401A1B99081AB0FBF9FBC0
:102C3000BBF1100F05D217B9204601F0C6FD0E20DA
:102C4000BCE66048834505D917B9204601F0BDFDB3
:102C50000E20B3E60BF10700C0080C900C9809FB9E
:102C60000600401E09FB06F1B0FBF1F00590059946
:102C7000189809FB0100179000200A90019003901A
:102C8000002502900B9000BF019818B101283ED199
:102C900031E0A8E2039801F025FE80B20490DDE95E
:102CA0000310884204D00398401C80B2039039E09E
:102CB0000120029002E00298401C0290DDE902101F
:102CC000084480B258B1DDE90221114488B201F014
:102CD00009FEDDE90221114489B28842EBD0029855
:102CE000802805D34FF6FF7004900220019019E070
:102CF0000120019000BF03980490401C80B2039013
:102D00000298401E029008B9002001900AE0029843
:102D100080B20490DDE90210084480B203900020E4
:102D2000019000BF00BF0499C9B2615508460A99D5
:102D30000AF0A9FE0A9004990A12691C625410460E
:102D40000A990AF0A0FE0A90AD1C0B98801C0B900B
:102D5000039818B120987043A84214D1A819401EB6
:102D6000B0FBF6F843462146179A2298FFF728F958
:102D700028B117B9204601F028FD01201EE617985A
:102D8000404417900025039800287FF47DAF0B98EE
:102D900009FB0600401E09FB06F1B0FBF1F00690AE
:102DA00001200790189817900C983044401EB0FBF3
:102DB000F6F01D90DDE90501084405E04000002023
:102DC00000110108FDFFFF7F07990844099000BF2B
:102DD000209800FB06F12046FDF793FD00250EE04C
:102DE00004EBD500007805F007020121914008436B
:102DF00004EBD50108706D1C0998401E09900998D4
:102E000020B120987043B0EBD50FE9D820991D98D8
:102E1000884201D9209800E01D988046434621460B
:102E2000179A2298FFF7CCF828B117B9204601F07D
:102E3000CCFC0120C2E51798404417901D98A0EBE8
:102E400008001D901D980028C2D11998179013985A
:102E50001D90002008900990029000BF209800FB70
:102E600006F12046FDF74DFD0025089880B9601950
:102E70006FF0070109F094F82D1D0898401C089088
:102E80006019691F09F08CF82D1D0898401C0890E6
:102E900000BF12E0099A012A02D9089A521C01E0E7
:102EA0004FF0FF321146601909F07AF82D1D08988D
:102EB000401C08900998401E0990099818B1209864
:102EC0007043A842E6D8099848B90298032806D268
:102ED0000298411C029105A951F820000990099817
:102EE00018B120987043A842D3D820991D988842E1
:102EF00001D9209800E01D98804643462146179A44
:102F00002298FFF75DF828B117B9204601F05DFC63
:102F1000012053E51798404417901D98A0EB080036
:102F20001D901D98002899D1209800FB06F120469D
:102F3000FDF7E7FC83202070812084F82000022127
:102F400004F1340009F02CF804F138000C9909F070
:102F500027F8822084F8400004F144000A9909F01F
:102F60001FF80598811C04F1540009F019F804F1C8
:102F700058000B9909F014F8DDE90501014418988F
:102F800009FB01001790CDF8749000BF20991D989F
:102F9000884201D9209800E01D988046434621468A
:102FA000179A2298FFF70CF828B117B9204601F0BC
:102FB0000CFC012002E531462046FDF7A2FC1798E3
:102FC000404417901D98A0EB08001D901D98002804
:102FD000DCD11A9817904FF00008FFE031462046E8
:102FE000FDF78FFCF7A001682160416861600189ED
:102FF0002181807AA072002304F140001A9A08F01F
:10300000DBFF002304F148001B9A08F0D5FFDDE93F
:103010001902811A04F1500008F0C2FF04F15400B3
:10302000139908F0BDFF1A9A1898811A04F15800F4
:1030300008F0B6FF594604F15C0008F0B1FF0598AE
:10304000801C069A811804F1600008F0A9FF04F1C1
:1030500064001C9908F0A4FF4FF4807104F168002B
:1030600008F0D8FF002084F86C00354604E094F89E
:103070006C00401C84F86C006808051EF7D184F8C9
:103080006D004D4604E094F86D00401C84F86D001E
:103090006808051EF7D1012084F86E00802084F8AE
:1030A0006F004FF6EB6104F1780008F0B3FF4AF6C9
:1030B000552104F5FF7008F0ADFF002005460A9089
:1030C0000BE06A2D08D06B2D06D0702D04D0605D0A
:1030D0000A990AF0D8FC0A906D1CB542F1D31798F2
:1030E000411C02460123179121462298FEF768FFF2
:1030F00028B117B9204601F068FB01205EE4314693
:103100002046FDF7FEFBA119881E4AF6552108F05E
:1031100081FF012002901DE0002506E029466D1C7C
:10312000605C0A990AF0AFFC0A90B542F6D3179892
:10313000411C02460123179121462298FEF740FFC9
:1031400028B117B9204601F040FB012036E402986F
:10315000401C029002980928DED331462046FDF734
:10316000D0FB1DE0002506E029466D1C605C0A9935
:103170000AF089FC0A90B542F6D31798411C024622
:103180000123179121462298FEF71AFF28B117B99B
:10319000204601F01AFB012010E40298401C029026
:1031A00002980B28DED3002504E060190A9908F084
:1031B000F7FE2D1DB542F8D31798411C0246012396
:1031C000179121462298FEF7FBFE28B117B9204639
:1031D00001F0FBFA012011E408F10108B8F1020F37
:1031E000FFF4FCAE77E200BFCDF87890BAF1030FA0
:1031F00032D11E9898B91B984FEA504800250120FB
:103200001E9003E06D1C1E9840001E90704830F820
:10321000150020B16E4830F815004045F2D91B99D1
:103220001E98B1FBF0FB082000EB8B003044401EE1
:10323000B0FBF6F0139020201490002012904FF66F
:10324000F570834502D9634883453CD917B92046B8
:1032500001F0BBFA0E203AE41E9898B91B984FEA89
:103260001038002501201E9003E06D1C1E984000C0
:103270001E90594830F8150020B1574830F8150015
:103280004045F2D91B991E98B1FBF0FB40F6F57052
:10329000834503D9042000EB4B0807E04FF0010AF7
:1032A0000BEB4B00401C032101EB500808EB060020
:1032B000401EB0FBF6F013900120149010984001CE
:1032C000B0FBF6F0129014991A9808441990119ACC
:1032D0001399199801FB02011298084418901F993C
:1032E00018980844401E491E20EA01011898A1EBD5
:1032F0000008BAF1030F06D11498404414901998AD
:103300004044199013E01198B8FBF0F100FB1180D4
:1033100038B1A8F101081498401C14901998401C69
:1033200019901198B8FBF0F113980844139018996C
:103330001E9801EB00111A98081A1B99884205D9AA
:1033400017B9204601F041FA0E201FE41B9914988A
:103350000A1A1199139800FB11211298091A1E9844
:10336000B1FBF0FBBAF1030F12D14FF6F5708345B4
:103370000ED8B9F1000F05D11E984008B0F1000930
:1033800000D05BE017B9204601F01FFA0E2013E4CD
:10339000BAF1020F44D14FF6F57083452DD9B9F13A
:1033A000000F08D140211E98B1EB400F03D31E98A7
:1033B0004FEA400942E0249800F0020070B14FF05B
:1033C000030A3BE0EB76904558464154202020000C
:1033D000F0100108F5FFFF0FE2100108B9F1000F2E
:1033E00005D11E9840008146802800D826E017B9F4
:1033F000204601F0EAF90E2012E440F6F57083450C
:103400000ED8B9F1000F05D11E98400081468028E2
:1034100000D813E017B9204601F0D7F90E200FE4C9
:10342000BAF1010F09D140F6F570834505D917B9F6
:10343000204601F0CAF90E200BE400E0D4E600BFFC
:1034400031462046FDF75DFAC5A00168216041685C
:10345000616001892181807AA072314604F10B00FC
:1034600008F0D8FD1E986073149881B204F10E0024
:1034700008F0D0FD11982074BAF1030F01D100209B
:1034800000E0109881B204F1110008F0C3FD1B9810
:10349000B0F5803F06D21B9881B204F1130008F00A
:1034A000B9FD04E004F120001B9908F079FDF82033
:1034B00060753F2104F1180008F0ACFDFF2104F114
:1034C0001A0008F0A7FD04F11C001A9908F068FD25
:1034D000BAF1030F25D104F143001C9908F060FDF7
:1034E00004F12400139908F05BFD022104F12C0083
:1034F00008F056FD012104F1300008F08BFD062193
:1035000004F1320008F086FD802084F84000292074
:1035100084F84200132295A104F14700FDF772F9E7
:1035200016E004F127001C9908F03AFD139881B2C7
:1035300004F1160008F06EFD802084F82400292094
:1035400084F8260013228EA104F12B00FDF75AF90E
:103550004AF6552104F5FF7008F05CFD0123214671
:103560001A9A2298FEF72CFD28B117B9204601F0CF
:103570002CF901205EE4BAF1030F32D101231A9A2B
:10358000921D21462298FEF71BFD31462046FDF78D
:10359000B8F98049204608F003FD7F4904F5F27030
:1035A00008F0FEFCABF1010104F5F47008F0F8FC42
:1035B000022104F5F67008F0F3FC4AF6552104F5F3
:1035C000FF7008F027FD01231A9AD21D2146229888
:1035D000FEF7F6FC01231A9A521C21462298FEF7A8
:1035E000EFFC209800FB06F12046FDF78AF91998B8
:1035F0001790002545E0BAF1030F10D16FF00701D5
:10360000204608F0CDFC4FF0FF31201D08F0C8FC2B
:103610006FF0704104F1080008F0C2FC0AE0BAF152
:10362000010F01D15D4801E06FF00700014620461F
:1036300008F0B6FC13981D9000BF20991D98884291
:1036400001D9209800E01D98804643462146179AEC
:103650002298FEF7B5FC28B117B9204601F0B5F85D
:10366000012056E431462046FDF74BF917984044B7
:1036700017901D98A0EB08001D901D980028DCD124
:103680006D1C11988542B6D3BAF1030F01D11E9873
:1036900000E012981D9000BF20991D98884201D922
:1036A000209800E01D98804643462146179A2298AC
:1036B000FEF786FC28B117B9204601F086F80120F4
:1036C00027E41798404417901D98A0EB08001D9020
:1036D0001D980028E0D1BAF1040F02D107202390F1
:1036E00013E0BAF1030F02D10C2023900DE01B98D8
:1036F000B0F5803F02D30620239006E0BAF1020F16
:1037000001D1042000E00120239000BF249800F0A4
:10371000080090B91B98159000201690234615A913
:10372000DDE92202FDF71CFE0D900D9828B117B9B6
:10373000204601F04AF80D983CE4002211462298F8
:10374000FEF7A4FB28B117B9204601F03EF801208E
:1037500030E417B9204601F038F800202AE40000D0
:10376000EBFE904D53444F53352E30004E4F204EBC
:10377000414D452020202046415433322020200056
:103780004E4F204E414D45202020204641542020C0
:10379000202020005252614172724161F8FFFF0007
:1037A000F7B582B016460398019001A801F0BBFE60
:1037B0000546002D02DA0B2005B0F0BD0C4850F88C
:1037C00025400CB100202070029810B10020029911
:1037D00008700749029841F825000EB90020EBE770
:1037E000002202A903A806F013FA07463846E3E7C9
:1037F000400000202DE9F74F9AB0044616461CB948
:1038000009201DB0BDE8F08F06F03F06324605A93D
:103810001BA806F0FDF90546002D7BD10598069002
:103820004FF48C6000F0CAFF8346BBF1000F01D15A
:103830001120E6E70598C0F80CB00BF5007005996B
:10384000086106A81B9901F070F905462DB99DF88D
:10385000630000F0800000B1062506F01C0000287F
:103860007ED045B1042D03D106A8FEF755F90546D3
:1038700046F008060AE09DF81E0000F0110008B1AD
:10388000072503E006F0040000B10825002D40D113
:1038900006F0080000283CD00598007804283AD1AA
:1038A000059820602146059801F064FE0599096994
:1038B000881C1E21FDF725F80599096901F12600EC
:1038C0001A21FDF71EF8202005990969087101F0F9
:1038D000EBFC01900599096901F10800019908F0D4
:1038E0005FFB01200599096981F8210006A808F00D
:1038F00097FB0546002D5CD1A068002859D0002216
:103900002046A16807F039F80546A068401E0599D1
:1039100048614EE0F2E001F0C7FC0390159901F117
:103920000E00039908F03CFB159901F1160003996C
:1039300008F036FB1599059805F0C8F90490202089
:103940001599C87200221599059808F017FB15996A
:1039500001F11C00002108F023FB0120059900E083
:1039600016E0C870049820B30598806B029000227E
:1039700006A8049907F001F80546D5B902990598FB
:1039800006F080FB05460498401E0599486110E04A
:103990007DB99DF81E0000F0100008B1042508E074
:1039A00006F0020028B19DF81E0000F0010000B1F1
:1039B00007254DB906F0080008B146F04006059805
:1039C000806BA0641598E064002D7DD10598007887
:1039D00004280FD1089820620A9820F0FF009DF873
:1039E0001F10084360621998A0622146059801F0F3
:1039F000C1FD0CE01599059805F068F9A0601599CE
:103A000001F11C0005F075F90021C4E90401002052
:103A10002065059820600598C088A08084F83060F3
:103A2000002084F8310060640021A163E1634FF459
:103A3000007104F15400FCF786FF06F02000002816
:103A400059D00023D4E9041059405840014352D0C2
:103A5000D4E90401C4E90E01059840894FEA4029E0
:103A6000D4F808A0D4E9047810E05146204601F0CB
:103A700051FB8246BAF1010F00D802250AF101007C
:103A800000B90125B7EB090768F100082DB900203E
:103A9000B9EB070170EB0800E7D3C4F840A09DB96B
:103AA0004FF40072002338464146FCF7E4FB002146
:103AB0004A404B401A431ED051460598FDF7E3F9A2
:103AC0000290029818B900E015E0022513E04FF4C7
:103AD0000072002338464146FCF7CDFB02990844AA
:103AE0006064626C05994878012304F15401FEF783
:103AF00025FA00B10125584600F067FE0DB10020FF
:103B0000206028467DE673B582B0044614B90920CA
:103B100004B070BD002201A903A806F079F805469B
:103B2000002D47D1019820604FF48C6000F046FED4
:103B300006460EB91120EBE70198C66006F5007045
:103B4000019908612046039900F0EFFF05465DBB2F
:103B50004B20005D00F08000E8B9A07900F0100073
:103B6000C0B10198007804280ED1A06820622069B5
:103B700020F0FF00E17908436062E06CA06221461A
:103B8000019801F0F7FC06E0E16B019805F09EF862
:103B9000A06000E005253DB90198C088A080002103
:103BA0002046FEF707F90546304600F00EFE042DCC
:103BB00000D105250DB1002020602846A8E730B5CA
:103BC00093B004460D462946684606F0CAFE2146D3
:103BD000684606F08EFE684606F0ADFE13B030BDB6
:103BE00030B593B004460D462946684606F0B9FE46
:103BF00004E014F8011B684606F07BFE20780028DC
:103C0000F7D1684606F097FE13B030BD2DE9FF4F9F
:103C100087B0044615460898039000210A98016071
:103C200005A9204609F0CCFE0690069818B994F82C
:103C30003100069018B106980BB0BDE8F08F94F8EB
:103C4000300000F0010008B90720F5E7D4E90E23A1
:103C5000D4E904108F1A60EB0308791B78F1000097
:103C600000D23D46E1E0D4E90E014FF4007200239A
:103C7000CDE90001FCF7FFFA00214A404B401A430E
:103C80007DD1D4E90E014FF400720023CDE900018B
:103C9000FCF7F1FA05994989491E00EA010ABAF1CF
:103CA000000F2BD10023D4E90E015840594008439E
:103CB00002D1A068049011E0206D50B1D4E90E014A
:103CC00002460B46CDE900012046FDF7ABF8049013
:103CD00004E02046216C01F01DFA049004980228AB
:103CE00003D2022084F83100A6E70498401C18B9DA
:103CF000012084F831009FE704982064216C059826
:103D0000FDF7C1F88146B9F1000F03D1022084F814
:103D1000310091E7D1444FEA552BBBF1000F2FD072
:103D20000AEB0B0005994989884203D90598408917
:103D3000A0EB0A0B059948785B464A460399FEF7C3
:103D4000FDF818B1012084F8310075E794F83000CF
:103D500000F0800080B1606CA0EB090058450BD2E8
:103D6000616CA1EB0901039A02EB41204FF4007250
:103D700004F15401FCF746FD4FEA4B2645E029E0EB
:103D8000606C484524D094F8300000F0800090B179
:103D9000626C05994878012304F15401FEF710F98B
:103DA00018B1012084F8310046E794F8300000F0A3
:103DB0007F0084F830000599487801234A4604F1D1
:103DC0005401FEF7BBF818B1012084F8310033E745
:103DD000C4F84490208FC0F30800C0F50076AE42CE
:103DE00000D92E46D4E90E014FF400720023CDE92C
:103DF0000001FCF740FA04F1540010443246014639
:103E000002900398FCF7FEFC00BFAD1B0A98006807
:103E100081190A980160039830440390D4E90E1088
:103E2000891940F10000C4E90E10002D7FF41BAF8A
:103E3000002001E7F8B507460E466946384609F006
:103E4000BFFD044664BB2EB900213846FDF7B2FF22
:103E5000044625E04FF48C6000F0B0FC05460DB937
:103E60001120F8BD0098C56005F500700099086143
:103E700000213846FDF7CFFD0446042C00D1002474
:103E80005CB93146384601F011FA00213846FDF799
:103E900052FD0446042C00D10024284600F095FC75
:103EA0002046DEE72DE9F347BAB03BA801F03BFB23
:103EB000022211A93AA805F0ABFE0446002C7DD1E0
:103EC000119826904FF48C6000F078FC06461EB9DD
:103ED00011203CB0BDE8F0871198C66006F500706F
:103EE0001199086126A83A9900F01FFE04462CB9E2
:103EF0009DF8E30000F0A00000B10624002C7BD167
:103F00001198007804285DD111984022016901A818
:103F1000FCF778FC502226A912A8FCF7B8FC12A8DE
:103F20003B9900F002FE04465CB928991498884237
:103F300005D132991E98884201D1042000E0082062
:103F40000446042C3DD112A8FDF7E6FD0446B4BB9F
:103F50001198006990F801801198006990F82390F9
:103F60001199096901F1240004F000FF82461199BA
:103F70004022086901A9FCF745FC1198006980F806
:103F800001801198006980F823901199096901F165
:103F90002400514608F03EF811980069007900F0BD
:103FA000100038B911980069007940F0200011998B
:103FB0000969087112A808F033F801E072E000E026
:103FC000044662E0202201A83599FCF71BFC502230
:103FD00026A912A8FCF75BFC12A83B9900F0A5FDEE
:103FE000044664B928991498884206D132991E98DB
:103FF000884202D1042001E051E008200446042C4C
:1040000043D112A8FDF788FD04464CBB219D132225
:104010000DF1110105F10D00FCF7F4FB9DF80F0007
:10402000E872E87A00F0100018B9E87A40F0200051
:10403000E87201201199C870E87A00F0100078B198
:1040400014992898884220D02946119804F03EFE01
:10405000804641461198FCF716FF07460FB9022427
:1040600013E03946119806F00DF80446119800F156
:104070005C0554B968782E2807D12946149A1198FE
:1040800007F07CFF01201199C87044B926A8FDF7FC
:1040900058FE04461CB9119808F00CF80446304646
:1040A00000F093FB204614E72DE9F1419DB0022278
:1040B00007A91DA805F0ACFD06461EB130461EB08E
:1040C000BDE8F0810798007804282FD1182101A8B5
:1040D000FCF739FC002424E01DA808F0CBF90546C4
:1040E000B5F5803F0CD3681C08B10A2C01D300251C
:1040F00006E0290C01AA02EB440007F08BFF641CC8
:1041000035B129466248FCF717FB08B90B2C01D3DF
:104110000620D4E7A9B201AA02EB440007F07AFF17
:10412000641C1D9800782028D6D245E020220B215F
:1041300001A8FCF7DEFB00242CE01DA808F09AF98A
:104140000546B5F5803F08D2284600F0CBFB8046F7
:104150004FF46A7100F084FB00E00020074667B16D
:1041600039464B48C01FFCF7E7FA30B9FF2F01DD95
:104170000A2000E00B20A04201D806209FE7FF2F75
:1041800004DD3A122046641C01A90A542046641C2E
:1041900001A90F541D9800782028CED29DF8040064
:1041A000E52801D106208AE700E0641E24B1601EE4
:1041B00001A9085C2028F8D00798089000200A90F0
:1041C000002108A8FDF7F6FD0646002E5DD101216D
:1041D00008A8FDF720FC064626BB079800780428AF
:1041E00008D117994C701799881C162201A9FCF761
:1041F00009FB0FE05CB101991798016002994160D9
:10420000BDF80C1001819DF80E10817202E0E520CE
:104210001799087001200799C870079807F04AFF9E
:10422000064632E0042E30D1002674B3012108A8DE
:10423000FDF70EFA064646BB20211798FCF761FBF6
:104240000798007804280BD18320179908701799D4
:104250004C701799881C162201A9FCF7D3FA0DE0BF
:1042600008201799C8720199179801600299416056
:10427000BDF80C1001819DF80E1081720120079984
:10428000C870079807F016FF0646304617E700008B
:10429000D61001082DE9F04796B0044614A920462F
:1042A00009F08EFB0546002D7ED194F8300000F019
:1042B0004000002878D094F8300000F0800090B1E1
:1042C000626C14994878012304F15401FDF778FEDB
:1042D00018B1012016B0BDE8F08794F8300000F066
:1042E0007F0084F8300000F0DFFF824614980078E9
:1042F000042875D1204600F04DFB054635B94FF036
:10430000FF322046216C00F060FB0546002DCBD12A
:104310004FF48C6000F052FA8146B9F1000F01D1E0
:104320001120D7E71498C0F80C9009F50070149983
:1043300008612146684604F053FD0546002D4AD128
:1043400014980069007940F02000149909690871F7
:10435000E07940F001001499096981F82100A16811
:10436000149A126902F1340007F01AFED4E90473BA
:104370001499096901F138003A4607F01DFED4E9A5
:1043800004731499096901F128003A4607F014FEF4
:104390001499096901F10C00514607F001FE002053
:1043A00014990969487500E046E01499096901F11A
:1043B0001000002107F0F4FD684607F031FE0546C5
:1043C0004DB9149807F076FE054694F8300000F0D9
:1043D000BF0084F83000484600F0F7F92CE0FFE712
:1043E000A16C149805F04EFE05462DBBE66CF07AE4
:1043F00040F02000F0723146A268206807F0BEFD50
:1044000006F11C00216907F0CBFD514606F11600AC
:1044100007F0C6FD002106F1120007F0FBFD0120A8
:104420001499C870149807F045FE054694F83000BA
:1044300000F0BF0084F8300028464BE771B5B7B0F4
:10444000002602220DA937A805F0E2FB0446002C45
:1044500070D10D9822904FF48C6000F0AFF90546B2
:1044600015B9112038B070BD0D98C56005F5007004
:104470000D99086122A8379900F057FB044600BF48
:10448000002C54D19DF8D30000F0800008B1062420
:1044900005E09DF88E0000F0010000B10724A4BBE8
:1044A0000D9800900D980078042805D169460D9864
:1044B00001F060F8029E04E031990D9804F006FCCA
:1044C00006469DF88E0000F01000F0B10D980E9099
:1044D00010960D980078042807D1DDE90401CDE994
:1044E00012019DF807008DF83F0000210EA8FDF78E
:1044F00061FC04464CB900210EA8FDF78CFA044675
:1045000004B90724042C00D1002484B922A8FDF7A3
:1045100018FC044634B92EB100223146684606F034
:104520002CFA04461CB90D9807F0C4FD0446284631
:1045300000F04BF9204695E72DE9FF4F87B0044680
:1045400015469B46089803900020CBF8000004A96C
:10455000204609F035FA0590059818B994F831000D
:10456000059018B105980BB0BDE8F08F94F83000B5
:1045700000F0020008B90720F5E704980078042845
:1045800007D0A06B4019A16B884202D2A06BC0F18A
:10459000FF3507E1D4E90E014FF400720023CDE9A5
:1045A0000001FBF768FE00214A404B401A437CD1D2
:1045B000D4E90E014FF400720023CDE90001FBF7AE
:1045C0005AFE04994989491E00EA010ABAF1000F0E
:1045D0003AD10023D4E90E1059405840014309D183
:1045E000D4F80880B8F1000F16D12046FCF7A4FCDF
:1045F000804611E0206D50B1D4E90E0102460B4611
:10460000CDE900012046FCF70DFC804604E0204681
:10461000216CFCF791FC8046B8F1000F00D1C4E09A
:10462000B8F1010F03D1022084F831009BE708F1B3
:10463000010018B9012084F8310094E7C4F84080E3
:10464000A06808B9C4F8088094F8300000F0800031
:1046500090B1626C04994878012304F15401FDF78C
:10466000AFFC18B1012084F831007CE794F83000E9
:1046700000F07F0084F83000216C0498FCF703FC04
:1046800007461FB9022084F831006CE757444FEA0F
:104690005529B9F1000F2FD00AEB09000499498977
:1046A000884205D90498408900E03DE0A0EB0A0962
:1046B000049948784B463A460399FDF781FC18B1B6
:1046C000012084F831004EE7606CC01B484510D2D1
:1046D000606CC01B039A02EB40214FF4007204F19E
:1046E0005400FCF78FF894F8300000F07F0084F855
:1046F00030004FEA492637E0606CB84213D0D4E965
:104700000431D4E90E20D21A88410CD20499487899
:1047100001233A4604F15401FDF710FC18B10120C1
:1047200084F831001FE76764208FC0F30800C0F5EC
:104730000076AE4200D92E46D4E90E014FF4007245
:104740000023CDE90001FBF796FD04F1540010446D
:10475000324602900399FCF755F894F8300040F087
:10476000800084F8300000BFAD1BDBF8000030444F
:10477000CBF80000039830440390D4E90E2092193E
:1047800040F10000C4E90E20D4E90E31D4E9042040
:10479000D21A884102D2D4E90E0101E0D4E9040121
:1047A000C4E90401002D7FF4F5AE00BF94F8300099
:1047B00040F0400084F830000020D4E610B50446F4
:1047C0002146002005F056FD10BD10B504462146D7
:1047D000002005F03DFD10BD2DE9F84F04468B4645
:1047E0001E48D0F805004FEA500A802C01DAA04696
:1047F00030E01A48D0F805004FEA50090120C0EB1C
:104800009909002710261CE0A9EB070007EB5005CB
:104810001248D0F8010000EB850000EB0A010422E9
:10482000684605F0A5FDBDF80000A04200D10AE0F1
:10483000BDF80000A04201DA2F4600E0A946701E34
:1048400086B2002EE0D100BF16B1BDF8020000E034
:10485000002080464046BDE8F88F000040C100209F
:104860002DE9F84F04468B464FF0000A802C02D207
:104870001FFA84F830E01A48D0F805004FEA5009D2
:104880000120C0EB9909002710261CE0A9EB0700C6
:1048900007EB50051248D0F8010000EB850000EB53
:1048A0000A010422684605F063FDBDF80000A0423D
:1048B00000D10AE0BDF80000A04201D22F4600E07E
:1048C000A946701E86B2002EE0D100BF16B1BDF819
:1048D000020000E0002080464046BDE8F88F00005E
:1048E00040C1002070B5B0F5803F4DD281B2B1F526
:1048F000805F01DA254E00E0254E324600BF32F8D7
:10490000023B0BB1994200DA3CE032F8024B25122F
:10491000E4B21E198E4230DD092D2CD2DFE805F0FD
:1049200005090F13171B1F232700CE1A32F8161084
:1049300021E0CE1A06F001068E1BB1B21BE0A1F1F8
:104940001006B1B217E0A1F12006B1B213E0A1F157
:104950003006B1B20FE0A1F11A06B1B20BE001F1DD
:104960000806B1B207E0A1F15006B1B203E0A1F52B
:10497000E356B1B200BF00BF04E0002DBFD102EB8F
:104980004402BCE700BF084670BD000020110108CA
:10499000121301082DE9F0410446E079032812D1F1
:1049A000A568A7690BE06A1C2946206805F09EFEF1
:1049B000064616B13046BDE8F0816D1C7F1E002F03
:1049C000F1D10020E0710020F5E72DE9F041044627
:1049D0000D46174616E0E369012B03D9E369EB1A8C
:1049E0009B1C00E03B461A46E369EB1A591C206801
:1049F00005F07CFE064616B13046BDE8F081E06960
:104A0000401EE061E0690028E5D100BFF5E72DE92F
:104A1000F74F05460E46B61EE869801EB04200D824
:104A200000263446A2464FF0000B00BF686B00EB37
:104A30001431284605F026FB18B14FF0FF30BDE8D1
:104A4000FE8FC4F3C80904F0070101208840C7B2F3
:104A500000BF00BF05F13C0010F8090000EA07089C
:104A60007806070E601C0446E969891E884203D354
:104A7000002400274FF40079B8F1000F08D10BF1A2
:104A8000010083460299884205D10AF10200D6E767
:104A9000A2464FF0000BB44201D10020CFE7002F17
:104AA000D8D1012709F101008146B0F5007FD0D3AC
:104AB000BCE72DE9FF4107460D4600213846FCF7CB
:104AC0002FF90646022E06D0032E00D21DB930461D
:104AD00004B0BDE8F08100BF00240AE007F5FD71D5
:104AE00001EB041101F1080004F003F94DF8240072
:104AF000641C042CF2D30DB1681E00E000200446B3
:104B000000BF5DF8240028B15DF824103846FCF79A
:104B100007F900E0032006462DB9022E03D3601CDE
:104B200004460428EDD33046D2E72DE9F34104468C
:104B3000276802E00198401C0190019800782F2816
:104B4000F8D0019800785C28F4D00020A060E061E3
:104B500001980078202808D280214B20015500219F
:104B60002046FDF727F905463EE000BF01A9204693
:104B7000FCF7C8FA054605B135E02046FCF707FE0C
:104B800005464B20065D3DB1042D04D100BF06F063
:104B9000040000B9052526E006F0040000B122E07B
:104BA000A07900F0100008B905251CE03878042829
:104BB0000ED1A0682062206920F0FF00E17908434F
:104BC0006062E06CA0622146384600F0D3FC09E048
:104BD000208EC0F3080207F13C001118384604F09B
:104BE00075F8A060C2E700BF2846BDE8FC81000060
:104BF00010B500240FE0601CC4B221224FF4400124
:104C00000A4805F0B5FB09480078AA2800D104E05D
:104C10001420FCF7EFFC0A2CEDDB00BF0348007802
:104C2000AA2801D0012010BD0020FCE740C10020CF
:104C30002DE9FE4F06468A4614461F46DDF83480AD
:104C4000FF25384609F08CF983460C9809F088F95D
:104C50005946029009F06EF881461749484609F016
:104C600093F98146284609F07BF98346494609F0C5
:104C700023F91FD011A004EB440B0BEBDB7106EB07
:104C80006101CDE90108009488B24FF4A073F022CD
:104C9000514603F091FF484609F042F9C5B2642D30
:104CA00000DD642503232A4651463046CDE90048FD
:104CB00003F036FFBDE8FE8F0000C842250000006B
:104CC0002DE9FF4F85B083461546129F4FF0000A2D
:104CD000002003904FF0FF0AFF2071490870642103
:104CE000002005F0C7FA80464FF48051002005F0FF
:104CF000C1FA81464FF41671002005F0BBFA04900A
:104D0000B9F1000F04D0B8F1000F01D0049878B9C0
:104D10000020049905F09CFA4146002005F098FA1D
:104D20004946002005F094FA052009B0BDE8F08F4F
:104D3000002419E040460899FBF734FD594850F823
:104D400024104046FBF752FD012241460498FEF72D
:104D500051FD8246BAF1000F04D0039840F0800064
:104D6000039003E0601C84B2042CE3DB00BF00204E
:104D7000049905F06DFA0398002878D14AA04FF401
:104D8000A073F022CDE9010700955846069903F07B
:104D900013FF00242EE005EB85018900CDE90047D3
:104DA000029101EBD1710BEB610188B240F2173334
:104DB0002A460699FFF73CFF04F5406001034FF4D3
:104DC0008052484605F0D4FA002606E059F826003D
:104DD000401C00B104E0701C86B2B6F5806FF5DBB4
:104DE00000BFB6F5806F03D004F5406005F056FAB9
:104DF000601C84B240F217308442CCDB002439E0DE
:104E00002E4850F824004FF4A073F022CDE901079A
:104E100000955846069903F0CFFE40460899FBF7E7
:104E2000C1FC204850F824104046FBF7DFFCE0B2FC
:104E300005EB85018900CDE90171009001EBD1718D
:104E40000BEB610188B243462A46069900F038F818
:104E50008246BAF1000F0BD04946002005F0F8F960
:104E60004146002005F0F4F9601CC0B25DE70CE09B
:104E7000601C84B2042CC3DBAA20094908702122DB
:104E80004FF44001064805F009FB4146002005F0BB
:104E9000DFF94946002005F0DBF9039845E70000FB
:104EA00040C10020D013010845726173696E67200C
:104EB000736563746F72732E2E2E2000E013010849
:104EC0002DE9FF4F85B081469846DDE912AB002001
:104ED0000490002702904FF4167105F0CBF90446B8
:104EE0000CB9012002904FF48051002005F0C2F966
:104EF00006460EB901200290012241462046FEF7E7
:104F000079FC05460DB1022002900298002879D163
:104F1000BAF1000F09D0BAF1010F12D0BAF1020FA5
:104F200021D0BAF1030F42D12FE03C483C49C1F8EF
:104F300001002069C1F805000846D0F8010004907E
:104F400035E03748D0F801003549D1F8051008445C
:104F50003349C1F809002069C1F80D000846D0F8AE
:104F60000900049023E02E48D0F809002C49D1F81C
:104F70000D1008442A49C1F811002069C1F8150034
:104F80000846D0F81100049011E02548D0F811002F
:104F90002349D1F8151008442149C1F819002069A6
:104FA000C1F81D000846D0F81900049000BF00BFEA
:104FB00022E003AB4FF4805231462046FEF726FE36
:104FC000054605B11AE004983918BDF80C203046A2
:104FD00005F064FABDF80C000744CDE9007B2369B5
:104FE0004846DDE90612FFF723FEBDF80C00B0F5D8
:104FF000805F01D002E005E0002DDAD000BF20463E
:10500000FDF740F82146002005F022F93146002046
:1050100005F01EF9284609B0BDE8F08F2100C00058
:1050200040C1002000BF054A126802F04002002A79
:10503000F9D0C2B2014B1B1D1A6070470038014005
:105040002DE9FF4F83B0074691461E46049801683C
:1050500039604168796001893981807AB872052E9A
:1050600019D9B04612E039F802BB00240CE05846CA
:1050700068F35F0080464FEA6B0B08F4803010B194
:10508000234888EA0008641C102CF0D3B9F800000B
:105090000028E8D14646072400BF06F00F0000F1C3
:1050A000300A3609BAF1390F03DD0AF1070000F0C2
:1050B000FF0A2046641E01A901F800A00CB1002ED1
:1050C000EBD17E2001A90855002509E0785DFCF7A9
:1050D0003DFA20B1601EA84200D106E06D1C6D1C97
:1050E000A54202D2785D2028F0D100BF00BF082C75
:1050F00004D22046641C01A9085C00E02020294657
:105100006D1C7854082DF2D307B0BDE8F08F000075
:10511000211001002DE9FC5F06460C463568022C83
:1051200002D3E869A04202D84FF00109B9E04FF07C
:10513000FF392878012806D0022830D0032841D032
:1051400004287CD152E0274607EB5707A86A00EBFA
:105150005721284604F096FF00B1A1E038467F1C95
:10516000C0F3080105F13C0010F80180A86A00EBCB
:105170005721284604F086FF00B191E0C7F30801EB
:1051800005F13C00405C48EA002804F0010010B141
:105190004FEA181001E0C8F30B00814680E0A86ACE
:1051A00000EB1421284604F06DFF00B178E040F2D6
:1051B000FF1101EA440205F13C01501803F0D6FD4D
:1051C00081466DE0A86A00EBD411284604F05AFF2E
:1051D00000B165E040F2FF1101EA840205F13C01F3
:1051E000501803F086FD20F0704959E00023D6E9FD
:1051F000041059405840014301D0B06808B9F07913
:1052000090BBB068A4EB000AD6E904305A1E60F1E6
:105210000000CDE900204FF400720023DDE9000119
:10522000FBF729F86989B0FBF1FBF07902280AD174
:10523000DA4508D8DA4503D16FF0004001E02CE0F0
:10524000601C81462CE0F079032805D1B0695045F7
:1052500002D904F1010923E0F079022819D0F0699C
:1052600018B16FF0004913E014E0A86A00EBD41104
:10527000284604F007FF00B112E040F2FF1101EAF6
:10528000840205F13C01501803F033FD20F0004981
:1052900006E000BF4FF0010902E04FF0010900BF36
:1052A00000BF4846BDE8FC9F002070472DE9FC5F29
:1052B00080460C46D8F800900020A076D8F8380038
:1052C00008B9BDE8FC9F99F80000042874D10020BB
:1052D000009040270025824630E0B7F5187F01D3C3
:1052E000002532E007F01F0000B9BF1CD9F81010EC
:1052F000C81903F03BFD0646BF1C0098401C0090F7
:10530000BAF1000F07D1B6F5584F04DBB6F5604F80
:1053100001DAB24612E0C5F1FF0204F11A0359198D
:1053200046EA0A4005F0C4FA8346BBF1000F01D1FA
:1053300000250AE05D444FF0000A00BFD9F81000D4
:1053400090F8231000988142C7D800BFBAF1000F2F
:1053500000D000252DB93F2228466D1C04F11A010A
:105360000A54002104F11A00415500206073D9F855
:105370001000007900F037002073207B00F010004F
:1053800010B10020014605E0D9F8101001F13800F5
:1053900003F0BBFCC4E90001D9F8101001F10C00C6
:1053A00003F0E4FC6081D9F8101001F10E0003F065
:1053B000DDFC208185E7FFE7D8F84C00401CB0B346
:1053C00000252F46AA4623E038467F1CD9F80C203A
:1053D00032F81060BAF1000F07D1B6F5584F04DB70
:1053E000B6F5604F01DAB24612E0C5F1FF0204F1F2
:1053F0001A03591946EA0A4005F05AFA8346BBF1E6
:10540000000F01D1002509E05D444FF0000A00BF04
:10541000D9F80C0030F817000028D5D100BFBAF138
:10542000000F00D00025002104F11A004155002092
:10543000054607461AE038467F1CD8F83C20165C23
:10544000202E00D112E0052E00D1E526092F07D12C
:105450000C2D05D22E2228466D1C04F10D010A5494
:1054600028466D1C04F10D010E5400BF0B2FE2D332
:10547000002104F10D004155A07EA8BB35B93F22A3
:1054800028466D1C04F11A010A5423E00020054649
:1054900007460820019018E004F10D00C65D2E2E8D
:1054A00001D110200190412E0ADB5A2E08DCD8F8D9
:1054B0003C00007B0199084010B106F1200086B243
:1054C00004F11A0046557F1C6D1C04F10D00C05DEF
:1054D0000028E1D1002104F11A004155D8F83C0020
:1054E000007B08B900206073D8F83C00C07A00F057
:1054F0003F002073D8F83C1001F11C0003F0F9FBC9
:105500000021C4E90001D8F83C1001F1160003F0B5
:105510002DFC6081D8F83C1001F1180003F026FC46
:10552000208100BFCDE670B504464FF0FF302668FD
:105530003146324601B970BD00BF12F8013B202B45
:1055400001D33A2BF9D13A2B11D102250E78302E06
:1055500008DB0E78392E05DC8E1C964202D10E78BF
:10556000A6F13005022D01DA28462260E3E700208B
:1055700000BFE0E770B505460C46296901F134002B
:1055800003F0B7FBA060296901F1380003F0BDFB0F
:10559000C4E90401286990F8210000F00200E071DC
:1055A0000020E06170BD00001CB500BF204880698C
:1055B00040F040001E49886100BF00BF0846806976
:1055C00040F04000886100BF00BF0846806940F09D
:1055D0004000886100BF00BF0846806940F00400B9
:1055E000886100BF0120009000231A46102101901D
:1055F000104806F035FE0120009000231A460821CD
:1056000001900C4806F02CFE0120009000231A4661
:1056100004210190074806F023FE02200121002307
:105620001A46CDE90010044806F01AFE1CBD000021
:1056300000100240001801400008014070B5044607
:10564000002514B101202B4908702A480078002851
:1056500034D01021284806F0EFFD78B10821264803
:1056600006F0EAFD50B10421234806F0E5FD28B11B
:105670000121224806F0E0FD01281FD10A20FBF796
:10568000B9FF00201B49087010211B4806F0D4FD0B
:1056900000B901250821184806F0CEFD00B9022501
:1056A0000421154806F0C8FD00B90325012113485F
:1056B00006F0C2FD01281BD1042519E010210E4877
:1056C00006F0BAFD012813D108210B4806F0B4FDFD
:1056D00001280DD10421084806F0AEFD012807D1AC
:1056E0000121064806F0A8FD10B901200149087003
:1056F000284670BD14000020001801400008014039
:1057000070B50446002609480588408845430021B5
:10571000084603F0D5F803F0C7FA00BF02E00448DA
:105720000480761CAE42FAD370BD0000FC0200205B
:105730000008006C10B5044658488471002C58D1FC
:10574000F020564908804FF4A070488008468088B1
:1057500045F21051884210D14FF430504F49088122
:105760004FF4285048814FF42C5088814FF4F0704A
:1057700008804FF4487048801AE04848808841F615
:10578000631188420DD12C20444908812B20488187
:105790002A2088814FF4F07008804FF448704880C8
:1057A00006E02C203D4908812A2048812B20888151
:1057B0003A48808845F21031884205D037488088C1
:1057C00047F29671884206D14FF4A07033490880A1
:1057D0004FF4F07048803148808849F606018842CD
:1057E00058D14FF4F0702D4908804FF4487048802C
:1057F00050E04FF4A07029490880F0204880084606
:10580000808845F21051884210D14FF4305023491E
:1058100008814FF4285048814FF42C5088814FF470
:10582000487008804FF4F070488020E01B48808862
:1058300041F66311884205D01848808849F6060170
:1058400088420DD12C20154908812A2048812B201F
:1058500088814FF4487008804FF4F070488006E06B
:105860002C200E4908812A2048812B2088810B4852
:10587000808845F21031884205D00848808847F278
:105880009671884206D14FF4F070044908804FF4B5
:10589000A0704880002002F0F5FE10BDFC02002040
:1058A00070B505460E4614463146284603F008F802
:1058B00003F0FAF901490C8070BD00000008006C8B
:1058C00010B5CF2003F0E4F9002003F0D5F9C12092
:1058D00003F0D2F9302003F0CFF9ED2003F0D8F92E
:1058E000642003F0C9F9032003F0C6F9122003F085
:1058F000C3F9812003F0C0F9E82003F0C9F985203D
:1059000003F0BAF9102003F0B7F97A2003F0B4F9E4
:10591000CB2003F0BDF9392003F0AEF92C2003F0C1
:10592000ABF9002003F0A8F9342003F0A5F9022018
:1059300003F0A2F9F72003F0ABF9202003F09CF963
:10594000EA2003F0A5F9002003F096F9002003F007
:1059500093F9C02003F09CF91B2003F08DF9C120BE
:1059600003F096F9012003F087F9C52003F090F9C0
:10597000302003F081F9302003F07EF9C72003F0D6
:1059800087F9B72003F078F9362003F081F9482031
:1059900003F072F93A2003F07BF9552003F06CF91B
:1059A000B12003F075F9002003F066F91A2003F026
:1059B00063F9B62003F06CF90A2003F05DF9A22028
:1059C00003F05AF9F22003F063F9002003F054F9D0
:1059D000262003F05DF9012003F04EF9E02003F0EA
:1059E00057F90F2003F048F92A2003F045F9282041
:1059F00003F042F9082003F03FF90E2003F03CF9D0
:105A0000082003F039F9542003F036F9A92003F0F7
:105A100033F9432003F030F90A2003F02DF90F2069
:105A200003F02AF9002003F027F9002003F024F9FD
:105A3000002003F021F9002003F01EF9E12003F01B
:105A400027F9002003F018F9152003F015F91720A5
:105A500003F012F9072003F00FF9112003F00CF9FD
:105A6000062003F009F92B2003F006F9562003F075
:105A700003F93C2003F000F9052003F0FDF81020A5
:105A800003F0FAF80F2003F0F7F83F2003F0F4F8E2
:105A90003F2003F0F1F80F2003F0EEF82B2003F085
:105AA000F7F8002003F0E8F8002003F0E5F8012003
:105AB00003F0E2F83F2003F0DFF82A2003F0E8F8D3
:105AC000002003F0D9F8002003F0D6F8002003F0FE
:105AD000D3F8EF2003F0D0F8112003F0D9F87820A4
