:020000040800F2
:1000000038070020CD010008D1010008D301000805
:10001000D5010008D7010008D90100080000000040
:10002000000000000000000000000000DB010008EC
:10003000DD01000800000000DF010008E101000808
:10004000E3010008E3010008E3010008E301000800
:10005000E3010008E3010008E3010008E3010008F0
:10006000E3010008E3010008E3010008E3010008E0
:10007000E3010008E3010008E3010008E3010008D0
:10008000E3010008E3010008E3010008E3010008C0
:10009000E3010008E3010008E3010008E3010008B0
:1000A000E3010008E3010008E3010008E3010008A0
:1000B000E3010008E3010008E3010008E301000890
:1000C000E3010008E3010008E3010008E301000880
:1000D000E301000811030008E3010008E301000840
:1000E000E3010008E3010008E3010008E301000860
:1000F000E3010008E3010008E3010008E301000850
:10010000E3010008E3010008E3010008E30100083F
:10011000E3010008E3010008E3010008E30100082F
:10012000E3010008E3010008E3010008E30100081F
:1001300000F002F800F03AF80AA090E8000C8244BF
:100140008344AAF10107DA4501D100F02FF8AFF29C
:10015000090EBAE80F0013F0010F18BFFB1A43F0A5
:10016000010318471C0700003C070000103A24BF99
:1001700078C878C1FAD8520724BF30C830C144BF0C
:1001800004680C607047000000230024002500264E
:10019000103A28BF78C1FBD8520728BF30C148BFEA
:1001A0000B6070471FB51FBD10B510BD00F06AF899
:1001B0001146FFF7F7FF00F04DF900F09CF803B48B
:1001C000FFF7F2FF03BC00F0D3F800000848004737
:1001D000FEE7FEE7FEE7FEE7FEE7FEE7FEE7FEE7F7
:1001E000FEE7FEE703480449044A054B7047000058
:1001F00031010008380100203807002038030020B2
:1002000038030020704700000FB4044910B503AA5A
:10021000029800F009F810BC5DF814FB0C000020F7
:100220007047704770477047074B70B50D467B4469
:1002300000F011F80446284600F020F810B14FF005
:10024000FF3070BD204670BDAB01000001694A1C43
:1002500002610878704700B58FB0CDE90131002107
:10026000059105497944CDE903101146684600F02F
:100270002EF80FB000BD0000E5FFFFFF007B00F08F
:1002800080007047754600F03FF8AE4605006946AD
:10029000534620F00700854618B020B5FFF7A2FFAF
:1002A000BDE820404FF000064FF000074FF0000877
:1002B0004FF0000B21F00701AC46ACE8C009ACE8F8
:1002C000C009ACE8C009ACE8C0098D4670472DE90B
:1002D000F04106460024D6E90170F56880463046B4
:1002E00003E04146B847641C3046A8470028F8D1CF
:1002F0002046BDE8F08110B50446AFF300802046EB
:10030000BDE81040FFF75BBF00487047D8000020F1
:1003100030B51448006880060ED51248001D0068EC
:10032000C1B2114A1088030406D444044FF00003FC
:1003300007D50A2901D0138030BD40F40040108059
:1003400030BD0D290AD0094DC0F30D042955401CBC
:1003500080B21080C728F3D9138030BD40F48040AC
:10036000108030BD0038014008000020100000203F
:10037000704700004FF0E0210A6942F004020A6170
:10038000044A1060086940F0010008616FF0704095
:1003900048617047040000204FF47A71484300F030
:1003A00001B8000070B500214FF0E0256C690A4AE1
:1003B00012685043AB69AA699A42FCD003D2A3EBFE
:1003C0000203194403E0A4EB020633441944134624
:1003D0008142F0D370BD00000400002004490A6887
:1003E0005206FCD5024AC1B2121D116070470000CE
:1003F000003801407CB51448816941F008018161F1
:10040000816941F0400181610124104D0094002375
:10041000224620212846019400F013F9009401940B
:100420000B4C002301222021204600F00AF9012272
:100430002021284600F0FAF802B02046BDE87040BE
:100440000122202100F0F2B800100240000C01400F
:10045000001801400024092000F090F94820FFF71F
:1004600089FF4FF4E131482000F0B8F9FFF7C2FFEF
:10047000284F294E3088010424D5C5B227A0FFF7A4
:10048000C3FE387860B100223A702021284800F07D
:10049000CDF80020DFF8A0C0264BACF1040109E044
:1004A0000122F1E71A5CCCF800200A685206FCD55C
:1004B000401CC0B2A842F5D320A0FFF7A5FE002043
:1004C0003080D7E7641CA4B241F28830B4FBF0F16D
:1004D00000FB114028B91BA0FFF796FE23A0FFF7F1
:1004E00093FEC820B4FBF0F100FB114010B925A029
:1004F000FFF78AFE1E20B4FBF0F100FB114020B98B
:100500002748016881F0200101600A20FFF744FFBD
:10051000B0E7000000000020080000200D0ABDD355
:10052000CAD5B5BDB5C4CAFDBEDDCEAA3A0D0A0016
:100530000018014010000020043801400D0A0D0A87
:10054000000000000D0ABBB6D3ADBDF8C8EB2053C8
:10055000544D3332B4AEBFDAD2C6D6B2CAB5D1E941
:1005600020B2E2CAD4B3CCD05C0D0A00B0E6C8A871
:10057000CBF9D3D040414C49454E54454B0D0A0D63
:100580000A0D0A00C7EBCAE4C8EBCAFDBEDD2CB4F5
:10059000AEBFDACAD5B7A2D6D02E2E2E0D0A0000D5
:1005A0000C0C014070B50546002100201D4A13685F
:1005B00043F4803313604FF6F0734FF4004606E0C7
:1005C00000BF1468A40301D5B14202D8491C994266
:1005D000F6D3994201D3012070BD4FF48061516080
:1005E000AD1E516841EA85415160516841F4803146
:1005F00051600D4910230B600B6843F002030B6040
:10060000116841F0807111601168490EFCD0516889
:1006100041F0020151605168C1F381010229FAD110
:1006200070BD00000010024000200240D20703D03D
:1006300002690A4302617047026942EA01410161AD
:1006400070472DE9F04FDDE9098700244FF00109DB
:100650004FF00F0C09FA04F601EA0605B54247D13E
:100660000025012A03D0022A01D052B119E008F076
:10067000030503F0010645EA8605561E45EAC60550
:100680000FE00FB30825D0F80CA02AEA060AC0F83C
:100690000CA0C66807F0010A0AFA04FA46EA0A063C
:1006A000C660072C12D8D0F800A0A6000CFA06FBF2
:1006B0002AEA0B0AC0F800A0D0F800A0B5404AEA28
:1006C000050AC0F800A013E00425EAE7D0F804A06A
:1006D000A4F10806B6000CFA06FB2AEA0B0AC0F8D9
:1006E00004A0D0F804A0B5404AEA050AC0F804A066
:1006F000641C102CAED3BDE8F08F2DE9F041054607
:100700000F4614461E46304600F01EF8C6F104009F
:1007100085400F22F2403A402A436009800000F1F0
:10072000E020D0F8001104F01F050123AB4019436D
:10073000C0F8001104F1E02494F8000440EA02102B
:1007400084F80004BDE8F081072181430902054ACD
:1007500010684FF6FF031840034B1843084310601E
:10076000704700000CED00E00000FA056FF308018F
:10077000014301480160704708ED00E000B51449ED
:1007800000220A61CA6014234B618A61CA610A6847
:1007900042F001020A604A680E4B1A404A600A6839
:1007A0000D4B1A400A600A6822F480220A604A68E7
:1007B00022F4FE024A604FF41F028A60FFF7F2FE45
:1007C00000214FF000605DF804EBFFF7CFBF0000A1
:1007D000001002400000FFF8FFFFF6FE2DE9FC418B
:1007E00005460C46224A906940F0040090619069E9
:1007F00040F004009061906940F4804090610126CF
:100800000327DFF87080CDE9007602220023110271
:100810004046FFF716FFCDE9007600231A46B102E5
:100820004046FFF70EFF1448454305EB5400B0FB6C
:10083000F4F01249086000200C1D20602068206040
:10084000206840F008002060206840F0040020602C
:10085000206840F020002060032102232522084662
:10086000FFF74BFF206840F400502060BDE8FC819A
:10087000001002400008014040420F0008380140CB
:10088000A008000800000020100000006C01000813
:10089000B0080008100000202807000088010008A8
:1008A0000000000000000000000000000000000048
:0400000508000131BD
:00000001FF
