:020000040800F2
:1000000040C700202D02000831020008330200081A
:10001000350200083702000839020008000000001D
:100020000000000000000000000000003B0200088B
:100030003D020008000000003F02000841020008E5
:10004000430200084302000843020008430200087C
:10005000430200084302000843020008430200086C
:10006000430200084302000843020008430200085C
:10007000430200084302000843020008430200084C
:10008000430200084302000843020008430200083C
:10009000430200084302000843020008430200082C
:1000A000430200084302000843020008430200081C
:1000B0004302000843020008310B00084302000815
:1000C00043020008430200084302000843020008FC
:1000D000430200086D0B00084302000843020008B9
:1000E00043020008430200084302000843020008DC
:1000F00043020008430200084302000843020008CC
:1001000043020008430200084302000843020008BB
:1001100043020008430200084302000843020008AB
:10012000430200084302000843020008430200089B
:1001300000F002F800F06BF80AA090E8000C82448E
:100140008344AAF10107DA4501D100F060F8AFF26B
:10015000090EBAE80F0013F0010F18BFFB1A43F0A5
:100160000103184708220100282201000A444FF029
:10017000000C10F8013B13F0070408BF10F8014B06
:100180001D1108BF10F8015B641E05D010F8016B4B
:10019000641E01F8016BF9D113F0080F1EBF10F8AF
:1001A000014BAD1C0C1B09D16D1E58BF01F801CBD2
:1001B000FAD505E014F8016B01F8016B6D1EF9D555
:1001C0009142D6D37047000000230024002500266A
:1001D000103A28BF78C1FBD8520728BF30C148BFAA
:1001E0000B607047642900F03581752900F0328179
:1001F000782900F06B81632900F02D84732900F0C9
:100200003284002070471FB51FBD10B510BD00F02F
:100210005DFC1146FFF7F7FF08F076FD00F07BFC70
:1002200003B4FFF7F2FF03BC00F0E9FC0848004705
:10023000FEE7FEE7FEE7FEE7FEE7FEE7FEE7FEE796
:10024000FEE7FEE703480449044A054B70470000F7
:100250003101000840C1002040C7002040C30020F9
:1002600040C30020704753EA020C00F069802DE97A
:10027000F04B4FF00006002B1FBFB3FA83F503FAD3
:1002800005F424FA05F65E4012BF1643B2FA82F571
:1002900002FA05F4C5F120051EBF22FA05FC44EA66
:1002A0000C04203556EA044C4FEA144418BF641C71
:1002B0004FF000084FF00009904271EB030C39D366
:1002C000002919BFB1FA81F701FA07F6B0FA80F7F1
:1002D00000FA07F6C7F120071EBF20FA07FC46EA1E
:1002E0000C062037B6FBF4FCA7EB0507103F07F020
:1002F0001F0BCBF120060CFA0BFB2CFA06F644BFC1
:10030000B3460026202FA4BF5E464FF0000B5BEAE9
:10031000060C08BF4FF0010B19EB0B09ABFB027C7D
:1003200048EB0608C01B06FB02CC0BFB03CC71EBB1
:100330000C01C1E70B46024641464846BDE8F08B3A
:1003400013B54FF000004FF00001AFF30080BDE89F
:100350001C40704710B54C1084EA530404D5404249
:10036000C1F1000138BF491E1B4204D55242C3F1FE
:10037000000338BF5B1EFFF776FF14F0804F04D0F8
:100380004042C1F1000138BF491E14F0004F04D0B3
:100390005242C3F1000338BF5B1E10BD0FB40449C5
:1003A00010B503AA029800F063FB10BC5DF814FBC3
:1003B0000400002070B5044685690068C10601D5B7
:1003C000302600E02026C00707D070BDD4E9012107
:1003D00030469047206A401C20626D1EF6D570BDE5
:1003E00070B5044685690078C00707D170BDD4E9AF
:1003F000012120209047206A401C20626D1EF6D506
:1004000070BD70B50C460546012A05D028788006D7
:1004100000D5EA69002302E0012305E05B1C93425A
:1004200002D2E05C0028F9D1A869E618C01AA861D8
:10043000286A184428622846FFF7BCFF04E0D5E983
:10044000012114F8010B9047B442F8D32846FFF776
:10045000C7FF70BD2DE9F0410646002410687529DC
:10046000314616A510D0AFF30080002802DA4042D2
:1004700013A507E031688A0701D512A502E04907F4
:1004800004D511A5012401E0AFF3008000210A2268
:1004900006F1240709E0B0FBF2FCB0FBF2F302FB2B
:1004A0001C00303078541846491C0028F3D12346EC
:1004B0002A463046BDE8F04100F06ABA000000006C
:1004C0002D0000002B0000002000000070B5044645
:1004D0000D4621461068AFF300802188090502D53A
:1004E0000F4A7A4402E00E4A7A440E32002104F1A7
:1004F000240305E000F00F060009965D5E54491CD8
:100500000028F7D120780023000704D5702D02D0F1
:1005100009B1022311322046BDE8704000F038BA1C
:10052000681C01002DE9F05F894604464FF0000A7F
:10053000DFF874B1FB44C0F820A02046E16888478A
:10054000002874D0252806D0D4E901219047206ADC
:10055000401C2062F1E700265F462046E16888479C
:100560002028054607DB312D05D2781910F8200C1C
:1005700008B10643F1E7B00701D526F00406C4F838
:100580001CA00027C4F818A02A2D09D0284600F086
:100590002FFB38B304EB8708303DC8F8185019E03A
:1005A00059F8041B204604EB87029161E1688847F3
:1005B000012F054618D1E069002820DA26F0200630
:1005C0001DE0D8F8180000EB800005EB4000303843
:1005D000C8F818002046E1688847054600F008FB87
:1005E0000028EED1012F0AD02E2D08D12046E16837
:1005F00088477F1C0546022F46F02006C4DBA06911
:10060000002803DA404246F00106A061F00701D05D
:1006100026F010066C2D0BD0682D09D04C2D39D04A
:100620006A2D35D0742D35D07A2D33D016E038E0D0
:10063000E1682F4620468847B842054609D16C2F0D
:1006400026D04FF48060E16806432046884705467F
:1006500004E06C2F1AD04FF4807006430DB3A5F15F
:100660004100192802D8203546F400664A4629463A
:10067000204626604E46FFF7B5FD80B101280BD01D
:10068000F61D26F0070000F1080956E74020E4E7D0
:100690008020D8E70020D6E706F104094DE7284678
:1006A00052E7206ABDE8F09F3E1C0100401ECAB21E
:1006B00010F8011F8A4202D00029F9D100207047AA
:1006C00040EA010310B59B070FD1042A0DD310C8CF
:1006D00008C9121F9C42F8D020BA19BA884201D921
:1006E000012010BD4FF0FF3010BD1AB1D30703D069
:1006F000521C07E0002010BD10F8013B11F8014B1F
:100700001B1B07D110F8013B11F8014B1B1B01D13A
:10071000921EF1D1184610BD40EA0103024630B5E1
:100720009B0710D14FF0013400E008C208C91D1B1F
:100730009D4315EAC41FF8D013F0FF0102F8011B16
:100740000DD01B0AF8E711F8013B002B02F8013B22
:1007500005D011F8013B002B02F8013BF3D130BD6D
:10076000421E12F8013F002BFBD111F8013B002B78
:1007700002F8013BF9D17047032A40F2308010F0B3
:10078000030C00F0158011F8013BBCF1020F62442C
:1007900098BF11F801CB00F8013B38BF11F8013BBD
:1007A000A2F1040298BF00F801CB38BF00F8013B6A
:1007B00011F0030300F02580083AC0F0088051F8DA
:1007C000043B083A51F804CBA0E80810F5E7121DE5
:1007D0005CBF51F8043B40F8043BAFF30080D20704
:1007E00024BF11F8013B11F801CB48BF11F8012BD0
:1007F00024BF00F8013B00F801CB48BF00F8012BF3
:10080000704710B5203AC0F00B80B1E81850203A7C
:10081000A0E81850B1E81850A0E81850BFF4F5AFA0
:100820005FEA027C24BFB1E81850A0E8185044BF2A
:1008300018C918C0BDE810405FEA827C24BF51F897
:10084000043B40F8043B08BF7047D20728BF31F88B
:10085000023B48BF11F8012B28BF20F8023B48BFDC
:1008600000F8012B704702F0FF0343EA032242EA3B
:10087000024200F002B84FF000020429C0F01280DA
:1008800010F0030C00F01B80CCF1040CBCF1020F43
:1008900018BF00F8012BA8BF20F8022BA1EB0C0118
:1008A00000F00DB85FEAC17C24BF00F8012B00F80E
:1008B000012B48BF00F8012B70474FF0000200B534
:1008C000134694469646203922BFA0E80C50A0E873
:1008D0000C50B1F12001BFF4F7AF090728BFA0E821
:1008E0000C5048BF0CC05DF804EB890028BF40F8ED
:1008F000042B08BF704748BF20F8022B11F0804F2F
:1009000018BF00F8012B70474FF0013C50F8042B42
:1009100051F8043B9A4221D1A2EB0C03934313EA12
:10092000CC1317D150F8042B51F8043B9A4215D13F
:10093000A2EB0C03934313EACC130BD150F8042B16
:1009400051F8043B9A4209D1A2EB0C03934313EAFA
:10095000CC13DBD04FF00000704700BFD01A01BAB3
:10096000B1FA81F101F0180122FA01F0CB40C1F196
:100970002001DBB2C0B2C01A2CFA01F3D11A9143A4
:1009800011EAC311E6D1704770477047704770474E
:100990002DE9F0470D4699469246044600F1240899
:1009A0000168880604D5E06921F01001216000E0AB
:1009B0000120A84201DD471B00E00027A1697A1948
:1009C00002EB0900081AA0612078C00602D4204674
:1009D000FFF7F0FC002608E0D4E901211AF8060030
:1009E0009047206A401C761C20624E45F4DB20783C
:1009F000C0060AD52046FFF7DDFC06E0D4E9012158
:100A000030209047206A401C2062381EA7F1010761
:100A1000F4DC07E0D4E9012118F805009047206ACA
:100A2000401C2062281EA5F10105F3DC2046FFF7DB
:100A3000D7FC2078000602D50220BDE8F08701200F
:100A4000FBE710B5436913B1AFF3008001E0FFF796
:100A5000D8FC012010BD127800F124010A70002298
:100A60004A700122EDE711684FF0FF32E9E700001C
:100A7000074B70B50D467B4400F011F8044628463C
:100A800000F020F810B14FF0FF3070BD204670BD6F
:100A9000032C000001694A1C02610878704700B508
:100AA0008FB0CDE901310021059105497944CDE9A7
:100AB000031011466846FFF735FD0FB000BD00007A
:100AC000E5FFFFFF007B00F080007047754600F0F7
:100AD0002BF8AE4605006946534620F007008546D0
:100AE00018B020B5FFF7AEFBBDE820404FF0000680
:100AF0004FF000074FF000084FF0000B21F0070106
:100B0000AC46ACE8C009ACE8C009ACE8C009ACE848
:100B1000C0098D46704710B50446AFF300802046EB
:100B2000BDE81040FFF77CBB00487047E0C00020E4
:100B300010B50C48006800F0010058B10A49086976
:100B4000804700200749143108604FF47A70054946
:100B50001C3108600348006820F00100014908606A
:100B600010BD000010080040A80000201D490968C1
:100B700001F0200111B31B49091D0968C8B21A49C7
:100B8000098801F40041C9B91749098801F4804175
:100B900061B10A2803D00021134A118020E01249D4
:100BA000098841F40041104A118019E00D2806D14E
:100BB0000D49098841F480410B4A118010E00A492F
:100BC0000988C1F30D01094A505407490988491C95
:100BD000054A118011460988C72901DD00211180CD
:100BE0007047000000380140080000209C010020F0
:100BF00030380A2801D2012070470020704700BF1A
:100C0000704702460020CB1C23F00301D2F8883045
:100C10008B4207D3843253685B1A536010684318C1
:100C200042F8843970472DE9F05F04460E46276884
:100C3000D4F804804FF0000B207BC11700EBD1618A
:100C40004911A0EB41150120A840401E216E01EA88
:100C5000000A2FE094F8640010B14FF0FF0925E07E
:100C600077B9D4F808804FF4806241462046D4F822
:100C70008C30984707461FB96FF00100BDE8F09F20
:100C800018F8019B7F1EBBF1000F09D04FF0000B3D
:100C9000B9F1000F01D084F864904FF0FF0905E02E
:100CA000B9F1FF0F02D14FF0010B03E049EA0A2A24
:100CB000083500BFB542CDD3C4F860A0A81B20738F
:100CC0002760C4F80480A81B00F01F012AFA01F075
:100CD000D4E72DE9F04F87B00C464FF4B55BCDF863
:100CE00018B041F2511BCDF814B042F6CF1BCDF82D
:100CF00010B041F6905BCDF80CB04FF0000BCDF882
:100D000000B080E0D0F800C0D0F84080D0F88090EB
:100D1000D0F8C0100CEB090AACEB090BCDF808B009
:100D2000A8EB010B4FF4B55E0BFB0EFB4FEA2B3724
:100D300041447F1A0AEB010CAAEB0101DDF808B06F
:100D400007EB0B08DDF808B0ABEB0709D0F8E05073
:100D5000036AD0F8A060026EA3EB050A5F19A6EB48
:100D6000020BCDF808B03244A7EB020B0BFB0EFBD5
:100D70004FEA2B333A44DDF808B0D34441F6905E95
:100D80000BFB0EFB4FEA2B3BCDF804B041F2511B9D
:100D90000AFB0BFEDDF804B0ABEB2E3542F6CF1E9E
:100DA000DDF808B00BFB0EFEDDF804B0ABEB2E3B1C
:100DB000ABEB02069B1BED1A0CEB020BC0F800B06C
:100DC000ACEB020BC0F8E0B008EB060BC0F820B0AB
:100DD000A8EB060BC0F8C0B009EB030BC0F840B09D
:100DE000A9EB030BC0F8A0B001EB050BC0F860B095
:100DF000A1EB050BC0F880B0001DDDF800B00BF1D1
:100E0000010BCDF800B0DDF800B0BBF1080FFFF624
:100E100079AF20384FF0000BCDF800B0A0E0D0F84B
:100E200000B00BF5004CD0F80880D0F81090816924
:100E30000CEB090AACEB090BCDF808B0A8EB010BE1
:100E40004FF4B55E0BFB0EFB4FEA2B3741447F1A84
:100E50000AEB010CAAEB0101DDF808B007EB0B0867
:100E6000DDF808B0ABEB0709C56943684669C2689D
:100E7000A3EB050A5F19A6EB020BCDF808B03244CC
:100E8000A7EB020B0BFB0EFB4FEA2B333A44DDF8CA
:100E900008B0D34441F6905E0BFB0EFB4FEA2B3BB0
:100EA000CDF804B041F2511B0AFB0BFEDDF804B093
:100EB000ABEB2E3542F6CF1EDDF808B00BFB0EFE75
:100EC000DDF804B0ABEB2E3BABEB02069B1BED1A3F
:100ED0000CEB020B4FEA2B2B0FFA8BFBA4F800B0A4
:100EE000ACEB020B4FEA2B2B0FFA8BFBA4F80EB0E6
:100EF00008EB060B4FEA2B2B0FFA8BFBA4F802B082
:100F0000A8EB060B4FEA2B2B0FFA8BFBA4F80CB0C7
:100F100009EB030B4FEA2B2B0FFA8BFBA4F804B061
:100F2000A9EB030B4FEA2B2B0FFA8BFBA4F80AB0AB
:100F300001EB050B4FEA2B2B0FFA8BFBA4F806B045
:100F4000A1EB050B4FEA2B2B0FFA8BFBA4F808B093
:100F500010342030DDF800B00BF1010BCDF800B0FB
:100F6000DDF800B0BBF1080FFFF659AF07B0BDE8E0
:100F7000F08F2DE9F04704460D4690469946AD1E88
:100F8000606B00EB153AC5F3C80605F007010120B8
:100F90008840C7B200BF51460AF1010A204609F055
:100FA00057F810B10120BDE8F08700BF00BF04F181
:100FB0003C00805D384008B1012000E00020484539
:100FC00001D10220EFE704F13C00805D784004F19C
:100FD0003C0188550120E070A8F10100B0F1000843
:100FE00000D1E0E77806000E071EE0D10127701C53
:100FF0000646B0F5007FD9D30026CCE72DE9F041B5
:10100000044688460020E070401EA063414620460A
:1010100009F01EF810B10420BDE8F08104F23A2076
:1010200007F090FD07464AF65520874208D10B226B
:101030002DA104F13C00FFF743FB08B90120EBE7C9
:1010400094F83C50EB2D03D0E92D01D0E82D43D18D
:101050004AF65520874208D1082226A104F18E00C5
:10106000FFF72EFB08B90020D6E704F1470007F090
:1010700069FD06464920055D701E304060BBB6F52F
:10108000007F29DBB6F5007F26DC2DB3681E2840E3
:1010900010BB04F14A0007F055FDE8B14C20005D9B
:1010A000401E012818D804F14D0007F04BFD98B1FF
:1010B00004F14F0007F046FD802806DA04F15C00D9
:1010C00007F003FDB0F5803F06D304F1520007F0AE
:1010D00039FD08B100209FE74AF65520874201D12B
:1010E000022099E7032097E7EB7690455846415454
:1010F00020202000464154333220202000000000F0
:101100002DE9F84F824615461E46DAF80000009099
:10111000DAF8500000F104094FF400720023284669
:101120003146FFF7A0F807460098B0F80AC06246BB
:1011300000233846FFF797F8834600BF59F8044B61
:1011400014B90020BDE8F88FA34500D204E0ABEB52
:10115000040B09F10409F1E700BFD9F80000584475
:10116000F0E70246891ED069801E884201D800201F
:1011700070475389106B03FB0100F9E72DE9F04735
:1011800080460C4604F11A0007F0DCFC10B1002088
:10119000BDE8F087207800F03F00401E00EB8001A2
:1011A00001EBC0054FF00109002621E01849895DD7
:1011B000081907F0C7FC0746B9F1000F11D0FF2D41
:1011C0000BD8384602F0B4F8824629466D1C38F830
:1011D000110002F0ADF8824501D00020D8E7B946F1
:1011E00005E04FF6FF70874201D00020D0E7761C63
:1011F0000D2EDBD3207800F0400038B1B9F1000F9C
:1012000004D038F8150008B10020C1E70120BFE77D
:101210009C1801082DE9F04706468A463468BAF161
:10122000000F0AD1D4F81480B8F1000F02D0E069A1
:10123000404516D84FF0010813E05146304602F001
:1012400095FA0746022F02D20120BDE8F087781CEC
:1012500008B93846F9E7E069B84201D93846F4E7F9
:10126000D046A06908B90020EFE7207804284ED1C5
:1012700001224146204602F0F0F805460DB1681CF7
:1012800008B92846E1E701231A4629462046FFF718
:1012900070FE8146B9F1020F01D10120D5E7B9F105
:1012A000010F02D14FF0FF30CFE7BAF1000F02D1AA
:1012B0000220F0710CE0F079022809D108F1010058
:1012C000854205D0B068A8EB0000B0610320F07142
:1012D000F079022869D00AF10100854207D1F0694E
:1012E00010B1F069401C00E00220F0615DE0F0699F
:1012F00008B90120F0612A465146304602F08BF8C9
:101300008146B9F1000F50D10120F0614DE0002578
:10131000D04519D108F10105E069A84200D802259D
:101320002946304602F022FA0746012F01D0781CE8
:1013300008B9384689E73FB16769022F03D3E069EE
:10134000B84200D9B8460025E5B9454600BF6D1C36
:10135000E069A84204D80225454501D9002074E778
:101360002946304602F002FA074607B909E0012F84
:1013700001D0781C08B9384667E74545E7D1002019
:1013800063E700BF4FF0FF322946204609F030FBEB
:101390008146B9F1000F08D1BAF1000F05D02A46F5
:1013A0005146204609F024FB8146B9F1000F0DD1CA
:1013B0006561D4E90610801E814202D8A069401EF2
:1013C000A061207940F00100207107E0B9F1010F20
:1013D00002D14FF0FF3000E001200546284634E7F7
:1013E0002DE9F74F8AB0074688461AE10C98112874
:1013F00003D206200DB0BDE8F08F0C9811380C9088
:1014000018F8010B0790079800F0EE0008B10620CD
:10141000F0E707980611079800F00F0910213846E9
:10142000FFF7EFFB8246BAF1000F01D10320E1E79D
:1014300007F1200000EBC90040F826A00020044678
:10144000089007E018F8011B0AF8041008980844EF
:101450000890641C102CF5D3089841003846FFF71B
:10146000D0FB0590059808B90320C3E707F13001C8
:1014700001EBC901059841F82600002006900446BA
:10148000099018E01AF804500AE00998421C0699DD
:101490000992059A22F810100698401C80B2069016
:1014A000281EA5F10105F0D14FF6FF71069801EA5B
:1014B00040000690641C102CE4D308990C988842D4
:1014C00001D2062096E708990C98401A0C903846ED
:1014D0000899FFF796FB8346BBF1000F01D103206B
:1014E00088E707F1400000EBC90040F826B000246F
:1014F0000CE018F8010B079026B907980B2801DDBE
:10150000062077E707980BF80400641C08988442CB
:10151000EFD3002001900090AEB14FF40061384647
:10152000FFF76FFB0190019808B9032062E707F10C
:101530006C01019841F82900FF224FF400610198E5
:10154000FFF791F914E04FF480613846FFF759FB3B
:101550000090009808B903204CE707F17401009847
:1015600041F82900FF224FF480610098FFF77BF9D2
:101570000020054604464CE01AF80500099044E0B6
:10158000059830F81400C5F109018840C0F309003E
:101590000290E6B12046641C1BF80010681C41EA6A
:1015A00000200390C5F109010120884004900AE061
:1015B0000498401E0490039882B20298411C029144
:1015C000019921F8102004980028F1D11AE0204652
:1015D000641C1BF80010681C41EA00100390C5F160
:1015E000090101208840049009E00498401E0490FD
:1015F0000398C2B20298411C029100990A540498BF
:101600000028F2D10998401E099009980028B7D106
:101610006D1C0A2DB0D307F1650000EB490084551D
:1016200000BF0C9800287FF4E1AE00BFE2E60000A6
:101630002DE9F34F85B08146069800680290D9F8ED
:101640000000D0F80CA0002500BF02A80BF006FA9D
:1016500083460BF1010018B9062007B0BDE8F08FF2
:10166000BBF5803F05D34FEA1B4228466D1C2AF884
:1016700010201FFA8BF4202C03DB2F2C01D05C2CC4
:1016800000D111E0802C06DA21467BA0FFF70EF88E
:1016900008B10620E1E7FF2D01D30620DDE728464B
:1016A0006D1C2AF81040D0E700BF202C01DA042678
:1016B00011E002E00298401C0290029800782F2866
:1016C000F8D0029800785C28F4D0002602980078C0
:1016D000202800D2042602990698016008E0681EBE
:1016E0003AF81040202C02D02E2C00D002E06D1EC3
:1016F000002DF4D100BF00202AF815000DB90620F6
:10170000ABE7002700E07F1C3AF817002028FAD04A
:101710001FB93AF817002E2801D146F0030600E061
:101720006D1E25B1681E3AF810002E28F8D120222F
:101730000B2109F14000FFF796F84FF00008CDF8B3
:1017400010800820039000BF38467F1C3AF81040F4
:1017500004B966E0202C03D02E2C04D1AF4202D075
:1017600046F00306F0E7DDE90310884201D2AF42FC
:1017700016D103980B2802D146F0030651E0AF4280
:1017800001D046F00306AF4200D94AE02F460820B8
:1017900004900B2003904FEA88604FEA1068D3E76B
:1017A000802C0ADB46F00206204601F0C1FD4FF412
:1017B0006A71019001F07AFD0446FF2C11DD039857
:1017C000401E0499884204D846F00306039804900A
:1017D000BAE722120498411C049109F140010A540D
:1017E00018E024B1214627A0FEF760FF18B15F245E
:1017F00046F003060EE0412C03DB5A2C01DC48F0D6
:101800000208612C06DB7A2C04DC48F00108A4F104
:10181000200084B20498411C049109F140010C5449
:1018200092E700BF99F84000E52802D1052089F829
:1018300040000398082803D14FEA88604FEA1068F7
:1018400008F00C000C2803D008F00300032801D195
:1018500046F0020606F0020048B908F0010008B19F
:1018600046F0100608F0040008B146F008064B20C8
:1018700000F809600020F0E62A3A3C3E7C223F7FD7
:10188000000000002B2C3B3D5B5D00002DE9F04784
:1018900082460C4616462BE0412E02D20620BDE8B9
:1018A000F087413E14F8019B09F0F00008B10620D2
:1018B000F5E709F003074FF480715046FFF7A1F9EF
:1018C00005460DB90320EAE70AF1500040F8275019
:1018D00000270BE0084810F8078014F8010B0749AF
:1018E00031F81810484345F828007F1C402FF1D3E9
:1018F000002ED1D10020D2E78E1C0108CE1C010899
:101900002DE9F04704460E4640212046FEF7B3FF7E
:1019100085202070C02084F82000402500208046CB
:1019200007464FF0010900BFC12228466D1C225412
:10193000002228466D1C225400BFB9F1000F06D0CA
:1019400036F81700B0F1000901D0781CC7B2601951
:1019500049460AF0E5FCAD1C05F01F000028ECD15B
:1019600008F1010000F0FF0836F817000028DBD16D
:1019700084F8237008F10100607030460CF051FBD0
:101980008246514604F124000AF0CAFCBDE8F08703
:1019900001460B48007888420FDC094840788842AD
:1019A00001DB0120704706488078884205DC044846
:1019B000C078884201DB0120F4E70020F2E7000054
:1019C000A9180108014610480079884219DC0E4820
:1019D0004079884201DB012070470B4880798842BA
:1019E00005DC0948C079884201DB0120F4E706489C
:1019F000007A884205DC0448407A884201DB0120F5
:101A0000EAE70020E8E70000A91801084FF0E0210C
:101A1000096941F004014FF0E022116105490860B5
:101A20001146096941F0010111616FF07041516186
:101A3000704700000000002010B504464FF47A7192
:101A400004FB01F000F002F810BD000070B5034681
:101A500000224FF0E02675690D4E366803FB06F450
:101A60004FF0E026B16910E04FF0E026B0698842FF
:101A70000BD0884202D20E1A324402E02E1A0E44D3
:101A800032440146A24200D300E0EDE700BF70BD42
:101A9000000000202DE9F04104460E46D4F80080F5
:101AA0000021204600F06FFB05465DBB002700BF0C
:101AB0004046A16B08F0CCFA054605B121E098F844
:101AC0000000042805D1E06B0078012121EAD01044
:101AD00009E0E06B0078E52802D0E06B007808B9F7
:101AE000012000E0002020B1781C0746B04201D15F
:101AF00007E000270121204600F03FF90546002DB0
:101B0000D6D000BF042D00D107252846BDE8F081BE
:101B10002DE9F0470446894620460AF005FE10B13B
:101B20000120BDE8F08749462046FFF71AFB07462B
:101B3000A7634FF4007104F13C00FEF7BEFE60891C
:101B40004FF40041B1EB402F01D8084601E0608915
:101B5000400206464FF0000800E07608B6F5007F28
:101B600005D9304601F04FFBB0F10008F5D0B6F5CD
:101B7000007F16D931464046FEF77DFE760A0025E5
:101B800000E035446089A84207D97A196078334665
:101B9000414600F0FDFB0028F3D0404601F03AFB3F
:101BA00010E004F13C080126002500E0354460897E
:101BB000A84207D97A1960783346414600F0E8FB1D
:101BC0000028F3D06089A84201D00120A9E70020B5
:101BD000A7E72DE9F04F85B004462568002120468F
:101BE00000F0D1FA07461FB1384605B0BDE8F08FC6
:101BF000287804284CD1E8680CF013FA01903EE0F4
:101C0000296901F1240006F09DFF0199884200D066
:101C100035E0286990F8230003904FF0400A002037
:101C200002901FE00AF01F0008B90AF1020A2969B0
:101C300001EB0A0006F086FF009001F079FB834675
:101C4000EA68029932F8110001F072FB834500D076
:101C50000BE00398401EC0B203900AF1020A0298FA
:101C6000401C029003980028DCD100BF039828B9DB
:101C7000E968029831F8100000B906E000BF0021C1
:101C8000204600F0EAF8071EBAD000BF3846ACE79D
:101C90004FF0FF09CDF810904FF0FF30E06400BF27
:101CA0002846A16B08F0D4F9074607B162E0E06B63
:101CB00006780EB904275DE0E06BC07A00F03F08BB
:101CC00084F80680E52E05D008F0080040B1B8F190
:101CD0000F0F05D04FF0FF094FF0FF30E06442E0F6
:101CE000B8F10F0F22D14B20005D00F04000A0BBE7
:101CF00006F0400038B1E06B407B049006F0BF0670
:101D0000B146206BE0644E450CD1E06B417B0498FA
:101D1000814207D1E16BE868FFF730FA10B1A9F111
:101D2000010000E0FF2000F0FF091CE0B9F1000F06
:101D300006D1E06B0AF0A1FC0499884200D119E0B9
:101D40004B20005D00F0010040B90B2204F140017E
:101D5000E06BFEF7B5FC08B90CE004E04FF0FF09BA
:101D60004FF0FF30E0640021204600F006F80746FF
:101D7000002F95D000BF384637E72DE9F0410446E3
:101D800088462768206B00F120063878042801D1A6
:101D9000800601E04FF40010B04201D80020A0639B
:101DA000A06B10B90420BDE8F081C6F3080000283C
:101DB0004AD1A06B401CA063606B38B93889B0EB86
:101DC000561F41D80020A0630420ECE77889401E0C
:101DD00000EA5620002837D12046616B01F0C6FC8E
:101DE0000546012D01D80220DDE7681C08B9012055
:101DF000D9E7F869A84221D8B8F1000F03D1002033
:101E0000A0630420CFE72046616BFFF703FA054685
:101E10000DB90720C7E7012D01D10220C3E7681CD7
:101E200008B90120BFE729463846FFF771FE08B11F
:101E30000120B8E7E07940F00400E07165632946CD
:101E40003846FFF78EF9A0632663C6F3080107F151
:101E50003C000844E0630020A5E72DE9F05F04465C
:101E60008846042627684FF0FF0AD3466CE03846C0
:101E7000A16B08F0EDF8064606B168E0E06B057866
:101E80000DB9042663E03878042814D1B8F1000FA6
:101E900002D0832D51D15AE0852D4ED1206BE064C4
:101EA000204606F0A9FE064626B93869007900F0FA
:101EB0003F00A0714BE0E06BC07A00F03F0984F86E
:101EC0000690E52D0AD02E2D08D029F020000828F4
:101ED00001D1012000E00020404502D04FF0FF0A70
:101EE0002BE0B9F10F0F1CD105F0400038B1E06BC9
:101EF00090F80DB005F0BF05AA46206BE06455458B
:101F00000BD1E06B407B584507D1E16BF86808F0D6
:101F1000BDFB10B1AAF1010000E0FF2000F0FF0AB4
:101F20000BE0BAF1000F04D1E06B0AF0A6FB5845B4
:101F300002D04FF0FF30E06409E000212046FFF7B7
:101F40001CFF064606B102E0A06B00288FD100BF3F
:101F50000EB10020A0633046BDE8F09F2DE9F04FA0
:101F600099B0044626684B20005D00F0A00018B12F
:101F7000062019B0BDE8F08F4FF0000B01E00BF127
:101F8000010BF06830F81B000028F8D130780428E5
:101F900066D10BF10E000F21B0FBF1F000F1020948
:101FA00049462046FFF776FD05460DB12846E0E795
:101FB000A9F101002022216B02FB1010E064E079FE
:101FC00000F00400002845D0E07920F00400E07122
:101FD000204601F005FA05460DB12846C9E74FF045
:101FE000FF322046616B01F016FA05460DB1284616
:101FF000BFE7A06870B32146684606F0DDFD0546E0
:102000000DB12846B5E770894002D4E904311818AB
:1020100041F10001C4E90401D4E90473316901F11B
:1020200038003A460AF04EF9D4E90473316901F1F7
:1020300028003A460AF046F9E07940F0010031699B
:1020400081F8210068460AF0DFFA05460DB12846FE
:102050008FE700BFD6E90310FFF752FC002088E7A6
:10206000D4E91112206C15AB07C39DF85F0000F096
:10207000010028B340214B2001554FF0010A0EE02A
:10208000534615A904F14000F26801F005FB204613
:10209000FFF79FFD054605B104E00AF1010ABAF118
:1020A000640FEDD300BFBAF1640F01D1072060E7E0
:1020B000042D01D028465CE79DF85F104B200155A8
:1020C0009DF85F0000F0020030B10BF10C000D2113
:1020D000B0FBF1F0401C00E001208146494620465B
:1020E000FFF7D8FC054675BBA9F10100B0F1000966
:1020F00029D0206BA0EB4911204600F044F805469A
:102100000DBB04F140000AF0B8FA149000BF30464D
:10211000A16B07F09DFF054605B113E009F0FF0232
:10212000E16BF068149B08F005FD0120F0700021C0
:102130002046FFF722FE054625B9A9F10100B0F1BE
:102140000009E4D100BFE5B93046A16B07F080FF7C
:102150000546B5B92021E06BFEF78DFBE06B216CE5
:102160000160616C4160B4F84810018194F84A1034
:1021700081724B20005D00F01800E16B08730120B4
:10218000F0702846F5E62DE9F04104460D46266834
:102190003078042801D1800601E04FF40010A842F5
:1021A00002D905F01F0010B10220BDE8F0812563BF
:1021B000A7682FB93078032802DBF76A0020E071A6
:1021C00047B93089B0EB551F01D80220EDE7F06A1E
:1021D000A0631CE070894FEA402811E03946204690
:1021E00001F0C4FA0746781C08B90120DDE7022F88
:1021F00002D3F069B84201D80220D6E7A5EB080562
:102200004545EBD239463046FEF7ABFFA063676326
:10221000A06B08B90220C8E7A06B00EB5520A063B3
:10222000C5F3080106F13C000844E0630020BCE768
:1022300070B50446002514B1012C07D103E008F065
:10224000C7FD054604E008F02DF801E0012500BFB8
:1022500000BF0DB1012070BD0020FCE72DE9F04763
:1022600006468946154646BBB9F1000F09D0B9F1BB
:10227000010F13D0B9F1020F05D0B9F1030F19D135
:1022800006E0002418E04FF400702860002413E0FA
:102290001D48B0F85000288000240DE01A484FF483
:1022A00000720023D0E912713846FEF753F8286017
:1022B000002401E0042400BF22E0012E1FD1B9F167
:1022C000000F09D0B9F1010F11D0B9F1020F05D0FB
:1022D000B9F1030F10D106E000240FE04FF40070B5
:1022E000288000240AE008202880002406E04FF41B
:1022F000C0402860002401E0042400BF00E0012465
:102300002046BDE8F0870000980200202DE9F0414A
:1023100080460E4614461D46002715B90420BDE828
:10232000F081B8F1000F03D0B8F1010F25D113E00F
:102330002A462146304608F005FE074609E0022FEE
:1023400001D008F045FD2A462146304608F0FAFD46
:102350000746002FF3D112E00BE0002000EB4421F0
:102360004FF40072304607F0E9FF641C06F5007672
:102370006D1E002DF1D1002701E0012700BF00BF35
:102380000FB90020CBE70120C9E7014600207047C4
:102390002DE9F04107460E4614461D464FF0000851
:1023A00015B90420BDE8F08117B1012F24D112E046
:1023B0002A462146304608F009FE804607E008F02C
:1023C00007FD2A462146304608F000FE8046B8F157
:1023D000000FF4D113E00BE0002000EB44214FF498
:1023E0000072304608F040F8641C06F500766D1E59
:1023F000002DF1D1A84602E04FF0010800BF00BF58
:10240000B8F1000F01D10020CCE70120CAE7014656
:10241000412901DA08467047612903DBA1F1200058
:10242000C0B2F8E70846F6E72DE9FC41054600276B
:10243000002405E0601CC4B2287800B902E06D1CDD
:10244000FA2CF7DB00BFFA2C02D1FF20BDE8FC819B
:10245000002408E06D1E28782E2802D16D1C2F461E
:1024600003E0601CC4B2052CF4DB00BF0FB9FF20F1
:10247000ECE739466846FEF74FF9002407E01DF8FF
:102480000400FFF7C4FF0DF80400601CC4B2042C64
:10249000F5DB002421E000261AE0C4EBC40011495A
:1024A00001EB800050F82600007800B912E0C4EB80
:1024B000C4010C4A02EB810151F826006946FEF77F
:1024C00023FA18B946EA0410C0B2BFE7701CC6B2BE
:1024D000072EE2DB00BF601CC4B2072CDBDBFF2051
:1024E000B4E70000F418010870B5002500240EE0E0
:1024F0004FF40F71002007F0A3FE0B4941F82400B0
:10250000084650F8240000B903E0601CC4B2022C55
:10251000EEDB00BF07F024F90546022C02D10DB90D
:10252000002070BD0120FCE74C00002038B50546B6
:10253000284600F094FD04464CB9694628460BF045
:1025400033FD04461CB900202860204638BD2046D3
:10255000FCE72DE9F04F8FB0044615461E460DA945
:1025600020460BF021FD0E900E9810B994F8310022
:102570000E900E9848B90D980078042805D1421F96
:102580002046216C00F047FF0E900E9818B10E986F
:102590000FB0BDE8F08F206D00287ED04FF0FF31E6
:1025A00085EA01007140084355D1206D04900498DC
:1025B000006806900498001D049002200590D4F84D
:1025C00008B0BBF1000F38D000BFCDF81CB0002020
:1025D00008900598801C059000BFCDF824B008989D
:1025E000401C08905946204601F0C0F88346BBF1D4
:1025F000010F03D8022084F83100C9E70BF1010074
:1026000018B9012084F83100C2E70998401C8345BD
:10261000E3D0DDE9050188420BD8049908980860E9
:102620000498001D04900499079808600498001D00
:1026300004900D98C0695845C7D80598216D086069
:10264000DDE90501884203D8002104980160A9E171
:1026500011200E90A6E1D4E90410491BB04101D22B
:10266000D4E90456C4E90E56002185EA0100714000
:102670000843ECD06F1E66F100033A462046FEF791
:102680003FFD2064216C0D98FEF76BFD03900398CD
:1026900020B9022084F831007AE748E06F1E66F125
:1026A00000014FF4007200233846FDF7DCFD0D9960
:1026B0004989491E08400399084403904FF4007269
:1026C0000023D4E90E713846FDF7CDFD00214A40C4
:1026D0004B401A43BBD0616C03988142B7D094F849
:1026E000300000F0800090B1626C0D9948780123B1
:1026F00004F15401FFF74CFE18B1012084F83100B9
:1027000046E794F8300000F07F0084F830000D991F
:102710004878012304F15401039AFFF7F7FD18B13B
:10272000012084F8310033E7039860643AE10D98A2
:102730000078042806D0291E76F1010002D34FF05C
:10274000FF350026D4E90410491BB04106D294F8A5
:10275000300000F0020008B9D4E90456D4E90E01B3
:10276000CDE90A0100200C90A063E063002185EA16
:102770000100714008437ED00D9840894FEA4029FE
:102780000023DDE90A015840594008432CD06F1E50
:1027900066F100014A463846FDF765FD0746884662
:1027A000DDE90A10491E60F100004A460023CDE928
:1027B000001008460199FDF756FD381A78EB01081C
:1027C00012D3DDE90A104A1E60F10001A9F10100EF
:1027D00022EA0000C4E90E01D4E90E21AD1A66EB2D
:1027E0000106D4F840A01BE0D4F808A0BAF1000F0D
:1027F00014D100212046FEF70DFD8246BAF1010FEB
:1028000003D1022084F83100C2E60AF1010018B9B0
:10281000012084F83100BBE6C4F808A0C4F840A049
:10282000BAF1000F75D047E0B5EB090566F1000677
:10283000D4E90E2012EB090240F10000C4E90E2099
:1028400094F8300000F00200E8B1D4E90E32D4E987
:102850000410C91A904109D2D4E90E01C4E9040157
:1028600094F8300040F0400084F830005146204693
:10287000FEF7D0FC00E04CE08246BAF1000F07D131
:1028800000252E461DE05146204600F06FFF82468F
:102890000AF1010018B9012084F8310078E6BAF194
:1028A000010F03D90D98C069504503D8022084F860
:1028B00031006DE6C4F840A00020B9EB0501B0413D
:1028C000B2D300BFD4E90E1049197041C4E90E100B
:1028D0004FF40072002328463146FDF7C4FC002166
:1028E0004A404B401A4314D051460D98FEF739FC2C
:1028F0000C900C9818B9022084F8310048E64FF487
:102900000072002328463146FDF7ADFC0C990844BF
:102910000C90D4E90430D4E90E12591A904109D22E
:10292000D4E90E01C4E9040194F8300040F04000FD
:1029300084F830004FF400720023D4E90E71384659
:10294000FDF791FC00214A404B401A432AD0616CAC
:102950000C98814226D094F8300000F0800090B1AD
:10296000626C0D994878012304F15401FFF710FDC2
:1029700018B1012084F831000AE694F8300000F024
:102980007F0084F830000D994878012304F1540148
:102990000C9AFFF7BBFC18B1012084F83100F7E571
:1029A0000C9860640E98F3E5F7B582B0164603986C
:1029B000019001A801F0E3F80546002D02DA0B2092
:1029C00005B0F0BD0C4850F825400CB10020207037
:1029D000029810B10020029908700749029841F846
:1029E00025000EB90020EBE7002202A903A807F09A
:1029F000F5F807463846E3E7400000202DE9F74F99
:102A00009AB0044616461CB909201DB0BDE8F08FE7
:102A100006F03F06324605A91BA807F0DFF8054679
:102A2000002D7BD1059806904FF48C6000F0EBFBF5
:102A30008346BBF1000F01D11120E6E70598C0F8ED
:102A40000CB00BF500700599086106A81B9900F001
:102A500092FD05462DB99DF8630000F0800000B19D
:102A6000062506F01C0000287ED045B1042D03D1B8
:102A700006A8FFF773FA054646F008060AE09DF837
:102A80001E0000F0110008B1072503E006F0040065
:102A900000B10825002D40D106F0080000283CD0E8
:102AA0000598007804283AD10598206021460598B9
:102AB00002F0A2F805990969881C1E21FDF7DBFECA
:102AC0000599096901F126001A21FDF7D4FE20209D
:102AD00005990969087100F013FF019005990969CA
:102AE00001F10800019909F0E1FB0120059909694C
:102AF00081F8210006A809F087FD0546002D5CD16C
:102B0000A068002859D000222046A16808F076F875
:102B10000546A068401E059948614EE0F2E000F0CD
:102B2000EFFE0390159901F10E00039909F0BEFB29
:102B3000159901F11600039909F0B8FB159905984C
:102B400005F0B0FF049020201599C8720022159955
:102B5000059809F099FB159901F11C00002109F075
:102B6000A5FB0120059900E016E0C870049820B389
:102B70000598806B0290002206A8049908F03EF8A0
:102B80000546D5B90299059807F062FA05460498FA
:102B9000401E0599486110E07DB99DF81E0000F0C7
:102BA000100008B1042508E006F0020028B19DF8E5
:102BB0001E0000F0010000B107254DB906F0080025
:102BC00008B146F040060598806BA0641598E06453
:102BD000002D7DD10598007804280FD10898206237
:102BE0000A9820F0FF009DF81F10084360621998B2
:102BF000A0622146059801F0FFFF0CE015990598A9
:102C000005F050FFA060159901F11C0005F05DFF73
:102C10000021C4E904010020206505982060059882
:102C2000C088A08084F83060002084F8310060649F
:102C30000021A163E1634FF4007104F15400FDF73A
:102C40003CFE06F02000002859D00023D4E90410EF
:102C500059405840014352D0D4E90401C4E90E015F
:102C6000059840894FEA4029D4F808A0D4E90478AF
:102C700010E05146204600F079FD8246BAF1010F7E
:102C800000D802250AF1010000B90125B7EB0907B8
:102C900068F100082DB90020B9EB070170EB0800BE
:102CA000E7D3C4F840A09DB94FF400720023384622
:102CB0004146FDF7D8FA00214A404B401A431ED046
:102CC00051460598FEF74DFA0290029818B900E0B7
:102CD00015E0022513E04FF4007200233846414608
:102CE000FDF7C1FA029908446064626C059948785E
:102CF000012304F15401FFF709FB00B101255846F7
:102D000000F088FA0DB10020206028467DE673B5FA
:102D100082B0044614B9092004B070BD002201A994
:102D200003A806F05BFF0546002D47D101982060FF
:102D30004FF48C6000F067FA06460EB91120EBE7FD
:102D40000198C66006F50070019908612046039954
:102D500000F011FC05465DBB4B20005D00F08000DB
:102D6000E8B9A07900F01000C0B1019800780428FB
:102D70000ED1A0682062206920F0FF00E1790843AD
:102D80006062E06CA0622146019801F035FF06E028
:102D9000E16B019805F086FEA06000E005253DB9D5
:102DA0000198C088A08000212046FFF7ECF9054675
:102DB000304600F02FFA042D00D105250DB100207A
:102DC00020602846A8E72DE9FF4F87B00446154646
:102DD0000898039000210A98016005A920460BF08D
:102DE000E3F80690069818B994F83100069018B1E7
:102DF00006980BB0BDE8F08F94F8300000F00100A9
:102E000008B90720F5E7D4E90E23D4E904108F1A96
:102E100060EB0308791B78F1000000D23D46E1E049
:102E2000D4E90E014FF400720023CDE90001FDF753
:102E30001AFA00214A404B401A437DD1D4E90E01D1
:102E40004FF400720023CDE90001FDF70CFA05995B
:102E50004989491E00EA010ABAF1000F2BD100236B
:102E6000D4E90E0158405940084302D1A0680490AB
:102E700011E0206D50B1D4E90E0102460B46CDE9B8
:102E800000012046FEF73CF9049004E02046216C46
:102E900000F06CFC04900498022803D2022084F80D
:102EA0003100A6E70498401C18B9012084F83100CD
:102EB0009FE704982064216C0598FEF752F981463B
:102EC000B9F1000F03D1022084F8310091E7D14419
:102ED0004FEA552BBBF1000F2FD00AEB0B000599E1
:102EE0004989884203D905984089A0EB0A0B0599C6
:102EF00048785B464A460399FFF708FA18B1012063
:102F000084F8310075E794F8300000F0800080B15B
:102F1000606CA0EB090058450BD2616CA1EB090174
:102F2000039A02EB41204FF4007204F15401FDF7C3
:102F300023FC4FEA4B2645E029E0606C484524D04D
:102F400094F8300000F0800090B1626C05994878E8
:102F5000012304F15401FFF71BFA18B1012084F892
:102F6000310046E794F8300000F07F0084F830002C
:102F70000599487801234A4604F15401FFF7C6F940
:102F800018B1012084F8310033E7C4F84490208F51
:102F9000C0F30800C0F50076AE4200D92E46D4E951
:102FA0000E014FF400720023CDE90001FDF75BF93B
:102FB00004F1540010443246014602900398FDF794
:102FC000DBFB00BFAD1B0A98006881190A980160FD
:102FD000039830440390D4E90E10891940F10000A1
:102FE000C4E90E10002D7FF41BAF002001E7F8B5F7
:102FF00007460E46694638460AF0D6FF044664BBCB
:103000002EB900213846FFF7BEF8044625E04FF4FC
:103010008C6000F0F8F805460DB91120F8BD009855
:10302000C56005F500700099086100213846FEF77B
:1030300014FF0446042C00D100245CB93146384604
:1030400000F060FC00213846FEF797FE0446042C91
:1030500000D10024284600F0DDF82046DEE72DE907
:10306000F04796B0044614A920460AF09DFF054695
:10307000002D7ED194F8300000F04000002878D078
:1030800094F8300000F0800090B1626C1499487898
:10309000012304F15401FFF77BF918B1012016B0A8
:1030A000BDE8F08794F8300000F07F0084F830002D
:1030B00000F026FC824614980078042875D120463A
:1030C00000F08EF9054635B94FF0FF322046216CED
:1030D00000F0A1F90546002DCBD14FF48C6000F033
:1030E00092F88146B9F1000F01D11120D7E7149869
:1030F000C0F80C9009F500701499086121466846E3
:1031000005F05AFD0546002D4AD114980069007952
:1031100040F02000149909690871E07940F001003D
:103120001499096981F82100A168149A126902F1C1
:10313000340009F0BBF8D4E904731499096901F16A
:1031400038003A4609F0BEF8D4E9047314990969C5
:1031500001F128003A4609F0B5F81499096901F11E
:103160000C00514609F0A2F800201499096948752D
:1031700000E046E01499096901F11000002109F00E
:1031800095F8684609F040FA05464DB9149809F0DB
:1031900085FA054694F8300000F0BF0084F830004E
:1031A000484600F037F82CE0FFE7A16C149806F0D1
:1031B0004FFF05462DBBE66CF07A40F02000F07220
:1031C0003146A268206809F05FF806F11C00216909
:1031D00009F06CF8514606F1160009F067F8002175
:1031E00006F1120009F09CF801201499C870149897
:1031F00009F054FA054694F8300000F0BF0084F856
:10320000300028464BE710B504462146002007F061
:1032100017F810BD10B504462146002006F0FEFF49
:1032200010BD00002DE9F84F04468B461E48D0F82B
:1032300005004FEA500A802C01DAA04630E01A4817
:10324000D0F805004FEA50090120C0EB990900278A
:1032500010261CE0A9EB070007EB50051248D0F838
:10326000010000EB850000EB0A010422684607F02C
:1032700065F8BDF80000A04200D10AE0BDF80000EA
:10328000A04201DA2F4600E0A946701E86B2002E49
:10329000E0D100BF16B1BDF8020000E0002080467A
:1032A0004046BDE8F88F000080C000202DE9F84FAF
:1032B00004468B464FF0000A802C02D21FFA84F895
:1032C00030E01A48D0F805004FEA50090120C0EB61
:1032D0009909002710261CE0A9EB070007EB500511
:1032E0001248D0F8010000EB850000EB0A0104222F
:1032F000684607F023F8BDF80000A04200D10AE0BC
:10330000BDF80000A04201D22F4600E0A946701E81
:1033100086B2002EE0D100BF16B1BDF8020000E079
:10332000002080464046BDE8F88F000080C00020A5
:1033300070B5B0F5803F4DD281B2B1F5805F01DA52
:10334000254E00E0254E324600BF32F8023B0BB15D
:10335000994200DA3CE032F8024B2512E4B21E1921
:103360008E4230DD092D2CD2DFE805F005090F1360
:10337000171B1F232700CE1A32F8161021E0CE1A91
:1033800006F001068E1BB1B21BE0A1F11006B1B22E
:1033900017E0A1F12006B1B213E0A1F13006B1B2FD
:1033A0000FE0A1F11A06B1B20BE001F10806B1B2CB
:1033B00007E0A1F15006B1B203E0A1F5E356B1B2C6
:1033C00000BF00BF04E0002DBFD102EB4402BCE708
:1033D00000BF084670BD0000B8190108AA1B01080B
:1033E0002DE9F0410446E079032812D1A568A769C8
:1033F0000BE06A1C2946206807F0FAFA064616B167
:103400003046BDE8F0816D1C7F1E002FF1D10020F9
:10341000E0710020F5E72DE9F04104460D4617461E
:1034200016E0E369012B03D9E369EB1A9B1C00E06A
:103430003B461A46E369EB1A591C206807F0D8FA94
:10344000064616B13046BDE8F081E069401EE061F5
:10345000E0690028E5D100BFF5E72DE9F74F054603
:103460000E46B61EE869801EB04200D800263446DB
:10347000A2464FF0000B00BF686B00EB14312846EA
:1034800006F0E6FD18B14FF0FF30BDE8FE8FC4F343
:10349000C80904F0070101208840C7B200BF00BF7F
:1034A00005F13C0010F8090000EA07087806070E4D
:1034B000601C0446E969891E884203D30024002762
:1034C0004FF40079B8F1000F08D10BF101008346E9
:1034D0000299884205D10AF10200D6E7A2464FF0D0
:1034E000000BB44201D10020CFE7002FD8D1012733
:1034F00009F101008146B0F5007FD0D3BCE72DE98A
:10350000FF4107460D4600213846FDF777FD064688
:10351000022E06D0032E00D21DB9304604B0BDE8FD
:10352000F08100BF00240AE007F5FD7101EB0411F2
:1035300001F1080005F0C9FA4DF82400641C042CC0
:10354000F2D30DB1681E00E00020044600BF5DF814
:10355000240028B15DF824103846FDF74FFD00E047
:10356000032006462DB9022E03D3601C044604280E
:10357000EDD33046D2E72DE9F3410446276802E057
:103580000198401C0190019800782F28F8D00198EC
:1035900000785C28F4D00020A060E06101980078F9
:1035A000202808D280214B20015500212046FEF71B
:1035B000EAFD05463EE000BF01A92046FEF738F8C7
:1035C000054605B135E02046FEF703FB05464B20D6
:1035D000065D3DB1042D04D100BF06F0040000B922
:1035E000052526E006F0040000B122E0A07900F0F5
:1035F000100008B905251CE0387804280ED1A06811
:103600002062206920F0FF00E17908436062E06CED
:10361000A0622146384601F0EFFA09E0208EC0F39F
:10362000080207F13C001118384605F03BFAA0608B
:10363000C2E700BF2846BDE8FC81000010B50024A9
:103640000FE0601CC4B221224FF440010A4806F08A
:1036500075FE09480078AA2800D104E01420FEF77E
:10366000EBF90A2CEDDB00BF03480078AA2801D053
:10367000012010BD0020FCE780C0002000BF054AEB
:10368000126802F04002002AF9D0C2B2014B1B1DA1
:103690001A607047003801402DE9FF4F83B007469C
:1036A00091461E4604980168396041687960018935
:1036B0003981807AB872052E19D9B04612E039F8EE
:1036C00002BB00240CE0584668F35F0080464FEAD6
:1036D0006B0B08F4803010B1234888EA0008641CA2
:1036E000102CF0D3B9F800000028E8D14646072492
:1036F00000BF06F00F0000F1300A3609BAF1390FA9
:1037000003DD0AF1070000F0FF0A2046641E01A94C
:1037100001F800A00CB1002EEBD17E2001A90855C4
:10372000002509E0785DFEF733F920B1601EA8425C
:1037300000D106E06D1C6D1CA54202D2785D2028E8
:10374000F0D100BF00BF082C04D22046641C01A9A0
:10375000085C00E0202029466D1C7854082DF2D327
:1037600007B0BDE8F08F0000211001002DE9FC5FDB
:1037700006460C463568022C02D3E869A04202D8FE
:103780004FF00109B9E04FF0FF392878012806D041
:10379000022830D0032841D004287CD152E02746AB
:1037A00007EB5707A86A00EB5721284606F050FCA4
:1037B00000B1A1E038467F1CC0F3080105F13C00D0
:1037C00010F80180A86A00EB5721284606F040FC5B
:1037D00000B191E0C7F3080105F13C00405C48EA04
:1037E000002804F0010010B14FEA181001E0C8F3FE
:1037F0000B00814680E0A86A00EB1421284606F001
:1038000027FC00B178E040F2FF1101EA440205F123
:103810003C01501805F096F981466DE0A86A00EB6E
:10382000D411284606F014FC00B165E040F2FF1107
:1038300001EA840205F13C01501805F046F920F038
:10384000704959E00023D6E904105940584001431B
:1038500001D0B06808B9F07990BBB068A4EB000A59
:10386000D6E904305A1E60F10000CDE900204FF483
:1038700000720023DDE90001FCF7F5FC6989B0FB6B
:10388000F1FBF07902280AD1DA4508D8DA4503D1EC
:103890006FF0004001E02CE0601C81462CE0F079E4
:1038A000032805D1B069504502D904F1010923E08C
:1038B000F079022819D0F06918B16FF0004913E0CF
:1038C00014E0A86A00EBD411284606F0C1FB00B151
:1038D00012E040F2FF1101EA840205F13C015018A8
:1038E00005F0F3F820F0004906E000BF4FF00109B1
:1038F00002E04FF0010900BF00BF4846BDE8FC9F51
:10390000002070472DE9FC5F80460C46D8F80090F7
:103910000020A076D8F8380008B9BDE8FC9F99F8D7
:103920000000042874D10020009040270025824622
:1039300030E0B7F5187F01D3002532E007F01F0013
:1039400000B9BF1CD9F81010C81905F0FBF80646DD
:10395000BF1C0098401C0090BAF1000F07D1B6F5CB
:10396000584F04DBB6F5604F01DAB24612E0C5F1FC
:10397000FF0204F11A03591946EA0A4007F01AF93E
:103980008346BBF1000F01D100250AE05D444FF0F2
:10399000000A00BFD9F8100090F823100098814267
:1039A000C7D800BFBAF1000F00D000252DB93F22C3
:1039B00028466D1C04F11A010A54002104F11A0072
:1039C000415500206073D9F81000007900F03700ED
:1039D0002073207B00F0100010B10020014605E0AC
:1039E000D9F8101001F1380005F07BF8C4E90001A6
:1039F000D9F8101001F10C0005F0A4F86081D9F895
:103A0000101001F10E0005F09DF8208185E7FFE719
:103A1000D8F84C00401CB0B300252F46AA4623E03E
:103A200038467F1CD9F80C2032F81060BAF1000F2C
:103A300007D1B6F5584F04DBB6F5604F01DAB24650
:103A400012E0C5F1FF0204F11A03591946EA0A40CF
:103A500007F0B0F88346BBF1000F01D1002509E063
:103A60005D444FF0000A00BFD9F80C0030F8170091
:103A70000028D5D100BFBAF1000F00D000250021E9
:103A800004F11A0041550020054607461AE0384661
:103A90007F1CD8F83C20165C202E00D112E0052EA9
:103AA00000D1E526092F07D10C2D05D22E2228465C
:103AB0006D1C04F10D010A5428466D1C04F10D0122
:103AC0000E5400BF0B2FE2D3002104F10D0041552D
:103AD000A07EA8BB35B93F2228466D1C04F11A010F
:103AE0000A5423E00020054607460820019018E00C
:103AF00004F10D00C65D2E2E01D110200190412E43
:103B00000ADB5A2E08DCD8F83C00007B01990840FB
:103B100010B106F1200086B204F11A0046557F1C50
:103B20006D1C04F10D00C05D0028E1D1002104F1FD
:103B30001A004155D8F83C00007B08B9002060739A
:103B4000D8F83C00C07A00F03F002073D8F83C1051
:103B500001F11C0004F0B9FF0021C4E90001D8F80C
:103B60003C1001F1160004F0EDFF6081D8F83C1024
:103B700001F1180004F0E6FF208100BFCDE670B52A
:103B800004464FF0FF3026683146324601B970BD19
:103B900000BF12F8013B202B01D33A2BF9D13A2B6D
:103BA00011D102250E78302E08DB0E78392E05DC77
:103BB0008E1C964202D10E78A6F13005022D01DA54
:103BC00028462260E3E7002000BFE0E73EB5044658
:103BD0006B46062201A92046FFF7F5F805460DB110
:103BE00001203EBD9DF80400472817D19DF805002F
:103BF000492813D19DF8060046280FD19DF80700EB
:103C000038280BD19DF80800372803D09DF808000C
:103C1000392803D19DF80900612801D00220E0E78E
:103C20000020DEE70FB42DE9F84F0746884614461A
:103C3000617904F1100000EB4100B0F800B0BDF86C
:103C4000380010B1BDF83A0018B9BDE8F80F5DF8BA
:103C500014FBB4F80900BDF8361088422ADDBDF81F
:103C6000340038441FFA80F9BDF8360040441FFA8A
:103C700080FABDF834003844BDF838100844401EBE
:103C800085B2B4F809004044401E86B2A94511DA55
:103C9000B2450FDAB5F5A07F0CDAB6F5A07F09DAE8
:103CA0005C48CDF800B033462A465146D0F808C0EB
:103CB0004846E047B4F80700BDF8341088422ADDD2
:103CC000BDF8340038441FFA80F9BDF8360040448E
:103CD0001FFA80FAB4F807003844401E85B2BDF8D8
:103CE00036004044BDF83A100844401E86B2A9454B
:103CF00011DAB2450FDAB5F5A07F0CDAB6F5A07F80
:103D000009DA4448CDF800B033462A465146D0F887
:103D100008C04846E047B4F80910B4F80D0008445C
:103D2000BDF83610BDF83A201144884232DABDF8A9
:103D3000340038441FFA80F9B4F8090000EB080198
:103D4000B4F80D000844401E1FFA80FABDF8340094
:103D50003844BDF838100844401E85B2BDF836001E
:103D60004044BDF83A100844401E86B2A94511DA15
:103D7000B2450FDAB5F5A07F0CDAB6F5A07F09DA07
:103D80002448CDF800B033462A465146D0F808C042
:103D90004846E047B4F80710B4F80B000844BDF8F3
:103DA0003410BDF838201144884231DAB4F80700E5
:103DB000C119B4F80B000844401E1FFA80F9BDF881
:103DC000360040441FFA80FABDF834003844BDF88C
:103DD00038100844401E85B2BDF836004044BDF896
:103DE0003A100844401E86B2A94511DAB2450FDAEE
:103DF000B5F5A07F0CDAB6F5A07F09DA0548CDF855
:103E000000B033462A465146D0F808C04846E0473D
:103E100000BF1AE7CCC000202DE9F84F81460E46BE
:103E200017469846DDF828A00025002000904FF4A2
:103E3000167006F0D6FD8346BBF1000F00D11125A8
:103E40004FF4836006F0CDFD044604B9112543F616
:103E5000F44006F0C6FDC4F81404D4F8140400B904
:103E60001125002D5FD1012249465846FEF7C6FDB7
:103E70000546002D54D15846FFF7A8FE00B127256E
:103E80002146584600F04AFA00B1272520884045CF
:103E900002DC6088504501DD28250FE02188A8EB71
:103EA000010000EBD07106EB61018EB26188AAEBD4
:103EB000010000EBD07107EB61018FB201202049B6
:103EC000087027E03B4632462146584600F046F946
:103ED0000546E07B00F0800010B1204600F09CFD1C
:103EE000B4F8120418B1B4F81204009001E00A20EA
:103EF000009002E00A20FDF79FFD0098411E89B264
:103F0000009118B10E4800780028F3D1022D01D19C
:103F1000002504E00A48007808B1002DD2D000BF87
:103F20005846FEF703FB584606F054FDD4F8140437
:103F300006F050FD204606F04DFD2846BDE8F88FFE
:103F4000540000202DE9FF4F8BB00C469A46DDF857
:103F500060B0B4F80B000490B4F80D0003900D9914
:103F600004980844401E0590617904F1100000EBAC
:103F700041000088019004F1100000900AAB01227A
:103F800009A90B98FEF71FFF9DF82410204600F0AA
:103F900087FCE07B00F04000069000200890564629
:103FA0000790CEE000277D1EDDF8348082E0D4F853
:103FB000140400F54050D0F8BC0CD4F8141443F2AB
:103FC0000212114488420FD9D4F8140400F540506D
:103FD000D0F8BC0C401ED4F8141401F54051C1F8BF
:103FE000BC0C90F8009004E021460B9800F0B9F961
:103FF000814609F1020018B900200FB0BDE8F08F2A
:10400000B9F1000F03DBB4F81004484501DC0120CE
:10401000F3E7A94504D10598804501DC7F1C46E003
:104020003FB35D4514D0DDF800E03EF8153007F1F0
:10403000010E1FFA8EF2B1B2A8EB070EAEF1010E1F
:104040001FFA8EF0DFF808E1DEF80CC0E0470EE062
:10405000199802280BD17B1C9AB2B1B2A8EB0703C6
:104060005B1E98B23A4BD3F80CC0019BE047002787
:104070001DE0002D1BDB5D450ED0DDF800C03CF8D7
:104080001520B1B2A8F1010C1FFA8CF0DFF8C0C006
:10409000DCF8043098470AE01998022807D1B1B239
:1040A000A8F1010290B22A4A5368019A98474D46F6
:1040B00008F10108059880457FF779AF5D4502D189
:1040C0001998022825D15D4504D0009830F81500D4
:1040D000029001E001980290A7B1DDF808E01FFA14
:1040E0008EF307F1010E1FFA8EF2B1B2A8EB070EA4
:1040F000AEF1010E1FFA8EF0DFF854E0DEF80CC0CE
:10410000E04706E0B1B2059A90B2114A5368029AAC
:104110009847069888B10F490798085C0644A6EBB3
:104120000A010398814209DB0798401C07900A495D
:104130000798085C00EB0A0600E0761C0898401C13
:104140000890039908988842FFF62CAF002054E7A6
:10415000CCC00020861C01088A1C01082DE9F04310
:104160008BB080460C4615461E464FF0FF3004903B
:1041700000BF0AAB012203A94046FEF724FE074612
:104180001FB101200BB0BDE8F0839DF80C00212881
:104190007BD02C2802D03B286CD174E0B4F8070007
:1041A000ADF81800B4F80900ADF81A00B4F80B0027
:1041B000ADF81C00B4F80D00ADF81E000AAB0922E2
:1041C000E11D4046FEF7FFFD07460FB10120D9E78C
:1041D000E07B00F0800088B1204600F030FCE07BFE
:1041E00000F00701022088401FFA80F94A46214664
:1041F000404600F0A1FB08B10120C3E79DF8140080
:1042000002280BD1079800909DF820008DF804003B
:10421000224631462846069BFFF704FD9DF8140010
:104220000499CDE90010B4F80900304483B2B4F821
:104230000700284482B221464046FFF783FE17E07C
:104240000AAB012209A94046FEF7BDFD9DF82400F6
:1042500000B910E0D8F838000A909DF824200A9898
:1042600081180A4600234046FEF773F900B102E0C8
:10427000E6E70AE014E000BF9DF8240008B1012041
:1042800080E700207EE702207CE705AB04AA2146F8
:10429000404600F071FB07460FB1012072E701E0D4
:1042A00001206FE700BF9DF80C003B287FF461AF51
:1042B000002067E72DE9FC4105460E4617466B4690
:1042C000012201A92846FEF77EFD9DF8040010B3E7
:1042D000C6B19DF80400B8420CDDAC6B9DF804003B
:1042E00021180A4600232846FEF733F99DF80400FA
:1042F000BDE8FC816B469DF8042031462846FEF758
:1043000062FD08E0AC6B9DF8040021180A4600230A
:104310002846FEF71EF99DF80400E9E7F8B50546C2
:104320000C466B46072221462846FEF74CFD064602
:104330000EB10120F8BD207900F0800078B120791D
:1043400000F0070102208840A4F81004B4F81024FB
:104350002146284600F0F0FA08B10120EAE70020E3
:10436000E8E72DE9F04180460C469DE1D4F81404BD
:1043700000F54050D0F8E40CA8427DD1D4F81404E4
:1043800000F54050D0F8E40CB0F5805F03DB4FF04F
:10439000FF30BDE8F081D4F8141401F581704FF4BA
:1043A0000052002105F030FF002606E0D4F8141476
:1043B00042F2021211448E55761CD4F8140400F512
:1043C0004050D0F8E40CB042F0DC04F21444206811
:1043D00000F54050D0F8D80C401C216801F5405140
:1043E000C1F8D40C206800F54050D0F8E40C41002E
:1043F000206800F54050C0F8E01C206800F54050EF
:10440000D0F8E40C801C216801F54051C1F8DC0CA7
:10441000206843F202110144A4F2144400F5405014
:10442000C0F8BC1C00BF2146404600F047F9D4F854
:10443000141401F54051C1F8EC0CD4F8140400F543
:104440004050D0F8EC1CD4F8140400F54050D0F8DB
:10445000E40C8142E7D0D4F8140400F54050D0F8C1
:10446000EC1CD4F8140400F54050C0F8F01CD4F84B
:10447000140400F5405000E002E0D0F8EC0C88E7AE
:10448000D4F8140400F54050D0F8E80CA84202D14A
:104490006FF001007DE72F46D4F8140400F540507A
:1044A000D0F8DC0CA8421EDC04F21444206800F5AD
:1044B000405090F8EC2C206800F54050D0F8BC3CFF
:1044C000206800F54050D0F8BC1C491C206800F55D
:1044D0004050C0F8BC1C1A702068A4F2144400F5C7
:1044E0004050D0F8F05C3AE004F21444206842F204
:1044F00002110844425D206800F54050D0F8BC3CF1
:10450000206800F54050D0F8BC0C401C216801F533
:104510004051C1F8BC0C1A702068A4F2144400F594
:10452000817030F91500A84201D1284631E7D4F84E
:10453000140400F54050D0F8BC0CD4F8141443F225
:1045400002121144401A40F6B831884201D328467D
:104550001FE7D4F8140400F5817030F91550D4F831
:10456000140400F54050D0F8E40CA842BCDD04F27D
:104570001444206842F202110844425D206800F5AC
:104580004050C0F8EC2C206800F54050D0F8BC3CFE
:10459000206800F54050D0F8BC0C411C206800F5A4
:1045A0004050C0F8BC1C1A702068A4F2144400F5F6
:1045B0004050D0F8DC0C0546B0F5805F52DA04F2CA
:1045C0001444206800F54050B0F8F00C01B22068A7
:1045D00000F5817020F81510206800F5405090F823
:1045E000EC0C216842F2021211444855206800F593
:1045F0004050D0F8DC0C401C216801F54051C1F856
:10460000DC0C206800F54050D0F8DC1C2068A4F2D7
:10461000144400F54050D0F8E00C814222DBD4F87D
:10462000140400F54050D0F8E00CB0F5805F19DAC2
:10463000D4F8140400F54050D0F8E00C4100D4F850
:10464000140400F54050C0F8E01CD4F8140400F540
:104650004050D0F8D40C401CD4F8141401F540514B
:10466000C1F8D40CD4F8140400F54050C0F8F07C24
:10467000D4F8140400F54050D0F8BC0CD4F814144D
:1046800043F20212114488420ED9D4F8140400F502
:104690004050D0F8BC0C401ED4F8141401F5405121
:1046A000C1F8BC0C007874E62146404600F006F8DC
:1046B000051EBFF65BAE28466BE600002DE9F0470D
:1046C00082460C46D4F8140400F54050D0F8D00CC3
:1046D00070B10021D4F8140400F54050C0F8D01C8B
:1046E000D4F8140400F54050D0F8E40CBDE8F0878D
:1046F000D4F8140400F54050D0F8C01CD4F81404C9
:1047000000F54050D0F8D40C01EB0009D4F81404A3
:1047100000F54050D0F8C40C48455FDCD4F81404D0
:1047200000F54050D0F8C80C10B14FF0FF30DDE775
:1047300004F21444216843F6CC404058801E085CC3
:104740000870216843F6CC404058401E085C487011
:104750002068A4F21444811C4FF496725046FFF76F
:10476000A9FD071E06D10121D4F8140400F540501C
:10477000C0F8C81C002F02DA4FF0FF30B6E7B81CB3
:1047800004F21444216801F54051C1F8CC0C2068B2
:1047900000F54050D0F8C01C206800F54050D0F81B
:1047A000C40C081A1030216801F54051C1F8C00C42
:1047B000B81CC100206800F54050C0F8C41C206837
:1047C00000F54050D0F8C01C2068A4F2144400F555
:1047D0004050D0F8D40C01EB000900BF4FEAE908C3
:1047E000D4F8140400F54050D0F8C00CC51045456D
:1047F00003D1D4F81404465D19E0681C404508D183
:10480000D4F81404415D0246681C105C41EA00269D
:104810000DE0D4F81404415D0246681C105C41EAC6
:104820000021D4F81424A81C105C41EA004604F2CC
:104830001444206800F5405090F8C00C00F00701C7
:1048400046FA01F0216801F54051D1F8D41C0C4A18
:1048500032F8111000EA0106206800F54050D0F847
:10486000C01C206800F54050D0F8D40C01442068EA
:10487000A4F2144400F54050C0F8C01C304635E79F
:10488000661C010810B501460878C20848788308FC
:104890008878C40804EB431000EBC22080B210BD3E
:1048A00070B504460D4604F21444206843F6F44201
:1048B000002105F0A9FC206800F54050C0F8D85C44
:1048C000681C216801F54051C1F8D40C0120A840B2
:1048D000216801F54051C1F8E40C0120A840401CBA
:1048E000216801F54051C1F8E80C0120A840801C66
:1048F000216801F54051C1F8DC0C0120A8404100BD
:10490000206800F54050C0F8E01C0121206800F547
:104910004050C0F8D01C0221206800F54050C0F87B
:10492000CC1C206843F202110144A4F2144400F5A7
:104930004050C0F8BC1C70BD2DE9FC4180460E46BD
:104940001746002414E06B46032201A94046FEF7F7
:104950003AFA054615B10120BDE8FC8101A8FFF730
:1049600091FF06F1100101EB44010880601C84B244
:10497000BC42E8DB0020EFE7FEB507460C461546D3
:104980001E4601AB012202A93846FEF71CFA9DF82B
:104990000800012806D0F92811D0FE2804D0FF28ED
:1049A00038D100E000BF00BF00BF4FF4807200218B
:1049B0003846FFF77FFC0028F7DC0020FEBD04220C
:1049C00069463846FFF776FC042801D00120F5E758
:1049D0009DF801009DF8021040EA0120A4F812049D
:1049E0009DF80000C0F3820030709DF8000000F0D8
:1049F000010010B19DF80300286001AB012202A95B
:104A00003846FEF7E0F99DF8080008B10120D5E727
:104A10000020D3E70120D1E70146002000BF0BE0D2
:104A200001F5047202EB4002138801F1100202EB5F
:104A300040021380421C90B2FF28F1DD704701460E
:104A4000002000BF0BE001F1100202EB40021388CE
:104A500001F5047202EB40021380421C90B2FF2861
:104A6000F1DD70472DE9F04F87B004460E469046C1
:104A7000D4F800A0D4F804B000200690207BC11721
:104A800000EBD1614911A0EB41170120B840401E55
:104A9000216E0140019131E094F8640008B1FF25D6
:104AA00026E0BAF1000F11D1D4F808B04FF48062BB
:104AB00059462046D4F88C3098478246BAF1000F08
:104AC00004D16FF0010007B0BDE8F08F1BF8015B67
:104AD000AAF1010A069830B1002006900DB184F8C1
:104AE0006450FF2504E0FF2D02D10120069005E06F
:104AF000019845EA00200190083700BF102FCBD362
:104B0000C4F800A0C4F804B001982066A7F10A0117
:104B1000019820FA01F5B8F1000F0ED004F16C00F5
:104B200050F8260030F815504FF6FF70854211D02E
:104B3000A7EB15202073E8B2C5E704F1740050F824
:104B40002600455DFF2D05D0A7EB1510207305F05D
:104B50000F00B8E704F1200000EBC60050F8280071
:104B60000A30059004F1300000EBC60050F8281020
:104B700004F1650000EB460010F8080001EB40006E
:104B8000039004F1400000EBC60050F8281004F137
:104B9000650000EB460010F80800084404904FF050
:104BA0000B0923E00598007802900598401C0590B9
:104BB0000298C8B1A7EB0901019820FA01F500BFDE
:104BC000039830F8021B0390A94205D1A7EB090016
:104BD00020730498007876E70498401C04900298AB
:104BE000401E02900028EBD109F10109B9F1100F24
:104BF000D8D96FF0050066E770B505460C462969FF
:104C000001F1340003F061FFA060296901F138006F
:104C100003F067FFC4E90401286990F8210000F05F
:104C20000200E0710020E06170BD2DE9F74F82B015
:104C300004461746032F03DD052005B0BDE8F08FBD
:104C40006773A07B4FEAC009E07B4FEAC00A0021EE
:104C5000A182E18221838B46CDF804B00025002695
:104C60002FE04FF0000828E0608BA0B15846411CAF
:104C70001FFA81FB618B88420DD10198421C92B2D0
:104C800001462046019206F05EF805460DB1284621
:104C9000D3E74FF0010B204604F09EFA05460DB114
:104CA0002846CAE7334642462046039904F07AFB79
:104CB00005460DB12846C0E7C844A08B4045D3D86F
:104CC0005644E08BB042CCD82846B6E72DE9FF4FDA
:104CD00081B0044694212046FBF7EFFD039844F889
:104CE000840F049860600298A0600E98E060843C95
:104CF0004FF480612046FBF784FF0546A0601DB994
:104D0000032005B0BDE8F08F4FF00009CA4600BF90
:104D1000012229462046D4F88C309847012801D03A
:104D20000220EEE709F10109287840EA0A201FFA7B
:104D300080FA4FF6D8708245EAD100BF0422294696
:104D40002046D4F88C309847042801D00220D8E7B8
:104D50006878297840EA012AE878A97840EA0126AB
:104D6000022E03D9FF20B0EB2A2F01D00620C8E77E
:104D7000B61E301D81440AF0FF00C0381E2872D2D2
:104D8000DFE800F00FF3F2F178F0EFEE71EDECEB0D
:104D900071EAE9E8717171717171717171E7AC92C9
:104DA0007162B6F5806F01D90420AAE73246294620
:104DB0002046D4F88C309847B04201D00220A0E7BA
:104DC0002879E97840EA0120A083A878697840EA48
:104DD0000120E0836879E074E07C032804D0E07C63
:104DE000012801D008208CE7002729E007EB4700C5
:104DF000C01D15F800808FB9B8F1110F07D0B8F1B8
:104E0000220F04D0B8F1210F01D0082079E74FEA32
:104E10002810A07308F00F00E07304E0B8F1110F40
:104E200001D008206DE707EB47000830295C04F14A
:104E30001000C155C05D032801DD082061E77F1C1B
:104E4000E07CB842D2D8EFE0B6F5806F01D90420FB
:104E500057E7324629462046D4F88C309847B0426E
:104E600002D002204DE7D4E06878297840EA01209A
:104E70006083D9E0B6F5806F01D9042041E732465E
:104E800029462046D4F88C309847B04201D0022001
:104E900037E7324629462046FCF7A2FA00900098F0
:104EA00008B100982DE7BFE0B6F5806F01D9042066
:104EB00027E7324629462046D4F88C309847B0423E
:104EC00001D002201DE7324629462046FCF7DEFCD1
:104ED0000090009808B1009813E7A5E0B6F5806F40
:104EE00001D904200DE7324629462046D4F88C30FB
:104EF0009847B04201D0022003E7A08B08B1E08BB5
:104F000008B90620FDE62878E17C884201D0082017
:104F1000F7E6002734E07800801C15F80080B8F12F
:104F2000000F04D0B8F1110F01D00820E9E60FB14D
:104F3000012000E00020834604F1200050F83B00EF
:104F400028B104F1200000EBCB00406870B90620C6
:104F5000D7E65CE05AE058E056E054E052E050E01A
:104F60004EE04CE04AE048E046E044E004F1100046
:104F7000C15D403050F8210008B90620C1E67F1C11
:104F8000E07CB842C7D8E07BA17B00FB01FBBBF112
:104F9000000F01D10620B4E6402101EBCB16FF2E15
:104FA00000D88E0031462046FBF72BFEE067E06F0D
:104FB00008B90320A5E60BF10200C1012046FBF76A
:104FC00020FEC4F88000D4F8800008B9032098E6D9
:104FD000C9F30900B0F1000908D0C9F5806205EBFA
:104FE00009012046D4F88C309847206005EB090071
:104FF0006060002085E600BF00BF00BF00BF00BFAB
:1050000000BF00BF00BF00BF00BF00BF00BF08203F
:1050100077E6324600212046D4F88C309847B042DB
:1050200001D002206DE600BF88E6000010B50648FA
:10503000006805F0CFFC0548006805F0CBFC04488B
:10504000006805F0C7FC10BD580000205C0000207F
:10505000600000202DE9F84305460E461446D5F8B9
:1050600090904EB16B46224631464846FDF7ABFE66
:10507000BDF80000BDE8F883D9E90E20171940F10A
:1050800000033A464846FDF764FA08B92046F1E7BE
:105090000020EFE710B54FF4167005F0A2FC0F49A1
:1050A00008600846006808B9112010BD942005F07A
:1050B00098FC0B4908600846006808B91120F4E71D
:1050C0004FF4205005F08DFC064908600846006842
:1050D00008B91120E9E70020E7E7000058000020A8
:1050E0005C000020600000202DE9F84381460D4659
:1050F00014462E4660882188401A401C87B2E088FA
:10510000A188401A401C1FFA80F80096A288094B1B
:105110009B8B1A4491B22288064B1B8B1A4490B287
:10512000054A4346D2F810C03A46E0470020BDE8A1
:10513000F8830000A4C00020CCC000202DE9F84F67
:1051400088461446B4F800904FF0000A454660883F
:105150002188401A401C1FFA80FBE088A188401A71
:10516000401C80B2009000263DE02248C068A18823
:1051700031444843C0F34F3A00225146484605F0B7
:1051800015FC10B905EB4B052BE0002726E019486C
:10519000C068218839444843C0F34F390122514641
:1051A000484605F003FC08B9AD1C15E02A88DFF875
:1051B00044C0BCF81CC0D4441FFA8CF1DFF834C0E2
:1051C000BCF818C0CC441FFA8CF0DFF82CC0DCF817
:1051D00004309847AD1C00BF781C87B25F45D6DB12
:1051E00000BF701C86B200988642BEDB0020BDE87E
:1051F000F88F0000A4C00020CCC000202DE9F843A7
:1052000006460F460025FFF745FF0546002D64D1F1
:105210000122314633480068FDF7F0FB0546002DBA
:1052200057D1304800684FF4205300902E482F4942
:1052300002682F480068FFF749FD0546DFF8B48093
:10524000002D46D1002427E029480068808B2041AA
:105250002949496988421DD825480068C08B2041EA
:1052600025490969884215D821480068808B20416A
:105270002149496988420AD01D480068C08B2041F5
:105280001D490969884202D00CB1002401E0DFF811
:105290006C8003E0601CC4B2042CD5DB00BF042C7E
:1052A00000D100240FB9DFF84C8011480068C08B92
:1052B0002041114988600E480068808B2041486079
:1052C00005F02AFA2246414609480068FFF7ADFC7E
:1052D000054604480068FDF729F9FFF7A7FE2846B0
:1052E000BDE8F883580000206000002055500008F9
:1052F0005C0000203D510008A4C00020E9500008D7
:105300001CB500BF2048806940F040001E498861FC
:1053100000BF00BF0846806940F04000886100BFC0
:1053200000BF0846806940F04000886100BF00BFB0
:105330000846806940F00400886100BF01200090A9
:1053400000231A4610210190104807F07DFA012031
:10535000009000231A46082101900C4807F074FAC7
:105360000120009000231A4604210190074807F00D
:105370006BFA0220012100231A46CDE900100448EF
:1053800007F062FA1CBD0000001002400018014046
:105390000008014070B50446002514B101202B49D6
:1053A00008702A480078002834D01021284807F0D7
:1053B00037FA78B10821264807F032FA50B10421B3
:1053C000234807F02DFA28B10121224807F028FAD6
:1053D00001281FD10A20FCF72FFB00201B49087071
:1053E00010211B4807F01CFA00B9012508211848B4
:1053F00007F016FA00B902250421154807F010FA43
:1054000000B903250121134807F00AFA01281BD12E
:10541000042519E010210E4807F002FA012813D1E3
:1054200008210B4807F0FCF901280DD10421084898
:1054300007F0F6F9012807D10121064807F0F0F935
:1054400010B9012001490870284670BD14000020E1
:10545000001801400008014070B5044600260948C4
:105460000588408845430021084603F061F903F0B0
:1054700007FB00BF02E004480480761CAE42FAD36A
:1054800070BD0000640200200008006C2DE9F84F98
:1054900007460D4690469946DDF828B0A8EB070070
:1054A000401C1FFA80FAA9EB0500401C80B2009056
:1054B000002414E0281981B2384603F039F903F0CA
:1054C000DFFA002607E004FB0A603BF810000649FB
:1054D0000880701C86B25645F5DB601C84B20098CB
:1054E0008442E7DBBDE8F88F0008006C10B5044685
:1054F00058488471002C58D1F020564908804FF448
:10550000A07048800846808845F21051884210D12A
:105510004FF430504F4908814FF4285048814FF4E0
:105520002C5088814FF4F07008804FF44870488008
:105530001AE04848808841F6631188420DD12C203A
:10554000444908812B2048812A2088814FF4F0703B
:1055500008804FF44870488006E02C203D490881BF
:105560002A2048812B2088813A48808845F21031D2
:10557000884205D03748808847F29671884206D124
:105580004FF4A070334908804FF4F07048803148E0
:10559000808849F60601884258D14FF4F0702D49B1
:1055A00008804FF44870488050E04FF4A0702949BB
:1055B0000880F02048800846808845F210518842D3
:1055C00010D14FF43050234908814FF428504881BE
:1055D0004FF42C5088814FF4487008804FF4F070DD
:1055E000488020E01B48808841F66311884205D03E
:1055F0001848808849F6060188420DD12C201549AB
:1056000008812A2048812B2088814FF44870088027
:105610004FF4F070488006E02C200E4908812A20C3
:1056200048812B2088810B48808845F210318842C0
:1056300005D00848808847F29671884206D14FF419
:10564000F070044908804FF4A0704880002002F0F8
:1056500051FF10BD64020020F8B504460D46164601
:105660001F463EB109480088A04203DB0748408836
:10567000A84200DAF8BDA019401E82B22B46294686
:105680002046009702F068FC00BFF3E764020020A8
:1056900070B505460E4614463146284603F048F8D4
:1056A00003F0EEF901490C8070BD00000008006CA9
:1056B00010B5CF2003F0D8F9002003F0C9F9C120BC
:1056C00003F0C6F9302003F0C3F9ED2003F0CCF964
:1056D000642003F0BDF9032003F0BAF9122003F0AF
:1056E000B7F9812003F0B4F9E82003F0BDF9852073
:1056F00003F0AEF9102003F0ABF97A2003F0A8F91B
:10570000CB2003F0B1F9392003F0A2F92C2003F0EB
:105710009FF9002003F09CF9342003F099F902204E
:1057200003F096F9F72003F09FF9202003F090F999
:10573000EA2003F099F9002003F08AF9002003F031
:1057400087F9C02003F090F91B2003F081F9C120F4
:1057500003F08AF9012003F07BF9C52003F084F9F6
:10576000302003F075F9302003F072F9C72003F000
:105770007BF9B72003F06CF9362003F075F9482067
:1057800003F066F93A2003F06FF9552003F060F951
:10579000B12003F069F9002003F05AF91A2003F050
:1057A00057F9B62003F060F90A2003F051F9A2205E
:1057B00003F04EF9F22003F057F9002003F048F906
:1057C000262003F051F9012003F042F9E02003F014
:1057D0004BF90F2003F03CF92A2003F039F9282077
:1057E00003F036F9082003F033F90E2003F030F906
:1057F000082003F02DF9542003F02AF9A92003F022
:1058000027F9432003F024F90A2003F021F90F209F
:1058100003F01EF9002003F01BF9002003F018F933
:10582000002003F015F9002003F012F9E12003F045
:105830001BF9002003F00CF9152003F009F91720DB
:1058400003F006F9072003F003F9112003F000F933
:10585000062003F0FDF82B2003F0FAF8562003F0A1
:10586000F7F83C2003F0F4F8052003F0F1F81020DD
:1058700003F0EEF80F2003F0EBF83F2003F0E8F818
:105880003F2003F0E5F80F2003F0E2F82B2003F0AF
:10589000EBF8002003F0DCF8002003F0D9F8012039
:1058A00003F0D6F83F2003F0D3F82A2003F0DCF809
:1058B000002003F0CDF8002003F0CAF8002003F028
:1058C000C7F8EF2003F0C4F8112003F0CDF87820DA
:1058D000FCF7B2F8292003F0C7F810BD10B5FF207F
:1058E00003F0C2F8FF2003F0B3F8982003F0B0F8FB
:1058F000062003F0ADF8BC2003F0B6F8012003F059
:10590000A7F80F2003F0A4F8612003F0A1F8FF200E
:1059100003F09EF8012003F09BF8012003F098F8B3
:105920000B2003F095F8102003F092F8372003F0D5
:105930008FF8632003F08CF8FF2003F089F8FF2034
:1059400003F086F8012003F083F8012003F080F8CB
:10595000002003F07DF8002003F07AF8FF2003F028
:1059600077F8522003F074F8012003F071F800205A
:1059700003F06EF8402003F06BF8BD2003F074F8DC
:10598000012003F065F8232003F062F8452003F0BE
:105990005FF8672003F05CF8012003F059F823203A
:1059A00003F056F8452003F053F8672003F050F851
:1059B000BE2003F059F8002003F04AF8012003F05C
:1059C00047F8AB2003F044F8602003F041F82220B0
:1059D00003F03EF8222003F03BF8222003F038F8D1
:1059E000222003F035F8222003F032F8C72003F01C
:1059F0003BF8362003F02CF8ED2003F035F87F203B
:105A000003F026F80F2003F023F8C02003F02CF851
:105A10000F2003F01DF80B2003F01AF80A2003F002
:105A200017F8FC2003F020F8082003F011F8DF201D
:105A300003F01AF8002003F00BF8002003F008F838
:105A4000002003F005F8002003F002F8002002F027
:105A5000FFFF202002F0FCFFF32003F005F8742084
:105A600002F0F6FFB42002F0FFFF002002F0F0FF8A
:105A7000002002F0EDFF002002F0EAFFF72002F024
:105A8000F3FF822002F0E4FFB12002F0EDFF0020DE
:105A900002F0DEFF132002F0DBFF132002F0D8FF3C
:105AA000F22002F0E1FF802002F0D2FF042002F099
:105AB000CFFF402002F0CCFF282002F0C9FFC12018
:105AC00002F0D2FF172002F0C3FF882002F0C0FFCF
:105AD000882002F0BDFF202002F0BAFFE02002F093
