:020000040800F2
:1000000058370020F1010008F5010008F701000849
:10001000F9010008FB010008FD01000800000000D4
:10002000000000000000000000000000FF010008C8
:100030000102000800000000030200080502000899
:10004000070200080702000807020008070200086C
:10005000070200080702000807020008070200085C
:10006000070200080702000807020008070200084C
:10007000070200080702000807020008070200083C
:10008000070200080702000807020008070200082C
:10009000070200080702000807020008070200081C
:1000A000070200080702000807020008070200080C
:1000B00007020008070200080702000807020008FC
:1000C00007020008070200080702000807020008EC
:1000D000070200082D1E000807020008070200089A
:1000E00007020008070200080702000807020008CC
:1000F00007020008070200080702000807020008BC
:1001000007020008070200080702000807020008AB
:100110000702000807020008011E00080702000885
:10012000070200080702000807020008070200088B
:1001300000F002F800F04DF80AA090E8000C8244AC
:100140008344AAF10107DA4501D100F042F8AFF289
:10015000090EBAE80F0013F0010F18BFFB1A43F0A5
:100160000103184798260100B8260100103A24BF61
:1001700078C878C1FAD8520724BF30C830C144BF0C
:1001800004680C607047000000230024002500264E
:10019000103A28BF78C1FBD8520728BF30C148BFEA
:1001A0000B607047662906F08C82642900F03E855A
:1001B000782900F07785002070471FB501F0E2F83C
:1001C00004000020002105F097FDE0601FBD10B580
:1001D00010BD01F0DFF91146FFF7EFFF05F008FA57
:1001E00001F0FDF903B4FFF7F2FF03BC01F07BFE61
:1001F00008480047FEE7FEE7FEE7FEE7FEE7FEE70A
:10020000FEE7FEE7FEE7FEE703480449044A054B24
:100210007047000031010008583100205837002095
:10022000583300205833002070B51C4906F076F88A
:100230004FF07A5105F0E0FE044606F007F814F19D
:10024000FF4F28BF401E06F03DF8214606F032F968
:10025000092106F06AFA054606F014F8C0F308040E
:10026000204606F047F8294606F024F905460C48D2
:1002700050F8246000EB84004168284606F04EF8F0
:10028000044629464FF07E5006F0A6F9314606F0A6
:1002900045F82146BDE8704005F0AEBE83F9223E28
:1002A000281F010870B504461E4900F1FF4088422E
:1002B0009CBF204670BD1C49204606F02FF805461D
:1002C00005F0C4FF14F1FF4F28BF401E05F0FAFFF0
:1002D000294606F0EFF8092106F027FA054605F051
:1002E000D1FFC0F30804204606F004F8294606F0C2
:1002F000E1F805460D4850F8246000EB84004168A1
:10030000284606F00BF8044629464FF07E5006F0CA
:1003100063F9314606F002F82146BDE8704005F069
:100320006BBE0000CD02CC3383F9223E281F0108AA
:10033000002A08BF70472DE9F04715460E460446CF
:100340004FF0000854F8047B54F8040B014605F004
:10035000E5FF81463946084605F0E0FF494605F0CD
:100360004BFE3746361D10F1FF4F28BFC7F80080FF
:1003700002D205F0D9FA38606D1EE3D1BDE8F087EE
:100380002DE9FF4F9BB004461C9D1695012D9CBF87
:100390001FB0BDE8F08F12950020AD080E900F90B1
:1003A000681E13900E9B1D9A0E980E9952F83320DA
:1003B00009921D9A400002EBC30201445268079261
:1003C0001D9A52F830200C921D9A02EBC000406832
:1003D0000D9052F831000B9002EBC10040680A907A
:1003E0001E990F9E58180E90771907EB050954F8BF
:1003F00036A054F839B009EB05085946504605F0C7
:10040000FBFD01905946504606F0E6F8049004EBD7
:10041000C9001990D0F804B004EBC6001490D0F8CD
:1004200004A05946504605F0E7FD00905946504655
:1004300006F0D2F8039054F8381054F8370005F05D
:10044000DBFD82460146019805F0D6FD44F83600F2
:100450005146019806F0C0F804EBC80B019004EB7C
:10046000C70ADBF80410DAF8040005F0C5FD014600
:100470000690009805F0C0FD014614984160069969
:10048000009806F0A9F80090DBF80410DAF80400F0
:1004900006F0A2F8089054F8381054F8370006F027
:1004A0009BF806900D99009805F038FF15900C996F
:1004B000019805F033FF159905F09EFD44F83700CB
:1004C0000D99019805F02AFF07460C99009805F050
:1004D00025FF394606F080F8CAF804000899049808
:1004E00005F08AFD07460899049806F075F804900F
:1004F0000699039806F070F800900699039805F0A5
:100500007BFD03900799009805F008FF8246384666
:10051000099905F003FF514605F06EFD44F83900D6
:100520003846079905F0FAFE07460999009805F044
:10053000F5FE394606F050F80146199841600A99CF
:10054000039805F0EBFE07460B99049805F0E6FECC
:10055000394605F051FD44F838000A99049805F031
:10056000DDFE07460B99039805F0D8FE394606F0E4
:1005700033F8CBF80400129806441C988642FFF426
:1005800033AF0F981399401C0F9088427FF60AAF43
:100590001E984FF6FF7101EA80001E9016988008A1
:1005A000169001283FF6F7AE1FB0BDE8F08F2DE999
:1005B000FF4F9BB004461C9D1795042D40F20A8105
:1005C00000200E95AD0812900F90681E1490129B9B
:1005D0001D9A1298129952F833200B921D9A4000DE
:1005E00002EBC3020144526806921D9A0F9E52F814
:1005F000302007921D9A02EBC0004068109052F81C
:1006000031000C9002EBC10040680D901E98184418
:100610001290771907EB050854F836A054F838B053
:1006200008EB05095946504605F0E6FC019059468D
:10063000504605F0D1FF059004EBC8001990D0F8A2
:1006400004B004EBC6001590D0F804A059465046FB
:1006500005F0D2FC00905946504605F0BDFF0490CD
:1006600054F8391054F8370005F0C6FC82460146AC
:10067000019805F0C1FC44F836005146019805F098
:10068000ABFF04EBC90B019004EBC70ADBF80410C5
:10069000DAF8040005F0B0FC01460890009805F077
:1006A000ABFC0146159841600899009805F094FF4D
:1006B0000090DBF80410DAF8040005F08DFF0990D3
:1006C00054F8391054F8370005F086FF0890109957
:1006D000009805F023FE16900799019805F01EFE7C
:1006E000169905F079FF44F837001099019805F044
:1006F00015FE07460799009805F010FE394605F0EB
:100700007BFCCAF804000999059805F065FF0746C7
:100710000999059805F070FC05900899049805F072
:100720006BFC00900899049805F056FF0490069918
:10073000009805F0F3FD824638460B9905F0EEFD72
:10074000514605F049FF44F838003846069905F04F
:10075000E5FD07460B99009805F0E0FD394605F0E8
:100760004BFC0146199841600D99049805F0D6FD9F
:1007700007460C99059805F0D1FD394605F02CFF88
:1007800044F839000D99059805F0C8FD07460C9905
:10079000049805F0C3FD394605F02EFCCBF80400A3
:1007A0000E9806441C988642FFF433AF0F98401C05
:1007B0000F90149988427FF60AAF1E984FF6FF718A
:1007C00001EA80001E9017988008179004283FF6D1
:1007D000F7AE00BF1C980026401B4FEA95090E9506
:1007E000CDF81C0006EB090505EB090754F836A007
:1007F00054F837B007EB09085946504605F0FCFBA2
:1008000001905946504605F0E7FE059004EBC700FD
:100810000B90D0F804B004EBC6000C90D0F804A004
:100820005946504605F0E8FB00905946504605F001
:10083000D3FE049054F8381054F8350005F0DCFB72
:1008400082460146019805F0D7FB289905F066FD20
:1008500044F836005146019805F0BEFE04EBC80B83
:10086000019004EBC50ADBF80410DAF8040005F087
:10087000C3FB01460890009805F0BEFB289905F0DF
:100880004DFD01460C9841600899009805F0A4FEC2
:100890000090DBF80410DAF8040005F09DFE0990E2
:1008A00054F8381054F8350005F096FE0890289951
:1008B000019805F033FD44F835002899009805F0BB
:1008C0002DFDCAF804000999059805F085FE8246B9
:1008D0000999059805F090FB05900899049805F092
:1008E0008BFB00900899049805F076FE054650466B
:1008F000289905F013FD44F837002899009805F071
:100900000DFD01460B9841602899059805F006FDFC
:1009100044F838002846289905F000FDCBF804007B
:100920000E9806440798B042BFF45CAF1FB0BDE814
:10093000F08F38B504460D4680782188A389626817
:1009400001280FD02846FFF71BFDE078012818BFCB
:1009500038BDE2892188A36801B02846BDE830404F
:1009600000F05AB8206900902846FFF720FEECE717
:1009700010B40180224C446082704FF0000CC370B0
:10098000B1F5807F20D004DC10292ED0402923D05F
:1009900005E0B1F5806F0FD0B1F5805F04D04FF066
:1009A000FF3C10BC6046704701218181C18115491F
:1009B00081604FF0665116E004218181C1811249A6
:1009C00081604FF06A510EE010218181C1810F4991
:1009D00081604FF06E5106E040218181C1810C4958
:1009E00081604FF072510161DBE74FF480718181CA
:1009F000C181084981604FF076510161D1E7000063
:100A0000289F0008269700082C97000844970008A4
:100A1000A4970008249900082DE9F0074D08012447
:100A20004FF0000C04EB51066146A5F102082CE0E2
:100A300061452AD250F8314050F83C7040F831708E
:100A400040F83C4000EBC10400EBCC07D4F8049024
:100A5000D7F804A0C4F804A0C7F804908F190CEBD1
:100A6000060450F8379050F834A040F837A040F80A
:100A7000349000EBC70700EBC404D7F80490D4F817
:100A800004A0C7F804A0C4F8049000EBC104AC446F
:100A9000A76850F83C90C4F8089040F83C7000EB10
:100AA000CC0CE768DCF80490C4F80C90CCF8047027
:100AB000891CB3F800C089B203EB42034145B7D9A2
:100AC000BDE8F00770472DE9F0074D0801244FF00D
:100AD000000C04EB51066146A5F102082BE06145CC
:100AE00029D250F8314050F83C7040F8317040F84D
:100AF0003C4000EBC10900EBCC04D9F80470D4F8F9
:100B000004A0C9F804A067608C190CEB060750F824
:100B1000349050F837A040F834A040F8379000EBFC
:100B2000C40400EBC707D4F80490D7F804A0C4F8B5
:100B300004A0C7F8049000EBC104AC44A76850F8C7
:100B40003C90C4F8089040F83C7000EBCC0CE7688F
:100B5000DCF80490C4F80C90CCF80470B3F800C032
:100B6000891C03EB42034145B9D9BDE8F007704742
:100B70002DE9F00F01244F0804EB51084FF0000C51
:100B80007C0804BFBDE8F00F7047014600EB880504
:100B9000002614E0BCEB460F11D950F82CA0D1F878
:100BA0000090C1F800A040F82C900CEB0809D5F893
:100BB00000A050F829B0C5F800B040F829A0BC4406
:100BC00051F8049F50F82CA041F804AB40F82C9049
:100BD000B3F800C003EB4203641E05F1080506F1FB
:100BE0000106D7D1BDE8F00F704770470FB4044934
:100BF00010B503AA029800F0B3FB10BC5DF814FB1B
:100C0000080000200FB41CB5074B06AA7B446946B8
:100C10000090059800F08BFB0020694600F09AFBDD
:100C20001CBC5DF814FB0000450700002DE9F041F5
:100C30000646002410687529314616A510D0AFF37A
:100C40000080002802DA404213A507E031688A07D5
:100C500001D512A502E0490704D511A5012401E040
:100C6000AFF3008000210A2206F1240709E0B0FB5F
:100C7000F2FCB0FBF2F302FB1C0030307854184653
:100C8000491C0028F3D123462A463046BDE8F041EE
:100C900000F0DFB8000000002D0000002B00000075
:100CA0002000000070B504460D4621461068AFF3E1
:100CB00000802188090502D50F4A7A4402E00E4AD5
:100CC0007A440E32002104F1240305E000F00F06FF
:100CD0000009965D5E54491C0028F7D12078002356
:100CE000000704D5702D02D009B10223113220462D
:100CF000BDE8704000F0ADB86E1A01002DE9F05F5C
:100D0000894604464FF0000ADFF824B1FB44C0F8DE
:100D100020A02046E168884700287DD0252806D0FD
:100D2000D4E901219047206A401C2062F1E70025A8
:100D30005F462046E16888472028064607DB312EBB
:100D400005D2B81910F8200C08B10543F1E7A8073F
:100D500001D525F00405C4F81CA00027C4F818A08C
:100D60002A2E09D0304601F0B7F838B304EB8708D3
:100D7000303EC8F8186019E059F8041B204604EB0F
:100D800087029161E1688847012F064618D1E06922
:100D9000002820DA25F020051DE0D8F8180000EB27
:100DA000800006EB40003038C8F818002046E168A3
:100DB0008847064601F090F80028EED1012F0AD0AE
:100DC0002E2E08D12046E16888477F1C0646022F58
:100DD00045F02005C4DBA069002803DA404245F055
:100DE0000105A061E80701D025F01005A6B1A6F124
:100DF0004100192802D8203645F400654A4631469C
:100E0000204625604D46FFF7CDF960B1012807D097
:100E1000ED1D25F0070000E007E000F1080978E784
:100E200005F1040975E730467AE7206ABDE8F09FCE
:100E3000441A0100704770477047704710B500F0C2
:100E4000A5FA006810BD10B5044600F09FFA0460D2
:100E500010BD2DE9F0470D4699469246044600F133
:100E600024080168880604D5E06921F0100121609A
:100E700000E00120A84201DD471B00E00027A16936
:100E80007A1902EB0900081AA0612078C00602D482
:100E90002046AFF30080002608E0D4E901211AF8CB
:100EA00006009047206A401C761C20624E45F4DB09
:100EB0002078C0060AD52046AFF3008006E0D4E9CA
:100EC000012130209047206A401C2062381EA7F183
:100ED0000107F4DC07E0D4E9012118F80500904788
:100EE000206A401C2062281EA5F10105F3DC204683
:100EF000AFF300802078000602D50220BDE8F0871D
:100F00000120FBE770472DE9FF4F0C461E464FF0CE
:100F1000FF378BB0D2E90001DDF860800A908A4685
:100F2000C1F30A5505B93D46002108464FF00000BF
:100F3000BAF1000F00F4400005DA00EB80004FF436
:100F4000400101EA50004FEA9059B9F1010F00DD6C
:100F5000B9460A9850EA4A000ED044F61050A5F25D
:100F6000FF3545432F14B8F1000F1ED07542291EDE
:100F70001EDDC9F100021CE0B8F1010F4FF00000C6
:100F800001D0302103E0F24305E02154401CB0427F
:100F9000FBDB30460022002121540B99C1F8088068
:100FA000C1E900200FB0BDE8F08FBD1B6D1CDEE76E
:100FB0004A4600DA694206A800F072FA06AB93E8E6
:100FC000070003AB83E8070050460A9900F050FB86
:100FD0008DE80700A0F500501F3800900398002D01
:100FE0000ADD42F21F014A460844002303A9039088
:100FF000684600F0B9FD09E0A0F500504A461F38E8
:10100000002303A90390684600F0C3FD8DE80700A4
:101010000004000C03D04FF0FF30410800E0104600
:10102000B8F1000F03D00022009215461EE0751E95
:1010300005D400F0AFF9303262556D1EF9D5B346D4
:101040000122084302D000227F1C04E020783028CF
:1010500001D100227F1E002A099784D01DE0112DA6
:1010600007DA00F097F9303262556D1C50EA010240
:10107000F5D1084302D00098C8B10EE00021681EE7
:1010800005E0235C625C63542254401E491C81428B
:10109000F7DBAB46A81B401E0990002004F80B00AC
:1010A0000B98099AC0F80880C0E9002B7AE711264E
:1010B0004FF0000857E72DE9F04F88460446D21D4F
:1010C00022F0070191B0D1E90001CDE90A0100F059
:1010D000EFFE02460B98C00F01D02D2007E02068DC
:1010E000810701D52B2002E0202101EAC000032A5C
:1010F000099001D0072A05DB03464146204600F04F
:101100008FF90BE12078800601D5E06900E0062028
:10111000B8F1650F814606D0B8F1660F18D0B8F166
:10112000670F70D131E00020B9F1110F009001DBA1
:10113000112301E009F101030AAA01A90CA8FFF794
:10114000E2FEDDE90C70002609F10105834647E067
:1011500001204B4600904FF000470AAA01A90CA8B5
:10116000FFF7D1FEDDE90DB00C995D46002610B900
:1011700009F101000D18B9EB050003D4C0F1FF36E9
:1011800009F10105A5EB09002BE0B9F1010F01DA26
:101190004FF001090020B9F1110F0090484601DD20
:1011A000112300E003460AAA01A90CA8FFF7ABFE31
:1011B000DDE90C704D4600268346207800070AD4EE
:1011C000AB4500DA5D4601A8012D04DD411911F897
:1011D000011C302907D04F4502DA17F1040F04DA59
:1011E000012082460FE06D1EEEE7002F02DCED1BB2
:1011F0003E4403E0781CA84200DD7D1CB81B00F1D2
:10120000010A4FF000472078000703D4AA4501DB0C
:101210004FF0FF3A0021B7F1004F0DF143088DF870
:10122000431024D002202B23002F01DA7F422D23EC
:101230000A21021EA0F1010000DC5FB197FBF1FC66
:1012400097FBF1F201FB1C7C17460CF1300C08F8FF
:1012500001CDEEE7A8F1010003702188090501D551
:10126000452100E06521A0F1010800F8011C099862
:101270000FA9A1EB0807FF1D00B10120411901EBE7
:10128000EA70A1693844081A401EA0612078C0069F
:1012900002D42046AFF30080099828B1D4E9012197
:1012A0009047206A401C20622078C00622D5204644
:1012B000AFF300801EE0002E04DBB34502DD01A881
:1012C000805D00E03020D4E901219047206A401C75
:1012D0002062761CAAF101005FEA000A0AD100F040
:1012E00051F8C0680168405CD4E901219047206A48
:1012F000401C2062281EA5F10105DCDC07E0D4E9D2
:10130000012118F8010B9047206A401C2062381E0A
:10131000A7F10107F3DC2046AFF30080032011B0F2
:1013200041E6000001694A1C02610878704700B577
:101330008FB0CDE901310021059105497944CDE90E
:10134000031011466846FFF7D9FC0FB000BD00003E
:10135000E5FFFFFF0A6802F8010B0A607047000012
:10136000074B70B50D467B44FFF7E1FF0446284666
:1013700000F008F910B14FF0FF3070BD204670BD8D
:10138000530C00000048704714310020004870479B
:10139000F430002030B5B0F10A024FEA900E71F13E
:1013A00000034EEA817EB0EB0E0061EB91014FEA43
:1013B000101E4EEA017E10EB0E0041EB11114FEAB8
:1013C000102E4EEA016E10EB0E0041EB11214FEA98
:1013D000104E4EEA014E10EB0E0041EB1141401849
:1013E00041F100014FEAD00040EA41704FEAD101DB
:1013F00010EB80054FEA810444EA907444EB010449
:101400006D1944EB0404521BA3414FF0000348BF85
:101410000A3200D530BD401C41F1000130BD000052
:101420002DE9F0411F46044603260168072A01F40E
:10143000006004DB08B116A505E016A503E008B1BD
:1014400015A500E015A521F010002060A069C01EC0
:10145000A0610FB1401EA0612046AFF300804FB1E4
:10146000D4E9012138469047206A401C2062C01C04
:10147000206206E0206AFAE7D4E9012115F8010BA1
:101480009047761EF8D22046AFF30080BDE8F08189
:101490004E414E006E616E00494E4600696E660018
:1014A0002DE9F047814616468AB0354878440DC884
:1014B0008DE80D0032487844801C03AC0DC884E8E8
:1014C0000D0041F69B300844372190FBF1F290FB70
:1014D000F1F5A5F1800501FB12041B3C02D5644225
:1014E000012000E00020DFF898A080460027FA44A1
:1014F000AAF1BE0A0EE0E0070AD03246684607EBC2
:10150000470101230AEB810100F043FB8DE807004E
:1015100064107F1C002CEED1194F7F44AE3F19E0C0
:10152000E80715D007EB04100DF1180A90E80E003B
:101530008AE80E00C068F04201D19819089032463E
:10154000012306A903A800F024FB03AB83E80700EE
:101550006D10641C002DE3D14FF001033246694643
:10156000B8F1000F03A802D000F0FEFA01E000F08D
:1015700010FBC9E90001C9F808200AB0BDE8F087EE
:1015800034130100007B00F0800070470048704772
:10159000F43000207546FFF7F9FFAE4605006946B6
:1015A000534620F00700854618B020B5FEF72CFE04
:1015B000BDE820404FF000064FF000074FF0000854
:1015C0004FF0000B21F00701AC46ACE8C009ACE8D5
:1015D000C009ACE8C009ACE8C0098D46704710B539
:1015E0000446AFF300802046BDE81040FEF7FABD88
:1015F0004FF0013C50F8042B51F8043B9A4221D1A2
:10160000A2EB0C03934313EACC1317D150F8042B2D
:1016100051F8043B9A4215D1A2EB0C03934313EA11
:10162000CC130BD150F8042B51F8043B9A4209D14A
:10163000A2EB0C03934313EACC13DBD04FF0000072
:10164000704700BFD01A01BAB1FA81F101F0180158
:1016500022FA01F0CB40C1F12001DBB2C0B2C01AC6
:101660002CFA01F3D11A914311EAC311E6D1704764
:101670005FEA400C08BF91F0000F4FEA8C234FEA5D
:10168000C12243EA51514FEA1C5018BF00F5F04007
:101690004FEA300018BF41F000415FEA6C5C00F097
:1016A0002980BCF1FF3F08BF40F080407047130C19
:1016B00006BF12044FF0100C4FF0000C130E04BFC5
:1016C00012020CF1080C130F04BF12010CF1040CF0
:1016D000930F04BF92000CF1020CD30F04BF520011
:1016E0000CF1010C11464FF00002A0F11F00A0EB1D
:1016F0000C00704711F0004F08BF704731F00041F7
:101700003FF4D5AF0B0C06BF09044FF0100C4FF09F
:10171000000C0B0E04BF09020CF1080C0B0F04BFE8
:1017200009010CF1040C8B0F04BF89000CF1020CB1
:10173000CB0F04BF49000CF1010CCCF12003A0EB4E
:101740000C0022FA03F302FA0CF241EA030100F161
:101750000100704720F07F4C80EA030023F07F47B0
:10176000ACEB070303F57C5300F0004003F1FF03EB
:101770002DE980494FEA154B09B44FEA144325EA95
:101780000B4E24EA03480FF2042606EB1327490800
:101790003E785FEA320203FB0667C7F5000707FBE6
:1017A00006F64FEA54374FEAD64606F1020607FB23
:1017B000066CCCF1005C4FEA1C472CEA074C07FB97
:1017C00006F40CFB06F504EB15464FEA961634BFFB
:1017D00000204FF000404FEAD13706FB07FC4FEAEC
:1017E0001C4C0CFB0BF7D21B03FB0CF761EB070146
:1017F0000CFB0EF7B0EB074072EB17420CFB08F73F
:1018000034BFA2EB0742B2EB074261EB17414FEA4C
:101810000C444FEA910706FB07FC4FEA1C4C0CFBFB
:101820000BF7B0EBC74072EB573203FB0CF734BF3A
:10183000A2EBC742B2EBC74261EB57310CFB0EF78C
:10184000B0EBC70072EB57720CFB08F734BFA2EB8A
:10185000C702B2EBC70261EB5771039F4FEA816188
:1018600041EA921104EBCC044FEAD1374FEA82628D
:1018700006FB07FC42EA90124FEA80604FEA1C4CDC
:101880000CFB0BF7D21B03FB0CF761EB07010CFB06
:101890000EF7B0EB074072EB17420CFB08F734BFB2
:1018A000A2EB0742B2EB074261EB17414FEA8C55BE
:1018B0004FEA910704EB9C2406FB07FC4FEA1C4C03
:1018C0000CFB0BF7B0EBC74072EB573203FB0CF786
:1018D00034BFA2EBC742B2EBC74261EB57310CFBFE
:1018E0000EF7B0EBC70072EB57720CFB08F734BF72
:1018F000A2EBC702B2EBC70261EB577115EB4C25A7
:101900004FEA816141EA92114FEA82624FEAD13790
:1019100042EA901206FB07FC44F100044FEA8060A3
:101920004FEA1C4C0CFB0BF7D21B03FB0CF761EBD3
:1019300007010CFB0EF7B0EB074072EB17420CFBF4
:1019400008F734BFA2EB0742B2EB074261EB174145
:1019500015EB1C154FEA813141EA92414FEA823280
:1019600042EA90424FEA80304FEA0C7644F100049C
:1019700048EA03434EEA0B484FF0000EB2EB080C66
:1019800071EB030724BF624639464EEB0E0E4FF053
:10199000000B0018524149414BEB0B0BB2EB080C0A
:1019A00071EB03077BF1000B24BF624639464EEB17
:1019B0000E0E4FF0000B0018524149414BEB0B0B40
:1019C000B2EB080C71EB03077BF1000B24BF6246FE
:1019D00039464EEB0E0E51EA020718BF46F00106DB
:1019E00016EB0E7655F1000254F1000103D5BDE867
:1019F0008901BDE80088BDE88901BDE80048B61945
:101A0000524141EB0101A3F10103704780807F7EC9
:101A10007D7C7B7A79787776767574737271717064
:101A20006F6E6E6D6C6C6B6A6A6968686766666516
:101A30006464636362616160605F5F5E5E5D5D5CA4
:101A40005C5B5B5A5A595958585757565655555515
:101A50005454535352525251515050504F4F4F4E75
:101A60004E4D4D4D4C4C4C4B4B4B4A4A4A494949C3
:101A70004848484747474746464645454544444405
:101A8000444343434342424242414141002B9C462E
:101A900030D477002BD01CB54FEA370703B44FF092
:101AA00010004FF01001BAF1000F06D0BCF1000F8A
:101AB000DCBF40F0080040F008014FF000000FBC10
:101AC000BDE810400BF1010BBBF1010F08BF5FEA4D
:101AD000170722BF12F1010211F101014FF000417D
:101AE00043F1000300F0004043EA00007047F9D3DF
:101AF0005708D0E746EA064613F1400F4FEA16466C
:101B00001FDD13F1200FDFBF16430A4600212033EB
:101B10005B42BED0C3F1200746EA064602FA07F749
:101B20004FEA164646EA0706C3F1200722FA03F2F7
:101B300001FA07F721FA03F14FF0000342EA070226
:101B4000A7E746EA020646EA06464FEA164646EA8E
:101B50000106BCBF46EA0646360C4FF000034FF0C4
:101B600000024FF0000194E72DE9804C9A4693461D
:101B700070B491E8380007C831EA400C48BF34EA35
:101B8000430C03D5FFF7E6FDFFF780FFF0BCBDE88F
:101B9000008C2DE9804C9A46934670B491E8380049
:101BA00007C810F0804F08BF13F0804F03D100F03A
:101BB00005F8FFF76BFFF0BCBDE8008C20F07F4715
:101BC00080EA030023F07F4C07EB0C03A3F57C5362
:101BD00000F00040A3F1FE0392F0000F00F0B3808C
:101BE00095F0000F00F077802DE901494FEA114090
:101BF0004FEA144621EA004800FB06FC24EA0647A7
:101C000008FB06F607FB08F800FB07F718EB064889
:101C10004CEB164C4FEA124B18EB07484FEA1546AF
:101C20004CEB174022EA0B4E0BFB06FC25EA06475D
:101C30000EFB06F607FB0EFE0BFB07F71EEB064E30
:101C40004CEB164C4FF000061EEB074E4CEB174BBF
:101C500018EB0B0840F1000018EB0E0B58EB0008D6
:101C600040F100008F1A4FF000013CBFC943661BD2
:101C700014BFB5EB040C00213CBFC943F61B4FEA6F
:101C800017444EEA8E0E27EA04454FEA1C4704FB30
:101C900007622CEA074C05FB07F70CFB05F604FB73
:101CA0000CFC16EB074642EB174216EB0C4642EBD8
:101CB0001C421BEB060658EB0202414146EA9E0617
:101CC00001D5BDE80189B619524141EB0101A3F1EB
:101CD0000103BDE801894FEA14454FEA114724EAA0
:101CE000054621EA074C05FB07F406FB07F70CFB4A
:101CF00006F105FB0CFC11EB074144EB17444FEADE
:101D0000124711EB0C4144EB1C4422EA074C05FB43
:101D100007F206FB07F70CFB06F605FB0CFC16EBBF
:101D2000074642EB174216EB0C4642EB1C456A187D
:101D300054F1000148BF7047B619524141EB01010F
:101D4000A3F10103704795F0000F37D04FEA11421D
:101D50004FEA144721EA024624EA074C02FB07F146
:101D600006FB07F70CFB06F402FB0CFC14EB074424
:101D700041EB17414FEA154714EB0C4441EB1C4172
:101D800025EA074C02FB07F506FB07F70CFB06F6F6
:101D900002FB0CFC16EB074645EB174516EB0C4611
:101DA00045EB1C42121951F1000148BF7047B619AA
:101DB000524141EB0101A3F1010370474FEA144581
:101DC0004FEA114724EA054621EA074C05FB07F1D3
:101DD00006FB07F70CFB06F24FF0000605FB0CFCB8
:101DE00012EB074241EB174112EB0C4251EB1C4145
:101DF00048BF7047921841EB0101A3F101037047FE
:101E00000848006900F0010020B107480078401C34
:101E1000054908700348006920F001000149086184
:101E20007047000000100040000000201D490968B4
:101E300001F0200111B31B49091D0968C8B21A49F4
:101E4000098801F40041C9B91749098801F48041A2
:101E500061B10A2803D00021134A118020E0124901
:101E6000098841F40041104A118019E00D2806D17B
:101E70000D49098841F480410B4A118010E00A495C
:101E80000988C1F30D01094A505407490988491CC2
:101E9000054A118011460988C72901DD00211180FA
:101EA00070470000003801400C0000201C3000206A
:101EB000490050EAC12018BF04204A0D18BF40F065
:101EC000010040F2FF72B2EB515F08BF40F0020028
:101ED000012808BF0520704730380A2801D20120A8
:101EE00070470020704700BF7047000070B505467E
:101EF0000C4600BF0D48C06940F010000B49C86196
:101F000000BF0B48C5628462C06840F00100084908
:101F1000C8600846006840F00100086002233622CD
:101F20000321012003F0F6FD70BD00000010024007
:101F3000001000404FF0E021096941F004014FF02A
:101F4000E0221161054908601146096941F001016B
:101F500011616FF070415161704700000400002072
:101F600010B504464FF47A7104FB01F000F002F85A
:101F700010BD000070B5034600224FF0E0267569E1
:101F80000D4E366803FB06F44FF0E026B16910E011
:101F90004FF0E026B06988420BD0884202D20E1A78
:101FA000324402E02E1A0E4432440146A24200D3CB
:101FB00000E0EDE700BF70BD0400002000BF054A4F
:101FC000126802F04002002AF9D0C2B2014B1B1D78
:101FD0001A607047003801401CB500BF2048806976
:101FE00040F040001E49886100BF00BF084680697C
:101FF00040F04000886100BF00BF0846806940F0A3
:102000004000886100BF00BF0846806940F00400BE
:10201000886100BF0120009000231A461021019022
:10202000104803F001FD0120009000231A4608210A
:1020300001900C4803F0F8FC0120009000231A46A0
:1020400004210190074803F0EFFC02200121002346
:102050001A46CDE90010044803F0E6FC1CBD000060
:1020600000100240001801400008014070B504460D
:10207000002514B101202B4908702A480078002857
:1020800034D01021284803F0BBFC78B10821264841
:1020900003F0B6FC50B10421234803F0B1FC28B191
:1020A0000121224803F0ACFC01281FD10A20FFF7D0
:1020B00057FF00201B49087010211B4803F0A0FCAB
:1020C00000B901250821184803F09AFC00B902253F
:1020D0000421154803F094FC00B90325012113489D
:1020E00003F08EFC01281BD1042519E010210E48B5
:1020F00003F086FC012813D108210B4803F080FC73
:1021000001280DD10421084803F07AFC012807D1E9
:102110000121064803F074FC10B901200149087040
:10212000284670BD1800002000180140000801403A
:1021300070B50446002609480588408845430021BB
:10214000084603F067F803F00DFA00BF02E0044808
:102150000480761CAE42FAD370BD0000E43000204B
:102160000008006C10B5044658488471002C58D102
:10217000F020564908804FF4A070488008468088B7
:1021800045F21051884210D14FF430504F49088128
:102190004FF4285048814FF42C5088814FF4F07050
:1021A00008804FF4487048801AE04848808841F61B
:1021B000631188420DD12C20444908812B2048818D
:1021C0002A2088814FF4F07008804FF448704880CE
:1021D00006E02C203D4908812A2048812B20888157
:1021E0003A48808845F21031884205D037488088C7
:1021F00047F29671884206D14FF4A07033490880A7
:102200004FF4F07048803148808849F606018842D2
:1022100058D14FF4F0702D4908804FF44870488031
:1022200050E04FF4A07029490880F020488008460B
:10223000808845F21051884210D14FF43050234924
:1022400008814FF4285048814FF42C5088814FF476
:10225000487008804FF4F070488020E01B48808868
:1022600041F66311884205D01848808849F6060176
:1022700088420DD12C20154908812A2048812B2025
:1022800088814FF4487008804FF4F070488006E071
:102290002C200E4908812A2048812B2088810B4858
:1022A000808845F21031884205D00848808847F27E
:1022B0009671884206D14FF4F070044908804FF4BB
:1022C000A0704880002002F087FE10BDE43000209E
:1022D00070B505460E4614463146284602F09AFF70
:1022E00003F040F901490C8070BD00000008006C4B
:1022F00010B5CF2003F02AF9002003F01BF9C1200C
:1023000003F018F9302003F015F9ED2003F01EF961
:10231000642003F00FF9032003F00CF9122003F0FE
:1023200009F9812003F006F9E82003F00FF9852070
:1023300003F000F9102003F0FDF87A2003F0FAF81A
:10234000CB2003F003F9392003F0F4F82C2003F03C
:10235000F1F8002003F0EEF8342003F0EBF802204F
:1023600003F0E8F8F72003F0F1F8202003F0E2F89A
:10237000EA2003F0EBF8002003F0DCF8002003F083
:10238000D9F8C02003F0E2F81B2003F0D3F8C120F5
:1023900003F0DCF8012003F0CDF8C52003F0D6F8F7
:1023A000302003F0C7F8302003F0C4F8C72003F052
:1023B000CDF8B72003F0BEF8362003F0C7F8482068
:1023C00003F0B8F83A2003F0C1F8552003F0B2F852
:1023D000B12003F0BBF8002003F0ACF81A2003F0A2
:1023E000A9F8B62003F0B2F80A2003F0A3F8A2205F
:1023F00003F0A0F8F22003F0A9F8002003F09AF807
:10240000262003F0A3F8012003F094F8E02003F065
:102410009DF80F2003F08EF82A2003F08BF8282077
:1024200003F088F8082003F085F80E2003F082F806
:10243000082003F07FF8542003F07CF8A92003F073
:1024400079F8432003F076F80A2003F073F80F20A0
:1024500003F070F8002003F06DF8002003F06AF834
:10246000002003F067F8002003F064F8E12003F097
:102470006DF8002003F05EF8152003F05BF81720DC
:1024800003F058F8072003F055F8112003F052F834
:10249000062003F04FF82B2003F04CF8562003F0F1
:1024A00049F83C2003F046F8052003F043F81020DB
:1024B00003F040F80F2003F03DF83F2003F03AF816
:1024C0003F2003F037F80F2003F034F82B2003F0FF
:1024D0003DF8002003F02EF8002003F02BF8012037
:1024E00003F028F83F2003F025F82A2003F02EF807
:1024F000002003F01FF8002003F01CF8002003F078
:1025000019F8EF2003F016F8112003F01FF87820D7
:10251000FFF726FD292003F019F810BD10B5FF20A4
:1025200003F014F8FF2003F005F8982003F002F8F8
:10253000062002F0FFFFBC2003F008F8012002F0A3
:10254000F9FF0F2002F0F6FF612002F0F3FFFF20F9
:1025500002F0F0FF012002F0EDFF012002F0EAFF9F
:102560000B2002F0E7FF102002F0E4FF372002F01A
:10257000E1FF632002F0DEFFFF2002F0DBFFFF201F
:1025800002F0D8FF012002F0D5FF012002F0D2FFB7
:10259000002002F0CFFF002002F0CCFFFF2002F06D
:1025A000C9FF522002F0C6FF012002F0C3FF002045
:1025B00002F0C0FF402002F0BDFFBD2002F0C6FFC8
:1025C000012002F0B7FF232002F0B4FF452002F003
:1025D000B1FF672002F0AEFF012002F0ABFF232025
:1025E00002F0A8FF452002F0A5FF672002F0A2FF3D
:1025F000BE2002F0ABFF002002F09CFF012002F0A1
:1026000099FFAB2002F096FF602002F093FF22209A
:1026100002F090FF222002F08DFF222002F08AFFBC
:10262000222002F087FF222002F084FFC72002F060
:102630008DFF362002F07EFFED2002F087FF7F2025
:1026400002F078FF0F2002F075FFC02002F07EFF3D
:102650000F2002F06FFF0B2002F06CFF0A2002F047
:1026600069FFFC2002F072FF082002F063FFDF2008
:1026700002F06CFF002002F05DFF002002F05AFF24
:10268000002002F057FF002002F054FF002002F06B
:1026900051FF202002F04EFFF32002F057FF74207C
:1026A00002F048FFB42002F051FF002002F042FF88
:1026B000002002F03FFF002002F03CFFF72002F074
:1026C00045FF822002F036FFB12002F03FFF0020DC
:1026D00002F030FF132002F02DFF132002F02AFF3A
:1026E000F22002F033FF802002F024FF042002F0E9
:1026F00021FF402002F01EFF282002F01BFFC12016
:1027000002F024FF172002F015FF882002F012FFCC
:10271000882002F00FFF202002F00CFFE02002F0E2
:1027200015FF002002F006FF0A2002F003FF12202E
:1027300002F000FF102002F0FDFE0E2002F0FAFE73
:10274000202002F0F7FECC2002F0F4FE072002F079
:10275000F1FE062002F0EEFE0B2002F0EBFE0E2052
:1027600002F0E8FE0F2002F0E5FE0D2002F0E2FE8E
:10277000152002F0DFFE102002F0DCFE002002F047
:10278000D9FEE12002F0E2FE002002F0D3FE0B2091
:1027900002F0D0FE132002F0CDFE0D2002F0CAFEA2
:1027A0000E2002F0C7FE1B2002F0C4FE712002F0D2
:1027B000C1FE062002F0BEFE062002F0BBFE0A208B
:1027C00002F0B8FE0F2002F0B5FE0E2002F0B2FEBD
:1027D0000F2002F0AFFE152002F0ACFE0C2002F03C
:1027E000A9FE002002F0A6FE2A2002F0AFFE002083
:1027F00002F0A0FE002002F09DFE012002F09AFEF1
:10280000DF2002F097FE2B2002F0A0FE002002F055
:1028100091FE002002F08EFE032002F08BFE1F20AE
:1028200002F088FE3A2002F091FE552002F082FE6E
:10283000362002F08BFE002002F07CFE112002F018
:1028400085FE7820FFF78CFB292002F07FFE142004
:10285000FFF786FB2C2002F079FE10BD10B5ED20AD
:1028600002F074FE012002F065FEFE2002F062FE1E
:10287000EE2002F06BFEDE2002F05CFE212002F072
:1028800059FEF12002F062FE012002F053FEDF202B
:1028900002F05CFE102002F04DFEC42002F056FE55
:1028A0008F2002F047FEC62002F050FE002002F00A
:1028B00041FEE22002F03EFEE22002F03BFEE2207A
:1028C00002F038FEBF2002F041FEAA2002F032FEE4
:1028D000B02002F03BFE0D2002F02CFE002002F0A2
:1028E00029FE0D2002F026FE002002F023FE11201A
:1028F00002F020FE002002F01DFE192002F01AFE58
:10290000002002F017FE212002F014FE002002F049
:1029100011FE2D2002F00EFE002002F00BFE3D20E5
:1029200002F008FE002002F005FE5D2002F002FE2B
:10293000002002F0FFFD5D2002F0FCFD002002F00F
:10294000F9FDB12002F002FE802002F0F3FD00202C
:1029500002F0F0FD8B2002F0EDFD002002F0EAFD18
:10296000962002F0E7FD002002F0E4FDB22002F024
:10297000EDFD002002F0DEFD002002F0DBFD022074
:1029800002F0D8FD002002F0D5FD032002F0D2FDB8
:10299000002002F0CFFDB32002F0D8FD002002F0AD
:1029A000C9FD002002F0C6FD002002F0C3FD00209A
:1029B00002F0C0FD002002F0BDFD002002F0BAFDD3
:1029C000002002F0B7FD002002F0B4FD002002F06C
:1029D000B1FD002002F0AEFD002002F0ABFD0020B2
:1029E00002F0A8FD002002F0A5FD002002F0A2FDEB
:1029F000002002F09FFD002002F09CFD002002F06C
:102A000099FD002002F096FD002002F093FD0020C9
:102A100002F090FD002002F08DFD002002F08AFD02
:102A2000002002F087FD002002F084FDB42002F0B7
:102A30008DFD8B2002F07EFD002002F07BFD9620B4
:102A400002F078FD002002F075FDA12002F072FD79
:102A5000002002F06FFDB52002F078FD022002F0A8
:102A600069FD002002F066FD032002F063FD0020F6
:102A700002F060FD042002F05DFD002002F05AFD2E
:102A8000B62002F063FD002002F054FD002002F0A9
:102A900051FDB72002F05AFD002002F04BFD00204E
:102AA00002F048FD3F2002F045FD002002F042FD0B
:102AB0005E2002F03FFD002002F03CFD642002F0A9
:102AC00039FD002002F036FD8C2002F033FD00209D
:102AD00002F030FDAC2002F02DFD002002F02AFDB6
:102AE000DC2002F027FD002002F024FD702002F01F
:102AF00021FD002002F01EFD902002F01BFD0020B1
:102B000002F018FDEB2002F015FD002002F012FD8E
:102B1000DC2002F00FFD002002F00CFDB82002F0D6
:102B200015FD002002F006FD002002F003FD00204C
:102B300002F000FD002002F0FDFC002002F0FAFC93
:102B4000002002F0F7FC002002F0F4FC002002F06C
:102B5000F1FCBA2002F0FAFC242002F0EBFC002089
:102B600002F0E8FC002002F0E5FC002002F0E2FCAC
:102B7000C12002F0EBFC202002F0DCFC002002F07F
:102B8000D9FC542002F0D6FC002002F0D3FCFF2038
:102B900002F0D0FC002002F0CDFCC22002F0D6FCF6
:102BA0000A2002F0C7FC002002F0C4FC042002F05E
:102BB000C1FC002002F0BEFCC32002F0C7FC3C2098
:102BC00002F0B8FC002002F0B5FC3A2002F0B2FCA2
:102BD000002002F0AFFC392002F0ACFC002002F033
:102BE000A9FC372002F0A6FC002002F0A3FC3C2048
:102BF00002F0A0FC002002F09DFC362002F09AFCBE
:102C0000002002F097FC322002F094FC002002F039
:102C100091FC2F2002F08EFC002002F08BFC2C2077
:102C200002F088FC002002F085FC292002F082FCE2
:102C3000002002F07FFC262002F07CFC002002F045
:102C400079FC242002F076FC002002F073FC2420A2
:102C500002F070FC002002F06DFC232002F06AFC00
:102C6000002002F067FC3C2002F064FC002002F02F
:102C700061FC362002F05EFC002002F05BFC32209A
:102C800002F058FC002002F055FC2F2002F052FC0C
:102C9000002002F04FFC2C2002F04CFC002002F03F
:102CA00049FC292002F046FC002002F043FC2620CB
:102CB00002F040FC002002F03DFC242002F03AFC2F
:102CC000002002F037FC242002F034FC002002F047
:102CD00031FC232002F02EFC002002F02BFCC4204B
:102CE00002F034FC622002F025FC002002F022FCFD
:102CF000052002F01FFC002002F01CFC842002F0E2
:102D000019FC002002F016FCF02002F013FC002059
:102D100002F010FC182002F00DFC002002F00AFC6A
:102D2000A42002F007FC002002F004FC182002F0AE
:102D300001FC002002F0FEFB502002F0FBFB002013
:102D400002F0F8FB0C2002F0F5FB002002F0F2FB91
:102D5000172002F0EFFB002002F0ECFB952002F0C0
:102D6000E9FB002002F0E6FBF32002F0E3FB002089
:102D700002F0E0FBE62002F0DDFB002002F0DAFBCF
:102D8000C52002F0E3FB322002F0D4FB002002F069
:102D9000D1FB442002F0CEFB002002F0CBFB6520EB
:102DA00002F0C8FB002002F0C5FB762002F0C2FB57
:102DB000002002F0BFFB882002F0BCFB002002F0E4
:102DC000B9FBC62002F0C2FB202002F0B3FB0020BA
:102DD00002F0B0FB172002F0ADFB002002F0AAFBCE
:102DE000012002F0A7FB002002F0A4FBC72002F0A4
:102DF000ADFB002002F09EFB002002F09BFB0020B8
:102E000002F098FB002002F095FBC82002F09EFB28
:102E1000002002F08FFB002002F08CFB002002F06B
:102E200089FB002002F086FBC92002F08FFB002006
:102E300002F080FB002002F07DFB002002F07AFB14
:102E4000002002F077FB002002F074FB002002F06B
:102E500071FB002002F06EFB002002F06BFB0020F3
:102E600002F068FB002002F065FB002002F062FB2C
:102E7000002002F05FFB002002F05CFB002002F06B
:102E800059FB002002F056FB002002F053FBE0202B
:102E900002F05CFB162002F04DFB002002F04AFB22
:102EA0001C2002F047FB002002F044FB212002F02E
:102EB00041FB002002F03EFB362002F03BFB0020ED
:102EC00002F038FB462002F035FB002002F032FB16
:102ED000522002F02FFB002002F02CFB642002F0B5
:102EE00029FB002002F026FB7A2002F023FB0020C1
:102EF00002F020FB8B2002F01DFB002002F01AFBE9
:102F0000992002F017FB002002F014FBA82002F029
:102F100011FB002002F00EFBB92002F00BFB002099
:102F200002F008FBC42002F005FB002002F002FBC7
:102F3000CA2002F0FFFA002002F0FCFAD22002F0D0
:102F4000F9FA002002F0F6FAD92002F0F3FA002094
:102F500002F0F0FAE02002F0EDFA002002F0EAFAC6
:102F6000F32002F0E7FA002002F0E4FAE12002F098
:102F7000EDFA162002F0DEFA002002F0DBFA1C2047
:102F800002F0D8FA002002F0D5FA222002F0D2FA9C
:102F9000002002F0CFFA362002F0CCFA002002F036
:102FA000C9FA452002F0C6FA002002F0C3FA522006
:102FB00002F0C0FA002002F0BDFA642002F0BAFA72
:102FC000002002F0B7FA7A2002F0B4FA002002F0F2
:102FD000B1FA8B2002F0AEFA002002F0ABFA992091
:102FE00002F0A8FA002002F0A5FAA82002F0A2FA46
:102FF000002002F09FFAB92002F09CFA002002F0B3
:1030000099FAC42002F096FA002002F093FACA203E
:1030100002F090FA002002F08DFAD22002F08AFA33
:10302000002002F087FAD82002F084FA002002F093
:1030300081FAE02002F07EFA002002F07BFAF32011
:1030400002F078FA002002F075FAE22002F07EFA2F
:10305000052002F06FFA002002F06CFA0B2002F05B
:1030600069FA002002F066FA1B2002F063FA0020E1
:1030700002F060FA342002F05DFA002002F05AFA01
:10308000442002F057FA002002F054FA4F2002F0D8
:1030900051FA002002F04EFA612002F04BFA0020B3
:1030A00002F048FA792002F045FA002002F042FAD4
:1030B000882002F03FFA002002F03CFA972002F04C
:1030C00039FA002002F036FAA62002F033FA002086
:1030D00002F030FAB72002F02DFA002002F02AFAAE
:1030E000C22002F027FA002002F024FAC72002F0E2
:1030F00021FA002002F01EFAD12002F01BFA002073
:1031000002F018FAD62002F015FA002002F012FAA6
:10311000DD2002F00FFA002002F00CFAF32002F09A
:1031200009FA002002F006FAE32002F00FFA052067
:1031300002F000FA002002F0FDF90A2002F0FAF98C
:10314000002002F0F7F91C2002F0F4F9002002F050
:10315000F1F9332002F0EEF9002002F0EBF94420FF
:1031600002F0E8F9002002F0E5F9502002F0E2F95F
:10317000002002F0DFF9622002F0DCF9002002F00A
:10318000D9F9782002F0D6F9002002F0D3F988208E
:1031900002F0D0F9002002F0CDF9972002F0CAF930
:1031A000002002F0C7F9A62002F0C4F9002002F0C6
:1031B000C1F9B72002F0BEF9002002F0BBF9C2202D
:1031C00002F0B8F9002002F0B5F9C72002F0B2F918
:1031D000002002F0AFF9D12002F0ACF9002002F09B
:1031E000A9F9D52002F0A6F9002002F0A3F9DD200C
:1031F00002F0A0F9002002F09DF9F32002F09AF904
:10320000002002F097F9E42002F0A0F9012002F07A
:1032100091F9002002F08EF9012002F08BF90020D4
:1032200002F088F9022002F085F9002002F082F90C
:103230002A2002F07FF9002002F07CF93C2002F005
:1032400079F9002002F076F94B2002F073F90020A2
:1032500002F070F95D2002F06DF9002002F06AF9C9
:10326000742002F067F9002002F064F9842002F073
:1032700061F9002002F05EF9932002F05BF9002072
:1032800002F058F9A22002F055F9002002F052F99C
:10329000B32002F04FF9002002F04CF9BE2002F0FA
:1032A00049F9002002F046F9C42002F043F9002059
:1032B00002F040F9CD2002F03DF9002002F03AF989
:1032C000D32002F037F9002002F034F9DD2002F0BB
:1032D00031F9002002F02EF9F32002F02BF9002042
:1032E00002F028F9E52002F031F9002002F022F97D
:1032F000002002F01FF9002002F01CF9002002F06B
:1033000019F9022002F016F9002002F013F9292021
:1033100002F010F9002002F00DF93C2002F00AF949
:10332000002002F007F94B2002F004F9002002F01F
:1033300001F95D2002F0FEF8002002F0FBF8742095
:1033400002F0F8F8002002F0F5F8842002F0F2F81C
:10335000002002F0EFF8932002F0ECF8002002F0D9
:10336000E9F8A22002F0E6F8002002F0E3F8B3202A
:1033700002F0E0F8002002F0DDF8BE2002F0DAF8FA
:10338000002002F0D7F8C42002F0D4F8002002F0A8
:10339000D1F8CD2002F0CEF8002002F0CBF8D320F7
:1033A00002F0C8F8002002F0C5F8DC2002F0C2F8F4
:1033B000002002F0BFF8F32002F0BCF8002002F079
:1033C000B9F8E62002F0C2F8112002F0B3F80020AC
:1033D00002F0B0F8342002F0ADF8002002F0AAF8B4
:1033E000562002F0A7F8002002F0A4F8762002F0A0
:1033F000A1F8002002F09EF8772002F09BF8002050
:1034000002F098F8662002F095F8002002F092F899
:10341000882002F08FF8002002F08CF8992002F04A
:1034200089F8002002F086F8BB2002F083F8002023
:1034300002F080F8992002F07DF8002002F07AF87E
:10344000662002F077F8002002F074F8552002F0B0
:1034500071F8002002F06EF8552002F06BF80020A1
:1034600002F068F8452002F065F8002002F062F8EA
:10347000432002F05FF8002002F05CF8442002F0E4
:1034800059F8002002F056F8E72002F05FF83220E9
:1034900002F050F8002002F04DF8552002F04AF8F2
:1034A000002002F047F8762002F044F8002002F0F5
:1034B00041F8662002F03EF8002002F03BF8672059
:1034C00002F038F8002002F035F8672002F032F8F8
:1034D000002002F02FF8872002F02CF8002002F0E4
:1034E00029F8992002F026F8002002F023F8BB20EA
:1034F00002F020F8002002F01DF8992002F01AF8DE
:10350000002002F017F8772002F014F8002002F0F3
:1035100011F8442002F00EF8002002F00BF85620BB
:1035200002F008F8002002F005F8232002F002F86B
:10353000002001F0FFFF332001F0FCFF002001F02C
:10354000F9FF452001F0F6FF002001F0F3FFE8202D
:1035500001F0FCFF002001F0EDFF002001F0EAFF88
:10356000992001F0E7FF002001F0E4FF872001F03F
:10357000E1FF002001F0DEFF882001F0DBFF0020EA
:1035800001F0D8FF772001F0D5FF002001F0D2FF35
:10359000662001F0CFFF002001F0CCFF882001F071
:1035A000C9FF002001F0C6FFAA2001F0C3FF0020E0
:1035B00001F0C0FFBB2001F0BDFF002001F0BAFF09
:1035C000992001F0B7FF002001F0B4FF662001F060
:1035D000B1FF002001F0AEFF552001F0ABFF00204D
:1035E00001F0A8FF552001F0A5FF002001F0A2FF87
:1035F000442001F09FFF002001F09CFF442001F0D7
:1036000099FF002001F096FF552001F093FF002064
:1036100001F090FFE92001F099FFAA2001F08AFF54
:10362000002001F087FF002001F084FF002001F05E
:1036300081FF002001F08AFFAA2001F07BFFCF204C
:1036400001F084FF002001F075FF002001F072FFFF
:10365000002001F06FFF002001F06CFF002001F05E
:1036600069FF002001F066FF002001F063FF0020E9
:1036700001F060FF002001F05DFF002001F05AFF23
:10368000002001F057FF002001F054FF002001F05E
:1036900051FF002001F04EFF002001F04BFF002001
:1036A00001F048FF002001F045FFF02001F04EFF3F
:1036B000002001F03FFF502001F03CFF002001F00E
:1036C00039FF002001F036FF002001F033FFF32026
:1036D00001F03CFF002001F02DFFF92001F036FF42
:1036E000062001F027FF102001F024FF292001F01F
:1036F00021FF002001F01EFF3A2001F027FF552096
:1037000001F018FF112001F021FF6420FEF728FCD2
:10371000292001F01BFF352001F018FF002001F0E7
:1037200009FF512001F012FFFF2001F003FF532099
:1037300001F00CFF2C2001F0FDFE552001F006FFEA
:10374000822001F0F7FE2C2001F000FF10BD10B523
:1037500055214FF4704001F00FFFAA214FF20100F4
:1037600001F00AFF52214FF2020001F005FF08218B
:103770004FF2030001F000FF01214FF2040001F0BD
:10378000FBFE0D214FF4304001F0F6FE0D214BF20F
:10379000010001F0F1FE0D214BF2020001F0ECFE00
:1037A00034214FF4364001F0E7FE34214BF2016042
:1037B00001F0E2FE34214BF2026001F0DDFE0D214A
:1037C0004FF4314001F0D8FE0D214BF2011001F011
:1037D000D3FE0D214BF2021001F0CEFE34214FF446
:1037E000374001F0C9FE34214BF2017001F0C4FEF4
:1037F00034214BF2027001F0BFFE00214FF4324041
:1038000001F0BAFE00214BF2012001F0B5FE0021CB
:103810004BF2022001F0B0FE24214FF4384001F0B9
:10382000ABFE24214BF6010001F0A6FE24214BF64D
:10383000020001F0A1FE01214FF43F4001F09CFE87
:103840000F214FF4334001F097FE0F214BF201306E
:1038500001F092FE0F214BF2023001F08DFE342177
:103860004FF4394001F088FE34214BF6011001F08D
:1038700083FE34214BF6021001F07EFE08214FF446
:10388000354001F079FE08214BF2015001F074FE41
:1038900008214BF2025001F06FFE03214FF4424029
:1038A00001F06AFE24214FF43A4001F065FE242124
:1038B0004BF6012001F060FE24214BF6022001F0BE
:1038C0005BFE00214FF43C4001F056FE78214BF6A0
:1038D000014001F051FE00214BF6024001F04CFE88
:1038E00000214FF43D4001F047FE78214BF6015096
:1038F00001F042FE00214BF6025001F03DFE002196
:103900004FF43E4001F038FE64214BF6016001F0B7
:1039100033FE00214FF4514001F02EFE33214DF2D1
:10392000011001F029FE00214DF2021001F024FEE9
:1039300034214DF2031001F01FFE00214DF204105E
:1039400001F01AFE3A214DF2051001F015FE00219A
:103950004DF2061001F010FE4A214DF2071001F061
:103960000BFE00214DF2081001F006FE5C214DF225
:10397000091001F001FE00214DF20A1001F0FCFDDA
:1039800081214DF20B1001F0F7FD00214DF20C10DA
:1039900001F0F2FDA6214DF20D1001F0EDFD002128
:1039A0004DF20E1001F0E8FDE5214DF20F1001F08F
:1039B000E3FD01214DF2101001F0DEFD13214DF267
:1039C000111001F0D9FD01214DF2121001F0D4FDCA
:1039D00054214DF2131001F0CFFD01214DF21410CE
:1039E00001F0CAFD82214DF2151001F0C5FD012143
:1039F0004DF2161001F0C0FDCA214DF2171001F072
:103A0000BBFD02214DF2181001F0B6FD00214DF270
:103A1000191001F0B1FD02214DF21A1001F0ACFDB8
:103A200001214DF21B1001F0A7FD02214DF21C10E7
:103A300001F0A2FD34214DF21D1001F09DFD022187
:103A40004DF21E1001F098FD67214DF21F1001F09C
:103A500093FD02214DF2201001F08EFD84214DF2E4
:103A6000211001F089FD02214DF2221001F084FDA8
:103A7000A4214DF2231001F07FFD02214DF224100C
:103A800001F07AFDB7214DF2251001F075FD0221FC
:103A90004DF2261001F070FDCF214DF2271001F0FC
:103AA0006BFD02214DF2281001F066FDDE214DF282
:103AB000291001F061FD02214DF22A1001F05CFD98
:103AC000F2214DF22B1001F057FD02214DF22C1086
:103AD00001F052FDFE214DF22D1001F04DFD0321AC
:103AE0004DF22E1001F048FD10214DF22F1001F083
:103AF00043FD03214DF2301001F03EFD33214DF224
:103B0000311001F039FD03214DF2321001F034FD86
:103B10006D214DF2331001F02FFD00214FF4524082
:103B200001F02AFD33214DF2012001F025FD002195
:103B30004DF2022001F020FD34214DF2032001F06E
:103B40001BFD00214DF2042001F016FD3A214DF23B
:103B5000052001F011FD00214DF2062001F00CFDC1
:103B60004A214DF2072001F007FD00214DF2082007
:103B700001F002FD5C214DF2092001F0FDFC002165
:103B80004DF20A2001F0F8FC81214DF20B2001F0EA
:103B9000F3FC00214DF20C2001F0EEFCA6214DF2C9
:103BA0000D2001F0E9FC00214DF20E2001F0E4FCB3
:103BB000E5214DF20F2001F0DFFC01214DF2102034
:103BC00001F0DAFC13214DF2112001F0D5FC0121A6
:103BD0004DF2122001F0D0FC54214DF2132001F0DF
:103BE000CBFC01214DF2142001F0C6FC82214DF2E4
:103BF000152001F0C1FC01214DF2162001F0BCFCA2
:103C0000CA214DF2172001F0B7FC02214DF2182015
:103C100001F0B2FC00214DF2192001F0ADFC0221AF
:103C20004DF21A2001F0A8FC01214DF21B2001F0F9
:103C3000A3FC02214DF21C2001F09EFC34214DF228
:103C40001D2001F099FC02214DF21E2001F094FC90
:103C500067214DF21F2001F08FFC02214DF2202040
:103C600001F08AFC84214DF2212001F085FC022123
:103C70004DF2222001F080FCA4214DF2232001F01E
:103C80007BFC02214DF2242001F076FCB7214DF29D
:103C9000252001F071FC02214DF2262001F06CFC80
:103CA000CF214DF2272001F067FC02214DF22820A0
:103CB00001F062FCDE214DF2292001F05DFC0221C1
:103CC0004DF22A2001F058FCF2214DF22B2001F098
:103CD00053FC02214DF22C2001F04EFCFE214DF24E
:103CE0002D2001F049FC03214DF22E2001F044FC6F
:103CF00010214DF22F2001F03FFC03214DF2302026
:103D000001F03AFC33214DF2312001F035FC032162
:103D10004DF2322001F030FC6D214DF2332001F0E4
:103D20002BFC00214FF4534001F026FC33214DF2CF
:103D3000013001F021FC00214DF2023001F01CFCA9
:103D400034214DF2033001F017FC00214DF2043014
:103D500001F012FC3A214DF2053001F00DFC00217A
:103D60004DF2063001F008FC4A214DF2073001F017
:103D700003FC00214DF2083001F0FEFB5C214DF206
:103D8000093001F0F9FB00214DF20A3001F0F4FB9B
:103D900081214DF20B3001F0EFFB00214DF20C3090
:103DA00001F0EAFBA6214DF20D3001F0E5FB002108
:103DB0004DF20E3001F0E0FBE5214DF20F3001F045
:103DC000DBFB01214DF2103001F0D6FB13214DF247
:103DD000113001F0D1FB01214DF2123001F0CCFB8A
:103DE00054214DF2133001F0C7FB01214DF2143084
:103DF00001F0C2FB82214DF2153001F0BDFB012123
:103E00004DF2163001F0B8FBCA214DF2173001F027
:103E1000B3FB02214DF2183001F0AEFB00214DF250
:103E2000193001F0A9FB02214DF21A3001F0A4FB78
:103E300001214DF21B3001F09FFB02214DF21C309D
:103E400001F09AFB34214DF21D3001F095FB022167
:103E50004DF21E3001F090FB67214DF21F3001F052
:103E60008BFB02214DF2203001F086FB84214DF2C4
:103E7000213001F081FB02214DF2223001F07CFB68
:103E8000A4214DF2233001F077FB02214DF22430C2
:103E900001F072FBB7214DF2253001F06DFB0221DC
:103EA0004DF2263001F068FBCF214DF2273001F0B2
:103EB00063FB02214DF2283001F05EFBDE214DF262
:103EC000293001F059FB02214DF22A3001F054FB58
:103ED000F2214DF22B3001F04FFB02214DF22C303C
:103EE00001F04AFBFE214DF22D3001F045FB03218C
:103EF0004DF22E3001F040FB10214DF22F3001F039
:103F00003BFB03214DF2303001F036FB33214DF203
:103F1000313001F031FB03214DF2323001F02CFB46
:103F20006D214DF2333001F027FB00214FF4544056
:103F300001F022FB33214DF2014001F01DFB002175
:103F40004DF2024001F018FB34214DF2034001F024
:103F500013FB00214DF2044001F00EFB3A214DF21B
:103F6000054001F009FB00214DF2064001F004FB81
:103F70004A214DF2074001F0FFFA00214DF20840BE
:103F800001F0FAFA5C214DF2094001F0F5FA002146
:103F90004DF20A4001F0F0FA81214DF20B4001F0A0
:103FA000EBFA00214DF20C4001F0E6FAA6214DF2A9
:103FB0000D4001F0E1FA00214DF20E4001F0DCFA73
:103FC000E5214DF20F4001F0D7FA01214DF21040EA
:103FD00001F0D2FA13214DF2114001F0CDFA012186
:103FE0004DF2124001F0C8FA54214DF2134001F095
:103FF000C3FA01214DF2144001F0BEFA82214DF2C4
:10400000154001F0B9FA01214DF2164001F0B4FA61
:10401000CA214DF2174001F0AFFA02214DF21840CB
:1040200001F0AAFA00214DF2194001F0A5FA02218F
:104030004DF21A4001F0A0FA01214DF21B4001F0AF
:104040009BFA02214DF21C4001F096FA34214DF208
:104050001D4001F091FA02214DF21E4001F08CFA50
:1040600067214DF21F4001F087FA02214DF22040F6
:1040700001F082FA84214DF2214001F07DFA022103
:104080004DF2224001F078FAA4214DF2234001F0D4
:1040900073FA02214DF2244001F06EFAB7214DF27D
:1040A000254001F069FA02214DF2264001F064FA40
:1040B000CF214DF2274001F05FFA02214DF2284056
:1040C00001F05AFADE214DF2294001F055FA0221A1
:1040D0004DF22A4001F050FAF2214DF22B4001F04E
:1040E0004BFA02214DF22C4001F046FAFE214DF22E
:1040F0002D4001F041FA03214DF22E4001F03CFA2F
:1041000010214DF22F4001F037FA03214DF23040DB
:1041100001F032FA33214DF2314001F02DFA032142
:104120004DF2324001F028FA6D214DF2334001F09A
:1041300023FA00214FF4554001F01EFA33214DF2CD
:10414000015001F019FA00214DF2025001F014FA69
:1041500034214DF2035001F00FFA00214DF20450CA
:1041600001F00AFA3A214DF2055001F005FA00215A
:104170004DF2065001F000FA4A214DF2075001F0CD
:10418000FBF900214DF2085001F0F6F95C214DF2E7
:10419000095001F0F1F900214DF20A5001F0ECF95B
:1041A00081214DF20B5001F0E7F900214DF20C5046
:1041B00001F0E2F9A6214DF20D5001F0DDF90021E8
:1041C0004DF20E5001F0D8F9E5214DF20F5001F0FB
:1041D000D3F901214DF2105001F0CEF913214DF227
:1041E000115001F0C9F901214DF2125001F0C4F94A
:1041F00054214DF2135001F0BFF901214DF214503A
:1042000001F0BAF982214DF2155001F0B5F9012102
:104210004DF2165001F0B0F9CA214DF2175001F0DD
:10422000ABF902214DF2185001F0A6F900214DF230
:10423000195001F0A1F902214DF21A5001F09CF938
:1042400001214DF21B5001F097F902214DF21C5053
:1042500001F092F934214DF21D5001F08DF9022147
:104260004DF21E5001F088F967214DF21F5001F008
:1042700083F902214DF2205001F07EF984214DF2A4
:10428000215001F079F902214DF2225001F074F928
:10429000A4214DF2235001F06FF902214DF2245078
:1042A00001F06AF9B7214DF2255001F065F90221BC
:1042B0004DF2265001F060F9CF214DF2275001F068
:1042C0005BF902214DF2285001F056F9DE214DF242
:1042D000295001F051F902214DF22A5001F04CF918
:1042E000F2214DF22B5001F047F902214DF22C50F2
:1042F00001F042F9FE214DF22D5001F03DF903216C
:104300004DF22E5001F038F910214DF22F5001F0EE
:1043100033F903214DF2305001F02EF933214DF2E3
:10432000315001F029F903214DF2325001F024F906
:104330006D214DF2335001F01FF900214FF456402A
:1043400001F01AF933214DF2016001F015F9002155
:104350004DF2026001F010F934214DF2036001F0DA
:104360000BF900214DF2046001F006F93A214DF2FB
:10437000056001F001F900214DF2066001F0FCF842
:104380004A214DF2076001F0F7F800214DF2086074
:1043900001F0F2F85C214DF2096001F0EDF8002126
:1043A0004DF20A6001F0E8F881214DF20B6001F056
:1043B000E3F800214DF20C6001F0DEF8A6214DF289
:1043C0000D6001F0D9F800214DF20E6001F0D4F833
:1043D000E5214DF20F6001F0CFF801214DF21060A0
:1043E00001F0CAF813214DF2116001F0C5F8012166
:1043F0004DF2126001F0C0F854214DF2136001F04B
:10440000BBF801214DF2146001F0B6F882214DF2A3
:10441000156001F0B1F801214DF2166001F0ACF821
:10442000CA214DF2176001F0A7F802214DF2186081
:1044300001F0A2F800214DF2196001F09DF802216F
:104440004DF21A6001F098F801214DF21B6001F065
:1044500093F802214DF21C6001F08EF834214DF2E8
:104460001D6001F089F802214DF21E6001F084F810
:1044700067214DF21F6001F07FF802214DF22060AC
:1044800001F07AF884214DF2216001F075F80221E3
:104490004DF2226001F070F8A4214DF2236001F08A
:1044A0006BF802214DF2246001F066F8B7214DF25D
:1044B000256001F061F802214DF2266001F05CF800
:1044C000CF214DF2276001F057F802214DF228600C
:1044D00001F052F8DE214DF2296001F04DF8022181
:1044E0004DF22A6001F048F8F2214DF22B6001F004
:1044F00043F802214DF22C6001F03EF8FE214DF20E
:104500002D6001F039F803214DF22E6001F034F8EE
:1045100010214DF22F6001F02FF803214DF2306091
:1045200001F02AF833214DF2316001F025F8032122
:104530004DF2326001F020F86D214DF2336001F050
:104540001BF855214FF4704001F016F8AA214FF2E4
:10455000010001F011F852214FF2020001F00CF8B5
:1045600008214FF2030001F007F800214FF2040088
:1045700001F002F8CC214FF4314000F0FDFF0021A2
:104580004BF2011000F0F8FF05214FF4364000F027
:10459000F3FF70214FF4374000F0EEFF70214BF233
:1045A000017000F0E9FF01214FF4384000F0E4FF12
:1045B00003214BF6010000F0DFFF03214BF6020060
:1045C00000F0DAFF03214BF6030000F0D5FF0221D3
:1045D0004FF43C4000F0D0FF00214BF6014000F0CA
:1045E000CBFF00214BF6024000F0C6FFD0214FF474
:1045F000494000F0C1FF02214CF6011000F0BCFF61
:1046000050214CF6021000F0B7FF50214CF6031079
:1046100000F0B2FF50214CF6041000F0ADFF002175
:104620004FF4545000F0A8FF55214FF4685000F0AB
:10463000A3FF4FF4885000F089FF7820FDF79AFC23
:104640004FF4245000F082FF10BD10B5E22000F0BE
:104650007DFF1D2000F06EFF022000F06BFF0420A4
:1046600000F068FF6420FDF785FCE02000F06EFF9D
:10467000012000F05FFF0A20FDF772FCE02000F04F
:1046800065FF032000F056FF0C20FDF769FC0120B8
:1046900000F05CFF0A20FDF763FCE62000F056FF07
:1046A0002F2000F047FFFF2000F044FFFF2000F024
:1046B00041FFB02000F04AFF202000F03BFF002027
:1046C00000F038FF032000F035FF40F21F3000F00B
:1046D00031FF012000F02EFF40F2DF1000F02AFF32
:1046E000002000F027FFB42000F030FF042000F08D
:1046F00021FF40F21F4000F01DFF002000F01AFFD4
:104700002E2000F017FF002000F014FF002000F022
:1047100011FF002000F00EFF002000F00BFFB6207C
:1047200000F014FF022000F005FF4FF4037000F0CA
:1047300001FF002000F0FEFE172000F0FBFE152018
:1047400000F0F8FE002000F0F5FE002000F0F2FE80
:10475000F02000F0FBFE032000F0ECFE292000F02A
:10476000F5FED02000F0F2FE002000F0E3FEBE20B7
:1047700000F0ECFE052000F0DDFEFE2000F0DAFE89
:10478000012000F0D7FE002000F0D4FE002000F051
:10479000D1FE002000F0CEFEB82000F0D7FE0320AE
:1047A00000F0C8FE012000F0C5FEBA2000F0CEFEE9
:1047B000012000F0BFFE10BD10B5112000F0C6FEB4
:1047C0007820FDF7CDFB362000F0C0FE002000F081
:1047D000B1FE3A2000F0BAFE052000F0ABFEB22098
:1047E00000F0B4FE0C2000F0A5FE0C2000F0A2FEAC
:1047F000002000F09FFE332000F09CFE332000F0EC
:1048000099FEB72000F0A2FE352000F093FEBB20F9
:1048100000F09CFE322000F08DFEC02000F096FEDD
:104820000C2000F087FEC22000F090FE012000F076
:1048300081FEC32000F08AFE102000F07BFEC42021
:1048400000F084FE202000F075FEC62000F07EFE01
:104850000F2000F06FFED02000F078FEA42000F0C2
:1048600069FEA12000F066FEE02000F06FFED0207F
:1048700000F060FE002000F05DFE022000F05AFE15
:10488000072000F057FE0A2000F054FE282000F018
:1048900051FE322000F04EFE442000F04BFE42203C
:1048A00000F048FE062000F045FE0E2000F042FE1B
:1048B000122000F03FFE142000F03CFE172000F014
:1048C00039FEE12000F042FED02000F033FE00204F
:1048D00000F030FE022000F02DFE072000F02AFE3E
:1048E0000A2000F027FE282000F024FE312000F0EE
:1048F00021FE542000F01EFE472000F01BFE0E207B
:1049000000F018FE1C2000F015FE172000F012FE2B
:104910001B2000F00FFE1E2000F00CFE2A2000F0ED
:1049200015FE002000F006FE002000F003FE00202F
:1049300000F000FEEF2000F0FDFD2B2000F006FE51
:10494000002000F0F7FD002000F0F4FD012000F051
:10495000F1FD3F2000F0EEFD292000F0F7FD10BD35
:1049600010B5112000F0F2FD7820FDF7F9FA36209D
:1049700000F0ECFD482000F0DDFD3A2000F0E6FDFF
:10498000552000F0D7FDF02000F0E0FDC32000F03E
:10499000D1FDF02000F0DAFD962000F0CBFDB42030
:1049A00000F0D4FD012000F0C5FDB62000F0CEFDE2
:1049B0000A2000F0BFFDA22000F0BCFDB72000F0EF
:1049C000C5FDC62000F0B6FDB92000F0BFFD0220F5
:1049D00000F0B0FDE02000F0ADFDC02000F0B6FD1D
:1049E000802000F0A7FD162000F0A4FDC12000F0FB
:1049F000ADFD192000F09EFDC22000F0A7FDA7200C
:104A000000F098FDC52000F0A1FD162000F092FDF9
:104A1000E82000F09BFD402000F08CFD8A2000F093
:104A200089FD002000F086FD002000F083FD292094
:104A300000F080FD192000F07DFDA52000F07AFD3A
:104A4000332000F077FDE02000F080FDF02000F042
:104A500071FD072000F06EFD0D2000F06BFD0420BD
:104A600000F068FD052000F065FD142000F062FDF7
:104A7000362000F05FFD542000F05CFD4C2000F07B
:104A800059FD382000F056FD132000F053FD14208E
:104A900000F050FD2E2000F04DFD342000F04AFDC6
:104AA000E12000F053FDF02000F044FD102000F064
:104AB00041FD142000F03EFD0E2000F03BFD0C20D7
:104AC00000F038FD082000F035FD352000F032FD03
:104AD000442000F02FFD4C2000F02CFD262000F09B
:104AE00029FD102000F026FD122000F023FD2C20CF
:104AF00000F020FD322000F01DFDF02000F026FD2A
:104B00003C2000F017FDF02000F020FD692000F0AF
:104B100011FD7820FDF724FA212000F017FD29204F
:104B200000F014FD10BD00001CB500BFFA488069FC
:104B300040F48070F849886100BF00BF0846806972
:104B400040F02000886100BF00BF0846806940F047
:104B50002000886100BF00BF0846806940F4807073
:104B6000886100BF00BF0846806940F00800886186
:104B700000BF0846806940F06000886108464069CF
:104B800040F4807048610120032100230222CDE916
:104B900000100103E14800F047FF0120032100233A
:104BA0000222CDE900102021DD4800F03DFF012068
:104BB000032100230222CDE900101021D84800F083
:104BC00033FF0120032100230222CDE9001001461A
:104BD000D24800F029FF0120032100230246CDE93D
:104BE00000100146CF4800F01FFF012003210023E1
:104BF0000222CDE900104CF20371C94800F014FF05
:104C00000120032100230222CDE900104FF680711C
:104C1000C54800F009FF00204FF020418861C861BD
:104C2000C24908604FF02040806940F480504FF046
:104C3000204188610846806940F4804088610846C8
:104C4000806940F0100088610846C069C861084664
:104C5000C069C8610846C06940F47060C861B34863
:104C60000068C1F81C01B1480068C1F81C01084681
:104C7000D0F81C0140F48070C1F81C01084680691E
:104C800040F0010088610846806940F0004088617A
:104C9000A74800F08FF9D32000F058FC00F090F9FD
:104CA000A449888000F08CF9A249888000F088F936
:104CB000A0498880084680884FF6FF7101EA0020ED
:104CC0009C49888000F07CF99A4989880843994971
:104CD00088800846808849F2413188427ED004208D
:104CE00000F034FC00F06CF99249888000F068F91B
:104CF0009049888000F064F98E4988800846808851
:104D00004FF6FF7101EA00208A49888000F058F9C7
:104D1000884989880843874988800846808848F2FE
:104D20005251884203D147F2897082498880814874
:104D3000808847F289718842D0D0D42000F006FCE8
:104D400000F03EF97B49888000F03AF97949888083
:104D500000F036F977498880084680884FF6FF7161
:104D600001EA00207349888000F02AF97149898896
:104D70000843704988800846808845F2103188428F
:104D8000ACD0D32000F0E2FB00F01AF9694988802A
:104D900000F016F96749888000F012F965498880AB
:104DA000084680884FF6FF7101EA0020614988803B
:104DB00000F006F95F49898808435E498880084603
:104DC000808847F29671884288D055214FF4704010
:104DD00000F0D2FBAA214FF2010000E07CE000F0DD
:104DE000CBFB52214FF2020000F0C6FB08214FF22C
:104DF000030000F0C1FB01214FF2040000F0BCFBF6
:104E00004FF4454000F0A2FB00F0DAF849498880F1
:104E1000084680884FF6FF7101EA002045498880E6
:104E20004CF2015000F092FB00F0CAF84149898829
:104E30000843404988800520FDF792F83D48808866
:104E400045F21051884247D0D32000F07FFB00F09C
:104E5000B7F83849888000F0B3F83649888000F008
:104E6000AFF834498880084680884FF6FF7101EA20
:104E700000203049888000F0A3F82E498988084333
:104E80002C4988800846808849F60601884223D04C
:104E9000A12000F05BFB00F093F82649888000F029
:104EA0008FF824498880084680884FF6FF7101EA10
:104EB00000202049888000F083F81E498988084333
:104EC0001C4988800846808845F26171884203D178
:104ED00041F66310174988801648818816A0FBF7B1
:104EE00085FE1448808847F28971884202D1FFF715
:104EF00063FC4DE00F48808849F24131884202D17D
:104F0000FDF7F6F944E00B48808845F210318842FD
:104F100018D1FDF7A3FC3BE0001002400020014047
:104F200000140140000C0140001801401C0100A0C9
:104F3000FFFF0100E43000204C43442049443A255F
:104F4000780D0A001948808847F29671884202D18C
:104F5000FFF706FD1CE01548808845F21051884295
:104F600002D1FEF7F4FB13E01048808849F60601F1
:104F7000884202D1FDF7D2FA0AE00C48808841F657
:104F80006311884204D1FFF760FB642000F0A8FAA7
:104F90000020FDF7E7F801221146054800F038FD32
:104FA0004FF6FF70FDF7C4F81CBD0000E430002090
:104FB000000C014000BF011EA0F10100FBD17047B1
:104FC00008B50220FFF7F6FF024800880090BDF800
:104FD000000008BD0008006CF0B50546002400275D
:104FE0008B488079012805D18948808841F6631172
:104FF000884208D186488079F0B98548808841F692
:105000006311884218D1082D15D2DFE805F0040697
:10501000080A0C0E101206250DE007250BE00425EA
:1050200009E0052507E0012505E0002503E003254B
:1050300001E0022500BF00BF082D1CD2DFE805F00B
:105040000406090C0F12151800BF14E044F0800488
:1050500011E044F040040EE044F0C0040BE044F0E2
:10506000200408E044F0600405E044F0A00402E0FD
:1050700044F0E00400BF00BF36276548808845F251
:105080001051884200D13F026148808849F2413185
:1050900088420BD05E48808847F28971884205D0EB
:1050A0005B48808847F29671884201D144F0080439
:1050B0002146384600F060FA5548808841F6631171
:1050C00088421DD004F0200068B151480088504942
:1050D0004988884214DA4E48068840884C4908803E
:1050E000084646800CE04A48008849494988884279
:1050F00006DD4748068840884549088008464680BE
:105100004348808845F21051884252D1404948892D
:1051100000F01CFA002000F00DFA3D494989491CB5
:1051200088B200F013FA002000F004FA38494989E7
:10513000891C88B200F00AFA35490988491EC1F372
:105140000F2000F0F7F932494989C91C88B200F0F4
:10515000FDF92F490978491EC8B200F0EBF92C4936
:10516000888900F0F3F9002000F0E4F928498989E2
:10517000491C88B200F0EAF9002000F0DBF924496C
:105180008989891C88B200F0E1F921494988491EC2
:10519000C1F30F2000F0CEF91D498989C91C88B2DE
:1051A00000F0D4F91A498978491EC8B200F0C2F952
:1051B0002DE01749488900F0C9F9002000F0BAF93C
:1051C000002000F0B7F912490988491EC1F30F20E9
:1051D00000F0B0F90E490978491EC8B200F0AAF9EA
:1051E0000B49888900F0B2F9002000F0A3F90020F3
:1051F00000F0A0F906494988491EC1F30F2000F0CC
:1052000099F903498978491EC8B200F093F9F0BDB5
:10521000E430002010B502460C464548808841F62F
:105220006311884247D142488079A8B94048008834
:10523000401E801A82B23E49488900F087F900205A
:1052400000F078F9002000F075F9101200F072F902
:10525000D0B200F06FF916E03549488900F076F9D0
:10526000101200F067F9D0B200F064F930490988F3
:10527000491EC1F30F2000F05DF92D490978491E40
:10528000C8B200F057F92A49888900F05FF9201266
:1052900000F050F9E0B200F04DF925494988491E67
:1052A000C1F30F2000F046F921498978491EC8B2A0
:1052B00000F040F93AE01E48808845F210518842DB
:1052C00020D11B49488900F041F9101200F032F951
:1052D00017494989491C88B200F038F9D0B200F06A
:1052E00029F91349888900F031F9201200F022F9D8
:1052F0000F498989491C88B200F028F9E0B200F012
:1053000019F913E00A49488900F020F9101200F059
:1053100011F9D0B200F00EF90549888900F016F9AC
:10532000201200F007F9E0B200F004F910BD00000F
:10533000E43000202DE9FC4F80460E4615461C4601
:10534000B3460020019000902046E31704EB53730E
:10535000DB1021464FEAE47C04EB5C7C4FEAEC0C6A
:10536000A4EBCC0CBCF1000F02D04FF0010C01E01B
:105370004FF0000C6344224604EBD27C4FEA6C0CE5
:1053800003FB0CF3DBB20193A5F12000C5B20C2C9A
:1053900006D0102C0BD0182C0ED0202C18D112E0D7
:1053A00005EB45002D4901EB8000009012E02C48F0
:1053B00000EB051000900DE005EBC500294901EB5D
:1053C0008000009006E0284800EB8510009001E086
:1053D000BDE8FC8F00BF00273AE0009810F8079066
:1053E0004FF0000A2EE009F0800028B13146404617
:1053F0000C9AFCF76DFF07E00B9828B91B48314663
:1054000002684046FCF764FF4FEA49604FEA1069C2
:10541000701C86B216484088B04200DCD8E7A6EB84
:105420000B00A0420AD15E4608F101001FFA80F885
:105430000F480088404500DCCAE706E00AF1010099
:1054400000F0FF0ABAF1080FCDDB00BF781CC7B22D
:1054500001988742C1DB00BFBAE70000A6670008D9
:105460001A6C00080A720008667F00081400002009
:10547000E43000202DE9FC4F04460D469046994645
:10548000DDE90C7A0B9E04F0FF0B08EB04001FFA19
:1054900080F809EB05001FFA80F917E0444502DBAC
:1054A0005C46A81985B24D4500DB15E00020CDE92A
:1054B000000A3A78334629462046FFF73BFF30463C
:1054C00006EBD07104EB61018CB27F1C38787E282A
:1054D00002DC38782028E1DA00BFBDE8FC8F00004C
:1054E0002DE9F0470446BE2000F030F8052000F01A
:1054F00021F8204600F043FC07464FF066320C4B83
:1055000000F050FC054600F00DFC1FFA80F94846FB
:1055100000F010F8012000F00DF8FF2000F00AF86C
:10552000002000F007F8002000F004F8BDE8F08744
:105530006666044001B5BDF800000090BDF80000AB
:105540000149088008BD00000008006C01B5BDF8E5
:1055500000000090BDF800000149088008BD00006F
:10556000FE07006C0248008902490880704700006D
:10557000E4300020FE07006C024A1080921C11806B
:1055800070470000FE07006C1CB500BF154880691D
:1055900040F008001349886100BF00BF08468069D9
:1055A00040F04000886100BF0120009000230246C7
:1055B000202101900C4800F037FA012000900023D0
:1055C000024620210190094800F02EFA01222021F4
:1055D000054800F01DFA01222021044800F018FAC5
:1055E0001CBD000000100240000C014000180140EA
:1055F00098B00026092000F0E5FA4820FCF79AFC54
:105600004FF4E131482000F015FBFFF7BDFFFFF735
:105610008BFAFCF7E1FC41F61F414FF6FF70FCF7F7
:1056200065FC4FF478408DA110221346CDE900218E
:105630000290C82232211E20FFF71CFF4FF4784051
:1056400088A110221346CDE900210290C8224621EC
:105650001E20FFF70FFF4FF4784086A1102213465B
:10566000CDE900210290C8225A211E20FFF702FF37
:105670004FF4784083A110221346CDE90021029017
:10568000C8226E211E20FFF7F5FE4FF4784081A15D
:1056900010221346CDE900210290C8228C211E2041
:1056A000FFF7E8FE01230022990205A8FBF760F945
:1056B000D3E00020FCF7DAFC0546012D7DD1002463
:1056C0005BE0204600F016FE8346764900F026FE99
:1056D00082464FF0824100F021FE81464FF0894121
:1056E00000F0F2FC8046FAF79FFD07466E4900F095
:1056F00015FE0490204600F0FDFD6A49019000F07F
:105700000DFE83464FF0814100F008FE82464FF0C7
:10571000894100F0D9FC8146FAF7C4FD804663490F
:1057200000F0FCFD0746204600F0E4FD5D490190D5
:1057300000F0F4FD83464FF0894100F0C5FC82463D
:10574000FAF7B0FD81465A4900F0E8FD8046594914
:1057500000F052FC3946029000F04EFC0390049990
:1057600000F04AFC6100544A42F821000021600028
:10577000401C42F82010601C84B2B4F5806FA0DB9E
:1057800000204E4948624E4908704B4905A8FBF776
:10579000D0F84A494A6A4A49097802EB014000F0C8
:1057A000A9FD17904249179800F08EFC814600F041
:1057B000F7FB07463A460B4600E03BE041A10AA84A
:1057C000FBF720FA1F200AA910221346CDE9002179
:1057D000029064228C217E20FFF74CFE4FF4806201
:1057E0003B493548FAF7A4FD3A49179800F06CFC9C
:1057F000814600F0D5FB07463A460B464FF48061E0
:1058000035A0FBF7F3F93DA0FBF7F0F900240DE01C
:105810002F4951F8240000F0C3FB07463A460B46D7
:1058200021463AA0FBF7E2F9601C84B2B4F5806F20
:10583000EEDB02E00A20FCF793FB701CC6B21420DA
:1058400096FBF0F100FB116038B900BF35480068E5
:1058500080F020003349086000BF2AE753544D33DD
:1058600032000000445350204646542054455354BF
:105870000000000041544F4D40414C49454E5445B5
:105880004B0000004B4559303A52756E2046465445
:10589000000000004646542072756E74696D653ACA
:1058A00000000000DB0FC940000048420000F0414A
:1058B000000020410000C8421C00002000100040F1
:1058C0000000002025302E33666D730D0A000000A5
:1058D0001C20002000007A440D0A256420706F69A6
:1058E0006E74204646542072756E74696D653A2553
:1058F000302E33666D730D0A0000000046465420BA
:10590000526573756C743A0D0A0000006666745F28
:105910006F75747075746275665B25645D3A256693
:105920000D0A00000C0C014070B5054600F0CCFDDE
:10593000044620F00040C0F1FF40C00F08D025F021
:105940000040C0F1FF40C00F04BF0120FBF77BFA0D
:10595000204670BD10B5024600210020264B1B6872
:1059600043F48033244C23600AE000BF224B1B68C1
:1059700003F400331BB1B1F5004F00D904E0491C1A
:105980004FF6F0739942F0D300BF4FF6F07399428F
:1059900001D301202FE04FF48063174C6360921E07
:1059A00023465B6843EA8243636023465B6843F4B3
:1059B000803363601023114C236023461B6843F03F
:1059C000020323600C4B1B6843F080730A4C236076
:1059D00000BF094B1B685B0E002BFAD0064B5B68BF
:1059E00043F00203044C636000BF034B5B68C3F3E6
:1059F0008103022BF9D110BD0010024000200240AB
:105A000002469068084008B1012070470020FCE77A
:105A100002F001031BB103690B43036103E0036957
:105A200043EA0143036170472DE9F04F0E461D46DE
:105A3000DDE909C4002100278846002300BF64E097
:105A40004FF0010909FA01F706EA0708B8455BD1EA
:105A50000023012A01D0022A0AD10CF0030305F029
:105A6000010943EA8903A2F1010943EAC90318E0E5
:105A7000BAB90CB9042314E00823D0F80C904FF005
:105A8000010A0AFA01FA29EA0A09C0F80C90D0F8CA
:105A90000CA004F0010909FA01F94AEA090AC0F860
:105AA0000CA0072916D8D0F800904FEA810B4FF0D0
:105AB0000F0A0AFA0BFA29EA0A09C0F80090D0F88E
:105AC00000904FEA810A03FA0AFA49EA0A09C0F883
:105AD000009019E0D0F80490A1F1080A4FEA8A0B6F
