:020000042000DA
:10100000A0D70020F9110020FD110020FF110020C1
:101010000112002003120020051200200000000031
:101020000000000000000000000000000712002087
:1010300009120020000000000B1200200D120020F9
:101040000F1200200F1200200F1200200F1200209C
:101050000F1200200F1200200F1200200F1200208C
:101060000F1200200F1200200F1200200F1200207C
:101070000F1200200F1200200F1200200F1200206C
:101080000F1200200F1200200F1200200F1200205C
:101090000F1200200F1200200F1200200F1200204C
:1010A0000F1200200F1200200F1200200F1200203C
:1010B0000F1200200F1200200F1200200F1200202C
:1010C0000F1200200F1200200F1200200F1200201C
:1010D0000F120020A92400200F1200200F12002060
:1010E0000F1200200F1200200F1200200F120020FC
:1010F0000F1200200F1200200F1200200F120020EC
:101100000F1200200F1200200F1200200F120020DB
:101110000F1200200F1200200F1200200F120020CB
:101120000F1200200F1200200F1200200F120020BB
:1011300000F002F800F050F80AA090E8000C824499
:101140008344AAF10107DA4501D100F045F8AFF276
:10115000090EBAE80F0013F0010F18BFFB1A43F095
:1011600001031847E0AA000000AB0000103A24BFBA
:1011700078C878C1FAD8520724BF30C830C144BFFC
:1011800004680C607047000000230024002500263E
:10119000103A28BF78C1FBD8520728BF30C148BFDA
:1011A0000B607047662907F0CA84642900F08C80C0
:1011B000782900F0C580732900F06584002070470D
:1011C0001FB500F077FC04000020002106F058FF56
:1011D000E0601FBD10B510BD00F070FD1146FFF7B7
:1011E000EFFF05F0AFFE00F08EFD03B4FFF7F2FF56
:1011F00003BC01F0B6F9000008480047FEE7FEE72F
:10120000FEE7FEE7FEE7FEE7FEE7FEE7FEE7FEE7B6
:1012100003480449044A054B70470000311100207F
:10122000A0D10020A0D70020A0D30020A0D3002070
:10123000704700000FB4044910B503AA029800F0EB
:1012400027FC10BC5DF814FB04D000200FB41CB5C3
:10125000074B06AA7B4469460090059800F0E9FB1D
:101260000020694600F0F8FB1CBC5DF814FB000090
:101270000108000070B50C460546012A05D0287803
:10128000800600D5EA69002302E0012305E05B1C2B
:10129000934202D2E05C0028F9D1A869E618C01A8E
:1012A000A861286A184428622846AFF3008004E049
:1012B000D5E9012114F8010B9047B442F8D3284630
:1012C000AFF3008070BD00002DE9F0410646002418
:1012D00010687529314616A510D0AFF3008000289C
:1012E00002DA404213A507E031688A0701D512A54A
:1012F00002E0490704D511A5012401E0AFF3008005
:1013000000210A2206F1240709E0B0FBF2FCB0FB41
:10131000F2F302FB1C00303078541846491C0028B8
:10132000F3D123462A463046BDE8F04100F014B917
:10133000000000002D0000002B0000002000000035
:1013400070B504460D4621461068AFF30080218831
:10135000090502D50F4A7A4402E00E4A7A440E3259
:10136000002104F1240305E000F00F060009965D5A
:101370005E54491C0028F7D120780023000704D5CB
:10138000702D02D009B1022311322046BDE8704011
:1013900000F0E2B8A0A700002DE9F05F89460446FE
:1013A0004FF0000ADFF824B1FB44C0F820A020462B
:1013B000E168884700287DD0252806D0D4E901219E
:1013C0009047206A401C2062F1E700255F462046D6
:1013D000E16888472028064607DB312E05D2B81978
:1013E00010F8200C08B10543F1E7A80701D525F056
:1013F0000405C4F81CA00027C4F818A02A2E09D0A0
:10140000304601F0A7F838B304EB8708303EC8F83F
:10141000186019E059F8041B204604EB870291611B
:10142000E1688847012F064618D1E069002820DAD4
:1014300025F020051DE0D8F8180000EB800006EB31
:1014400040003038C8F818002046E1688847064652
:1014500001F080F80028EED1012F0AD02E2E08D1FD
:101460002046E16888477F1C0646022F45F020058C
:10147000C4DBA069002803DA404245F00105A06101
:10148000E80701D025F01005A6B1A6F14100192802
:1014900002D8203645F400654A463146204625608C
:1014A0004D46FFF77FFE60B1012807D0ED1D25F006
:1014B000070000E007E000F1080978E705F10409FA
:1014C00075E730467AE7206ABDE8F09F76A700000E
:1014D0004FF0013C50F8042B51F8043B9A4221D1C3
:1014E000A2EB0C03934313EACC1317D150F8042B4F
:1014F00051F8043B9A4215D1A2EB0C03934313EA33
:10150000CC130BD150F8042B51F8043B9A4209D16B
:10151000A2EB0C03934313EACC13DBD04FF0000093
:10152000704700BFD01A01BAB1FA81F101F0180179
:1015300022FA01F0CB40C1F12001DBB2C0B2C01AE7
:101540002CFA01F3D11A914311EAC311E6D1704785
:1015500070477047704770472DE9F0470D46994630
:101560009246044600F124080168880604D5E06923
:1015700021F01001216000E00120A84201DD471B9D
:1015800000E00027A1697A1902EB0900081AA0619E
:101590002078C00602D42046AFF30080002608E081
:1015A000D4E901211AF806009047206A401C761CF5
:1015B00020624E45F4DB2078C0060AD52046AFF302
:1015C000008006E0D4E9012130209047206A401CC9
:1015D0002062381EA7F10107F4DC07E0D4E90121FD
:1015E00018F805009047206A401C2062281EA5F1CB
:1015F0000105F3DC2046AFF300802078000602D519
:101600000220BDE8F0870120FBE770472DE9FF4F7E
:101610000C461E464FF0FF378BB0D2E90001DDF8D3
:1016200060800A908A46C1F30A5505B93D460021FB
:1016300008464FF00000BAF1000F00F4400005DA50
:1016400000EB80004FF4400101EA50004FEA90594E
:10165000B9F1010F00DDB9460A9850EA4A000ED0F0
:1016600044F61050A5F2FF3545432F14B8F1000F92
:101670001ED07542291E1EDDC9F100021CE0B8F122
:10168000010F4FF0000001D0302103E0F24305E0EC
:101690002154401CB042FBDB304600220021215483
:1016A0000B99C1F80880C1E900200FB0BDE8F08FA8
:1016B000BD1B6D1CDEE74A4600DA694206A800F051
:1016C00083FA06AB93E8070003AB83E807005046B4
:1016D0000A9900F021FB8DE80700A0F500501F38A3
:1016E00000900398002D0ADD42F21F014A4608448B
:1016F000002303A90390684600F08AFD09E0A0F5E5
:1017000000504A461F38002303A90390684600F0A2
:1017100094FD8DE807000004000C03D04FF0FF306B
:10172000410800E01046B8F1000F03D000220092FB
:1017300015461EE0751E05D400F0C0F93032625522
:101740006D1EF9D5B3460122084302D000227F1C4A
:1017500004E02078302801D100227F1E002A09975A
:1017600084D01DE0112D07DA00F0A8F9303262555F
:101770006D1C50EA0102F5D1084302D00098C8B1AF
:101780000EE00021681E05E0235C625C6354225475
:10179000401E491C8142F7DBAB46A81B401E099046
:1017A000002004F80B000B98099AC0F80880C0E9E3
:1017B000002B7AE711264FF0000857E72DE9F04F8C
:1017C00088460446D21D22F0070191B0D1E90001FC
:1017D000CDE90A0100F0AAFE02460B98C00F01D025
:1017E0002D2007E02068810701D52B2002E0202171
:1017F00001EAC000032A099001D0072A05DB03464D
:101800004146204600F0A0F90BE12078800601D582
:10181000E06900E00620B8F1650F814606D0B8F116
:10182000660F18D0B8F1670F70D131E00020B9F120
:10183000110F009001DB112301E009F101030AAA55
:1018400001A90CA8FFF7E2FEDDE90C70002609F102
:101850000105834647E001204B4600904FF00047CA
:101860000AAA01A90CA8FFF7D1FEDDE90DB00C9979
:101870005D46002610B909F101000D18B9EB05000D
:1018800003D4C0F1FF3609F10105A5EB09002BE0F7
:10189000B9F1010F01DA4FF001090020B9F1110F80
:1018A0000090484601DD112300E003460AAA01A981
:1018B0000CA8FFF7ABFEDDE90C704D460026834611
:1018C000207800070AD4AB4500DA5D4601A8012D57
:1018D00004DD411911F8011C302907D04F4502DA07
:1018E00017F1040F04DA012082460FE06D1EEEE7C7
:1018F000002F02DCED1B3E4403E0781CA84200DD13
:101900007D1CB81B00F1010A4FF00047207800074A
:1019100003D4AA4501DB4FF0FF3A0021B7F1004F95
:101920000DF143088DF8431024D002202B23002F03
:1019300001DA7F422D230A21021EA0F1010000DC02
:101940005FB197FBF1FC97FBF1F201FB1C7C1746A2
:101950000CF1300C08F801CDEEE7A8F1010003709E
:101960002188090501D5452100E06521A0F1010884
:1019700000F8011C09980FA9A1EB0807FF1D00B191
:101980000120411901EBEA70A1693844081A401E90
:10199000A0612078C00602D42046AFF300800998E9
:1019A00028B1D4E901219047206A401C20622078A8
:1019B000C00622D52046AFF300801EE0002E04DBD7
:1019C000B34502DD01A8805D00E03020D4E90121AB
:1019D0009047206A401C2062761CAAF101005FEA51
:1019E000000A0AD100F066F8C0680168405CD4E9DA
:1019F00001219047206A401C2062281EA5F10105A4
:101A0000DCDC07E0D4E9012118F8010B9047206ADB
:101A1000401C2062381EA7F10107F3DC2046AFF31B
:101A20000080032011B041E601694A1C0261087878
:101A3000704700B58FB0CDE901310021059105490E
:101A40007944CDE9031011466846FFF7A5FC0FB0B5
:101A500000BD0000E5FFFFFF0A6802F8010B0A6005
:101A6000704710B5436913B1AFF3008001E0FFF791
:101A700001FC012010BD127800F124010A7000223F
:101A80004A700122EDE711684FF0FF32E9E70000EC
:101A9000074B70B50D467B44FFF7CBFF0446284645
:101AA00000F004F910B14FF0FF3070BD204670BD5A
:101AB000E70F0000004870475CD1002030B5B0F15E
:101AC0000A024FEA900E71F100034EEA817EB0EBFC
:101AD0000E0061EB91014FEA101E4EEA017E10EB01
:101AE0000E0041EB11114FEA102E4EEA016E10EB81
:101AF0000E0041EB11214FEA104E4EEA014E10EB61
:101B00000E0041EB1141401841F100014FEAD000B5
:101B100040EA41704FEAD10110EB80054FEA8104A1
:101B200044EA907444EB01046D1944EB0404521B25
:101B3000A3414FF0000348BF0A3200D530BD401C1E
:101B400041F1000130BD00002DE9F0411F4604467F
:101B500003260168072A01F4006004DB08B116A51A
:101B600005E016A503E008B115A500E015A521F0D4
:101B700010002060A069C01EA0610FB1401EA061CE
:101B80002046AFF300804FB1D4E901213846904799
:101B9000206A401C2062C01C206206E0206AFAE72E
:101BA000D4E9012115F8010B9047761EF8D22046A2
:101BB000AFF30080BDE8F0814E414E006E616E00D3
:101BC000494E4600696E66002DE9F047814616468B
:101BD0008AB0354878440DC88DE80D003248784405
:101BE000801C03AC0DC884E80D0041F69B3008440E
:101BF000372190FBF1F290FBF1F5A5F1800501FB97
:101C000012041B3C02D56442012000E00020DFF8F2
:101C100098A080460027FA44AAF1BE0A0EE0E00729
:101C20000AD03246684607EB470101230AEB8101DF
:101C300000F003FB8DE8070064107F1C002CEED140
:101C4000194F7F44AE3F19E0E80715D007EB0410A9
:101C50000DF1180A90E80E008AE80E00C068F04204
:101C600001D1981908903246012306A903A800F073
:101C7000E4FA03AB83E807006D10641C002DE3D188
:101C80004FF0010332466946B8F1000F03A802D0B5
:101C900000F0BEFA01E000F0D0FAC9E90001C9F88D
:101CA00008200AB0BDE8F087D89F0000007B00F054
:101CB00080007047004870473CD100207546FFF710
:101CC000F9FFAE4605006946534620F007008546F9
:101CD00018B020B5FFF79CFABDE820404FF0000691
:101CE0004FF000074FF000084FF0000B21F0070104
:101CF000AC46ACE8C009ACE8C009ACE8C009ACE847
:101D0000C0098D46704710B50446AFF300802046E9
:101D1000BDE81040FFF769BA5FEA400C08BF91F0D8
:101D2000000F4FEA8C234FEAC12243EA51514FEA98
:101D30001C5018BF00F5F0404FEA300018BF41F0CA
:101D400000415FEA6C5C00F02980BCF1FF3F08BFF6
:101D500040F080407047130C06BF12044FF0100C87
:101D60004FF0000C130E04BF12020CF1080C130FFD
:101D700004BF12010CF1040C930F04BF92000CF18C
:101D8000020CD30F04BF52000CF1010C11464FF0AE
:101D90000002A0F11F00A0EB0C00704711F0004FF3
:101DA00008BF704731F000413FF4D5AF0B0C06BFC0
:101DB00009044FF0100C4FF0000C0B0E04BF090289
:101DC0000CF1080C0B0F04BF09010CF1040C8B0F74
:101DD00004BF89000CF1020CCB0F04BF49000CF1C9
:101DE000010CCCF12003A0EB0C0022FA03F302FA61
:101DF0000CF241EA030100F10100704720F07F4C32
:101E000080EA030023F07F47ACEB070303F57C5324
:101E100000F0004003F1FF032DE980494FEA154B24
:101E200009B44FEA144325EA0B4E24EA03480FF2A3
:101E3000042606EB132749083E785FEA320203FBCB
:101E40000667C7F5000707FB06F64FEA54374FEA67
:101E5000D64606F1020607FB066CCCF1005C4FEAA1
:101E60001C472CEA074C07FB06F40CFB06F504EBB9
:101E700015464FEA961634BF00204FF000404FEA57
:101E8000D13706FB07FC4FEA1C4C0CFB0BF7D21BAF
:101E900003FB0CF761EB07010CFB0EF7B0EB0740FF
:101EA00072EB17420CFB08F734BFA2EB0742B2EB10
:101EB000074261EB17414FEA0C444FEA910706FBDA
:101EC00007FC4FEA1C4C0CFB0BF7B0EBC74072EB66
:101ED000573203FB0CF734BFA2EBC742B2EBC74249
:101EE00061EB57310CFB0EF7B0EBC70072EB57728A
:101EF0000CFB08F734BFA2EBC702B2EBC70261EBE1
:101F00005771039F4FEA816141EA921104EBCC04BF
:101F10004FEAD1374FEA826206FB07FC42EA901291
:101F20004FEA80604FEA1C4C0CFB0BF7D21B03FB03
:101F30000CF761EB07010CFB0EF7B0EB074072EBFF
:101F400017420CFB08F734BFA2EB0742B2EB074283
:101F500061EB17414FEA8C554FEA910704EB9C2443
:101F600006FB07FC4FEA1C4C0CFB0BF7B0EBC74021
:101F700072EB573203FB0CF734BFA2EBC742B2EB54
:101F8000C74261EB57310CFB0EF7B0EBC70072EBA9
:101F900057720CFB08F734BFA2EBC702B2EBC702C3
:101FA00061EB577115EB4C254FEA816141EA9211C3
:101FB0004FEA82624FEAD13742EA901206FB07FCF1
:101FC00044F100044FEA80604FEA1C4C0CFB0BF715
:101FD000D21B03FB0CF761EB07010CFB0EF7B0EB18
:101FE000074072EB17420CFB08F734BFA2EB074225
:101FF000B2EB074261EB174115EB1C154FEA81313B
:1020000041EA92414FEA823242EA90424FEA8030FE
:102010004FEA0C7644F1000448EA03434EEA0B48C9
:102020004FF0000EB2EB080C71EB030724BF6246C1
:1020300039464EEB0E0E4FF0000B0018524149414D
:102040004BEB0B0BB2EB080C71EB03077BF1000BB6
:1020500024BF624639464EEB0E0E4FF0000B0018BF
:10206000524149414BEB0B0BB2EB080C71EB0307F0
:102070007BF1000B24BF624639464EEB0E0E51EA4F
:10208000020718BF46F0010616EB0E7655F1000266
:1020900054F1000103D5BDE88901BDE80088BDE821
:1020A0008901BDE80048B619524141EB0101A3F195
:1020B0000103704780807F7E7D7C7B7A797877769C
:1020C00076757473727171706F6E6E6D6C6C6B6A15
:1020D0006A696868676666656464636362616160B3
:1020E000605F5F5E5E5D5D5C5C5B5B5A5A59595830
:1020F000585757565655555554545353525252519A
:10210000515050504F4F4F4E4E4D4D4D4C4C4C4BEF
:102110004B4B4A4A4A494949484848474747474636
:102120004646454545444444444343434342424272
:1021300042414141002B9C4630D477002BD01CB546
:102140004FEA370703B44FF010004FF01001BAF117
:10215000000F06D0BCF1000FDCBF40F0080040F0DB
:1021600008014FF000000FBCBDE810400BF1010B5F
:10217000BBF1010F08BF5FEA170722BF12F101028E
:1021800011F101014FF0004143F1000300F0004064
:1021900043EA00007047F9D35708D0E746EA0646FD
:1021A00013F1400F4FEA16461FDD13F1200FDFBF7A
:1021B00016430A46002120335B42BED0C3F12007FC
:1021C00046EA064602FA07F74FEA164646EA0706C7
:1021D000C3F1200722FA03F201FA07F721FA03F10B
:1021E0004FF0000342EA0702A7E746EA020646EA82
:1021F00006464FEA164646EA0106BCBF46EA0646D0
:10220000360C4FF000034FF000024FF0000194E74E
:102210002DE9804C9A46934670B491E8380007C87F
:1022200031EA400C48BF34EA430C03D5FFF7E6FD22
:10223000FFF780FFF0BCBDE8008C2DE9804C9A468A
:10224000934670B491E8380007C810F0804F08BF7B
:1022500013F0804F03D100F005F8FFF76BFFF0BCDF
:10226000BDE8008C20F07F4780EA030023F07F4C1C
:1022700007EB0C03A3F57C5300F00040A3F1FE0331
:1022800092F0000F00F0B38095F0000F00F077801F
:102290002DE901494FEA11404FEA144621EA00486E
:1022A00000FB06FC24EA064708FB06F607FB08F8D5
:1022B00000FB07F718EB06484CEB164C4FEA124BA5
:1022C00018EB07484FEA15464CEB174022EA0B4E35
:1022D0000BFB06FC25EA06470EFB06F607FB0EFE87
:1022E0000BFB07F71EEB064E4CEB164C4FF00006AF
:1022F0001EEB074E4CEB174B18EB0B0840F10000A0
:1023000018EB0E0B58EB000840F100008F1A4FF04D
:1023100000013CBFC943661B14BFB5EB040C002190
:102320003CBFC943F61B4FEA17444EEA8E0E27EA1C
:1023300004454FEA1C4704FB07622CEA074C05FBE7
:1023400007F70CFB05F604FB0CFC16EB074642EB0B
:10235000174216EB0C4642EB1C421BEB060658EBF1
:102360000202414146EA9E0601D5BDE80189B6193F
:10237000524141EB0101A3F10103BDE801894FEA9C
:1023800014454FEA114724EA054621EA074C05FBAC
:1023900007F406FB07F70CFB06F105FB0CFC11EB41
:1023A000074144EB17444FEA124711EB0C4144EB51
:1023B0001C4422EA074C05FB07F206FB07F70CFB5F
:1023C00006F605FB0CFC16EB074642EB174216EB34
:1023D0000C4642EB1C456A1854F1000148BF704797
:1023E000B619524141EB0101A3F10103704795F089
:1023F000000F37D04FEA11424FEA144721EA024654
:1024000024EA074C02FB07F106FB07F70CFB06F476
:1024100002FB0CFC14EB074441EB17414FEA154754
:1024200014EB0C4441EB1C4125EA074C02FB07F579
:1024300006FB07F70CFB06F602FB0CFC16EB074647
:1024400045EB174516EB0C4645EB1C42121951F1B2
:10245000000148BF7047B619524141EB0101A3F199
:10246000010370474FEA14454FEA114724EA054635
:1024700021EA074C05FB07F106FB07F70CFB06F208
:102480004FF0000605FB0CFC12EB074241EB174135
:1024900012EB0C4251EB1C4148BF7047921841EBC4
:1024A0000101A3F1010370471D49096801F02001F2
:1024B00011B31B49091D0968C8B21A49098801F4FA
:1024C0000041C9B91749098801F4804161B10A285E
:1024D00003D00021134A118020E01249098841F4F9
:1024E0000041104A118019E00D2806D10D490988D4
:1024F00041F480410B4A118010E00A490988C1F378
:102500000D01094A505407490988491C054A1180A0
:1025100011460988C72901DD00211180704700009C
:102520000038014008D0002064D00020490050EA63
:10253000C12018BF04204A0D18BF40F0010040F22E
:10254000FF72B2EB515F08BF40F00200012808BFE4
:102550000520704730380A2801D20120704700203A
:10256000704700BF704710B500F0E2FE10BD70B5B7
:1025700005460C46164606E028466A1C95B200F051
:1025800008F804F8010B301EA6F101018EB2F3D158
:1025900070BD70B50446002600F05EFF2112A02237
:1025A00002EB4101C8B200F031FF00F08DFF25467B
:1025B000E11704EB11610912A4EB0121C8B200F08C
:1025C00025FF00F081FF00F047FFA12000F01EFF73
:1025D00000F07AFF002000F0EFFE064600F05AFF00
:1025E000304670BD70B505460C46164606E02178AB
:1025F000284600F009F8681C85B2641C301EA6F15C
:1026000001018EB2F3D170BD70B504460E4600F0E4
:1026100023FF2112A02202EB4101C8B200F0F6FE16
:1026200000F052FF2546E11704EB11610912A4EBFB
:102630000121C8B200F0EAFE00F046FF304600F08B
:10264000E5FE00F041FF00F025FF0A2000F0EAF966
:1026500070BD000010B500224FF400710D4804F069
:10266000BFFD00F01BF8012202210B4804F0B8FD69
:1026700000F014F800220221074804F0B1FD00F038
:102680000DF801225102034804F0AAFD00F006F8FB
:1026900010BD0000001C0140000C014010B50220DC
:1026A00000F0CAF910BD00001CB500BF11488069D8
:1026B00040F008000F49886100BF00BF08468069EC
:1026C00040F08000886100BF012000900023024696
:1026D00002210190084804F08FFD0120009003467C
:1026E000024641020190054804F086FD00F09CF886
:1026F0001CBD000000100240000C0140001C014005
:1027000010B5012251020A4804F06AFDFFF7C6FF26
:1027100001220221074804F063FDFFF7BFFF0022FA
:102720000221044804F05CFDFFF7B8FF10BD000073
:10273000001C0140000C014070B505460024002635
:1027400019E06006040E01220221104804F048FD41
:10275000FFF7A4FF4FF400710D4804F039FD08B1F4
:10276000601CC4B200220221084804F039FDFFF7C2
:1027700095FF701CC6B2082EE3DB15B9FFF7C0FF4A
:1027800001E0FFF767FF204670BD0000000C01402C
:10279000001C014070B50446002517E0E2094FF423
:1027A00000710E4804F01CFDFFF778FF01220221A2
:1027B0000B4804F015FDFFF771FF002202210848C5
:1027C00004F00EFD6006040E681CC5B2082DE5DBA2
:1027D00001225102014804F003FD70BD001C0140BC
:1027E000000C014010B5012251020D4804F0F8FC24
:1027F000012202210B4804F0F3FCFFF74FFF0022F7
:102800004FF40071064804F0EBFCFFF747FF00228D
:102810000221044804F0E4FCFFF740FF10BD000073
:10282000001C0140000C014010B500224FF4007163
:10283000094804F0D5FCFFF731FF012202210748C7
:1028400004F0CEFCFFF72AFF01225102024804F0F7
:10285000C7FCFFF723FF10BD001C0140000C014026
:1028600070B50024002501225102144804F0B8FC80
:10287000FFF714FF01220221114804F0B1FCFFF719
:102880000DFF09E0601CC4B2FA2C03DDFFF7CCFF9A
:10289000012508E0FFF702FF4FF40071074804F03C
:1028A00097FC0028EED100BF00220221044804F06A
:1028B00097FCFFF7F3FE284670BD0000001C0140A6
:1028C000000C01408CB00024002505264648808875
:1028D00041F21801884200D10A2683E0434841684A
:1028E00000208847002468E04048808E0121A140F4
:1028F000084000285AD03D480C3030F814003A49BE
:102900000988884257DA3948203030F814003649AF
:10291000498888424FDA02A830F824004FF6FF7148
:1029200088420DD131480C3030F8140002A921F84A
:1029300024002E48203030F8140001EB8401488038
:102940002B4830F814000221284F2037CDE9001021
:1029500037F81430143F37F8142002AF07EB840720
:10296000798802AF37F8240000F056FF1F480C307A
:1029700030F8140002A921F824001C48203030F857
:10298000140001EB8401488018480C3030F8141012
:1029900015480088183881420DDD1448203030F881
:1029A0001400142807DA04F0B3FA04E04FF6FF70BD
:1029B00002A921F82400601CC4B2B44294DB0520B3
:1029C00000F030F8681CC5B2142095FBF0F100FB54
:1029D000115038B900BF0748006880F02000054951
:1029E000086000BF7AE700002CD1002018D000203A
:1029F000428B00200C0C01404FF0E021096941F0AE
:102A000004014FF0E022116105490860114609698F
:102A100041F0010111616FF0704151617047000098
:102A200000D0002010B504464FF47A7104FB01F089
:102A300000F002F810BD000070B5034600224FF010
:102A4000E02675690D4E366803FB06F44FF0E0266C
:102A5000B16910E04FF0E026B06988420BD088429F
:102A600002D20E1A324402E02E1A0E4432440146BB
:102A7000A24200D300E0EDE700BF70BD00D000200F
:102A800000BF054A126802F04002002AF9D0C2B223
:102A9000014B1B1D1A607047003801400EB500BF86
:102AA0003B48806940F080003949886100BF00BF21
:102AB0000846806940F08000886100BF01200090D6
:102AC00000230246C1020190324804F095FB012028
:102AD000009000231A46810201902E4804F08CFBDE
:102AE000FFF7E2FD00224FF400612A4804F078FB72
:102AF0001420FFF797FF0122D102264804F070FB53
:102B00003220FFF78FFF00208DF80800012202A974
:102B100000F046F9012202A9A42000F041F9162094
:102B20008DF80800012202A9802000F039F90C205C
:102B30008DF80800012202A9882000F031F9022254
:102B400002A9A12000F02EF89DF80800302803D13A
:102B50009DF8090003280DD09DF80900012809D02F
:102B60009DF80900022805D09DF8080068B99DF875
:102B7000090050B99DF809009DF8082000EB0221DA
:102B800005A0FEF757FB00200EBD0120FCE700006A
:102B900000100240001C01404354502049443A2593
:102BA000780D0A002DE9F04106460F461546FFF75D
:102BB00019FE7020FFF7EEFDFFF752FEF0B2FFF7AF
:102BC000E9FDFFF74DFEFFF70DFE7120FFF7E2FD77
:102BD000FFF746FE00240BE0691EA14201D001214F
:102BE00000E000210846FFF7A7FD3855601CC4B27D
:102BF000AC42F1DBFFF718FEBDE8F0812DE9FC41A6
:102C00000746002001900024002661480078401CFF
:102C10005F490870084600780A2190FBF1F201FB39
:102C2000120018B15A4800780A2867DA012201A96F
:102C30000220FFF7B7FF9DF8040000F00F00002806
:102C40005CD09DF8040000F00F0006287BDA9DF8A8
:102C5000040000F00F014FF6FF70884085B2E84392
:102C600080B240F440404B4988860420FFF7DAFEEA
:102C700000245AE04748808E0121A1400840E0B37B
:102C8000454931F8140004226946FFF78BFF41489B
:102C900090F8440000F00100C0B19DF801009DF8DB
:102CA000001001F00F0100EB01203A49203121F81A
:102CB00014009DF803009DF8021001F00F0100EBD5
:102CC000012134480C3020F814101EE09DF801005A
:102CD0009DF8001001F00F0100EB01202F49098839
:102CE000081A81B22B480C3020F814109DF803000C
:102CF0009DF8021001F00F0101E014E023E000EB69
:102D000001202449203121F814009DF8000000F032
:102D1000F000802807D000211E48203020F8141031
:102D2000143820F81410601CC4B2052CA2DB012654
:102D30001848808920B91748008C08B900200190F4
:102D40000020134908709DF8040000F01F00A8B986
:102D50001048808E00F4004030B10E48808E20F480
:102D600000400C49888609E04FF6FF7009498881C8
:102D700008840846808E00F4604088860448007805
:102D8000F02802DD0A20024908703046BDE8FC81C7
:102D900060D0002018D00020DCBA00202CD1002008
:102DA0002DE9F04105460E4617464FF00008FFF7A3
:102DB00019FD7020FFF7EEFCFFF752FDE8B2FFF7B8
:102DC000E9FCFFF74DFD00240BE0305DFFF7E2FC6E
:102DD000FFF746FD8046B8F1000F00D003E0601C0D
:102DE000C4B2BC42F1DB00BFFFF71EFD4046BDE8A8
:102DF000F08100001FB500BF4148806940F08000AD
:102E00003F49886100BF00BF0846806940F08000EC
:102E1000886100BF0120009000230246C10201909A
:102E2000384804F0E9F90120009000231A46810295
:102E30000190344804F0E0F9FFF736FC00224FF42B
:102E40000061304804F0CCF90A20FFF7EBFD0122C5
:102E5000D1022C4804F0C4F90A20FFF7E3FD00205A
:102E6000012103460246CDE900108902254804F0FD
:102E7000C3F96420FFF7D6FD042202A948F24010EE
:102E800000F058F800208DF80C001FA102A8FEF7F2
:102E90001FFB88B11DA102A8FEF71AFB60B11DA19E
:102EA00002A8FEF715FB38B11CA102A8FEF710FB23
:102EB00010B1012004B010BD02A91AA0FEF7BAF9A2
:102EC00016A102A8FEF704FB10B90A2018490870E1
:102ED00002208DF80800012202A948F2400000F00B
:102EE000D3F90A20FFF79EFD00208DF8080001228B
:102EF00002A948F2400000F0C7F90020DAE700001C
:102F000000100240001C01403931310039313437A2
:102F1000000000003131353800000000393237310F
:102F2000000000004354502049443A25730D0A0024
:102F300061D000202DE9F04105460F461646FFF707
:102F400051FC2820FFF726FCFFF78AFC2812FFF728
:102F500021FCFFF785FCE8B2FFF71CFCFFF780FCC3
:102F6000FFF740FC2920FFF715FCFFF779FC002450
:102F70000BE0711EA14201D0012100E000210846B2
:102F8000FFF7DAFB3855601CC4B2B442F1DBFFF73F
:102F90004BFCBDE8F081000071B583B000200190CA
:102FA0000026B4480078401CB249087008460178F1
:102FB0000A2091FBF0F200FB121018B1AD48007826
:102FC0000A287DDA012203A948F24E10FFF7B2FF6A
:102FD0009DF80C0000F0800078B19DF80C0000F026
:102FE0000F00A5490978884207DC002001900122E2
:102FF00001A948F24E1000F047F99DF80C0000F0CE
:103000000F0000285CD09DF80C0000F00F009A49DA
:103010000978884254DC9DF80C0000F00F014FF64F
:10302000FF70884084B29548858EE04380B240F4BA
:10303000404092498886084682898F480078401E21
:103040000C3121F810208D48028C8B480078401EEE
:10305000143121F8102000200190A7E08748808ECD
:103060009DF8042001219140084000283FD0844968
:103070009DF8042031F81200042202A9FFF75AFF3C
:103080008048808845F2105188420BD07D48808866
:1030900049F60601884205D07A48808847F2967141
:1030A000884240D1754890F8440000F00100F8B122
:1030B0009DF80A009DF80B1000EB0120714900E01B
:1030C000B2E00988081A81B26C480C309DF80420DF
:1030D00020F812109DF808009DF8091000EB01205F
:1030E00081B2664820309DF8042020F8121058E084
:1030F0009DF808009DF8091000EB012081B25F489F
:103100000C309DF8042020F812109DF80A009DF85C
:103110000B1000EB012081B2584820309DF80420AC
:1031200020F812103DE0554890F8440000F00100EE
:10313000D0B19DF808009DF8091000EB012081B284
:103140004E480C309DF8042020F812109DF80A001B
:103150009DF80B1000EB012081B2484820309DF80B
:10316000042020F812101CE09DF80A009DF80B10B6
:1031700000EB012043490988081A81B23F480C300E
:103180009DF8042020F812109DF808009DF8091001
:1031900000EB012081B2394820309DF8042020F84E
:1031A00012109DF80400401CC0B201909DF804006C
:1031B000314909788842FFF651AF01262F488089AE
:1031C00030490988884205DC2C48008C2D49498803
:1031D000884226DD9DF80C0000F00F0001280ADD72
:1031E0002648C089254988810846408C08840020EB
:1031F0002049087018E020480078401E1F490C3113
:1032000031F810000C3988811B480078401E2031AD
:1032100031F8100020390884802003900846858604
:1032200002E00020134908709DF80C0000F08F00A8
:10323000802815D11148808E00F4004030B10F482D
:10324000808E20F400400D49888609E04FF6FF701B
:103250000A49888108840846808E00F46040888688
:1032600004480078F02802DD0A2002490870304640
:1032700004B070BD62D0002061D0002018D00020C2
:10328000E6BA00202CD100202DE9F04104460E467C
:1032900017464FF00008FFF7A5FA2820FFF77AFA43
:1032A000FFF7DEFA2012FFF775FAFFF7D9FAE0B25E
:1032B000FFF770FAFFF7D4FA00250BE0705DFFF717
:1032C00069FAFFF7CDFA8046B8F1000F00D003E0AD
:1032D000681CC5B2BD42F1DB00BFFFF7A5FA40464E
:1032E000BDE8F08110B5002280210D4803F078FF81
:1032F00000F018F801224021094803F071FF00F0A6
:1033000011F800224021064803F06AFF00F00AF895
:1033100001228021024803F063FF00F003F810BD92
:10332000000C014010B50220FFF786FB10BD000025
:103330001CB500BF1148806940F008000F49886142
:1033400000BF00BF0846806940F00800886100BFE8
:10335000012000900023024640210190084803F01C
:103360004BFF012000900346024680210190044853
:1033700003F042FF00F08EF81CBD00000010024078
:10338000000C014010B5012280210A4803F028FFFB
:10339000FFF7C8FF01224021064803F021FFFFF795
:1033A000C1FF00224021034803F01AFFFFF7BAFFD4
:1033B00010BD0000000C014070B505460024002639
:1033C00018E06006040E012240210F4803F008FFB8
:1033D000FFF7A8FF80210C4803F0FAFE08B1601C3B
:1033E000C4B200224021084803F0FAFEFFF79AFF1A
:1033F000701CC6B2082EE4DB15B9FFF7C3FF01E06D
:10340000FFF770FF204670BD000C014070B5044608
:10341000002516E0E20980210E4803F0E1FEFFF7E7
:1034200081FF012240210B4803F0DAFEFFF77AFF0B
:1034300000224021074803F0D3FE6006040E681CFA
:10344000C5B2082DE6DB01228021024803F0C8FE48
:1034500070BD0000000C014010B5012280210C4815
:1034600003F0BEFE01224021094803F0B9FEFFF738
:1034700059FF00228021064803F0B2FEFFF752FFF9
:1034800000224021024803F0ABFEFFF74BFF10BDC6
:10349000000C014010B5002280210A4803F0A0FE74
:1034A000FFF740FF01224021064803F099FEFFF795
:1034B00039FF01228021034803F092FEFFF732FF1B
:1034C00010BD0000000C014070B500240025012251
:1034D0008021124803F084FEFFF724FF01224021DF
:1034E0000E4803F07DFEFFF71DFF07E0601CC4B22D
:1034F000FA2C03DDFFF7CEFF012505E08021074808
:1035000003F066FE0028F1D100BF002240210348ED
:1035100003F066FEFFF706FF284670BD000C014071
:103520001CB500BF2048806940F040001E498861FA
:1035300000BF00BF0846806940F04000886100BFBE
:1035400000BF0846806940F04000886100BF00BFAE
:103550000846806940F00400886100BF01200090A7
:1035600000231A4610210190104803F045FE012067
:10357000009000231A46082101900C4803F03CFEFD
:103580000120009000231A4604210190074803F00F
:1035900033FE0220012100231A46CDE90010044821
:1035A00003F02AFE1CBD000000100240001801407C
:1035B0000008014070B50446002514B101202B49D4
:1035C00008702A480078002834D01021284803F0D9
:1035D000FFFD78B10821264803F0FAFD50B104211F
:1035E000234803F0F5FD28B10121224803F0F0FD46
:1035F00001281FD10A20FFF715FA00201B49087087
:1036000010211B4803F0E4FD00B9012508211848EA
:1036100003F0DEFD00B902250421154803F0D8FDB2
:1036200000B903250121134803F0D2FD01281BD165
:10363000042519E010210E4803F0CAFD012813D11A
:1036400008210B4803F0C4FD01280DD104210848CE
:1036500003F0BEFD012807D10121064803F0B8FDA3
:1036600010B9012001490870284670BD14D000200F
:10367000001801400008014070B5044600260948C2
:103680000588408845430021084603F053FA03F0BB
:10369000F9FB00BF02E004480480761CAE42FAD376
:1036A00070BD00002CD100200008006C10B504464D
:1036B00058488471002C58D1F020564908804FF4A6
:1036C000A07048800846808845F21051884210D189
:1036D0004FF430504F4908814FF4285048814FF43F
:1036E0002C5088814FF4F07008804FF44870488067
:1036F0001AE04848808841F6631188420DD12C2099
:10370000444908812B2048812A2088814FF4F07099
:1037100008804FF44870488006E02C203D4908811D
:103720002A2048812B2088813A48808845F2103130
:10373000884205D03748808847F29671884206D182
:103740004FF4A070334908804FF4F070488031483E
:10375000808849F60601884258D14FF4F0702D490F
:1037600008804FF44870488050E04FF4A070294919
:103770000880F02048800846808845F21051884231
:1037800010D14FF43050234908814FF4285048811C
:103790004FF42C5088814FF4487008804FF4F0703B
:1037A000488020E01B48808841F66311884205D09C
:1037B0001848808849F6060188420DD12C20154909
:1037C00008812A2048812B2088814FF44870088086
:1037D0004FF4F070488006E02C200E4908812A2022
:1037E00048812B2088810B48808845F2103188421F
:1037F00005D00848808847F29671884206D14FF478
:10380000F070044908804FF4A0704880002003F055
:1038100073F810BD2CD100202DE9FF4F85B08046F4
:103820008946129F002003900290B84507DB079855
:10383000B84204DBB94502DB0898B84202DA09B0A5
:10384000BDE8F08F0798A0EB08040898A0EB0905E5
:10385000CDF80480CDF80090002C02DD4FF0010A75
:1038600006E014B94FF0000A02E04FF0FF3A64425C
:10387000002D02DD4FF0010B06E015B94FF0000BF3
:1038800002E04FF0FF3B6D42AC4201DD264600E016
:103890002E460020049023E0009A91B2019A90B243
:1038A0003A46139B02F078FD039820440390029857
:1038B000284402900398B04205DD0398801B0390D2
:1038C0000198504401900298B04205DD0298801B97
:1038D00002900098584400900498401C80B20490D4
:1038E000711C04988842D7DD00BFA8E72DE9F04796
:1038F00006460F4690469A46002445460320A0EB14
:10390000480944E07A1B91B2321990B2524600F055
:10391000B5F83A1B91B2721990B2524600F0AEF867
:103920003A1991B2721990B2524600F0A7F87A197A
:1039300091B2321990B2524600F0A0F87A1991B2C1
:10394000321B90B2524600F099F83A1991B2721BAC
:1039500090B2524600F092F87A1B91B2321B90B2AC
:10396000524600F08BF83A1B91B2721B90B252464D
:1039700000F084F8641CB9F1000F03DAA000801D88
:10398000814404E0601B80000A3081446D1EAC421B
:10399000B8DDBDE8F0870000F8B504460D461646D0
:1039A0001F463EB109480088A04203DB0748408813
:1039B000A84200DAF8BDA019401E82B22B46294663
:1039C0002046009702F0BEFC00BFF3E72CD1002098
:1039D0002DE9FF4F84B081468A460020029083463D
:1039E0000698A0EB09050798A0EB0A06CDF804900D
:1039F000CDF800A0002D01DD012705E00DB900275D
:103A000002E04FF0FF376D42002E02DD4FF001085B
:103A100006E016B94FF0000802E04FF0FF3876429A
:103A2000B54201DD2C4600E03446002003901EE044
:103A3000009A91B2019A90B2119A00F01FF8029880
:103A400028440290B3440298A04205DD0298001B6E
:103A50000290019838440190A34504DDABEB040BC0
:103A60000098404400900398401C80B20390611C71
:103A700003988842DCDD08B0BDE8F08F70B50546DC
:103A80000E4614463146284603F054F803F0FAF97E
:103A900001490C8070BD00000008006C10B5CF20FB
:103AA00003F0E4F9002003F0D5F9C12003F0D2F9C6
:103AB000302003F0CFF9ED2003F0D8F9642003F0B3
:103AC000C9F9032003F0C6F9122003F0C3F98120DD
:103AD00003F0C0F9E82003F0C9F9852003F0BAF932
:103AE000102003F0B7F97A2003F0B4F9CB2003F0EB
:103AF000BDF9392003F0AEF92C2003F0ABF900201A
:103B000003F0A8F9342003F0A5F9022003F0A2F98C
:103B1000F72003F0ABF9202003F09CF9EA2003F032
:103B2000A5F9002003F096F9002003F093F9C020D6
:103B300003F09CF91B2003F08DF9C12003F096F9E6
:103B4000012003F087F9C52003F090F9302003F03D
:103B500081F9302003F07EF9C72003F087F9B72000
:103B600003F078F9362003F081F9482003F072F968
:103B70003A2003F07BF9552003F06CF9B12003F0F3
:103B800075F9002003F066F91A2003F063F9B620F6
:103B900003F06CF90A2003F05DF9A22003F05AF952
:103BA000F22003F063F9002003F054F9262003F01B
:103BB0005DF9012003F04EF9E02003F057F90F20E2
:103BC00003F048F92A2003F045F9282003F042F9D0
:103BD000082003F03FF90E2003F03CF9082003F021
:103BE00039F9542003F036F9A92003F033F94320C2
:103BF00003F030F90A2003F02DF90F2003F02AF921
:103C0000002003F027F9002003F024F9002003F03E
:103C100021F9002003F01EF9E12003F027F900202C
:103C200003F018F9152003F015F9172003F012F925
:103C3000072003F00FF9112003F00CF9062003F020
:103C400009F92B2003F006F9562003F003F93C2074
:103C500003F000F9052003F0FDF8102003F0FAF856
:103C60000F2003F0F7F83F2003F0F4F83F2003F0B3
:103C7000F1F80F2003F0EEF82B2003F0F7F8002006
:103C800003F0E8F8002003F0E5F8012003F0E2F883
:103C90003F2003F0DFF82A2003F0E8F8002003F0CB
:103CA000D9F8002003F0D6F8002003F0D3F8EF2075
:103CB00003F0D0F8112003F0D9F87820FEF7B2FE17
:103CC000292003F0D3F810BD10B5FF2003F0CEF883
:103CD000FF2003F0BFF8982003F0BCF8062003F0A3
:103CE000B9F8BC2003F0C2F8012003F0B3F80F20AC
:103CF00003F0B0F8612003F0ADF8FF2003F0AAF85C
:103D0000012003F0A7F8012003F0A4F80B2003F032
:103D1000A1F8102003F09EF8372003F09BF86320F1
:103D200003F098F8FF2003F095F8FF2003F092F8D5
:103D3000012003F08FF8012003F08CF8002003F03D
:103D400089F8002003F086F8FF2003F083F8522062
:103D500003F080F8012003F07DF8002003F07AF8EA
:103D6000402003F077F8BD2003F080F8012003F035
:103D700071F8232003F06EF8452003F06BF86720FC
:103D800003F068F8012003F065F8232003F062F8DF
:103D9000452003F05FF8672003F05CF8BE2003F0D5
:103DA00065F8002003F056F8012003F053F8AB202B
:103DB00003F050F8602003F04DF8222003F04AF899
:103DC000222003F047F8222003F044F8222003F0D9
:103DD00041F8222003F03EF8C72003F047F83620D0
:103DE00003F038F8ED2003F041F87F2003F032F8BB
:103DF0000F2003F02FF8C02003F038F80F2003F055
:103E000029F80B2003F026F80A2003F023F8FC2001
:103E100003F02CF8082003F01DF8DF2003F026F84B
:103E2000002003F017F8002003F014F8002003F03E
:103E300011F8002003F00EF8002003F00BF820200A
:103E400003F008F8F32003F011F8742003F002F8EF
:103E5000B42003F00BF8002002F0FCFF002002F079
:103E6000F9FF002002F0F6FFF72002F0FFFF8220AA
:103E700002F0F0FFB12002F0F9FF002002F0EAFFAB
:103E8000132002F0E7FF132002F0E4FFF22002F01B
:103E9000EDFF802002F0DEFF042002F0DBFF402077
:103EA00002F0D8FF282002F0D5FFC12002F0DEFF8B
:103EB000172002F0CFFF882002F0CCFF882002F00C
:103EC000C9FF202002F0C6FFE02002F0CFFF002053
:103ED00002F0C0FF0A2002F0BDFF122002F0BAFF7C
:103EE000102002F0B7FF0E2002F0B4FF202002F0F5
:103EF000B1FFCC2002F0AEFF072002F0ABFF06209E
:103F000002F0A8FF0B2002F0A5FF0E2002F0A2FF96
:103F10000F2002F09FFF0D2002F09CFF152002F001
:103F200099FF102002F096FF002002F093FFE1209D
:103F300002F09CFF002002F08DFF0B2002F08AFFB0
:103F4000132002F087FF0D2002F084FF0E2002F004
:103F500081FF1B2002F07EFF712002F07BFF062014
:103F600002F078FF062002F075FF0A2002F072FFCF
:103F70000F2002F06FFF0E2002F06CFF0F2002F006
:103F800069FF152002F066FF0C2002F063FF00209D
:103F900002F060FF2A2002F069FF002002F05AFFC1
:103FA000002002F057FF012002F054FFDF2002F052
:103FB00051FF2B2002F05AFF002002F04BFF00209F
:103FC00002F048FF032002F045FF1F2002F042FFED
:103FD0003A2002F04BFF552002F03CFF362002F061
:103FE00045FF002002F036FF112002F03FFF78204D
:103FF000FEF718FD292002F039FF1420FEF712FD0C
:104000002C2002F033FF10BD10B5ED2002F02EFF82
:10401000012002F01FFFFE2002F01CFFEE2002F044
:1040200025FFDE2002F016FF212002F013FFF12011
:1040300002F01CFF012002F00DFFDF2002F016FF4E
:10404000102002F007FFC42002F010FF8F2002F0C2
:1040500001FFC62002F00AFF002002F0FBFEE22072
:1040600002F0F8FEE22002F0F5FEE22002F0F2FE9D
:10407000BF2002F0FBFEAA2002F0ECFEB02002F00E
:10408000F5FE0D2002F0E6FE002002F0E3FE0D201A
:1040900002F0E0FE002002F0DDFE112002F0DAFE68
:1040A000002002F0D7FE192002F0D4FE002002F01A
:1040B000D1FE212002F0CEFE002002F0CBFE2D200A
:1040C00002F0C8FE002002F0C5FE3D2002F0C2FE54
:1040D000002002F0BFFE5D2002F0BCFE002002F0D6
:1040E000B9FE5D2002F0B6FE002002F0B3FEB12062
:1040F00002F0BCFE802002F0ADFE002002F0AAFE1D
:104100008B2002F0A7FE002002F0A4FE962002F011
:10411000A1FE002002F09EFEB22002F0A7FE0020C9
:1041200002F098FE002002F095FE022002F092FEBE
:10413000002002F08FFE032002F08CFE002002F02F
:1041400089FEB32002F092FE002002F083FE0020E0
:1041500002F080FE002002F07DFE002002F07AFED8
:10416000002002F077FE002002F074FE002002F032
:1041700071FE002002F06EFE002002F06BFE0020B7
:1041800002F068FE002002F065FE002002F062FEF0
:10419000002002F05FFE002002F05CFE002002F032
:1041A00059FE002002F056FE002002F053FE0020CF
:1041B00002F050FE002002F04DFE002002F04AFE08
:1041C000002002F047FE002002F044FE002002F032
:1041D00041FE002002F03EFEB42002F047FE8B209C
:1041E00002F038FE002002F035FE962002F032FE8A
:1041F000002002F02FFEA12002F02CFE002002F091
:1042000029FEB52002F032FE022002F023FE00203B
:1042100002F020FE032002F01DFE002002F01AFE34
:10422000042002F017FE002002F014FEB62002F077
:104230001DFE002002F00EFE002002F00BFEB72053
:1042400002F014FE002002F005FE002002F002FE43
:104250003F2002F0FFFD002002F0FCFD5E2002F096
:10426000F9FD002002F0F6FD642002F0F3FD0020CD
:1042700002F0F0FD8C2002F0EDFD002002F0EAFDDE
:10428000AC2002F0E7FD002002F0E4FDDC2002F0AB
:10429000E1FD002002F0DEFD702002F0DBFD0020D9
:1042A00002F0D8FD902002F0D5FD002002F0D2FDF2
:1042B000EB2002F0CFFD002002F0CCFDDC2002F06C
:1042C000C9FD002002F0C6FDB82002F0CFFD00209D
:1042D00002F0C0FD002002F0BDFD002002F0BAFD9A
:1042E000002002F0B7FD002002F0B4FD002002F033
:1042F000B1FD002002F0AEFD002002F0ABFDBA20BF
:1043000002F0B4FD242002F0A5FD002002F0A2FD81
:10431000002002F09FFD002002F09CFDC12002F071
:10432000A5FD202002F096FD002002F093FD542010
:1043300002F090FD002002F08DFDFF2002F08AFDCA
:10434000002002F087FDC22002F090FD0A2002F05A
:1043500081FD002002F07EFD042002F07BFD0020A4
:1043600002F078FDC32002F081FD3C2002F072FDD6
:10437000002002F06FFD3A2002F06CFD002002F0F8
:1043800069FD392002F066FD002002F063FD372050
:1043900002F060FD002002F05DFD3C2002F05AFDBD
:1043A000002002F057FD362002F054FD002002F0FC
:1043B00051FD322002F04EFD002002F04BFD2F2077
:1043C00002F048FD002002F045FD2C2002F042FDE5
:1043D000002002F03FFD292002F03CFD002002F009
:1043E00039FD262002F036FD002002F033FD2420A6
:1043F00002F030FD002002F02DFD242002F02AFD05
:10440000002002F027FD232002F024FD002002F00E
:1044100021FD3C2002F01EFD002002F01BFD362095
:1044200002F018FD002002F015FD322002F012FD0E
:10443000002002F00FFD2F2002F00CFD002002F002
:1044400009FD2C2002F006FD002002F003FD2920CA
:1044500002F000FD002002F0FDFC262002F0FAFC34
:10446000002002F0F7FC242002F0F4FC002002F00F
:10447000F1FC242002F0EEFC002002F0EBFC2320F3
:1044800002F0E8FC002002F0E5FCC42002F0EEFCA3
:10449000622002F0DFFC002002F0DCFC052002F0CC
:1044A000D9FC002002F0D6FC842002F0D3FC0020CE
:1044B00002F0D0FCF02002F0CDFC002002F0CAFC9B
:1044C000182002F0C7FC002002F0C4FCA42002F077
:1044D000C1FC002002F0BEFC182002F0BBFC002052
:1044E00002F0B8FC502002F0B5FC002002F0B2FC53
:1044F0000C2002F0AFFC002002F0ACFC172002F010
:10450000A9FC002002F0A6FC952002F0A3FC0020EC
:1045100002F0A0FCF32002F09DFC002002F09AFCC7
:10452000E62002F097FC002002F094FCC52002F087
:104530009DFC322002F08EFC002002F08BFC442017
:1045400002F088FC002002F085FC652002F082FC6D
:10455000002002F07FFC762002F07CFC002002F0BC
:1045600079FC882002F076FC002002F073FCC62063
:1045700002F07CFC202002F06DFC002002F06AFCBE
:10458000172002F067FC002002F064FC012002F01A
:1045900061FC002002F05EFCC72002F067FC0020F6
:1045A00002F058FC002002F055FC002002F052FC02
:1045B000002002F04FFCC82002F058FC002002F05E
:1045C00049FC002002F046FC002002F043FC0020E1
:1045D00002F040FCC92002F049FC002002F03AFC45
:1045E000002002F037FC002002F034FC002002F032
:1045F00031FC002002F02EFC002002F02BFC0020F9
:1046000002F028FC002002F025FC002002F022FC31
:10461000002002F01FFC002002F01CFC002002F031
:1046200019FC002002F016FC002002F013FC002010
:1046300002F010FC002002F00DFCE02002F016FC5D
:10464000162002F007FC002002F004FC1C2002F0FF
:1046500001FC002002F0FEFB212002F0FBFB002009
:1046600002F0F8FB362002F0F5FB002002F0F2FB2E
:10467000462002F0EFFB002002F0ECFB522002F09B
:10468000E9FB002002F0E6FB642002F0E3FB0020DF
:1046900002F0E0FB7A2002F0DDFB002002F0DAFB02
:1046A0008B2002F0D7FB002002F0D4FB992002F00F
:1046B000D1FB002002F0CEFBA82002F0CBFB0020B3
:1046C00002F0C8FBB92002F0C5FB002002F0C2FBDB
:1046D000C42002F0BFFB002002F0BCFBCA2002F0A5
:1046E000B9FB002002F0B6FBD22002F0B3FB0020A1
:1046F00002F0B0FBD92002F0ADFB002002F0AAFBD3
:10470000E02002F0A7FB002002F0A4FBF32002F05F
:10471000A1FB002002F09EFBE12002F0A7FB162087
:1047200002F098FB002002F095FB1C2002F092FBA7
:10473000002002F08FFB222002F08CFB002002F010
:1047400089FB362002F086FB002002F083FB452027
:1047500002F080FB002002F07DFB522002F07AFB89
:10476000002002F077FB642002F074FB002002F0CE
:1047700071FB7A2002F06EFB002002F06BFB8B20B5
:1047800002F068FB002002F065FB992002F062FB5A
:10479000002002F05FFBA82002F05CFB002002F08A
:1047A00059FBB92002F056FB002002F053FBC42055
:1047B00002F050FB002002F04DFBCA2002F04AFB41
:1047C000002002F047FBD22002F044FB002002F060
:1047D00041FBD82002F03EFB002002F03BFBE02032
:1047E00002F038FB002002F035FBF32002F032FB30
:1047F000002002F02FFBE22002F038FB052002F03F
:1048000029FB002002F026FB0B2002F023FB0020F6
:1048100002F020FB1B2002F01DFB002002F01AFB1F
:10482000342002F017FB002002F014FB442002F0B9
:1048300011FB002002F00EFB4F2002F00BFB0020CA
:1048400002F008FB612002F005FB002002F002FBF1
:10485000792002F0FFFA002002F0FCFA882002F032
:10486000F9FA002002F0F6FA972002F0F3FA00209D
:1048700002F0F0FAA62002F0EDFA002002F0EAFAC7
:10488000B72002F0E7FA002002F0E4FAC22002F0BA
:10489000E1FA002002F0DEFAC72002F0DBFA002085
:1048A00002F0D8FAD12002F0D5FA002002F0D2FAB4
:1048B000D62002F0CFFA002002F0CCFADD2002F080
:1048C000C9FA002002F0C6FAF32002F0C3FA002071
:1048D00002F0C0FAE32002F0C9FA052002F0BAFAA9
:1048E000002002F0B7FA0A2002F0B4FA002002F029
:1048F000B1FA1C2002F0AEFA002002F0ABFA33202D
:1049000002F0A8FA002002F0A5FA442002F0A2FA70
:10491000002002F09FFA502002F09CFA002002F0E2
:1049200099FA622002F096FA002002F093FA7820B9
:1049300002F090FA002002F08DFA882002F08AFA44
:10494000002002F087FA972002F084FA002002F09B
:1049500081FAA62002F07EFA002002F07BFAB7204E
:1049600002F078FA002002F075FAC22002F072FA22
:10497000002002F06FFAC72002F06CFA002002F06B
:1049800069FAD12002F066FA002002F063FAD5201D
:1049900002F060FA002002F05DFADD2002F05AFA1F
:1049A000002002F057FAF32002F054FA002002F03F
:1049B00051FAE42002F05AFA012002F04BFA0020EA
:1049C00002F048FA012002F045FA002002F042FA13
:1049D000022002F03FFA002002F03CFA2A2002F006
:1049E00039FA002002F036FA3C2002F033FA0020B7
:1049F00002F030FA4B2002F02DFA002002F02AFAE1
:104A00005D2002F027FA002002F024FA742002F060
:104A100021FA002002F01EFA842002F01BFA002086
:104A200002F018FA932002F015FA002002F012FAB0
:104A3000A22002F00FFA002002F00CFAB32002F0DC
:104A400009FA002002F006FABE2002F003FA002064
:104A500002F000FAC42002F0FDF9002002F0FAF999
:104A6000CD2002F0F7F9002002F0F4F9D32002F093
:104A7000F1F9002002F0EEF9DD2002F0EBF9002060
:104A800002F0E8F9F32002F0E5F9002002F0E2F983
:104A9000E52002F0EBF9002002F0DCF9002002F042
:104AA000D9F9002002F0D6F9002002F0D3F9022053
:104AB00002F0D0F9002002F0CDF9292002F0CAF965
:104AC000002002F0C7F93C2002F0C4F9002002F0F7
:104AD000C1F94B2002F0BEF9002002F0BBF95D20C5
:104AE00002F0B8F9002002F0B5F9742002F0B2F932
:104AF000002002F0AFF9842002F0ACF9002002F0AF
:104B0000A9F9932002F0A6F9002002F0A3F9A2204F
:104B100002F0A0F9002002F09DF9B32002F09AF90A
:104B2000002002F097F9BE2002F094F9002002F074
:104B300091F9C42002F08EF9002002F08BF9CD200B
:104B400002F088F9002002F085F9D32002F082F902
:104B5000002002F07FF9DC2002F07CF9002002F056
:104B600079F9F32002F076F9002002F073F9E620DB
:104B700002F07CF9112002F06DF9002002F06AF9D0
:104B8000342002F067F9002002F064F9562002F0A8
:104B900061F9002002F05EF9762002F05BF9002056
:104BA00002F058F9772002F055F9002002F052F98E
:104BB000662002F04FF9002002F04CF9882002F044
:104BC00049F9002002F046F9992002F043F900204B
:104BD00002F040F9BB2002F03DF9002002F03AF962
:104BE000992002F037F9002002F034F9662002F033
:104BF00031F9002002F02EF9552002F02BF90020A7
:104C000002F028F9552002F025F9002002F022F9DF
:104C1000452002F01FF9002002F01CF9432002F0A9
:104C200019F9002002F016F9442002F013F90020CF
:104C300002F010F9E72002F019F9322002F00AF927
:104C4000002002F007F9552002F004F9002002F0DC
:104C500001F9762002F0FEF8002002F0FBF8662051
:104C600002F0F8F8002002F0F5F8672002F0F2F800
:104C7000002002F0EFF8672002F0ECF8002002F0CC
:104C8000E9F8872002F0E6F8002002F0E3F8992026
:104C900002F0E0F8002002F0DDF8BB2002F0DAF8C4
:104CA000002002F0D7F8992002F0D4F8002002F09A
:104CB000D1F8772002F0CEF8002002F0CBF84420A3
:104CC00002F0C8F8002002F0C5F8562002F0C2F841
:104CD000002002F0BFF8232002F0BCF8002002F010
:104CE000B9F8332002F0B6F8002002F0B3F84520FE
:104CF00002F0B0F8002002F0ADF8E82002F0B6F8BB
:104D0000002002F0A7F8002002F0A4F8992002F099
:104D1000A1F8002002F09EF8872002F09BF8002006
:104D200002F098F8882002F095F8002002F092F83E
:104D3000772002F08FF8002002F08CF8662002F055
:104D400089F8002002F086F8882002F083F800201D
:104D500002F080F8AA2002F07DF8002002F07AF834
:104D6000BB2002F077F8002002F074F8992002F0DE
:104D700071F8002002F06EF8662002F06BF8002057
:104D800002F068F8552002F065F8002002F062F8A1
:104D9000552002F05FF8002002F05CF8442002F099
:104DA00059F8002002F056F8442002F053F8002091
:104DB00002F050F8552002F04DF8002002F04AF8B9
:104DC000E92002F053F8AA2002F044F8002002F093
:104DD00041F8002002F03EF8002002F03BF80020ED
:104DE00002F044F8AA2002F035F8CF2002F03EF895
:104DF000002002F02FF8002002F02CF8002002F032
:104E000029F8002002F026F8002002F023F8002004
:104E100002F020F8002002F01DF8002002F01AF83D
:104E2000002002F017F8002002F014F8002002F031
:104E300011F8002002F00EF8002002F00BF800201C
:104E400002F008F8002002F005F8002002F002F855
:104E5000002001F0FFFFF02002F008F8002001F030
:104E6000F9FF502001F0F6FF002001F0F3FF0020D1
:104E700001F0F0FF002001F0EDFFF32001F0F6FF5C
:104E8000002001F0E7FFF92001F0F0FF062001F01B
:104E9000E1FF102001F0DEFF292001F0DBFF002000
:104EA00001F0D8FF3A2001F0E1FF552001F0D2FFD8
:104EB000112001F0DBFF6420FDF7B4FD292001F093
:104EC000D5FF352001F0D2FF002001F0C3FF5120B3
:104ED00001F0CCFFFF2001F0BDFF532001F0C6FF21
:104EE0002C2001F0B7FF552001F0C0FF822001F017
:104EF000B1FF2C2001F0BAFF10BD10B555214FF4C1
:104F0000704001F0C9FFAA214FF2010001F0C4FF77
:104F100052214FF2020001F0BFFF08214FF20300BF
:104F200001F0BAFF01214FF2040001F0B5FF342176
:104F30004FF4364001F0B0FF34214BF2016001F034
:104F4000ABFF34214BF2026001F0A6FF0D214FF4BC
:104F5000304001F0A1FF0D214BF2010001F09CFF58
:104F60000D214BF2020001F097FF24214FF437404E
:104F700001F092FF24214BF2017001F08DFF2421FA
:104F80004BF2027001F088FF0D214FF4314001F027
:104F900083FF0D214BF2011001F07EFF0D214BF23A
:104FA000021001F079FF24214FF4384001F074FF22
:104FB00024214BF6010001F06FFF24214BF6020083
:104FC00001F06AFF00214FF4324001F065FF242117
:104FD0004FF4394001F060FF24214BF6011001F03D
:104FE0005BFF24214BF6021001F056FF05214FF420
:104FF000334001F051FF05214BF2013001F04CFF2D
:1050000005214BF2023001F047FF34214FF43A40C2
:1050100001F042FF34214BF6012001F03DFF342125
:105020004BF6022001F038FF0B214FF4354001F020
:1050300033FF0B214BF2015001F02EFF0B214BF2FD
:10504000025001F029FF00214FF43C4001F024FF01
:10505000A3214BF6014001F01FFF00214BF6024057
:1050600001F01AFF00214FF43D4001F015FFA3218C
:105070004BF6015001F010FF00214BF6025001F0F9
:105080000BFF00214FF43E4001F006FF37214BF6A5
:10509000016001F001FF00214FF4514001F0FCFEDE
:1050A00037214DF2011001F0F7FE00214DF2021000
:1050B00001F0F2FE53214DF2031001F0EDFE00214C
:1050C0004DF2041001F0E8FE79214DF2051001F0D7
:1050D000E3FE00214DF2061001F0DEFE97214DF2B5
:1050E000071001F0D9FE00214DF2081001F0D4FEA6
:1050F000B1214DF2091001F0CFFE00214DF20A104E
:1051000001F0CAFED5214DF20B1001F0C5FE0021C1
:105110004DF20C1001F0C0FEF4214DF20D1001F023
:10512000BBFE01214DF20E1001F0B6FE23214DF21F
:105130000F1001F0B1FE01214DF2101001F0ACFE94
:1051400049214DF2111001F0A7FE01214DF212107C
:1051500001F0A2FE87214DF2131001F09DFE012106
:105160004DF2141001F098FEB6214DF2151001F029
:1051700093FE02214DF2161001F08EFE00214DF239
:10518000171001F089FE02214DF2181001F084FE83
:105190003B214DF2191001F07FFE02214DF21A1051
:1051A00001F07AFE3D214DF21B1001F075FE022147
:1051B0004DF21C1001F070FE75214DF21D1001F032
:1051C0006BFE02214DF21E1001F066FEB1214DF280
:1051D0001F1001F061FE02214DF2201001F05CFE73
:1051E000D5214DF2211001F057FE03214DF222107E
:1051F00001F052FE09214DF2231001F04DFE032172
:105200004DF2241001F048FE28214DF2251001F046
:1052100043FE03214DF2261001F03EFE52214DF2D5
:10522000271001F039FE03214DF2281001F034FE61
:105230006B214DF2291001F02FFE03214DF22A10AF
:1052400001F02AFE8D214DF22B1001F025FE0321E5
:105250004DF22C1001F020FEA2214DF22D1001F094
:105260001BFE03214DF22E1001F016FEBB214DF264
:105270002F1001F011FE03214DF2301001F00CFE51
:10528000C1214DF2311001F007FE03214DF2321021
:1052900001F002FEC1214DF2331001F0FDFD0021AD
:1052A0004FF4524001F0F8FD37214DF2012001F09A
:1052B000F3FD00214DF2022001F0EEFD53214DF2ED
:1052C000032001F0E9FD00214DF2042001F0E4FD8E
:1052D00079214DF2052001F0DFFD00214DF206207D
:1052E00001F0DAFD97214DF2072001F0D5FD0021F4
:1052F0004DF2082001F0D0FDB1214DF2092001F05E
:10530000CBFD00214DF20A2001F0C6FDD5214DF262
:105310000B2001F0C1FD00214DF20C2001F0BCFD7D
:10532000F4214DF20D2001F0B7FD01214DF20E20C8
:1053300001F0B2FD23214DF20F2001F0ADFD01215E
:105340004DF2102001F0A8FD49214DF2112001F08D
:10535000A3FD01214DF2122001F09EFD87214DF2A7
:10536000132001F099FD01214DF2142001F094FD6C
:10537000B6214DF2152001F08FFD02214DF21620CD
:1053800001F08AFD00214DF2172001F085FD022178
:105390004DF2182001F080FD3B214DF2192001F063
:1053A0007BFD02214DF21A2001F076FD3D214DF2E8
:1053B0001B2001F071FD02214DF21C2001F06CFD5B
:1053C00075214DF21D2001F067FD02214DF21E20D6
:1053D00001F062FDB1214DF21F2001F05DFD0221BF
:1053E0004DF2202001F058FDD5214DF2212001F091
:1053F00053FD03214DF2222001F04EFD09214DF213
:10540000232001F049FD03214DF2242001F044FD49
:1054100028214DF2252001F03FFD03214DF22620E9
:1054200001F03AFD52214DF2272001F035FD032114
:105430004DF2282001F030FD6B214DF2292001F0C2
:105440002BFD03214DF22A2001F026FD8D214DF286
:105450002B2001F021FD03214DF22C2001F01CFD39
:10546000A2214DF22D2001F017FD03214DF22E2037
:1054700001F012FDBB214DF22F2001F00DFD0321A3
:105480004DF2302001F008FDC1214DF2312001F034
:1054900003FD03214DF2322001F0FEFCC1214DF24B
:1054A000332001F0F9FC00214FF4534001F0F4FCEB
:1054B00037214DF2013001F0EFFC00214DF20230B6
:1054C00001F0EAFC53214DF2033001F0E5FC00212C
:1054D0004DF2043001F0E0FC79214DF2053001F08D
:1054E000DBFC00214DF2063001F0D6FC97214DF295
:1054F000073001F0D1FC00214DF2083001F0CCFC66
:10550000B1214DF2093001F0C7FC00214DF20A3003
:1055100001F0C2FCD5214DF20B3001F0BDFC0021A1
:105520004DF20C3001F0B8FCF4214DF20D3001F0D9
:10553000B3FC01214DF20E3001F0AEFC23214DF2FF
:105540000F3001F0A9FC01214DF2103001F0A4FC54
:1055500049214DF2113001F09FFC01214DF2123032
:1055600001F09AFC87214DF2133001F095FC0121E6
:105570004DF2143001F090FCB6214DF2153001F0DF
:105580008BFC02214DF2163001F086FC00214DF219
:10559000173001F081FC02214DF2183001F07CFC43
:1055A0003B214DF2193001F077FC02214DF21A3007
:1055B00001F072FC3D214DF21B3001F06DFC022127
:1055C0004DF21C3001F068FC75214DF21D3001F0E8
:1055D00063FC02214DF21E3001F05EFCB1214DF260
:1055E0001F3001F059FC02214DF2203001F054FC33
:1055F000D5214DF2213001F04FFC03214DF2223034
:1056000001F04AFC09214DF2233001F045FC032151
:105610004DF2243001F040FC28214DF2253001F0FC
:105620003BFC03214DF2263001F036FC52214DF2B5
:10563000273001F031FC03214DF2283001F02CFC21
:105640006B214DF2293001F027FC03214DF22A3065
:1056500001F022FC8D214DF22B3001F01DFC0321C5
:105660004DF22C3001F018FCA2214DF22D3001F04A
:1056700013FC03214DF22E3001F00EFCBB214DF244
:105680002F3001F009FC03214DF2303001F004FC11
:10569000C1214DF2313001F0FFFB03214DF23230D8
:1056A00001F0FAFBC1214DF2333001F0F5FB00218E
:1056B0004FF4544001F0F0FB37214DF2014001F06E
:1056C000EBFB00214DF2024001F0E6FB53214DF2CD
:1056D000034001F0E1FB00214DF2044001F0DCFB4E
:1056E00079214DF2054001F0D7FB00214DF2064033
:1056F00001F0D2FB97214DF2074001F0CDFB0021D4
:105700004DF2084001F0C8FBB1214DF2094001F013
:10571000C3FB00214DF20A4001F0BEFBD5214DF242
:105720000B4001F0B9FB00214DF20C4001F0B4FB3D
:10573000F4214DF20D4001F0AFFB01214DF20E407E
:1057400001F0AAFB23214DF20F4001F0A5FB01213E
:105750004DF2104001F0A0FB49214DF2114001F043
:105760009BFB01214DF2124001F096FB87214DF287
:10577000134001F091FB01214DF2144001F08CFB2C
:10578000B6214DF2154001F087FB02214DF2164083
:1057900001F082FB00214DF2174001F07DFB022158
:1057A0004DF2184001F078FB3B214DF2194001F019
:1057B00073FB02214DF21A4001F06EFB3D214DF2C8
:1057C0001B4001F069FB02214DF21C4001F064FB1B
:1057D00075214DF21D4001F05FFB02214DF21E408C
:1057E00001F05AFBB1214DF21F4001F055FB02219F
:1057F0004DF2204001F050FBD5214DF2214001F047
:105800004BFB03214DF2224001F046FB09214DF2F2
:10581000234001F041FB03214DF2244001F03CFB09
:1058200028214DF2254001F037FB03214DF226409F
:1058300001F032FB52214DF2274001F02DFB0321F4
:105840004DF2284001F028FB6B214DF2294001F078
:1058500023FB03214DF22A4001F01EFB8D214DF266
:105860002B4001F019FB03214DF22C4001F014FBF9
:10587000A2214DF22D4001F00FFB03214DF22E40ED
:1058800001F00AFBBB214DF22F4001F005FB032183
:105890004DF2304001F000FBC1214DF2314001F0EA
:1058A000FBFA03214DF2324001F0F6FAC1214DF22C
:1058B000334001F0F1FA00214FF4554001F0ECFAC9
:1058C00037214DF2015001F0E7FA00214DF202506C
:1058D00001F0E2FA53214DF2035001F0DDFA00210C
:1058E0004DF2045001F0D8FA79214DF2055001F043
:1058F000D3FA00214DF2065001F0CEFA97214DF275
:10590000075001F0C9FA00214DF2085001F0C4FA25
:10591000B1214DF2095001F0BFFA00214DF20A50B9
:1059200001F0BAFAD5214DF20B5001F0B5FA002181
:105930004DF20C5001F0B0FAF4214DF20D5001F08F
:10594000ABFA01214DF20E5001F0A6FA23214DF2DF
:105950000F5001F0A1FA01214DF2105001F09CFA14
:1059600049214DF2115001F097FA01214DF21250E8
:1059700001F092FA87214DF2135001F08DFA0121C6
:105980004DF2145001F088FAB6214DF2155001F095
:1059900083FA02214DF2165001F07EFA00214DF2F9
:1059A000175001F079FA02214DF2185001F074FA03
:1059B0003B214DF2195001F06FFA02214DF21A50BD
:1059C00001F06AFA3D214DF21B5001F065FA022107
:1059D0004DF21C5001F060FA75214DF21D5001F09E
:1059E0005BFA02214DF21E5001F056FAB1214DF240
:1059F0001F5001F051FA02214DF2205001F04CFAF3
:105A0000D5214DF2215001F047FA03214DF22250E9
:105A100001F042FA09214DF2235001F03DFA032131
:105A20004DF2245001F038FA28214DF2255001F0B2
:105A300033FA03214DF2265001F02EFA52214DF295
:105A4000275001F029FA03214DF2285001F024FAE1
:105A50006B214DF2295001F01FFA03214DF22A501B
:105A600001F01AFA8D214DF22B5001F015FA0321A5
:105A70004DF22C5001F010FAA2214DF22D5001F000
:105A80000BFA03214DF22E5001F006FABB214DF224
:105A90002F5001F001FA03214DF2305001F0FCF9D2
:105AA000C1214DF2315001F0F7F903214DF232508E
:105AB00001F0F2F9C1214DF2335001F0EDF900216E
:105AC0004FF4564001F0E8F937214DF2016001F042
:105AD000E3F900214DF2026001F0DEF953214DF2AD
:105AE000036001F0D9F900214DF2046001F0D4F90E
:105AF00079214DF2056001F0CFF900214DF20660E9
:105B000001F0CAF997214DF2076001F0C5F90021B3
:105B10004DF2086001F0C0F9B1214DF2096001F0C9
:105B2000BBF900214DF20A6001F0B6F9D5214DF222
:105B30000B6001F0B1F900214DF20C6001F0ACF9FD
:105B4000F4214DF20D6001F0A7F901214DF20E6034
:105B500001F0A2F923214DF20F6001F09DF901211E
:105B60004DF2106001F098F949214DF2116001F0F9
:105B700093F901214DF2126001F08EF987214DF267
:105B8000136001F089F901214DF2146001F084F9EC
:105B9000B6214DF2156001F07FF902214DF2166039
:105BA00001F07AF900214DF2176001F075F9022138
:105BB0004DF2186001F070F93B214DF2196001F0CF
:105BC0006BF902214DF21A6001F066F93D214DF2A8
:105BD0001B6001F061F902214DF21C6001F05CF9DB
:105BE00075214DF21D6001F057F902214DF21E6042
:105BF00001F052F9B1214DF21F6001F04DF902217F
:105C00004DF2206001F048F9D5214DF2216001F0FC
:105C100043F903214DF2226001F03EF909214DF2D2
:105C2000236001F039F903214DF2246001F034F9C9
:105C300028214DF2256001F02FF903214DF2266055
:105C400001F02AF952214DF2276001F025F90321D4
:105C50004DF2286001F020F96B214DF2296001F02E
:105C60001BF903214DF22A6001F016F98D214DF246
:105C70002B6001F011F903214DF22C6001F00CF9B9
:105C8000A2214DF22D6001F007F903214DF22E60A3
:105C900001F002F9BB214DF22F6001F0FDF8032164
:105CA0004DF2306001F0F8F8C1214DF2316001F0A1
:105CB000F3F803214DF2326001F0EEF8C1214DF20C
:105CC000336001F0E9F855214FF4704001F0E4F839
:105CD000AA214FF2010001F0DFF852214FF2020039
:105CE00001F0DAF808214FF2030001F0D5F80021A5
:105CF0004FF2040001F0D0F800214FF4304001F0E1
:105D0000CBF805214BF2010001F0C6F802214BF25D
:105D1000020001F0C1F805214BF2030001F0BCF8CC
:105D200002214BF2040001F0B7F808214FF436408D
:105D300001F0B2F850214FF4354001F0ADF80521E3
:105D40004FF4364001F0A8F800214FF4374001F03D
:105D5000A3F800214BF2017001F09EF801214FF4ED
:105D6000384001F099F805214BF6010001F094F854
:105D700005214BF6020001F08FF805214BF60300D8
:105D800001F08AF802214FF43C4001F085F800212F
:105D90004BF6014001F080F800214BF6024001F083
:105DA0007BF803214FF44C4001F076F800214CF6CB
:105DB000014001F071F800214CF6024001F06CF84E
:105DC00001214FF43D4001F067F884214BF601506A
:105DD00001F062F807214BF6025001F05DF8312125
:105DE0004BF6035001F058F800214BF6045001F037
:105DF00053F801214FF43A4001F04EF8AA214FF434
:105E00007F4001F049F855214FF6017001F044F848
:105E100025214FF6027001F03FF801214FF6037083
:105E200001F03AF840214FF4585001F035F80021C4
:105E30004FF4545001F030F805214FF4685001F050
:105E40002BF84FF4885001F011F87820FCF7EAFDA8
:105E50004FF4245001F00AF80A20FCF7E3FD4FF458
:105E6000305001F003F810BD10B5E22000F0FEFF45
:105E70001D2000F0EFFF022000F0ECFF042000F0F6
:105E8000E9FF6420FCF7D8FDE02000F0EFFF0120DF
:105E900000F0E0FF0A20FCF7C5FDE02000F0E6FF7F
:105EA000032000F0D7FF0C20FCF7BCFD012000F020
:105EB000DDFF0A20FCF7B6FDE62000F0D7FF2F201B
:105EC00000F0C8FFFF2000F0C5FFFF2000F0C2FF78
:105ED000B02000F0CBFF202000F0BCFF002000F03D
:105EE000B9FF032000F0B6FF40F21F3000F0B2FF10
:105EF000012000F0AFFF40F2DF1000F0ABFF002008
:105F000000F0A8FFB42000F0B1FF042000F0A2FFD1
:105F100040F21F4000F09EFF002000F09BFF2E206B
:105F200000F098FF002000F095FF002000F092FFA5
:105F3000002000F08FFF002000F08CFFB62000F062
:105F400095FF022000F086FF4FF4037000F082FFFF
:105F5000002000F07FFF172000F07CFF152000F0EC
:105F600079FF002000F076FF002000F073FFF020A2
:105F700000F07CFF032000F06DFF292000F076FF89
:105F8000D02000F073FF002000F064FFBE2000F07E
:105F90006DFF052000F05EFFFE2000F05BFF01209A
:105FA00000F058FF002000F055FF002000F052FFE5
:105FB000002000F04FFFB82000F058FF032000F051
:105FC00049FF012000F046FFBA2000F04FFF0120FA
:105FD00000F040FF10BD10B5112000F047FF782001
:105FE000FCF720FD362000F041FF002000F032FFDA
:105FF0003A2000F03BFF052000F02CFFB22000F01B
:1060000035FF0C2000F026FF0C2000F023FF0020BD
:1060100000F020FF332000F01DFF332000F01AFFB6
:10602000B72000F023FF352000F014FFBB2000F064
:106030001DFF322000F00EFFC02000F017FF0C20E3
:1060400000F008FFC22000F011FF012000F002FF65
:10605000C32000F00BFF102000F0FCFEC42000F075
:1060600005FF202000F0F6FEC62000F0FFFE0F2006
:1060700000F0F0FED02000F0F9FEA42000F0EAFECF
:10608000A12000F0E7FEE02000F0F0FED02000F0BC
:10609000E1FE002000F0DEFE022000F0DBFE072023
:1060A00000F0D8FE0A2000F0D5FE282000F0D2FE35
:1060B000322000F0CFFE442000F0CCFE422000F061
:1060C000C9FE062000F0C6FE0E2000F0C3FE12201E
:1060D00000F0C0FE142000F0BDFE172000F0BAFE54
:1060E000E12000F0C3FED02000F0B4FE002000F05C
:1060F000B1FE022000F0AEFE072000F0ABFE0A2049
:1061000000F0A8FE282000F0A5FE312000F0A2FE3D
:10611000542000F09FFE472000F09CFE0E2000F06F
:1061200099FE1C2000F096FE172000F093FE1B2025
:1061300000F090FE1E2000F08DFE2A2000F096FE5A
:10614000002000F087FE002000F084FE002000F018
:1061500081FEEF2000F07EFE2B2000F087FE002065
:1061600000F078FE002000F075FE012000F072FEC5
:106170003F2000F06FFE292000F078FE10BD10B522
:10618000112000F073FE7820FCF74CFC362000F064
:106190006DFE482000F05EFE3A2000F067FE5520BC
:1061A00000F058FEF02000F061FEC32000F052FE27
:1061B000F02000F05BFE962000F04CFEB42000F0D2
:1061C00055FE012000F046FEB62000F04FFE0A20EA
:1061D00000F040FEA22000F03DFEB72000F046FE99
:1061E000C62000F037FEB92000F040FE022000F08B
:1061F00031FEE02000F02EFEC02000F037FE8020AF
:1062000000F028FE162000F025FEC12000F02EFE32
:10621000192000F01FFEC22000F028FEA72000F089
:1062200019FEC52000F022FE162000F013FEE82023
:1062300000F01CFE402000F00DFE8A2000F00AFE57
:10624000002000F007FE002000F004FE292000F0EE
:1062500001FE192000F0FEFDA52000F0FBFD33201B
:1062600000F0F8FDE02000F001FEF02000F0F2FD6B
:10627000072000F0EFFD0D2000F0ECFD042000F001
:10628000E9FD052000F0E6FD142000F0E3FD3620D6
:1062900000F0E0FD542000F0DDFD4C2000F0DAFDC0
:1062A000382000F0D7FD132000F0D4FD142000F0BA
:1062B000D1FD2E2000F0CEFD342000F0CBFDE120FA
:1062C00000F0D4FDF02000F0C5FD102000F0C2FD6C
:1062D000142000F0BFFD0E2000F0BCFD0C2000F0EB
:1062E000B9FD082000F0B6FD352000F0B3FD4420D4
:1062F00000F0B0FD4C2000F0ADFD262000F0AAFD1E
:10630000102000F0A7FD122000F0A4FD2C2000F0CA
:10631000A1FD322000F09EFDF02000F0A7FD3C2002
:1063200000F098FDF02000F0A1FD692000F092FD42
:106330007820FCF777FB212000F098FD292000F061
:1063400095FD10BD2DE9F04F05460E4617469846BF
:10635000DDF824A04FF0000B781B401C1FFA80FBD7
:10636000344613E02146284600F0E4FB00F08AFDA5
:106370004FF0000906E00749A1F800A009F101006B
:106380001FFA80F9D945F6DB601C84B24445E9DD8B
:10639000BDE8F08F0008006C2DE9F04F07468846F5
:1063A00016469A4640F2C32070434FF47A71B0FB10
:1063B000F1F000F1010906FB06F000EB560B344644
:1063C00071040A0CB91B88B253464146FDF7E4FA42
:1063D000012535E005FB05F004FB040058451AD9FA
:1063E0004C4517D96B1E5B041A0C08EB040399B2D9
:1063F0007B1B5B1C98B25346FDF7CEFA6B1E5B0409
:106400001A0CA8EB040399B27B1B5B1C98B2534691
:10641000FDF7C2FA641E63041A0C08EB050399B277
:106420003B1B98B25346FDF7B7FA63041A0CA8EB6E
:10643000050399B23B1B98B25346FDF7ADFA6D1CAC
:106440004D45C7D9BDE8F08F1CB500BFFA4880693B
:1064500040F48070F849886100BF00BF0846806939
:1064600040F02000886100BF00BF0846806940F00E
:106470002000886100BF00BF0846806940F480703A
:10648000886100BF00BF0846806940F0080088614D
:1064900000BF0846806940F0600088610846406996
:1064A00040F4807048610120032100230222CDE9DD
:1064B00000100103E14800F09FFE012003210023AA
:1064C0000222CDE900102021DD4800F095FE0120D8
:1064D000032100230222CDE900101021D84800F04A
:1064E0008BFE0120032100230222CDE9001001468A
:1064F000D24800F081FE0120032100230246CDE9AD
:1065000000100146CF4800F077FE01200321002350
:106510000222CDE900104CF20371C94800F06CFE74
:106520000120032100230222CDE900104FF68071E3
:10653000C54800F061FE00204FF020418861C8612D
:10654000C24908604FF02040806940F480504FF00D
:10655000204188610846806940F48040886108468F
:10656000806940F0100088610846C069C86108462B
:10657000C069C8610846C06940F47060C861B3482A
:106580000068C1F81C01B1480068C1F81C01084648
:10659000D0F81C0140F48070C1F81C0108468069E5
:1065A00040F0010088610846806940F00040886141
:1065B000A74800F08FF9D32000F058FC00F090F9C4
:1065C000A449888000F08CF9A249888000F088F9FD
:1065D000A0498880084680884FF6FF7101EA0020B4
:1065E0009C49888000F07CF99A4989880843994938
:1065F00088800846808849F2413188427ED0042054
:1066000000F034FC00F06CF99249888000F068F9E1
:106610009049888000F064F98E4988800846808817
:106620004FF6FF7101EA00208A49888000F058F98E
:10663000884989880843874988800846808848F2C5
:106640005251884203D147F289708249888081483B
:10665000808847F289718842D0D0D42000F006FCAF
:1066600000F03EF97B49888000F03AF9794988804A
:1066700000F036F977498880084680884FF6FF7128
:1066800001EA00207349888000F02AF9714989885D
:106690000843704988800846808845F21031884256
:1066A000ACD0D32000F0E2FB00F01AF969498880F1
:1066B00000F016F96749888000F012F96549888072
:1066C000084680884FF6FF7101EA00206149888002
:1066D00000F006F95F49898808435E4988800846CA
:1066E000808847F29671884288D055214FF47040D7
:1066F00000F0D2FBAA214FF2010000E07CE000F0A4
:10670000CBFB52214FF2020000F0C6FB08214FF2F2
:10671000030000F0C1FB01214FF2040000F0BCFBBC
:106720004FF4454000F0A2FB00F0DAF849498880B8
:10673000084680884FF6FF7101EA002045498880AD
:106740004CF2015000F092FB00F0CAF841498988F0
:106750000843404988800520FCF764F93D4880885B
:1067600045F21051884247D0D32000F07FFB00F063
:10677000B7F83849888000F0B3F83649888000F0CF
:10678000AFF834498880084680884FF6FF7101EAE7
:1067900000203049888000F0A3F82E4989880843FA
:1067A0002C4988800846808849F60601884223D013
:1067B000A12000F05BFB00F093F82649888000F0F0
:1067C0008FF824498880084680884FF6FF7101EAD7
:1067D00000202049888000F083F81E4989880843FA
:1067E0001C4988800846808845F26171884203D13F
:1067F00041F66310174988801648818816A0FAF779
:1068000019FD1448808847F28971884202D1FFF748
:10681000E2FB4DE00F48808849F24131884202D1C5
:10682000FDF73CF944E00B48808845F2103188427E
:1068300018D1FDF7E9FB3BE00010024000200140C9
:1068400000140140000C0140001801401C0100A090
:10685000FFFF01002CD100204C43442049443A253D
:10686000780D0A001948808847F29671884202D153
:10687000FFF785FC1CE01548808845F210518842DE
:1068800002D1FEF73AFB13E01048808849F6060172
:10689000884202D1FDF718FA0AE00C48808841F6D8
:1068A0006311884204D1FFF7DFFA642000F0A8FAF0
:1068B0000020FCF7FBFE01221146054800F090FC89
:1068C0004FF6FF70FCF7D8FE1CBD00002CD1002055
:1068D000000C014000BF011EA0F10100FBD1704778
:1068E00008B50220FFF7F6FF024800880090BDF8C7
:1068F000000008BD0008006CF0B505460024002724
:106900008B488079012805D18948808841F6631138
:10691000884208D186488079F0B98548808841F658
:106920006311884218D1082D15D2DFE805F004065E
:10693000080A0C0E101206250DE007250BE00425B1
:1069400009E0052507E0012505E0002503E0032512
:1069500001E0022500BF00BF082D1CD2DFE805F0D2
:106960000406090C0F12151800BF14E044F080044F
:1069700011E044F040040EE044F0C0040BE044F0A9
:10698000200408E044F0600405E044F0A00402E0C4
:1069900044F0E00400BF00BF36276548808845F218
:1069A0001051884200D13F026148808849F241314C
:1069B00088420BD05E48808847F28971884205D0B2
:1069C0005B48808847F29671884201D144F0080400
:1069D0002146384600F060FA5548808841F6631138
:1069E00088421DD004F0200068B151480088504909
:1069F0004988884214DA4E48068840884C49088005
:106A0000084646800CE04A4800884949498888423F
:106A100006DD474806884088454908800846468084
:106A20004348808845F21051884252D140494889F4
:106A300000F01CFA002000F00DFA3D494989491C7C
:106A400088B200F013FA002000F004FA38494989AE
:106A5000891C88B200F00AFA35490988491EC1F339
:106A60000F2000F0F7F932494989C91C88B200F0BB
:106A7000FDF92F490978491EC8B200F0EBF92C49FD
:106A8000888900F0F3F9002000F0E4F928498989A9
:106A9000491C88B200F0EAF9002000F0DBF9244933
:106AA0008989891C88B200F0E1F921494988491E89
:106AB000C1F30F2000F0CEF91D498989C91C88B2A5
:106AC00000F0D4F91A498978491EC8B200F0C2F919
:106AD0002DE01749488900F0C9F9002000F0BAF903
