:020000040800F2
:1000000050070020D5010008D9010008DB010008D5
:10001000DD010008DF010008E10100080000000028
:10002000000000000000000000000000E3010008E4
:10003000E501000800000000E7010008E9010008F0
:10004000EB010008EB010008EB010008EB010008E0
:10005000EB010008EB010008EB010008EB010008D0
:10006000EB010008EB010008EB010008EB010008C0
:10007000EB010008EB010008EB010008EB010008B0
:10008000EB010008EB010008EB010008EB010008A0
:10009000EB010008EB010008EB010008EB01000890
:1000A000EB010008EB010008EB010008EB01000880
:1000B000EB010008EB010008EB010008EB01000870
:1000C000EB010008EB010008EB010008EB01000860
:1000D000EB01000865040008EB010008EB010008D3
:1000E000EB010008EB010008EB010008EB01000840
:1000F000EB010008EB010008EB010008EB01000830
:10010000EB010008EB010008EB010008EB0100081F
:10011000EB010008EB010008EB010008EB0100080F
:10012000EB010008EB010008EB010008EB010008FF
:1001300000F002F800F03FF80AA090E8000C8244BA
:100140008344AAF10107DA4501D100F034F8AFF297
:10015000090EBAE80F0013F0010F18BFFB1A43F0A5
:10016000010318477073000090730000103A24BF19
:1001700078C878C1FAD8520724BF30C830C144BF0C
:1001800004680C607047000000230024002500264E
:10019000103A28BF78C1FBD8520728BF30C148BFEA
:1001A0000B607047782900F07380002070471FB5FE
:1001B0001FBD10B510BD00F023F91146FFF7F7FF82
:1001C00003F0C8FD00F041F903B4FFF7F2FF03BCF0
:1001D00000F08AF908480047FEE7FEE7FEE7FEE781
:1001E000FEE7FEE7FEE7FEE7FEE7FEE70348044919
:1001F000044A054B704700003101000850010020FF
:1002000050070020500300205003002070470000DA
:100210000FB4044910B503AA029800F0C3F810BC4B
:100220005DF814FB040000202DE9F0410E46044661
:10023000002020622046E168884730B3252805D099
:10024000D4E901219047206A401CF2E7E16820468A
:1002500000278847050018D0A5F14100192802D8C9
:1002600020354FF400673246294620462760FFF7C5
:1002700099FF40B1012804D0F61D26F00706083684
:10028000D8E7361DD6E72846DAE7206ABDE8F081D0
:1002900070B504460D4621461068AFF300802188F2
:1002A000090502D50F4A7A4402E00E4A7A440E321A
:1002B000002104F1240305E000F00F060009965D1B
:1002C0005E54491C0028F7D120780023000704D58C
:1002D000702D02D009B1022311322046BDE87040D2
:1002E00000F006B802720000704770477047704710
:1002F0002DE9F0470D4699469246044600F1240840
:100300000168880604D5E06921F01001216000E051
:100310000120A84201DD471B00E00027A1697A19EE
:1003200002EB0900081AA0612078C00602D420461A
:10033000AFF30080002608E0D4E901211AF8060096
:100340009047206A401C761C20624E45F4DB2078E2
:10035000C0060AD52046AFF3008006E0D4E90121AB
:1003600030209047206A401C2062381EA7F1010708
:10037000F4DC07E0D4E9012118F805009047206A71
:10038000401C2062281EA5F10105F3DC2046AFF3D6
:1003900000802078000602D50220BDE8F087012009
:1003A000FBE70000074B70B50D467B4400F011F8E9
:1003B0000446284600F020F810B14FF0FF3070BD21
:1003C000204670BD5703000001694A1C026108788D
:1003D000704700B58FB0CDE9013100210591054985
:1003E0007944CDE9031011466846FFF71DFF0FB0B1
:1003F00000BD0000E5FFFFFF007B00F080007047BC
:10040000754600F02BF8AE4605006946534620F0CD
:100410000700854618B020B5FFF7E8FEBDE820408C
:100420004FF000064FF000074FF000084FF0000BB0
:1004300021F00701AC46ACE8C009ACE8C009ACE863
:10044000C009ACE8C0098D46704710B50446AFF34B
:1004500000802046BDE81040FFF7B6BE0048704758
:10046000EC0000201D49096801F0200111B31B496F
:10047000091D0968C8B21A49098801F40041C9B9BF
:100480001749098801F4804161B10A2803D000218D
:10049000134A118020E01249098841F40041104AB2
:1004A000118019E00D2806D10D49098841F48041D9
:1004B0000B4A118010E00A490988C1F30D01094A6D
:1004C000505407490988491C054A1180114609887A
:1004D000C72901DD0021118070470000003801406C
:1004E000080000201400002000BF70474FF0E021FA
:1004F000096941F004014FF0E022116105490860EB
:100500001146096941F0010111616FF070415161BB
:10051000704700000000002010B504464FF47A71C7
:1005200004FB01F000F002F810BD000070B50346B6
:1005300000224FF0E02675690D4E366803FB06F485
:100540004FF0E026B16910E04FF0E026B069884234
:100550000BD0884202D20E1A324402E02E1A0E4408
:1005600032440146A24200D300E0EDE700BF70BD77
:100570000000002070B50024002504E0601CC4B217
:100580000120FFF7D3FF4FF400610F4803F014FD83
:1005900008B1642CF2DB642C01DB012511E000249E
:1005A00004E0601CC4B20120FFF7C0FF4FF40061FB
:1005B000054803F001FD08B9642CF2DB642C00DB74
:1005C0000125284670BD0000002001401CB500BF79
:1005D0000A48806940F480700849886100BF0120A2
:1005E000009003460246C1020190054803F0F8FC62
:1005F00000F072F8FFF7BEFF1CBD000000100240C3
:100600000020014010B5002404E0601CC4B20120A9
:10061000FFF78CFF4FF40061104803F0CDFC08B1E8
:10062000642CF2DB002404E0601CC4B20120FFF75C
:100630007DFF4FF40061094803F0BEFC08B9642C4B
:10064000F2DB2820FFF772FF4FF40061034803F04C
:10065000B3FC08B1012010BD0020FCE700200140E0
:1006600070B50024002506E06006040EFFF7CAFFFF
:100670000443681CC5B2082DF6DB204670BD7CB56E
:1006800005460E4600F028F8FFF774FFF8B900247D
:1006900005E0FFF7E5FF0DF80400601CC4B2052C6F
:1006A000F7DB9DF800009DF8011008449DF802104A
:1006B00008449DF8031008449DF80410884208D1AE
:1006C0009DF8000030709DF80200287001E00120C4
:1006D0007CBD0020FCE7000010B500224FF4006153
:1006E000074803F071FC1420FFF716FF0122D10226
:1006F000034803F069FC1E20FFF718FF10BD00003F
:100700000020014000BF054A126802F04002002AA2
:10071000F9D0C2B2014B1B1D1A607047003801406E
:1007200070B50446002609480588408845430021E5
:10073000084603F0D5F803F0C7FA00BF02E004480A
:100740000480761CAE42FAD370BD0000DC000020AD
:100750000008006C10B5044658488471002C58D12C
:10076000F020564908804FF4A070488008468088E1
:1007700045F21051884210D14FF430504F49088152
:100780004FF4285048814FF42C5088814FF4F0707A
:1007900008804FF4487048801AE04848808841F645
:1007A000631188420DD12C20444908812B204881B7
:1007B0002A2088814FF4F07008804FF448704880F8
:1007C00006E02C203D4908812A2048812B20888181
:1007D0003A48808845F21031884205D037488088F1
:1007E00047F29671884206D14FF4A07033490880D1
:1007F0004FF4F07048803148808849F606018842FD
:1008000058D14FF4F0702D4908804FF4487048805B
:1008100050E04FF4A07029490880F0204880084635
:10082000808845F21051884210D14FF4305023494E
:1008300008814FF4285048814FF42C5088814FF4A0
:10084000487008804FF4F070488020E01B48808892
:1008500041F66311884205D01848808849F60601A0
:1008600088420DD12C20154908812A2048812B204F
:1008700088814FF4487008804FF4F070488006E09B
:100880002C200E4908812A2048812B2088810B4882
:10089000808845F21031884205D00848808847F2A8
:1008A0009671884206D14FF4F070044908804FF4E5
:1008B000A0704880002002F0F5FE10BDDC00002092
:1008C00070B505460E4614463146284603F008F832
:1008D00003F0FAF901490C8070BD00000008006CBB
:1008E00010B5CF2003F0E4F9002003F0D5F9C120C2
:1008F00003F0D2F9302003F0CFF9ED2003F0D8F95E
:10090000642003F0C9F9032003F0C6F9122003F0B4
:10091000C3F9812003F0C0F9E82003F0C9F985206C
:1009200003F0BAF9102003F0B7F97A2003F0B4F914
:10093000CB2003F0BDF9392003F0AEF92C2003F0F1
:10094000ABF9002003F0A8F9342003F0A5F9022048
:1009500003F0A2F9F72003F0ABF9202003F09CF993
:10096000EA2003F0A5F9002003F096F9002003F037
:1009700093F9C02003F09CF91B2003F08DF9C120EE
:1009800003F096F9012003F087F9C52003F090F9F0
:10099000302003F081F9302003F07EF9C72003F006
:1009A00087F9B72003F078F9362003F081F9482061
:1009B00003F072F93A2003F07BF9552003F06CF94B
:1009C000B12003F075F9002003F066F91A2003F056
:1009D00063F9B62003F06CF90A2003F05DF9A22058
:1009E00003F05AF9F22003F063F9002003F054F900
:1009F000262003F05DF9012003F04EF9E02003F01A
:100A000057F90F2003F048F92A2003F045F9282070
:100A100003F042F9082003F03FF90E2003F03CF9FF
:100A2000082003F039F9542003F036F9A92003F027
:100A300033F9432003F030F90A2003F02DF90F2099
:100A400003F02AF9002003F027F9002003F024F92D
:100A5000002003F021F9002003F01EF9E12003F04B
:100A600027F9002003F018F9152003F015F91720D5
:100A700003F012F9072003F00FF9112003F00CF92D
:100A8000062003F009F92B2003F006F9562003F0A5
:100A900003F93C2003F000F9052003F0FDF81020D5
:100AA00003F0FAF80F2003F0F7F83F2003F0F4F812
:100AB0003F2003F0F1F80F2003F0EEF82B2003F0B5
:100AC000F7F8002003F0E8F8002003F0E5F8012033
:100AD00003F0E2F83F2003F0DFF82A2003F0E8F803
:100AE000002003F0D9F8002003F0D6F8002003F02E
:100AF000D3F8EF2003F0D0F8112003F0D9F87820D4
:100B0000FFF70AFD292003F0D3F810BD10B5FF2030
:100B100003F0CEF8FF2003F0BFF8982003F0BCF8F4
:100B2000062003F0B9F8BC2003F0C2F8012003F05E
:100B3000B3F80F2003F0B0F8612003F0ADF8FF2008
:100B400003F0AAF8012003F0A7F8012003F0A4F8AD
:100B50000B2003F0A1F8102003F09EF8372003F0DB
:100B60009BF8632003F098F8FF2003F095F8FF202E
:100B700003F092F8012003F08FF8012003F08CF8C5
:100B8000002003F089F8002003F086F8FF2003F02E
:100B900083F8522003F080F8012003F07DF8002054
:100BA00003F07AF8402003F077F8BD2003F080F8D6
:100BB000012003F071F8232003F06EF8452003F0C4
:100BC0006BF8672003F068F8012003F065F8232034
:100BD00003F062F8452003F05FF8672003F05CF84B
:100BE000BE2003F065F8002003F056F8012003F062
:100BF00053F8AB2003F050F8602003F04DF82220AA
:100C000003F04AF8222003F047F8222003F044F8CA
:100C1000222003F041F8222003F03EF8C72003F021
:100C200047F8362003F038F8ED2003F041F87F2034
:100C300003F032F80F2003F02FF8C02003F038F84B
:100C40000F2003F029F80B2003F026F80A2003F008
:100C500023F8FC2003F02CF8082003F01DF8DF2017
:100C600003F026F8002003F017F8002003F014F832
:100C7000002003F011F8002003F00EF8002003F02C
:100C80000BF8202003F008F8F32003F011F874208B
:100C900003F002F8B42003F00BF8002002F0FCFF90
:100CA000002002F0F9FF002002F0F6FFF72002F02A
:100CB000FFFF822002F0F0FFB12002F0F9FF0020D8
:100CC00002F0EAFF132002F0E7FF132002F0E4FF36
:100CD000F22002F0EDFF802002F0DEFF042002F09F
:100CE000DBFF402002F0D8FF282002F0D5FFC12012
:100CF00002F0DEFF172002F0CFFF882002F0CCFFC9
:100D0000882002F0C9FF202002F0C6FFE02002F098
:100D1000CFFF002002F0C0FF0A2002F0BDFF12202A
:100D200002F0BAFF102002F0B7FF0E2002F0B4FF6D
:100D3000202002F0B1FFCC2002F0AEFF072002F02D
:100D4000ABFF062002F0A8FF0B2002F0A5FF0E204B
:100D500002F0A2FF0F2002F09FFF0D2002F09CFF87
:100D6000152002F099FF102002F096FF002002F0FB
:100D700093FFE12002F09CFF002002F08DFF0B208A
:100D800002F08AFF132002F087FF0D2002F084FF9B
:100D90000E2002F081FF1B2002F07EFF712002F086
:100DA0007BFF062002F078FF062002F075FF0A2084
:100DB00002F072FF0F2002F06FFF0E2002F06CFFB6
:100DC0000F2002F069FF152002F066FF0C2002F0F0
:100DD00063FF002002F060FF2A2002F069FF00207C
:100DE00002F05AFF002002F057FF012002F054FFEA
:100DF000DF2002F051FF2B2002F05AFF002002F00A
:100E00004BFF002002F048FF032002F045FF1F20A7
:100E100002F042FF3A2002F04BFF552002F03CFF67
:100E2000362002F045FF002002F036FF112002F0CC
:100E30003FFF7820FFF770FB292002F039FF1420D4
:100E4000FFF76AFB2C2002F033FF10BD10B5ED2038
:100E500002F02EFF012002F01FFFFE2002F01CFF17
:100E6000EE2002F025FFDE2002F016FF212002F026
:100E700013FFF12002F01CFF012002F00DFFDF2024
:100E800002F016FF102002F007FFC42002F010FF4E
:100E90008F2002F001FFC62002F00AFF002002F0BE
:100EA000FBFEE22002F0F8FEE22002F0F5FEE22076
:100EB00002F0F2FEBF2002F0FBFEAA2002F0ECFEE0
:100EC000B02002F0F5FE0D2002F0E6FE002002F058
:100ED000E3FE0D2002F0E0FE002002F0DDFE112016
:100EE00002F0DAFE002002F0D7FE192002F0D4FE54
:100EF000002002F0D1FE212002F0CEFE002002F000
:100F0000CBFE2D2002F0C8FE002002F0C5FE3D20E1
:100F100002F0C2FE002002F0BFFE5D2002F0BCFE27
:100F2000002002F0B9FE5D2002F0B6FE002002F0C3
:100F3000B3FEB12002F0BCFE802002F0ADFE002026
:100F400002F0AAFE8B2002F0A7FE002002F0A4FE11
:100F5000962002F0A1FE002002F09EFEB22002F0D8
:100F6000A7FE002002F098FE002002F095FE02206D
:100F700002F092FE002002F08FFE032002F08CFEB1
:100F8000002002F089FEB32002F092FE002002F061
:100F900083FE002002F080FE002002F07DFE002093
:100FA00002F07AFE002002F077FE002002F074FECC
:100FB000002002F071FE002002F06EFE002002F020
:100FC0006BFE002002F068FE002002F065FE0020AB
:100FD00002F062FE002002F05FFE002002F05CFEE4
:100FE000002002F059FE002002F056FE002002F020
:100FF00053FE002002F050FE002002F04DFE0020C3
:1010000002F04AFE002002F047FE002002F044FEFB
:10101000002002F041FE002002F03EFEB42002F06B
:1010200047FE8B2002F038FE002002F035FE9620AD
:1010300002F032FE002002F02FFEA12002F02CFE72
:10104000002002F029FEB52002F032FE022002F05C
:1010500023FE002002F020FE032002F01DFE0020EF
:1010600002F01AFE042002F017FE002002F014FE27
:10107000B62002F01DFE002002F00EFE002002F05D
:101080000BFEB72002F014FE002002F005FE002047
:1010900002F002FE3F2002F0FFFD002002F0FCFD06
:1010A0005E2002F0F9FD002002F0F6FD642002F05F
:1010B000F3FD002002F0F0FD8C2002F0EDFD002099
:1010C00002F0EAFDAC2002F0E7FD002002F0E4FDB2
:1010D000DC2002F0E1FD002002F0DEFD702002F0D5
:1010E000DBFD002002F0D8FD902002F0D5FD0020AD
:1010F00002F0D2FDEB2002F0CFFD002002F0CCFD8B
:10110000DC2002F0C9FD002002F0C6FDB82002F08C
:10111000CFFD002002F0C0FD002002F0BDFD002048
:1011200002F0BAFD002002F0B7FD002002F0B4FD8D
:10113000002002F0B1FD002002F0AEFD002002F020
:10114000ABFDBA2002F0B4FD242002F0A5FD002082
:1011500002F0A2FD002002F09FFD002002F09CFDA5
:10116000C12002F0A5FD202002F096FD002002F033
:1011700093FD542002F090FD002002F08DFDFF2031
:1011800002F08AFD002002F087FDC22002F090FDEF
:101190000A2002F081FD002002F07EFD042002F012
:1011A0007BFD002002F078FDC32002F081FD3C2091
:1011B00002F072FD002002F06FFD3A2002F06CFD9B
:1011C000002002F069FD392002F066FD002002F0E7
:1011D00063FD372002F060FD002002F05DFD3C2041
:1011E00002F05AFD002002F057FD362002F054FDB7
:1011F000002002F051FD322002F04EFD002002F0EE
:101200004BFD2F2002F048FD002002F045FD2C2070
:1012100002F042FD002002F03FFD292002F03CFDDB
:10122000002002F039FD262002F036FD002002F0F9
:1012300033FD242002F030FD002002F02DFD24209B
:1012400002F02AFD002002F027FD232002F024FDF9
:10125000002002F021FD3C2002F01EFD002002F0E3
:101260001BFD362002F018FD002002F015FD322093
:1012700002F012FD002002F00FFD2F2002F00CFD05
:10128000002002F009FD2C2002F006FD002002F0F3
:1012900003FD292002F000FD002002F0FDFC2620C5
:1012A00002F0FAFC002002F0F7FC242002F0F4FC2B
:1012B000002002F0F1FC242002F0EEFC002002F0FD
:1012C000EBFC232002F0E8FC002002F0E5FCC42047
:1012D00002F0EEFC622002F0DFFC002002F0DCFCF9
:1012E000052002F0D9FC002002F0D6FC842002F098
:1012F000D3FC002002F0D0FCF02002F0CDFC002056
:1013000002F0CAFC182002F0C7FC002002F0C4FC66
:10131000A42002F0C1FC002002F0BEFC182002F064
:10132000BBFC002002F0B8FC502002F0B5FC00200D
:1013300002F0B2FC0C2002F0AFFC002002F0ACFC8A
:10134000172002F0A9FC002002F0A6FC952002F074
:10135000A3FC002002F0A0FCF32002F09DFC002082
:1013600002F09AFCE62002F097FC002002F094FCC8
:10137000C52002F09DFC322002F08EFC002002F01D
:101380008BFC442002F088FC002002F085FC6520E4
:1013900002F082FC002002F07FFC762002F07CFC50
:1013A000002002F079FC882002F076FC002002F098
:1013B00073FCC62002F07CFC202002F06DFC0020B3
:1013C00002F06AFC172002F067FC002002F064FCC7
:1013D000012002F061FC002002F05EFCC72002F058
:1013E00067FC002002F058FC002002F055FC0020B1
:1013F00002F052FC002002F04FFCC82002F058FC22
:10140000002002F049FC002002F046FC002002F01F
:1014100043FC002002F040FCC92002F049FC0020FF
:1014200002F03AFC002002F037FC002002F034FC0D
:10143000002002F031FC002002F02EFC002002F01F
:101440002BFC002002F028FC002002F025FC0020EC
:1014500002F022FC002002F01FFC002002F01CFC25
:10146000002002F019FC002002F016FC002002F01F
:1014700013FC002002F010FC002002F00DFCE02024
:1014800002F016FC162002F007FC002002F004FC1B
:101490001C2002F001FC002002F0FEFB212002F0E3
:1014A000FBFB002002F0F8FB362002F0F5FB0020E9
:1014B00002F0F2FB462002F0EFFB002002F0ECFB12
:1014C000522002F0E9FB002002F0E6FB642002F06B
:1014D000E3FB002002F0E0FB7A2002F0DDFB0020BD
:1014E00002F0DAFB8B2002F0D7FB002002F0D4FBE5
:1014F000992002F0D1FB002002F0CEFBA82002F0E0
:10150000CBFB002002F0C8FBB92002F0C5FB002095
:1015100002F0C2FBC42002F0BFFB002002F0BCFBC3
:10152000CA2002F0B9FB002002F0B6FBD22002F084
:10153000B3FB002002F0B0FBD92002F0ADFB00208D
:1015400002F0AAFBE02002F0A7FB002002F0A4FBBF
:10155000F32002F0A1FB002002F09EFBE12002F04C
:10156000A7FB162002F098FB002002F095FB1C2040
:1015700002F092FB002002F08FFB222002F08CFB95
:10158000002002F089FB362002F086FB002002F0EA
:1015900083FB452002F080FB002002F07DFB5220FF
:1015A00002F07AFB002002F077FB642002F074FB6B
:1015B000002002F071FB7A2002F06EFB002002F0A6
:1015C0006BFB8B2002F068FB002002F065FB99208A
:1015D00002F062FB002002F05FFBA82002F05CFB3F
:1015E000002002F059FBB92002F056FB002002F067
:1015F00053FBC42002F050FB002002F04DFBCA2038
:1016000002F04AFB002002F047FBD22002F044FB2C
:10161000002002F041FBD82002F03EFB002002F047
:101620003BFBE02002F038FB002002F035FBF3200A
:1016300002F032FB002002F02FFBE22002F038FB28
:10164000052002F029FB002002F026FB0B2002F00F
:1016500023FB002002F020FB1B2002F01DFB0020DA
:1016600002F01AFB342002F017FB002002F014FBFA
:10167000442002F011FB002002F00EFB4F2002F08C
:101680000BFB002002F008FB612002F005FB0020AC
:1016900002F002FB792002F0FFFA002002F0FCFACF
:1016A000882002F0F9FA002002F0F6FA972002F002
:1016B000F3FA002002F0F0FAA62002F0EDFA002082
:1016C00002F0EAFAB72002F0E7FA002002F0E4FAAA
:1016D000C22002F0E1FA002002F0DEFAC72002F098
:1016E000DBFA002002F0D8FAD12002F0D5FA00206F
:1016F00002F0D2FAD62002F0CFFA002002F0CCFAA3
:10170000DD2002F0C9FA002002F0C6FAF32002F050
:10171000C3FA002002F0C0FAE32002F0C9FA052063
:1017200002F0BAFA002002F0B7FA0A2002F0B4FA86
:10173000002002F0B1FA1C2002F0AEFA002002F004
:10174000ABFA332002F0A8FA002002F0A5FA4420F8
:1017500002F0A2FA002002F09FFA502002F09CFA58
:10176000002002F099FA622002F096FA002002F0BE
:1017700093FA782002F090FA002002F08DFA882087
:1017800002F08AFA002002F087FA972002F084FA29
:10179000002002F081FAA62002F07EFA002002F07A
:1017A0007BFAB72002F078FA002002F075FAC22026
:1017B00002F072FA002002F06FFAC72002F06CFA11
:1017C000002002F069FAD12002F066FA002002F04F
:1017D00063FAD52002F060FA002002F05DFADD2005
:1017E00002F05AFA002002F057FAF32002F054FAFD
:1017F000002002F051FAE42002F05AFA012002F02F
:101800004BFA002002F048FA012002F045FA0020CD
:1018100002F042FA022002F03FFA002002F03CFA05
:101820002A2002F039FA002002F036FA3C2002F0B9
:1018300033FA002002F030FA4B2002F02DFA00209B
:1018400002F02AFA5D2002F027FA002002F024FAC2
:10185000742002F021FA002002F01EFA842002F027
:101860001BFA002002F018FA932002F015FA00206B
:1018700002F012FAA22002F00FFA002002F00CFA95
:10188000B32002F009FA002002F006FABE2002F0AE
:1018900003FA002002F000FAC42002F0FDF9002053
:1018A00002F0FAF9CD2002F0F7F9002002F0F4F985
:1018B000D32002F0F1F9002002F0EEF9DD2002F071
:1018C000EBF9002002F0E8F9F32002F0E5F900203E
:1018D00002F0E2F9E52002F0EBF9002002F0DCF979
:1018E000002002F0D9F9002002F0D6F9002002F021
:1018F000D3F9022002F0D0F9002002F0CDF929201E
:1019000002F0CAF9002002F0C7F93C2002F0C4F945
:10191000002002F0C1F94B2002F0BEF9002002F0D5
:10192000BBF95D2002F0B8F9002002F0B5F974208F
:1019300002F0B2F9002002F0AFF9842002F0ACF915
:10194000002002F0A9F9932002F0A6F9002002F08D
:10195000A3F9A22002F0A0F9002002F09DF9B32023
:1019600002F09AF9002002F097F9BE2002F094F9F3
:10197000002002F091F9C42002F08EF9002002F05C
:101980008BF9CD2002F088F9002002F085F9D320F0
:1019900002F082F9002002F07FF9DC2002F07CF9ED
:1019A000002002F079F9F32002F076F9002002F02D
:1019B00073F9E62002F07CF9112002F06DF90020A5
:1019C00002F06AF9342002F067F9002002F064F9AD
:1019D000562002F061F9002002F05EF9762002F054
:1019E0005BF9002002F058F9772002F055F9002049
:1019F00002F052F9662002F04FF9002002F04CF993
:101A0000882002F049F9002002F046F9992002F0FE
:101A100043F9002002F040F9BB2002F03DF900201C
:101A200002F03AF9992002F037F9002002F034F977
:101A3000662002F031F9002002F02EF9552002F064
:101A40002BF9002002F028F9552002F025F900209A
:101A500002F022F9452002F01FF9002002F01CF9E3
:101A6000432002F019F9002002F016F9442002F098
:101A700013F9002002F010F9E72002F019F93220E2
:101A800002F00AF9002002F007F9552002F004F9EB
:101A9000002002F001F9762002F0FEF8002002F0AA
:101AA000FBF8662002F0F8F8002002F0F5F8672055
:101AB00002F0F2F8002002F0EFF8672002F0ECF8F4
:101AC000002002F0E9F8872002F0E6F8002002F09A
:101AD000E3F8992002F0E0F8002002F0DDF8BB20E6
:101AE00002F0DAF8002002F0D7F8992002F0D4F8DA
:101AF000002002F0D1F8772002F0CEF8002002F0AA
:101B0000CBF8442002F0C8F8002002F0C5F85620B7
:101B100002F0C2F8002002F0BFF8232002F0BCF867
:101B2000002002F0B9F8332002F0B6F8002002F0ED
:101B3000B3F8452002F0B0F8002002F0ADF8E8203C
:101B400002F0B6F8002002F0A7F8002002F0A4F896
:101B5000992002F0A1F8002002F09EF8872002F000
:101B60009BF8002002F098F8882002F095F80020F9
:101B700002F092F8772002F08FF8002002F08CF843
:101B8000662002F089F8002002F086F8882002F032
:101B900083F8002002F080F8AA2002F07DF80020EF
:101BA00002F07AF8BB2002F077F8002002F074F817
:101BB000992002F071F8002002F06EF8662002F021
:101BC0006BF8002002F068F8552002F065F800205C
:101BD00002F062F8552002F05FF8002002F05CF895
:101BE000442002F059F8002002F056F8442002F098
:101BF00053F8002002F050F8552002F04DF8002074
:101C000002F04AF8E92002F053F8AA2002F044F862
:101C1000002002F041F8002002F03EF8002002F01F
:101C20003BF8002002F044F8AA2002F035F8CF205B
:101C300002F03EF8002002F02FF8002002F02CF80D
:101C4000002002F029F8002002F026F8002002F01F
:101C500023F8002002F020F8002002F01DF80020F8
:101C600002F01AF8002002F017F8002002F014F831
:101C7000002002F011F8002002F00EF8002002F01F
:101C80000BF8002002F008F8002002F005F8002010
:101C900002F002F8002001F0FFFFF02002F008F847
:101CA000002001F0F9FF502001F0F6FF002001F0C4
:101CB000F3FF002001F0F0FF002001F0EDFFF32022
:101CC00001F0F6FF002001F0E7FFF92001F0F0FF3E
:101CD000062001F0E1FF102001F0DEFF292001F0D5
:101CE000DBFF002001F0D8FF3A2001F0E1FF552092
:101CF00001F0D2FF112001F0DBFF6420FEF70CFCA5
:101D0000292001F0D5FF352001F0D2FF002001F09D
:101D1000C3FF512001F0CCFFFF2001F0BDFF532095
:101D200001F0C6FF2C2001F0B7FF552001F0C0FFE5
:101D3000822001F0B1FF2C2001F0BAFF10BD10B5D8
:101D400055214FF4704001F0C9FFAA214FF2010064
:101D500001F0C4FF52214FF2020001F0BFFF082141
:101D60004FF2030001F0BAFF01214FF2040001F02D
:101D7000B5FF34214FF4364001F0B0FF34214BF26F
:101D8000016001F0ABFF34214BF2026001F0A6FFCD
:101D90000D214FF4304001F0A1FF0D214BF2010065
:101DA00001F09CFF0D214BF2020001F097FF24216E
:101DB0004FF4374001F092FF24214BF2017001F003
:101DC0008DFF24214BF2027001F088FF0D214FF4AA
:101DD000314001F083FF0D214BF2011001F07EFF35
:101DE0000D214BF2021001F079FF24214FF438400D
:101DF00001F074FF24214BF6010001F06FFF242154
:101E00004BF6020001F06AFF00214FF4324001F06E
:101E100065FF24214FF4394001F060FF24214BF687
:101E2000011001F05BFF24214BF6021001F056FF78
:101E300005214FF4334001F051FF05214BF20130F1
:101E400001F04CFF05214BF2023001F047FF342135
:101E50004FF43A4001F042FF34214BF6012001F0EB
:101E60003DFF34214BF6022001F038FF0B214FF4E7
:101E7000354001F033FF0B214BF2015001F02EFFF2
:101E80000B214BF2025001F029FF00214FF43C409E
:101E900001F024FFA3214BF6014001F01FFF0021B8
:101EA0004BF6024001F01AFF00214FF43D4001F0D3
:101EB00015FFA3214BF6015001F010FF00214BF656
:101EC000025001F00BFF00214FF43E4001F006FFED
:101ED00037214BF6016001F001FF00214FF4514022
:101EE00001F0FCFE37214DF2011001F0F7FE002158
:101EF0004DF2021001F0F2FE53214DF2031001F0F9
:101F0000EDFE00214DF2041001F0E8FE79214DF2C2
:101F1000051001F0E3FE00214DF2061001F0DEFE97
:101F200097214DF2071001F0D9FE00214DF2081063
:101F300001F0D4FEB1214DF2091001F0CFFE0021D5
:101F40004DF20A1001F0CAFED5214DF20B1001F03E
:101F5000C5FE00214DF20C1001F0C0FEF4214DF23F
:101F60000D1001F0BBFE01214DF20E1001F0B6FE86
:101F700023214DF20F1001F0B1FE01214DF210109E
:101F800001F0ACFE49214DF2111001F0A7FE012134
:101F90004DF2121001F0A2FE87214DF2131001F054
:101FA0009DFE01214DF2141001F098FEB6214DF274
:101FB000151001F093FE02214DF2161001F08EFE75
:101FC00000214DF2171001F089FE02214DF2181088
:101FD00001F084FE3B214DF2191001F07FFE022139
:101FE0004DF21A1001F07AFE3D214DF21B1001F066
:101FF00075FE02214DF21C1001F070FE75214DF2AC
:102000001D1001F06BFE02214DF21E1001F066FE64
:10201000B1214DF21F1001F061FE02214DF220109E
:1020200001F05CFED5214DF2211001F057FE032195
:102030004DF2221001F052FE09214DF2231001F061
:102040004DFE03214DF2241001F048FE28214DF2EF
:10205000251001F043FE03214DF2261001F03EFE53
:1020600052214DF2271001F039FE03214DF22810C4
:1020700001F034FE6B214DF2291001F02FFE0321F7
:102080004DF22A1001F02AFE8D214DF22B1001F0A5
:1020900025FE03214DF22C1001F020FEA2214DF26D
:1020A0002D1001F01BFE03214DF22E1001F016FE43
:1020B000BB214DF22F1001F011FE03214DF2301023
:1020C00001F00CFEC1214DF2311001F007FE032199
:1020D0004DF2321001F002FEC1214DF2331001F039
:1020E000FDFD00214FF4524001F0F8FD37214DF283
:1020F000012001F0F3FD00214DF2022001F0EEFD80
:1021000053214DF2032001F0E9FD00214DF204209E
:1021100001F0E4FD79214DF2052001F0DFFD002101
:102120004DF2062001F0DAFD97214DF2072001F073
:10213000D5FD00214DF2082001F0D0FDB1214DF276
:10214000092001F0CBFD00214DF20A2001F0C6FD6F
:10215000D5214DF20B2001F0C1FD00214DF20C20E4
:1021600001F0BCFDF4214DF20D2001F0B7FD01217D
:102170004DF20E2001F0B2FD23214DF20F2001F0AF
:10218000ADFD01214DF2102001F0A8FD49214DF2D5
:10219000112001F0A3FD01214DF2122001F09EFD5E
:1021A00087214DF2132001F099FD01214DF21420F9
:1021B00001F094FDB6214DF2152001F08FFD0221B2
:1021C0004DF2162001F08AFD00214DF2172001F09A
:1021D00085FD02214DF2182001F080FD3B214DF2DA
:1021E000192001F07BFD02214DF21A2001F076FD4D
:1021F0003D214DF21B2001F071FD02214DF21C200A
:1022000001F06CFD75214DF21D2001F067FD0221EA
:102210004DF21E2001F062FDB1214DF21F2001F0B0
:102220005DFD02214DF2202001F058FDD5214DF237
:10223000212001F053FD03214DF2222001F04EFD3B
:1022400009214DF2232001F049FD03214DF2242004
:1022500001F044FD28214DF2252001F03FFD03212E
:102260004DF2262001F03AFD52214DF2272001F0D7
:1022700035FD03214DF2282001F030FD6B214DF298
:10228000292001F02BFD03214DF22A2001F026FD2B
:102290008D214DF22B2001F021FD03214DF22C2048
:1022A00001F01CFDA2214DF22D2001F017FD0321AC
:1022B0004DF22E2001F012FDBB214DF22F2001F036
:1022C0000DFD03214DF2302001F008FDC1214DF23A
:1022D000312001F003FD03214DF2322001F0FEFC1C
:1022E000C1214DF2332001F0F9FC00214FF453409D
:1022F00001F0F4FC37214DF2013001F0EFFC002138
:102300004DF2023001F0EAFC53214DF2033001F0AE
:10231000E5FC00214DF2043001F0E0FC79214DF2A2
:10232000053001F0DBFC00214DF2063001F0D6FC57
:1023300097214DF2073001F0D1FC00214DF2083019
:1023400001F0CCFCB1214DF2093001F0C7FC0021B5
:102350004DF20A3001F0C2FCD5214DF20B3001F0F4
:10236000BDFC00214DF20C3001F0B8FCF4214DF21F
:102370000D3001F0B3FC01214DF20E3001F0AEFC46
:1023800023214DF20F3001F0A9FC01214DF2103054
:1023900001F0A4FC49214DF2113001F09FFC012114
:1023A0004DF2123001F09AFC87214DF2133001F00A
:1023B00095FC01214DF2143001F090FCB6214DF254
:1023C000153001F08BFC02214DF2163001F086FC35
:1023D00000214DF2173001F081FC02214DF218303E
:1023E00001F07CFC3B214DF2193001F077FC022119
:1023F0004DF21A3001F072FC3D214DF21B3001F01C
:102400006DFC02214DF21C3001F068FC75214DF28B
:102410001D3001F063FC02214DF21E3001F05EFC24
:10242000B1214DF21F3001F059FC02214DF2203054
:1024300001F054FCD5214DF2213001F04FFC032175
:102440004DF2223001F04AFC09214DF2233001F017
:1024500045FC03214DF2243001F040FC28214DF2CF
:10246000253001F03BFC03214DF2263001F036FC13
:1024700052214DF2273001F031FC03214DF228307A
:1024800001F02CFC6B214DF2293001F027FC0321D7
:102490004DF22A3001F022FC8D214DF22B3001F05B
:1024A0001DFC03214DF22C3001F018FCA2214DF24D
:1024B0002D3001F013FC03214DF22E3001F00EFC03
:1024C000BB214DF22F3001F009FC03214DF23030D9
:1024D00001F004FCC1214DF2313001F0FFFB03217A
:1024E0004DF2323001F0FAFBC1214DF2333001F0F0
:1024F000F5FB00214FF4544001F0F0FB37214DF281
:10250000014001F0EBFB00214DF2024001F0E6FB3F
:1025100053214DF2034001F0E1FB00214DF2044054
:1025200001F0DCFB79214DF2054001F0D7FB0021E1
:102530004DF2064001F0D2FB97214DF2074001F029
:10254000CDFB00214DF2084001F0C8FBB1214DF256
:10255000094001F0C3FB00214DF20A4001F0BEFB2F
:10256000D5214DF20B4001F0B9FB00214DF20C409A
:1025700001F0B4FBF4214DF20D4001F0AFFB01215D
:102580004DF20E4001F0AAFB23214DF20F4001F065
:10259000A5FB01214DF2104001F0A0FB49214DF2B5
:1025A000114001F09BFB01214DF2124001F096FB1E
:1025B00087214DF2134001F091FB01214DF21440AF
:1025C00001F08CFBB6214DF2154001F087FB022192
:1025D0004DF2164001F082FB00214DF2174001F050
:1025E0007DFB02214DF2184001F078FB3B214DF2BA
:1025F000194001F073FB02214DF21A4001F06EFB0D
:102600003D214DF21B4001F069FB02214DF21C40BF
:1026100001F064FB75214DF21D4001F05FFB0221CA
:102620004DF21E4001F05AFBB1214DF21F4001F066
:1026300055FB02214DF2204001F050FBD5214DF217
:10264000214001F04BFB03214DF2224001F046FBFB
:1026500009214DF2234001F041FB03214DF22440BA
:1026600001F03CFB28214DF2254001F037FB03210E
:102670004DF2264001F032FB52214DF2274001F08D
:102680002DFB03214DF2284001F028FB6B214DF278
:10269000294001F023FB03214DF22A4001F01EFBEB
:1026A0008D214DF22B4001F019FB03214DF22C40FE
:1026B00001F014FBA2214DF22D4001F00FFB03218C
:1026C0004DF22E4001F00AFBBB214DF22F4001F0EC
:1026D00005FB03214DF2304001F000FBC1214DF21A
:1026E000314001F0FBFA03214DF2324001F0F6FADD
:1026F000C1214DF2334001F0F1FA00214FF4554071
:1027000001F0ECFA37214DF2015001F0E7FA002117
:102710004DF2025001F0E2FA53214DF2035001F064
:10272000DDFA00214DF2045001F0D8FA79214DF282
:10273000055001F0D3FA00214DF2065001F0CEFA17
:1027400097214DF2075001F0C9FA00214DF20850CF
:1027500001F0C4FAB1214DF2095001F0BFFA002195
:102760004DF20A5001F0BAFAD5214DF20B5001F0AA
:10277000B5FA00214DF20C5001F0B0FAF4214DF2FF
:102780000D5001F0ABFA01214DF20E5001F0A6FA06
:1027900023214DF20F5001F0A1FA01214DF210500A
:1027A00001F09CFA49214DF2115001F097FA0121F4
:1027B0004DF2125001F092FA87214DF2135001F0C0
:1027C0008DFA01214DF2145001F088FAB6214DF234
:1027D000155001F083FA02214DF2165001F07EFAF5
:1027E00000214DF2175001F079FA02214DF21850F4
:1027F00001F074FA3B214DF2195001F06FFA0221F9
:102800004DF21A5001F06AFA3D214DF21B5001F0D1
:1028100065FA02214DF21C5001F060FA75214DF26B
:102820001D5001F05BFA02214DF21E5001F056FAE4
:10283000B1214DF21F5001F051FA02214DF220500A
:1028400001F04CFAD5214DF2215001F047FA032155
:102850004DF2225001F042FA09214DF2235001F0CD
:102860003DFA03214DF2245001F038FA28214DF2AF
:10287000255001F033FA03214DF2265001F02EFAD3
:1028800052214DF2275001F029FA03214DF2285030
:1028900001F024FA6B214DF2295001F01FFA0321B7
:1028A0004DF22A5001F01AFA8D214DF22B5001F011
:1028B00015FA03214DF22C5001F010FAA2214DF22D
:1028C0002D5001F00BFA03214DF22E5001F006FAC3
:1028D000BB214DF22F5001F001FA03214DF230508F
:1028E00001F0FCF9C1214DF2315001F0F7F903215B
:1028F0004DF2325001F0F2F9C1214DF2335001F0A6
:10290000EDF900214FF4564001F0E8F937214DF27E
:10291000016001F0E3F900214DF2026001F0DEF9FF
:1029200053214DF2036001F0D9F900214DF204600A
:1029300001F0D4F979214DF2056001F0CFF90021C1
:102940004DF2066001F0CAF997214DF2076001F0DF
:10295000C5F900214DF2086001F0C0F9B1214DF236
:10296000096001F0BBF900214DF20A6001F0B6F9EF
:10297000D5214DF20B6001F0B1F900214DF20C6050
:1029800001F0ACF9F4214DF20D6001F0A7F901213D
:102990004DF20E6001F0A2F923214DF20F6001F01B
:1029A0009DF901214DF2106001F098F949214DF295
:1029B000116001F093F901214DF2126001F08EF9DE
:1029C00087214DF2136001F089F901214DF2146065
:1029D00001F084F9B6214DF2156001F07FF9022172
:1029E0004DF2166001F07AF900214DF2176001F006
:1029F00075F902214DF2186001F070F93B214DF29A
:102A0000196001F06BF902214DF21A6001F066F9CC
:102A10003D214DF21B6001F061F902214DF21C6075
:102A200001F05CF975214DF21D6001F057F90221AA
:102A30004DF21E6001F052F9B1214DF21F6001F01C
:102A40004DF902214DF2206001F048F9D5214DF2F7
:102A5000216001F043F903214DF2226001F03EF9BB
:102A600009214DF2236001F039F903214DF2246070
:102A700001F034F928214DF2256001F02FF90321EE
:102A80004DF2266001F02AF952214DF2276001F043
:102A900025F903214DF2286001F020F96B214DF258
:102AA000296001F01BF903214DF22A6001F016F9AB
:102AB0008D214DF22B6001F011F903214DF22C60B4
:102AC00001F00CF9A2214DF22D6001F007F903216C
:102AD0004DF22E6001F002F9BB214DF22F6001F0A2
:102AE000FDF803214DF2306001F0F8F8C1214DF2FC
:102AF000316001F0F3F803214DF2326001F0EEF89D
:102B0000C1214DF2336001F0E9F855214FF47040D6
:102B100001F0E4F8AA214FF2010001F0DFF85221A0
:102B20004FF2020001F0DAF808214FF2030001F041
:102B3000D5F800214FF2040001F0D0F800214FF445
:102B4000304001F0CBF805214BF2010001F0C6F84E
:102B500002214BF2020001F0C1F805214BF2030003
:102B600001F0BCF802214BF2040001F0B7F8082193
:102B70004FF4364001F0B2F850214FF4354001F0E7
:102B8000ADF805214FF4364001F0A8F800214FF4CC
:102B9000374001F0A3F800214BF2017001F09EF8DC
:102BA00001214FF4384001F099F805214BF601005E
:102BB00001F094F805214BF6020001F08FF8052191
:102BC0004BF6030001F08AF802214FF43C4001F07B
:102BD00085F800214BF6014001F080F800214BF60A
:102BE000024001F07BF803214FF44C4001F076F8ED
:102BF00000214CF6014001F071F800214CF6024032
:102C000001F06CF801214FF43D4001F067F8842198
:102C10004BF6015001F062F807214BF6025001F02B
:102C20005DF831214BF6035001F058F800214BF6C6
:102C3000045001F053F801214FF43A4001F04EF8EE
:102C4000AA214FF47F4001F049F855214FF6017059
:102C500001F044F825214FF6027001F03FF8012100
:102C60004FF6037001F03AF840214FF4585001F04C
:102C700035F800214FF4545001F030F805214FF49D
:102C8000685001F02BF84FF4885001F011F87820CB
:102C9000FDF742FC4FF4245001F00AF80A20FDF73A
:102CA0003BFC4FF4305001F003F810BD10B5E220AA
:102CB00000F0FEFF1D2000F0EFFF022000F0ECFF0F
:102CC000042000F0E9FF6420FDF730FCE02000F074
:102CD000EFFF012000F0E0FF0A20FDF71DFCE020DF
:102CE00000F0E6FF032000F0D7FF0C20FDF714FCF6
:102CF000012000F0DDFF0A20FDF70EFCE62000F0C9
:102D0000D7FF2F2000F0C8FFFF2000F0C5FFFF20F5
:102D100000F0C2FFB02000F0CBFF202000F0BCFF8D
:102D2000002000F0B9FF032000F0B6FF40F21F3092
:102D300000F0B2FF012000F0AFFF40F2DF1000F022
:102D4000ABFF002000F0A8FFB42000F0B1FF04208A
:102D500000F0A2FF40F21F4000F09EFF002000F0B4
:102D60009BFF2E2000F098FF002000F095FF002030
:102D700000F092FF002000F08FFF002000F08CFF99
:102D8000B62000F095FF022000F086FF4FF403709C
:102D900000F082FF002000F07FFF172000F07CFF92
:102DA000152000F079FF002000F076FF002000F0F1
:102DB00073FFF02000F07CFF032000F06DFF29205E
:102DC00000F076FFD02000F073FF002000F064FFD9
:102DD000BE2000F06DFF052000F05EFFFE2000F039
:102DE0005BFF012000F058FF002000F055FF00209D
:102DF00000F052FF002000F04FFFB82000F058FF15
:102E0000032000F049FF012000F046FFBA2000F047
:102E10004FFF012000F040FF10BD10B5112000F061
:102E200047FF7820FDF778FB362000F041FF0020B7
:102E300000F032FF3A2000F03BFF052000F02CFFAD
:102E4000B22000F035FF0C2000F026FF0C2000F02F
:102E500023FF002000F020FF332000F01DFF33206F
:102E600000F01AFFB72000F023FF352000F014FF18
:102E7000BB2000F01DFF322000F00EFFC02000F04C
:102E800017FF0C2000F008FFC22000F011FF012006
:102E900000F002FFC32000F00BFF102000F0FCFE4A
:102EA000C42000F005FF202000F0F6FEC62000F050
:102EB000FFFE0F2000F0F0FED02000F0F9FEA4206D
:102EC00000F0EAFEA12000F0E7FEE02000F0F0FEB6
:102ED000D02000F0E1FE002000F0DEFE022000F035
:102EE000DBFE072000F0D8FE0A2000F0D5FE2820E7
:102EF00000F0D2FE322000F0CFFE442000F0CCFEE5
:102F0000422000F0C9FE062000F0C6FE0E2000F0B0
:102F1000C3FE122000F0C0FE142000F0BDFE1720FA
:102F200000F0BAFEE12000F0C3FED02000F0B4FEB5
:102F3000002000F0B1FE022000F0AEFE072000F0FD
:102F4000ABFE0A2000F0A8FE282000F0A5FE3120EC
:102F500000F0A2FE542000F09FFE472000F09CFEEF
:102F60000E2000F099FE1C2000F096FE172000F0C5
:102F700093FE1B2000F090FE1E2000F08DFE2A2004
:102F800000F096FE002000F087FE002000F084FE96
:102F9000002000F081FEEF2000F07EFE2B2000F0EC
:102FA00087FE002000F078FE002000F075FE012072
:102FB00000F072FE3F2000F06FFE292000F078FE46
:102FC00010BD10B5112000F073FE7820FDF7A4FAB3
:102FD000362000F06DFE482000F05EFE3A2000F042
:102FE00067FE552000F058FEF02000F061FEC3207F
:102FF00000F052FEF02000F05BFE962000F04CFE48
:10300000B42000F055FE012000F046FEB62000F08E
:103010004FFE0A2000F040FEA22000F03DFEB72047
:1030200000F046FEC62000F037FEB92000F040FE5A
:10303000022000F031FEE02000F02EFEC02000F063
:1030400037FE802000F028FE162000F025FEC1206B
:1030500000F02EFE192000F01FFEC22000F028FE16
:10306000A72000F019FEC52000F022FE162000F077
:1030700013FEE82000F01CFE402000F00DFE8A2028
:1030800000F00AFE002000F007FE002000F004FE21
:10309000292000F001FE192000F0FEFDA52000F01F
:1030A000FBFD332000F0F8FDE02000F001FEF020F1
:1030B00000F0F2FD072000F0EFFD0D2000F0ECFD28
:1030C000042000F0E9FD052000F0E6FD142000F0EA
:1030D000E3FD362000F0E0FD542000F0DDFD4C2043
:1030E00000F0DAFD382000F0D7FD132000F0D4FD09
:1030F000142000F0D1FD2E2000F0CEFD342000F091
:10310000CBFDE12000F0D4FDF02000F0C5FD102043
:1031100000F0C2FD142000F0BFFD0E2000F0BCFD49
:103120000C2000F0B9FD082000F0B6FD352000F0BD
:10313000B3FD442000F0B0FD4C2000F0ADFD262092
:1031400000F0AAFD102000F0A7FD122000F0A4FD61
:103150002C2000F0A1FD322000F09EFDF02000F0B8
:10316000A7FD3C2000F098FDF02000F0A1FD6920B3
:1031700000F092FD7820FDF7CFF9212000F098FDB6
:10318000292000F095FD10BD2DE9F04F05460E46B3
:1031900017469846DDF824A04FF0000B781B401C22
:1031A0001FFA80FB344613E02146284600F098FBC6
:1031B00000F08AFD4FF0000906E00749A1F800A0E1
:1031C00009F101001FFA80F9D945F6DB601C84B2D1
:1031D0004445E9DDBDE8F08F0008006C1CB500BF78
:1031E000FA48806940F48070F849886100BF00BFE8
:1031F0000846806940F02000886100BF00BF084693
:10320000806940F02000886100BF00BF08468069E7
:1032100040F48070886100BF00BF0846806940F0BC
:103220000800886100BF0846806940F0600088613E
:103230000846406940F48070486101200321002362
:103240000222CDE900100103E14800F0C9FE01208F
:10325000032100230222CDE900102021DD4800F0E7
:10326000BFFE0120032100230222CDE9001010211E
:10327000D84800F0B5FE0120032100230222CDE949
:1032800000100146D24800F0ABFE012003210023CC
:103290000246CDE900100146CF4800F0A1FE012012
:1032A000032100230222CDE900104CF20371C9482A
:1032B00000F096FE0120032100230222CDE9001038
:1032C0004FF68071C54800F08BFE00204FF0204182
:1032D0008861C861C24908604FF02040806940F4AD
:1032E00080504FF0204188610846806940F480405A
:1032F00088610846806940F0100088610846C0690E
:10330000C8610846C069C8610846C06940F4706079
:10331000C861B3480068C1F81C01B1480068C1F831
:103320001C010846D0F81C0140F48070C1F81C0153
:103330000846806940F0010088610846806940F0D5
:1033400000408861A74800F08FF9D32000F0B0FC5E
:1033500000F09CF9A449888000F098F9A24988807F
:1033600000F094F9A0498880084680884FF6FF71E4
:1033700001EA00209C49888000F088F99A498988F0
:103380000843994988800846808849F2413188423B
:103390007ED0042000F08CFC00F078F992498880FF
:1033A00000F074F99049888000F070F98E498880A7
:1033B000084680884FF6FF7101EA00208A4988801C
:1033C00000F064F98849898808438749888008465D
:1033D000808848F25251884203D147F2897082496D
:1033E00088808148808847F289718842D0D0D42073
:1033F00000F05EFC00F04AF97B49888000F046F955
:103400007949888000F042F97749888008468088A9
:103410004FF6FF7101EA00207349888000F036F909
:10342000714989880843704988800846808845F238
:1034300010318842ACD0D32000F03AFC00F026F9DD
:103440006949888000F022F96749888000F01EF9F8
:1034500065498880084680884FF6FF7101EA0020A0
:103460006149888000F012F95F49898808435E4904
:1034700088800846808847F29671884288D0552116
:103480004FF4704000F02AFCAA214FF2010000E046
:103490007CE000F023FC52214FF2020000F01EFC01
:1034A00008214FF2030000F019FC01214FF2040043
:1034B00000F014FC4FF4454000F0FAFB00F0E6F891
:1034C00049498880084680884FF6FF7101EA00204C
:1034D000454988804CF2015000F0EAFB00F0D6F834
:1034E000414989880843404988800520FDF714F840
:1034F0003D48808845F21051884247D0D32000F0E3
:10350000D7FB00F0C3F83849888000F0BFF836498F
:10351000888000F0BBF834498880084680884FF6E0
:10352000FF7101EA00203049888000F0AFF82E4991
:10353000898808432C4988800846808849F6060116
:10354000884223D0A12000F0B3FB00F09FF8264969
:10355000888000F09BF824498880084680884FF6D0
:10356000FF7101EA00202049888000F08FF81E4991
:10357000898808431C4988800846808845F2617123
:10358000884203D141F66310174988801648818824
:1035900016A0FCF73DFE1448808847F289718842E6
:1035A00002D1FFF73AFC4DE00F48808849F24131E3
:1035B000884202D1FDF794F944E00B48808845F237
:1035C0001031884218D1FDF741FC3BE00010024069
:1035D0000020014000140140000C0140001801408F
:1035E0001C0100A0FFFF0100DC0000204C43442030
:1035F00049443A25780D0A001948808847F29671A7
:10360000884202D1FFF7DDFC1CE01548808845F2B6
:103610001051884202D1FEF792FB13E010488088D7
:1036200049F60601884202D1FDF770FA0AE00C481B
:10363000808841F66311884204D1FFF737FB64208C
:1036400000F000FB0020FDF785F801221146054837
:1036500000F0BAFC4FF6FF70FDF762F81CBD0000E9
:10366000DC000020000C014000BF011EA0F10100A1
:10367000FBD1704710B50246012000E050430B1EFD
:10368000A1F10104E1B2F9D110BD000008B502209A
:10369000FFF7EAFF024800880090BDF8000008BD6F
:1036A0000008006CF0B50546002400278B4880799F
:1036B000012805D18948808841F66311884208D1E4
:1036C00086488079F0B98548808841F66311884240
:1036D00018D1082D15D2DFE805F00406080A0C0EF3
:1036E000101206250DE007250BE0042509E005254D
:1036F00007E0012505E0002503E0032501E00225A0
:1037000000BF00BF082D1CD2DFE805F00406090C3D
:103710000F12151800BF14E044F0800411E044F0CB
:1037200040040EE044F0C0040BE044F0200408E044
:1037300044F0600405E044F0A00402E044F0E0043A
:1037400000BF00BF36276548808845F21051884287
:1037500000D13F026148808849F2413188420BD054
:103760005E48808847F28971884205D05B4880882E
:1037700047F29671884201D144F008042146384648
:1037800000F0ACFA5548808841F6631188421DD09C
:1037900004F0200068B151480088504949888842A7
:1037A00014DA4E48068840884C490880084646800E
:1037B0000CE04A48008849494988884206DD474864
:1037C00006884088454908800846468043488088E6
:1037D00045F21051884252D14049488900F068FAB8
:1037E000002000F059FA3D494989491C88B200F08F
:1037F0005FFA002000F050FA38494989891C88B2E4
:1038000000F056FA35490988491EC1F30F2000F02F
:1038100043FA32494989C91C88B200F049FA2F4954
:103820000978491EC8B200F037FA2C49888900F09F
:103830003FFA002000F030FA28498989491C88B2F3
:1038400000F036FA002000F027FA24498989891C03
:1038500088B200F02DFA21494988491EC1F30F2092
:1038600000F01AFA1D498989C91C88B200F020FAB3
:103870001A498978491EC8B200F00EFA2DE017499E
:10388000488900F015FA002000F006FA002000F048
:1038900003FA12490988491EC1F30F2000F0FCF910
:1038A0000E490978491EC8B200F0F6F90B4988891B
:1038B00000F0FEF9002000F0EFF9002000F0ECF934
:1038C00006494988491EC1F30F2000F0E5F9034974
:1038D0008978491EC8B200F0DFF9F0BDDC00002095
:1038E00010B502460C464548808841F6631188426F
:1038F00047D142488079A8B940480088401E801AC4
:1039000082B23E49488900F0D3F9002000F0C4F9A2
:10391000002000F0C1F9101200F0BEF9D0B200F0A2
:10392000BBF916E03549488900F0C2F9101200F0E1
:10393000B3F9D0B200F0B0F930490988491EC1F39B
:103940000F2000F0A9F92D490978491EC8B200F0EE
:10395000A3F92A49888900F0ABF9201200F09CF9FC
:10396000E0B200F099F925494988491EC1F30F20BA
:1039700000F092F921498978491EC8B200F08CF90B
:103980003AE01E48808845F21051884220D11B49F8
:10399000488900F08DF9101200F07EF91749498925
:1039A000491C88B200F084F9D0B200F075F91349CF
:1039B000888900F07DF9201200F06EF90F4989899D
:1039C000491C88B200F074F9E0B200F065F913E028
:1039D0000A49488900F06CF9101200F05DF9D0B284
:1039E00000F05AF90549888900F062F9201200F0C8
:1039F00053F9E0B200F050F910BD0000DC000020E7
:103A00002DE9FC4F80460E4615461C46B346002065
:103A1000019000902046E31704EB5373DB1021461E
:103A20004FEAE47C04EB5C7C4FEAEC0CA4EBCC0C9E
:103A3000BCF1000F02D04FF0010C01E04FF0000C80
:103A40006344224604EBD27C4FEA6C0C03FB0CF37C
:103A5000DBB20193A5F12000C5B20C2C06D0102CCE
:103A60000BD0182C0ED0202C18D112E005EB4500FD
:103A70002D4901EB8000009012E02C4800EB05106E
:103A800000900DE005EBC500294901EB8000009096
:103A900006E0284800EB8510009001E0BDE8FC8FAF
:103AA00000BF00273AE0009810F807904FF0000A96
:103AB0002EE009F0800028B1314640460C9AFCF710
:103AC000FFFE07E00B9828B91B48314602684046C4
:103AD000FCF7F6FE4FEA49604FEA1069701C86B2A7
:103AE00016484088B04200DCD8E7A6EB0B00A042A5
:103AF0000AD15E4608F101001FFA80F80F480088DD
:103B0000404500DCCAE706E00AF1010000F0FF0AC8
:103B1000BAF1080FCDDB00BF781CC7B2019887420D
:103B2000C1DB00BFBAE700002C450008A04900082F
:103B3000904F0008EC5C000810000020DC00002022
:103B40002DE9FF4F83B0074691461E46DDE9105A26
:103B50000020029000243AE0301B401EC1B20A202F
:103B6000FFF788FDB9FBF0F00A21B0FBF1F201FB91
:103B700012080298B8B9701EA04214DDB8F1000F07
:103B80000FD10020AB4605EBDB71491001FB04713E
:103B9000CDE9000A88B22B4620220499FFF730FFB6
:103BA00013E0012002900020AB4605EBDB714910C9
:103BB00001FB0471CDE9000A88B208F13001CAB2F4
:103BC0002B460499FFF71CFF00BF601CC4B2B4422F
:103BD000C2DB07B0BDE8F08F2DE9FC4F04460D466F
:103BE00090469946DDE90C7A0B9E04F0FF0B08EB3A
:103BF00004001FFA80F809EB05001FFA80F917E0AE
:103C0000444502DB5C46A81985B24D4500DB15E052
:103C10000020CDE9000A3A78334629462046FFF7CE
:103C2000EFFE304606EBD07104EB61018CB27F1CD5
:103C300038787E2802DC38782028E1DA00BFBDE839
:103C4000FC8F00002DE9F0470446BE2000F030F85C
:103C5000052000F021F8204600F057FB07464FF002
:103C600066320C4B00F064FB054600F021FB1FFAA6
:103C700080F9484600F010F8012000F00DF8FF2010
:103C800000F00AF8002000F007F8002000F004F827
:103C9000BDE8F0876666044001B5BDF800000090FD
:103CA000BDF800000149088008BD00000008006C54
:103CB00001B5BDF800000090BDF800000149088082
:103CC00008BD0000FE07006C024800890249088018
:103CD00070470000DC000020FE07006C024A1080E4
:103CE000921C118070470000FE07006C1CB500BFDD
:103CF0001548806940F008001349886100BF00BF83
:103D00000846806940F04000886100BF01200090B3
:103D100000230246202101900C4800F061F90120A7
:103D200000900023024620210190094800F058F934
:103D300001222021054800F047F9012220210448F2
:103D400000F042F91CBD000000100240000C0140D0
:103D50000018014086B00024092000F00FFA482026
:103D6000FCF7C4FB4FF4E131482000F03FFAFFF7C5
:103D7000BDFFFFF733FA4FF478404EA110221346EF
:103D8000CDE900210290C82232211E20FFF724FF36
:103D90004FF4784049A110221346CDE9002102904A
:103DA000C82246211E20FFF717FF4FF4784046A196
:103DB00010221346CDE900210290C8225A211E206C
:103DC000FFF70AFF1BE04FF4784043A1102213468F
:103DD000CDE900210290C8226E211E20FFF7FCFED3
:103DE000C820FCF799FB4FF6FF709223EF226E215B
:103DF00000901E20FFF7C8F9C820FCF78DFBFCF7E8
:103E0000E5FB0028DFD14FF4784036A1102213469D
:103E1000CDE900210290C8226E211E20FFF7DCFEB2
:103E20001F2033A110221346CDE900210290C822A1
:103E300082211E20FFF7D0FE1F2030A11022134642
:103E4000CDE900210290C82296211E20FFF7C4FE72
:103E50002FE00A2094FBF0F100FB1140C8B904A93F
:103E600005A8FCF70CFC1F2010210223CDE900104F
:103E70009DF8142082214620FFF762FE1F201021AA
:103E80000223CDE900109DF8102096214620FFF76F
:103E900057FE0A20FCF740FB601CC4B2142C08D16A
:103EA000002400BF1848006880F020001649086010
:103EB00000BFCEE753544D33320000004448543124
:103EC000312054455354000041544F4D40414C491A
:103ED000454E54454B000000444854313120457252
:103EE000726F72004448543131204F4B0000000083
:103EF00054656D703A2020430000000048756D69DC
:103F00003A202025000000000C0C014010B50246AC
:103F100000210020264B1B6843F48033244C23608F
:103F20000AE000BF224B1B6803F400331BB1B1F55C
:103F3000004F00D904E0491C4FF6F0739942F0D3CA
:103F400000BF4FF6F073994201D301202FE04FF4E8
:103F50008063174C6360921E23465B6843EA82438A
:103F6000636023465B6843F4803363601023114C25
:103F7000236023461B6843F0020323600C4B1B683D
:103F800043F080730A4C236000BF094B1B685B0E33
:103F9000002BFAD0064B5B6843F00203044C6360CD
:103FA00000BF034B5B68C3F38103022BF9D110BD43
:103FB000001002400020024002469068084008B10C
:103FC000012070470020FCE702F001031BB10369E8
:103FD0000B43036103E0036943EA01430361704754
:103FE0002DE9F04F0E461D46DDE909C400210027EA
:103FF0008846002300BF64E04FF0010909FA01F789
:1040000006EA0708B8455BD10023012A01D0022A3D
:104010000AD10CF0030305F0010943EA8903A2F178
:10402000010943EAC90318E0BAB90CB9042314E042
:104030000823D0F80C904FF0010A0AFA01FA29EA95
:104040000A09C0F80C90D0F80CA004F0010909FA94
:1040500001F94AEA090AC0F80CA0072916D8D0F8D5
:1040600000904FEA810B4FF00F0A0AFA0BFA29EA87
:104070000A09C0F80090D0F800904FEA810A03FACC
:104080000AFA49EA0A09C0F8009019E0D0F8049049
:10409000A1F1080A4FEA8A0B4FF00F0A0AFA0BFA4D
:1040A00029EA0A09C0F80490D0F80490A1F1080A9E
:1040B0004FEA8A0A03FA0AFA49EA0A09C0F80490A0
:1040C000491C102998D3BDE8F08F00002DE9F0417C
:1040D0000746884614461D46284600F033F8C5F1C9
:1040E000040007FA00F60F20284100EA0800064302
:1040F00006F00F06E21704EBD2625211920002F1B1
:10410000E022D2F800212146E31704EBD3635B11D0
:10411000A4EB431C012303FA0CF31A432046E317D4
:1041200004EBD3635B119B0003F1E023C3F8002190
:104130000348005D40EA061001490855BDE8F081DA
:1041400000E400E00146072323EA01021202054BC6
:1041500018684FF6FF031840034B18431043014BF8
:10416000186070470CED00E00000FA054A0A5202A0
:104170000243014B1A60704708ED00E010B5044699
:10418000002017490861C860142048610020886138
:10419000C8610846006840F00100086008464068B1
:1041A000104908400E494860084600680E4908401A
:1041B0000B4908600846006820F480200860084623
:1041C000406820F4FE0048604FF41F0088602046DD
:1041D000FFF79CFE00214FF00060FFF7C7FF10BD06
:1041E000001002400000FFF8FFFFF6FE7CB5064617
:1041F0000C4600BF2A48806940F0040028498861C5
:1042000000BF00BF0846806940F00400886100BF1D
:1042100000BF0846806940F48040886100BF0120EB
:10422000032100230222CDE9001041021D48FFF7BF
:10423000D7FE0120032100231A46CDE90010810298
:104240001848FFF7CDFE1848704300EB5400B0FB50
:10425000F4F51648056000201449091D0860084659
:10426000006808600846006840F0080008600846DA
:10427000006840F0040008600846006840F0200034
:1042800008600223252203210846FFF71FFF074885
:10429000001D006840F400500449091D08607CBD01
:1042A000001002400008014040420F000838014061
:1042B0004FEA1153A3F58063D3F11E03A8BFD3F1D6
:1042C000200C08DB4FF0004242EAC12252EA505271
:1042D00032FA03F0704709420BD4102BC4BF002000
:1042E000704703F5787CBCF1FF3F05D04FF0FF30FD
:1042F00070474FF00000704770B500F0C3F800BF82
:104300004992248000207047F0E7B0FA80F310FA59
:1043100003F10AD0C3F11D0303F580634FEA415056
:104320004FEA035202EBD12170474FF00000704773
:10433000DFF848C170B51CEA111E1EBF1CEA131538
:104340009EEA0C0F95EA0C0F00F06F8081EA0304DF
:1043500023EA4C134EEAD47E21EA4C1141F4801139
:1043600043F48013AE44A1FB024CA0FB0365AEF105
:104370007F7E361955EB0C05A1FB034C4CF1000375
:10438000A0FB021C16EB0C06654153F10003094229
:1043900018BF46F0010613F4007F0BD14FEA03313A
:1043A0004FEA0530340341EA155140EA16506FF0E8
:1043B00003020AE04FEAC3214FEAC520F40241EAB2
:1043C000555140EA56506FF0020202EB2E4201EBCB
:1043D000025585EACE710AD05FEA440C18BF24F07A
:1043E000004450F1000041F1000120EAD47040F295
:1043F000FE7C624500D270BDA84214BF4FF08044DD
:104400004FF04044002E08BF0024BEF1806FA8BFCB
:10441000A1F1C041BDE8704080F282804FF0000001
:1044200001F1C04101F0004170479EEA0C0F0CEA17
:10443000131518BF95EA0C0F06D04FF0000081EA63
:10444000030E0EF0004170BD00F01CF88900013E23
:1044500000F007B800F009B84FEA430C5FEA5C5C73
:1044600008D081EA030100F05BB84FEA410C5FEA33
:104470005C5CF6D14FF00000014970470000FF0777
:104480000000F87F0EF1020E2EF0030E5EF8046BB2
:10449000364205D4012A43EB030515F5001F12D857
:1044A000012841EB010C1CF5001F0CD80ED14FEA7E
:1044B000D17C15F5001F0CEB4C0C0CF1020C08BF65
:1044C0004CEBD37C04E04FF0080C01E04FEAD37CC6
:1044D0000CEB4C0526FA05F606F00706B6F1040CBF
:1044E00006D20EEB860CBDE870404CF0010C604724
:1044F000DFE80CF0090B02024FF000414FF0000022
:10450000A1F5002170BD19461046012851EB0104A8
:1045100018BFD4F5001484BF002001F0004170BD25
:104520000808A0F500114FEA3101704700000000B3
:104530000000000000000000000000003F400000FC
:10454000000000000000300040003000400000008B
:1045500009000BC03D000BC03D00090018C02440FD
:104560007FE0224031800000180024C01B000D8035
:104570003240018003801C4027401C8007400040DF
:1045800010006000000000000000000000000000BB
:1045900000001F80204040200000402020401F805D
:1045A00000000000090006001F800600090000004E
:1045B000040004003F8004000400000000100060BC
:1045C00000000000000000000400040004000400DB
:1045D0000400000000000040000000000000000097
:1045E000002001C006003800400000001F8020406D
:1045F000204020401F800000000010403FC00040CD
:104600000000000018C02140224024401840000053
:1046100010802040244024401B80000002000D0038
:1046200011003FC0014000003C8024402440244051
:10463000238000001F802440244034400380000079
:104640003000200027C03800200000001B802440DC
:10465000244024401B8000001C0022C02240224035
:104660001F80000000000000084000000000000063
:1046700000000000046000000000000000000400D2
:104680000A001100208040400900090009000900CB
:104690000900000000004040208011000A000400D2
:1046A0001800200023402400180000001F80204034
:1046B000274029401F400000004007C039000F007C
:1046C00001C0004020403FC0244024401B80000027
:1046D0001F802040204020403080000020403FC00C
:1046E000204020401F80000020403FC024402E403A
:1046F00030C0000020403FC024402E0030000000A9
:104700000F001080204022403380020020403FC034
:10471000040004003FC02040204020403FC0204013
:10472000204000000060202020203FC0200020000A
:1047300020403FC024400B0030C0204020403FC0FC
:1047400020400040004000C03FC03C0003C03C008F
:104750003FC0000020403FC00C4023003FC020006D
:104760001F802040204020401F80000020403FC08C
:1047700024402400180000001F802140214020E038
:104780001FA0000020403FC02440260019C0004068
:1047900018C02440244022403180000030002040D6
:1047A0003FC020403000000020003F80004000401B
:1047B0003F80200020003E0001C00700380020009C
:1047C000380007C03C0007C038000000204039C056
:1047D000060039C0204000002000384007C03840A3
:1047E00020000000304021C02640384020C000009A
:1047F000000000007FE0402040200000000070002A
:104800000C000380004000000000402040207FE0BA
:104810000000000000002000400020000000000018
:104820000010001000100010001000100000000028
:10483000400000000000000000000280054005402C
:1048400003C0004020003FC004400440038000003B
:104850000000038004400440064000000000038084
:10486000044024403FC00040000003800540054054
:1048700003400000000004401FC0244024402000EA
:10488000000002E0055005500650042020403FC0C3
:104890000440040003C000400000044027C0004062
:1048A0000000000000100010041027E000000000CD
:1048B00020403FC00140070004C004402040204089
:1048C0003FC000400040000007C0040007C00400D3
:1048D00003C00000044007C00440040003C00040BF
:1048E000000003800440044003800000041007F02F
:1048F0000450044003800000000003800440045082
:1049000007F00010044007C002400400040000004B
:10491000000006400540054004C0000000000400FF
:104920001F80044000400000040007800040044055
:1049300007C000400400070004C001800600040016
:10494000060001C0070001C006000000044006C0C8
:10495000010006C0044000000410071004E00180BC
:10496000060004000000044005C0064004400000AA
:104970000000000004007BE0402000000000000078
:104980000000FFF000000000000040207BE0040079
:104990000000000040008000400020002000400097
:1049A0000000000000000000000000000000000007
:1049B0000000000000001FCC000C00000000000000
:1049C00000000800300060000800300060000000B7
:1049D000022003FC1E20022003FC1E2002200000F7
:1049E00000000E1811043FFF10840C780000000036
:1049F0000F0010840F3800C007781884007800007A
:104A000000780F8410C411240E9800E4008400087C
:104A100008006800700000000000000000000000B6
:104A200000000000000007E0181820044002000009
:104A3000000040022004181807E0000000000000F9
:104A40000240024001800FF001800240024000005D
:104A50000080008000800FF800800080008000004F
:104A60000001000D000E000000000000000000002A
:104A700000000080008000800080008000800080B6
:104A80000000000C000C000000000000000000000E
:104A900000000006001800600180060018002000D9
:104AA000000007F0080810041004080807F00000D0
:104AB0000000080408041FFC0004000400000000BB
:104AC00000000E0C10141024104411840E0C000071
:104AD00000000C1810041104110412880C7000005E
:104AE000000000E00320042408241FFC0024000030
:104AF00000001F9810841104110410881070000029
:104B0000000007F0088811041104188800700000E4
:104B100000001C00100010FC13001C00100000001E
:104B200000000E3811441084108411440E38000027
:104B300000000700088C10441044088807F00000AB
:104B4000000000000000030C030C00000000000047
:104B5000000000000001010600000000000000004D
:104B6000000000800140022004100808100400002A
:104B70000220022002200220022002200220000047
:104B8000000010040808041002200140008000000A
:104B900000000E001200100C106C10800F000000BE
:104BA00003E00C1813E4142417C4082807D00000ED
:104BB0000004003C03C41C40074000E4001C000447
:104BC00010041FFC1104110411040E880070000071
:104BD00003E00C1810041004100410081C1000004E
:104BE00010041FFC100410041004080807F0000053
:104BF00010041FFC1104110417C41004081800004D
:104C000010041FFC1104110017C010000800000060
:104C100003E00C181004100410441C78004000003D
:104C200010041FFC10840080008010841FFC1004FE
:104C30000000100410041FFC100410040000000009
:104C400000030001100110011FFE10001000000001
:104C500010041FFC110403801464181C10040000CD
:104C600010041FFC1004000400040004000C0000E9
:104C700010041FFC1F0000FC1F001FFC100400009C
:104C800010041FFC0C04030000E010181FFC1000AF
:104C900007F00808100410041004080807F00000CA
:104CA00010041FFC10841080108010800F00000082
:104CB00007F0081810241024101C080A07F200003E
:104CC00010041FFC1104110011C011300E0C00045F
:104CD00000000E1C11041084108410441C380000C5
:104CE0001800100010041FFC100410001800000031
:104CF00010001FF810040004000410041FF8100036
:104D000010001E0011E0001C007013801C00100039
:104D10001FC0103C00E01F0000E0103C1FC000005E
:104D20001004180C163401C001C01634180C1004FD
:104D300010001C00130400FC13041C0010000000F1
:104D40000804101C1064108413041C0410180000C4
:104D50000000000000007FFE400240024002000010
:104D6000000030000C0003800060001C0003000005
:104D700000004002400240027FFE000000000000F0
:104D80000000000020004000400040002000000023
:104D9000000100010001000100010001000100010B
:104DA0000000400040002000000000000000000063
:104DB00000000098012401440144014400FC000467
:104DC00010001FFC0088010401040088007000002E
:104DD0000000007000880104010401040088000044
:104DE0000000007000880104010411081FFC000489
:104DF000000000F8014401440144014400C80000DF
:104E00000000010401040FFC11041104110018003A
:104E1000000000D601290129012901C9010600006D
:104E200010041FFC008401000100010400FC0004C8
:104E300000000104190419FC000400040000000033
:104E40000000000300010101190119FE000000002B
:104E500010041FFC0024004001B4010C01040000F8
:104E60000000100410041FFC0004000400000000F7
:104E7000010401FC0104010001FC0104010000FC2B
:104E8000010401FC008401000100010400FC000495
:104E9000000000F8010401040104010400F800000E
:104EA000010101FF00850104010400880070000079
:104EB00000000070008801040104010501FF0001E9
:104EC0000104010401FC00840104010001800000D0
:104ED000000000CC012401240124012401980000D9
:104EE00000000100010007F80104010400000000B7
:104EF000010001F8000400040004010801FC0004A2
:104F0000010001800170000C0010016001800100AF
:104F100001F0010C003001C00030010C01F0010073
:104F200000000104018C00740170018C0104000078
:104F3000010101810171000E001801600180010072
:104F400000000184010C013401440184010C0000C3
:104F5000000000000000000001003EFC4002400292
:104F60000000000000000000FFFF00000000000043
:104F70000000400240023EFC010000000000000072
:104F80000000600080008000400040002000200001
:104F90000000000000000000000000000000000011
:104FA0000000000000000000000000000000000001
:104FB00000000000000000000000000000000000F1
:104FC0000000000F80380FFE380F8038000000000E
:104FD00000000000000000000000000000000100D0
:104FE000000600000C000038000031000006000040
:104FF0000C0000380000300000000000000000003D
:1050000061800067F807F9800061800061800061BD
:10501000800061800067F807F9800061800000006F
:1050200000000000000001C0E003E0F006300804CA
:1050300018081FFFFE040E080787F00381E0000038
:105040000000000001F000060C00040408060C70CB
:1050500001F9C0000E00003BE000EC18070808044E
:105060000C180003E00000000001E00007F003F866
:1050700018041C0804170807E1D003C0E00023B09F
:10508000003C0800200800001000000000000001A3
:1050900000003100003200001C0000000000000091
:1050A0000000000000000000000000000000000000
:1050B00000000000000000000000000000000000F0
:1050C0007F0001FFC00780F00C00181000042000D2
:1050D000020000000000002000021000040C001874
:1050E0000780F001FFC0007F00000000000000000A
:1050F0000000000000000000000000004200006608
:1051000000006600003C0000180003FFC00018000B
:10511000003C000066000066000042000000000045
:10512000080000080000080000080000080001FF57
:10513000C000080000080000080000080000080087
:1051400000000000000100003100003200001C00DF
:10515000000000000000000000000000000000004F
:105160000000000000000000080000080000080027
:105170000008000008000008000008000008000007
:10518000080000080000000000000000000000000F
:105190003800003800003800000000000000000067
:1051A00000000000000000000000000000000000FF
:1051B000000600001C000070000180000E00003896
:1051C0000000C0000700001C0000300000000000CC
:1051D000000000007F8001FFE003807006001804DB
:1051E000000804000806001803807001FFE0007F3B
:1051F000800000000000000000000100080100081D
:1052000001000803FFF807FFF8000008000008008D
:10521000000800000000000000000001C03802C0CB
:1052200058040098040118040218040418061C18F5
:1052300003F81801E0F80000000000000000000181
:10524000C0E003C0F00400080408080408080618B9
:105250000803F41801E7F00001E00000000000007E
:10526000000000000300000D0000110000610000BC
:10527000810803010807FFF80FFFF800010800018B
:10528000080000000000000000E007FCD00608084D
:10529000061008061008061008061838060FF00653
:1052A00007C0000000000000000000003F8001FF78
:1052B000E0038430020818041008041008041008E1
:1052C000071810030FF00007C000000000000000E6
:1052D000000003C0000700000600000600F80607F3
:1052E000F806180006E000070000060000000000B5
:1052F00000000001E1E003F7F00634100418080490
:105300001808040C08040C0806161803F3F001C171
:10531000E000000000000000F80003FC3003063845
:105320000402080402080402080404100308F0013F
:10533000FFC0007F0000000000000000000000002F
:105340000000000000000000703800703800703865
:10535000000000000000000000000000000000004D
:10536000000000000000000000000000301A0030C3
:105370001C00000000000000000000000000000011
:1053800000000000000000080000140000220000DF
:10539000410000808001004002002004001008004D
:1053A0000800000000000000210000210000210092
:1053B0000021000021000021000021000021000048
:1053C0002100002100000000000000000000080093
:1053D000080400100200200100400080800041000D
:1053E000002200001400000800000000000000037C
:1053F000C00004C000040000080038080F38080886
:10540000380810000C300007E00003C00000000066
:10541000000000003F8000FFE0038070020F1006D4
:10542000708804C088048308047F8802C090030148
:105430002000FE400000080000180001F8003E08AF
:1054400001C20007020007E20000FE00001FC800C2
:1054500001F800003800000804000807FFF807FF03
:10546000F8040808040808040808040808061808CE
:1054700003F41801E7F00001E00000000000000064
:105480003F8001FFE0038070020018040008040060
:10549000080400080400100600200780C000000077
:1054A00004000807FFF807FFF804000804000804D8
:1054B000000804001802001003807001FFE0007F64
:1054C0008000000004000807FFF807FFF804080840
:1054D000040808040808040808043E080400080634
:1054E000001801006000000004000807FFF807FF33
:1054F000F8040808040800040800040800043E003A
:10550000060000060000018000000000000000000E
:105510003F8001FFE00380700600180400080402C9
:10552000080402080203F00783F0000200000200F2
:1055300004000807FFF807FFF80408080008000047
:10554000080000080000080004080807FFF807FF2B
:10555000F80400080000000000000400080400082F
:1055600004000807FFF807FFF80400080400080417
:10557000000800000000000000000000000600001D
:105580000700000104000104000104000307FFFEFE
:1055900007FFFC04000004000004000004000807EA
:1055A000FFF807FFF8040C08001800003E0004C7CD
:1055B000800503C80600F80400380400180000083D
:1055C00004000807FFF807FFF804000800000800BF
:1055D0000008000008000008000008000018000093
:1055E0006000000004000807FFF807800807FC00BF
:1055F000007FC00003F80007C0007800078008079C
:10560000FFF807FFF804000804000807FFF8070088
:105610000803C00000E000003800001E0000070082
:105620000001C00400F007FFF804000000000000C3
:105630007F8001FFE003807006001804000804006A
:105640000806001803003001FFE0007F8000000022
:1056500004000807FFF807FFF80404080404000426
:105660000400040400040400060C0003F80001F028
:1056700000000000000000007F8001FFE003807058
:105680000600880400880400C806003C03003E01B0
:10569000FFE6007F8400000004000807FFF807FF12
:1056A000F8040808040800040C00040F00040BC0F0
:1056B0000610F003F03801E00800000800000001C7
:1056C000E0F803F030063010041808041808040C41
:1056D00008040C080206180207F00781E000000029
:1056E0000180000600000400000400000400080718
:1056F000FFF807FFF804000804000004000006009B
:105700000001800004000007FFE007FFF00400181C
:10571000000008000008000008000008000008045D
:10572000001007FFE004000004000006000007E08E
:105730000007FE00041FE00001F80000380001E04F
:10574000043E0007C000060000040000040000073B
:10575000E00007FFC0041FF80007C007F80007FFBC
:1057600080043FF80007C004F800070000040000B0
:1057700000000004000806001807C07805F1C80002
:105780003E00001F800463E80780F806001804004C
:105790000800000004000006000007800007E00881
:1057A000047C08001FF80007F800180804E0080748
:1057B00000000600000400000000000100080600D0
:1057C000380400F80403E8040F08047C0805F00816
:1057D00007C0080700180400600000000000000077
:1057E00000000000000000000000003FFFFE20005D
:1057F000022000022000022000022000020000001F
:1058000000000000000008000007000000C00000C9
:1058100038000006000001C000003000000E00004B
:105820000100000000000000000020000220000233
:105830002000022000022000023FFFFE00000000C6
:105840000000000000000000000000000000000058
:1058500000080000100000300000200000300000B0
:10586000100000080000000000000000000001001F
:105870000001000001000001000001000001000023
:105880000100000100000100000100000100000112
:1058900000000000000000000020000020000010B8
:1058A00000001000000000000000000000000000E8
:1058B000000000000000000000F00019F8001B18B4
:1058C000002208002608002408002410003FF800E9
:1058D0001FF800000800001800000004000007FF87
:1058E000F80FFFF00018180010080020080020082A
:1058F000003018001FF0000FC00000000000000082
:1059000007C0001FF0001830002008002008002009
:1059100008003C08001C10000060000000000000AF
:105920000000000007C0001FF00038180020080029
:10593000200800200804101007FFF80FFFF00000F7
:10594000100000000000000000000007C0001FF071
:10595000001230002218002208002208003208003D
:105960001E10000E2000000000000000200000209B
:105970000800200801FFF803FFF8062008042008AB
:1059800004200807200003000000000000000000C1
:10599000000E000E6E001FF30031B10020B1002098
:1059A000B1003191001F13002E1E00200E003000A8
:1059B00000000004000807FFF80FFFF800100800BF
:1059C0002000002000002008003FF8001FF8000021
:1059D000080000000000000000000020080020086F
:1059E000002008063FF8063FF80000080000080005
:1059F000000800000000000000000000000000009F
:105A000003000003002001002001002003063FFEE8
:105A1000063FFC0000000000000000000000000441
:105A2000000807FFF80FFFF8000188000300002FAF
:105A3000C00038F8002038002008000008000000EE
:105A4000000000000000040008040008040008072B
:105A5000FFF80FFFF8000008000008000008000031
:105A600000000000002008003FF8003FF800100888
:105A7000002000003FF8003FF80010080020000060
:105A80003FF8003FF8000008000000002008003F39
:105A9000F8003FF800100800100000200000200867
:105AA000003FF8001FF800000800000000000000A0
:105AB00007C0000FF0001830003008002008002058
:105AC00008003008001830000FF00007C000000088
:105AD000000000002001003FFF003FFF0010110008
