:020000040800F2
:1000000070C90020F9010008FD010008FF01000887
:1000100001020008030200080502000800000000B9
:1000200000000000000000000000000007020008BF
:1000300009020008000000000B0200080D02000881
:100040000F0200080F0200080F0200080F0200084C
:100050000F0200080F0200080F0200080F0200083C
:100060000F0200080F0200080F0200080F0200082C
:100070000F0200080F0200080F0200080F0200081C
:100080000F0200080F0200080F0200080F0200080C
:100090000F0200080F0200080F0200080F020008FC
:1000A0000F0200080F0200080F0200080F020008EC
:1000B0000F0200080F0200080F0200080F020008DC
:1000C0000F0200080F0200080F0200080F020008CC
:1000D0000F020008C53100080F0200080F020008D7
:1000E0000F0200080F0200080F0200080F020008AC
:1000F0000F0200080F0200080F0200080F0200089C
:100100000F0200080F0200080F0200080F0200088B
:100110000F0200080F0200080F0200080F0200087B
:100120000F0200080F0200080F0200080F0200086B
:1001300000F002F800F050F80AA090E8000C8244A9
:100140008344AAF10107DA4501D100F045F8AFF286
:10015000090EBAE80F0013F0010F18BFFB1A43F0A5
:1001600001031847E47F010004800100103A24BF16
:1001700078C878C1FAD8520724BF30C830C144BF0C
:1001800004680C607047000000230024002500264E
:10019000103A28BF78C1FBD8520728BF30C148BFEA
:1001A0000B60704766290CF0F483642901F06C86BB
:1001B000782901F0A586732902F003830020704797
:1001C0001FB502F047FB0400002000210BF040FDAA
:1001D000E0601FBD10B510BD02F0FEFB1146FFF739
:1001E000EFFF07F0F5FE02F01CFC03B4FFF7F2FF8F
:1001F00003BC03F06CF8000008480047FEE7FEE788
:10020000FEE7FEE7FEE7FEE7FEE7FEE7FEE7FEE7C6
:1002100003480449044A054B7047000031010008B7
:1002200070C3002070C9002070C5002070C5002078
:1002300010B5FF48006803F04CF8FE48006803F072
:1002400048F8FD48006803F044F8FC48006803F0F3
:1002500040F8FB48006803F03CF8FA48006803F0F7
:1002600038F8F948006803F034F810BD10B50024E0
:100270004FF4007003F034F8ED4908600846006858
:1002800000B901244FF4007003F02AF8E94908602E
:100290000846006800B901244FF4007003F020F80C
:1002A000E54908600846006800B90124A02003F071
:1002B00017F8E24908600846006800B901244020A8
:1002C00003F00EF8DE4908600846006800B9012412
:1002D000402003F005F8DB4908600846006800B9D3
:1002E00001244FF4F87002F0FBFFD749086008467C
:1002F000006800B901240CB1FFF79AFF204610BD39
:100300002DE9F04704460D461646701B00EBD071F0
:1003100005EB610954F8397004EBC90148680CF029
:100320003BF9804654F8350044F8390004EBC50029
:10033000406804EBC9014860A94605F1010A1DE0C7
:1003400054F83A0039460CF0A5F915D854F83A009B
:1003500044F8390004EBCA00406804EBC901486066
:1003600009F1010954F8390044F83A0004EBC900D6
:10037000406804EBCA0148600AF1010AB245DFDDBA
:10038000A9EB0500012805DDA9F101022946204657
:10039000FFF7B6FFA6EB0900012805DD324609F19B
:1003A00001012046FFF7ACFF44F8397040460CF0DD
:1003B00059F904EBC9014860BDE8F0872DE9F84F11
:1003C00004460D4616461F464FF0000828E04FF041
:1003D000000920E04FF0000BDA4612E00B9A0AFB0E
:1003E000029255F822100A9A08FB02A254F8220041
:1003F0000CF084F9594600900BF098FF83460AF1FF
:10040000010A0A988245E9DB0B9808FB009046F840
:1004100020B009F101090B988145DBDB08F10108E7
:10042000B845D4DBBDE8F88F024612B909B90020FF
:100430007047002A02DD09B90020F9E7002903DD31
:100440008A4201DD0120F3E7002A03DD914201D158
:100450000220EDE7002A03DD8A4201DA0320E7E704
:100460001AB9002901DD0420E2E7002A08DA101E8B
:1004700001DB034600E043428B4201DA0520D7E767
:10048000002A08DA101E01DB034600E043428B42DB
:1004900001D10620CCE7002A0ADA101E01DB034650
:1004A00000E043428B4203DD002901DD0720BFE766
:1004B00019B9002A01DA0820BAE7002903DA9142C3
:1004C00001DD0920B4E7002A03DA914201D10A20B4
:1004D000AEE7002A03DA914201DA0B20A8E71AB945
:1004E000002901DA0C20A3E700290ADA081E01DB43
:1004F000034600E04342934203DD002A01DD0D2064
:1005000096E7002908DA081E01DB034600E04342B3
:10051000934201D10E208BE7002908DA081E01DB87
:10052000034600E04342934201DA0F2080E70020B7
:100530007EE730B5034601B10AB9002030BD41293C
:1005400001D0412A01D10020F8E7491E521E03EBD9
:10055000C20000EBE100047801F007050120A8408B
:10056000044201D00120E9E70020E7E72DE9FE4F32
:1005700004460D4616461F4600200190781C820056
:100580000021324802F0B3FE781C8200002130487E
:1005900002F0ADFE4FF0000819E04FF0000912E044
:1005A00004EBC80000EBE900017809F00702012024
:1005B0009040014205D04FF07E5101980BF0B6FEFD
:1005C000019009F10109B145EADB08F10108A845EC
:1005D000E3DB38460CF046F88246014601980BF002
:1005E00019FF01900120029049E04FF0000AD04627
:1005F0003AE04FF0000912E004EBC90000EBE8001C
:10060000017808F0070201209040014205D04FF028
:100610007E5150460BF08AFE824609F10109A94538
:10062000EADB02980CF01EF80090019912E000003D
:10063000A0000020A4000020A8000020AC000020A2
:10064000B0000020B4000020B8000020E4C2002068
:10065000F8C200200CF052F8834651460CF01AF80C
:1006600000D804E008F10108701E4045C1DC00BF5D
:10067000FD48029940F821800298401C0290781CA5
:1006800002998142B1DB0120029035E04FF0000A6F
:10069000D14626E04FF0000812E004EBC90000EB61
:1006A000E800017808F0070201209040014205D0DF
:1006B0004FF07E5150460BF039FE824608F101089A
:1006C000B045EADB02980BF0CDFF009001990CF0E9
:1006D00015F8834651460BF0DDFF00D804E009F120
:1006E0000109681E4845D5DC00BFE049029841F881
:1006F00020900298401C0290781C02998142C5DB30
:100700000020029032E0029991FBF7F1D74A52F8AB
:100710002120029991FBF7F1491CD44B53F8211089
:10072000501800EBD0714910D14A1268029B42F870
:100730002310029991FBF7F207FB1211CA4A52F8F3
:100740002120029991FBF7F307FB1311491CC64BBB
:1007500053F82110501800EBD0714910C54A1268A7
:10076000029B42F823100298401C029007FB07F0FE
:1007700002998842C7DCBDE8FE8F2DE9F34F8FB0A8
:10078000402440200A901025AA000021B9480068A2
:1007900002F0ADFDAA000021B548006802F0A7FDF7
:1007A000042321460A9A0F98FFF7E0FEE200002199
:1007B000B148006802F09BFD00200B9060E3AC485C
:1007C00001680B9851F820000290AA4801680B9824
:1007D00051F82000019002980830402801DD4020A7
:1007E00001E002980830089001980830402801DDA7
:1007F000402001E00198083006900298083801D5A1
:10080000002001E00298083809900198083801D5C5
:10081000002001E001980838079009980E9027E31E
:1008200007980D901CE3DDE90D120F98FFF781FE8C
:100830008146DDE90D12491C0F98FFF77AFE02216F
:1008400001FB0099DDE90D12891C0F98FFF771FE7D
:1008500081440E9A921C0D990F98FFF76AFEA9EB3E
:1008600000090E9A921C0D99491C0F98FFF761FE22
:10087000022101FB10990E9A921C0D99891C0F9868
:10088000FFF757FEA9EB000007B2DDE90D12891C46
:100890000F98FFF74EFE81460E9A521C0D99891C47
:1008A0000F98FFF746FE022101FB00990E9A921C59
:1008B0000D99891C0F98FFF73CFE8144DDE90D126C
:1008C0000F98FFF736FEA9EB00090E9A521C0D99FE
:1008D0000F98FFF72EFE022101FB10990E9A921C31
:1008E0000D990F98FFF725FEA9EB00000FFA80F88D
:1008F000002F02DBB8F1000F00DA00BF4146384696
:10090000FFF792FD0390039841100B9801FB050639
:100910000398401C40100B9900FB051005900299AC
:100920000E98401A083000EB0010019A0D99891AB0
:1009300008440830514951F82000049003981028C9
:100940001CD2DFE800F0081C4A629FB3F2F0EFEE21
:10095000EDECEBEAE9E838460BF084FE82460499B8
:100960000BF0CCFE81464448006850F826104846FB
:100970000BF0DCFC4049096841F826006CE2A7EB6B
:1009800008000BF06FFE824604990BF0B7FE81461B
:100990003948006850F8261048460BF0C7FC364925
:1009A000096841F8260040460BF05CFE8346344956
:1009B0000BF0A4FE824604990BF0A0FE81462E485F
:1009C0000268059852F8201048460BF0AFFC2A49FF
:1009D0000968059A41F822003EE240460BF042FECB
:1009E000834627490BF08AFE824604990BF086FE67
:1009F00081462148006850F8261048460BF096FCC6
:100A00001D49096841F8260026E238460BF02AFE07
:100A100083461B490BF072FE824604990BF06EFE72
:100A200081461548006850F8261048460BF07EFCB9
:100A30001149096841F82600A8EB07000BF012FEE7
:100A4000824604990BF05AFE81460B4802680598CD
:100A500052F8201048460BF069FC07490A680599CE
:100A600042F82100F8E10000E4C20020F8C20020B2
:100A7000B4000020B0000020A4000020FCFD00080D
:100A8000F704B53F40460BF0EDFD824604990BF0AC
:100A900035FE8146FE48006850F8261048460BF0A7
:100AA00045FCFB49096841F82600D5E107EB080041
:100AB0000BF0D8FD824604990BF020FE8146F448E5
:100AC000006850F8261048460BF030FCF0490968E1
:100AD00041F82600B7F1000901DB494601E0C9F100
:100AE000000108460BF0BEFDEA4900900BF006FE3F
:100AF000834604990BF002FE8246E5480068059A99
:100B000050F8221050460BF011FCE1490968059A93
:100B100041F82200A0E166E14DE111E1F5E0BFE01E
:100B20009FE069E04DE018E0FFE740460BF09AFDDA
:100B30008346D8490BF0E2FD824604990BF0DEFDB6
:100B40008146D348006850F8261048460BF0EEFB6B
:100B5000CF49096841F826007EE140460BF082FD4E
:100B60008346CC490BF0CAFD824604990BF0C6FDC2
:100B70008146C748006850F8261048460BF0D6FB5F
:100B8000C349096841F8260017EB080901D4494612
:100B900001E0C9F1000108460BF064FD83460499A9
:100BA0000BF0ACFD8246BA480068059A50F8221056
:100BB00050460BF0BBFBB6490968059A41F8220084
:100BC0004AE1B7F1000901DB494601E0C9F1000142
:100BD00008460BF047FD834604990BF08FFD8246D3
:100BE000AB48006850F8261050460BF09FFBA84910
:100BF000096841F826002FE1A8EB07000BF032FD51
:100C0000824604990BF07AFD8146A148006850F8AD
:100C1000261048460BF08AFB9D49096841F82600DA
:100C2000B8F1000901DB494601E0C9F100010846BD
:100C30000BF018FD974900900BF060FD8346049976
:100C40000BF05CFD824692480068059A50F822102D
:100C500050460BF06BFB8E490A68059942F821005B
:100C6000FAE0B8F1000901DB494601E0C9F10001F1
:100C700008460BF0F7FC874900900BF03FFD8346D8
:100C800004990BF03BFD82468148006850F826101D
:100C900050460BF04BFB7E49096841F82600DBE02B
:100CA000B7F1000901DB494601E0C9F1000108463E
:100CB0000BF0D8FC774900900BF020FD8346049997
:100CC0000BF01CFD82467248006850F82610504612
:100CD0000BF02CFB6E49096841F82600A7EB0800D1
:100CE0000BF0C0FC824604990BF008FD8146684871
:100CF0000268059852F8201048460BF017FB64492B
:100D00000A68059942F82100A6E0B8F1000901DB64
:100D1000494601E0C9F1000108460BF0A3FC8346F7
:100D200004990BF0EBFC82465948006850F82610F5
:100D300050460BF0FBFA5649096841F826008BE053
:100D400017EB080901D4494601E0C9F10001084642
:100D50000BF088FC834604990BF0D0FC82464C488B
:100D6000006850F8261050460BF0E0FA4849096830
:100D700041F82600B7F1000901DB494601E0C9F15D
:100D8000000108460BF06EFC424900900BF0B6FCE7
:100D9000834604990BF0B2FC82463D480068059AF0
:100DA00050F8221050460BF0C1FA39490A680599EB
:100DB00042F8210050E038460BF054FC8346354998
:100DC0000BF09CFC824604990BF098FC814630485D
:100DD000006850F8261048460BF0A8FA2C4909681C
:100DE00041F8260038E0B8F1000901DB494601E08E
:100DF000C9F1000108460BF035FC264900900BF0C4
:100E00007DFC834604990BF079FC824620480068FB
:100E100050F8261050460BF089FA1D49096841F830
:100E2000260017EB080901D4494601E0C9F1000189
:100E300008460BF017FC834604990BF05FFC8246D2
:100E40001348006850F8261050460BF06FFA10490E
:100E5000096841F8260000BF00BF0D98401C0D90A6
:100E600006990D9888427FF7DEAC0E98401C0E90D4
:100E700008990E9888427FF7D3AC0B98401C0B90D2
:100E80000B98A8427FF49BAC00200B901FE0000061
:100E9000A4000020F704B53F00200C9011E0DDE92C
:100EA0000B0101FB0506FF49096851F82600FE49C0
:100EB00008F062F8FD49096841F826000C98401CCA
:100EC0000C900C980828EADB0B98401C0B900B98B0
:100ED0001028E1DB11B0BDE8F08F2DE9FF4F8BB09A
:100EE00004460D461E46199F0020079090E2079881
:100EF00005EB80000088ADF82800079805EB80001E
:100F00004088ADF82A000798401C05EB8000008857
:100F1000ADF824000798401C05EB80004088ADF830
:100F20002600BDF92800BDF92410884272D1BDF910
:100F30002A00089067E0002E41D04FF0FF383AE0D9
:100F40004FF0FF30069031E0089810EB08002AD4EB
:100F5000089800EB08011898814224DABDF92800AE
:100F6000069940181FD4BDF9281006980844B842C5
:100F700019DABDF9281006980844059008984044ED
:100F800004EBC000059900EBE100007801F00702D6
:100F90000121914008430899414404EBC101059A9D
:100FA00001EBE20108700698401C069006980228A2
:100FB000CAD108F10108B8F1020FC1D116E0BDF99C
:100FC00028000590089804EBC001059801EBE000AB
:100FD0000078059901F00702012191400843089922
:100FE00004EBC102059902EBE1010870BDF926008E
:100FF000BDF92A10884203DD0898401C089002E0E1
:101000000898401E0890BDF926100898814292D198
:10101000FBE1FFE7BDF92A00BDF92610884275D132
:10102000BDF9280008906AE0002E42D04FF0FF384A
:101030003BE04FF0FF30069032E0069908984018E8
:101040002BD40699089808441899884225DABDF9E6
:101050002A0010EB080020D4BDF92A004044B84211
:101060001BDA0699089808440590BDF92A00404407
:1010700004EBC001059801EBE0000078059901F050
:101080000702012191400843BDF92A10414404EBB5
:10109000C102059902EBE10108700698401C069018
:1010A00006980228C9D108F10108B8F1020FC0D191
:1010B00018E008980590BDF92A0004EBC0010598D6
:1010C00001EBE0000178059800F007020120904054
:1010D0000143C8B2BDF92A1004EBC101059A01EB26
:1010E000E2010870BDF92400BDF92810884203DD33
:1010F0000898401C089002E00898401E0890BDF92E
:101100002410089881428FD17FE1FFE7BDF92410B8
:10111000BDF92820881A0BF0A5FA8246BDF92610E1
:10112000BDF92A20881A0BF09DFA834651460BF030
:1011300071F981460BF0CEF8CDE9020121F00041B2
:10114000CDE900015AA00CC800980AF053FF13D251
:10115000BDF92410BDF92820881A0BF083FA8146C6
:10116000BDF92610BDF92A20881A0BF07BFA8246B9
:1011700049460BF04FF912E0BDF92610BDF92A20BF
:10118000881A0BF06FFA8146BDF92410BDF92820AA
:10119000881A0BF067FA824649460BF03BF9049037
:1011A000BDF92420BDF92830D01ABDF92620BDF99B
:1011B0002A30D11A01D40B4600E04B42002801DB53
:1011C000024600E0424293426BDA002008907EE043
:1011D00008980BF047FA039004990BF08FFA8346B6
:1011E0000BF0DAF9BDF92A1000EB0109BDF928006E
:1011F000089900EB010A002E3CD04FF0FF3835E093
:101200004FF0FF3006902CE019EB080026D409EBD4
:1012100008001899884221DA06981AEB00001DD4BC
:1012200006985044B84219DA0AF10100059009EB1A
:10123000080004EBC000059900EBE1000178059877
:1012400000F00702012090400143C8B209EB0801F9
:1012500004EBC101059A01EBE20108700698401CFD
:10126000069006980228CFD108F10108B8F1020FC4
:10127000C6D113E0CDF814A004EBC900DDF814A02A
:1012800000EBEA0001780AF00702012090400143D8
:10129000C8B204EBC90101EBEA010870BDF92400F2
:1012A0000AE01EE0A400002085EBD13EA80000204B
:1012B000000000000000F03FBDF92810884203DD67
:1012C0000898401C089002E00898401E0890BDF95C
:1012D0002400BDF92810401A089988427FF478AF9D
:1012E00092E0BDF92420BDF92830D01ABDF926209E
:1012F000BDF92A30D11A01D40B4600E04B42002838
:1013000001DB024600E0424293427DDB0020089070
:1013100072E0BDF92A10089801EB000908980BF05B
:10132000A1F9039004990BF0E9F983460BF034F925
:10133000BDF9281000EB010A002E3CD04FF0FF3819
:1013400035E04FF0FF3006902CE019EB080026D472
:1013500009EB08011898814221DA06981AEB00007F
:101360001DD406985044B84219DA069850440590A6
:1013700009EB080004EBC000059900EBE1000178DF
:10138000059800F00702012090400143C8B209EB24
:10139000080104EBC101059A01EBE201087006980F
:1013A000401C069006980228CFD108F10108B8F138
:1013B000020FC6D113E0CDF814A004EBC900DDF88C
:1013C00014A000EBEA0001780AF007020120904027
:1013D0000143C8B204EBC90101EBEA010870BDF991
:1013E0002600BDF92A10884203DD0898401C0890A9
:1013F00002E00898401E0890BDF92600BDF92A10A9
:10140000411A0898814284D100BF0798401C079078
:101410000D98411E079881427FF469AD0FB0BDE879
:10142000F08F2DE9F04F099C15464FF0FF360F461F
:10143000B4464FF0000935E000EB890ABAF902A082
:10144000BA4504DA00EB890ABAF902A000E0BA460C
:10145000574600EB890ABAF900A0AA4504DA00EB66
:10146000890ABAF900A000E0AA46554600EB890AAD
:10147000BAF902A0E24504DD00EB890ABAF902A03C
:1014800000E0E246D44600EB890ABAF900A0B24572
:1014900004DD00EB890ABAF900A000E0B246564626
:1014A00009F10109DDF828A0D145C5DBACEB070A3D
:1014B0000AF1010A93FBFAFA0AF1010EA6EB050AFA
:1014C0000AF1010A94FBFAFA0AF101084FF0000947
:1014D0002BE000EB890ABAF902A0AAEB070A0AFB83
:1014E00003FAACEB070B0BF1010B9AFBFBFAF2448E
:1014F0000FFA8AFA00EB890BABF802A000EB890A1D
:10150000BAF900A0AAEB050A0AFB04FAA6EB050B40
:101510000BF1010B9AFBFBFAC2440FFA8AFA00EBBB
:10152000890BABF800A009F10109DDF828A0D1452D
:10153000CFDBBDE8F08F2DE9FF4784B014461D4690
:10154000BDF91000BDF91410884223D1002619E01E
:10155000BDF81000296804EB81010880BDF8120075
:10156000304400B2296804EB810148802868401C9F
:101570002860BDF91600BDF91210884201DD761C05
:1015800000E0761EBDF91600BDF91210401AB042F7
:10159000DED1E9E0BDF91200BDF91610884223D171
:1015A000002619E0BDF81200296804EB810148808B
:1015B000BDF81000304400B2296804EB81010880B6
:1015C0002868401C2860BDF91400BDF9101088423D
:1015D00001DD761C00E0761EBDF91400BDF9101087
:1015E000401AB042DED1BFE0BDF91410BDF91020A1
:1015F000881A0BF037F88146BDF91610BDF9122094
:10160000881A0BF02FF8824649460AF003FF8046FD
:101610000AF060FECDE9020121F00041CDE90001B0
:10162000AFF274300CC800980AF0E4FC13D2BDF994
:101630001410BDF91020881A0BF014F88046BDF97B
:101640001610BDF91220881A0BF00CF8814641469D
:101650000AF0E0FE12E0BDF91610BDF91220881A5A
:101660000BF000F88046BDF91410BDF91020881A5F
:101670000AF0F8FF814641460AF0CCFE0746BDF964
:101680001420BDF91030D01ABDF91620BDF9123062
:10169000D11A01D40B4600E04B42002801DB024680
:1016A00000E0424293422FDC002625E0BDF8100006
:1016B000304400B2296804EB8101088030460AF00A
:1016C000D1FF814639460BF019F880460AF064FFD5
:1016D000BDF81210084400B2296804EB810148806B
:1016E0002868401C2860BDF91400BDF9101088421C
:1016F00001DD761C00E0761EBDF91400BDF9101066
:10170000401AB042D2D12EE0002625E0BDF81200EA
:10171000304400B2296804EB8101488030460AF069
:10172000A1FF814639460AF0E9FF80460AF034FFFE
:10173000BDF81010084400B2296804EB810108804C
:101740002868401C2860BDF91600BDF912108842B7
:1017500001DD761C00E0761EBDF91600BDF9121001
:10176000401AB042D2D100BF08B0BDE8F0872DE9E1
:10177000F84F04460D461646701E00EBD0714FEA36
:101780006109A5EB09000090CA46A80001F0A8FD78
:101790008346AA002146584600F0A2FCB54205DB6C
:1017A00006EBD6714910B6EB410101D1BDE8F88FC7
:1017B0004F463CE0002004EB8701088004EB8701E2
:1017C0004880CAF100081BE004EB8700008807EBA3
:1017D00008010BEB81010988084400B204EB870182
:1017E000088004EB8700408807EB08010BEB8101C0
:1017F0004988084400B204EB8701488008F10108D9
:10180000D045E1DD04EB8700B0F9000090FBF6F075
:1018100000B204EB8701088004EB8700B0F90200F6
:1018200090FBF6F000B204EB870148807F1C009823
:101830008742BFDB584601F04CFDB7E72DE9FF4F6B
:1018400091B004460D461E9E0327802010900F90F5
:1018500040200E900D9000200B900A908146802031
:1018600009900520049029462046049AFFF77FFF3F
:101870004FF0010A29E004EB8A01B1F90010AAF146
:10188000010204EB8202B2F90020881A01D4014659
:1018900000E04142089104EB8A01B1F90210AAF17B
:1018A000010204EB8202B2F90220881A01D4014637
:1018B00000E041420791DDE90710884201DB08980A
:1018C00000E0079881440AF1010AAA45D3DB4FEAF8
:1018D000890001F005FD80464FEA8902002140465B
:1018E00001F005FD4FF0000A15E00AF1010004EBDC
:1018F0008001042203A800F0F3FB04EB8A01042218
:1019000002A800F0EDFB0AAB4246DDE90201FFF759
:1019100012FE0AF1010A681E5045E6D14FEA89001D
:10192000B0FBF7F0039001F0DBFC0C904FEA89006C
:10193000B0FBF7F00246002103900C9801F0D7FCB1
:101940004FF0000A13E008EB8A000088DDE90B2164
:1019500001EB8201088008EB8A004088DDE90B2159
:1019600001EB820148800B98401C0B90BA44CA4599
:10197000E9DB404601F0ADFC0B9B0E9ACDE900235C
:10198000DDE90C03DDE90F12FFF74BFD4FF40072A8
:101990000021FD48006801F0AAFCDDE90D23CDE936
:1019A00000230123F848DDE90B210068FFF795FAD1
:1019B0000C9801F08EFCF44809990068FEF7DDFEF2
:1019C0002823099ACDE900230123F048F049026851
:1019D000F0480068FEF7F2FC1498012806D00228AF
:1019E00009D003280CD0042814D10EE00020069062
:1019F0000A20059012E00A200690242005900DE0B0
:101A0000242006903E20059008E0002006903E200D
:101A1000059003E0002015B0BDE8F08F00BF4FF443
:101A2000F8720021DC48006801F061FC4FF0000A08
:101A300040E04FF0000B30E0069A524402EB820285
:101A4000D64B03EB421252F82B10D04A126852F8D0
:101A50002B000AF029FF0290069A524402EB820200
:101A6000CE4B03EB421252F82B10C84A126852F8C0
:101A70002B000AF019FF019002990AF03FFE039033
:101A8000C548006850F83A1003980AF04FFCC24964
:101A9000096841F83A000BF1010BBBF1280FCBD1DB
:101AA00050460AF0DFFDBC49096801EBCA014860F5
:101AB0000AF1010ADDE90501401A5045B9D1DDE915
:101AC0000501401A421E0021B3480068FEF718FCC9
:101AD0004FF0000A0EE0B049096801EBCA014868FE
:101AE0000AF05AFD06990844AD49085C06F80A0058
:101AF0000AF1010A13988245EDDB002006F80A007E
:101B0000307888E72DE9F84F04460D4616461F4603
:101B1000DDF828804FF000094FF6FF7AD346012DFB
:101B200002DCC846BDE8F88F4FF000091CE004EB6A
:101B30008900B0F9001009F1010004EB8000B0F950
:101B4000000081420BD104EB8900B0F9021009F1C9
:101B5000010004EB8000B0F90200814200D006E0F1
:101B600009F101001FFA80F9681E4845DFDC00BF5B
:101B7000681E484500D1D5E74FF0000919E004EB95
:101B80008900B0F90000504504DA04EB89000088B0
:101B90001FFA80FA04EB8900B0F90200584504DA14
:101BA00004EB890040881FFA80FB09F101001FFA4D
:101BB00080F9A945E3DB4FF0000915E004EB89004B
:101BC0000088A0EB0A0000B204EB8901088004EB56
:101BD00089004088A0EB0B0000B204EB890148802B
:101BE00009F101001FFA80F9A945E7DB3B463246BF
:101BF00029462046CDF80080FFF720FE92E72DE928
:101C0000F84F4FF00009C3F800900124EBE0A4F175
:101C1000010900EB8909B9F9005000EB8409B9F911
:101C200000A0CDF800A0A4F1010900EB8909B9F9E1
:101C3000026000EB8409B9F90270DDF800A0BAEB8C
:101C4000050901D4CA4601E0C9F1000AD446B7EB40
:101C5000060901D4CA4601E0C9F1000AD646F44596
:101C600059DD4FF0000853E0DDF80090A9450ADD8A
:101C700005EB08090FFA89F9D3F800A002EB8A0AEC
:101C8000AAF8009009E0A5EB08090FFA89F9D3F842
:101C900000A002EB8A0AAAF80090B7421ADDD3F836
:101CA00000A002EB8A0ABAF900A0BAEB050901D438
:101CB000CA4601E0C9F1000A0AFB0EFA9AFBFCFAD7
:101CC000B2440FFA8AFAD3F800B002EB8B0BABF8F0
:101CD00002A01AE0D3F800A002EB8A0ABAF900A029
:101CE000BAEB050901D4CA4601E0C9F1000A0AFBB2
:101CF0000EFA9AFBFCFAA6EB0A0A0FFA8AFAD3F854
:101D000000B002EB8B0BABF802A01B1D08F1010821
:101D1000E045A9DB66E04FF0000861E0B7420ADD6C
:101D200006EB08090FFA89F9D3F800A002EB8A0A3A
:101D3000AAF8029009E0A6EB08090FFA89F9D3F88E
:101D400000A002EB8A0AAAF80290DDF80090A945EB
:101D500028DDD3F800A002EB8A0ABAF902A0BAEB98
:101D6000060901D4CA4601E0C9F1000A0AFB0CFACF
:101D70009AFBFEFAAA440FFA8AFAD3F800B002EBF3
:101D80008B0BABF800A028E0A0000020AC000020E6
:101D9000C0070108A8000020B8000020C0570108B3
:101DA000807E0108D3F800A002EB8A0ABAF902A0EB
:101DB000BAEB060901D4CA4601E0C9F1000A0AFBE0
:101DC0000CFA9AFBFEFAA5EB0A0A0FFA8AFAD3F884
:101DD00000B002EB8B0BABF800A01B1D08F1010853
:101DE000F0459BDB641C8C42FFF611AFBDE8F88F19
:101DF000704700000FB4044910B503AA029800F020
:101E0000E5FC10BC5DF814FB040000200FB41CB509
:101E1000074B06AA7B4469460090059800F0A7FC92
:101E20000020694600F0B6FC1CBC5DF814FB000005
:101E30007D09000070B50C460546012A05D02878BA
:101E4000800600D5EA69002302E0012305E05B1C5F
:101E5000934202D2E05C0028F9D1A869E618C01AC2
:101E6000A861286A184428622846AFF3008004E07D
:101E7000D5E9012114F8010B9047B442F8D3284664
:101E8000AFF3008070BD00002DE9F041064600244C
:101E900010687529314616A510D0AFF300800028D0
:101EA00002DA404213A507E031688A0701D512A57E
:101EB00002E0490704D511A5012401E0AFF3008039
:101EC00000210A2206F1240709E0B0FBF2FCB0FB76
:101ED000F2F302FB1C00303078541846491C0028ED
:101EE000F3D123462A463046BDE8F04100F0D2B98E
:101EF000000000002D0000002B000000200000006A
:101F000070B504460D4621461068AFF30080218865
:101F1000090502D50F4A7A4402E00E4A7A440E328D
:101F2000002104F1240305E000F00F060009965D8E
:101F30005E54491C0028F7D120780023000704D5FF
:101F4000702D02D009B1022311322046BDE8704045
:101F500000F0A0B9A45F01002DE9F05F89460446B6
:101F60004FF0000ADFF874B1FB44C0F820A020460F
:101F7000E1688847002874D0252806D0D4E90121DB
:101F80009047206A401C2062F1E700265F46204609
:101F9000E16888472028054607DB312D05D27819EE
:101FA00010F8200C08B10643F1E7B00701D526F080
:101FB0000406C4F81CA00027C4F818A02A2D09D0D4
:101FC000284601F07DF938B304EB8708303DC8F8A6
:101FD000185019E059F8041B204604EB8702916160
:101FE000E1688847012F054618D1E069002820DA0A
:101FF00026F020061DE0D8F8180000EB800005EB65
:1020000040003038C8F818002046E1688847054687
:1020100001F056F90028EED1012F0AD02E2D08D15B
:102020002046E16888477F1C0546022F46F02006BF
:10203000C4DBA069002803DA404246F00106A06133
:10204000F00701D026F010066C2D0BD0682D09D0BA
:102050004C2D39D06A2D35D0742D35D07A2D33D012
:1020600016E038E0E1682F4620468847B84205462A
:1020700009D16C2F26D04FF48060E16806432046DA
:102080008847054604E06C2F1AD04FF48070064351
:102090000DB3A5F14100192802D8203546F4006699
:1020A0004A462946204626604E46FEF77BF880B118
:1020B00001280BD0F61D26F0070000F1080956E7AD
:1020C0004020E4E78020D8E70020D6E706F10409A5
:1020D0004DE7284652E7206ABDE8F09F7A5F01008D
:1020E000032A40F2308010F0030C00F0158011F844
:1020F000013BBCF1020F624498BF11F801CB00F81C
:10210000013B38BF11F8013BA2F1040298BF00F86F
:1021100001CB38BF00F8013B11F0030300F06883E6
:10212000083AC0F0088051F8043B083A51F804CB53
:10213000A0E80810F5E7121D5CBF51F8043B40F819
:10214000043BAFF30080D20724BF11F8013B11F824
:1021500001CB48BF11F8012B24BF00F8013B00F868
:1021600001CB48BF00F8012B704700004FF0013C45
:1021700050F8042B51F8043B9A4221D1A2EB0C03F6
:10218000934313EACC1317D150F8042B51F8043BB6
:102190009A4215D1A2EB0C03934313EACC130BD153
:1021A00050F8042B51F8043B9A4209D1A2EB0C03DE
:1021B000934313EACC13DBD04FF00000704700BF0D
:1021C000D01A01BAB1FA81F101F0180122FA01F036
:1021D000CB40C1F12001DBB2C0B2C01A2CFA01F32E
:1021E000D11A914311EAC311E6D170477047704785
:1021F0007047704730B5B0F10A024FEA900E71F1A6
:1022000000034EEA817EB0EB0E0061EB91014FEAD4
:10221000101E4EEA017E10EB0E0041EB11114FEA49
:10222000102E4EEA016E10EB0E0041EB11214FEA29
:10223000104E4EEA014E10EB0E0041EB11414018DA
:1022400041F100014FEAD00040EA41704FEAD1016C
:1022500010EB80054FEA810444EA907444EB0104DA
:102260006D1944EB0404521BA3414FF0000348BF17
:102270000A3200D530BD401C41F1000130BD10B51F
:1022800000F0ECFA006810BD10B5044600F0E6FA64
:10229000046010BD2DE9F0470D469946924604466C
:1022A00000F124080168880604D5E06921F01001D6
:1022B000216000E00120A84201DD471B00E000276B
:1022C000A1697A1902EB0900081AA0612078C006FA
:1022D00002D42046AFF30080002608E0D4E90121B3
:1022E0001AF806009047206A401C761C20624E4572
:1022F000F4DB2078C0060AD52046AFF3008006E064
:10230000D4E9012130209047206A401C2062381E09
:10231000A7F10107F4DC07E0D4E9012118F8050072
:102320009047206A401C2062281EA5F10105F3DCBD
:102330002046AFF300802078000602D50220BDE8D9
:10234000F0870120FBE770472DE9FF4F0C461E4642
:102350004FF0FF378BB0D2E90001DDF860800A90C2
:102360008A46C1F30A5505B93D46002108464FF09B
:102370000000BAF1000F00F4400005DA00EB800025
:102380004FF4400101EA50004FEA9059B9F1010FB2
:1023900000DDB9460A9850EA4A000ED044F61050C3
:1023A000A5F2FF3545432F14B8F1000F1ED075423A
:1023B000291E1EDDC9F100021CE0B8F1010F4FF02B
:1023C000000001D0302103E0F24305E02154401C1D
:1023D000B042FBDB30460022002121540B99C1F8AA
:1023E0000880C1E900200FB0BDE8F08FBD1B6D1C57
:1023F000DEE74A4600DA694206A800F073FA06AB47
:1024000093E8070003AB83E8070050460A9900F001
:1024100011FB8DE80700A0F500501F3800900398CD
:10242000002D0ADD42F21F014A460844002303A999
:102430000390684600F07AFD09E0A0F500504A4696
:102440001F38002303A90390684600F084FD8DE83F
:1024500007000004000C03D04FF0FF30410800E0FB
:102460001046B8F1000F03D00022009215461EE07E
:10247000751E05D4FFF7BEFE303262556D1EF9D5CC
:10248000B3460122084302D000227F1C04E02078DA
:10249000302801D100227F1E002A099784D01DE038
:1024A000112D07DAFFF7A6FE303262556D1C50EA97
:1024B0000102F5D1084302D00098C8B10EE0002116
:1024C000681E05E0235C625C63542254401E491C74
:1024D0008142F7DBAB46A81B401E0990002004F8A0
:1024E0000B000B98099AC0F80880C0E9002B7AE726
:1024F00011264FF0000857E72DE9F04F88460446B3
:10250000D21D22F0070191B0D1E90001CDE90A0105
:1025100000F09AFE02460B98C00F01D02D2007E074
:102520002068810701D52B2002E0202101EAC000AC
:10253000032A099001D0072A05DB034641462046BD
:1025400000F090F90BE12078800601D5E06900E009
:102550000620B8F1650F814606D0B8F1660F18D095
:10256000B8F1670F70D131E00020B9F1110F009080
:1025700001DB112301E009F101030AAA01A90CA85A
:10258000FFF7E2FEDDE90C70002609F10105834644
:1025900047E001204B4600904FF000470AAA01A9EE
:1025A0000CA8FFF7D1FEDDE90DB00C995D460026C1
:1025B00010B909F101000D18B9EB050003D4C0F101
:1025C000FF3609F10105A5EB09002BE0B9F1010F78
:1025D00001DA4FF001090020B9F1110F00904846CF
:1025E00001DD112300E003460AAA01A90CA8FFF7A8
:1025F000ABFEDDE90C704D460026834620780007CF
:102600000AD4AB4500DA5D4601A8012D04DD41196D
:1026100011F8011C302907D04F4502DA17F1040FD9
:1026200004DA012082460FE06D1EEEE7002F02DC87
:10263000ED1B3E4403E0781CA84200DD7D1CB81B66
:1026400000F1010A4FF000472078000703D4AA45A3
:1026500001DB4FF0FF3A0021B7F1004F0DF14308C5
:102660008DF8431024D002202B23002F01DA7F4263
:102670002D230A21021EA0F1010000DC5FB197FBAF
:10268000F1FC97FBF1F201FB1C7C17460CF1300CBE
:1026900008F801CDEEE7A8F10100037021880905D3
:1026A00001D5452100E06521A0F1010800F8011CD9
:1026B00009980FA9A1EB0807FF1D00B101204119DE
:1026C00001EBEA70A1693844081A401EA061207825
:1026D000C00602D42046AFF30080099828B1D4E99F
:1026E00001219047206A401C20622078C00622D534
:1026F0002046AFF300801EE0002E04DBB34502DD70
:1027000001A8805D00E03020D4E901219047206AD3
:10271000401C2062761CAAF101005FEA000A0AD17F
:1027200000F098F8C0680168405CD4E90121904746
:10273000206A401C2062281EA5F10105DCDC07E0B0
:10274000D4E9012118F8010B9047206A401C20624F
:10275000381EA7F10107F3DC2046AFF30080032009
:1027600011B041E601694A1C02610878704700B562
:102770008FB0CDE901310021059105497944CDE9BA
:10278000031011466846FFF7E7FB0FB000BD0000DD
:10279000E5FFFFFF0A6802F8010B0A60704710B5F9
:1027A000436913B1AFF3008001E0FFF743FB012061
:1027B00010BD127800F124010A7000224A70012233
:1027C000EDE711684FF0FF32E9E70000074B70B505
:1027D0000D467B44FFF7CBFF0446284600F0F4F893
:1027E00010B14FF0FF3070BD204670BD4B1200009D
:1027F00010B5203AC0F00B80B1E81850203AA0E89C
:102800001850B1E81850A0E81850BFF4F5AF5FEACF
:10281000027C24BFB1E81850A0E8185044BF18C982
:1028200018C0BDE810405FEA827C24BF51F8043B29
:1028300040F8043B08BF7047D20728BF31F8023B7D
:1028400048BF11F8012B28BF20F8023B48BF00F811
:10285000012B7047004870472CC300200048704788
:102860000CC300202DE9F0411F46044603260168F1
:10287000072A01F4006004DB08B116A505E016A5DF
:1028800003E008B115A500E015A521F010002060B7
:10289000A069C01EA0610FB1401EA0612046AFF329
:1028A00000804FB1D4E9012138469047206A401C8E
:1028B0002062C01C206206E0206AFAE7D4E9012108
:1028C00015F8010B9047761EF8D22046AFF3008032
:1028D000BDE8F0814E414E006E616E00494E4600EB
:1028E000696E66002DE9F047814616468AB0354884
:1028F00078440DC88DE80D0032487844801C03AC44
:102900000DC884E80D0041F69B300844372190FB48
:10291000F1F290FBF1F5A5F1800501FB12041B3CDF
:1029200002D56442012000E00020DFF898A0804634
:102930000027FA44AAF1BE0A0EE0E0070AD03246A8
:10294000684607EB470101230AEB810100F003FB16
:102950008DE8070064107F1C002CEED1194F7F44D6
:10296000AE3F19E0E80715D007EB04100DF1180A87
:1029700090E80E008AE80E00C068F04201D1981974
:1029800008903246012306A903A800F0E4FA03AB3D
:1029900083E807006D10641C002DE3D14FF00103A4
:1029A00032466946B8F1000F03A802D000F0BEFA23
:1029B00001E000F0D0FAC9E90001C9F808200AB026
:1029C000BDE8F087C0570100007B00F08000704731
:1029D000004870470CC300207546FFF7F9FFAE466C
:1029E00005006946534620F00700854618B020B51B
:1029F000FDF70EFCBDE820404FF000064FF0000749
:102A00004FF000084FF0000B21F00701AC46ACE896
:102A1000C009ACE8C009ACE8C009ACE8C0098D4603
:102A2000704710B50446AFF300802046BDE8104063
:102A3000FDF7DBBB5FEA400C08BF91F0000F4FEAE7
:102A40008C234FEAC12243EA51514FEA1C5018BF70
:102A500000F5F0404FEA300018BF41F000415FEA56
:102A60006C5C00F02980BCF1FF3F08BF40F0804063
:102A70007047130C06BF12044FF0100C4FF0000CFF
:102A8000130E04BF12020CF1080C130F04BF120145
:102A90000CF1040C930F04BF92000CF1020CD30F45
:102AA00004BF52000CF1010C11464FF00002A0F1DE
:102AB0001F00A0EB0C00704711F0004F08BF7047DB
:102AC00031F000413FF4D5AF0B0C06BF09044FF0C5
:102AD000100C4FF0000C0B0E04BF09020CF1080C97
:102AE0000B0F04BF09010CF1040C8B0F04BF89000C
:102AF0000CF1020CCB0F04BF49000CF1010CCCF11E
:102B00002003A0EB0C0022FA03F302FA0CF241EAD4
:102B1000030100F10100704720F07F4C80EA0300C0
:102B200023F07F47ACEB070303F57C5300F0004034
:102B300003F1FF032DE980494FEA154B09B44FEA31
:102B4000144325EA0B4E24EA03480FF2042606EB51
:102B5000132749083E785FEA320203FB0667C7F590
:102B6000000707FB06F64FEA54374FEAD64606F150
:102B7000020607FB066CCCF1005C4FEA1C472CEA0E
:102B8000074C07FB06F40CFB06F504EB15464FEA71
:102B9000961634BF00204FF000404FEAD13706FBB5
:102BA00007FC4FEA1C4C0CFB0BF7D21B03FB0CF78A
:102BB00061EB07010CFB0EF7B0EB074072EB17421D
:102BC0000CFB08F734BFA2EB0742B2EB074261EB04
:102BD00017414FEA0C444FEA910706FB07FC4FEA06
:102BE0001C4C0CFB0BF7B0EBC74072EB573203FBEE
:102BF0000CF734BFA2EBC742B2EBC74261EB5731CF
:102C00000CFB0EF7B0EBC70072EB57720CFB08F72A
:102C100034BFA2EBC702B2EBC70261EB5771039F4F
:102C20004FEA816141EA921104EBCC044FEAD137BB
:102C30004FEA826206FB07FC42EA90124FEA80608C
:102C40004FEA1C4C0CFB0BF7D21B03FB0CF761EBA0
:102C500007010CFB0EF7B0EB074072EB17420CFBC1
:102C600008F734BFA2EB0742B2EB074261EB174112
:102C70004FEA8C554FEA910704EB9C2406FB07FCB6
:102C80004FEA1C4C0CFB0BF7B0EBC74072EB573212
:102C900003FB0CF734BFA2EBC742B2EBC74261EBB8
:102CA00057310CFB0EF7B0EBC70072EB57720CFB01
:102CB00008F734BFA2EBC702B2EBC70261EB577152
:102CC00015EB4C254FEA816141EA92114FEA82628D
:102CD0004FEAD13742EA901206FB07FC44F10004A8
:102CE0004FEA80604FEA1C4C0CFB0BF7D21B03FB36
:102CF0000CF761EB07010CFB0EF7B0EB074072EB32
:102D000017420CFB08F734BFA2EB0742B2EB0742B5
:102D100061EB174115EB1C154FEA813141EA9241F5
:102D20004FEA823242EA90424FEA80304FEA0C7614
:102D300044F1000448EA03434EEA0B484FF0000E0A
:102D4000B2EB080C71EB030724BF624639464EEB29
:102D50000E0E4FF0000B0018524149414BEB0B0B8C
:102D6000B2EB080C71EB03077BF1000B24BF62464A
:102D700039464EEB0E0E4FF0000B00185241494100
:102D80004BEB0B0BB2EB080C71EB03077BF1000B69
:102D900024BF624639464EEB0E0E51EA020718BFB9
:102DA00046F0010616EB0E7655F1000254F10001D3
:102DB00003D5BDE88901BDE80088BDE88901BDE80B
:102DC0000048B619524141EB0101A3F101037047DC
:102DD00080807F7E7D7C7B7A797877767675747358
:102DE000727171706F6E6E6D6C6C6B6A6A69686817
:102DF000676666656464636362616160605F5F5EAD
:102E00005E5D5D5C5C5B5B5A5A5959585857575622
:102E10005655555554545353525252515150505087
:102E20004F4F4F4E4E4D4D4D4C4C4C4B4B4B4A4AD9
:102E30004A4949494848484747474746464645451D
:102E40004544444444434343434242424241414156
:102E5000002B9C4630D477002BD01CB54FEA3707A7
:102E600003B44FF010004FF01001BAF1000F06D07C
:102E7000BCF1000FDCBF40F0080040F008014FF04B
:102E800000000FBCBDE810400BF1010BBBF1010FBE
:102E900008BF5FEA170722BF12F1010211F1010119
:102EA0004FF0004143F1000300F0004043EA00000E
:102EB0007047F9D35708D0E746EA064613F1400FAA
:102EC0004FEA16461FDD13F1200FDFBF16430A46F7
:102ED000002120335B42BED0C3F1200746EA0646FC
:102EE00002FA07F74FEA164646EA0706C3F120073B
:102EF00022FA03F201FA07F721FA03F14FF0000377
:102F000042EA0702A7E746EA020646EA06464FEA11
:102F1000164646EA0106BCBF46EA0646360C4FF0A6
:102F200000034FF000024FF0000194E72DE9804CC0
:102F30009A46934670B491E8380007C831EA400CCD
:102F400048BF34EA430C03D5FFF7E6FDFFF780FFE7
:102F5000F0BCBDE8008C2DE9804C9A46934670B4D5
:102F600091E8380007C810F0804F08BF13F0804F79
:102F700003D100F005F8FFF76BFFF0BCBDE8008C53
:102F800020F07F4780EA030023F07F4C07EB0C031F
:102F9000A3F57C5300F00040A3F1FE0392F0000F74
:102FA00000F0B38095F0000F00F077802DE9014923
:102FB0004FEA11404FEA144621EA004800FB06FCA4
:102FC00024EA064708FB06F607FB08F800FB07F7AC
:102FD00018EB06484CEB164C4FEA124B18EB07481F
:102FE0004FEA15464CEB174022EA0B4E0BFB06FC52
:102FF00025EA06470EFB06F607FB0EFE0BFB07F75E
:103000001EEB064E4CEB164C4FF000061EEB074E27
:103010004CEB174B18EB0B0840F1000018EB0E0BB4
:1030200058EB000840F100008F1A4FF000013CBF40
:10303000C943661B14BFB5EB040C00213CBFC94358
:10304000F61B4FEA17444EEA8E0E27EA04454FEA74
:103050001C4704FB07622CEA074C05FB07F70CFB37
:1030600005F604FB0CFC16EB074642EB174216EB89
:103070000C4642EB1C421BEB060658EB0202414198
:1030800046EA9E0601D5BDE80189B619524141EBD9
:103090000101A3F10103BDE801894FEA14454FEA9C
:1030A000114724EA054621EA074C05FB07F406FB15
:1030B00007F70CFB06F105FB0CFC11EB074144EB99
:1030C00017444FEA124711EB0C4144EB1C4422EA2F
:1030D000074C05FB07F206FB07F70CFB06F605FBA2
:1030E0000CFC16EB074642EB174216EB0C4642EB84
:1030F0001C456A1854F1000148BF7047B619524187
:1031000041EB0101A3F10103704795F0000F37D0A7
:103110004FEA11424FEA144721EA024624EA074CDB
:1031200002FB07F106FB07F70CFB06F402FB0CFCA5
:1031300014EB074441EB17414FEA154714EB0C44DD
:1031400041EB1C4125EA074C02FB07F506FB07F79C
:103150000CFB06F602FB0CFC16EB074645EB17458D
:1031600016EB0C4645EB1C42121951F1000148BF09
:103170007047B619524141EB0101A3F101037047B9
:103180004FEA14454FEA114724EA054621EA074C65
:1031900005FB07F106FB07F70CFB06F24FF00006F4
:1031A00005FB0CFC12EB074241EB174112EB0C4202
:1031B00051EB1C4148BF7047921841EB0101A3F14C
:1031C000010370471D49096801F0200111B31B4933
:1031D000091D0968C8B21A49098801F40041C9B932
:1031E0001749098801F4804161B10A2803D0002100
:1031F000134A118020E01249098841F40041104A25
:10320000118019E00D2806D10D49098841F480414B
:103210000B4A118010E00A490988C1F30D01094ADF
:10322000505407490988491C054A118011460988EC
:10323000C72901DD002111807047000000380140DE
:1032400008000020DC030020490050EAC12018BF1C
:1032500004204A0D18BF40F0010040F2FF72B2EBAB
:10326000515F08BF40F00200012808BF05207047E9
:103270004100080218BF04200A0E18BF40F00100E8
:103280004FF07F4232EA010108BF40F002000128FE
:1032900008BF0520704700214FF07E5009F0BAB8F2
:1032A00009F044B80021084609F0B4B861214FF094
:1032B000E04009F0A2BB6FF05E01080709F09DBB7A
:1032C00030380A2801D2012070470020704700BF23
:1032D000704710B504462146002005F045FC10BD9E
:1032E00010B504462146002005F050FC10BD70B515
:1032F00004460D46164632462946204605F02AFC6D
:1033000070BD10B501F00AF810BD70B505460C4649
:10331000164606E028466A1C95B200F008F804F844
:10332000010B301EA6F101018EB2F3D170BD70B554
:103330000446002601F086F82112A02202EB41018A
:10334000C8B201F059F801F0B5F82546E11704EBD1
:1033500011610912A4EB0121C8B201F04DF801F08E
:10336000A9F801F06FF8A12001F046F801F0A2F8E9
:10337000002001F017F8064601F082F8304670BDD3
:1033800070B505460C46164606E02178284600F042
:1033900009F8681C85B2641C301EA6F101018EB2CA
:1033A000F3D170BD70B504460E4601F04BF8211202
:1033B000A02202EB4101C8B201F01EF801F07AF838
:1033C0002546E11704EB11610912A4EB0121C8B2F3
:1033D00001F012F801F06EF8304601F00DF801F03E
:1033E00069F801F04DF80A2000F0ACF970BD00005A
:1033F00070B504460D460020E070401EA0632946CB
:10340000204605F0CBFA08B1042070BD04F23A2042
:1034100004F0A3FD4AF65521884201D00320F4E7C9
:103420000B2214A104F13C0005F03CF808B901207E
:10343000EBE794F83C00E92807D094F83C00EB282F
:1034400003D094F83C00E82811D103220CA104F128
:10345000720005F027F808B90020D6E7052209A177
:1034600004F18E0005F01EF808B90020CDE7022017
:10347000CBE70000EB7690455846415420202000D1
:103480004641540046415433320000000246891E32
:10349000D069801E884201D8002070475389106B84
:1034A00003FB0100F9E7000010B500224FF40071A2
:1034B0000D4807F051FB00F01BF8012202210B48D8
:1034C00007F04AFB00F014F800220221074807F039
:1034D00043FB00F00DF801225102034807F03CFBCA
:1034E00000F006F810BD0000001C0140000C014077
:1034F00010B5022000F030F910BD00001CB500BF6F
:103500001148806940F008000F49886100BF00BF82
:103510000846806940F08000886100BF012000906B
:103520000346024602210190084807F021FB0120D2
:1035300000900346024641020190054807F018FB3F
:1035400000F09CF81CBD000000100240000C01407F
:10355000001C014010B5012251020A4807F0FCFA94
:10356000FFF7C6FF01220221074807F0F5FAFFF72F
:10357000BFFF00220221044807F0EEFAFFF7B8FF70
:1035800010BD0000001C0140000C014070B5054654
:103590000024002619E06006040E012202211048D2
:1035A00007F0DAFAFFF7A4FF4FF400710D4807F0B7
:1035B000CBFA08B1601CC4B200220221084807F00F
:1035C000CBFAFFF795FF701CC6B2082EE3DB15B9E6
:1035D000FFF7C0FF01E0FFF767FF204670BD000066
:1035E000000C0140001C014070B50446002517E0A6
:1035F000E2094FF400710E4807F0AEFAFFF778FFCA
:10360000012202210B4807F0A7FAFFF771FF002201
:103610000221084807F0A0FA6006040E681CC5B233
:10362000082DE5DB01225102014807F095FA70BD33
:10363000001C0140000C014010B5012251020D4850
:1036400007F08AFA012202210B4807F085FAFFF7FA
:103650004FFF00224FF40071064807F07DFAFFF794
:1036600047FF00220221044807F076FAFFF740FFE7
:1036700010BD0000001C0140000C014010B50022EC
:103680004FF40071094807F067FAFFF731FF012294
:103690000221074807F060FAFFF72AFF01225102D2
:1036A000024807F059FAFFF723FF10BD001C014044
:1036B000000C014070B5002400250122510214487D
:1036C00007F04AFAFFF714FF01220221114807F020
:1036D00043FAFFF70DFF09E0601CC4B2FA2C03DDCA
:1036E000FFF7CCFF012508E0FFF702FF4FF4007160
:1036F000074807F029FA0028EED100BF0022022176
:10370000044807F029FAFFF7F3FE284670BD0000D1
:10371000001C0140000C01404FF0E021096941F01C
:1037200004014FF0E0221161054908601146096962
:1037300041F0010111616FF070415161704700006B
:103740000000002010B504464FF47A7104FB01F02C
:1037500000F002F810BD000070B5034600224FF0E3
:10376000E02675690D4E366803FB06F44FF0E0263F
:10377000B16910E04FF0E026B06988420BD0884272
:1037800002D20E1A324402E02E1A0E44324401468E
:10379000A24200D300E0EDE700BF70BD00000020B2
:1037A00070B50446002514B1012C07D103E005F0E3
:1037B000F3FE054604E005F01BFA01E0012500BF19
:1037C00000BF0DB1012070BD0020FCE72DE9F041E4
:1037D00080460E4614461D46002715B90420BDE854
:1037E000F081B8F1000F03D0B8F1010F25D113E03B
:1037F0002A462146304605F089FF074609E0022F98
:1038000001D005F0C9FE2A462146304605F07EFF6C
:103810000746002FF3D112E00BE0002000EB44211B
:103820004FF40072304605F02FFA641C06F500765E
:103830006D1E002DF1D1002701E0012700BF00BF60
:103840000FB90020CBE70120C9E7014600207047EF
:103850002DE9F04107460E4614461D464FF000087C
:1038600015B90420BDE8F08117B1012F24D112E071
:103870002A462146304605F08DFF804607E005F0D8
:103880008BFE2A462146304605F084FF8046B8F17B
:10389000000FF4D113E00BE0002000EB44214FF4C3
:1038A0000072304605F086FA641C06F500766D1E3F
:1038B000002DF1D1A84602E04FF0010800BF00BF83
:1038C000B8F1000F01D10020CCE70120CAE70000C9
:1038D00070B5002500240EE04FF40F71002005F0B4
:1038E00055F90B4941F82400084650F8240000B966
:1038F00003E0601CC4B2022CEEDB00BF04F0F4FD58
:103900000546022C02D10DB9002070BD0120FCE754
:1039100098000020F7B582B016460398019001A8E0
:1039200000F037FA0546002D02DA0B2005B0F0BD95
:103930000C4850F825400CB100202070029810B1BE
:103940000020029908700749029841F825000EB935
:103950000020EBE7002202A903A804F0E5FD0746DA
:103960003846E3E78C0000202DE9FF4107460D466D
:1039700000213846FFF73CFD0646022E06D0032EF6
:1039800000D21DB9304604B0BDE8F08100BF00246C
:103990000AE007F5FD7101EB041101F1080004F0E4
:1039A0009FFA4DF82400641C042CF2D30DB1681E5C
:1039B00000E00020044600BF5DF8240028B15DF857
:1039C00024103846FFF714FD00E0032006462DB909
:1039D000022E03D3601C04460428EDD33046D2E700
:1039E00010B500240FE0601CC4B221224FF4400146
:1039F0000A4805F049F909480078AA2800D104E0EE
:103A00001420FFF79FFE0A2CEDDB00BF034800786F
:103A1000AA2801D0012010BD0020FCE7C0C2002070
:103A200000BF054A126802F04002002AF9D0C2B273
:103A3000014B1B1D1A607047003801400EB500BFD6
:103A40003B48806940F080003949886100BF00BF71
:103A50000846806940F08000886100BF0120009026
:103A600000230246C1020190324807F081F801208C
:103A7000009000231A46810201902E4807F078F842
:103A8000FFF73CFD00224FF400612A4807F064F87C
:103A90001420FFF757FE0122D102264807F05CF8F8
:103AA0003220FFF74FFE00208DF80800012202A906
:103AB00000F046F9012202A9A42000F041F91620E5
:103AC0008DF80800012202A9802000F039F90C20AD
:103AD0008DF80800012202A9882000F031F90222A5
:103AE00002A9A12000F02EF89DF80800302803D18B
:103AF0009DF8090003280DD09DF80900012809D080
:103B00009DF80900022805D09DF8080068B99DF8C5
:103B1000090050B99DF809009DF8082000EB02212A
:103B200005A0FEF767F900200EBD0120FCE70000AC
:103B300000100240001C01404354502049443A25E3
:103B4000780D0A002DE9F04106460F461546FFF7AD
:103B500073FD7020FFF748FDFFF7ACFDF0B2FFF7F3
:103B600043FDFFF7A7FDFFF767FD7120FFF73CFD61
:103B7000FFF7A0FD00240BE0691EA14201D0012146
:103B800000E000210846FFF701FD3855601CC4B273
:103B9000AC42F1DBFFF772FDBDE8F0812DE9FC419D
:103BA0000746002001900024002661480078401C50
:103BB0005F490870084600780A2190FBF1F201FB8A
:103BC000120018B15A4800780A2867DA012201A9C0
:103BD0000220FFF7B7FF9DF8040000F00F00002857
:103BE0005CD09DF8040000F00F0006287BDA9DF8F9
:103BF000040000F00F014FF6FF70884085B2E843E3
:103C000080B240F440404B4988860420FFF79AFD7B
:103C100000245AE04748808E0121A1400840E0B3CB
:103C2000454931F8140004226946FFF78BFF4148EB
:103C300090F8440000F00100C0B19DF801009DF82B
:103C4000001001F00F0100EB01203A49203121F86A
:103C500014009DF803009DF8021001F00F0100EB25
:103C6000012134480C3020F814101EE09DF80100AA
:103C70009DF8001001F00F0100EB01202F49098889
:103C8000081A81B22B480C3020F814109DF803005C
:103C90009DF8021001F00F0101E014E023E000EBB9
:103CA00001202449203121F814009DF8000000F083
:103CB000F000802807D000211E48203020F8141082
:103CC000143820F81410601CC4B2052CA2DB0126A5
:103CD0001848808920B91748008C08B90020019045
:103CE0000020134908709DF8040000F01F00A8B9D7
:103CF0001048808E00F4004030B10E48808E20F4D1
:103D000000400C49888609E04FF6FF700949888118
:103D100008840846808E00F4604088860448007855
:103D2000F02802DD0A20024908703046BDE8FC8117
:103D30002200002028000020F6F90008A40400203A
:103D40002DE9F04105460E4617464FF00008FFF7F3
:103D500073FC7020FFF748FCFFF7ACFCE8B2FFF7FC
:103D600043FCFFF7A7FC00240BE0305DFFF73CFCB1
:103D7000FFF7A0FC8046B8F1000F00D003E0601C04
:103D8000C4B2BC42F1DB00BFFFF778FC4046BDE89F
:103D9000F08170B504464FF0FF3026683146324658
:103DA00001B970BD00BF12F8013B202B01D33A2BA3
:103DB000F9D13A2B11D102250E78302E08DB0E787E
:103DC000392E05DC8E1C964202D10E78A6F1300504
:103DD000022D01DA28462260E3E7002000BFE0E779
:103DE0001FB500BF4148806940F080003F498861AD
:103DF00000BF00BF0846806940F08000886100BFB6
:103E00000120009000230246C1020190384806F0CC
:103E1000AFFE0120009000231A4681020190344831
:103E200006F0A6FEFFF76AFB00224FF4006130485F
:103E300006F092FE0A20FFF785FC0122D1022C48F1
:103E400006F08AFE0A20FFF77DFC002001210346D0
:103E50000246CDE900108902254806F089FE64205B
:103E6000FFF770FC042202A948F2401000F058F855
:103E700000208DF80C001FA102A8FEF777F988B189
:103E80001DA102A8FEF772F960B11DA102A8FEF7FC
:103E90006DF938B11CA102A8FEF768F910B1012034
:103EA00004B010BD02A91AA0FDF7A4FF16A102A834
:103EB000FEF75CF910B90A201849087002208DF845
:103EC0000800012202A948F2400000F0D3F90A20BC
:103ED000FFF738FC00208DF80800012202A948F203
:103EE000400000F0C7F90020DAE7000000100240AF
:103EF000001C0140393131003931343700000000F5
:103F0000313135380000000039323731000000000F
:103F10004354502049443A25730D0A0023000020E1
:103F20002DE9F04105460F461646FFF785FB282090
:103F3000FFF75AFBFFF7BEFB2812FFF755FBFFF711
:103F4000B9FBE8B2FFF750FBFFF7B4FBFFF774FBD8
:103F50002920FFF749FBFFF7ADFB00240BE0711EA2
:103F6000A14201D0012100E000210846FFF70EFB2D
:103F70003855601CC4B2B442F1DBFFF77FFBBDE8EB
:103F8000F081000071B583B0002001900026B44894
:103F90000078401CB2490870084601780A2091FB5D
:103FA000F0F200FB121018B1AD4800780A287DDA53
:103FB000012203A948F24E10FFF7B2FF9DF80C0052
:103FC00000F0800078B19DF80C0000F00F00A549CA
:103FD0000978884207DC00200190012201A948F2FB
:103FE0004E1000F047F99DF80C0000F00F0000287B
:103FF0005CD09DF80C0000F00F009A4909788842C7
:1040000054DC9DF80C0000F00F014FF6FF70884063
:1040100084B29548858EE04380B240F44040924996
:104020008886084682898F480078401E0C3121F826
:1040300010208D48028C8B480078401E143121F8E6
:10404000102000200190A7E08748808E9DF8042072
:1040500001219140084000283FD084499DF8042068
:1040600031F81200042202A9FFF75AFF8048808825
:1040700045F2105188420BD07D48808849F60601F0
:10408000884205D07A48808847F29671884240D1AC
:10409000754890F8440000F00100F8B19DF80A005E
:1040A0009DF80B1000EB0120714900E0B2E0098897
:1040B000081A81B26C480C309DF8042020F81210C8
:1040C0009DF808009DF8091000EB012081B26648B8
:1040D00020309DF8042020F8121058E09DF80800C8
:1040E0009DF8091000EB012081B25F480C309DF86B
:1040F000042020F812109DF80A009DF80B1000EB28
:10410000012081B2584820309DF8042020F8121078
:104110003DE0554890F8440000F00100D0B19DF812
:1041200008009DF8091000EB012081B24E480C30C8
:104130009DF8042020F812109DF80A009DF80B103D
:1041400000EB012081B2484820309DF8042020F87F
:1041500012101CE09DF80A009DF80B1000EB0120E6
:1041600043490988081A81B23F480C309DF8042061
:1041700020F812109DF808009DF8091000EB0120AE
:1041800081B2394820309DF8042020F812109DF8A3
:104190000400401CC0B201909DF804003149097828
:1041A0008842FFF651AF01262F488089304909889F
:1041B000884205DC2C48008C2D494988884226DD40
:1041C0009DF80C0000F00F0001280ADD2648C08988
:1041D000254988810846408C0884002020490870C1
:1041E00018E020480078401E1F490C3131F81000BB
:1041F0000C3988811B480078401E203131F81000AE
:1042000020390884802003900846858602E000203B
:10421000134908709DF80C0000F08F00802815D11C
:104220001148808E00F4004030B10F48808E20F499
:1042300000400D49888609E04FF6FF700A498881E1
:1042400008840846808E00F4604088860448007820
:10425000F02802DD0A2002490870304604B070BD23
:1042600024000020230000202800002000FA00087D
:10427000A40400202DE9F04104460E4617464FF0F5
:104280000008FFF7D9F92820FFF7AEF9FFF712FA77
:104290002012FFF7A9F9FFF70DFAE0B2FFF7A4F932
:1042A000FFF708FA00250BE0705DFFF79DF9FFF7B7
:1042B00001FA8046B8F1000F00D003E0681CC5B2D7
:1042C000BD42F1DB00BFFFF7D9F94046BDE8F08100
:1042D00010B5002280210D4806F03EFC00F018F8D1
:1042E00001224021094806F037FC00F011F80022B5
:1042F0004021064806F030FC00F00AF80122802137
:10430000024806F029FC00F003F810BD000C014043
:1043100010B50220FFF720FA10BD00001CB500BF49
:104320001148806940F008000F49886100BF00BF54
:104330000846806940F00800886100BF01200090B5
:104340000023024640210190084806F011FC01209C
:1043500000900346024680210190044806F008FCC4
:1043600000F08EF81CBD000000100240000C01405F
:1043700010B5012280210A4806F0EEFBFFF7C8FFC6
:1043800001224021064806F0E7FBFFF7C1FF0022AB
:104390004021034806F0E0FBFFF7BAFF10BD000024
:1043A000000C014070B505460024002618E06006A8
:1043B000040E012240210F4806F0CEFBFFF7A8FFB4
:1043C00080210C4806F0C0FB08B1601CC4B200227A
:1043D0004021084806F0C0FBFFF79AFF701CC6B2E8
:1043E000082EE4DB15B9FFF7C3FF01E0FFF770FF0C
:1043F000204670BD000C014070B50446002516E053
:10440000E20980210E4806F0A7FBFFF781FF012299
:1044100040210B4806F0A0FBFFF77AFF0022402165
:10442000074806F099FB6006040E681CC5B2082D0B
:10443000E6DB01228021024806F08EFB70BD000001
:10444000000C014010B5012280210C4806F084FBCD
:1044500001224021094806F07FFBFFF759FF0022A7
:104460008021064806F078FBFFF752FF002240212A
:10447000024806F071FBFFF74BFF10BD000C014036
:1044800010B5002280210A4806F066FBFFF740FFC6
:1044900001224021064806F05FFBFFF739FF0122A9
:1044A0008021034806F058FBFFF732FF10BD0000E3
:1044B000000C014070B50024002501228021124823
:1044C00006F04AFBFFF724FF012240210E4806F0C8
:1044D00043FBFFF71DFF07E0601CC4B2FA2C03DDAD
:1044E000FFF7CEFF012505E08021074806F02CFBF1
:1044F0000028F1D100BF00224021034806F02CFB28
:10450000FFF706FF284670BD000C01401CB500BF38
:104510002048806940F040001E49886100BF00BF0C
:104520000846806940F04000886100BF00BF08462F
:10453000806940F04000886100BF00BF0846806984
:1045400040F00400886100BF0120009000231A465B
:1045500010210190104806F00BFB01200090002371
:104560001A46082101900C4806F002FB0120009039
:1045700000231A4604210190074806F0F9FA0220A8
:10458000012100231A46CDE90010044806F0F0FA94
:104590001CBD00000010024000180140000801404E
:1045A00070B50446002514B101202B4908702A4833
:1045B0000078002834D01021284806F0C5FA78B1D8
:1045C0000821264806F0C0FA50B10421234806F01D
:1045D000BBFA28B10121224806F0B6FA01281FD102
:1045E0000A20FFF7AFF800201B49087010211B4874
:1045F00006F0AAFA00B901250821184806F0A4FA25
:1046000000B902250421154806F09EFA00B90325D9
:104610000121134806F098FA01281BD1042519E05E
:1046200010210E4806F090FA012813D108210B48FA
:1046300006F08AFA01280DD10421084806F084FA10
:10464000012807D10121064806F07EFA10B90120A1
:1046500001490870284670BD140000200018014070
:104660000008014070B504460026094805884088C6
:1046700045430021084603F079FA03F01FFC00BF10
:1046800002E004480480761CAE42FAD370BD0000FC
:10469000A40400200008006C10B50446584884713A
:1046A000002C58D1F020564908804FF4A070488063
:1046B0000846808845F21051884210D14FF430509E
:1046C0004F4908814FF4285048814FF42C5088817D
:1046D0004FF4F07008804FF4487048801AE0484862
:1046E000808841F6631188420DD12C20444908810D
:1046F0002B2048812A2088814FF4F07008804FF4E5
:104700004870488006E02C203D4908812A204881D5
:104710002B2088813A48808845F21031884205D0A4
:104720003748808847F29671884206D14FF4A070CE
:10473000334908804FF4F07048803148808849F64A
:104740000601884258D14FF4F0702D4908804FF48B
:104750004870488050E04FF4A07029490880F0204C
:1047600048800846808845F21051884210D14FF4A5
:104770003050234908814FF4285048814FF42C5081
:1047800088814FF4487008804FF4F070488020E032
:104790001B48808841F66311884205D018488088FC
:1047A00049F6060188420DD12C20154908812A209E
:1047B00048812B2088814FF4487008804FF4F070B6
:1047C000488006E02C200E4908812A2048812B20B1
:1047D00088810B48808845F21031884205D008480E
:1047E000808847F29671884206D14FF4F0700449F0
:1047F00008804FF4A0704880002003F099F810BDA5
:10480000A40400202DE9FF4F85B080468946129F01
:10481000002003900290B84507DB0798B84204DBFC
:10482000B94502DB0898B84202DA09B0BDE8F08F5A
:104830000798A0EB08040898A0EB0905CDF80480C0
:10484000CDF80090002C02DD4FF0010A06E014B90B
:104850004FF0000A02E04FF0FF3A6442002D02DD03
:104860004FF0010B06E015B94FF0000B02E04FF0DE
:10487000FF3B6D42AC4201DD264600E02E460020A3
:10488000049023E0009A91B2019A90B23A46139BA9
:1048900002F09EFD03982044039002982844029061
:1048A0000398B04205DD0398801B039001985044A3
:1048B00001900298B04205DD0298801B029000989A
:1048C000584400900498401C80B20490711C0498D5
:1048D0008842D7DD00BFA8E72DE9F04706460F461E
:1048E00090469A46002445460320A0EB480944E040
:1048F0007A1B91B2321990B2524600F0B5F83A1BC9
:1049000091B2721990B2524600F0AEF83A1991B2D3
:10491000721990B2524600F0A7F87A1991B2321982
:1049200090B2524600F0A0F87A1991B2321B90B2C0
:10493000524600F099F83A1991B2721B90B2524661
:1049400000F092F87A1B91B2321B90B2524600F0FE
:104950008BF83A1B91B2721B90B2524600F084F869
:10496000641CB9F1000F03DAA000801D814404E04B
:10497000601B80000A3081446D1EAC42B8DDBDE88A
:10498000F0870000F8B504460D4616461F463EB1B6
:1049900009480088A04203DB07484088A84200DAA3
:1049A000F8BDA019401E82B22B462946204600972A
:1049B00002F0E4FC00BFF3E7A40400202DE9FF4F60
:1049C00084B081468A460020029083460698A0EB78
:1049D00009050798A0EB0A06CDF80490CDF800A0D1
:1049E000002D01DD012705E00DB9002702E04FF0A1
:1049F000FF376D42002E02DD4FF0010806E016B9C8
:104A00004FF0000802E04FF0FF387642B54201DD7A
:104A10002C4600E03446002003901EE0009A91B23C
:104A2000019A90B2119A00F01FF80298284402905F
:104A3000B3440298A04205DD0298001B0290019841
:104A400038440190A34504DDABEB040B00984044CF
:104A500000900398401C80B20390611C0398884228
:104A6000DCDD08B0BDE8F08F70B505460E46144693
:104A70003146284603F07AF803F020FA01490C8009
:104A800070BD00000008006C2DE9F84105460E4697
:104A900017469846079C33463A46314628460094C6
:104AA000FFF78CFF43462A46314628460094FFF71D
:104AB00085FF43463A46414628460094FFF77EFF6D
:104AC00043463A46314638460094FFF777FFBDE843
:104AD000F88110B5CF2003F0E5F9002003F0D6F9F6
:104AE000C12003F0D3F9302003F0D0F9ED2003F01A
:104AF000D9F9642003F0CAF9032003F0C7F91220A2
:104B000003F0C4F9812003F0C1F9E82003F0CAF9E9
:104B1000852003F0BBF9102003F0B8F97A2003F0E8
:104B2000B5F9CB2003F0BEF9392003F0AFF92C2002
:104B300003F0ACF9002003F0A9F9342003F0A6F942
:104B4000022003F0A3F9F72003F0ACF9202003F0D2
:104B50009DF9EA2003F0A6F9002003F097F9002060
:104B600003F094F9C02003F09DF91B2003F08EF9A7
:104B7000C12003F097F9012003F088F9C52003F064
:104B800091F9302003F082F9302003F07FF9C7203B
:104B900003F088F9B72003F079F9362003F082F9A1
:104BA000482003F073F93A2003F07CF9552003F014
:104BB0006DF9B12003F076F9002003F067F91A20AF
:104BC00003F064F9B62003F06DF90A2003F05EF9F2
:104BD000A22003F05BF9F22003F064F9002003F057
:104BE00055F9262003F05EF9012003F04FF9E0208B
:104BF00003F058F90F2003F049F92A2003F046F991
:104C0000282003F043F9082003F040F90E2003F0B8
:104C10003DF9082003F03AF9542003F037F9A920B0
:104C200003F034F9432003F031F90A2003F02EF9A0
:104C30000F2003F02BF9002003F028F9002003F0E7
:104C400025F9002003F022F9002003F01FF9E120EC
:104C500003F028F9002003F019F9152003F016F9E4
:104C6000172003F013F9072003F010F9112003F0C7
:104C70000DF9062003F00AF92B2003F007F956205E
:104C800003F004F93C2003F001F9052003F0FEF8DD
:104C9000102003F0FBF80F2003F0F8F83F2003F09A
:104CA000F5F83F2003F0F2F80F2003F0EFF82B2087
:104CB00003F0F8F8002003F0E9F8002003F0E6F82C
:104CC000012003F0E3F83F2003F0E0F82A2003F08E
:104CD000E9F8002003F0DAF8002003F0D7F800200C
:104CE00003F0D4F8EF2003F0D1F8112003F0DAF844
:104CF0007820FEF727FD292003F0D4F810BD10B569
:104D0000FF2003F0CFF8FF2003F0C0F8982003F055
:104D1000BDF8062003F0BAF8BC2003F0C3F8012068
:104D200003F0B4F80F2003F0B1F8612003F0AEF8FF
:104D3000FF2003F0ABF8012003F0A8F8012003F0F6
:104D4000A5F80B2003F0A2F8102003F09FF83720FD
:104D500003F09CF8632003F099F8FF2003F096F825
:104D6000FF2003F093F8012003F090F8012003F0F6
:104D70008DF8002003F08AF8002003F087F8FF2068
:104D800003F084F8522003F081F8012003F07EF84C
:104D9000002003F07BF8402003F078F8BD2003F0FA
:104DA00081F8012003F072F8232003F06FF845200A
:104DB00003F06CF8672003F069F8012003F066F84F
:104DC000232003F063F8452003F060F8672003F028
:104DD0005DF8BE2003F066F8002003F057F80120CC
:104DE00003F054F8AB2003F051F8602003F04EF8C4
:104DF000222003F04BF8222003F048F8222003F091
:104E000045F8222003F042F8222003F03FF8C720A3
:104E100003F048F8362003F039F8ED2003F042F8AB
:104E20007F2003F033F80F2003F030F8C02003F0A8
:104E300039F80F2003F02AF80B2003F027F80A2096
:104E400003F024F8FC2003F02DF8082003F01EF8EE
:104E5000DF2003F027F8002003F018F8002003F00B
:104E600015F8002003F012F8002003F00FF80020DE
:104E700003F00CF8202003F009F8F32003F012F8F7
:104E8000742003F003F8B42003F00CF8002002F0C3
:104E9000FDFF002002F0FAFF002002F0F7FFF720EC
:104EA00003F000F8822002F0F1FFB12002F0FAFFD7
:104EB000002002F0EBFF132002F0E8FF132002F0C5
:104EC000E5FFF22002F0EEFF802002F0DFFF042079
:104ED00002F0DCFF402002F0D9FF282002F0D6FFCC
:104EE000C12002F0DFFF172002F0D0FF882002F07F
:104EF000CDFF882002F0CAFF202002F0C7FFE0208B
:104F000002F0D0FF002002F0C1FF0A2002F0BEFF35
:104F1000122002F0BBFF102002F0B8FF0E2002F0BA
:104F2000B5FF202002F0B2FFCC2002F0AFFF072037
:104F300002F0ACFF062002F0A9FF0B2002F0A6FF52
:104F40000E2002F0A3FF0F2002F0A0FF0D2002F0C0
:104F50009DFF152002F09AFF102002F097FF00201D
:104F600002F094FFE12002F09DFF002002F08EFF8E
:104F70000B2002F08BFF132002F088FF0D2002F0BF
:104F800085FF0E2002F082FF1B2002F07FFF7120C0
:104F900002F07CFF062002F079FF062002F076FF87
:104FA0000A2002F073FF0F2002F070FF0E2002F0C3
:104FB0006DFF0F2002F06AFF152002F067FF0C2042
:104FC00002F064FF002002F061FF2A2002F06AFF75
:104FD000002002F05BFF002002F058FF012002F0E9
:104FE00055FFDF2002F052FF2B2002F05BFF002074
:104FF00002F04CFF002002F049FF032002F046FFC0
:105000001F2002F043FF3A2002F04CFF552002F02F
:105010003DFF362002F046FF002002F037FF11204E
:1050200002F040FF7820FEF78DFB292002F03AFFC6
:105030001420FEF787FB2C2002F034FF10BD10B5C2
:10504000ED2002F02FFF012002F020FFFE2002F0F1
:105050001DFFEE2002F026FFDE2002F017FF2120C8
:1050600002F014FFF12002F01DFF012002F00EFFFC
:10507000DF2002F017FF102002F008FFC42002F02A
:1050800011FF8F2002F002FFC62002F00BFF00206C
:1050900002F0FCFEE22002F0F9FEE22002F0F6FE51
:1050A000E22002F0F3FEBF2002F0FCFEAA2002F094
:1050B000EDFEB02002F0F6FE0D2002F0E7FE00202B
:1050C00002F0E4FE0D2002F0E1FE002002F0DEFE20
:1050D000112002F0DBFE002002F0D8FE192002F0C1
:1050E000D5FE002002F0D2FE212002F0CFFE0020EB
:1050F00002F0CCFE2D2002F0C9FE002002F0C6FE18
:105100003D2002F0C3FE002002F0C0FE5D2002F050
:10511000BDFE002002F0BAFE5D2002F0B7FE0020C6
:1051200002F0B4FEB12002F0BDFE802002F0AEFE1F
:10513000002002F0ABFE8B2002F0A8FE002002F05F
:10514000A5FE962002F0A2FE002002F09FFEB220F3
:1051500002F0A8FE002002F099FE002002F096FE68
:10516000022002F093FE002002F090FE032002F0E5
:105170008DFE002002F08AFEB32002F093FE002094
:1051800002F084FE002002F081FE002002F07EFE8C
:10519000002002F07BFE002002F078FE002002F0EA
:1051A00075FE002002F072FE002002F06FFE00206B
:1051B00002F06CFE002002F069FE002002F066FEA4
:1051C000002002F063FE002002F060FE002002F0EA
:1051D0005DFE002002F05AFE002002F057FE002083
:1051E00002F054FE002002F051FE002002F04EFEBC
:1051F000002002F04BFE002002F048FE002002F0EA
:1052000045FE002002F042FE002002F03FFEB420E6
:1052100002F048FE8B2002F039FE002002F036FE3C
:10522000962002F033FE002002F030FEA12002F0B2
:105230002DFE002002F02AFEB52002F033FE0220EF
:1052400002F024FE002002F021FE032002F01EFEE8
:10525000002002F01BFE042002F018FE002002F0E5
:1052600015FEB62002F01EFE002002F00FFE002008
:1052700002F00CFEB72002F015FE002002F006FE40
:10528000002002F003FE3F2002F000FE002002F0AA
:10529000FDFD5E2002F0FAFD002002F0F7FD642023
:1052A00002F0F4FD002002F0F1FD8C2002F0EEFD92
:1052B000002002F0EBFDAC2002F0E8FD002002F03F
:1052C000E5FDDC2002F0E2FD002002F0DFFD7020B1
:1052D00002F0DCFD002002F0D9FD902002F0D6FDA6
:1052E000002002F0D3FDEB2002F0D0FD002002F000
:1052F000CDFDDC2002F0CAFD002002F0C7FDB82081
:1053000002F0D0FD002002F0C1FD002002F0BEFD41
:10531000002002F0BBFD002002F0B8FD002002F0EA
:10532000B5FD002002F0B2FD002002F0AFFD00202C
:1053300002F0ACFDBA2002F0B5FD242002F0A6FD7B
:10534000002002F0A3FD002002F0A0FD002002F0EA
:105350009DFDC12002F0A6FD202002F097FD002057
:1053600002F094FD542002F091FD002002F08EFD29
:10537000FF2002F08BFD002002F088FDC22002F029
:1053800091FD0A2002F082FD002002F07FFD042042
:1053900002F07CFD002002F079FDC32002F082FDC6
:1053A0003C2002F073FD002002F070FD3A2002F074
:1053B0006DFD002002F06AFD392002F067FD00203B
:1053C00002F064FD372002F061FD002002F05EFD76
:1053D0003C2002F05BFD002002F058FD362002F078
:1053E00055FD002002F052FD322002F04FFD00205A
:1053F00002F04CFD2F2002F049FD002002F046FD96
:105400002C2002F043FD002002F040FD292002F094
:105410003DFD002002F03AFD262002F037FD00207D
:1054200002F034FD242002F031FD002002F02EFDB8
:10543000242002F02BFD002002F028FD232002F0A2
:1054400025FD002002F022FD3C2002F01FFD00207F
:1054500002F01CFD362002F019FD002002F016FDBE
:10546000322002F013FD002002F010FD2F2002F088
:105470000DFD002002F00AFD2C2002F007FD0020A7
:1054800002F004FD292002F001FD002002F0FEFCE4
:10549000262002F0FBFC002002F0F8FC242002F0A1
:1054A000F5FC002002F0F2FC242002F0EFFC0020CA
:1054B00002F0ECFC232002F0E9FC002002F0E6FC04
:1054C000C42002F0EFFC622002F0E0FC002002F0B9
:1054D000DDFC052002F0DAFC002002F0D7FC84207D
:1054E00002F0D4FC002002F0D1FCF02002F0CEFC4F
:1054F000002002F0CBFC182002F0C8FC002002F0D3
:10550000C5FCA42002F0C2FC002002F0BFFC182061
:1055100002F0BCFC002002F0B9FC502002F0B6FC06
:10552000002002F0B3FC0C2002F0B0FC002002F0DE
:10553000ADFC172002F0AAFC002002F0A7FC952089
:1055400002F0A4FC002002F0A1FCF32002F09EFC7B
:10555000002002F09BFCE62002F098FC002002F004
:1055600095FCC52002F09EFC322002F08FFC00204A
:1055700002F08CFC442002F089FC002002F086FC42
:10558000652002F083FC002002F080FC762002F00F
:105590007DFC002002F07AFC882002F077FC0020DD
:1055A00002F074FCC62002F07DFC202002F06EFCAC
:1055B000002002F06BFC172002F068FC002002F0D3
:1055C00065FC012002F062FC002002F05FFCC720B5
:1055D00002F068FC002002F059FC002002F056FCAA
:1055E000002002F053FC002002F050FCC82002F022
:1055F00059FC002002F04AFC002002F047FC002089
:1056000002F044FC002002F041FCC92002F04AFCF8
:10561000002002F03BFC002002F038FC002002F0E9
:1056200035FC002002F032FC002002F02FFC0020AC
:1056300002F02CFC002002F029FC002002F026FCE5
:10564000002002F023FC002002F020FC002002F0E9
:105650001DFC002002F01AFC002002F017FC0020C4
:1056600002F014FC002002F011FC002002F00EFCFD
:10567000E02002F017FC162002F008FC002002F0E7
:1056800005FC1C2002F002FC002002F0FFFB2120A0
:1056900002F0FCFB002002F0F9FB362002F0F6FBE2
:1056A000002002F0F3FB462002F0F0FB002002F0A5
:1056B000EDFB522002F0EAFB002002F0E7FB642041
:1056C00002F0E4FB002002F0E1FB7A2002F0DEFBB6
:1056D000002002F0DBFB8B2002F0D8FB002002F060
:1056E000D5FB992002F0D2FB002002F0CFFBA820CE
:1056F00002F0CCFB002002F0C9FBB92002F0C6FB8F
:10570000002002F0C3FBC42002F0C0FB002002F026
:10571000BDFBCA2002F0BAFB002002F0B7FBD2208A
:1057200002F0B4FB002002F0B1FBD92002F0AEFB86
:10573000002002F0ABFBE02002F0A8FB002002F00A
:10574000A5FBF32002F0A2FB002002F09FFBE1206A
:1057500002F0A8FB162002F099FB002002F096FB55
:105760001C2002F093FB002002F090FB222002F0AC
:105770008DFB002002F08AFB362002F087FB002020
:1057800002F084FB452002F081FB002002F07EFB4A
:10579000522002F07BFB002002F078FB642002F034
:1057A00075FB002002F072FB7A2002F06FFB0020F4
:1057B00002F06CFB8B2002F069FB002002F066FB1C
:1057C000992002F063FB002002F060FBA82002F0A9
:1057D0005DFB002002F05AFBB92002F057FB0020CD
:1057E00002F054FBC42002F051FB002002F04EFBFB
:1057F000CA2002F04BFB002002F048FBD22002F04E
:1058000045FB002002F042FBD82002F03FFB0020C5
:1058100002F03CFBE02002F039FB002002F036FBF6
:10582000F32002F033FB002002F030FBE22002F014
:1058300039FB052002F02AFB002002F027FB0B2099
:1058400002F024FB002002F021FB1B2002F01EFBD3
:10585000002002F01BFB342002F018FB002002F0B5
:1058600015FB442002F012FB002002F00FFB4F203A
:1058700002F00CFB002002F009FB612002F006FBA5
:10588000002002F003FB792002F000FB002002F070
:10589000FDFA882002F0FAFA002002F0F7FA9720C9
:1058A00002F0F4FA002002F0F1FAA62002F0EEFA7B
:1058B000002002F0EBFAB72002F0E8FA002002F034
:1058C000E5FAC22002F0E2FA002002F0DFFAC72077
:1058D00002F0DCFA002002F0D9FAD12002F0D6FA68
:1058E000002002F0D3FAD62002F0D0FA002002F015
:1058F000CDFADD2002F0CAFA002002F0C7FAF32048
:1059000002F0C4FA002002F0C1FAE32002F0CAFA61
:10591000052002F0BBFA002002F0B8FA0A2002F0DB
:10592000B5FA002002F0B2FA1C2002F0AFFA002013
:1059300002F0ACFA332002F0A9FA002002F0A6FA35
:10594000442002F0A3FA002002F0A0FA502002F056
:105950009DFA002002F09AFA622002F097FA0020E5
:1059600002F094FA782002F091FA002002F08EFA08
:10597000882002F08BFA002002F088FA972002F0CB
:1059800085FA002002F082FAA62002F07FFA0020B9
:1059900002F07CFAB72002F079FA002002F076FAE1
:1059A000C22002F073FA002002F070FAC72002F061
:1059B0006DFA002002F06AFAD12002F067FA0020A6
:1059C00002F064FAD52002F061FA002002F05EFADB
:1059D000DD2002F05BFA002002F058FAF32002F01A
:1059E00055FA002002F052FAE42002F05BFA01209E
:1059F00002F04CFA002002F049FA012002F046FAC7
:105A0000002002F043FA022002F040FA002002F0E7
:105A10003DFA2A2002F03AFA002002F037FA3C2040
:105A200002F034FA002002F031FA4B2002F02EFA94
:105A3000002002F02BFA5D2002F028FA002002F08C
:105A400025FA742002F022FA002002F01FFA8420C6
:105A500002F01CFA002002F019FA932002F016FA64
:105A6000002002F013FAA22002F010FA002002F047
:105A70000DFAB32002F00AFA002002F007FABE2065
:105A800002F004FA002002F001FAC42002F0FEF94C
:105A9000002002F0FBF9CD2002F0F8F9002002F01E
:105AA000F5F9D32002F0F2F9002002F0EFF9DD2041
:105AB00002F0ECF9002002F0E9F9F32002F0E6F937
:105AC000002002F0E3F9E52002F0ECF9002002F0FA
:105AD000DDF9002002F0DAF9002002F0D7F9002009
