:020000040800F2
:100000009804002049010008E1060008D90600080C
:10001000DD060008D3060008D5080008000000002F
:100020000000000000000000000000000F070008B2
:10003000D7060008000000000D070008110700089F
:100040006301000863010008630100086301000800
:1000500063010008630100086301000863010008F0
:1000600063010008630100086301000863010008E0
:1000700063010008630100086301000863010008D0
:1000800063010008630100086301000863010008C0
:1000900063010008630100086301000863010008B0
:1000A00063010008630100086301000863010008A0
:1000B0006301000863010008630100086301000890
:1000C0006301000863010008630100086301000880
:1000D000630100086108000863010008630100086B
:1000E0006301000863010008630100086301000860
:1000F0006301000863010008630100086301000850
:10010000630100086301000863010008630100083F
:10011000630100086301000863010008630100082F
:10012000630100086301000863010008630100081F
:10013000DFF810D000F04CFA004800471116000814
:10014000AFF3008098040020064880470648004727
:10015000FEE7FEE7FEE7FEE7FEE7FEE7FEE7FEE777
:10016000FEE7FEE719070008310100082DE9F05FFE
:100170000546002092469B46884606468146402416
:100180001BE0284641464746224600F058F85346B1
:100190005A46C01A914110D311461846224600F023
:1001A0003FF82D1A67EB01084F4622460120002137
:1001B00000F036F817EB00094E41201EA4F10104AF
:1001C000DFDC484631462A464346BDE8F09F00F052
:1001D000004230F000400AD0C10D01F56071C0F35B
:1001E000160042EA0151C20840071143704700203F
:1001F0000146704730B50B460146002020220124FD
:1002000009E021FA02F59D4205D303FA02F5491BE4
:1002100004FA02F52844151EA2F10102F1DC30BDFA
:10022000202A04DB203A00FA02F1002070479140B6
:10023000C2F1200320FA03F3194390407047202AAB
:1002400004DB203A21FA02F00021704721FA02F380
:10025000D040C2F1200291400843194670472DE971
:10026000FE4F804681EA0300C00F0C46009021F04B
:10027000004123F00045B8EB0200A94105D24046F9
:10028000214690461C460B46024623F00040104390
:1002900047D0270DC7F30A00C3F30A510290401A52
:1002A000019040286BDAC3F3130040F4801B0098E0
:1002B000924620B10023D2EB030A63EB0B0B0198AB
:1002C0005946C0F140025046FFF7AAFF06460D46C8
:1002D00050465946019A00F08DF910EB0800614133
:1002E000002487EA115284EAE7731A4340D0009A47
:1002F00062B3019A012A4FEA075215DC001B61EB39
:1003000002014FF0004202EA0752CDE90042001C10
:1003100041F5801132462B4600F08DF903B0BDE85F
:10032000F08F40462146F9E7001B61EB0201001CFB
:1003300041F5801300185B412018A2F5001747EB28
:10034000030140EAD570B6196D4111E06D084FEA1E
:10035000360645EAC0754FEA0752001B61EB020101
:10036000001C41F5801149084FEA30000019514145
:1003700032462B4603B0BDE8F04F00F04DB900986F
:10038000012240000023D0EB020263EBE0730098EF
:1003900021464FEAE074B8EB000061EB0401E9E7A5
:1003A00083F000435BE781F0004158E72DE9FE4F01
:1003B00081EA030404F0004421F0004100944FF06E
:1003C000000B23F0004350EA01045ED052EA03041C
:1003D0005BD0C3F30A54C1F30A552C44A4F2F3349E
:1003E0000194A0FB0254C1F3130141F48011C3F343
:1003F000130343F4801301FB024400FB034E840A01
:10040000970A44EA815447EA8357A4FB0768029598
:100410008D0A05FB07854FEA932C04FB0C54270536
:10042000029D4FEA065847EA1637B5EB08056EEB12
:10043000070C870E920E47EA811742EA8312A7FB48
:100440000201B6EB0B0164EB00042B0D43EA0C3305
:100450005E1844EB1C50DA465146E7FB0201C5F337
:1004600013044FEA0B3343EA14534FEA0432019C5E
:1004700043EA0603A4F10C040294009CCDE900B405
:1004800000F0D9F803B0BDE8F08F00200146F9E78D
:100490002DE9F04D81EA030404F0004B21F0004502
:1004A00014464FF0000A23F0004150EA050220D024
:1004B00054EA01021DD0C5F30A570246C5F31303DF
:1004C000C1F31300C1F30A5640F4801543F48013BE
:1004D000A7EB0608101BD64608F2FD3873EB0500A3
:1004E00002D308F1010801E092185B41B8F1000F56
:1004F00003DA00200146BDE8F08D00204FF48011A2
:10050000064684460EE0171B73EB050705D3121B46
:1005100063EB050306434CEA010C49084FEA30003F
:1005200092185B4150EA0107EDD152EA030012D064
:1005300082EA040083EA0501084305D0101BAB41A1
:1005400006D20122002306E000224FF0004302E021
:100550006FF0010253101AEB06004CEB085110EB40
:100560000A0041EB0B01BDE8F04D00F055B8C1F3B6
:100570000A52C1F3130140F2FF3341F480119A4251
:1005800002DA00200146704740F233439A42A2F259
:10059000334202DC5242FFF752BEFFF741BE000079
:1005A00030B5041E71F1000404DB4FF000444042FA
:1005B00064EB0101141E73F1000405DB1C464FF0CF
:1005C0000043524263EB0403994208BF904230BD9E
:1005D000064C074D06E0E06840F0010394E8070090
:1005E00098471034AC42F6D3FFF7A6FD442B000821
:1005F000642B0008202A06DBCB17203A41FA02F0D0
:1006000043EAE07306E041FA02F3D040C2F120026F
:10061000914008431946704710B5141E73F1000449
:1006200008DA401C41F1000192185B411A4301D1E4
:1006300020F0010010BD2DE9F04D92469B4611B10E
:10064000B1FA81F202E0B0FA80F220329046FFF770
:10065000E7FD04460F4640EA0A0041EA0B01534613
:100660005A46084313D0114653EA010019D0C8F185
:1006700040025046FFF7E3FD05460E4650465946F8
:100680004246FFF7CDFD084305D0012004E0204697
:100690003946BDE8F08D0020054346EAE0762C435C
:1006A00037430A986305E40AA0EB08000022FD0A1C
:1006B00044EA47540A3002D500200146E9E7010523
:1006C00010196941DDE9084500196941BDE8F04D9F
:1006D000A2E700BFFEE7704700BFFEE700BFFEE7EE
:1006E0007047000010B5002807DA0A07140E054A03
:1006F00000F00F031B1FD45403E00A07130E024A35
:10070000135410BD18ED00E000E400E0704770479E
:1007100010B500F0A3FE10BD1CB54E48006840F4B3
:1007200070004C4908604C48006840F001004A499C
:10073000086000BF4848006800F002000028F9D0B7
:100740004548406800F00C00082866D100BF002032
:10075000019002E00198401C019001985028F9D3C3
:100760003D4840680090009820F0F000009000980C
:1007700040F08000009038490098486000200190C7
:1007800002E00198401C019001985028F9D33248AA
:1007900040680090009820F0F0000090009840F031
:1007A000900000902C49009848600020019002E0E1
:1007B0000198401C019001985028F9D326484068C0
:1007C0000090009820F0F0000090009840F0A00009
:1007D00000902149009848600020019002E00198B3
:1007E000401C019001985028F9D31B4840680090A4
:1007F000009820F0F0000090009840F0B0000090C9
:100800001549009848600020019002E00198401CC2
:10081000019001985028F9D300BF0F48406820F09C
:1008200003000D494860C82000F0BBFC0A4800687E
:100830000A490840084908604FF47F00886008466C
:10084000006820F48020086000204860C86201F041
:10085000C3FB1CBD88ED00E000100240FFFFF6EA7C
:1008600010B51749174801F08CFE40B3154801F048
:1008700001FEC4B20A2C01D00D2C0FD10020124968
:10088000124A126888541248006818B10878104952
:100890000968884700200D4908600FE00B48006890
:1008A0007F2808DA094801680068401C074A106080
:1008B0000548445402E000200449086000BF10BD10
:1008C0000503050000380140180000200400002046
:1008D0000C00002000BFFEE70FB4054B10B503A9C4
:1008E000044A029800F0DAF810BC5DF814FB00002E
:1008F000891400081400002002E008C8121F08C173
:10090000002AFAD170477047002001E001C1121F90
:10091000002AFBD1704700002DE9FF5F82B0002163
:10092000DDE90430020DDDF840B0034318D044F691
:100930001050A2F2FF3242431514119801281FD023
:10094000A5EB0B00401C5FEA000A4FF000064E4F7B
:10095000DFF83891B046504615D5CAF1000413E0CF
:10096000119801244AA3012801D16FEA0B010298D2
:10097000119AC0E90031C0E9024206B0BDE8F09F1B
:10098000CBF10000DFE704460021404A491842EB62
:100990000450CDE9001012E0E00707D032463B4694
:1009A00040464946FFF702FD8046894632463B46AF
:1009B00010461946FFF7FAFC06460F466410002C55
:1009C000EAD1DDE90401DDE90023BAF1000F06DA1E
:1009D000FFF7ECFC42464B46FFF7E8FC05E0FFF76B
:1009E00057FD42464B46FFF753FD04460E46002294
:1009F000284BFFF7D5FD03D84FF0FF30014607E045
:100A00000022254B20463146FFF729FCFFF7AFFDBA
:100A1000102409E0002C0ADB0A220023FFF7A6FBC2
:100A2000039B30321A55641E50EA0102F2D1641C55
:100A3000039AC4F111031444119A012A03D001222C
:100A400008430DD10AE0084304D000204FF0110BF9
:100A5000119072E7A3EB0B056D1E0DE05B4504DD05
:100A60004FF0000205F1010504E003DA4FF0000247
:100A7000A5F10105002AECD002981199C0E90231D4
:100A8000C0E9004579E70000000014400000F03F95
:100A9000300000000000F0430000E03F2DE9FF4F70
:100AA00095B09A46884606460025EEE1252877D17E
:100AB00000242746F94A0121039400E0044316F874
:100AC000013F203B01FA03F01042F7D130782A2889
:100AD00011D06FF02F033078A0F13002092A16D818
:100AE000039A44F0020402EB820203EB4202104438
:100AF000761C0390EFE758F8042B0392002A03DAE0
:100B0000504244F40054039044F00204761C3078C0
:100B10002E2816D116F8010F44F004042A280DD00F
:100B20006FF02F023078A0F13003092B09D807EBC2
:100B3000870302EB4303C718761CF3E758F8047BDE
:100B4000761C30786C280FD006DC4C2817D068282B
:100B50000DD06A2814D104E0742810D07A280FD15F
:100B60000DE044F400140AE044F4801401E044F47D
:100B700040147278824202D104F58014761C761CEF
:100B8000307866280BD013DC582877D009DC002891
:100B900075D04528F6D04628F4D047281AD193E1DD
:100BA00018E0632835D0642879D0652812D18BE10C
:100BB000702873D008DC6728F1D069286FD06E28C0
:100BC0000DD06F2806D1ACE073282CD0752874D0D6
:100BD000782853D05246179990476D1C54E1C4F3BE
:100BE0000250022809D003280DD0D8F8001004289C
:100BF0000DD00D6008F1040846E1D8F80010EA179E
:100C0000C1E90052F6E7D8F800100D80F2E70D7048
:100C1000F0E718F8041B8DF8001000208DF8010093
:100C2000EB46012003E058F804BB4FF0FF306107AA
:100C30004FF0000102D40DE009F101018946B942EB
:100C40000FDA8145F8DB1BF809100029F4D108E020
:100C500009F1010189468142FADB1BF809100029DC
:100C6000F6D103985346A0EB090721463846179A58
:100C700000F080FA284400EB090507E044E008E1B1
:100C80000DE01BF8010B524617999047B9F1010985
:100C9000F7D2534621463846179AF2E039E00A2146
:100CA000C4F302524FF0000B0091022A06D058F80C
:100CB000040BC117032A09D00AE023E008F107005A
:100CC00020F00702F2E80201904605E000B2C117E9
:100CD000042A01D140B2C117002906DA0A460021D0
:100CE000404261EB02012D2202E0220504D52B22B5
:100CF0008DF80420012203E0E20701D02022F7E76B
:100D0000914657E00A2100E010214FF0000B0091BE
:100D10000BE010214FF0000B44F004040827009171
:100D200003E008204FF0000B0090C4F30252022AA7
:100D300005D058F8040B0021032A08D008E008F178
:100D4000070020F00702F2E80201904603E080B2BB
:100D5000042A00D1C0B24FF0000922072AD5327808
:100D6000702A07D0DDF800C08CF0100C5CEA0B0C88
:100D700005D00EE040228DF80420012208E050EA60
:100D8000010306D030238DF804308DF805200222AF
:100D90009146009B83F0080353EA0B030AD150EA03
:100DA000010201D1620705D530228DF804204FF0F1
:100DB00001097F1E3278582A04D039A20C920CAA5D
:100DC00002920BE03BA2F9E75B46009AFFF7CEF9EF
:100DD0000C9B9B5C029A521E0292137050EA010215
:100DE000F2D1029804A9081A00F1200B600702D57D
:100DF00024F4803400E001275F4502DDA7EB0B00FF
:100E000000E0002000EB0B01009003984944401AD9
:100E10000390E00306D453462146179A039800F046
:100E2000A9F90544002706E001A85246C05D1799BC
:100E300090476D1C7F1C4F45F6DBE0030CD55346F5
:100E40002146179A039800F095F9054404E03020F4
:100E50005246179990476D1C0099481E0090002932
:100E6000F5DC08E00298029952460078491C02918C
:100E7000179990476D1CBBF10001ABF1010BF1DC40
:100E80005BE100F065F90544761C307800287FF4BA
:100E90000DAE19B02846BDE8F08F0000092801000A
:100EA00030313233343536373839616263646566E0
:100EB00000000000303132333435363738394142A2
:100EC0004344454600000000600700D4062708F1AF
:100ED000070020F00700F0E80223804603F0004CF2
:100EE0005FEA0C0001D097A009E0200501D596A08B
:100EF00005E0E00701D095A001E0AFF24C001390AF
:100F0000307823F0004365280CD006DC452809D052
:100F100046281DD047287FD13BE0662818D0672897
:100F20007AD136E00021112F01DB112000E0781C7E
:100F3000CDE9000104A90CA8FFF7EEFCDDE90D01E5
:100F40000C9A4FF0000B07F10109109200914EE04E
:100F50004FF000400097CDE9011004A90CA8FFF75D
:100F6000DBFCDDE90D020C9B0F994FF0000B914665
:100F70001093009211B9791C00EB0109B7EB09003D
:100F800003D4C0F1FF3B07F10109A9EB0700019071
:100F900042E0012F00DA01270021112F01DD11208D
:100FA00000E03846CDE9000104A90CA8FFF7B4FC25
:100FB000DDE90D010C9A00914FF0000BB94610923B
:100FC00021070FD4009A4A4503DA914601E0A9F1BE
:100FD0000109B9F1010F05DD109AA9F10101515C78
:100FE0003029F4D0B84202DA10F1040F03DA0121FB
:100FF000CDE9011010E0002803DC8344A9EB0001D7
:1010000002E0411C494500DD8946A0EB0B00401C75
:1010100001904FF000400290200705D40198484508
:1010200002DB4FF0FF30019000208DF84B0002985A
:101030000DF14B07B0F1004F25D002200C902B2072
:101040000D90029800280CDA404202902D200D905D
:1010500007E00A210298FFF7CDF83031029007F837
:10106000011D0C99481E0C900029F2DC0298002802
:10107000EFD1791E0D980870307800F0200040F014
:10108000450007F8020D11A8C01BC01D029013985F
:10109000007800B1012000EB0901019801EBE0713B
:1010A000029801440398401A401E0390E00306D4BE
:1010B00053462146179A039800F05CF805441398AC
:1010C000007818B15246179990476D1CE00323D55C
:1010D00053462146179A039800F04CF805441BE04C
:1010E000BBF1000F07DB0098584504DD10981799F5
:1010F00010F80B0001E017993020524690470198F4
:101100000BF1010B401E05F10105019004D12E20C9
:101110005246179990476D1CB9F10001A9F10109D8
:10112000DEDC05E017F8010B5246179990476D1C5D
:101130000299481E02900029F4DC53462146179A72
:1011400003989EE62D0000002B0000002000000008
:101150002DE9F041044600251E461746880404D4B4
:1011600005E039462020B0476D1C641EF9D528469D
:10117000BDE8F0812DE9F041044600251E46904669
:10118000C80301D5302700E02027880404D505E0F6
:1011900041463846B0476D1C641EF9D52846BDE867
:1011A000F08108B50021009102E00099491C0091EE
:1011B00000EB8001009AB2EB410FF6D308BD8168C5
:1011C00041F00801816000BF816801F00801002939
:1011D000FAD1816841F00401816000BF816801F0AB
:1011E00004010029FAD1704730B5012902D0022943
:1011F0001AD10CE0C36A23F47003C362C36A541E9D
:101200004FF4700505EA04542343C3620DE0836B79
:1012100023F440138363836B541E4FF4401505EA97
:1012200004542343836300E000BF00BF30BD21B1FD
:10123000826842F40062826003E0826822F4006205
:101240008260704710B504460D48204418B1B0F5CF
:10125000806F12D108E040F2093000F03BFD40F20F
:10126000093000F027FD09E040F20A3000F032FDBD
:1012700040F20A3000F01EFD00E000BF00BF10BDCC
:1012800000DCFEBF816801F0010119B9816841F0FD
:1012900001018160704772B101F001031BB18368E5
:1012A00043F48013836001F0020393B1836843F435
:1012B000004383600DE001F001031BB1836823F458
:1012C0008013836001F002031BB1836823F40043A1
:1012D00083607047012902D0022910D107E083689A
:1012E00023F46023836083681343836008E083688A
:1012F00023F4E043836083681343836000E000BF0E
:1013000000BF70470246002013680B4003B1012064
:10131000704700000549096821F47021034A1160F3
:101320001146096801431160704700000424014020
:10133000F0B51D4606290CD2436B01EB81071F2631
:10134000BE40B34301EB810602FA06F63343436322
:1013500022E00C290ED2036B8E1F06EB86071F2698
:10136000BE40B3438E1F06EB860602FA06F63343F1
:10137000036311E010290FD2C36AA1F10C0606EB3A
:1013800086071F26BE40B343A1F10C0606EB860676
:1013900002FA06F63343C3620A2A0CD2046902EB4E
:1013A00042070726BE40B44302EB420605FA06F6A2
:1013B0003443046111E0122A0FD2C468A2F10A0674
:1013C00006EB46070726BE40B443A2F10A0606EB29
:1013D000460605FA06F63443C460F0BD0146C86C03
:1013E00080B2704701F001021AB1826842F48002B3
:1013F000826001F002021AB1826842F40012826037
:101400007047AAB101F480731BB1436843F4807341
:10141000436001F480631BB1436843F4806343601D
:1014200001F00203CBB1836843F00203836014E050
:1014300001F480731BB1436823F48073436001F4AB
:1014400080631BB1436823F48063436001F00203AF
:101450001BB1836823F0020383607047044800686F
:1014600020B103480068401E014908607047000031
:10147000100000200349086000BF024909680029E4
:10148000FBD170471000002070B504460D46E1B254
:10149000054800F0F4FF00BF0721034801F041F8C0
:1014A0000028F9D0204670BD0038014041617047E6
:1014B00001617047F0B5044616460025002201F090
:1014C0000F0501F0100747B1042E05D145F00305C3
:1014D000E76B1F43E76300E0354300201EE0012770
:1014E00087401F40C7B122684FEA800C0F2707FAD8
:1014F0000CF7BA43870005FA07F73A43282904D1C5
:10150000012787401F40676105E0482903D1012773
:1015100087401F4027612260471CB8B20828DED3ED
:10152000082022E0012787401F40E7B16268A0F150
:1015300008074FEA870C0F2707FA0CF7BA43A0F108
:101540000807BF0005FA07F73A43282904D1012705
:1015500087401F40676105E0482903D10127874084
:101560001F4027616260471CB8B21028DAD3F0BD73
:1015700002469068084008B1012070470020FCE74F
:10158000F0B50A46002300240021002500F00046A3
:10159000B6F1004F02D11D4EF16901E01B4E71689A
:1015A000C0F3034583B200F44016B6F5401F08D1DE
:1015B00021F0E061154E766826F0E066134F7E60FC
:1015C00012E000F48016B6F5801F06D1032606FA55
:1015D00005F4A14341F0E06106E0460D360103FA4F
:1015E00006F6B14341F0E06122B1460D360103FA3F
:1015F00006F6314300F00046B6F1004F02D1034E2B
:10160000F16101E0014E7160F0BD00000000014099
:101610002DED028B00F0E4FC4FF4FA70FFF72AFF87
:1016200000F0F8FF00F0B4F84FF4E13000F078FB80
:1016300023A0FFF751F9244800F0CEFE00F0C6F9D0
:101640003CE000F00FFA044600EE104AB8EE400A03
:101650009FED1E1AC0EE010A9FED1D0A20EE800AC2
:1016600010EE105A2846FEF7B2FD41EC180B53EC71
:10167000182B214617A0FFF72FF91EA000F0B4FB8E
:1016800022A0FFF729F921A000F0AEFB4FF47A70F9
:10169000FFF7F0FE23A0FFF71FF927A0FFF71CF9C3
:1016A00000F0FAF82AA0FFF717F92EA0FFF714F9B7
:1016B00001F0AEF831A0FFF70FF900BFC1E700005D
:1016C00068656C6C6F0D0A00CD18000800F07F454E
:1016D00033335340504333204144433A2025752C43
:1016E00020766F6C746167653D252E336620560D3C
:1016F0000A000000504333204144432073616D7061
:101700006C6520646F6E650D0A0000005365726998
:10171000616C20746573742073746172742E2E2E44
:101720000D0A000053657269616C20746573742042
:10173000656E642E0D0A00004D6F746F7220746523
:1017400073742073746172742E2E2E0D0A000000C3
:101750004D6F746F72207465737420656E642E0D06
:101760000A00000056616C766520746573742073FE
:10177000746172742E2E2E0D0A00000056616C7674
:1017800065207465737420656E642E0D0A00000078
:1017900000B587B040F2026000F07CFA40F20B60C6
:1017A00000F078FA4FF4C06000F074FA4FF48073E0
:1017B000032218212448FFF77DFE03A800F000FE55
:1017C000684600F098FD7720ADF80C000020ADF8D9
:1017D0000E00ADF8100040F2E73005900020ADF8A3
:1017E00012008DF8180003A9184800F091FD01209F
:1017F000ADF800000020ADF80200ADF80400ADF82F
:101800000600ADF80800ADF80A006A4600210F484E
:1018100000F00EFC602200210C4800F0FFFC0022CA
:1018200011460A4800F03AFD4FF4E17200210748E2
:1018300000F021FD0121054800F0B6FD034800F04D
:1018400062FD07B000BD000000080140002C01400F
:1018500070B50446642C00DD642440F2E730604338
:10186000642190FBF1F085B22A460021014800F086
:1018700002FD70BD002C014010B5044624B90421BE
:101880000448FFF713FE03E004210248FFF710FEAF
:1018900010BD0000000C014010B5002000F0B0FAAF
:1018A0003220FFF7D5FF4FF4FA60FFF7E3FD012088
:1018B00000F0A6FA4B20FFF7CBFF4FF4FA60FFF7DA
:1018C000D9FD0020FFF7C4FF10BD000010B504468D
:1018D000024903A0FFF700F810BD00001800002027
:1018E0005265637620737472696E673A2025730DB2
:1018F0000A0000002DE9F04103460D46164600247B
:101900000027A0462A48006800F4E060B0F5E06FC8
:1019100003D100BF4FF0040830E02548006800F410
:10192000E060B0F5C06F03D101274FF0030825E058
:101930001F48006800F4E060B0F5A06F02D10227F4
:10194000B8461BE01A48006800F4E060B0F5806F0C
:1019500003D103274FF0010810E01548006800F498
:10196000E060B0F5407F03D104274FF0000805E0A8
:101970004FF4A06000F020F80227B846C7F1040039
:1019800005FA00F4C8F104010F20C84030400443B8
:1019900024010848C45403F01F0101208840591154
:1019A000890001F1E021C1F80001BDE8F0810000EB
:1019B0000CED00E000E400E002490143024A11603E
:1019C000704700000000FA050CED00E010B540F291
:1019D000046000F05FF940F2096000F05BF9082351
:1019E000032200211D48FFF765FD1D48FFF72AFC73
:1019F0000020FFF78FFC00224FF480711848FFF79A
:101A000000FD002202211648FFF7FBFC4FF4602284
:101A100001211348FFF75EFC002201211048FFF767
:101A20003AFC00210E48FFF702FC012211460C4847
:101A3000FFF7DAFB07230D2200210948FFF778FCA6
:101A4000032000F021F80648FFF71CFC0120FFF7F7
:101A500011FD0348FFF7B3FB10BD0000001001406B
:101A60000024014010B501210648FFF7BBFC00BF70
:101A700002210448FFF746FC0028F9D00148FFF78F
:101A8000ADFC10BD00240140184B5968184B19409B
:101A9000164BDA6A22F000520C2820D2DFE800F060
:101AA000060708091F0C1F0D1516171800BF00BFE9
:101AB00000BF41EA803113E000BF20F004004FF086
:101AC000805343EA803319430AE000BF00BF00BFE0
:101AD00020F00C0041EA803142F0005200E000BFEB
:101AE00000BF024B5960DA627047000000100240EC
:101AF000FF3FFFEF2DE9F14F8EB000200C905CA06E
:101B000090E8004CC068CDE905BECDF810A0079064
:101B100058A0D0F804A00068CDE9020A0FF2541AC8
:101B2000DAE9000ACDE9000A55484068C0F38100AF
:101B30000D900D9820B1012804D0022863D103E054
:101B4000504B62E0504B60E04D48406800F48039F3
:101B5000B9F5803F2FD14A48C06A00F080400B9011
:101B60000B9808B9484A00E0484A4548C06A00F462
:101B700080300A900A98B0F5803F12D14048C06A80
:101B8000C0F30310401C08903D48C06AC0F3032016
:101B9000871C112F00D114270898B2FBF0F000FB2E
:101BA00007F23748C06A00F00F00401C09900998FE
:101BB000B2FBF0F200E0364A31484068C0F383419E
:101BC0002F48406800F0005008B141F010012C4847
:101BD000406800F0804008B141F020010F2901D297
:101BE000891C06E00F2903D33E2901D8491C00E0D7
:101BF0003F2102FB01F30F2904D102EB4200400018
:101C000000EB520301E01F4B00BF00BF1C484068BF
:101C1000C0F3031504A8465D23FA06F4184840688B
:101C2000C0F3022502A8465D24FA06FC1448406869
:101C3000C0F3C2251DF8056024FA06F80E9830B1ED
:101C4000012806D0022806D003280AD106E00C930A
:101C500008E00C9406E0CDF830C003E0CDF8308009
:101C600000E000BF00BF0C980FB0BDE8F08F00008F
:101C7000000000000000000001020304060708093C
:101C80000010024000127A0040787D01006CDC02F6
:101C900000093D00064A02EB9011096800F01F039D
:101CA00001229A401143024B03EB901211607047DE
:101CB00000100240064A02EB9011096800F01F0371
:101CC00001229A409143024B03EB9012116070473E
:101CD00000100240064A02EB9011096800F01F0351
:101CE00001229A401143024B03EB9012116070479E
:101CF0000010024010B5044634B1012C0AD1810213
:101D00000648FFF7D5FB06E04FF480610348FFF774
:101D1000CDFB00E000BF00BF10BD00000008014087
:101D200010B5044640F20360FFF7B4FF40F20E60C6
:101D3000FFF7B0FF4FF4C060FFF7ACFF01210420B4
:101D4000FFF71EFC4023032218211D48FFF7B2FBBA
:101D50008023032204211A48FFF7ACFB194800F046
:101D600093FB2146174800F03DFB0021154800F089
:101D700048FC0021134800F032FC0021114800F01B
:101D80001CFC00210F4800F0E5FB00210D4800F08D
:101D9000D7FB08210B4800F02AFC0421094800F079
:101DA00014FC084800F0B8FB40F20531054800F08B
:101DB000DBFB002211462520FFF79CFD10BD000033
:101DC000000C01400038014010B50446214605488A
:101DD00000F055FB00BF0721024800F0A2FB0028DD
:101DE000F9D010BD0038014010B5044603E020785A
:101DF000FFF7EAFF641C20780028F8D110BD00002E
:101E000010B504460020FFF723FD4FF4007106488B
:101E1000FFF74CFB2046FFF72FFD4FF400710248FF
:101E2000FFF746FB10BD00000008014070B50546F5
:101E30000C46012D02D0022D28D113E0012C04D133
:101E400021021448FFF734FB0BE0022C04D1E1011E
:101E50001048FFF72BFB04E04FF480710D48FFF7AB
:101E600025FB14E0012C04D161020A48FFF720FB96
:101E70000BE0022C04D121020648FFF717FB04E017
:101E80004FF400710348FFF711FB00E000BF00BFF3
:101E900070BD00000010014008B500200021484A34
:101EA000126842F48032464B1A6000BF401C444A1C
:101EB000126802F4003119B94FF6FF729042F5D161
:101EC0003F4A126802F400320AB900BFFEE73C4AFA
:101ED000D26942F080523A4BDA613A4A126842F4CF
:101EE0004042384B1A60364A5268354B5A601A469F
:101EF00052685A601A46526842F480625A601A4622
:101F00005268314B1A402E4B5A601A4652682F4B7A
:101F10001A432B4B5A601A46D26A2D4B1A40284B53
:101F2000DA621A46D26A2B4B1A43254BDA621A46FA
:101F3000126842F080621A6000BF214A126802F003
:101F40000062002AF9D01E4A126842F080721C4BCF
:101F50001A6000BF1A4A126802F00072002AF9D013
:101F6000184A126842F48032164B1A6000BF154AB4
:101F7000526802F48032002AF9D0124A126842F400
:101F80000032104B1A6000BF0E4A526802F4003251
:101F9000002AF9D00A4A52680092009A22F00302FD
:101FA0000092009A42F002020092054B009A5A6099
:101FB00000BF034A526802F00802002AF9D008BDA7
:101FC0000010024000700040FFFFC39F000035205A
:101FD00000F0FEBF4906010010B5FFF75DFF10BD20
:101FE00010B5124800684FF47A71B0FBF1F4601E2E
:101FF000B0F1807F01D301200FE0601E4FF0E0219F
:1020000048610F214FF0FF30FEF76CFB00204FF0CE
:10201000E021886107200861002008B100BFFEE7C9
:102020000021481EFEF75EFB10BD000000000020EE
:1020300010B531B101293FD002297DD003297CD1CF
:10204000BFE0036A23F001030362836923F0030303
:102050008361036A148823430362036A23F0020343
:102060000362036A9488234303626A4B984202D056
:10207000694B98421FD1036A23F004030362036A89
:10208000548823430362036A23F008030362036A4C
:10209000D48823430362436823F480734360436816
:1020A000148923434360436823F400734360436807
:1020B000548923434360ABE0036A23F010030362B7
:1020C000836923F440738361036A148843EA041329
:1020D0000362036A23F020030362036A948843EADD
:1020E000041303624B4B984202D04B4B984226D1CB
:1020F000036A23F040030362036A548843EA04132B
:102100000362036A23F080030362036AD48843EA0C
:1021100004130362436823F48063436043681489B3
:1021200043EA84034360436823F4006343604368E5
:10213000548943EA840301E002E068E0436067E019
:10214000036A23F480730362C36923F00303C3614A
:10215000036A148843EA04230362036A23F40073C6
:102160000362036A948843EA04230362294B98427A
:1021700002D0294B984223D1036A23F4806303627F
:10218000036A548843EA04230362036A23F4006366
:102190000362036AD48843EA04230362436823F496
:1021A000805343604368148943EA041343604368DF
:1021B00023F4005343604368548943EA04134360A3
:1021C00026E0036A23F480530362C36923F4407357
:1021D000C361036A148843EA04330362036A23F485
:1021E00000530362036A948843EA04330362094B91
:1021F000984202D0084B984208D1436823F48043A8
:1022000043604368148943EA8413436000E000BFDD
:1022100000BF10BD002C01400034014031B1012944
:102220000CD0022913D0032922D118E0836923F0AE
:10223000700383618369134383611AE0836923F424
:10224000E0438361836943EA0223836111E0C36948
:1022500023F07003C361C3691343C36109E0C36919
:1022600023F4E043C361C36943EA0223C36100E08E
:1022700000BF00BF704731B1012906D0022906D046
:10228000032908D105E0426306E0826304E0C263EB
:1022900002E0026400E000BF00BF704731B10129D5
:1022A0000CD0022913D0032922D118E0836923F02E
:1022B000080383618369134383611AE0836923F40C
:1022C00000638361836943EA0223836111E0C36988
:1022D00023F00803C361C3691343C36109E0C36901
:1022E00023F40063C361C36943EA0223C36100E0CE
:1022F00000BF00BF70470021018041808180C18004
:10230000018141817047016841F00101016070471E
:102310000A8882621D4A90420ED0B0F1804F0BD0E5
:102320001B4A904208D01B4A904205D01A4A90425C
:1023300002D01A4A90420BD1026822F07002026069
:1023400002684B881A43026002688B881A43026055
:102350008A68C262124A90420AD0124A904207D05A
:10236000026822F4407202600268CB881A4302605D
:10237000064A904202D0094A904201D10A7B026388
:10238000426942F00102426170470000002C0140A6
:102390000004004000080040000C004000340140F0
:1023A0000010004000140040012904D1426C42F4A6
:1023B0000042426403E0426C22F4004242647047EF
:1023C00000210180418081804FF6FF7181600021F2
:1023D000C180017370470000014908607047000028
:1023E0000C0000202DE9F04704460D460027B846B2
:1023F000B94600261D49601A8C421CD006DC1C48D8
:10240000204470B1B0F5806F1FD10FE0B0F5806F40
:1024100016D0B0F56C4F18D10320FFF76BFB0746C1
:1024200014E00220FFF766FB07460FE00220FFF7EB
:1024300061FB07460AE00220FFF75CFB074605E068
:102440000220FFF757FB074600E000BF00BF07EB85
:102450005500B0FBF5F64FF6F07006EA000806F0FE
:102460000F0948EA0900A060BDE8F087004C004071
:1024700000BCFFBF01464868C0F308007047C1F3C5
:10248000080242607047000010B504462049601AF7
:102490008C4228D006DC1F48204490B1B0F5806FF4
:1024A00033D117E0B0F5806F26D0B0F56C4F2CD14A
:1024B00040F20E30FFF70EFC40F20E30FFF7FAFB51
:1024C00024E040F21140FFF705FC40F21140FFF715
:1024D000F1FB1BE040F21240FFF7FCFB40F2124020
:1024E000FFF7E8FB12E040F21340FFF7F3FB40F286
:1024F0001340FFF7DFFB09E040F21440FFF7EAFB6F
:1025000040F21440FFF7D6FB00E000BF00BF10BD53
:10251000004C004000BCFFBFC16841F40051C160E5
:10252000704710B5024602EB9110006801F01F04DD
:102530000123A340184008B1012010BD0020FCE792
:10254000426922F400724261426901F400731A4345
:1025500042617047426922F480724261426901F42B
:1025600080731A434261704710B500EB91121268F4
:1025700001F01F040123A3401A4300EB91131A60DA
:1025800010BD70B5024600230024C1F38910105815
:1025900001F01F060125B54000EA050302EB91504A
:1025A0000068C1F304460125B54000EA050414B1F2
:1025B0000BB1012070BD0020FCE7C26822F4C062AC
:1025C000C260C2680A43C2607047C26822F0040257
:1025D000C260C26801F004031A43C2607047026916
:1025E00022F44052026102690A4302617047C268E4
:1025F00022F00802C260C26801F008031A43C260F8
:102600007047C26822F48052C260C2680A43C26046
:102610007047000010B54FF4C060FFF73BFB01218D
:102620003248FEF7ADFF40F20260FFF733FB4FF494
:102630000043032210212E48FEF73CFF4FF40041D7
:102640002B48FEF735FF40F20460FFF723FB4023E1
:10265000032210212748FEF72DFF40212548FEF7D1
:1026600027FF8023032210212248FEF723FF802129
:102670002048FEF71BFF40F20560FFF70BFB042329
:10268000032210211C48FEF715FF04211A48FEF70B
:102690000FFF40F20460FFF7FDFA4FF4807303224E
:1026A00010211448FEF706FF4FF480711148FEF721
:1026B000FDFE4FF40073032210210E48FEF7FAFED0
:1026C0004FF400710B48FEF7F1FE40F20260FFF795
:1026D000E1FA4FF48063032210210548FEF7EAFE79
:1026E0004FF480610248FEF7E1FE10BD00023000A9
:1026F0000008014000100140001401402DE9F041A4
:1027000040212348FEF734FF044680212048FEF78D
:102710002FFF05464FF480711D48FEF729FF06463E
:102720004FF400711A48FEF723FF07464FF480610B
:102730001848FEF71DFF80460CB117A000E018A056
:10274000014618A0FEF7C8F80DB113A000E014A0D0
:10275000014619A0FEF7C0F80EB10FA000E010A0CE
:1027600001461AA0FEF7B8F80FB10BA000E00CA0CC
:1027700001461CA0FEF7B0F8B8F1000F01D006A08A
:1027800000E007A001461DA0FEF7A6F8BDE8F08115
:10279000001001400008014048494748000000007F
:1027A0004C4F570056616C766531202850433629CE
:1027B0003A2025730D0A000056616C766532202898
:1027C000504337293A2025730D0A000042616C619D
:1027D0006E6365312028504338293A2025730D0A4D
:1027E0000000000042616C616E6365322028504336
:1027F00039293A2025730D0A000000004F787967C7
:10280000656E202850413130293A2025730D0A0089
:1028100010B546A0FEF760F84CA0FEF75DF8012168
:10282000084600F04FF9FFF769FF4FF4FA60FEF732
:1028300021FE4CA0FEF750F80221012000F042F9E1
:10284000FFF75CFF4FF4FA60FEF714FE4BA0FEF7B3
:1028500043F80121022000F035F9FFF74FFF4FF454
:10286000FA60FEF707FE4BA0FEF736F80221084695
:1028700000F028F9FFF742FF4FF4FA60FEF7FAFD87
:102880004AA0FEF729F851A0FEF726F801210846D4
:10289000FFF7CCFAFFF732FF4FF4FA60FEF7EAFDDC
:1028A00052A0FEF719F802210120FFF7BFFAFFF747
:1028B00025FF4FF4FA60FEF7DDFD54A0FEF70CF89B
:1028C00001210220FFF7B2FAFFF718FF4FF4FA6078
:1028D000FEF7D0FD55A0FDF7FFFF02210846FFF7E8
:1028E000A5FAFFF70BFF4FF4FA60FEF7C3FD57A000
:1028F000FDF7F2FF5FA0FDF7EFFF0120FFF7FAF908
:10290000FFF7FCFE4FF4FA60FEF7B4FD60A0FDF7A0
:10291000E3FF0020FFF7EEF9FFF7F0FE4FF4FA6057
:10292000FEF7A8FD61A0FDF7D7FF10BD4F6E652D26
:102930007761792076616C766520636F6E74726F53
:102940006C20746573743A0D0A0000004F70656E58
:10295000696E672076616C766520312E2E2E0D0A09
:1029600000000000436C6F73696E672076616C76BF
:102970006520312E2E2E0D0A000000004F70656E6E
:10298000696E672076616C766520322E2E2E0D0AD8
:1029900000000000436C6F73696E672076616C768F
:1029A0006520322E2E2E0D0A0000000042616C615F
:1029B0006E63652076616C766520636F6E74726FEE
:1029C0006C20746573743A0D0A0000004F70656ED8
:1029D000696E672062616C616E63652076616C76FA
:1029E0006520312E2E2E0D0A00000000436C6F73FF
:1029F000696E672062616C616E63652076616C76DA
:102A00006520312E2E2E0D0A000000004F70656EDD
:102A1000696E672062616C616E63652076616C76B9
:102A20006520322E2E2E0D0A00000000436C6F73BD
:102A3000696E672062616C616E63652076616C7699
:102A40006520322E2E2E0D0A000000004F78796787
:102A5000656E2072656C656173652076616C766564
:102A600020636F6E74726F6C20746573743A0D0A14
:102A7000000000004F70656E696E67206F7879679F
:102A8000656E2076616C76652E2E2E0D0A00000094
:102A9000436C6F73696E67206F787967656E207617
:102AA000616C76652E2E2E0D0A00000056616C7644
:102AB00065207465737420636F6D706C6574652E2A
:102AC0000D0A000070B505460C46012D02D0022DFE
:102AD00026D112E0012C04D140211348FEF7E8FC76
:102AE0000AE0022C04D140210F48FEF7DFFC03E08E
:102AF00040210D48FEF7DAFC13E0012C04D18021BF
:102B00000948FEF7D5FC0AE0022C04D180210648D2
:102B1000FEF7CCFC03E080210348FEF7C7FC00E091
:102B200000BF00BF70BD00000010014074686973F1
:102B30002069732061207465737420737472696EE8
:102B4000670D0A00642B0008000000201800000038
:102B5000F80800087C2B0008180000208004000002
:102B600008090008000E2707000000002C2B0008B1
:0C2B700000000000000000000000000059
:0400000508000131BD
:00000001FF
